{
  "_format": "hh-sol-artifact-1",
  "contractName": "LOTTTest",
  "sourceName": "contracts/ERC777/ERC777Test.sol",
  "abi": [
    {
      "inputs": [
        {
          "internalType": "string",
          "name": "name",
          "type": "string"
        },
        {
          "internalType": "string",
          "name": "symbol",
          "type": "string"
        },
        {
          "internalType": "uint256",
          "name": "initialSupply",
          "type": "uint256"
        },
        {
          "internalType": "address",
          "name": "owner",
          "type": "address"
        }
      ],
      "stateMutability": "nonpayable",
      "type": "constructor"
    },
    {
      "anonymous": false,
      "inputs": [
        {
          "indexed": true,
          "internalType": "address",
          "name": "owner",
          "type": "address"
        },
        {
          "indexed": true,
          "internalType": "address",
          "name": "spender",
          "type": "address"
        },
        {
          "indexed": false,
          "internalType": "uint256",
          "name": "value",
          "type": "uint256"
        }
      ],
      "name": "Approval",
      "type": "event"
    },
    {
      "anonymous": false,
      "inputs": [
        {
          "indexed": true,
          "internalType": "address",
          "name": "operator",
          "type": "address"
        },
        {
          "indexed": true,
          "internalType": "address",
          "name": "tokenHolder",
          "type": "address"
        }
      ],
      "name": "AuthorizedOperator",
      "type": "event"
    },
    {
      "anonymous": false,
      "inputs": [
        {
          "indexed": true,
          "internalType": "address",
          "name": "operator",
          "type": "address"
        },
        {
          "indexed": true,
          "internalType": "address",
          "name": "from",
          "type": "address"
        },
        {
          "indexed": false,
          "internalType": "uint256",
          "name": "amount",
          "type": "uint256"
        },
        {
          "indexed": false,
          "internalType": "bytes",
          "name": "data",
          "type": "bytes"
        },
        {
          "indexed": false,
          "internalType": "bytes",
          "name": "operatorData",
          "type": "bytes"
        }
      ],
      "name": "Burned",
      "type": "event"
    },
    {
      "anonymous": false,
      "inputs": [
        {
          "indexed": true,
          "internalType": "address",
          "name": "operator",
          "type": "address"
        },
        {
          "indexed": true,
          "internalType": "address",
          "name": "to",
          "type": "address"
        },
        {
          "indexed": false,
          "internalType": "uint256",
          "name": "amount",
          "type": "uint256"
        },
        {
          "indexed": false,
          "internalType": "bytes",
          "name": "data",
          "type": "bytes"
        },
        {
          "indexed": false,
          "internalType": "bytes",
          "name": "operatorData",
          "type": "bytes"
        }
      ],
      "name": "Minted",
      "type": "event"
    },
    {
      "anonymous": false,
      "inputs": [
        {
          "indexed": true,
          "internalType": "address",
          "name": "operator",
          "type": "address"
        },
        {
          "indexed": true,
          "internalType": "address",
          "name": "tokenHolder",
          "type": "address"
        }
      ],
      "name": "RevokedOperator",
      "type": "event"
    },
    {
      "anonymous": false,
      "inputs": [
        {
          "indexed": true,
          "internalType": "address",
          "name": "operator",
          "type": "address"
        },
        {
          "indexed": true,
          "internalType": "address",
          "name": "from",
          "type": "address"
        },
        {
          "indexed": true,
          "internalType": "address",
          "name": "to",
          "type": "address"
        },
        {
          "indexed": false,
          "internalType": "uint256",
          "name": "amount",
          "type": "uint256"
        },
        {
          "indexed": false,
          "internalType": "bytes",
          "name": "data",
          "type": "bytes"
        },
        {
          "indexed": false,
          "internalType": "bytes",
          "name": "operatorData",
          "type": "bytes"
        }
      ],
      "name": "Sent",
      "type": "event"
    },
    {
      "anonymous": false,
      "inputs": [
        {
          "indexed": true,
          "internalType": "address",
          "name": "from",
          "type": "address"
        },
        {
          "indexed": true,
          "internalType": "address",
          "name": "to",
          "type": "address"
        },
        {
          "indexed": false,
          "internalType": "uint256",
          "name": "value",
          "type": "uint256"
        }
      ],
      "name": "Transfer",
      "type": "event"
    },
    {
      "inputs": [
        {
          "internalType": "address",
          "name": "holder",
          "type": "address"
        },
        {
          "internalType": "address",
          "name": "spender",
          "type": "address"
        }
      ],
      "name": "allowance",
      "outputs": [
        {
          "internalType": "uint256",
          "name": "",
          "type": "uint256"
        }
      ],
      "stateMutability": "view",
      "type": "function"
    },
    {
      "inputs": [
        {
          "internalType": "address",
          "name": "spender",
          "type": "address"
        },
        {
          "internalType": "uint256",
          "name": "value",
          "type": "uint256"
        }
      ],
      "name": "approve",
      "outputs": [
        {
          "internalType": "bool",
          "name": "",
          "type": "bool"
        }
      ],
      "stateMutability": "nonpayable",
      "type": "function"
    },
    {
      "inputs": [
        {
          "internalType": "address",
          "name": "operator",
          "type": "address"
        }
      ],
      "name": "authorizeOperator",
      "outputs": [],
      "stateMutability": "nonpayable",
      "type": "function"
    },
    {
      "inputs": [
        {
          "internalType": "address",
          "name": "tokenHolder",
          "type": "address"
        }
      ],
      "name": "balanceOf",
      "outputs": [
        {
          "internalType": "uint256",
          "name": "",
          "type": "uint256"
        }
      ],
      "stateMutability": "view",
      "type": "function"
    },
    {
      "inputs": [
        {
          "internalType": "uint256",
          "name": "amount",
          "type": "uint256"
        },
        {
          "internalType": "bytes",
          "name": "data",
          "type": "bytes"
        }
      ],
      "name": "burn",
      "outputs": [],
      "stateMutability": "nonpayable",
      "type": "function"
    },
    {
      "inputs": [],
      "name": "decimals",
      "outputs": [
        {
          "internalType": "uint8",
          "name": "",
          "type": "uint8"
        }
      ],
      "stateMutability": "pure",
      "type": "function"
    },
    {
      "inputs": [],
      "name": "defaultOperators",
      "outputs": [
        {
          "internalType": "address[]",
          "name": "",
          "type": "address[]"
        }
      ],
      "stateMutability": "view",
      "type": "function"
    },
    {
      "inputs": [],
      "name": "granularity",
      "outputs": [
        {
          "internalType": "uint256",
          "name": "",
          "type": "uint256"
        }
      ],
      "stateMutability": "view",
      "type": "function"
    },
    {
      "inputs": [
        {
          "internalType": "address",
          "name": "operator",
          "type": "address"
        },
        {
          "internalType": "address",
          "name": "tokenHolder",
          "type": "address"
        }
      ],
      "name": "isOperatorFor",
      "outputs": [
        {
          "internalType": "bool",
          "name": "",
          "type": "bool"
        }
      ],
      "stateMutability": "view",
      "type": "function"
    },
    {
      "inputs": [
        {
          "internalType": "uint256",
          "name": "amount",
          "type": "uint256"
        },
        {
          "internalType": "address",
          "name": "receiver",
          "type": "address"
        }
      ],
      "name": "mint",
      "outputs": [],
      "stateMutability": "nonpayable",
      "type": "function"
    },
    {
      "inputs": [],
      "name": "name",
      "outputs": [
        {
          "internalType": "string",
          "name": "",
          "type": "string"
        }
      ],
      "stateMutability": "view",
      "type": "function"
    },
    {
      "inputs": [
        {
          "internalType": "address",
          "name": "account",
          "type": "address"
        },
        {
          "internalType": "uint256",
          "name": "amount",
          "type": "uint256"
        },
        {
          "internalType": "bytes",
          "name": "data",
          "type": "bytes"
        },
        {
          "internalType": "bytes",
          "name": "operatorData",
          "type": "bytes"
        }
      ],
      "name": "operatorBurn",
      "outputs": [],
      "stateMutability": "nonpayable",
      "type": "function"
    },
    {
      "inputs": [
        {
          "internalType": "address",
          "name": "sender",
          "type": "address"
        },
        {
          "internalType": "address",
          "name": "recipient",
          "type": "address"
        },
        {
          "internalType": "uint256",
          "name": "amount",
          "type": "uint256"
        },
        {
          "internalType": "bytes",
          "name": "data",
          "type": "bytes"
        },
        {
          "internalType": "bytes",
          "name": "operatorData",
          "type": "bytes"
        }
      ],
      "name": "operatorSend",
      "outputs": [],
      "stateMutability": "nonpayable",
      "type": "function"
    },
    {
      "inputs": [
        {
          "internalType": "address",
          "name": "operator",
          "type": "address"
        }
      ],
      "name": "revokeOperator",
      "outputs": [],
      "stateMutability": "nonpayable",
      "type": "function"
    },
    {
      "inputs": [
        {
          "internalType": "address",
          "name": "recipient",
          "type": "address"
        },
        {
          "internalType": "uint256",
          "name": "amount",
          "type": "uint256"
        },
        {
          "internalType": "bytes",
          "name": "data",
          "type": "bytes"
        }
      ],
      "name": "send",
      "outputs": [],
      "stateMutability": "nonpayable",
      "type": "function"
    },
    {
      "inputs": [],
      "name": "symbol",
      "outputs": [
        {
          "internalType": "string",
          "name": "",
          "type": "string"
        }
      ],
      "stateMutability": "view",
      "type": "function"
    },
    {
      "inputs": [],
      "name": "totalSupply",
      "outputs": [
        {
          "internalType": "uint256",
          "name": "",
          "type": "uint256"
        }
      ],
      "stateMutability": "view",
      "type": "function"
    },
    {
      "inputs": [
        {
          "internalType": "address",
          "name": "recipient",
          "type": "address"
        },
        {
          "internalType": "uint256",
          "name": "amount",
          "type": "uint256"
        }
      ],
      "name": "transfer",
      "outputs": [
        {
          "internalType": "bool",
          "name": "",
          "type": "bool"
        }
      ],
      "stateMutability": "nonpayable",
      "type": "function"
    },
    {
      "inputs": [
        {
          "internalType": "address",
          "name": "holder",
          "type": "address"
        },
        {
          "internalType": "address",
          "name": "recipient",
          "type": "address"
        },
        {
          "internalType": "uint256",
          "name": "amount",
          "type": "uint256"
        }
      ],
      "name": "transferFrom",
      "outputs": [
        {
          "internalType": "bool",
          "name": "",
          "type": "bool"
        }
      ],
      "stateMutability": "nonpayable",
      "type": "function"
    }
  ],
  "bytecode": "0x608060405260405180602001604052807354d7c27ad926639065932aa91f5a45133c6b56b573ffffffffffffffffffffffffffffffffffffffff1673ffffffffffffffffffffffffffffffffffffffff16815250600990600162000065929190620007d1565b503480156200007357600080fd5b506040516200428538038062004285833981810160405281019062000099919062000bdc565b838360098054806020026020016040519081016040528092919081815260200182805480156200011f57602002820191906000526020600020905b8160009054906101000a900473ffffffffffffffffffffffffffffffffffffffff1673ffffffffffffffffffffffffffffffffffffffff1681526020019060010190808311620000d4575b505050505082600290805190602001906200013c92919062000860565b5081600390805190602001906200015592919062000860565b5080600490805190602001906200016e929190620008f1565b5060005b8151811015620002075760016005600084848151811062000198576200019762000c8c565b5b602002602001015173ffffffffffffffffffffffffffffffffffffffff1673ffffffffffffffffffffffffffffffffffffffff16815260200190815260200160002060006101000a81548160ff0219169083151502179055508080620001fe9062000cea565b91505062000172565b50731820a4b7618bde71dce8cdc73aab6c95905fad2473ffffffffffffffffffffffffffffffffffffffff166329965a1d307fac7fbab5f54a3ca8194167523c6753bfeb96a445279294b6125b68cce2177054306040518463ffffffff1660e01b81526004016200027b9392919062000d64565b600060405180830381600087803b1580156200029657600080fd5b505af1158015620002ab573d6000803e3d6000fd5b50505050731820a4b7618bde71dce8cdc73aab6c95905fad2473ffffffffffffffffffffffffffffffffffffffff166329965a1d307faea199e31a596269b42cdafd93407f14436db6e4cad65417994c2eb37381e05a306040518463ffffffff1660e01b8152600401620003229392919062000d64565b600060405180830381600087803b1580156200033d57600080fd5b505af115801562000352573d6000803e3d6000fd5b505050505050506200038b818360405180602001604052806000815250604051806020016040528060008152506200039560201b60201c565b5050505062001154565b620003ab848484846001620003b160201b60201c565b50505050565b600073ffffffffffffffffffffffffffffffffffffffff168573ffffffffffffffffffffffffffffffffffffffff16141562000424576040517f08c379a00000000000000000000000000000000000000000000000000000000081526004016200041b9062000e02565b60405180910390fd5b600062000436620005b260201b60201c565b90506200044d8160008888620005ba60201b60201c565b846001600082825462000461919062000e24565b92505081905550846000808873ffffffffffffffffffffffffffffffffffffffff1673ffffffffffffffffffffffffffffffffffffffff1681526020019081526020016000206000828254620004b8919062000e24565b92505081905550620004d78160008888888888620005c060201b60201c565b8573ffffffffffffffffffffffffffffffffffffffff168173ffffffffffffffffffffffffffffffffffffffff167f2fe5be0146f74c5bce36c0b80911af6c7d86ff27e89d5cfa61fc681327954e5d8787876040516200053a9392919062000eef565b60405180910390a38573ffffffffffffffffffffffffffffffffffffffff16600073ffffffffffffffffffffffffffffffffffffffff167fddf252ad1be2c89b69c2b068fc378daa952ba7f163c4a11628f55a4df523b3ef87604051620005a2919062000f3a565b60405180910390a3505050505050565b600033905090565b50505050565b6000731820a4b7618bde71dce8cdc73aab6c95905fad2473ffffffffffffffffffffffffffffffffffffffff1663aabbb8ca877fb281fc8c12954d22544db45de3159a39272895b169a852b314f9cc762e44c53b6040518363ffffffff1660e01b81526004016200063392919062000f57565b60206040518083038186803b1580156200064c57600080fd5b505afa15801562000661573d6000803e3d6000fd5b505050506040513d601f19601f8201168201806040525081019062000687919062000f84565b9050600073ffffffffffffffffffffffffffffffffffffffff168173ffffffffffffffffffffffffffffffffffffffff16146200073c578073ffffffffffffffffffffffffffffffffffffffff166223de298989898989896040518763ffffffff1660e01b8152600401620007029695949392919062000fb6565b600060405180830381600087803b1580156200071d57600080fd5b505af115801562000732573d6000803e3d6000fd5b50505050620007b4565b8115620007b3576200076f8673ffffffffffffffffffffffffffffffffffffffff16620007be60201b6200119f1760201c565b15620007b2576040517f08c379a0000000000000000000000000000000000000000000000000000000008152600401620007a990620010cd565b60405180910390fd5b5b5b5050505050505050565b600080823b905060008111915050919050565b8280548282559060005260206000209081019282156200084d579160200282015b828111156200084c5782518260006101000a81548173ffffffffffffffffffffffffffffffffffffffff021916908373ffffffffffffffffffffffffffffffffffffffff16021790555091602001919060010190620007f2565b5b5090506200085c919062000980565b5090565b8280546200086e906200111e565b90600052602060002090601f016020900481019282620008925760008555620008de565b82601f10620008ad57805160ff1916838001178555620008de565b82800160010185558215620008de579182015b82811115620008dd578251825591602001919060010190620008c0565b5b509050620008ed919062000980565b5090565b8280548282559060005260206000209081019282156200096d579160200282015b828111156200096c5782518260006101000a81548173ffffffffffffffffffffffffffffffffffffffff021916908373ffffffffffffffffffffffffffffffffffffffff1602179055509160200191906001019062000912565b5b5090506200097c919062000980565b5090565b5b808211156200099b57600081600090555060010162000981565b5090565b6000604051905090565b600080fd5b600080fd5b600080fd5b600080fd5b6000601f19601f8301169050919050565b7f4e487b7100000000000000000000000000000000000000000000000000000000600052604160045260246000fd5b62000a0882620009bd565b810181811067ffffffffffffffff8211171562000a2a5762000a29620009ce565b5b80604052505050565b600062000a3f6200099f565b905062000a4d8282620009fd565b919050565b600067ffffffffffffffff82111562000a705762000a6f620009ce565b5b62000a7b82620009bd565b9050602081019050919050565b60005b8381101562000aa857808201518184015260208101905062000a8b565b8381111562000ab8576000848401525b50505050565b600062000ad562000acf8462000a52565b62000a33565b90508281526020810184848401111562000af45762000af3620009b8565b5b62000b0184828562000a88565b509392505050565b600082601f83011262000b215762000b20620009b3565b5b815162000b3384826020860162000abe565b91505092915050565b6000819050919050565b62000b518162000b3c565b811462000b5d57600080fd5b50565b60008151905062000b718162000b46565b92915050565b600073ffffffffffffffffffffffffffffffffffffffff82169050919050565b600062000ba48262000b77565b9050919050565b62000bb68162000b97565b811462000bc257600080fd5b50565b60008151905062000bd68162000bab565b92915050565b6000806000806080858703121562000bf95762000bf8620009a9565b5b600085015167ffffffffffffffff81111562000c1a5762000c19620009ae565b5b62000c288782880162000b09565b945050602085015167ffffffffffffffff81111562000c4c5762000c4b620009ae565b5b62000c5a8782880162000b09565b935050604062000c6d8782880162000b60565b925050606062000c808782880162000bc5565b91505092959194509250565b7f4e487b7100000000000000000000000000000000000000000000000000000000600052603260045260246000fd5b7f4e487b7100000000000000000000000000000000000000000000000000000000600052601160045260246000fd5b600062000cf78262000b3c565b91507fffffffffffffffffffffffffffffffffffffffffffffffffffffffffffffffff82141562000d2d5762000d2c62000cbb565b5b600182019050919050565b62000d438162000b97565b82525050565b6000819050919050565b62000d5e8162000d49565b82525050565b600060608201905062000d7b600083018662000d38565b62000d8a602083018562000d53565b62000d99604083018462000d38565b949350505050565b600082825260208201905092915050565b7f4552433737373a206d696e7420746f20746865207a65726f2061646472657373600082015250565b600062000dea60208362000da1565b915062000df78262000db2565b602082019050919050565b6000602082019050818103600083015262000e1d8162000ddb565b9050919050565b600062000e318262000b3c565b915062000e3e8362000b3c565b9250827fffffffffffffffffffffffffffffffffffffffffffffffffffffffffffffffff0382111562000e765762000e7562000cbb565b5b828201905092915050565b62000e8c8162000b3c565b82525050565b600081519050919050565b600082825260208201905092915050565b600062000ebb8262000e92565b62000ec7818562000e9d565b935062000ed981856020860162000a88565b62000ee481620009bd565b840191505092915050565b600060608201905062000f06600083018662000e81565b818103602083015262000f1a818562000eae565b9050818103604083015262000f30818462000eae565b9050949350505050565b600060208201905062000f51600083018462000e81565b92915050565b600060408201905062000f6e600083018562000d38565b62000f7d602083018462000d53565b9392505050565b60006020828403121562000f9d5762000f9c620009a9565b5b600062000fad8482850162000bc5565b91505092915050565b600060c08201905062000fcd600083018962000d38565b62000fdc602083018862000d38565b62000feb604083018762000d38565b62000ffa606083018662000e81565b81810360808301526200100e818562000eae565b905081810360a083015262001024818462000eae565b9050979650505050505050565b7f4552433737373a20746f6b656e20726563697069656e7420636f6e747261637460008201527f20686173206e6f20696d706c656d656e74657220666f7220455243373737546f60208201527f6b656e73526563697069656e7400000000000000000000000000000000000000604082015250565b6000620010b5604d8362000da1565b9150620010c28262001031565b606082019050919050565b60006020820190508181036000830152620010e881620010a6565b9050919050565b7f4e487b7100000000000000000000000000000000000000000000000000000000600052602260045260246000fd5b600060028204905060018216806200113757607f821691505b602082108114156200114e576200114d620010ef565b5b50919050565b61312180620011646000396000f3fe608060405234801561001057600080fd5b50600436106101215760003560e01c806394bf804d116100ad578063d95b637111610071578063d95b63711461030a578063dd62ed3e1461033a578063fad8b32a1461036a578063fc673c4f14610386578063fe9d9303146103a257610121565b806394bf804d14610268578063959b8c3f1461028457806395d89b41146102a05780639bd9bbc6146102be578063a9059cbb146102da57610121565b806323b872dd116100f457806323b872dd146101b0578063313ce567146101e0578063556f0dc7146101fe57806362ad1b831461021c57806370a082311461023857610121565b806306e485381461012657806306fdde0314610144578063095ea7b31461016257806318160ddd14610192575b600080fd5b61012e6103be565b60405161013b9190611f51565b60405180910390f35b61014c61044c565b604051610159919061200c565b60405180910390f35b61017c600480360381019061017791906120a4565b6104de565b60405161018991906120ff565b60405180910390f35b61019a610501565b6040516101a79190612129565b60405180910390f35b6101ca60048036038101906101c59190612144565b61050b565b6040516101d791906120ff565b60405180910390f35b6101e8610765565b6040516101f591906121b3565b60405180910390f35b61020661076e565b6040516102139190612129565b60405180910390f35b61023660048036038101906102319190612303565b610777565b005b610252600480360381019061024d91906123b6565b6107dd565b60405161025f9190612129565b60405180910390f35b610282600480360381019061027d91906123e3565b610825565b005b61029e600480360381019061029991906123b6565b610853565b005b6102a8610ab4565b6040516102b5919061200c565b60405180910390f35b6102d860048036038101906102d39190612423565b610b46565b005b6102f460048036038101906102ef91906120a4565b610b70565b60405161030191906120ff565b60405180910390f35b610324600480360381019061031f9190612492565b610c7e565b60405161033191906120ff565b60405180910390f35b610354600480360381019061034f9190612492565b610e2f565b6040516103619190612129565b60405180910390f35b610384600480360381019061037f91906123b6565b610eb6565b005b6103a0600480360381019061039b91906124d2565b611117565b005b6103bc60048036038101906103b79190612571565b611179565b005b6060600480548060200260200160405190810160405280929190818152602001828054801561044257602002820191906000526020600020905b8160009054906101000a900473ffffffffffffffffffffffffffffffffffffffff1673ffffffffffffffffffffffffffffffffffffffff16815260200190600101908083116103f8575b5050505050905090565b60606002805461045b906125fc565b80601f0160208091040260200160405190810160405280929190818152602001828054610487906125fc565b80156104d45780601f106104a9576101008083540402835291602001916104d4565b820191906000526020600020905b8154815290600101906020018083116104b757829003601f168201915b5050505050905090565b6000806104e96111b2565b90506104f68185856111ba565b600191505092915050565b6000600154905090565b60008073ffffffffffffffffffffffffffffffffffffffff168373ffffffffffffffffffffffffffffffffffffffff16141561057c576040517f08c379a0000000000000000000000000000000000000000000000000000000008152600401610573906126a0565b60405180910390fd5b600073ffffffffffffffffffffffffffffffffffffffff168473ffffffffffffffffffffffffffffffffffffffff1614156105ec576040517f08c379a00000000000000000000000000000000000000000000000000000000081526004016105e390612732565b60405180910390fd5b60006105f66111b2565b9050610624818686866040518060200160405280600081525060405180602001604052806000815250611385565b6106508186868660405180602001604052806000815250604051806020016040528060008152506114fb565b6000600860008773ffffffffffffffffffffffffffffffffffffffff1673ffffffffffffffffffffffffffffffffffffffff16815260200190815260200160002060008373ffffffffffffffffffffffffffffffffffffffff1673ffffffffffffffffffffffffffffffffffffffff16815260200190815260200160002054905083811015610714576040517f08c379a000000000000000000000000000000000000000000000000000000000815260040161070b906127c4565b60405180910390fd5b61072a868386846107259190612813565b6111ba565b6107588287878760405180602001604052806000815250604051806020016040528060008152506000611715565b6001925050509392505050565b60006012905090565b60006001905090565b6107886107826111b2565b86610c7e565b6107c7576040517f08c379a00000000000000000000000000000000000000000000000000000000081526004016107be906128b9565b60405180910390fd5b6107d6858585858560016118f6565b5050505050565b60008060008373ffffffffffffffffffffffffffffffffffffffff1673ffffffffffffffffffffffffffffffffffffffff168152602001908152602001600020549050919050565b61084f81836040518060200160405280600081525060405180602001604052806000815250611a16565b5050565b8073ffffffffffffffffffffffffffffffffffffffff166108726111b2565b73ffffffffffffffffffffffffffffffffffffffff1614156108c9576040517f08c379a00000000000000000000000000000000000000000000000000000000081526004016108c09061294b565b60405180910390fd5b600560008273ffffffffffffffffffffffffffffffffffffffff1673ffffffffffffffffffffffffffffffffffffffff16815260200190815260200160002060009054906101000a900460ff16156109b357600760006109276111b2565b73ffffffffffffffffffffffffffffffffffffffff1673ffffffffffffffffffffffffffffffffffffffff16815260200190815260200160002060008273ffffffffffffffffffffffffffffffffffffffff1673ffffffffffffffffffffffffffffffffffffffff16815260200190815260200160002060006101000a81549060ff0219169055610a50565b6001600660006109c16111b2565b73ffffffffffffffffffffffffffffffffffffffff1673ffffffffffffffffffffffffffffffffffffffff16815260200190815260200160002060008373ffffffffffffffffffffffffffffffffffffffff1673ffffffffffffffffffffffffffffffffffffffff16815260200190815260200160002060006101000a81548160ff0219169083151502179055505b610a586111b2565b73ffffffffffffffffffffffffffffffffffffffff168173ffffffffffffffffffffffffffffffffffffffff167ff4caeb2d6ca8932a215a353d0703c326ec2d81fc68170f320eb2ab49e9df61f960405160405180910390a350565b606060038054610ac3906125fc565b80601f0160208091040260200160405190810160405280929190818152602001828054610aef906125fc565b8015610b3c5780601f10610b1157610100808354040283529160200191610b3c565b820191906000526020600020905b815481529060010190602001808311610b1f57829003601f168201915b5050505050905090565b610b6b610b516111b2565b8484846040518060200160405280600081525060016118f6565b505050565b60008073ffffffffffffffffffffffffffffffffffffffff168373ffffffffffffffffffffffffffffffffffffffff161415610be1576040517f08c379a0000000000000000000000000000000000000000000000000000000008152600401610bd8906126a0565b60405180910390fd5b6000610beb6111b2565b9050610c19818286866040518060200160405280600081525060405180602001604052806000815250611385565b610c458182868660405180602001604052806000815250604051806020016040528060008152506114fb565b610c738182868660405180602001604052806000815250604051806020016040528060008152506000611715565b600191505092915050565b60008173ffffffffffffffffffffffffffffffffffffffff168373ffffffffffffffffffffffffffffffffffffffff161480610d965750600560008473ffffffffffffffffffffffffffffffffffffffff1673ffffffffffffffffffffffffffffffffffffffff16815260200190815260200160002060009054906101000a900460ff168015610d955750600760008373ffffffffffffffffffffffffffffffffffffffff1673ffffffffffffffffffffffffffffffffffffffff16815260200190815260200160002060008473ffffffffffffffffffffffffffffffffffffffff1673ffffffffffffffffffffffffffffffffffffffff16815260200190815260200160002060009054906101000a900460ff16155b5b80610e275750600660008373ffffffffffffffffffffffffffffffffffffffff1673ffffffffffffffffffffffffffffffffffffffff16815260200190815260200160002060008473ffffffffffffffffffffffffffffffffffffffff1673ffffffffffffffffffffffffffffffffffffffff16815260200190815260200160002060009054906101000a900460ff165b905092915050565b6000600860008473ffffffffffffffffffffffffffffffffffffffff1673ffffffffffffffffffffffffffffffffffffffff16815260200190815260200160002060008373ffffffffffffffffffffffffffffffffffffffff1673ffffffffffffffffffffffffffffffffffffffff16815260200190815260200160002054905092915050565b610ebe6111b2565b73ffffffffffffffffffffffffffffffffffffffff168173ffffffffffffffffffffffffffffffffffffffff161415610f2c576040517f08c379a0000000000000000000000000000000000000000000000000000000008152600401610f23906129dd565b60405180910390fd5b600560008273ffffffffffffffffffffffffffffffffffffffff1673ffffffffffffffffffffffffffffffffffffffff16815260200190815260200160002060009054906101000a900460ff161561101f57600160076000610f8c6111b2565b73ffffffffffffffffffffffffffffffffffffffff1673ffffffffffffffffffffffffffffffffffffffff16815260200190815260200160002060008373ffffffffffffffffffffffffffffffffffffffff1673ffffffffffffffffffffffffffffffffffffffff16815260200190815260200160002060006101000a81548160ff0219169083151502179055506110b3565b6006600061102b6111b2565b73ffffffffffffffffffffffffffffffffffffffff1673ffffffffffffffffffffffffffffffffffffffff16815260200190815260200160002060008273ffffffffffffffffffffffffffffffffffffffff1673ffffffffffffffffffffffffffffffffffffffff16815260200190815260200160002060006101000a81549060ff02191690555b6110bb6111b2565b73ffffffffffffffffffffffffffffffffffffffff168173ffffffffffffffffffffffffffffffffffffffff167f50546e66e5f44d728365dc3908c63bc5cfeeab470722c1677e3073a6ac294aa160405160405180910390a350565b6111286111226111b2565b85610c7e565b611167576040517f08c379a000000000000000000000000000000000000000000000000000000000815260040161115e906128b9565b60405180910390fd5b61117384848484611a2a565b50505050565b61119b6111846111b2565b838360405180602001604052806000815250611a2a565b5050565b600080823b905060008111915050919050565b600033905090565b600073ffffffffffffffffffffffffffffffffffffffff168373ffffffffffffffffffffffffffffffffffffffff16141561122a576040517f08c379a000000000000000000000000000000000000000000000000000000000815260040161122190612a6f565b60405180910390fd5b600073ffffffffffffffffffffffffffffffffffffffff168273ffffffffffffffffffffffffffffffffffffffff16141561129a576040517f08c379a000000000000000000000000000000000000000000000000000000000815260040161129190612b01565b60405180910390fd5b80600860008573ffffffffffffffffffffffffffffffffffffffff1673ffffffffffffffffffffffffffffffffffffffff16815260200190815260200160002060008473ffffffffffffffffffffffffffffffffffffffff1673ffffffffffffffffffffffffffffffffffffffff168152602001908152602001600020819055508173ffffffffffffffffffffffffffffffffffffffff168373ffffffffffffffffffffffffffffffffffffffff167f8c5be1e5ebec7d5bd14f71427d1e84f3dd0314c0f7b2291e5b200ac8c7c3b925836040516113789190612129565b60405180910390a3505050565b6000731820a4b7618bde71dce8cdc73aab6c95905fad2473ffffffffffffffffffffffffffffffffffffffff1663aabbb8ca877f29ddb589b1fb5fc7cf394961c1adf5f8c6454761adf795e67fe149f658abe8956040518363ffffffff1660e01b81526004016113f6929190612b49565b60206040518083038186803b15801561140e57600080fd5b505afa158015611422573d6000803e3d6000fd5b505050506040513d601f19601f820116820180604052508101906114469190612b87565b9050600073ffffffffffffffffffffffffffffffffffffffff168173ffffffffffffffffffffffffffffffffffffffff16146114f2578073ffffffffffffffffffffffffffffffffffffffff166375ab97828888888888886040518763ffffffff1660e01b81526004016114bf96959493929190612c09565b600060405180830381600087803b1580156114d957600080fd5b505af11580156114ed573d6000803e3d6000fd5b505050505b50505050505050565b61150786868686611c7d565b60008060008773ffffffffffffffffffffffffffffffffffffffff1673ffffffffffffffffffffffffffffffffffffffff1681526020019081526020016000205490508381101561158d576040517f08c379a000000000000000000000000000000000000000000000000000000000815260040161158490612cea565b60405180910390fd5b8381036000808873ffffffffffffffffffffffffffffffffffffffff1673ffffffffffffffffffffffffffffffffffffffff16815260200190815260200160002081905550836000808773ffffffffffffffffffffffffffffffffffffffff1673ffffffffffffffffffffffffffffffffffffffff16815260200190815260200160002060008282546116209190612d0a565b925050819055508473ffffffffffffffffffffffffffffffffffffffff168673ffffffffffffffffffffffffffffffffffffffff168873ffffffffffffffffffffffffffffffffffffffff167f06b541ddaa720db2b10a4d0cdac39b8d360425fc073085fac19bc8261467798787878760405161169f93929190612d60565b60405180910390a48473ffffffffffffffffffffffffffffffffffffffff168673ffffffffffffffffffffffffffffffffffffffff167fddf252ad1be2c89b69c2b068fc378daa952ba7f163c4a11628f55a4df523b3ef866040516117049190612129565b60405180910390a350505050505050565b6000731820a4b7618bde71dce8cdc73aab6c95905fad2473ffffffffffffffffffffffffffffffffffffffff1663aabbb8ca877fb281fc8c12954d22544db45de3159a39272895b169a852b314f9cc762e44c53b6040518363ffffffff1660e01b8152600401611786929190612b49565b60206040518083038186803b15801561179e57600080fd5b505afa1580156117b2573d6000803e3d6000fd5b505050506040513d601f19601f820116820180604052508101906117d69190612b87565b9050600073ffffffffffffffffffffffffffffffffffffffff168173ffffffffffffffffffffffffffffffffffffffff1614611885578073ffffffffffffffffffffffffffffffffffffffff166223de298989898989896040518763ffffffff1660e01b815260040161184e96959493929190612c09565b600060405180830381600087803b15801561186857600080fd5b505af115801561187c573d6000803e3d6000fd5b505050506118ec565b81156118eb576118aa8673ffffffffffffffffffffffffffffffffffffffff1661119f565b156118ea576040517f08c379a00000000000000000000000000000000000000000000000000000000081526004016118e190612e3d565b60405180910390fd5b5b5b5050505050505050565b600073ffffffffffffffffffffffffffffffffffffffff168673ffffffffffffffffffffffffffffffffffffffff161415611966576040517f08c379a000000000000000000000000000000000000000000000000000000000815260040161195d90612ecf565b60405180910390fd5b600073ffffffffffffffffffffffffffffffffffffffff168573ffffffffffffffffffffffffffffffffffffffff1614156119d6576040517f08c379a00000000000000000000000000000000000000000000000000000000081526004016119cd90612f3b565b60405180910390fd5b60006119e06111b2565b90506119f0818888888888611385565b6119fe8188888888886114fb565b611a0d81888888888888611715565b50505050505050565b611a24848484846001611c83565b50505050565b600073ffffffffffffffffffffffffffffffffffffffff168473ffffffffffffffffffffffffffffffffffffffff161415611a9a576040517f08c379a0000000000000000000000000000000000000000000000000000000008152600401611a9190612fcd565b60405180910390fd5b6000611aa46111b2565b9050611ab581866000878787611385565b611ac28186600087611c7d565b60008060008773ffffffffffffffffffffffffffffffffffffffff1673ffffffffffffffffffffffffffffffffffffffff16815260200190815260200160002054905084811015611b48576040517f08c379a0000000000000000000000000000000000000000000000000000000008152600401611b3f9061305f565b60405180910390fd5b8481036000808873ffffffffffffffffffffffffffffffffffffffff1673ffffffffffffffffffffffffffffffffffffffff168152602001908152602001600020819055508460016000828254611b9f9190612813565b925050819055508573ffffffffffffffffffffffffffffffffffffffff168273ffffffffffffffffffffffffffffffffffffffff167fa78a9be3a7b862d26933ad85fb11d80ef66b8f972d7cbba06621d583943a4098878787604051611c0793929190612d60565b60405180910390a3600073ffffffffffffffffffffffffffffffffffffffff168673ffffffffffffffffffffffffffffffffffffffff167fddf252ad1be2c89b69c2b068fc378daa952ba7f163c4a11628f55a4df523b3ef87604051611c6d9190612129565b60405180910390a3505050505050565b50505050565b600073ffffffffffffffffffffffffffffffffffffffff168573ffffffffffffffffffffffffffffffffffffffff161415611cf3576040517f08c379a0000000000000000000000000000000000000000000000000000000008152600401611cea906130cb565b60405180910390fd5b6000611cfd6111b2565b9050611d0c8160008888611c7d565b8460016000828254611d1e9190612d0a565b92505081905550846000808873ffffffffffffffffffffffffffffffffffffffff1673ffffffffffffffffffffffffffffffffffffffff1681526020019081526020016000206000828254611d739190612d0a565b92505081905550611d8a8160008888888888611715565b8573ffffffffffffffffffffffffffffffffffffffff168173ffffffffffffffffffffffffffffffffffffffff167f2fe5be0146f74c5bce36c0b80911af6c7d86ff27e89d5cfa61fc681327954e5d878787604051611deb93929190612d60565b60405180910390a38573ffffffffffffffffffffffffffffffffffffffff16600073ffffffffffffffffffffffffffffffffffffffff167fddf252ad1be2c89b69c2b068fc378daa952ba7f163c4a11628f55a4df523b3ef87604051611e519190612129565b60405180910390a3505050505050565b600081519050919050565b600082825260208201905092915050565b6000819050602082019050919050565b600073ffffffffffffffffffffffffffffffffffffffff82169050919050565b6000611eb882611e8d565b9050919050565b611ec881611ead565b82525050565b6000611eda8383611ebf565b60208301905092915050565b6000602082019050919050565b6000611efe82611e61565b611f088185611e6c565b9350611f1383611e7d565b8060005b83811015611f44578151611f2b8882611ece565b9750611f3683611ee6565b925050600181019050611f17565b5085935050505092915050565b60006020820190508181036000830152611f6b8184611ef3565b905092915050565b600081519050919050565b600082825260208201905092915050565b60005b83811015611fad578082015181840152602081019050611f92565b83811115611fbc576000848401525b50505050565b6000601f19601f8301169050919050565b6000611fde82611f73565b611fe88185611f7e565b9350611ff8818560208601611f8f565b61200181611fc2565b840191505092915050565b600060208201905081810360008301526120268184611fd3565b905092915050565b6000604051905090565b600080fd5b600080fd5b61204b81611ead565b811461205657600080fd5b50565b60008135905061206881612042565b92915050565b6000819050919050565b6120818161206e565b811461208c57600080fd5b50565b60008135905061209e81612078565b92915050565b600080604083850312156120bb576120ba612038565b5b60006120c985828601612059565b92505060206120da8582860161208f565b9150509250929050565b60008115159050919050565b6120f9816120e4565b82525050565b600060208201905061211460008301846120f0565b92915050565b6121238161206e565b82525050565b600060208201905061213e600083018461211a565b92915050565b60008060006060848603121561215d5761215c612038565b5b600061216b86828701612059565b935050602061217c86828701612059565b925050604061218d8682870161208f565b9150509250925092565b600060ff82169050919050565b6121ad81612197565b82525050565b60006020820190506121c860008301846121a4565b92915050565b600080fd5b600080fd5b7f4e487b7100000000000000000000000000000000000000000000000000000000600052604160045260246000fd5b61221082611fc2565b810181811067ffffffffffffffff8211171561222f5761222e6121d8565b5b80604052505050565b600061224261202e565b905061224e8282612207565b919050565b600067ffffffffffffffff82111561226e5761226d6121d8565b5b61227782611fc2565b9050602081019050919050565b82818337600083830152505050565b60006122a66122a184612253565b612238565b9050828152602081018484840111156122c2576122c16121d3565b5b6122cd848285612284565b509392505050565b600082601f8301126122ea576122e96121ce565b5b81356122fa848260208601612293565b91505092915050565b600080600080600060a0868803121561231f5761231e612038565b5b600061232d88828901612059565b955050602061233e88828901612059565b945050604061234f8882890161208f565b935050606086013567ffffffffffffffff8111156123705761236f61203d565b5b61237c888289016122d5565b925050608086013567ffffffffffffffff81111561239d5761239c61203d565b5b6123a9888289016122d5565b9150509295509295909350565b6000602082840312156123cc576123cb612038565b5b60006123da84828501612059565b91505092915050565b600080604083850312156123fa576123f9612038565b5b60006124088582860161208f565b925050602061241985828601612059565b9150509250929050565b60008060006060848603121561243c5761243b612038565b5b600061244a86828701612059565b935050602061245b8682870161208f565b925050604084013567ffffffffffffffff81111561247c5761247b61203d565b5b612488868287016122d5565b9150509250925092565b600080604083850312156124a9576124a8612038565b5b60006124b785828601612059565b92505060206124c885828601612059565b9150509250929050565b600080600080608085870312156124ec576124eb612038565b5b60006124fa87828801612059565b945050602061250b8782880161208f565b935050604085013567ffffffffffffffff81111561252c5761252b61203d565b5b612538878288016122d5565b925050606085013567ffffffffffffffff8111156125595761255861203d565b5b612565878288016122d5565b91505092959194509250565b6000806040838503121561258857612587612038565b5b60006125968582860161208f565b925050602083013567ffffffffffffffff8111156125b7576125b661203d565b5b6125c3858286016122d5565b9150509250929050565b7f4e487b7100000000000000000000000000000000000000000000000000000000600052602260045260246000fd5b6000600282049050600182168061261457607f821691505b60208210811415612628576126276125cd565b5b50919050565b7f4552433737373a207472616e7366657220746f20746865207a65726f2061646460008201527f7265737300000000000000000000000000000000000000000000000000000000602082015250565b600061268a602483611f7e565b91506126958261262e565b604082019050919050565b600060208201905081810360008301526126b98161267d565b9050919050565b7f4552433737373a207472616e736665722066726f6d20746865207a65726f206160008201527f6464726573730000000000000000000000000000000000000000000000000000602082015250565b600061271c602683611f7e565b9150612727826126c0565b604082019050919050565b6000602082019050818103600083015261274b8161270f565b9050919050565b7f4552433737373a207472616e7366657220616d6f756e7420657863656564732060008201527f616c6c6f77616e63650000000000000000000000000000000000000000000000602082015250565b60006127ae602983611f7e565b91506127b982612752565b604082019050919050565b600060208201905081810360008301526127dd816127a1565b9050919050565b7f4e487b7100000000000000000000000000000000000000000000000000000000600052601160045260246000fd5b600061281e8261206e565b91506128298361206e565b92508282101561283c5761283b6127e4565b5b828203905092915050565b7f4552433737373a2063616c6c6572206973206e6f7420616e206f70657261746f60008201527f7220666f7220686f6c6465720000000000000000000000000000000000000000602082015250565b60006128a3602c83611f7e565b91506128ae82612847565b604082019050919050565b600060208201905081810360008301526128d281612896565b9050919050565b7f4552433737373a20617574686f72697a696e672073656c66206173206f70657260008201527f61746f7200000000000000000000000000000000000000000000000000000000602082015250565b6000612935602483611f7e565b9150612940826128d9565b604082019050919050565b6000602082019050818103600083015261296481612928565b9050919050565b7f4552433737373a207265766f6b696e672073656c66206173206f70657261746f60008201527f7200000000000000000000000000000000000000000000000000000000000000602082015250565b60006129c7602183611f7e565b91506129d28261296b565b604082019050919050565b600060208201905081810360008301526129f6816129ba565b9050919050565b7f4552433737373a20617070726f76652066726f6d20746865207a65726f20616460008201527f6472657373000000000000000000000000000000000000000000000000000000602082015250565b6000612a59602583611f7e565b9150612a64826129fd565b604082019050919050565b60006020820190508181036000830152612a8881612a4c565b9050919050565b7f4552433737373a20617070726f766520746f20746865207a65726f206164647260008201527f6573730000000000000000000000000000000000000000000000000000000000602082015250565b6000612aeb602383611f7e565b9150612af682612a8f565b604082019050919050565b60006020820190508181036000830152612b1a81612ade565b9050919050565b612b2a81611ead565b82525050565b6000819050919050565b612b4381612b30565b82525050565b6000604082019050612b5e6000830185612b21565b612b6b6020830184612b3a565b9392505050565b600081519050612b8181612042565b92915050565b600060208284031215612b9d57612b9c612038565b5b6000612bab84828501612b72565b91505092915050565b600081519050919050565b600082825260208201905092915050565b6000612bdb82612bb4565b612be58185612bbf565b9350612bf5818560208601611f8f565b612bfe81611fc2565b840191505092915050565b600060c082019050612c1e6000830189612b21565b612c2b6020830188612b21565b612c386040830187612b21565b612c45606083018661211a565b8181036080830152612c578185612bd0565b905081810360a0830152612c6b8184612bd0565b9050979650505050505050565b7f4552433737373a207472616e7366657220616d6f756e7420657863656564732060008201527f62616c616e636500000000000000000000000000000000000000000000000000602082015250565b6000612cd4602783611f7e565b9150612cdf82612c78565b604082019050919050565b60006020820190508181036000830152612d0381612cc7565b9050919050565b6000612d158261206e565b9150612d208361206e565b9250827fffffffffffffffffffffffffffffffffffffffffffffffffffffffffffffffff03821115612d5557612d546127e4565b5b828201905092915050565b6000606082019050612d75600083018661211a565b8181036020830152612d878185612bd0565b90508181036040830152612d9b8184612bd0565b9050949350505050565b7f4552433737373a20746f6b656e20726563697069656e7420636f6e747261637460008201527f20686173206e6f20696d706c656d656e74657220666f7220455243373737546f60208201527f6b656e73526563697069656e7400000000000000000000000000000000000000604082015250565b6000612e27604d83611f7e565b9150612e3282612da5565b606082019050919050565b60006020820190508181036000830152612e5681612e1a565b9050919050565b7f4552433737373a2073656e642066726f6d20746865207a65726f20616464726560008201527f7373000000000000000000000000000000000000000000000000000000000000602082015250565b6000612eb9602283611f7e565b9150612ec482612e5d565b604082019050919050565b60006020820190508181036000830152612ee881612eac565b9050919050565b7f4552433737373a2073656e6420746f20746865207a65726f2061646472657373600082015250565b6000612f25602083611f7e565b9150612f3082612eef565b602082019050919050565b60006020820190508181036000830152612f5481612f18565b9050919050565b7f4552433737373a206275726e2066726f6d20746865207a65726f20616464726560008201527f7373000000000000000000000000000000000000000000000000000000000000602082015250565b6000612fb7602283611f7e565b9150612fc282612f5b565b604082019050919050565b60006020820190508181036000830152612fe681612faa565b9050919050565b7f4552433737373a206275726e20616d6f756e7420657863656564732062616c6160008201527f6e63650000000000000000000000000000000000000000000000000000000000602082015250565b6000613049602383611f7e565b915061305482612fed565b604082019050919050565b600060208201905081810360008301526130788161303c565b9050919050565b7f4552433737373a206d696e7420746f20746865207a65726f2061646472657373600082015250565b60006130b5602083611f7e565b91506130c08261307f565b602082019050919050565b600060208201905081810360008301526130e4816130a8565b905091905056fea264697066735822122061d21cdd626b9de2f091248c0bcdabb368eb3fb70121a1ee89f7470e3ee519ab64736f6c63430008090033",
  "linkReferences": {},
  "deployedLinkReferences": {}
}