{
  "contracts/register/Register.sol": {
    "Register": {
      "abi": [
        {
          "anonymous": false,
          "inputs": [
            {
              "indexed": true,
              "internalType": "address",
              "name": "userAddress",
              "type": "address"
            },
            {
              "indexed": false,
              "internalType": "string",
              "name": "info",
              "type": "string"
            }
          ],
          "name": "SetInfo",
          "type": "event"
        },
        {
          "anonymous": false,
          "inputs": [
            {
              "indexed": false,
              "internalType": "address",
              "name": "_from",
              "type": "address"
            },
            {
              "indexed": false,
              "internalType": "address",
              "name": "_to",
              "type": "address"
            },
            {
              "indexed": false,
              "internalType": "string",
              "name": "username",
              "type": "string"
            },
            {
              "indexed": false,
              "internalType": "bool",
              "name": "initialize",
              "type": "bool"
            }
          ],
          "name": "TransferUsername",
          "type": "event"
        },
        {
          "inputs": [],
          "name": "DAO",
          "outputs": [
            {
              "internalType": "address",
              "name": "DAOAddr",
              "type": "address"
            }
          ],
          "stateMutability": "view",
          "type": "function"
        },
        {
          "inputs": [
            {
              "internalType": "string",
              "name": "varName",
              "type": "string"
            },
            {
              "internalType": "bytes",
              "name": "varData",
              "type": "bytes"
            }
          ],
          "name": "DAOCheck",
          "outputs": [
            {
              "internalType": "bool",
              "name": "validity",
              "type": "bool"
            }
          ],
          "stateMutability": "view",
          "type": "function"
        },
        {
          "inputs": [
            {
              "internalType": "string",
              "name": "varName",
              "type": "string"
            }
          ],
          "name": "DAOGet",
          "outputs": [
            {
              "internalType": "bytes",
              "name": "varData",
              "type": "bytes"
            }
          ],
          "stateMutability": "view",
          "type": "function"
        },
        {
          "inputs": [
            {
              "internalType": "address",
              "name": "userAddr",
              "type": "address"
            }
          ],
          "name": "addressToProfile",
          "outputs": [
            {
              "internalType": "string",
              "name": "username",
              "type": "string"
            },
            {
              "internalType": "string",
              "name": "info",
              "type": "string"
            },
            {
              "internalType": "bool",
              "name": "VIPStatus",
              "type": "bool"
            }
          ],
          "stateMutability": "view",
          "type": "function"
        },
        {
          "inputs": [
            {
              "internalType": "address",
              "name": "userAddr",
              "type": "address"
            }
          ],
          "name": "addressToUsername",
          "outputs": [
            {
              "internalType": "string",
              "name": "username",
              "type": "string"
            }
          ],
          "stateMutability": "view",
          "type": "function"
        },
        {
          "inputs": [
            {
              "internalType": "address",
              "name": "userAddr",
              "type": "address"
            }
          ],
          "name": "isPure",
          "outputs": [
            {
              "internalType": "bool",
              "name": "",
              "type": "bool"
            }
          ],
          "stateMutability": "view",
          "type": "function"
        },
        {
          "inputs": [
            {
              "internalType": "address",
              "name": "userAddr",
              "type": "address"
            }
          ],
          "name": "isVIP",
          "outputs": [
            {
              "internalType": "bool",
              "name": "",
              "type": "bool"
            }
          ],
          "stateMutability": "view",
          "type": "function"
        },
        {
          "inputs": [
            {
              "internalType": "string",
              "name": "username",
              "type": "string"
            }
          ],
          "name": "registered",
          "outputs": [
            {
              "internalType": "bool",
              "name": "",
              "type": "bool"
            }
          ],
          "stateMutability": "view",
          "type": "function"
        },
        {
          "inputs": [
            {
              "internalType": "address",
              "name": "userAddr",
              "type": "address"
            }
          ],
          "name": "registered",
          "outputs": [
            {
              "internalType": "bool",
              "name": "",
              "type": "bool"
            }
          ],
          "stateMutability": "view",
          "type": "function"
        },
        {
          "inputs": [
            {
              "internalType": "string",
              "name": "info",
              "type": "string"
            }
          ],
          "name": "setInfo",
          "outputs": [],
          "stateMutability": "nonpayable",
          "type": "function"
        },
        {
          "inputs": [
            {
              "internalType": "string",
              "name": "username",
              "type": "string"
            },
            {
              "internalType": "string",
              "name": "info",
              "type": "string"
            },
            {
              "internalType": "string",
              "name": "presenter",
              "type": "string"
            }
          ],
          "name": "signIn",
          "outputs": [],
          "stateMutability": "payable",
          "type": "function"
        },
        {
          "inputs": [],
          "name": "userData",
          "outputs": [
            {
              "internalType": "contract UserData",
              "name": "",
              "type": "address"
            }
          ],
          "stateMutability": "view",
          "type": "function"
        },
        {
          "inputs": [
            {
              "internalType": "string",
              "name": "username",
              "type": "string"
            }
          ],
          "name": "usernameToAddress",
          "outputs": [
            {
              "internalType": "address",
              "name": "userAddr",
              "type": "address"
            }
          ],
          "stateMutability": "view",
          "type": "function"
        },
        {
          "inputs": [
            {
              "internalType": "string",
              "name": "username",
              "type": "string"
            }
          ],
          "name": "usernameToProfile",
          "outputs": [
            {
              "internalType": "address",
              "name": "userAddr",
              "type": "address"
            },
            {
              "internalType": "string",
              "name": "info",
              "type": "string"
            },
            {
              "internalType": "bool",
              "name": "VIPStatus",
              "type": "bool"
            }
          ],
          "stateMutability": "view",
          "type": "function"
        }
      ],
      "evm": {
        "bytecode": {
          "linkReferences": {},
          "object": "60a060405273245caa689fa16ab50df4e8ab48555715877f79ff73ffffffffffffffffffffffffffffffffffffffff1660809073ffffffffffffffffffffffffffffffffffffffff1681525034801561005757600080fd5b50608051611ab26100736000396000610b610152611ab26000f3fe6080604052600436106100dd5760003560e01c806398fabd3a1161007f578063bea6998f11610059578063bea6998f14610301578063e07a0baa1461032c578063f4201c3c14610369578063f825f143146103a6576100dd565b806398fabd3a1461025c578063b2dd5c0714610287578063b7110fb6146102c4576100dd565b80635d2d5c37116100bb5780635d2d5c371461017c5780636fe0544a146101b957806377b2e2b2146101f6578063937f6e7714610233576100dd565b80630e7b29bf146100e25780630eb5cd1a1461012157806317d984ec14610160575b600080fd5b3480156100ee57600080fd5b5061010960048036038101906101049190610edf565b6103e3565b60405161011893929190610fc0565b60405180910390f35b34801561012d57600080fd5b506101486004803603810190610143919061113a565b61046e565b60405161015793929190611192565b60405180910390f35b61017a600480360381019061017591906111d0565b6104a2565b005b34801561018857600080fd5b506101a3600480360381019061019e919061113a565b610864565b6040516101b09190611277565b60405180910390f35b3480156101c557600080fd5b506101e060048036038101906101db919061113a565b61086f565b6040516101ed91906112e7565b60405180910390f35b34801561020257600080fd5b5061021d600480360381019061021891906113aa565b61098a565b60405161022a9190611277565b60405180910390f35b34801561023f57600080fd5b5061025a6004803603810190610255919061113a565b610abb565b005b34801561026857600080fd5b50610271610b5a565b60405161027e9190611422565b60405180910390f35b34801561029357600080fd5b506102ae60048036038101906102a99190610edf565b610c94565b6040516102bb9190611277565b60405180910390f35b3480156102d057600080fd5b506102eb60048036038101906102e69190610edf565b610c9f565b6040516102f89190611277565b60405180910390f35b34801561030d57600080fd5b50610316610cb1565b604051610323919061149c565b60405180910390f35b34801561033857600080fd5b50610353600480360381019061034e9190610edf565b610d09565b60405161036091906114b7565b60405180910390f35b34801561037557600080fd5b50610390600480360381019061038b9190610edf565b610d6a565b60405161039d9190611277565b60405180910390f35b3480156103b257600080fd5b506103cd60048036038101906103c8919061113a565b610d7c565b6040516103da9190611422565b60405180910390f35b60608060006103f184610c94565b610430576040517f08c379a000000000000000000000000000000000000000000000000000000000815260040161042790611525565b60405180910390fd5b600061043a610cb1565b9050600160405180602001604052806000815250906040518060200160405280600081525090935093509350509193909250565b6000606060008061047d610cb1565b9050600060016040518060200160405280600081525090935093509350509193909250565b60003390506104b084610864565b156104f0576040517f08c379a00000000000000000000000000000000000000000000000000000000081526004016104e7906115b7565b60405180910390fd5b60007f5f000000000000000000000000000000000000000000000000000000000000007effffffffffffffffffffffffffffffffffffffffffffffffffffffffffffff191685600081518110610549576105486115d7565b5b602001015160f81c60f81b7effffffffffffffffffffffffffffffffffffffffffffffffffffffffffffff19161461061757600190506105bd6040518060400160405280600f81526020017f507572655265676973746572466565000000000000000000000000000000000081525061086f565b8060200190518101906105d0919061163c565b341015610612576040517f08c379a0000000000000000000000000000000000000000000000000000000008152600401610609906116b5565b60405180910390fd5b6106ab565b6106556040518060400160405280601181526020017f6e6f726d616c526567697374657246656500000000000000000000000000000081525061086f565b806020019051810190610668919061163c565b3410156106aa576040517f08c379a00000000000000000000000000000000000000000000000000000000081526004016106a1906116b5565b60405180910390fd5b5b6106b58286610dcf565b7fbc5ca1b7557e0890677a322d8867294f9550343fb94111ef7d4e9ccc6aefa1356000838760016040516106ec94939291906116d5565b60405180910390a16000845111156107085761070784610abb565b5b6000808061074a6040518060400160405280600b81526020017f526567697374657244414f00000000000000000000000000000000000000000081525061086f565b80602001905181019061075d919061175f565b73ffffffffffffffffffffffffffffffffffffffff16348685876040516024016107899392919061178c565b6040516020818303038152906040527f31454986000000000000000000000000000000000000000000000000000000007bffffffffffffffffffffffffffffffffffffffffffffffffffffffff19166020820180517bffffffffffffffffffffffffffffffffffffffffffffffffffffffff838183161783525050505060405161081391906117ff565b60006040518083038185875af1925050503d8060008114610850576040519150601f19603f3d011682016040523d82523d6000602084013e610855565b606091505b50915091505050505050505050565b600060019050919050565b606060008061087c610b5a565b73ffffffffffffffffffffffffffffffffffffffff16846040516024016108a391906114b7565b6040516020818303038152906040527f693ec85e000000000000000000000000000000000000000000000000000000007bffffffffffffffffffffffffffffffffffffffffffffffffffffffff19166020820180517bffffffffffffffffffffffffffffffffffffffffffffffffffffffff838183161783525050505060405161092d91906117ff565b600060405180830381855afa9150503d8060008114610968576040519150601f19603f3d011682016040523d82523d6000602084013e61096d565b606091505b50915091508115610982578092505050610985565b50505b919050565b6000806000610997610b5a565b73ffffffffffffffffffffffffffffffffffffffff1685856040516024016109c0929190611816565b6040516020818303038152906040527fcbb88d42000000000000000000000000000000000000000000000000000000007bffffffffffffffffffffffffffffffffffffffffffffffffffffffff19166020820180517bffffffffffffffffffffffffffffffffffffffffffffffffffffffff8381831617835250505050604051610a4a91906117ff565b600060405180830381855afa9150503d8060008114610a85576040519150601f19603f3d011682016040523d82523d6000602084013e610a8a565b606091505b50915091508115610ab25780806020019051810190610aa99190611879565b92505050610ab5565b50505b92915050565b6000339050610ac981610c94565b610b08576040517f08c379a0000000000000000000000000000000000000000000000000000000008152600401610aff906118f2565b60405180910390fd5b8073ffffffffffffffffffffffffffffffffffffffff167fed2dc10fbb70c5dca9665145aee8b5f838c00bd7fe21abfe08513209a53bfd0483604051610b4e91906114b7565b60405180910390a25050565b60008060007f000000000000000000000000000000000000000000000000000000000000000073ffffffffffffffffffffffffffffffffffffffff166040516024016040516020818303038152906040527f98fabd3a000000000000000000000000000000000000000000000000000000007bffffffffffffffffffffffffffffffffffffffffffffffffffffffff19166020820180517bffffffffffffffffffffffffffffffffffffffffffffffffffffffff8381831617835250505050604051610c2691906117ff565b600060405180830381855afa9150503d8060008114610c61576040519150601f19603f3d011682016040523d82523d6000602084013e610c66565b606091505b50915091508115610c8e5780806020019051810190610c85919061175f565b92505050610c91565b50505b90565b600060019050919050565b6000610caa82610c94565b9050919050565b6000610cf16040518060400160405280600881526020017f557365724461746100000000000000000000000000000000000000000000000081525061086f565b806020019051810190610d04919061175f565b905090565b6060610d1482610c94565b610d53576040517f08c379a0000000000000000000000000000000000000000000000000000000008152600401610d4a90611525565b60405180910390fd5b604051806020016040528060008152509050919050565b6000610d7582610c94565b9050919050565b6000610d8782610864565b610dc6576040517f08c379a0000000000000000000000000000000000000000000000000000000008152600401610dbd9061195e565b60405180910390fd5b60009050919050565b6000815111610e13576040517f08c379a0000000000000000000000000000000000000000000000000000000008152600401610e0a906119ca565b60405180910390fd5b610e1c82610c94565b15610e5c576040517f08c379a0000000000000000000000000000000000000000000000000000000008152600401610e5390611a5c565b60405180910390fd5b6000610e66610cb1565b9050505050565b6000604051905090565b600080fd5b600080fd5b600073ffffffffffffffffffffffffffffffffffffffff82169050919050565b6000610eac82610e81565b9050919050565b610ebc81610ea1565b8114610ec757600080fd5b50565b600081359050610ed981610eb3565b92915050565b600060208284031215610ef557610ef4610e77565b5b6000610f0384828501610eca565b91505092915050565b600081519050919050565b600082825260208201905092915050565b60005b83811015610f46578082015181840152602081019050610f2b565b83811115610f55576000848401525b50505050565b6000601f19601f8301169050919050565b6000610f7782610f0c565b610f818185610f17565b9350610f91818560208601610f28565b610f9a81610f5b565b840191505092915050565b60008115159050919050565b610fba81610fa5565b82525050565b60006060820190508181036000830152610fda8186610f6c565b90508181036020830152610fee8185610f6c565b9050610ffd6040830184610fb1565b949350505050565b600080fd5b600080fd5b7f4e487b7100000000000000000000000000000000000000000000000000000000600052604160045260246000fd5b61104782610f5b565b810181811067ffffffffffffffff821117156110665761106561100f565b5b80604052505050565b6000611079610e6d565b9050611085828261103e565b919050565b600067ffffffffffffffff8211156110a5576110a461100f565b5b6110ae82610f5b565b9050602081019050919050565b82818337600083830152505050565b60006110dd6110d88461108a565b61106f565b9050828152602081018484840111156110f9576110f861100a565b5b6111048482856110bb565b509392505050565b600082601f83011261112157611120611005565b5b81356111318482602086016110ca565b91505092915050565b6000602082840312156111505761114f610e77565b5b600082013567ffffffffffffffff81111561116e5761116d610e7c565b5b61117a8482850161110c565b91505092915050565b61118c81610ea1565b82525050565b60006060820190506111a76000830186611183565b81810360208301526111b98185610f6c565b90506111c86040830184610fb1565b949350505050565b6000806000606084860312156111e9576111e8610e77565b5b600084013567ffffffffffffffff81111561120757611206610e7c565b5b6112138682870161110c565b935050602084013567ffffffffffffffff81111561123457611233610e7c565b5b6112408682870161110c565b925050604084013567ffffffffffffffff81111561126157611260610e7c565b5b61126d8682870161110c565b9150509250925092565b600060208201905061128c6000830184610fb1565b92915050565b600081519050919050565b600082825260208201905092915050565b60006112b982611292565b6112c3818561129d565b93506112d3818560208601610f28565b6112dc81610f5b565b840191505092915050565b6000602082019050818103600083015261130181846112ae565b905092915050565b600067ffffffffffffffff8211156113245761132361100f565b5b61132d82610f5b565b9050602081019050919050565b600061134d61134884611309565b61106f565b9050828152602081018484840111156113695761136861100a565b5b6113748482856110bb565b509392505050565b600082601f83011261139157611390611005565b5b81356113a184826020860161133a565b91505092915050565b600080604083850312156113c1576113c0610e77565b5b600083013567ffffffffffffffff8111156113df576113de610e7c565b5b6113eb8582860161110c565b925050602083013567ffffffffffffffff81111561140c5761140b610e7c565b5b6114188582860161137c565b9150509250929050565b60006020820190506114376000830184611183565b92915050565b6000819050919050565b600061146261145d61145884610e81565b61143d565b610e81565b9050919050565b600061147482611447565b9050919050565b600061148682611469565b9050919050565b6114968161147b565b82525050565b60006020820190506114b1600083018461148d565b92915050565b600060208201905081810360008301526114d18184610f6c565b905092915050565b7f6e6f207573657220627920746869732061646472657373000000000000000000600082015250565b600061150f601783610f17565b915061151a826114d9565b602082019050919050565b6000602082019050818103600083015261153e81611502565b9050919050565b7f7468697320757365726e616d6520686173206265656e2075736564206265666f60008201527f7265000000000000000000000000000000000000000000000000000000000000602082015250565b60006115a1602283610f17565b91506115ac82611545565b604082019050919050565b600060208201905081810360008301526115d081611594565b9050919050565b7f4e487b7100000000000000000000000000000000000000000000000000000000600052603260045260246000fd5b6000819050919050565b61161981611606565b811461162457600080fd5b50565b60008151905061163681611610565b92915050565b60006020828403121561165257611651610e77565b5b600061166084828501611627565b91505092915050565b7f7468697320757365726e616d652069732050617961626c650000000000000000600082015250565b600061169f601883610f17565b91506116aa82611669565b602082019050919050565b600060208201905081810360008301526116ce81611692565b9050919050565b60006080820190506116ea6000830187611183565b6116f76020830186611183565b81810360408301526117098185610f6c565b90506117186060830184610fb1565b95945050505050565b600061172c82610e81565b9050919050565b61173c81611721565b811461174757600080fd5b50565b60008151905061175981611733565b92915050565b60006020828403121561177557611774610e77565b5b60006117838482850161174a565b91505092915050565b60006060820190506117a16000830186611183565b6117ae6020830185611183565b6117bb6040830184610fb1565b949350505050565b600081905092915050565b60006117d982611292565b6117e381856117c3565b93506117f3818560208601610f28565b80840191505092915050565b600061180b82846117ce565b915081905092915050565b600060408201905081810360008301526118308185610f6c565b9050818103602083015261184481846112ae565b90509392505050565b61185681610fa5565b811461186157600080fd5b50565b6000815190506118738161184d565b92915050565b60006020828403121561188f5761188e610e77565b5b600061189d84828501611864565b91505092915050565b7f796f75206861766520746f207369676e20696e20666972737400000000000000600082015250565b60006118dc601983610f17565b91506118e7826118a6565b602082019050919050565b6000602082019050818103600083015261190b816118cf565b9050919050565b7f6e6f2075736572206279207468697320757365726e616d650000000000000000600082015250565b6000611948601883610f17565b915061195382611912565b602082019050919050565b600060208201905081810360008301526119778161193b565b9050919050565b7f656d70747920757365726e616d6520696e707574000000000000000000000000600082015250565b60006119b4601483610f17565b91506119bf8261197e565b602082019050919050565b600060208201905081810360008301526119e3816119a7565b9050919050565b7f74686973206164647265737320686173207369676e6564206120757365726e6160008201527f6d65206265666f72650000000000000000000000000000000000000000000000602082015250565b6000611a46602983610f17565b9150611a51826119ea565b604082019050919050565b60006020820190508181036000830152611a7581611a39565b905091905056fea264697066735822122029cf11592db69fe7eb7a238f6be75d75cc661ceef40bf1e43697ea72f33efe2c64736f6c63430008090033",
          "opcodes": "PUSH1 0xA0 PUSH1 0x40 MSTORE PUSH20 0x245CAA689FA16AB50DF4E8AB48555715877F79FF PUSH20 0xFFFFFFFFFFFFFFFFFFFFFFFFFFFFFFFFFFFFFFFF AND PUSH1 0x80 SWAP1 PUSH20 0xFFFFFFFFFFFFFFFFFFFFFFFFFFFFFFFFFFFFFFFF AND DUP2 MSTORE POP CALLVALUE DUP1 ISZERO PUSH2 0x57 JUMPI PUSH1 0x0 DUP1 REVERT JUMPDEST POP PUSH1 0x80 MLOAD PUSH2 0x1AB2 PUSH2 0x73 PUSH1 0x0 CODECOPY PUSH1 0x0 PUSH2 0xB61 ADD MSTORE PUSH2 0x1AB2 PUSH1 0x0 RETURN INVALID PUSH1 0x80 PUSH1 0x40 MSTORE PUSH1 0x4 CALLDATASIZE LT PUSH2 0xDD JUMPI PUSH1 0x0 CALLDATALOAD PUSH1 0xE0 SHR DUP1 PUSH4 0x98FABD3A GT PUSH2 0x7F JUMPI DUP1 PUSH4 0xBEA6998F GT PUSH2 0x59 JUMPI DUP1 PUSH4 0xBEA6998F EQ PUSH2 0x301 JUMPI DUP1 PUSH4 0xE07A0BAA EQ PUSH2 0x32C JUMPI DUP1 PUSH4 0xF4201C3C EQ PUSH2 0x369 JUMPI DUP1 PUSH4 0xF825F143 EQ PUSH2 0x3A6 JUMPI PUSH2 0xDD JUMP JUMPDEST DUP1 PUSH4 0x98FABD3A EQ PUSH2 0x25C JUMPI DUP1 PUSH4 0xB2DD5C07 EQ PUSH2 0x287 JUMPI DUP1 PUSH4 0xB7110FB6 EQ PUSH2 0x2C4 JUMPI PUSH2 0xDD JUMP JUMPDEST DUP1 PUSH4 0x5D2D5C37 GT PUSH2 0xBB JUMPI DUP1 PUSH4 0x5D2D5C37 EQ PUSH2 0x17C JUMPI DUP1 PUSH4 0x6FE0544A EQ PUSH2 0x1B9 JUMPI DUP1 PUSH4 0x77B2E2B2 EQ PUSH2 0x1F6 JUMPI DUP1 PUSH4 0x937F6E77 EQ PUSH2 0x233 JUMPI PUSH2 0xDD JUMP JUMPDEST DUP1 PUSH4 0xE7B29BF EQ PUSH2 0xE2 JUMPI DUP1 PUSH4 0xEB5CD1A EQ PUSH2 0x121 JUMPI DUP1 PUSH4 0x17D984EC EQ PUSH2 0x160 JUMPI JUMPDEST PUSH1 0x0 DUP1 REVERT JUMPDEST CALLVALUE DUP1 ISZERO PUSH2 0xEE JUMPI PUSH1 0x0 DUP1 REVERT JUMPDEST POP PUSH2 0x109 PUSH1 0x4 DUP1 CALLDATASIZE SUB DUP2 ADD SWAP1 PUSH2 0x104 SWAP2 SWAP1 PUSH2 0xEDF JUMP JUMPDEST PUSH2 0x3E3 JUMP JUMPDEST PUSH1 0x40 MLOAD PUSH2 0x118 SWAP4 SWAP3 SWAP2 SWAP1 PUSH2 0xFC0 JUMP JUMPDEST PUSH1 0x40 MLOAD DUP1 SWAP2 SUB SWAP1 RETURN JUMPDEST CALLVALUE DUP1 ISZERO PUSH2 0x12D JUMPI PUSH1 0x0 DUP1 REVERT JUMPDEST POP PUSH2 0x148 PUSH1 0x4 DUP1 CALLDATASIZE SUB DUP2 ADD SWAP1 PUSH2 0x143 SWAP2 SWAP1 PUSH2 0x113A JUMP JUMPDEST PUSH2 0x46E JUMP JUMPDEST PUSH1 0x40 MLOAD PUSH2 0x157 SWAP4 SWAP3 SWAP2 SWAP1 PUSH2 0x1192 JUMP JUMPDEST PUSH1 0x40 MLOAD DUP1 SWAP2 SUB SWAP1 RETURN JUMPDEST PUSH2 0x17A PUSH1 0x4 DUP1 CALLDATASIZE SUB DUP2 ADD SWAP1 PUSH2 0x175 SWAP2 SWAP1 PUSH2 0x11D0 JUMP JUMPDEST PUSH2 0x4A2 JUMP JUMPDEST STOP JUMPDEST CALLVALUE DUP1 ISZERO PUSH2 0x188 JUMPI PUSH1 0x0 DUP1 REVERT JUMPDEST POP PUSH2 0x1A3 PUSH1 0x4 DUP1 CALLDATASIZE SUB DUP2 ADD SWAP1 PUSH2 0x19E SWAP2 SWAP1 PUSH2 0x113A JUMP JUMPDEST PUSH2 0x864 JUMP JUMPDEST PUSH1 0x40 MLOAD PUSH2 0x1B0 SWAP2 SWAP1 PUSH2 0x1277 JUMP JUMPDEST PUSH1 0x40 MLOAD DUP1 SWAP2 SUB SWAP1 RETURN JUMPDEST CALLVALUE DUP1 ISZERO PUSH2 0x1C5 JUMPI PUSH1 0x0 DUP1 REVERT JUMPDEST POP PUSH2 0x1E0 PUSH1 0x4 DUP1 CALLDATASIZE SUB DUP2 ADD SWAP1 PUSH2 0x1DB SWAP2 SWAP1 PUSH2 0x113A JUMP JUMPDEST PUSH2 0x86F JUMP JUMPDEST PUSH1 0x40 MLOAD PUSH2 0x1ED SWAP2 SWAP1 PUSH2 0x12E7 JUMP JUMPDEST PUSH1 0x40 MLOAD DUP1 SWAP2 SUB SWAP1 RETURN JUMPDEST CALLVALUE DUP1 ISZERO PUSH2 0x202 JUMPI PUSH1 0x0 DUP1 REVERT JUMPDEST POP PUSH2 0x21D PUSH1 0x4 DUP1 CALLDATASIZE SUB DUP2 ADD SWAP1 PUSH2 0x218 SWAP2 SWAP1 PUSH2 0x13AA JUMP JUMPDEST PUSH2 0x98A JUMP JUMPDEST PUSH1 0x40 MLOAD PUSH2 0x22A SWAP2 SWAP1 PUSH2 0x1277 JUMP JUMPDEST PUSH1 0x40 MLOAD DUP1 SWAP2 SUB SWAP1 RETURN JUMPDEST CALLVALUE DUP1 ISZERO PUSH2 0x23F JUMPI PUSH1 0x0 DUP1 REVERT JUMPDEST POP PUSH2 0x25A PUSH1 0x4 DUP1 CALLDATASIZE SUB DUP2 ADD SWAP1 PUSH2 0x255 SWAP2 SWAP1 PUSH2 0x113A JUMP JUMPDEST PUSH2 0xABB JUMP JUMPDEST STOP JUMPDEST CALLVALUE DUP1 ISZERO PUSH2 0x268 JUMPI PUSH1 0x0 DUP1 REVERT JUMPDEST POP PUSH2 0x271 PUSH2 0xB5A JUMP JUMPDEST PUSH1 0x40 MLOAD PUSH2 0x27E SWAP2 SWAP1 PUSH2 0x1422 JUMP JUMPDEST PUSH1 0x40 MLOAD DUP1 SWAP2 SUB SWAP1 RETURN JUMPDEST CALLVALUE DUP1 ISZERO PUSH2 0x293 JUMPI PUSH1 0x0 DUP1 REVERT JUMPDEST POP PUSH2 0x2AE PUSH1 0x4 DUP1 CALLDATASIZE SUB DUP2 ADD SWAP1 PUSH2 0x2A9 SWAP2 SWAP1 PUSH2 0xEDF JUMP JUMPDEST PUSH2 0xC94 JUMP JUMPDEST PUSH1 0x40 MLOAD PUSH2 0x2BB SWAP2 SWAP1 PUSH2 0x1277 JUMP JUMPDEST PUSH1 0x40 MLOAD DUP1 SWAP2 SUB SWAP1 RETURN JUMPDEST CALLVALUE DUP1 ISZERO PUSH2 0x2D0 JUMPI PUSH1 0x0 DUP1 REVERT JUMPDEST POP PUSH2 0x2EB PUSH1 0x4 DUP1 CALLDATASIZE SUB DUP2 ADD SWAP1 PUSH2 0x2E6 SWAP2 SWAP1 PUSH2 0xEDF JUMP JUMPDEST PUSH2 0xC9F JUMP JUMPDEST PUSH1 0x40 MLOAD PUSH2 0x2F8 SWAP2 SWAP1 PUSH2 0x1277 JUMP JUMPDEST PUSH1 0x40 MLOAD DUP1 SWAP2 SUB SWAP1 RETURN JUMPDEST CALLVALUE DUP1 ISZERO PUSH2 0x30D JUMPI PUSH1 0x0 DUP1 REVERT JUMPDEST POP PUSH2 0x316 PUSH2 0xCB1 JUMP JUMPDEST PUSH1 0x40 MLOAD PUSH2 0x323 SWAP2 SWAP1 PUSH2 0x149C JUMP JUMPDEST PUSH1 0x40 MLOAD DUP1 SWAP2 SUB SWAP1 RETURN JUMPDEST CALLVALUE DUP1 ISZERO PUSH2 0x338 JUMPI PUSH1 0x0 DUP1 REVERT JUMPDEST POP PUSH2 0x353 PUSH1 0x4 DUP1 CALLDATASIZE SUB DUP2 ADD SWAP1 PUSH2 0x34E SWAP2 SWAP1 PUSH2 0xEDF JUMP JUMPDEST PUSH2 0xD09 JUMP JUMPDEST PUSH1 0x40 MLOAD PUSH2 0x360 SWAP2 SWAP1 PUSH2 0x14B7 JUMP JUMPDEST PUSH1 0x40 MLOAD DUP1 SWAP2 SUB SWAP1 RETURN JUMPDEST CALLVALUE DUP1 ISZERO PUSH2 0x375 JUMPI PUSH1 0x0 DUP1 REVERT JUMPDEST POP PUSH2 0x390 PUSH1 0x4 DUP1 CALLDATASIZE SUB DUP2 ADD SWAP1 PUSH2 0x38B SWAP2 SWAP1 PUSH2 0xEDF JUMP JUMPDEST PUSH2 0xD6A JUMP JUMPDEST PUSH1 0x40 MLOAD PUSH2 0x39D SWAP2 SWAP1 PUSH2 0x1277 JUMP JUMPDEST PUSH1 0x40 MLOAD DUP1 SWAP2 SUB SWAP1 RETURN JUMPDEST CALLVALUE DUP1 ISZERO PUSH2 0x3B2 JUMPI PUSH1 0x0 DUP1 REVERT JUMPDEST POP PUSH2 0x3CD PUSH1 0x4 DUP1 CALLDATASIZE SUB DUP2 ADD SWAP1 PUSH2 0x3C8 SWAP2 SWAP1 PUSH2 0x113A JUMP JUMPDEST PUSH2 0xD7C JUMP JUMPDEST PUSH1 0x40 MLOAD PUSH2 0x3DA SWAP2 SWAP1 PUSH2 0x1422 JUMP JUMPDEST PUSH1 0x40 MLOAD DUP1 SWAP2 SUB SWAP1 RETURN JUMPDEST PUSH1 0x60 DUP1 PUSH1 0x0 PUSH2 0x3F1 DUP5 PUSH2 0xC94 JUMP JUMPDEST PUSH2 0x430 JUMPI PUSH1 0x40 MLOAD PUSH32 0x8C379A000000000000000000000000000000000000000000000000000000000 DUP2 MSTORE PUSH1 0x4 ADD PUSH2 0x427 SWAP1 PUSH2 0x1525 JUMP JUMPDEST PUSH1 0x40 MLOAD DUP1 SWAP2 SUB SWAP1 REVERT JUMPDEST PUSH1 0x0 PUSH2 0x43A PUSH2 0xCB1 JUMP JUMPDEST SWAP1 POP PUSH1 0x1 PUSH1 0x40 MLOAD DUP1 PUSH1 0x20 ADD PUSH1 0x40 MSTORE DUP1 PUSH1 0x0 DUP2 MSTORE POP SWAP1 PUSH1 0x40 MLOAD DUP1 PUSH1 0x20 ADD PUSH1 0x40 MSTORE DUP1 PUSH1 0x0 DUP2 MSTORE POP SWAP1 SWAP4 POP SWAP4 POP SWAP4 POP POP SWAP2 SWAP4 SWAP1 SWAP3 POP JUMP JUMPDEST PUSH1 0x0 PUSH1 0x60 PUSH1 0x0 DUP1 PUSH2 0x47D PUSH2 0xCB1 JUMP JUMPDEST SWAP1 POP PUSH1 0x0 PUSH1 0x1 PUSH1 0x40 MLOAD DUP1 PUSH1 0x20 ADD PUSH1 0x40 MSTORE DUP1 PUSH1 0x0 DUP2 MSTORE POP SWAP1 SWAP4 POP SWAP4 POP SWAP4 POP POP SWAP2 SWAP4 SWAP1 SWAP3 POP JUMP JUMPDEST PUSH1 0x0 CALLER SWAP1 POP PUSH2 0x4B0 DUP5 PUSH2 0x864 JUMP JUMPDEST ISZERO PUSH2 0x4F0 JUMPI PUSH1 0x40 MLOAD PUSH32 0x8C379A000000000000000000000000000000000000000000000000000000000 DUP2 MSTORE PUSH1 0x4 ADD PUSH2 0x4E7 SWAP1 PUSH2 0x15B7 JUMP JUMPDEST PUSH1 0x40 MLOAD DUP1 SWAP2 SUB SWAP1 REVERT JUMPDEST PUSH1 0x0 PUSH32 0x5F00000000000000000000000000000000000000000000000000000000000000 PUSH31 0xFFFFFFFFFFFFFFFFFFFFFFFFFFFFFFFFFFFFFFFFFFFFFFFFFFFFFFFFFFFFFF NOT AND DUP6 PUSH1 0x0 DUP2 MLOAD DUP2 LT PUSH2 0x549 JUMPI PUSH2 0x548 PUSH2 0x15D7 JUMP JUMPDEST JUMPDEST PUSH1 0x20 ADD ADD MLOAD PUSH1 0xF8 SHR PUSH1 0xF8 SHL PUSH31 0xFFFFFFFFFFFFFFFFFFFFFFFFFFFFFFFFFFFFFFFFFFFFFFFFFFFFFFFFFFFFFF NOT AND EQ PUSH2 0x617 JUMPI PUSH1 0x1 SWAP1 POP PUSH2 0x5BD PUSH1 0x40 MLOAD DUP1 PUSH1 0x40 ADD PUSH1 0x40 MSTORE DUP1 PUSH1 0xF DUP2 MSTORE PUSH1 0x20 ADD PUSH32 0x5075726552656769737465724665650000000000000000000000000000000000 DUP2 MSTORE POP PUSH2 0x86F JUMP JUMPDEST DUP1 PUSH1 0x20 ADD SWAP1 MLOAD DUP2 ADD SWAP1 PUSH2 0x5D0 SWAP2 SWAP1 PUSH2 0x163C JUMP JUMPDEST CALLVALUE LT ISZERO PUSH2 0x612 JUMPI PUSH1 0x40 MLOAD PUSH32 0x8C379A000000000000000000000000000000000000000000000000000000000 DUP2 MSTORE PUSH1 0x4 ADD PUSH2 0x609 SWAP1 PUSH2 0x16B5 JUMP JUMPDEST PUSH1 0x40 MLOAD DUP1 SWAP2 SUB SWAP1 REVERT JUMPDEST PUSH2 0x6AB JUMP JUMPDEST PUSH2 0x655 PUSH1 0x40 MLOAD DUP1 PUSH1 0x40 ADD PUSH1 0x40 MSTORE DUP1 PUSH1 0x11 DUP2 MSTORE PUSH1 0x20 ADD PUSH32 0x6E6F726D616C5265676973746572466565000000000000000000000000000000 DUP2 MSTORE POP PUSH2 0x86F JUMP JUMPDEST DUP1 PUSH1 0x20 ADD SWAP1 MLOAD DUP2 ADD SWAP1 PUSH2 0x668 SWAP2 SWAP1 PUSH2 0x163C JUMP JUMPDEST CALLVALUE LT ISZERO PUSH2 0x6AA JUMPI PUSH1 0x40 MLOAD PUSH32 0x8C379A000000000000000000000000000000000000000000000000000000000 DUP2 MSTORE PUSH1 0x4 ADD PUSH2 0x6A1 SWAP1 PUSH2 0x16B5 JUMP JUMPDEST PUSH1 0x40 MLOAD DUP1 SWAP2 SUB SWAP1 REVERT JUMPDEST JUMPDEST PUSH2 0x6B5 DUP3 DUP7 PUSH2 0xDCF JUMP JUMPDEST PUSH32 0xBC5CA1B7557E0890677A322D8867294F9550343FB94111EF7D4E9CCC6AEFA135 PUSH1 0x0 DUP4 DUP8 PUSH1 0x1 PUSH1 0x40 MLOAD PUSH2 0x6EC SWAP5 SWAP4 SWAP3 SWAP2 SWAP1 PUSH2 0x16D5 JUMP JUMPDEST PUSH1 0x40 MLOAD DUP1 SWAP2 SUB SWAP1 LOG1 PUSH1 0x0 DUP5 MLOAD GT ISZERO PUSH2 0x708 JUMPI PUSH2 0x707 DUP5 PUSH2 0xABB JUMP JUMPDEST JUMPDEST PUSH1 0x0 DUP1 DUP1 PUSH2 0x74A PUSH1 0x40 MLOAD DUP1 PUSH1 0x40 ADD PUSH1 0x40 MSTORE DUP1 PUSH1 0xB DUP2 MSTORE PUSH1 0x20 ADD PUSH32 0x526567697374657244414F000000000000000000000000000000000000000000 DUP2 MSTORE POP PUSH2 0x86F JUMP JUMPDEST DUP1 PUSH1 0x20 ADD SWAP1 MLOAD DUP2 ADD SWAP1 PUSH2 0x75D SWAP2 SWAP1 PUSH2 0x175F JUMP JUMPDEST PUSH20 0xFFFFFFFFFFFFFFFFFFFFFFFFFFFFFFFFFFFFFFFF AND CALLVALUE DUP7 DUP6 DUP8 PUSH1 0x40 MLOAD PUSH1 0x24 ADD PUSH2 0x789 SWAP4 SWAP3 SWAP2 SWAP1 PUSH2 0x178C JUMP JUMPDEST PUSH1 0x40 MLOAD PUSH1 0x20 DUP2 DUP4 SUB SUB DUP2 MSTORE SWAP1 PUSH1 0x40 MSTORE PUSH32 0x3145498600000000000000000000000000000000000000000000000000000000 PUSH28 0xFFFFFFFFFFFFFFFFFFFFFFFFFFFFFFFFFFFFFFFFFFFFFFFFFFFFFFFF NOT AND PUSH1 0x20 DUP3 ADD DUP1 MLOAD PUSH28 0xFFFFFFFFFFFFFFFFFFFFFFFFFFFFFFFFFFFFFFFFFFFFFFFFFFFFFFFF DUP4 DUP2 DUP4 AND OR DUP4 MSTORE POP POP POP POP PUSH1 0x40 MLOAD PUSH2 0x813 SWAP2 SWAP1 PUSH2 0x17FF JUMP JUMPDEST PUSH1 0x0 PUSH1 0x40 MLOAD DUP1 DUP4 SUB DUP2 DUP6 DUP8 GAS CALL SWAP3 POP POP POP RETURNDATASIZE DUP1 PUSH1 0x0 DUP2 EQ PUSH2 0x850 JUMPI PUSH1 0x40 MLOAD SWAP2 POP PUSH1 0x1F NOT PUSH1 0x3F RETURNDATASIZE ADD AND DUP3 ADD PUSH1 0x40 MSTORE RETURNDATASIZE DUP3 MSTORE RETURNDATASIZE PUSH1 0x0 PUSH1 0x20 DUP5 ADD RETURNDATACOPY PUSH2 0x855 JUMP JUMPDEST PUSH1 0x60 SWAP2 POP JUMPDEST POP SWAP2 POP SWAP2 POP POP POP POP POP POP POP POP POP JUMP JUMPDEST PUSH1 0x0 PUSH1 0x1 SWAP1 POP SWAP2 SWAP1 POP JUMP JUMPDEST PUSH1 0x60 PUSH1 0x0 DUP1 PUSH2 0x87C PUSH2 0xB5A JUMP JUMPDEST PUSH20 0xFFFFFFFFFFFFFFFFFFFFFFFFFFFFFFFFFFFFFFFF AND DUP5 PUSH1 0x40 MLOAD PUSH1 0x24 ADD PUSH2 0x8A3 SWAP2 SWAP1 PUSH2 0x14B7 JUMP JUMPDEST PUSH1 0x40 MLOAD PUSH1 0x20 DUP2 DUP4 SUB SUB DUP2 MSTORE SWAP1 PUSH1 0x40 MSTORE PUSH32 0x693EC85E00000000000000000000000000000000000000000000000000000000 PUSH28 0xFFFFFFFFFFFFFFFFFFFFFFFFFFFFFFFFFFFFFFFFFFFFFFFFFFFFFFFF NOT AND PUSH1 0x20 DUP3 ADD DUP1 MLOAD PUSH28 0xFFFFFFFFFFFFFFFFFFFFFFFFFFFFFFFFFFFFFFFFFFFFFFFFFFFFFFFF DUP4 DUP2 DUP4 AND OR DUP4 MSTORE POP POP POP POP PUSH1 0x40 MLOAD PUSH2 0x92D SWAP2 SWAP1 PUSH2 0x17FF JUMP JUMPDEST PUSH1 0x0 PUSH1 0x40 MLOAD DUP1 DUP4 SUB DUP2 DUP6 GAS STATICCALL SWAP2 POP POP RETURNDATASIZE DUP1 PUSH1 0x0 DUP2 EQ PUSH2 0x968 JUMPI PUSH1 0x40 MLOAD SWAP2 POP PUSH1 0x1F NOT PUSH1 0x3F RETURNDATASIZE ADD AND DUP3 ADD PUSH1 0x40 MSTORE RETURNDATASIZE DUP3 MSTORE RETURNDATASIZE PUSH1 0x0 PUSH1 0x20 DUP5 ADD RETURNDATACOPY PUSH2 0x96D JUMP JUMPDEST PUSH1 0x60 SWAP2 POP JUMPDEST POP SWAP2 POP SWAP2 POP DUP2 ISZERO PUSH2 0x982 JUMPI DUP1 SWAP3 POP POP POP PUSH2 0x985 JUMP JUMPDEST POP POP JUMPDEST SWAP2 SWAP1 POP JUMP JUMPDEST PUSH1 0x0 DUP1 PUSH1 0x0 PUSH2 0x997 PUSH2 0xB5A JUMP JUMPDEST PUSH20 0xFFFFFFFFFFFFFFFFFFFFFFFFFFFFFFFFFFFFFFFF AND DUP6 DUP6 PUSH1 0x40 MLOAD PUSH1 0x24 ADD PUSH2 0x9C0 SWAP3 SWAP2 SWAP1 PUSH2 0x1816 JUMP JUMPDEST PUSH1 0x40 MLOAD PUSH1 0x20 DUP2 DUP4 SUB SUB DUP2 MSTORE SWAP1 PUSH1 0x40 MSTORE PUSH32 0xCBB88D4200000000000000000000000000000000000000000000000000000000 PUSH28 0xFFFFFFFFFFFFFFFFFFFFFFFFFFFFFFFFFFFFFFFFFFFFFFFFFFFFFFFF NOT AND PUSH1 0x20 DUP3 ADD DUP1 MLOAD PUSH28 0xFFFFFFFFFFFFFFFFFFFFFFFFFFFFFFFFFFFFFFFFFFFFFFFFFFFFFFFF DUP4 DUP2 DUP4 AND OR DUP4 MSTORE POP POP POP POP PUSH1 0x40 MLOAD PUSH2 0xA4A SWAP2 SWAP1 PUSH2 0x17FF JUMP JUMPDEST PUSH1 0x0 PUSH1 0x40 MLOAD DUP1 DUP4 SUB DUP2 DUP6 GAS STATICCALL SWAP2 POP POP RETURNDATASIZE DUP1 PUSH1 0x0 DUP2 EQ PUSH2 0xA85 JUMPI PUSH1 0x40 MLOAD SWAP2 POP PUSH1 0x1F NOT PUSH1 0x3F RETURNDATASIZE ADD AND DUP3 ADD PUSH1 0x40 MSTORE RETURNDATASIZE DUP3 MSTORE RETURNDATASIZE PUSH1 0x0 PUSH1 0x20 DUP5 ADD RETURNDATACOPY PUSH2 0xA8A JUMP JUMPDEST PUSH1 0x60 SWAP2 POP JUMPDEST POP SWAP2 POP SWAP2 POP DUP2 ISZERO PUSH2 0xAB2 JUMPI DUP1 DUP1 PUSH1 0x20 ADD SWAP1 MLOAD DUP2 ADD SWAP1 PUSH2 0xAA9 SWAP2 SWAP1 PUSH2 0x1879 JUMP JUMPDEST SWAP3 POP POP POP PUSH2 0xAB5 JUMP JUMPDEST POP POP JUMPDEST SWAP3 SWAP2 POP POP JUMP JUMPDEST PUSH1 0x0 CALLER SWAP1 POP PUSH2 0xAC9 DUP2 PUSH2 0xC94 JUMP JUMPDEST PUSH2 0xB08 JUMPI PUSH1 0x40 MLOAD PUSH32 0x8C379A000000000000000000000000000000000000000000000000000000000 DUP2 MSTORE PUSH1 0x4 ADD PUSH2 0xAFF SWAP1 PUSH2 0x18F2 JUMP JUMPDEST PUSH1 0x40 MLOAD DUP1 SWAP2 SUB SWAP1 REVERT JUMPDEST DUP1 PUSH20 0xFFFFFFFFFFFFFFFFFFFFFFFFFFFFFFFFFFFFFFFF AND PUSH32 0xED2DC10FBB70C5DCA9665145AEE8B5F838C00BD7FE21ABFE08513209A53BFD04 DUP4 PUSH1 0x40 MLOAD PUSH2 0xB4E SWAP2 SWAP1 PUSH2 0x14B7 JUMP JUMPDEST PUSH1 0x40 MLOAD DUP1 SWAP2 SUB SWAP1 LOG2 POP POP JUMP JUMPDEST PUSH1 0x0 DUP1 PUSH1 0x0 PUSH32 0x0 PUSH20 0xFFFFFFFFFFFFFFFFFFFFFFFFFFFFFFFFFFFFFFFF AND PUSH1 0x40 MLOAD PUSH1 0x24 ADD PUSH1 0x40 MLOAD PUSH1 0x20 DUP2 DUP4 SUB SUB DUP2 MSTORE SWAP1 PUSH1 0x40 MSTORE PUSH32 0x98FABD3A00000000000000000000000000000000000000000000000000000000 PUSH28 0xFFFFFFFFFFFFFFFFFFFFFFFFFFFFFFFFFFFFFFFFFFFFFFFFFFFFFFFF NOT AND PUSH1 0x20 DUP3 ADD DUP1 MLOAD PUSH28 0xFFFFFFFFFFFFFFFFFFFFFFFFFFFFFFFFFFFFFFFFFFFFFFFFFFFFFFFF DUP4 DUP2 DUP4 AND OR DUP4 MSTORE POP POP POP POP PUSH1 0x40 MLOAD PUSH2 0xC26 SWAP2 SWAP1 PUSH2 0x17FF JUMP JUMPDEST PUSH1 0x0 PUSH1 0x40 MLOAD DUP1 DUP4 SUB DUP2 DUP6 GAS STATICCALL SWAP2 POP POP RETURNDATASIZE DUP1 PUSH1 0x0 DUP2 EQ PUSH2 0xC61 JUMPI PUSH1 0x40 MLOAD SWAP2 POP PUSH1 0x1F NOT PUSH1 0x3F RETURNDATASIZE ADD AND DUP3 ADD PUSH1 0x40 MSTORE RETURNDATASIZE DUP3 MSTORE RETURNDATASIZE PUSH1 0x0 PUSH1 0x20 DUP5 ADD RETURNDATACOPY PUSH2 0xC66 JUMP JUMPDEST PUSH1 0x60 SWAP2 POP JUMPDEST POP SWAP2 POP SWAP2 POP DUP2 ISZERO PUSH2 0xC8E JUMPI DUP1 DUP1 PUSH1 0x20 ADD SWAP1 MLOAD DUP2 ADD SWAP1 PUSH2 0xC85 SWAP2 SWAP1 PUSH2 0x175F JUMP JUMPDEST SWAP3 POP POP POP PUSH2 0xC91 JUMP JUMPDEST POP POP JUMPDEST SWAP1 JUMP JUMPDEST PUSH1 0x0 PUSH1 0x1 SWAP1 POP SWAP2 SWAP1 POP JUMP JUMPDEST PUSH1 0x0 PUSH2 0xCAA DUP3 PUSH2 0xC94 JUMP JUMPDEST SWAP1 POP SWAP2 SWAP1 POP JUMP JUMPDEST PUSH1 0x0 PUSH2 0xCF1 PUSH1 0x40 MLOAD DUP1 PUSH1 0x40 ADD PUSH1 0x40 MSTORE DUP1 PUSH1 0x8 DUP2 MSTORE PUSH1 0x20 ADD PUSH32 0x5573657244617461000000000000000000000000000000000000000000000000 DUP2 MSTORE POP PUSH2 0x86F JUMP JUMPDEST DUP1 PUSH1 0x20 ADD SWAP1 MLOAD DUP2 ADD SWAP1 PUSH2 0xD04 SWAP2 SWAP1 PUSH2 0x175F JUMP JUMPDEST SWAP1 POP SWAP1 JUMP JUMPDEST PUSH1 0x60 PUSH2 0xD14 DUP3 PUSH2 0xC94 JUMP JUMPDEST PUSH2 0xD53 JUMPI PUSH1 0x40 MLOAD PUSH32 0x8C379A000000000000000000000000000000000000000000000000000000000 DUP2 MSTORE PUSH1 0x4 ADD PUSH2 0xD4A SWAP1 PUSH2 0x1525 JUMP JUMPDEST PUSH1 0x40 MLOAD DUP1 SWAP2 SUB SWAP1 REVERT JUMPDEST PUSH1 0x40 MLOAD DUP1 PUSH1 0x20 ADD PUSH1 0x40 MSTORE DUP1 PUSH1 0x0 DUP2 MSTORE POP SWAP1 POP SWAP2 SWAP1 POP JUMP JUMPDEST PUSH1 0x0 PUSH2 0xD75 DUP3 PUSH2 0xC94 JUMP JUMPDEST SWAP1 POP SWAP2 SWAP1 POP JUMP JUMPDEST PUSH1 0x0 PUSH2 0xD87 DUP3 PUSH2 0x864 JUMP JUMPDEST PUSH2 0xDC6 JUMPI PUSH1 0x40 MLOAD PUSH32 0x8C379A000000000000000000000000000000000000000000000000000000000 DUP2 MSTORE PUSH1 0x4 ADD PUSH2 0xDBD SWAP1 PUSH2 0x195E JUMP JUMPDEST PUSH1 0x40 MLOAD DUP1 SWAP2 SUB SWAP1 REVERT JUMPDEST PUSH1 0x0 SWAP1 POP SWAP2 SWAP1 POP JUMP JUMPDEST PUSH1 0x0 DUP2 MLOAD GT PUSH2 0xE13 JUMPI PUSH1 0x40 MLOAD PUSH32 0x8C379A000000000000000000000000000000000000000000000000000000000 DUP2 MSTORE PUSH1 0x4 ADD PUSH2 0xE0A SWAP1 PUSH2 0x19CA JUMP JUMPDEST PUSH1 0x40 MLOAD DUP1 SWAP2 SUB SWAP1 REVERT JUMPDEST PUSH2 0xE1C DUP3 PUSH2 0xC94 JUMP JUMPDEST ISZERO PUSH2 0xE5C JUMPI PUSH1 0x40 MLOAD PUSH32 0x8C379A000000000000000000000000000000000000000000000000000000000 DUP2 MSTORE PUSH1 0x4 ADD PUSH2 0xE53 SWAP1 PUSH2 0x1A5C JUMP JUMPDEST PUSH1 0x40 MLOAD DUP1 SWAP2 SUB SWAP1 REVERT JUMPDEST PUSH1 0x0 PUSH2 0xE66 PUSH2 0xCB1 JUMP JUMPDEST SWAP1 POP POP POP POP JUMP JUMPDEST PUSH1 0x0 PUSH1 0x40 MLOAD SWAP1 POP SWAP1 JUMP JUMPDEST PUSH1 0x0 DUP1 REVERT JUMPDEST PUSH1 0x0 DUP1 REVERT JUMPDEST PUSH1 0x0 PUSH20 0xFFFFFFFFFFFFFFFFFFFFFFFFFFFFFFFFFFFFFFFF DUP3 AND SWAP1 POP SWAP2 SWAP1 POP JUMP JUMPDEST PUSH1 0x0 PUSH2 0xEAC DUP3 PUSH2 0xE81 JUMP JUMPDEST SWAP1 POP SWAP2 SWAP1 POP JUMP JUMPDEST PUSH2 0xEBC DUP2 PUSH2 0xEA1 JUMP JUMPDEST DUP2 EQ PUSH2 0xEC7 JUMPI PUSH1 0x0 DUP1 REVERT JUMPDEST POP JUMP JUMPDEST PUSH1 0x0 DUP2 CALLDATALOAD SWAP1 POP PUSH2 0xED9 DUP2 PUSH2 0xEB3 JUMP JUMPDEST SWAP3 SWAP2 POP POP JUMP JUMPDEST PUSH1 0x0 PUSH1 0x20 DUP3 DUP5 SUB SLT ISZERO PUSH2 0xEF5 JUMPI PUSH2 0xEF4 PUSH2 0xE77 JUMP JUMPDEST JUMPDEST PUSH1 0x0 PUSH2 0xF03 DUP5 DUP3 DUP6 ADD PUSH2 0xECA JUMP JUMPDEST SWAP2 POP POP SWAP3 SWAP2 POP POP JUMP JUMPDEST PUSH1 0x0 DUP2 MLOAD SWAP1 POP SWAP2 SWAP1 POP JUMP JUMPDEST PUSH1 0x0 DUP3 DUP3 MSTORE PUSH1 0x20 DUP3 ADD SWAP1 POP SWAP3 SWAP2 POP POP JUMP JUMPDEST PUSH1 0x0 JUMPDEST DUP4 DUP2 LT ISZERO PUSH2 0xF46 JUMPI DUP1 DUP3 ADD MLOAD DUP2 DUP5 ADD MSTORE PUSH1 0x20 DUP2 ADD SWAP1 POP PUSH2 0xF2B JUMP JUMPDEST DUP4 DUP2 GT ISZERO PUSH2 0xF55 JUMPI PUSH1 0x0 DUP5 DUP5 ADD MSTORE JUMPDEST POP POP POP POP JUMP JUMPDEST PUSH1 0x0 PUSH1 0x1F NOT PUSH1 0x1F DUP4 ADD AND SWAP1 POP SWAP2 SWAP1 POP JUMP JUMPDEST PUSH1 0x0 PUSH2 0xF77 DUP3 PUSH2 0xF0C JUMP JUMPDEST PUSH2 0xF81 DUP2 DUP6 PUSH2 0xF17 JUMP JUMPDEST SWAP4 POP PUSH2 0xF91 DUP2 DUP6 PUSH1 0x20 DUP7 ADD PUSH2 0xF28 JUMP JUMPDEST PUSH2 0xF9A DUP2 PUSH2 0xF5B JUMP JUMPDEST DUP5 ADD SWAP2 POP POP SWAP3 SWAP2 POP POP JUMP JUMPDEST PUSH1 0x0 DUP2 ISZERO ISZERO SWAP1 POP SWAP2 SWAP1 POP JUMP JUMPDEST PUSH2 0xFBA DUP2 PUSH2 0xFA5 JUMP JUMPDEST DUP3 MSTORE POP POP JUMP JUMPDEST PUSH1 0x0 PUSH1 0x60 DUP3 ADD SWAP1 POP DUP2 DUP2 SUB PUSH1 0x0 DUP4 ADD MSTORE PUSH2 0xFDA DUP2 DUP7 PUSH2 0xF6C JUMP JUMPDEST SWAP1 POP DUP2 DUP2 SUB PUSH1 0x20 DUP4 ADD MSTORE PUSH2 0xFEE DUP2 DUP6 PUSH2 0xF6C JUMP JUMPDEST SWAP1 POP PUSH2 0xFFD PUSH1 0x40 DUP4 ADD DUP5 PUSH2 0xFB1 JUMP JUMPDEST SWAP5 SWAP4 POP POP POP POP JUMP JUMPDEST PUSH1 0x0 DUP1 REVERT JUMPDEST PUSH1 0x0 DUP1 REVERT JUMPDEST PUSH32 0x4E487B7100000000000000000000000000000000000000000000000000000000 PUSH1 0x0 MSTORE PUSH1 0x41 PUSH1 0x4 MSTORE PUSH1 0x24 PUSH1 0x0 REVERT JUMPDEST PUSH2 0x1047 DUP3 PUSH2 0xF5B JUMP JUMPDEST DUP2 ADD DUP2 DUP2 LT PUSH8 0xFFFFFFFFFFFFFFFF DUP3 GT OR ISZERO PUSH2 0x1066 JUMPI PUSH2 0x1065 PUSH2 0x100F JUMP JUMPDEST JUMPDEST DUP1 PUSH1 0x40 MSTORE POP POP POP JUMP JUMPDEST PUSH1 0x0 PUSH2 0x1079 PUSH2 0xE6D JUMP JUMPDEST SWAP1 POP PUSH2 0x1085 DUP3 DUP3 PUSH2 0x103E JUMP JUMPDEST SWAP2 SWAP1 POP JUMP JUMPDEST PUSH1 0x0 PUSH8 0xFFFFFFFFFFFFFFFF DUP3 GT ISZERO PUSH2 0x10A5 JUMPI PUSH2 0x10A4 PUSH2 0x100F JUMP JUMPDEST JUMPDEST PUSH2 0x10AE DUP3 PUSH2 0xF5B JUMP JUMPDEST SWAP1 POP PUSH1 0x20 DUP2 ADD SWAP1 POP SWAP2 SWAP1 POP JUMP JUMPDEST DUP3 DUP2 DUP4 CALLDATACOPY PUSH1 0x0 DUP4 DUP4 ADD MSTORE POP POP POP JUMP JUMPDEST PUSH1 0x0 PUSH2 0x10DD PUSH2 0x10D8 DUP5 PUSH2 0x108A JUMP JUMPDEST PUSH2 0x106F JUMP JUMPDEST SWAP1 POP DUP3 DUP2 MSTORE PUSH1 0x20 DUP2 ADD DUP5 DUP5 DUP5 ADD GT ISZERO PUSH2 0x10F9 JUMPI PUSH2 0x10F8 PUSH2 0x100A JUMP JUMPDEST JUMPDEST PUSH2 0x1104 DUP5 DUP3 DUP6 PUSH2 0x10BB JUMP JUMPDEST POP SWAP4 SWAP3 POP POP POP JUMP JUMPDEST PUSH1 0x0 DUP3 PUSH1 0x1F DUP4 ADD SLT PUSH2 0x1121 JUMPI PUSH2 0x1120 PUSH2 0x1005 JUMP JUMPDEST JUMPDEST DUP2 CALLDATALOAD PUSH2 0x1131 DUP5 DUP3 PUSH1 0x20 DUP7 ADD PUSH2 0x10CA JUMP JUMPDEST SWAP2 POP POP SWAP3 SWAP2 POP POP JUMP JUMPDEST PUSH1 0x0 PUSH1 0x20 DUP3 DUP5 SUB SLT ISZERO PUSH2 0x1150 JUMPI PUSH2 0x114F PUSH2 0xE77 JUMP JUMPDEST JUMPDEST PUSH1 0x0 DUP3 ADD CALLDATALOAD PUSH8 0xFFFFFFFFFFFFFFFF DUP2 GT ISZERO PUSH2 0x116E JUMPI PUSH2 0x116D PUSH2 0xE7C JUMP JUMPDEST JUMPDEST PUSH2 0x117A DUP5 DUP3 DUP6 ADD PUSH2 0x110C JUMP JUMPDEST SWAP2 POP POP SWAP3 SWAP2 POP POP JUMP JUMPDEST PUSH2 0x118C DUP2 PUSH2 0xEA1 JUMP JUMPDEST DUP3 MSTORE POP POP JUMP JUMPDEST PUSH1 0x0 PUSH1 0x60 DUP3 ADD SWAP1 POP PUSH2 0x11A7 PUSH1 0x0 DUP4 ADD DUP7 PUSH2 0x1183 JUMP JUMPDEST DUP2 DUP2 SUB PUSH1 0x20 DUP4 ADD MSTORE PUSH2 0x11B9 DUP2 DUP6 PUSH2 0xF6C JUMP JUMPDEST SWAP1 POP PUSH2 0x11C8 PUSH1 0x40 DUP4 ADD DUP5 PUSH2 0xFB1 JUMP JUMPDEST SWAP5 SWAP4 POP POP POP POP JUMP JUMPDEST PUSH1 0x0 DUP1 PUSH1 0x0 PUSH1 0x60 DUP5 DUP7 SUB SLT ISZERO PUSH2 0x11E9 JUMPI PUSH2 0x11E8 PUSH2 0xE77 JUMP JUMPDEST JUMPDEST PUSH1 0x0 DUP5 ADD CALLDATALOAD PUSH8 0xFFFFFFFFFFFFFFFF DUP2 GT ISZERO PUSH2 0x1207 JUMPI PUSH2 0x1206 PUSH2 0xE7C JUMP JUMPDEST JUMPDEST PUSH2 0x1213 DUP7 DUP3 DUP8 ADD PUSH2 0x110C JUMP JUMPDEST SWAP4 POP POP PUSH1 0x20 DUP5 ADD CALLDATALOAD PUSH8 0xFFFFFFFFFFFFFFFF DUP2 GT ISZERO PUSH2 0x1234 JUMPI PUSH2 0x1233 PUSH2 0xE7C JUMP JUMPDEST JUMPDEST PUSH2 0x1240 DUP7 DUP3 DUP8 ADD PUSH2 0x110C JUMP JUMPDEST SWAP3 POP POP PUSH1 0x40 DUP5 ADD CALLDATALOAD PUSH8 0xFFFFFFFFFFFFFFFF DUP2 GT ISZERO PUSH2 0x1261 JUMPI PUSH2 0x1260 PUSH2 0xE7C JUMP JUMPDEST JUMPDEST PUSH2 0x126D DUP7 DUP3 DUP8 ADD PUSH2 0x110C JUMP JUMPDEST SWAP2 POP POP SWAP3 POP SWAP3 POP SWAP3 JUMP JUMPDEST PUSH1 0x0 PUSH1 0x20 DUP3 ADD SWAP1 POP PUSH2 0x128C PUSH1 0x0 DUP4 ADD DUP5 PUSH2 0xFB1 JUMP JUMPDEST SWAP3 SWAP2 POP POP JUMP JUMPDEST PUSH1 0x0 DUP2 MLOAD SWAP1 POP SWAP2 SWAP1 POP JUMP JUMPDEST PUSH1 0x0 DUP3 DUP3 MSTORE PUSH1 0x20 DUP3 ADD SWAP1 POP SWAP3 SWAP2 POP POP JUMP JUMPDEST PUSH1 0x0 PUSH2 0x12B9 DUP3 PUSH2 0x1292 JUMP JUMPDEST PUSH2 0x12C3 DUP2 DUP6 PUSH2 0x129D JUMP JUMPDEST SWAP4 POP PUSH2 0x12D3 DUP2 DUP6 PUSH1 0x20 DUP7 ADD PUSH2 0xF28 JUMP JUMPDEST PUSH2 0x12DC DUP2 PUSH2 0xF5B JUMP JUMPDEST DUP5 ADD SWAP2 POP POP SWAP3 SWAP2 POP POP JUMP JUMPDEST PUSH1 0x0 PUSH1 0x20 DUP3 ADD SWAP1 POP DUP2 DUP2 SUB PUSH1 0x0 DUP4 ADD MSTORE PUSH2 0x1301 DUP2 DUP5 PUSH2 0x12AE JUMP JUMPDEST SWAP1 POP SWAP3 SWAP2 POP POP JUMP JUMPDEST PUSH1 0x0 PUSH8 0xFFFFFFFFFFFFFFFF DUP3 GT ISZERO PUSH2 0x1324 JUMPI PUSH2 0x1323 PUSH2 0x100F JUMP JUMPDEST JUMPDEST PUSH2 0x132D DUP3 PUSH2 0xF5B JUMP JUMPDEST SWAP1 POP PUSH1 0x20 DUP2 ADD SWAP1 POP SWAP2 SWAP1 POP JUMP JUMPDEST PUSH1 0x0 PUSH2 0x134D PUSH2 0x1348 DUP5 PUSH2 0x1309 JUMP JUMPDEST PUSH2 0x106F JUMP JUMPDEST SWAP1 POP DUP3 DUP2 MSTORE PUSH1 0x20 DUP2 ADD DUP5 DUP5 DUP5 ADD GT ISZERO PUSH2 0x1369 JUMPI PUSH2 0x1368 PUSH2 0x100A JUMP JUMPDEST JUMPDEST PUSH2 0x1374 DUP5 DUP3 DUP6 PUSH2 0x10BB JUMP JUMPDEST POP SWAP4 SWAP3 POP POP POP JUMP JUMPDEST PUSH1 0x0 DUP3 PUSH1 0x1F DUP4 ADD SLT PUSH2 0x1391 JUMPI PUSH2 0x1390 PUSH2 0x1005 JUMP JUMPDEST JUMPDEST DUP2 CALLDATALOAD PUSH2 0x13A1 DUP5 DUP3 PUSH1 0x20 DUP7 ADD PUSH2 0x133A JUMP JUMPDEST SWAP2 POP POP SWAP3 SWAP2 POP POP JUMP JUMPDEST PUSH1 0x0 DUP1 PUSH1 0x40 DUP4 DUP6 SUB SLT ISZERO PUSH2 0x13C1 JUMPI PUSH2 0x13C0 PUSH2 0xE77 JUMP JUMPDEST JUMPDEST PUSH1 0x0 DUP4 ADD CALLDATALOAD PUSH8 0xFFFFFFFFFFFFFFFF DUP2 GT ISZERO PUSH2 0x13DF JUMPI PUSH2 0x13DE PUSH2 0xE7C JUMP JUMPDEST JUMPDEST PUSH2 0x13EB DUP6 DUP3 DUP7 ADD PUSH2 0x110C JUMP JUMPDEST SWAP3 POP POP PUSH1 0x20 DUP4 ADD CALLDATALOAD PUSH8 0xFFFFFFFFFFFFFFFF DUP2 GT ISZERO PUSH2 0x140C JUMPI PUSH2 0x140B PUSH2 0xE7C JUMP JUMPDEST JUMPDEST PUSH2 0x1418 DUP6 DUP3 DUP7 ADD PUSH2 0x137C JUMP JUMPDEST SWAP2 POP POP SWAP3 POP SWAP3 SWAP1 POP JUMP JUMPDEST PUSH1 0x0 PUSH1 0x20 DUP3 ADD SWAP1 POP PUSH2 0x1437 PUSH1 0x0 DUP4 ADD DUP5 PUSH2 0x1183 JUMP JUMPDEST SWAP3 SWAP2 POP POP JUMP JUMPDEST PUSH1 0x0 DUP2 SWAP1 POP SWAP2 SWAP1 POP JUMP JUMPDEST PUSH1 0x0 PUSH2 0x1462 PUSH2 0x145D PUSH2 0x1458 DUP5 PUSH2 0xE81 JUMP JUMPDEST PUSH2 0x143D JUMP JUMPDEST PUSH2 0xE81 JUMP JUMPDEST SWAP1 POP SWAP2 SWAP1 POP JUMP JUMPDEST PUSH1 0x0 PUSH2 0x1474 DUP3 PUSH2 0x1447 JUMP JUMPDEST SWAP1 POP SWAP2 SWAP1 POP JUMP JUMPDEST PUSH1 0x0 PUSH2 0x1486 DUP3 PUSH2 0x1469 JUMP JUMPDEST SWAP1 POP SWAP2 SWAP1 POP JUMP JUMPDEST PUSH2 0x1496 DUP2 PUSH2 0x147B JUMP JUMPDEST DUP3 MSTORE POP POP JUMP JUMPDEST PUSH1 0x0 PUSH1 0x20 DUP3 ADD SWAP1 POP PUSH2 0x14B1 PUSH1 0x0 DUP4 ADD DUP5 PUSH2 0x148D JUMP JUMPDEST SWAP3 SWAP2 POP POP JUMP JUMPDEST PUSH1 0x0 PUSH1 0x20 DUP3 ADD SWAP1 POP DUP2 DUP2 SUB PUSH1 0x0 DUP4 ADD MSTORE PUSH2 0x14D1 DUP2 DUP5 PUSH2 0xF6C JUMP JUMPDEST SWAP1 POP SWAP3 SWAP2 POP POP JUMP JUMPDEST PUSH32 0x6E6F207573657220627920746869732061646472657373000000000000000000 PUSH1 0x0 DUP3 ADD MSTORE POP JUMP JUMPDEST PUSH1 0x0 PUSH2 0x150F PUSH1 0x17 DUP4 PUSH2 0xF17 JUMP JUMPDEST SWAP2 POP PUSH2 0x151A DUP3 PUSH2 0x14D9 JUMP JUMPDEST PUSH1 0x20 DUP3 ADD SWAP1 POP SWAP2 SWAP1 POP JUMP JUMPDEST PUSH1 0x0 PUSH1 0x20 DUP3 ADD SWAP1 POP DUP2 DUP2 SUB PUSH1 0x0 DUP4 ADD MSTORE PUSH2 0x153E DUP2 PUSH2 0x1502 JUMP JUMPDEST SWAP1 POP SWAP2 SWAP1 POP JUMP JUMPDEST PUSH32 0x7468697320757365726E616D6520686173206265656E2075736564206265666F PUSH1 0x0 DUP3 ADD MSTORE PUSH32 0x7265000000000000000000000000000000000000000000000000000000000000 PUSH1 0x20 DUP3 ADD MSTORE POP JUMP JUMPDEST PUSH1 0x0 PUSH2 0x15A1 PUSH1 0x22 DUP4 PUSH2 0xF17 JUMP JUMPDEST SWAP2 POP PUSH2 0x15AC DUP3 PUSH2 0x1545 JUMP JUMPDEST PUSH1 0x40 DUP3 ADD SWAP1 POP SWAP2 SWAP1 POP JUMP JUMPDEST PUSH1 0x0 PUSH1 0x20 DUP3 ADD SWAP1 POP DUP2 DUP2 SUB PUSH1 0x0 DUP4 ADD MSTORE PUSH2 0x15D0 DUP2 PUSH2 0x1594 JUMP JUMPDEST SWAP1 POP SWAP2 SWAP1 POP JUMP JUMPDEST PUSH32 0x4E487B7100000000000000000000000000000000000000000000000000000000 PUSH1 0x0 MSTORE PUSH1 0x32 PUSH1 0x4 MSTORE PUSH1 0x24 PUSH1 0x0 REVERT JUMPDEST PUSH1 0x0 DUP2 SWAP1 POP SWAP2 SWAP1 POP JUMP JUMPDEST PUSH2 0x1619 DUP2 PUSH2 0x1606 JUMP JUMPDEST DUP2 EQ PUSH2 0x1624 JUMPI PUSH1 0x0 DUP1 REVERT JUMPDEST POP JUMP JUMPDEST PUSH1 0x0 DUP2 MLOAD SWAP1 POP PUSH2 0x1636 DUP2 PUSH2 0x1610 JUMP JUMPDEST SWAP3 SWAP2 POP POP JUMP JUMPDEST PUSH1 0x0 PUSH1 0x20 DUP3 DUP5 SUB SLT ISZERO PUSH2 0x1652 JUMPI PUSH2 0x1651 PUSH2 0xE77 JUMP JUMPDEST JUMPDEST PUSH1 0x0 PUSH2 0x1660 DUP5 DUP3 DUP6 ADD PUSH2 0x1627 JUMP JUMPDEST SWAP2 POP POP SWAP3 SWAP2 POP POP JUMP JUMPDEST PUSH32 0x7468697320757365726E616D652069732050617961626C650000000000000000 PUSH1 0x0 DUP3 ADD MSTORE POP JUMP JUMPDEST PUSH1 0x0 PUSH2 0x169F PUSH1 0x18 DUP4 PUSH2 0xF17 JUMP JUMPDEST SWAP2 POP PUSH2 0x16AA DUP3 PUSH2 0x1669 JUMP JUMPDEST PUSH1 0x20 DUP3 ADD SWAP1 POP SWAP2 SWAP1 POP JUMP JUMPDEST PUSH1 0x0 PUSH1 0x20 DUP3 ADD SWAP1 POP DUP2 DUP2 SUB PUSH1 0x0 DUP4 ADD MSTORE PUSH2 0x16CE DUP2 PUSH2 0x1692 JUMP JUMPDEST SWAP1 POP SWAP2 SWAP1 POP JUMP JUMPDEST PUSH1 0x0 PUSH1 0x80 DUP3 ADD SWAP1 POP PUSH2 0x16EA PUSH1 0x0 DUP4 ADD DUP8 PUSH2 0x1183 JUMP JUMPDEST PUSH2 0x16F7 PUSH1 0x20 DUP4 ADD DUP7 PUSH2 0x1183 JUMP JUMPDEST DUP2 DUP2 SUB PUSH1 0x40 DUP4 ADD MSTORE PUSH2 0x1709 DUP2 DUP6 PUSH2 0xF6C JUMP JUMPDEST SWAP1 POP PUSH2 0x1718 PUSH1 0x60 DUP4 ADD DUP5 PUSH2 0xFB1 JUMP JUMPDEST SWAP6 SWAP5 POP POP POP POP POP JUMP JUMPDEST PUSH1 0x0 PUSH2 0x172C DUP3 PUSH2 0xE81 JUMP JUMPDEST SWAP1 POP SWAP2 SWAP1 POP JUMP JUMPDEST PUSH2 0x173C DUP2 PUSH2 0x1721 JUMP JUMPDEST DUP2 EQ PUSH2 0x1747 JUMPI PUSH1 0x0 DUP1 REVERT JUMPDEST POP JUMP JUMPDEST PUSH1 0x0 DUP2 MLOAD SWAP1 POP PUSH2 0x1759 DUP2 PUSH2 0x1733 JUMP JUMPDEST SWAP3 SWAP2 POP POP JUMP JUMPDEST PUSH1 0x0 PUSH1 0x20 DUP3 DUP5 SUB SLT ISZERO PUSH2 0x1775 JUMPI PUSH2 0x1774 PUSH2 0xE77 JUMP JUMPDEST JUMPDEST PUSH1 0x0 PUSH2 0x1783 DUP5 DUP3 DUP6 ADD PUSH2 0x174A JUMP JUMPDEST SWAP2 POP POP SWAP3 SWAP2 POP POP JUMP JUMPDEST PUSH1 0x0 PUSH1 0x60 DUP3 ADD SWAP1 POP PUSH2 0x17A1 PUSH1 0x0 DUP4 ADD DUP7 PUSH2 0x1183 JUMP JUMPDEST PUSH2 0x17AE PUSH1 0x20 DUP4 ADD DUP6 PUSH2 0x1183 JUMP JUMPDEST PUSH2 0x17BB PUSH1 0x40 DUP4 ADD DUP5 PUSH2 0xFB1 JUMP JUMPDEST SWAP5 SWAP4 POP POP POP POP JUMP JUMPDEST PUSH1 0x0 DUP2 SWAP1 POP SWAP3 SWAP2 POP POP JUMP JUMPDEST PUSH1 0x0 PUSH2 0x17D9 DUP3 PUSH2 0x1292 JUMP JUMPDEST PUSH2 0x17E3 DUP2 DUP6 PUSH2 0x17C3 JUMP JUMPDEST SWAP4 POP PUSH2 0x17F3 DUP2 DUP6 PUSH1 0x20 DUP7 ADD PUSH2 0xF28 JUMP JUMPDEST DUP1 DUP5 ADD SWAP2 POP POP SWAP3 SWAP2 POP POP JUMP JUMPDEST PUSH1 0x0 PUSH2 0x180B DUP3 DUP5 PUSH2 0x17CE JUMP JUMPDEST SWAP2 POP DUP2 SWAP1 POP SWAP3 SWAP2 POP POP JUMP JUMPDEST PUSH1 0x0 PUSH1 0x40 DUP3 ADD SWAP1 POP DUP2 DUP2 SUB PUSH1 0x0 DUP4 ADD MSTORE PUSH2 0x1830 DUP2 DUP6 PUSH2 0xF6C JUMP JUMPDEST SWAP1 POP DUP2 DUP2 SUB PUSH1 0x20 DUP4 ADD MSTORE PUSH2 0x1844 DUP2 DUP5 PUSH2 0x12AE JUMP JUMPDEST SWAP1 POP SWAP4 SWAP3 POP POP POP JUMP JUMPDEST PUSH2 0x1856 DUP2 PUSH2 0xFA5 JUMP JUMPDEST DUP2 EQ PUSH2 0x1861 JUMPI PUSH1 0x0 DUP1 REVERT JUMPDEST POP JUMP JUMPDEST PUSH1 0x0 DUP2 MLOAD SWAP1 POP PUSH2 0x1873 DUP2 PUSH2 0x184D JUMP JUMPDEST SWAP3 SWAP2 POP POP JUMP JUMPDEST PUSH1 0x0 PUSH1 0x20 DUP3 DUP5 SUB SLT ISZERO PUSH2 0x188F JUMPI PUSH2 0x188E PUSH2 0xE77 JUMP JUMPDEST JUMPDEST PUSH1 0x0 PUSH2 0x189D DUP5 DUP3 DUP6 ADD PUSH2 0x1864 JUMP JUMPDEST SWAP2 POP POP SWAP3 SWAP2 POP POP JUMP JUMPDEST PUSH32 0x796F75206861766520746F207369676E20696E20666972737400000000000000 PUSH1 0x0 DUP3 ADD MSTORE POP JUMP JUMPDEST PUSH1 0x0 PUSH2 0x18DC PUSH1 0x19 DUP4 PUSH2 0xF17 JUMP JUMPDEST SWAP2 POP PUSH2 0x18E7 DUP3 PUSH2 0x18A6 JUMP JUMPDEST PUSH1 0x20 DUP3 ADD SWAP1 POP SWAP2 SWAP1 POP JUMP JUMPDEST PUSH1 0x0 PUSH1 0x20 DUP3 ADD SWAP1 POP DUP2 DUP2 SUB PUSH1 0x0 DUP4 ADD MSTORE PUSH2 0x190B DUP2 PUSH2 0x18CF JUMP JUMPDEST SWAP1 POP SWAP2 SWAP1 POP JUMP JUMPDEST PUSH32 0x6E6F2075736572206279207468697320757365726E616D650000000000000000 PUSH1 0x0 DUP3 ADD MSTORE POP JUMP JUMPDEST PUSH1 0x0 PUSH2 0x1948 PUSH1 0x18 DUP4 PUSH2 0xF17 JUMP JUMPDEST SWAP2 POP PUSH2 0x1953 DUP3 PUSH2 0x1912 JUMP JUMPDEST PUSH1 0x20 DUP3 ADD SWAP1 POP SWAP2 SWAP1 POP JUMP JUMPDEST PUSH1 0x0 PUSH1 0x20 DUP3 ADD SWAP1 POP DUP2 DUP2 SUB PUSH1 0x0 DUP4 ADD MSTORE PUSH2 0x1977 DUP2 PUSH2 0x193B JUMP JUMPDEST SWAP1 POP SWAP2 SWAP1 POP JUMP JUMPDEST PUSH32 0x656D70747920757365726E616D6520696E707574000000000000000000000000 PUSH1 0x0 DUP3 ADD MSTORE POP JUMP JUMPDEST PUSH1 0x0 PUSH2 0x19B4 PUSH1 0x14 DUP4 PUSH2 0xF17 JUMP JUMPDEST SWAP2 POP PUSH2 0x19BF DUP3 PUSH2 0x197E JUMP JUMPDEST PUSH1 0x20 DUP3 ADD SWAP1 POP SWAP2 SWAP1 POP JUMP JUMPDEST PUSH1 0x0 PUSH1 0x20 DUP3 ADD SWAP1 POP DUP2 DUP2 SUB PUSH1 0x0 DUP4 ADD MSTORE PUSH2 0x19E3 DUP2 PUSH2 0x19A7 JUMP JUMPDEST SWAP1 POP SWAP2 SWAP1 POP JUMP JUMPDEST PUSH32 0x74686973206164647265737320686173207369676E6564206120757365726E61 PUSH1 0x0 DUP3 ADD MSTORE PUSH32 0x6D65206265666F72650000000000000000000000000000000000000000000000 PUSH1 0x20 DUP3 ADD MSTORE POP JUMP JUMPDEST PUSH1 0x0 PUSH2 0x1A46 PUSH1 0x29 DUP4 PUSH2 0xF17 JUMP JUMPDEST SWAP2 POP PUSH2 0x1A51 DUP3 PUSH2 0x19EA JUMP JUMPDEST PUSH1 0x40 DUP3 ADD SWAP1 POP SWAP2 SWAP1 POP JUMP JUMPDEST PUSH1 0x0 PUSH1 0x20 DUP3 ADD SWAP1 POP DUP2 DUP2 SUB PUSH1 0x0 DUP4 ADD MSTORE PUSH2 0x1A75 DUP2 PUSH2 0x1A39 JUMP JUMPDEST SWAP1 POP SWAP2 SWAP1 POP JUMP INVALID LOG2 PUSH5 0x6970667358 0x22 SLT KECCAK256 0x29 0xCF GT MSIZE 0x2D 0xB6 SWAP16 0xE7 0xEB PUSH27 0x238F6BE75D75CC661CEEF40BF1E43697EA72F33EFE2C64736F6C63 NUMBER STOP ADDMOD MULMOD STOP CALLER "
        },
        "methodIdentifiers": {
          "DAO()": "98fabd3a",
          "DAOCheck(string,bytes)": "77b2e2b2",
          "DAOGet(string)": "6fe0544a",
          "addressToProfile(address)": "0e7b29bf",
          "addressToUsername(address)": "e07a0baa",
          "isPure(address)": "b7110fb6",
          "isVIP(address)": "f4201c3c",
          "registered(address)": "b2dd5c07",
          "registered(string)": "5d2d5c37",
          "setInfo(string)": "937f6e77",
          "signIn(string,string,string)": "17d984ec",
          "userData()": "bea6998f",
          "usernameToAddress(string)": "f825f143",
          "usernameToProfile(string)": "0eb5cd1a"
        }
      }
    }
  }
}