{
  "contracts/register/UserData.sol": {
    "UserData": {
      "abi": [
        {
          "anonymous": false,
          "inputs": [
            {
              "indexed": true,
              "internalType": "string",
              "name": "username",
              "type": "string"
            },
            {
              "indexed": true,
              "internalType": "address",
              "name": "userAddr",
              "type": "address"
            }
          ],
          "name": "SetAddress",
          "type": "event"
        },
        {
          "anonymous": false,
          "inputs": [
            {
              "indexed": true,
              "internalType": "address",
              "name": "userAddr",
              "type": "address"
            },
            {
              "indexed": false,
              "internalType": "string",
              "name": "varName",
              "type": "string"
            },
            {
              "indexed": false,
              "internalType": "bytes",
              "name": "varData",
              "type": "bytes"
            }
          ],
          "name": "SetData",
          "type": "event"
        },
        {
          "inputs": [],
          "name": "DAO",
          "outputs": [
            {
              "internalType": "address",
              "name": "DAOAddr",
              "type": "address"
            }
          ],
          "stateMutability": "view",
          "type": "function"
        },
        {
          "inputs": [
            {
              "internalType": "string",
              "name": "varName",
              "type": "string"
            },
            {
              "internalType": "bytes",
              "name": "varData",
              "type": "bytes"
            }
          ],
          "name": "DAOCheck",
          "outputs": [
            {
              "internalType": "bool",
              "name": "validity",
              "type": "bool"
            }
          ],
          "stateMutability": "view",
          "type": "function"
        },
        {
          "inputs": [
            {
              "internalType": "string",
              "name": "varName",
              "type": "string"
            }
          ],
          "name": "DAOGet",
          "outputs": [
            {
              "internalType": "bytes",
              "name": "varData",
              "type": "bytes"
            }
          ],
          "stateMutability": "view",
          "type": "function"
        },
        {
          "inputs": [
            {
              "internalType": "string",
              "name": "username",
              "type": "string"
            }
          ],
          "name": "getAddress",
          "outputs": [
            {
              "internalType": "address",
              "name": "userAddr",
              "type": "address"
            }
          ],
          "stateMutability": "view",
          "type": "function"
        },
        {
          "inputs": [
            {
              "internalType": "address",
              "name": "userAddr",
              "type": "address"
            },
            {
              "internalType": "string",
              "name": "varName",
              "type": "string"
            }
          ],
          "name": "getData",
          "outputs": [
            {
              "internalType": "bytes",
              "name": "varData",
              "type": "bytes"
            }
          ],
          "stateMutability": "view",
          "type": "function"
        },
        {
          "inputs": [
            {
              "internalType": "address",
              "name": "userAddr",
              "type": "address"
            },
            {
              "internalType": "string",
              "name": "username",
              "type": "string"
            }
          ],
          "name": "setAddress",
          "outputs": [],
          "stateMutability": "nonpayable",
          "type": "function"
        },
        {
          "inputs": [
            {
              "internalType": "address",
              "name": "userAddr",
              "type": "address"
            },
            {
              "internalType": "string",
              "name": "varName",
              "type": "string"
            },
            {
              "internalType": "bytes",
              "name": "varData",
              "type": "bytes"
            }
          ],
          "name": "setData",
          "outputs": [],
          "stateMutability": "nonpayable",
          "type": "function"
        }
      ],
      "evm": {
        "bytecode": {
          "linkReferences": {},
          "object": "60a060405273245caa689fa16ab50df4e8ab48555715877f79ff73ffffffffffffffffffffffffffffffffffffffff1660809073ffffffffffffffffffffffffffffffffffffffff1681525034801561005757600080fd5b506080516111d0610073600039600061076701526111d06000f3fe608060405234801561001057600080fd5b506004361061007d5760003560e01c806377b2e2b21161005b57806377b2e2b2146100fe578063912000991461012e57806398fabd3a1461014a578063bf40fac1146101685761007d565b806334aecc0a146100825780633bf58dba1461009e5780636fe0544a146100ce575b600080fd5b61009c60048036038101906100979190610bdd565b610198565b005b6100b860048036038101906100b39190610c68565b6102e9565b6040516100c59190610d4c565b60405180910390f35b6100e860048036038101906100e39190610d6e565b6103d7565b6040516100f59190610d4c565b60405180910390f35b61011860048036038101906101139190610db7565b6104f2565b6040516101259190610e4a565b60405180910390f35b61014860048036038101906101439190610c68565b610623565b005b610152610760565b60405161015f9190610e74565b60405180910390f35b610182600480360381019061017d9190610d6e565b61089a565b60405161018f9190610e74565b60405180910390f35b6040518060400160405280600881526020017f52656769737465720000000000000000000000000000000000000000000000008152506101d6610760565b73ffffffffffffffffffffffffffffffffffffffff163373ffffffffffffffffffffffffffffffffffffffff1614806102345750610233813360405160200161021f9190610e74565b6040516020818303038152906040526104f2565b5b610273576040517f08c379a000000000000000000000000000000000000000000000000000000000815260040161026a90610f12565b60405180910390fd5b81600160008673ffffffffffffffffffffffffffffffffffffffff1673ffffffffffffffffffffffffffffffffffffffff168152602001908152602001600020846040516102c19190610f79565b908152602001604051809103902090805190602001906102e29291906108e1565b5050505050565b6060600160008473ffffffffffffffffffffffffffffffffffffffff1673ffffffffffffffffffffffffffffffffffffffff168152602001908152602001600020826040516103389190610f79565b9081526020016040518091039020805461035190610fbf565b80601f016020809104026020016040519081016040528092919081815260200182805461037d90610fbf565b80156103ca5780601f1061039f576101008083540402835291602001916103ca565b820191906000526020600020905b8154815290600101906020018083116103ad57829003601f168201915b5050505050905092915050565b60606000806103e4610760565b73ffffffffffffffffffffffffffffffffffffffff168460405160240161040b919061102a565b6040516020818303038152906040527f693ec85e000000000000000000000000000000000000000000000000000000007bffffffffffffffffffffffffffffffffffffffffffffffffffffffff19166020820180517bffffffffffffffffffffffffffffffffffffffffffffffffffffffff83818316178352505050506040516104959190611088565b600060405180830381855afa9150503d80600081146104d0576040519150601f19603f3d011682016040523d82523d6000602084013e6104d5565b606091505b509150915081156104ea5780925050506104ed565b50505b919050565b60008060006104ff610760565b73ffffffffffffffffffffffffffffffffffffffff16858560405160240161052892919061109f565b6040516020818303038152906040527fcbb88d42000000000000000000000000000000000000000000000000000000007bffffffffffffffffffffffffffffffffffffffffffffffffffffffff19166020820180517bffffffffffffffffffffffffffffffffffffffffffffffffffffffff83818316178352505050506040516105b29190611088565b600060405180830381855afa9150503d80600081146105ed576040519150601f19603f3d011682016040523d82523d6000602084013e6105f2565b606091505b5091509150811561061a57808060200190518101906106119190611102565b9250505061061d565b50505b92915050565b6040518060400160405280600881526020017f5265676973746572000000000000000000000000000000000000000000000000815250610661610760565b73ffffffffffffffffffffffffffffffffffffffff163373ffffffffffffffffffffffffffffffffffffffff1614806106bf57506106be81336040516020016106aa9190610e74565b6040516020818303038152906040526104f2565b5b6106fe576040517f08c379a00000000000000000000000000000000000000000000000000000000081526004016106f590610f12565b60405180910390fd5b8260008360405161070f9190610f79565b908152602001604051809103902060006101000a81548173ffffffffffffffffffffffffffffffffffffffff021916908373ffffffffffffffffffffffffffffffffffffffff160217905550505050565b60008060007f000000000000000000000000000000000000000000000000000000000000000073ffffffffffffffffffffffffffffffffffffffff166040516024016040516020818303038152906040527f98fabd3a000000000000000000000000000000000000000000000000000000007bffffffffffffffffffffffffffffffffffffffffffffffffffffffff19166020820180517bffffffffffffffffffffffffffffffffffffffffffffffffffffffff838183161783525050505060405161082c9190611088565b600060405180830381855afa9150503d8060008114610867576040519150601f19603f3d011682016040523d82523d6000602084013e61086c565b606091505b50915091508115610894578080602001905181019061088b919061116d565b92505050610897565b50505b90565b600080826040516108ab9190610f79565b908152602001604051809103902060009054906101000a900473ffffffffffffffffffffffffffffffffffffffff169050919050565b8280546108ed90610fbf565b90600052602060002090601f01602090048101928261090f5760008555610956565b82601f1061092857805160ff1916838001178555610956565b82800160010185558215610956579182015b8281111561095557825182559160200191906001019061093a565b5b5090506109639190610967565b5090565b5b80821115610980576000816000905550600101610968565b5090565b6000604051905090565b600080fd5b600080fd5b600073ffffffffffffffffffffffffffffffffffffffff82169050919050565b60006109c382610998565b9050919050565b6109d3816109b8565b81146109de57600080fd5b50565b6000813590506109f0816109ca565b92915050565b600080fd5b600080fd5b6000601f19601f8301169050919050565b7f4e487b7100000000000000000000000000000000000000000000000000000000600052604160045260246000fd5b610a4982610a00565b810181811067ffffffffffffffff82111715610a6857610a67610a11565b5b80604052505050565b6000610a7b610984565b9050610a878282610a40565b919050565b600067ffffffffffffffff821115610aa757610aa6610a11565b5b610ab082610a00565b9050602081019050919050565b82818337600083830152505050565b6000610adf610ada84610a8c565b610a71565b905082815260208101848484011115610afb57610afa6109fb565b5b610b06848285610abd565b509392505050565b600082601f830112610b2357610b226109f6565b5b8135610b33848260208601610acc565b91505092915050565b600067ffffffffffffffff821115610b5757610b56610a11565b5b610b6082610a00565b9050602081019050919050565b6000610b80610b7b84610b3c565b610a71565b905082815260208101848484011115610b9c57610b9b6109fb565b5b610ba7848285610abd565b509392505050565b600082601f830112610bc457610bc36109f6565b5b8135610bd4848260208601610b6d565b91505092915050565b600080600060608486031215610bf657610bf561098e565b5b6000610c04868287016109e1565b935050602084013567ffffffffffffffff811115610c2557610c24610993565b5b610c3186828701610b0e565b925050604084013567ffffffffffffffff811115610c5257610c51610993565b5b610c5e86828701610baf565b9150509250925092565b60008060408385031215610c7f57610c7e61098e565b5b6000610c8d858286016109e1565b925050602083013567ffffffffffffffff811115610cae57610cad610993565b5b610cba85828601610b0e565b9150509250929050565b600081519050919050565b600082825260208201905092915050565b60005b83811015610cfe578082015181840152602081019050610ce3565b83811115610d0d576000848401525b50505050565b6000610d1e82610cc4565b610d288185610ccf565b9350610d38818560208601610ce0565b610d4181610a00565b840191505092915050565b60006020820190508181036000830152610d668184610d13565b905092915050565b600060208284031215610d8457610d8361098e565b5b600082013567ffffffffffffffff811115610da257610da1610993565b5b610dae84828501610b0e565b91505092915050565b60008060408385031215610dce57610dcd61098e565b5b600083013567ffffffffffffffff811115610dec57610deb610993565b5b610df885828601610b0e565b925050602083013567ffffffffffffffff811115610e1957610e18610993565b5b610e2585828601610baf565b9150509250929050565b60008115159050919050565b610e4481610e2f565b82525050565b6000602082019050610e5f6000830184610e3b565b92915050565b610e6e816109b8565b82525050565b6000602082019050610e896000830184610e65565b92915050565b600082825260208201905092915050565b7f446563656e7472616c4163636573733a2072657374726963746564206163636560008201527f737320746f20737065636966696320726f6c6c00000000000000000000000000602082015250565b6000610efc603383610e8f565b9150610f0782610ea0565b604082019050919050565b60006020820190508181036000830152610f2b81610eef565b9050919050565b600081519050919050565b600081905092915050565b6000610f5382610f32565b610f5d8185610f3d565b9350610f6d818560208601610ce0565b80840191505092915050565b6000610f858284610f48565b915081905092915050565b7f4e487b7100000000000000000000000000000000000000000000000000000000600052602260045260246000fd5b60006002820490506001821680610fd757607f821691505b60208210811415610feb57610fea610f90565b5b50919050565b6000610ffc82610f32565b6110068185610e8f565b9350611016818560208601610ce0565b61101f81610a00565b840191505092915050565b600060208201905081810360008301526110448184610ff1565b905092915050565b600081905092915050565b600061106282610cc4565b61106c818561104c565b935061107c818560208601610ce0565b80840191505092915050565b60006110948284611057565b915081905092915050565b600060408201905081810360008301526110b98185610ff1565b905081810360208301526110cd8184610d13565b90509392505050565b6110df81610e2f565b81146110ea57600080fd5b50565b6000815190506110fc816110d6565b92915050565b6000602082840312156111185761111761098e565b5b6000611126848285016110ed565b91505092915050565b600061113a82610998565b9050919050565b61114a8161112f565b811461115557600080fd5b50565b60008151905061116781611141565b92915050565b6000602082840312156111835761118261098e565b5b600061119184828501611158565b9150509291505056fea2646970667358221220726650776520f03b14e214fdba6c4d5d968600db93a4a78f0a4e092e3da412b864736f6c63430008090033",
          "opcodes": "PUSH1 0xA0 PUSH1 0x40 MSTORE PUSH20 0x245CAA689FA16AB50DF4E8AB48555715877F79FF PUSH20 0xFFFFFFFFFFFFFFFFFFFFFFFFFFFFFFFFFFFFFFFF AND PUSH1 0x80 SWAP1 PUSH20 0xFFFFFFFFFFFFFFFFFFFFFFFFFFFFFFFFFFFFFFFF AND DUP2 MSTORE POP CALLVALUE DUP1 ISZERO PUSH2 0x57 JUMPI PUSH1 0x0 DUP1 REVERT JUMPDEST POP PUSH1 0x80 MLOAD PUSH2 0x11D0 PUSH2 0x73 PUSH1 0x0 CODECOPY PUSH1 0x0 PUSH2 0x767 ADD MSTORE PUSH2 0x11D0 PUSH1 0x0 RETURN INVALID PUSH1 0x80 PUSH1 0x40 MSTORE CALLVALUE DUP1 ISZERO PUSH2 0x10 JUMPI PUSH1 0x0 DUP1 REVERT JUMPDEST POP PUSH1 0x4 CALLDATASIZE LT PUSH2 0x7D JUMPI PUSH1 0x0 CALLDATALOAD PUSH1 0xE0 SHR DUP1 PUSH4 0x77B2E2B2 GT PUSH2 0x5B JUMPI DUP1 PUSH4 0x77B2E2B2 EQ PUSH2 0xFE JUMPI DUP1 PUSH4 0x91200099 EQ PUSH2 0x12E JUMPI DUP1 PUSH4 0x98FABD3A EQ PUSH2 0x14A JUMPI DUP1 PUSH4 0xBF40FAC1 EQ PUSH2 0x168 JUMPI PUSH2 0x7D JUMP JUMPDEST DUP1 PUSH4 0x34AECC0A EQ PUSH2 0x82 JUMPI DUP1 PUSH4 0x3BF58DBA EQ PUSH2 0x9E JUMPI DUP1 PUSH4 0x6FE0544A EQ PUSH2 0xCE JUMPI JUMPDEST PUSH1 0x0 DUP1 REVERT JUMPDEST PUSH2 0x9C PUSH1 0x4 DUP1 CALLDATASIZE SUB DUP2 ADD SWAP1 PUSH2 0x97 SWAP2 SWAP1 PUSH2 0xBDD JUMP JUMPDEST PUSH2 0x198 JUMP JUMPDEST STOP JUMPDEST PUSH2 0xB8 PUSH1 0x4 DUP1 CALLDATASIZE SUB DUP2 ADD SWAP1 PUSH2 0xB3 SWAP2 SWAP1 PUSH2 0xC68 JUMP JUMPDEST PUSH2 0x2E9 JUMP JUMPDEST PUSH1 0x40 MLOAD PUSH2 0xC5 SWAP2 SWAP1 PUSH2 0xD4C JUMP JUMPDEST PUSH1 0x40 MLOAD DUP1 SWAP2 SUB SWAP1 RETURN JUMPDEST PUSH2 0xE8 PUSH1 0x4 DUP1 CALLDATASIZE SUB DUP2 ADD SWAP1 PUSH2 0xE3 SWAP2 SWAP1 PUSH2 0xD6E JUMP JUMPDEST PUSH2 0x3D7 JUMP JUMPDEST PUSH1 0x40 MLOAD PUSH2 0xF5 SWAP2 SWAP1 PUSH2 0xD4C JUMP JUMPDEST PUSH1 0x40 MLOAD DUP1 SWAP2 SUB SWAP1 RETURN JUMPDEST PUSH2 0x118 PUSH1 0x4 DUP1 CALLDATASIZE SUB DUP2 ADD SWAP1 PUSH2 0x113 SWAP2 SWAP1 PUSH2 0xDB7 JUMP JUMPDEST PUSH2 0x4F2 JUMP JUMPDEST PUSH1 0x40 MLOAD PUSH2 0x125 SWAP2 SWAP1 PUSH2 0xE4A JUMP JUMPDEST PUSH1 0x40 MLOAD DUP1 SWAP2 SUB SWAP1 RETURN JUMPDEST PUSH2 0x148 PUSH1 0x4 DUP1 CALLDATASIZE SUB DUP2 ADD SWAP1 PUSH2 0x143 SWAP2 SWAP1 PUSH2 0xC68 JUMP JUMPDEST PUSH2 0x623 JUMP JUMPDEST STOP JUMPDEST PUSH2 0x152 PUSH2 0x760 JUMP JUMPDEST PUSH1 0x40 MLOAD PUSH2 0x15F SWAP2 SWAP1 PUSH2 0xE74 JUMP JUMPDEST PUSH1 0x40 MLOAD DUP1 SWAP2 SUB SWAP1 RETURN JUMPDEST PUSH2 0x182 PUSH1 0x4 DUP1 CALLDATASIZE SUB DUP2 ADD SWAP1 PUSH2 0x17D SWAP2 SWAP1 PUSH2 0xD6E JUMP JUMPDEST PUSH2 0x89A JUMP JUMPDEST PUSH1 0x40 MLOAD PUSH2 0x18F SWAP2 SWAP1 PUSH2 0xE74 JUMP JUMPDEST PUSH1 0x40 MLOAD DUP1 SWAP2 SUB SWAP1 RETURN JUMPDEST PUSH1 0x40 MLOAD DUP1 PUSH1 0x40 ADD PUSH1 0x40 MSTORE DUP1 PUSH1 0x8 DUP2 MSTORE PUSH1 0x20 ADD PUSH32 0x5265676973746572000000000000000000000000000000000000000000000000 DUP2 MSTORE POP PUSH2 0x1D6 PUSH2 0x760 JUMP JUMPDEST PUSH20 0xFFFFFFFFFFFFFFFFFFFFFFFFFFFFFFFFFFFFFFFF AND CALLER PUSH20 0xFFFFFFFFFFFFFFFFFFFFFFFFFFFFFFFFFFFFFFFF AND EQ DUP1 PUSH2 0x234 JUMPI POP PUSH2 0x233 DUP2 CALLER PUSH1 0x40 MLOAD PUSH1 0x20 ADD PUSH2 0x21F SWAP2 SWAP1 PUSH2 0xE74 JUMP JUMPDEST PUSH1 0x40 MLOAD PUSH1 0x20 DUP2 DUP4 SUB SUB DUP2 MSTORE SWAP1 PUSH1 0x40 MSTORE PUSH2 0x4F2 JUMP JUMPDEST JUMPDEST PUSH2 0x273 JUMPI PUSH1 0x40 MLOAD PUSH32 0x8C379A000000000000000000000000000000000000000000000000000000000 DUP2 MSTORE PUSH1 0x4 ADD PUSH2 0x26A SWAP1 PUSH2 0xF12 JUMP JUMPDEST PUSH1 0x40 MLOAD DUP1 SWAP2 SUB SWAP1 REVERT JUMPDEST DUP2 PUSH1 0x1 PUSH1 0x0 DUP7 PUSH20 0xFFFFFFFFFFFFFFFFFFFFFFFFFFFFFFFFFFFFFFFF AND PUSH20 0xFFFFFFFFFFFFFFFFFFFFFFFFFFFFFFFFFFFFFFFF AND DUP2 MSTORE PUSH1 0x20 ADD SWAP1 DUP2 MSTORE PUSH1 0x20 ADD PUSH1 0x0 KECCAK256 DUP5 PUSH1 0x40 MLOAD PUSH2 0x2C1 SWAP2 SWAP1 PUSH2 0xF79 JUMP JUMPDEST SWAP1 DUP2 MSTORE PUSH1 0x20 ADD PUSH1 0x40 MLOAD DUP1 SWAP2 SUB SWAP1 KECCAK256 SWAP1 DUP1 MLOAD SWAP1 PUSH1 0x20 ADD SWAP1 PUSH2 0x2E2 SWAP3 SWAP2 SWAP1 PUSH2 0x8E1 JUMP JUMPDEST POP POP POP POP POP JUMP JUMPDEST PUSH1 0x60 PUSH1 0x1 PUSH1 0x0 DUP5 PUSH20 0xFFFFFFFFFFFFFFFFFFFFFFFFFFFFFFFFFFFFFFFF AND PUSH20 0xFFFFFFFFFFFFFFFFFFFFFFFFFFFFFFFFFFFFFFFF AND DUP2 MSTORE PUSH1 0x20 ADD SWAP1 DUP2 MSTORE PUSH1 0x20 ADD PUSH1 0x0 KECCAK256 DUP3 PUSH1 0x40 MLOAD PUSH2 0x338 SWAP2 SWAP1 PUSH2 0xF79 JUMP JUMPDEST SWAP1 DUP2 MSTORE PUSH1 0x20 ADD PUSH1 0x40 MLOAD DUP1 SWAP2 SUB SWAP1 KECCAK256 DUP1 SLOAD PUSH2 0x351 SWAP1 PUSH2 0xFBF JUMP JUMPDEST DUP1 PUSH1 0x1F ADD PUSH1 0x20 DUP1 SWAP2 DIV MUL PUSH1 0x20 ADD PUSH1 0x40 MLOAD SWAP1 DUP2 ADD PUSH1 0x40 MSTORE DUP1 SWAP3 SWAP2 SWAP1 DUP2 DUP2 MSTORE PUSH1 0x20 ADD DUP3 DUP1 SLOAD PUSH2 0x37D SWAP1 PUSH2 0xFBF JUMP JUMPDEST DUP1 ISZERO PUSH2 0x3CA JUMPI DUP1 PUSH1 0x1F LT PUSH2 0x39F JUMPI PUSH2 0x100 DUP1 DUP4 SLOAD DIV MUL DUP4 MSTORE SWAP2 PUSH1 0x20 ADD SWAP2 PUSH2 0x3CA JUMP JUMPDEST DUP3 ADD SWAP2 SWAP1 PUSH1 0x0 MSTORE PUSH1 0x20 PUSH1 0x0 KECCAK256 SWAP1 JUMPDEST DUP2 SLOAD DUP2 MSTORE SWAP1 PUSH1 0x1 ADD SWAP1 PUSH1 0x20 ADD DUP1 DUP4 GT PUSH2 0x3AD JUMPI DUP3 SWAP1 SUB PUSH1 0x1F AND DUP3 ADD SWAP2 JUMPDEST POP POP POP POP POP SWAP1 POP SWAP3 SWAP2 POP POP JUMP JUMPDEST PUSH1 0x60 PUSH1 0x0 DUP1 PUSH2 0x3E4 PUSH2 0x760 JUMP JUMPDEST PUSH20 0xFFFFFFFFFFFFFFFFFFFFFFFFFFFFFFFFFFFFFFFF AND DUP5 PUSH1 0x40 MLOAD PUSH1 0x24 ADD PUSH2 0x40B SWAP2 SWAP1 PUSH2 0x102A JUMP JUMPDEST PUSH1 0x40 MLOAD PUSH1 0x20 DUP2 DUP4 SUB SUB DUP2 MSTORE SWAP1 PUSH1 0x40 MSTORE PUSH32 0x693EC85E00000000000000000000000000000000000000000000000000000000 PUSH28 0xFFFFFFFFFFFFFFFFFFFFFFFFFFFFFFFFFFFFFFFFFFFFFFFFFFFFFFFF NOT AND PUSH1 0x20 DUP3 ADD DUP1 MLOAD PUSH28 0xFFFFFFFFFFFFFFFFFFFFFFFFFFFFFFFFFFFFFFFFFFFFFFFFFFFFFFFF DUP4 DUP2 DUP4 AND OR DUP4 MSTORE POP POP POP POP PUSH1 0x40 MLOAD PUSH2 0x495 SWAP2 SWAP1 PUSH2 0x1088 JUMP JUMPDEST PUSH1 0x0 PUSH1 0x40 MLOAD DUP1 DUP4 SUB DUP2 DUP6 GAS STATICCALL SWAP2 POP POP RETURNDATASIZE DUP1 PUSH1 0x0 DUP2 EQ PUSH2 0x4D0 JUMPI PUSH1 0x40 MLOAD SWAP2 POP PUSH1 0x1F NOT PUSH1 0x3F RETURNDATASIZE ADD AND DUP3 ADD PUSH1 0x40 MSTORE RETURNDATASIZE DUP3 MSTORE RETURNDATASIZE PUSH1 0x0 PUSH1 0x20 DUP5 ADD RETURNDATACOPY PUSH2 0x4D5 JUMP JUMPDEST PUSH1 0x60 SWAP2 POP JUMPDEST POP SWAP2 POP SWAP2 POP DUP2 ISZERO PUSH2 0x4EA JUMPI DUP1 SWAP3 POP POP POP PUSH2 0x4ED JUMP JUMPDEST POP POP JUMPDEST SWAP2 SWAP1 POP JUMP JUMPDEST PUSH1 0x0 DUP1 PUSH1 0x0 PUSH2 0x4FF PUSH2 0x760 JUMP JUMPDEST PUSH20 0xFFFFFFFFFFFFFFFFFFFFFFFFFFFFFFFFFFFFFFFF AND DUP6 DUP6 PUSH1 0x40 MLOAD PUSH1 0x24 ADD PUSH2 0x528 SWAP3 SWAP2 SWAP1 PUSH2 0x109F JUMP JUMPDEST PUSH1 0x40 MLOAD PUSH1 0x20 DUP2 DUP4 SUB SUB DUP2 MSTORE SWAP1 PUSH1 0x40 MSTORE PUSH32 0xCBB88D4200000000000000000000000000000000000000000000000000000000 PUSH28 0xFFFFFFFFFFFFFFFFFFFFFFFFFFFFFFFFFFFFFFFFFFFFFFFFFFFFFFFF NOT AND PUSH1 0x20 DUP3 ADD DUP1 MLOAD PUSH28 0xFFFFFFFFFFFFFFFFFFFFFFFFFFFFFFFFFFFFFFFFFFFFFFFFFFFFFFFF DUP4 DUP2 DUP4 AND OR DUP4 MSTORE POP POP POP POP PUSH1 0x40 MLOAD PUSH2 0x5B2 SWAP2 SWAP1 PUSH2 0x1088 JUMP JUMPDEST PUSH1 0x0 PUSH1 0x40 MLOAD DUP1 DUP4 SUB DUP2 DUP6 GAS STATICCALL SWAP2 POP POP RETURNDATASIZE DUP1 PUSH1 0x0 DUP2 EQ PUSH2 0x5ED JUMPI PUSH1 0x40 MLOAD SWAP2 POP PUSH1 0x1F NOT PUSH1 0x3F RETURNDATASIZE ADD AND DUP3 ADD PUSH1 0x40 MSTORE RETURNDATASIZE DUP3 MSTORE RETURNDATASIZE PUSH1 0x0 PUSH1 0x20 DUP5 ADD RETURNDATACOPY PUSH2 0x5F2 JUMP JUMPDEST PUSH1 0x60 SWAP2 POP JUMPDEST POP SWAP2 POP SWAP2 POP DUP2 ISZERO PUSH2 0x61A JUMPI DUP1 DUP1 PUSH1 0x20 ADD SWAP1 MLOAD DUP2 ADD SWAP1 PUSH2 0x611 SWAP2 SWAP1 PUSH2 0x1102 JUMP JUMPDEST SWAP3 POP POP POP PUSH2 0x61D JUMP JUMPDEST POP POP JUMPDEST SWAP3 SWAP2 POP POP JUMP JUMPDEST PUSH1 0x40 MLOAD DUP1 PUSH1 0x40 ADD PUSH1 0x40 MSTORE DUP1 PUSH1 0x8 DUP2 MSTORE PUSH1 0x20 ADD PUSH32 0x5265676973746572000000000000000000000000000000000000000000000000 DUP2 MSTORE POP PUSH2 0x661 PUSH2 0x760 JUMP JUMPDEST PUSH20 0xFFFFFFFFFFFFFFFFFFFFFFFFFFFFFFFFFFFFFFFF AND CALLER PUSH20 0xFFFFFFFFFFFFFFFFFFFFFFFFFFFFFFFFFFFFFFFF AND EQ DUP1 PUSH2 0x6BF JUMPI POP PUSH2 0x6BE DUP2 CALLER PUSH1 0x40 MLOAD PUSH1 0x20 ADD PUSH2 0x6AA SWAP2 SWAP1 PUSH2 0xE74 JUMP JUMPDEST PUSH1 0x40 MLOAD PUSH1 0x20 DUP2 DUP4 SUB SUB DUP2 MSTORE SWAP1 PUSH1 0x40 MSTORE PUSH2 0x4F2 JUMP JUMPDEST JUMPDEST PUSH2 0x6FE JUMPI PUSH1 0x40 MLOAD PUSH32 0x8C379A000000000000000000000000000000000000000000000000000000000 DUP2 MSTORE PUSH1 0x4 ADD PUSH2 0x6F5 SWAP1 PUSH2 0xF12 JUMP JUMPDEST PUSH1 0x40 MLOAD DUP1 SWAP2 SUB SWAP1 REVERT JUMPDEST DUP3 PUSH1 0x0 DUP4 PUSH1 0x40 MLOAD PUSH2 0x70F SWAP2 SWAP1 PUSH2 0xF79 JUMP JUMPDEST SWAP1 DUP2 MSTORE PUSH1 0x20 ADD PUSH1 0x40 MLOAD DUP1 SWAP2 SUB SWAP1 KECCAK256 PUSH1 0x0 PUSH2 0x100 EXP DUP2 SLOAD DUP2 PUSH20 0xFFFFFFFFFFFFFFFFFFFFFFFFFFFFFFFFFFFFFFFF MUL NOT AND SWAP1 DUP4 PUSH20 0xFFFFFFFFFFFFFFFFFFFFFFFFFFFFFFFFFFFFFFFF AND MUL OR SWAP1 SSTORE POP POP POP POP JUMP JUMPDEST PUSH1 0x0 DUP1 PUSH1 0x0 PUSH32 0x0 PUSH20 0xFFFFFFFFFFFFFFFFFFFFFFFFFFFFFFFFFFFFFFFF AND PUSH1 0x40 MLOAD PUSH1 0x24 ADD PUSH1 0x40 MLOAD PUSH1 0x20 DUP2 DUP4 SUB SUB DUP2 MSTORE SWAP1 PUSH1 0x40 MSTORE PUSH32 0x98FABD3A00000000000000000000000000000000000000000000000000000000 PUSH28 0xFFFFFFFFFFFFFFFFFFFFFFFFFFFFFFFFFFFFFFFFFFFFFFFFFFFFFFFF NOT AND PUSH1 0x20 DUP3 ADD DUP1 MLOAD PUSH28 0xFFFFFFFFFFFFFFFFFFFFFFFFFFFFFFFFFFFFFFFFFFFFFFFFFFFFFFFF DUP4 DUP2 DUP4 AND OR DUP4 MSTORE POP POP POP POP PUSH1 0x40 MLOAD PUSH2 0x82C SWAP2 SWAP1 PUSH2 0x1088 JUMP JUMPDEST PUSH1 0x0 PUSH1 0x40 MLOAD DUP1 DUP4 SUB DUP2 DUP6 GAS STATICCALL SWAP2 POP POP RETURNDATASIZE DUP1 PUSH1 0x0 DUP2 EQ PUSH2 0x867 JUMPI PUSH1 0x40 MLOAD SWAP2 POP PUSH1 0x1F NOT PUSH1 0x3F RETURNDATASIZE ADD AND DUP3 ADD PUSH1 0x40 MSTORE RETURNDATASIZE DUP3 MSTORE RETURNDATASIZE PUSH1 0x0 PUSH1 0x20 DUP5 ADD RETURNDATACOPY PUSH2 0x86C JUMP JUMPDEST PUSH1 0x60 SWAP2 POP JUMPDEST POP SWAP2 POP SWAP2 POP DUP2 ISZERO PUSH2 0x894 JUMPI DUP1 DUP1 PUSH1 0x20 ADD SWAP1 MLOAD DUP2 ADD SWAP1 PUSH2 0x88B SWAP2 SWAP1 PUSH2 0x116D JUMP JUMPDEST SWAP3 POP POP POP PUSH2 0x897 JUMP JUMPDEST POP POP JUMPDEST SWAP1 JUMP JUMPDEST PUSH1 0x0 DUP1 DUP3 PUSH1 0x40 MLOAD PUSH2 0x8AB SWAP2 SWAP1 PUSH2 0xF79 JUMP JUMPDEST SWAP1 DUP2 MSTORE PUSH1 0x20 ADD PUSH1 0x40 MLOAD DUP1 SWAP2 SUB SWAP1 KECCAK256 PUSH1 0x0 SWAP1 SLOAD SWAP1 PUSH2 0x100 EXP SWAP1 DIV PUSH20 0xFFFFFFFFFFFFFFFFFFFFFFFFFFFFFFFFFFFFFFFF AND SWAP1 POP SWAP2 SWAP1 POP JUMP JUMPDEST DUP3 DUP1 SLOAD PUSH2 0x8ED SWAP1 PUSH2 0xFBF JUMP JUMPDEST SWAP1 PUSH1 0x0 MSTORE PUSH1 0x20 PUSH1 0x0 KECCAK256 SWAP1 PUSH1 0x1F ADD PUSH1 0x20 SWAP1 DIV DUP2 ADD SWAP3 DUP3 PUSH2 0x90F JUMPI PUSH1 0x0 DUP6 SSTORE PUSH2 0x956 JUMP JUMPDEST DUP3 PUSH1 0x1F LT PUSH2 0x928 JUMPI DUP1 MLOAD PUSH1 0xFF NOT AND DUP4 DUP1 ADD OR DUP6 SSTORE PUSH2 0x956 JUMP JUMPDEST DUP3 DUP1 ADD PUSH1 0x1 ADD DUP6 SSTORE DUP3 ISZERO PUSH2 0x956 JUMPI SWAP2 DUP3 ADD JUMPDEST DUP3 DUP2 GT ISZERO PUSH2 0x955 JUMPI DUP3 MLOAD DUP3 SSTORE SWAP2 PUSH1 0x20 ADD SWAP2 SWAP1 PUSH1 0x1 ADD SWAP1 PUSH2 0x93A JUMP JUMPDEST JUMPDEST POP SWAP1 POP PUSH2 0x963 SWAP2 SWAP1 PUSH2 0x967 JUMP JUMPDEST POP SWAP1 JUMP JUMPDEST JUMPDEST DUP1 DUP3 GT ISZERO PUSH2 0x980 JUMPI PUSH1 0x0 DUP2 PUSH1 0x0 SWAP1 SSTORE POP PUSH1 0x1 ADD PUSH2 0x968 JUMP JUMPDEST POP SWAP1 JUMP JUMPDEST PUSH1 0x0 PUSH1 0x40 MLOAD SWAP1 POP SWAP1 JUMP JUMPDEST PUSH1 0x0 DUP1 REVERT JUMPDEST PUSH1 0x0 DUP1 REVERT JUMPDEST PUSH1 0x0 PUSH20 0xFFFFFFFFFFFFFFFFFFFFFFFFFFFFFFFFFFFFFFFF DUP3 AND SWAP1 POP SWAP2 SWAP1 POP JUMP JUMPDEST PUSH1 0x0 PUSH2 0x9C3 DUP3 PUSH2 0x998 JUMP JUMPDEST SWAP1 POP SWAP2 SWAP1 POP JUMP JUMPDEST PUSH2 0x9D3 DUP2 PUSH2 0x9B8 JUMP JUMPDEST DUP2 EQ PUSH2 0x9DE JUMPI PUSH1 0x0 DUP1 REVERT JUMPDEST POP JUMP JUMPDEST PUSH1 0x0 DUP2 CALLDATALOAD SWAP1 POP PUSH2 0x9F0 DUP2 PUSH2 0x9CA JUMP JUMPDEST SWAP3 SWAP2 POP POP JUMP JUMPDEST PUSH1 0x0 DUP1 REVERT JUMPDEST PUSH1 0x0 DUP1 REVERT JUMPDEST PUSH1 0x0 PUSH1 0x1F NOT PUSH1 0x1F DUP4 ADD AND SWAP1 POP SWAP2 SWAP1 POP JUMP JUMPDEST PUSH32 0x4E487B7100000000000000000000000000000000000000000000000000000000 PUSH1 0x0 MSTORE PUSH1 0x41 PUSH1 0x4 MSTORE PUSH1 0x24 PUSH1 0x0 REVERT JUMPDEST PUSH2 0xA49 DUP3 PUSH2 0xA00 JUMP JUMPDEST DUP2 ADD DUP2 DUP2 LT PUSH8 0xFFFFFFFFFFFFFFFF DUP3 GT OR ISZERO PUSH2 0xA68 JUMPI PUSH2 0xA67 PUSH2 0xA11 JUMP JUMPDEST JUMPDEST DUP1 PUSH1 0x40 MSTORE POP POP POP JUMP JUMPDEST PUSH1 0x0 PUSH2 0xA7B PUSH2 0x984 JUMP JUMPDEST SWAP1 POP PUSH2 0xA87 DUP3 DUP3 PUSH2 0xA40 JUMP JUMPDEST SWAP2 SWAP1 POP JUMP JUMPDEST PUSH1 0x0 PUSH8 0xFFFFFFFFFFFFFFFF DUP3 GT ISZERO PUSH2 0xAA7 JUMPI PUSH2 0xAA6 PUSH2 0xA11 JUMP JUMPDEST JUMPDEST PUSH2 0xAB0 DUP3 PUSH2 0xA00 JUMP JUMPDEST SWAP1 POP PUSH1 0x20 DUP2 ADD SWAP1 POP SWAP2 SWAP1 POP JUMP JUMPDEST DUP3 DUP2 DUP4 CALLDATACOPY PUSH1 0x0 DUP4 DUP4 ADD MSTORE POP POP POP JUMP JUMPDEST PUSH1 0x0 PUSH2 0xADF PUSH2 0xADA DUP5 PUSH2 0xA8C JUMP JUMPDEST PUSH2 0xA71 JUMP JUMPDEST SWAP1 POP DUP3 DUP2 MSTORE PUSH1 0x20 DUP2 ADD DUP5 DUP5 DUP5 ADD GT ISZERO PUSH2 0xAFB JUMPI PUSH2 0xAFA PUSH2 0x9FB JUMP JUMPDEST JUMPDEST PUSH2 0xB06 DUP5 DUP3 DUP6 PUSH2 0xABD JUMP JUMPDEST POP SWAP4 SWAP3 POP POP POP JUMP JUMPDEST PUSH1 0x0 DUP3 PUSH1 0x1F DUP4 ADD SLT PUSH2 0xB23 JUMPI PUSH2 0xB22 PUSH2 0x9F6 JUMP JUMPDEST JUMPDEST DUP2 CALLDATALOAD PUSH2 0xB33 DUP5 DUP3 PUSH1 0x20 DUP7 ADD PUSH2 0xACC JUMP JUMPDEST SWAP2 POP POP SWAP3 SWAP2 POP POP JUMP JUMPDEST PUSH1 0x0 PUSH8 0xFFFFFFFFFFFFFFFF DUP3 GT ISZERO PUSH2 0xB57 JUMPI PUSH2 0xB56 PUSH2 0xA11 JUMP JUMPDEST JUMPDEST PUSH2 0xB60 DUP3 PUSH2 0xA00 JUMP JUMPDEST SWAP1 POP PUSH1 0x20 DUP2 ADD SWAP1 POP SWAP2 SWAP1 POP JUMP JUMPDEST PUSH1 0x0 PUSH2 0xB80 PUSH2 0xB7B DUP5 PUSH2 0xB3C JUMP JUMPDEST PUSH2 0xA71 JUMP JUMPDEST SWAP1 POP DUP3 DUP2 MSTORE PUSH1 0x20 DUP2 ADD DUP5 DUP5 DUP5 ADD GT ISZERO PUSH2 0xB9C JUMPI PUSH2 0xB9B PUSH2 0x9FB JUMP JUMPDEST JUMPDEST PUSH2 0xBA7 DUP5 DUP3 DUP6 PUSH2 0xABD JUMP JUMPDEST POP SWAP4 SWAP3 POP POP POP JUMP JUMPDEST PUSH1 0x0 DUP3 PUSH1 0x1F DUP4 ADD SLT PUSH2 0xBC4 JUMPI PUSH2 0xBC3 PUSH2 0x9F6 JUMP JUMPDEST JUMPDEST DUP2 CALLDATALOAD PUSH2 0xBD4 DUP5 DUP3 PUSH1 0x20 DUP7 ADD PUSH2 0xB6D JUMP JUMPDEST SWAP2 POP POP SWAP3 SWAP2 POP POP JUMP JUMPDEST PUSH1 0x0 DUP1 PUSH1 0x0 PUSH1 0x60 DUP5 DUP7 SUB SLT ISZERO PUSH2 0xBF6 JUMPI PUSH2 0xBF5 PUSH2 0x98E JUMP JUMPDEST JUMPDEST PUSH1 0x0 PUSH2 0xC04 DUP7 DUP3 DUP8 ADD PUSH2 0x9E1 JUMP JUMPDEST SWAP4 POP POP PUSH1 0x20 DUP5 ADD CALLDATALOAD PUSH8 0xFFFFFFFFFFFFFFFF DUP2 GT ISZERO PUSH2 0xC25 JUMPI PUSH2 0xC24 PUSH2 0x993 JUMP JUMPDEST JUMPDEST PUSH2 0xC31 DUP7 DUP3 DUP8 ADD PUSH2 0xB0E JUMP JUMPDEST SWAP3 POP POP PUSH1 0x40 DUP5 ADD CALLDATALOAD PUSH8 0xFFFFFFFFFFFFFFFF DUP2 GT ISZERO PUSH2 0xC52 JUMPI PUSH2 0xC51 PUSH2 0x993 JUMP JUMPDEST JUMPDEST PUSH2 0xC5E DUP7 DUP3 DUP8 ADD PUSH2 0xBAF JUMP JUMPDEST SWAP2 POP POP SWAP3 POP SWAP3 POP SWAP3 JUMP JUMPDEST PUSH1 0x0 DUP1 PUSH1 0x40 DUP4 DUP6 SUB SLT ISZERO PUSH2 0xC7F JUMPI PUSH2 0xC7E PUSH2 0x98E JUMP JUMPDEST JUMPDEST PUSH1 0x0 PUSH2 0xC8D DUP6 DUP3 DUP7 ADD PUSH2 0x9E1 JUMP JUMPDEST SWAP3 POP POP PUSH1 0x20 DUP4 ADD CALLDATALOAD PUSH8 0xFFFFFFFFFFFFFFFF DUP2 GT ISZERO PUSH2 0xCAE JUMPI PUSH2 0xCAD PUSH2 0x993 JUMP JUMPDEST JUMPDEST PUSH2 0xCBA DUP6 DUP3 DUP7 ADD PUSH2 0xB0E JUMP JUMPDEST SWAP2 POP POP SWAP3 POP SWAP3 SWAP1 POP JUMP JUMPDEST PUSH1 0x0 DUP2 MLOAD SWAP1 POP SWAP2 SWAP1 POP JUMP JUMPDEST PUSH1 0x0 DUP3 DUP3 MSTORE PUSH1 0x20 DUP3 ADD SWAP1 POP SWAP3 SWAP2 POP POP JUMP JUMPDEST PUSH1 0x0 JUMPDEST DUP4 DUP2 LT ISZERO PUSH2 0xCFE JUMPI DUP1 DUP3 ADD MLOAD DUP2 DUP5 ADD MSTORE PUSH1 0x20 DUP2 ADD SWAP1 POP PUSH2 0xCE3 JUMP JUMPDEST DUP4 DUP2 GT ISZERO PUSH2 0xD0D JUMPI PUSH1 0x0 DUP5 DUP5 ADD MSTORE JUMPDEST POP POP POP POP JUMP JUMPDEST PUSH1 0x0 PUSH2 0xD1E DUP3 PUSH2 0xCC4 JUMP JUMPDEST PUSH2 0xD28 DUP2 DUP6 PUSH2 0xCCF JUMP JUMPDEST SWAP4 POP PUSH2 0xD38 DUP2 DUP6 PUSH1 0x20 DUP7 ADD PUSH2 0xCE0 JUMP JUMPDEST PUSH2 0xD41 DUP2 PUSH2 0xA00 JUMP JUMPDEST DUP5 ADD SWAP2 POP POP SWAP3 SWAP2 POP POP JUMP JUMPDEST PUSH1 0x0 PUSH1 0x20 DUP3 ADD SWAP1 POP DUP2 DUP2 SUB PUSH1 0x0 DUP4 ADD MSTORE PUSH2 0xD66 DUP2 DUP5 PUSH2 0xD13 JUMP JUMPDEST SWAP1 POP SWAP3 SWAP2 POP POP JUMP JUMPDEST PUSH1 0x0 PUSH1 0x20 DUP3 DUP5 SUB SLT ISZERO PUSH2 0xD84 JUMPI PUSH2 0xD83 PUSH2 0x98E JUMP JUMPDEST JUMPDEST PUSH1 0x0 DUP3 ADD CALLDATALOAD PUSH8 0xFFFFFFFFFFFFFFFF DUP2 GT ISZERO PUSH2 0xDA2 JUMPI PUSH2 0xDA1 PUSH2 0x993 JUMP JUMPDEST JUMPDEST PUSH2 0xDAE DUP5 DUP3 DUP6 ADD PUSH2 0xB0E JUMP JUMPDEST SWAP2 POP POP SWAP3 SWAP2 POP POP JUMP JUMPDEST PUSH1 0x0 DUP1 PUSH1 0x40 DUP4 DUP6 SUB SLT ISZERO PUSH2 0xDCE JUMPI PUSH2 0xDCD PUSH2 0x98E JUMP JUMPDEST JUMPDEST PUSH1 0x0 DUP4 ADD CALLDATALOAD PUSH8 0xFFFFFFFFFFFFFFFF DUP2 GT ISZERO PUSH2 0xDEC JUMPI PUSH2 0xDEB PUSH2 0x993 JUMP JUMPDEST JUMPDEST PUSH2 0xDF8 DUP6 DUP3 DUP7 ADD PUSH2 0xB0E JUMP JUMPDEST SWAP3 POP POP PUSH1 0x20 DUP4 ADD CALLDATALOAD PUSH8 0xFFFFFFFFFFFFFFFF DUP2 GT ISZERO PUSH2 0xE19 JUMPI PUSH2 0xE18 PUSH2 0x993 JUMP JUMPDEST JUMPDEST PUSH2 0xE25 DUP6 DUP3 DUP7 ADD PUSH2 0xBAF JUMP JUMPDEST SWAP2 POP POP SWAP3 POP SWAP3 SWAP1 POP JUMP JUMPDEST PUSH1 0x0 DUP2 ISZERO ISZERO SWAP1 POP SWAP2 SWAP1 POP JUMP JUMPDEST PUSH2 0xE44 DUP2 PUSH2 0xE2F JUMP JUMPDEST DUP3 MSTORE POP POP JUMP JUMPDEST PUSH1 0x0 PUSH1 0x20 DUP3 ADD SWAP1 POP PUSH2 0xE5F PUSH1 0x0 DUP4 ADD DUP5 PUSH2 0xE3B JUMP JUMPDEST SWAP3 SWAP2 POP POP JUMP JUMPDEST PUSH2 0xE6E DUP2 PUSH2 0x9B8 JUMP JUMPDEST DUP3 MSTORE POP POP JUMP JUMPDEST PUSH1 0x0 PUSH1 0x20 DUP3 ADD SWAP1 POP PUSH2 0xE89 PUSH1 0x0 DUP4 ADD DUP5 PUSH2 0xE65 JUMP JUMPDEST SWAP3 SWAP2 POP POP JUMP JUMPDEST PUSH1 0x0 DUP3 DUP3 MSTORE PUSH1 0x20 DUP3 ADD SWAP1 POP SWAP3 SWAP2 POP POP JUMP JUMPDEST PUSH32 0x446563656E7472616C4163636573733A20726573747269637465642061636365 PUSH1 0x0 DUP3 ADD MSTORE PUSH32 0x737320746F20737065636966696320726F6C6C00000000000000000000000000 PUSH1 0x20 DUP3 ADD MSTORE POP JUMP JUMPDEST PUSH1 0x0 PUSH2 0xEFC PUSH1 0x33 DUP4 PUSH2 0xE8F JUMP JUMPDEST SWAP2 POP PUSH2 0xF07 DUP3 PUSH2 0xEA0 JUMP JUMPDEST PUSH1 0x40 DUP3 ADD SWAP1 POP SWAP2 SWAP1 POP JUMP JUMPDEST PUSH1 0x0 PUSH1 0x20 DUP3 ADD SWAP1 POP DUP2 DUP2 SUB PUSH1 0x0 DUP4 ADD MSTORE PUSH2 0xF2B DUP2 PUSH2 0xEEF JUMP JUMPDEST SWAP1 POP SWAP2 SWAP1 POP JUMP JUMPDEST PUSH1 0x0 DUP2 MLOAD SWAP1 POP SWAP2 SWAP1 POP JUMP JUMPDEST PUSH1 0x0 DUP2 SWAP1 POP SWAP3 SWAP2 POP POP JUMP JUMPDEST PUSH1 0x0 PUSH2 0xF53 DUP3 PUSH2 0xF32 JUMP JUMPDEST PUSH2 0xF5D DUP2 DUP6 PUSH2 0xF3D JUMP JUMPDEST SWAP4 POP PUSH2 0xF6D DUP2 DUP6 PUSH1 0x20 DUP7 ADD PUSH2 0xCE0 JUMP JUMPDEST DUP1 DUP5 ADD SWAP2 POP POP SWAP3 SWAP2 POP POP JUMP JUMPDEST PUSH1 0x0 PUSH2 0xF85 DUP3 DUP5 PUSH2 0xF48 JUMP JUMPDEST SWAP2 POP DUP2 SWAP1 POP SWAP3 SWAP2 POP POP JUMP JUMPDEST PUSH32 0x4E487B7100000000000000000000000000000000000000000000000000000000 PUSH1 0x0 MSTORE PUSH1 0x22 PUSH1 0x4 MSTORE PUSH1 0x24 PUSH1 0x0 REVERT JUMPDEST PUSH1 0x0 PUSH1 0x2 DUP3 DIV SWAP1 POP PUSH1 0x1 DUP3 AND DUP1 PUSH2 0xFD7 JUMPI PUSH1 0x7F DUP3 AND SWAP2 POP JUMPDEST PUSH1 0x20 DUP3 LT DUP2 EQ ISZERO PUSH2 0xFEB JUMPI PUSH2 0xFEA PUSH2 0xF90 JUMP JUMPDEST JUMPDEST POP SWAP2 SWAP1 POP JUMP JUMPDEST PUSH1 0x0 PUSH2 0xFFC DUP3 PUSH2 0xF32 JUMP JUMPDEST PUSH2 0x1006 DUP2 DUP6 PUSH2 0xE8F JUMP JUMPDEST SWAP4 POP PUSH2 0x1016 DUP2 DUP6 PUSH1 0x20 DUP7 ADD PUSH2 0xCE0 JUMP JUMPDEST PUSH2 0x101F DUP2 PUSH2 0xA00 JUMP JUMPDEST DUP5 ADD SWAP2 POP POP SWAP3 SWAP2 POP POP JUMP JUMPDEST PUSH1 0x0 PUSH1 0x20 DUP3 ADD SWAP1 POP DUP2 DUP2 SUB PUSH1 0x0 DUP4 ADD MSTORE PUSH2 0x1044 DUP2 DUP5 PUSH2 0xFF1 JUMP JUMPDEST SWAP1 POP SWAP3 SWAP2 POP POP JUMP JUMPDEST PUSH1 0x0 DUP2 SWAP1 POP SWAP3 SWAP2 POP POP JUMP JUMPDEST PUSH1 0x0 PUSH2 0x1062 DUP3 PUSH2 0xCC4 JUMP JUMPDEST PUSH2 0x106C DUP2 DUP6 PUSH2 0x104C JUMP JUMPDEST SWAP4 POP PUSH2 0x107C DUP2 DUP6 PUSH1 0x20 DUP7 ADD PUSH2 0xCE0 JUMP JUMPDEST DUP1 DUP5 ADD SWAP2 POP POP SWAP3 SWAP2 POP POP JUMP JUMPDEST PUSH1 0x0 PUSH2 0x1094 DUP3 DUP5 PUSH2 0x1057 JUMP JUMPDEST SWAP2 POP DUP2 SWAP1 POP SWAP3 SWAP2 POP POP JUMP JUMPDEST PUSH1 0x0 PUSH1 0x40 DUP3 ADD SWAP1 POP DUP2 DUP2 SUB PUSH1 0x0 DUP4 ADD MSTORE PUSH2 0x10B9 DUP2 DUP6 PUSH2 0xFF1 JUMP JUMPDEST SWAP1 POP DUP2 DUP2 SUB PUSH1 0x20 DUP4 ADD MSTORE PUSH2 0x10CD DUP2 DUP5 PUSH2 0xD13 JUMP JUMPDEST SWAP1 POP SWAP4 SWAP3 POP POP POP JUMP JUMPDEST PUSH2 0x10DF DUP2 PUSH2 0xE2F JUMP JUMPDEST DUP2 EQ PUSH2 0x10EA JUMPI PUSH1 0x0 DUP1 REVERT JUMPDEST POP JUMP JUMPDEST PUSH1 0x0 DUP2 MLOAD SWAP1 POP PUSH2 0x10FC DUP2 PUSH2 0x10D6 JUMP JUMPDEST SWAP3 SWAP2 POP POP JUMP JUMPDEST PUSH1 0x0 PUSH1 0x20 DUP3 DUP5 SUB SLT ISZERO PUSH2 0x1118 JUMPI PUSH2 0x1117 PUSH2 0x98E JUMP JUMPDEST JUMPDEST PUSH1 0x0 PUSH2 0x1126 DUP5 DUP3 DUP6 ADD PUSH2 0x10ED JUMP JUMPDEST SWAP2 POP POP SWAP3 SWAP2 POP POP JUMP JUMPDEST PUSH1 0x0 PUSH2 0x113A DUP3 PUSH2 0x998 JUMP JUMPDEST SWAP1 POP SWAP2 SWAP1 POP JUMP JUMPDEST PUSH2 0x114A DUP2 PUSH2 0x112F JUMP JUMPDEST DUP2 EQ PUSH2 0x1155 JUMPI PUSH1 0x0 DUP1 REVERT JUMPDEST POP JUMP JUMPDEST PUSH1 0x0 DUP2 MLOAD SWAP1 POP PUSH2 0x1167 DUP2 PUSH2 0x1141 JUMP JUMPDEST SWAP3 SWAP2 POP POP JUMP JUMPDEST PUSH1 0x0 PUSH1 0x20 DUP3 DUP5 SUB SLT ISZERO PUSH2 0x1183 JUMPI PUSH2 0x1182 PUSH2 0x98E JUMP JUMPDEST JUMPDEST PUSH1 0x0 PUSH2 0x1191 DUP5 DUP3 DUP6 ADD PUSH2 0x1158 JUMP JUMPDEST SWAP2 POP POP SWAP3 SWAP2 POP POP JUMP INVALID LOG2 PUSH5 0x6970667358 0x22 SLT KECCAK256 PUSH19 0x6650776520F03B14E214FDBA6C4D5D968600DB SWAP4 LOG4 0xA7 DUP16 EXP 0x4E MULMOD 0x2E RETURNDATASIZE LOG4 SLT 0xB8 PUSH5 0x736F6C6343 STOP ADDMOD MULMOD STOP CALLER "
        },
        "methodIdentifiers": {
          "DAO()": "98fabd3a",
          "DAOCheck(string,bytes)": "77b2e2b2",
          "DAOGet(string)": "6fe0544a",
          "getAddress(string)": "bf40fac1",
          "getData(address,string)": "3bf58dba",
          "setAddress(address,string)": "91200099",
          "setData(address,string,bytes)": "34aecc0a"
        }
      }
    }
  }
}