{
  "contracts/register/UserData.sol": {
    "UserData": {
      "abi": [
        {
          "anonymous": false,
          "inputs": [
            {
              "indexed": true,
              "internalType": "address",
              "name": "userAddr",
              "type": "address"
            },
            {
              "indexed": false,
              "internalType": "bytes32",
              "name": "tag",
              "type": "bytes32"
            },
            {
              "indexed": false,
              "internalType": "bool",
              "name": "data",
              "type": "bool"
            }
          ],
          "name": "SetData",
          "type": "event"
        },
        {
          "anonymous": false,
          "inputs": [
            {
              "indexed": true,
              "internalType": "address",
              "name": "userAddr",
              "type": "address"
            },
            {
              "indexed": false,
              "internalType": "bytes32",
              "name": "tag",
              "type": "bytes32"
            },
            {
              "indexed": false,
              "internalType": "uint256",
              "name": "data",
              "type": "uint256"
            }
          ],
          "name": "SetData",
          "type": "event"
        },
        {
          "anonymous": false,
          "inputs": [
            {
              "indexed": true,
              "internalType": "address",
              "name": "userAddr",
              "type": "address"
            },
            {
              "indexed": false,
              "internalType": "bytes32",
              "name": "tag",
              "type": "bytes32"
            },
            {
              "indexed": false,
              "internalType": "int256",
              "name": "data",
              "type": "int256"
            }
          ],
          "name": "SetData",
          "type": "event"
        },
        {
          "anonymous": false,
          "inputs": [
            {
              "indexed": true,
              "internalType": "address",
              "name": "userAddr",
              "type": "address"
            },
            {
              "indexed": false,
              "internalType": "bytes32",
              "name": "tag",
              "type": "bytes32"
            },
            {
              "indexed": false,
              "internalType": "address",
              "name": "data",
              "type": "address"
            }
          ],
          "name": "SetData",
          "type": "event"
        },
        {
          "anonymous": false,
          "inputs": [
            {
              "indexed": true,
              "internalType": "address",
              "name": "userAddr",
              "type": "address"
            },
            {
              "indexed": false,
              "internalType": "bytes32",
              "name": "tag",
              "type": "bytes32"
            },
            {
              "indexed": false,
              "internalType": "string",
              "name": "data",
              "type": "string"
            }
          ],
          "name": "SetData",
          "type": "event"
        },
        {
          "anonymous": false,
          "inputs": [
            {
              "indexed": true,
              "internalType": "address",
              "name": "userAddr",
              "type": "address"
            },
            {
              "indexed": false,
              "internalType": "bytes32",
              "name": "tag",
              "type": "bytes32"
            },
            {
              "indexed": false,
              "internalType": "bytes",
              "name": "data",
              "type": "bytes"
            }
          ],
          "name": "SetData",
          "type": "event"
        },
        {
          "anonymous": false,
          "inputs": [
            {
              "indexed": true,
              "internalType": "string",
              "name": "username",
              "type": "string"
            },
            {
              "indexed": true,
              "internalType": "address",
              "name": "userAddr",
              "type": "address"
            }
          ],
          "name": "SetUserAddress",
          "type": "event"
        },
        {
          "inputs": [],
          "name": "DAO",
          "outputs": [
            {
              "internalType": "address",
              "name": "DAOAddr",
              "type": "address"
            }
          ],
          "stateMutability": "view",
          "type": "function"
        },
        {
          "inputs": [
            {
              "internalType": "bytes32",
              "name": "tag",
              "type": "bytes32"
            }
          ],
          "name": "DAOGetAddress",
          "outputs": [
            {
              "internalType": "address",
              "name": "data",
              "type": "address"
            }
          ],
          "stateMutability": "view",
          "type": "function"
        },
        {
          "inputs": [
            {
              "internalType": "bytes32",
              "name": "tag",
              "type": "bytes32"
            }
          ],
          "name": "DAOGetBool",
          "outputs": [
            {
              "internalType": "bool",
              "name": "data",
              "type": "bool"
            }
          ],
          "stateMutability": "view",
          "type": "function"
        },
        {
          "inputs": [
            {
              "internalType": "bytes32",
              "name": "tag",
              "type": "bytes32"
            }
          ],
          "name": "DAOGetBytes",
          "outputs": [
            {
              "internalType": "bytes",
              "name": "data",
              "type": "bytes"
            }
          ],
          "stateMutability": "view",
          "type": "function"
        },
        {
          "inputs": [
            {
              "internalType": "bytes32",
              "name": "tag",
              "type": "bytes32"
            }
          ],
          "name": "DAOGetInt",
          "outputs": [
            {
              "internalType": "int256",
              "name": "data",
              "type": "int256"
            }
          ],
          "stateMutability": "view",
          "type": "function"
        },
        {
          "inputs": [
            {
              "internalType": "bytes32",
              "name": "tag",
              "type": "bytes32"
            }
          ],
          "name": "DAOGetString",
          "outputs": [
            {
              "internalType": "string",
              "name": "data",
              "type": "string"
            }
          ],
          "stateMutability": "view",
          "type": "function"
        },
        {
          "inputs": [
            {
              "internalType": "bytes32",
              "name": "tag",
              "type": "bytes32"
            }
          ],
          "name": "DAOGetUint",
          "outputs": [
            {
              "internalType": "uint256",
              "name": "data",
              "type": "uint256"
            }
          ],
          "stateMutability": "view",
          "type": "function"
        },
        {
          "inputs": [
            {
              "internalType": "address",
              "name": "userAddr",
              "type": "address"
            },
            {
              "internalType": "bytes32",
              "name": "tag",
              "type": "bytes32"
            }
          ],
          "name": "getAddress",
          "outputs": [
            {
              "internalType": "address",
              "name": "data",
              "type": "address"
            }
          ],
          "stateMutability": "view",
          "type": "function"
        },
        {
          "inputs": [
            {
              "internalType": "address",
              "name": "userAddr",
              "type": "address"
            },
            {
              "internalType": "bytes32",
              "name": "tag",
              "type": "bytes32"
            }
          ],
          "name": "getBool",
          "outputs": [
            {
              "internalType": "bool",
              "name": "data",
              "type": "bool"
            }
          ],
          "stateMutability": "view",
          "type": "function"
        },
        {
          "inputs": [
            {
              "internalType": "address",
              "name": "userAddr",
              "type": "address"
            },
            {
              "internalType": "bytes32",
              "name": "tag",
              "type": "bytes32"
            }
          ],
          "name": "getBytes",
          "outputs": [
            {
              "internalType": "bytes",
              "name": "data",
              "type": "bytes"
            }
          ],
          "stateMutability": "view",
          "type": "function"
        },
        {
          "inputs": [
            {
              "internalType": "address",
              "name": "userAddr",
              "type": "address"
            },
            {
              "internalType": "bytes32",
              "name": "tag",
              "type": "bytes32"
            }
          ],
          "name": "getInt",
          "outputs": [
            {
              "internalType": "int256",
              "name": "data",
              "type": "int256"
            }
          ],
          "stateMutability": "view",
          "type": "function"
        },
        {
          "inputs": [
            {
              "internalType": "address",
              "name": "userAddr",
              "type": "address"
            },
            {
              "internalType": "bytes32",
              "name": "tag",
              "type": "bytes32"
            }
          ],
          "name": "getString",
          "outputs": [
            {
              "internalType": "string",
              "name": "data",
              "type": "string"
            }
          ],
          "stateMutability": "view",
          "type": "function"
        },
        {
          "inputs": [
            {
              "internalType": "address",
              "name": "userAddr",
              "type": "address"
            },
            {
              "internalType": "bytes32",
              "name": "tag",
              "type": "bytes32"
            }
          ],
          "name": "getUint",
          "outputs": [
            {
              "internalType": "uint256",
              "name": "data",
              "type": "uint256"
            }
          ],
          "stateMutability": "view",
          "type": "function"
        },
        {
          "inputs": [
            {
              "internalType": "address",
              "name": "userAddr",
              "type": "address"
            },
            {
              "internalType": "bytes32",
              "name": "tag",
              "type": "bytes32"
            },
            {
              "internalType": "bool",
              "name": "data",
              "type": "bool"
            }
          ],
          "name": "setData",
          "outputs": [],
          "stateMutability": "nonpayable",
          "type": "function"
        },
        {
          "inputs": [
            {
              "internalType": "address",
              "name": "userAddr",
              "type": "address"
            },
            {
              "internalType": "bytes32",
              "name": "tag",
              "type": "bytes32"
            },
            {
              "internalType": "address",
              "name": "data",
              "type": "address"
            }
          ],
          "name": "setData",
          "outputs": [],
          "stateMutability": "nonpayable",
          "type": "function"
        },
        {
          "inputs": [
            {
              "internalType": "address",
              "name": "userAddr",
              "type": "address"
            },
            {
              "internalType": "bytes32",
              "name": "tag",
              "type": "bytes32"
            },
            {
              "internalType": "int256",
              "name": "data",
              "type": "int256"
            }
          ],
          "name": "setData",
          "outputs": [],
          "stateMutability": "nonpayable",
          "type": "function"
        },
        {
          "inputs": [
            {
              "internalType": "address",
              "name": "userAddr",
              "type": "address"
            },
            {
              "internalType": "bytes32",
              "name": "tag",
              "type": "bytes32"
            },
            {
              "internalType": "bytes",
              "name": "data",
              "type": "bytes"
            }
          ],
          "name": "setData",
          "outputs": [],
          "stateMutability": "nonpayable",
          "type": "function"
        },
        {
          "inputs": [
            {
              "internalType": "address",
              "name": "userAddr",
              "type": "address"
            },
            {
              "internalType": "bytes32",
              "name": "tag",
              "type": "bytes32"
            },
            {
              "internalType": "uint256",
              "name": "data",
              "type": "uint256"
            }
          ],
          "name": "setData",
          "outputs": [],
          "stateMutability": "nonpayable",
          "type": "function"
        },
        {
          "inputs": [
            {
              "internalType": "address",
              "name": "userAddr",
              "type": "address"
            },
            {
              "internalType": "bytes32",
              "name": "tag",
              "type": "bytes32"
            },
            {
              "internalType": "string",
              "name": "data",
              "type": "string"
            }
          ],
          "name": "setData",
          "outputs": [],
          "stateMutability": "nonpayable",
          "type": "function"
        },
        {
          "inputs": [
            {
              "internalType": "string",
              "name": "username",
              "type": "string"
            },
            {
              "internalType": "address",
              "name": "userAddr",
              "type": "address"
            }
          ],
          "name": "setUserAddress",
          "outputs": [],
          "stateMutability": "nonpayable",
          "type": "function"
        },
        {
          "inputs": [
            {
              "internalType": "string",
              "name": "username",
              "type": "string"
            }
          ],
          "name": "userAddress",
          "outputs": [
            {
              "internalType": "address",
              "name": "userAddr",
              "type": "address"
            }
          ],
          "stateMutability": "view",
          "type": "function"
        }
      ],
      "evm": {
        "bytecode": {
          "linkReferences": {},
          "object": "60a060405273245caa689fa16ab50df4e8ab48555715877f79ff73ffffffffffffffffffffffffffffffffffffffff1660809073ffffffffffffffffffffffffffffffffffffffff1681525034801561005757600080fd5b50608051612b5261007360003960006115690152612b526000f3fe608060405234801561001057600080fd5b50600436106101375760003560e01c80636e08ca2e116100b857806398fabd3a1161007c57806398fabd3a146103945780639d74b37d146103b2578063a02d6fd1146103e2578063afdac18a146103fe578063e2330b621461042e578063e318de731461045e57610137565b80636e08ca2e146102b857806371658552146102e85780637ac4ed641461031857806387a18d141461034857806395ee8bae1461036457610137565b80634ce4a2f7116100ff5780634ce4a2f7146101f05780634fc729c21461020c5780635c9566dc146102285780635dbe43f2146102585780636556f7671461028857610137565b8063025ec49a1461013c5780632c5880771461016c57806334dc8b4f14610188578063473dcbaf146101a4578063482fa043146101c0575b600080fd5b61015660048036038101906101519190611d54565b61048e565b6040516101639190611d9c565b60405180910390f35b61018660048036038101906101819190611f5b565b6105bc565b005b6101a2600480360381019061019d9190611fe3565b61075a565b005b6101be60048036038101906101b99190612036565b6108fb565b005b6101da60048036038101906101d59190611d54565b610ac3565b6040516101e79190612111565b60405180910390f35b61020a60048036038101906102059190612169565b610bf1565b005b6102266004803603810190610221919061225d565b610d7f565b005b610242600480360381019061023d91906122cc565b610f1d565b60405161024f9190612324565b60405180910390f35b610272600480360381019061026d9190611d54565b610f64565b60405161027f9190612324565b60405180910390f35b6102a2600480360381019061029d919061233f565b611092565b6040516102af9190612111565b60405180910390f35b6102d260048036038101906102cd9190611d54565b611175565b6040516102df91906123d4565b60405180910390f35b61030260048036038101906102fd919061233f565b6112a3565b60405161030f919061240f565b60405180910390f35b610332600480360381019061032d919061233f565b6112fe565b60405161033f9190612324565b60405180910390f35b610362600480360381019061035d9190612456565b611379565b005b61037e6004803603810190610379919061233f565b611507565b60405161038b91906124b8565b60405180910390f35b61039c611562565b6040516103a99190612324565b60405180910390f35b6103cc60048036038101906103c7919061233f565b61169c565b6040516103d99190611d9c565b60405180910390f35b6103fc60048036038101906103f791906124d3565b611704565b005b61041860048036038101906104139190611d54565b6118a2565b60405161042591906124b8565b60405180910390f35b61044860048036038101906104439190611d54565b6119d0565b604051610455919061240f565b60405180910390f35b6104786004803603810190610473919061233f565b611afe565b60405161048591906123d4565b60405180910390f35b600080600061049b611562565b73ffffffffffffffffffffffffffffffffffffffff16846040516024016104c29190612551565b6040516020818303038152906040527f7ae1cfca000000000000000000000000000000000000000000000000000000007bffffffffffffffffffffffffffffffffffffffffffffffffffffffff19166020820180517bffffffffffffffffffffffffffffffffffffffffffffffffffffffff838183161783525050505060405161054c91906125a8565b600060405180830381855afa9150503d8060008114610587576040519150601f19603f3d011682016040523d82523d6000602084013e61058c565b606091505b509150915081156105b457808060200190518101906105ab91906125d4565b925050506105b7565b50505b919050565b6040518060400160405280600881526020017f52656769737465720000000000000000000000000000000000000000000000008152506106238133604051602001610608929190612685565b6040516020818303038152906040528051906020012061048e565b806106605750610631611562565b73ffffffffffffffffffffffffffffffffffffffff163373ffffffffffffffffffffffffffffffffffffffff16145b61069f576040517f08c379a00000000000000000000000000000000000000000000000000000000081526004016106969061271f565b60405180910390fd5b816000846040516106b0919061273f565b908152602001604051809103902060006101000a81548173ffffffffffffffffffffffffffffffffffffffff021916908373ffffffffffffffffffffffffffffffffffffffff1602179055508173ffffffffffffffffffffffffffffffffffffffff1683604051610721919061273f565b60405180910390207f6fb008b895310dfcbcaed190964becc148c6708e055f4804e03aef85c6b3068e60405160405180910390a3505050565b6040518060400160405280600881526020017f52656769737465720000000000000000000000000000000000000000000000008152506107c181336040516020016107a6929190612685565b6040516020818303038152906040528051906020012061048e565b806107fe57506107cf611562565b73ffffffffffffffffffffffffffffffffffffffff163373ffffffffffffffffffffffffffffffffffffffff16145b61083d576040517f08c379a00000000000000000000000000000000000000000000000000000000081526004016108349061271f565b60405180910390fd5b81600160008673ffffffffffffffffffffffffffffffffffffffff1673ffffffffffffffffffffffffffffffffffffffff168152602001908152602001600020600085815260200190815260200160002060006101000a81548160ff0219169083151502179055508373ffffffffffffffffffffffffffffffffffffffff167f0da416aad79ddd33a5c591cf3d102d83930967d67a998ff5735ca156c885c42684846040516108ed929190612756565b60405180910390a250505050565b6040518060400160405280600881526020017f52656769737465720000000000000000000000000000000000000000000000008152506109628133604051602001610947929190612685565b6040516020818303038152906040528051906020012061048e565b8061099f5750610970611562565b73ffffffffffffffffffffffffffffffffffffffff163373ffffffffffffffffffffffffffffffffffffffff16145b6109de576040517f08c379a00000000000000000000000000000000000000000000000000000000081526004016109d59061271f565b60405180910390fd5b81600460008673ffffffffffffffffffffffffffffffffffffffff1673ffffffffffffffffffffffffffffffffffffffff168152602001908152602001600020600085815260200190815260200160002060006101000a81548173ffffffffffffffffffffffffffffffffffffffff021916908373ffffffffffffffffffffffffffffffffffffffff1602179055508373ffffffffffffffffffffffffffffffffffffffff167f573853381a0d81243e8eb6a2d2902699e0732a401900fe6c7b39cb68eea2a7e98484604051610ab592919061277f565b60405180910390a250505050565b6060600080610ad0611562565b73ffffffffffffffffffffffffffffffffffffffff1684604051602401610af79190612551565b6040516020818303038152906040527f3848207a000000000000000000000000000000000000000000000000000000007bffffffffffffffffffffffffffffffffffffffffffffffffffffffff19166020820180517bffffffffffffffffffffffffffffffffffffffffffffffffffffffff8381831617835250505050604051610b8191906125a8565b600060405180830381855afa9150503d8060008114610bbc576040519150601f19603f3d011682016040523d82523d6000602084013e610bc1565b606091505b50915091508115610be95780806020019051810190610be09190612818565b92505050610bec565b50505b919050565b6040518060400160405280600881526020017f5265676973746572000000000000000000000000000000000000000000000000815250610c588133604051602001610c3d929190612685565b6040516020818303038152906040528051906020012061048e565b80610c955750610c66611562565b73ffffffffffffffffffffffffffffffffffffffff163373ffffffffffffffffffffffffffffffffffffffff16145b610cd4576040517f08c379a0000000000000000000000000000000000000000000000000000000008152600401610ccb9061271f565b60405180910390fd5b81600360008673ffffffffffffffffffffffffffffffffffffffff1673ffffffffffffffffffffffffffffffffffffffff1681526020019081526020016000206000858152602001908152602001600020819055508373ffffffffffffffffffffffffffffffffffffffff167f1c8170ce404c9bc175d3e41dc77e0e0a46af30ba23d2cc14aa9d1a2e264b86c58484604051610d71929190612861565b60405180910390a250505050565b6040518060400160405280600881526020017f5265676973746572000000000000000000000000000000000000000000000000815250610de68133604051602001610dcb929190612685565b6040516020818303038152906040528051906020012061048e565b80610e235750610df4611562565b73ffffffffffffffffffffffffffffffffffffffff163373ffffffffffffffffffffffffffffffffffffffff16145b610e62576040517f08c379a0000000000000000000000000000000000000000000000000000000008152600401610e599061271f565b60405180910390fd5b81600660008673ffffffffffffffffffffffffffffffffffffffff1673ffffffffffffffffffffffffffffffffffffffff16815260200190815260200160002060008581526020019081526020016000209080519060200190610ec6929190611be1565b508373ffffffffffffffffffffffffffffffffffffffff167f8757bf534c5976ffd520c520ccb22976f1e10ff8b756aa1f5fd940819961b5968484604051610f0f92919061288a565b60405180910390a250505050565b60008082604051610f2e919061273f565b908152602001604051809103902060009054906101000a900473ffffffffffffffffffffffffffffffffffffffff169050919050565b6000806000610f71611562565b73ffffffffffffffffffffffffffffffffffffffff1684604051602401610f989190612551565b6040516020818303038152906040527f21f8a721000000000000000000000000000000000000000000000000000000007bffffffffffffffffffffffffffffffffffffffffffffffffffffffff19166020820180517bffffffffffffffffffffffffffffffffffffffffffffffffffffffff838183161783525050505060405161102291906125a8565b600060405180830381855afa9150503d806000811461105d576040519150601f19603f3d011682016040523d82523d6000602084013e611062565b606091505b5091509150811561108a578080602001905181019061108191906128f8565b9250505061108d565b50505b919050565b6060600660008473ffffffffffffffffffffffffffffffffffffffff1673ffffffffffffffffffffffffffffffffffffffff168152602001908152602001600020600083815260200190815260200160002080546110ef90612954565b80601f016020809104026020016040519081016040528092919081815260200182805461111b90612954565b80156111685780601f1061113d57610100808354040283529160200191611168565b820191906000526020600020905b81548152906001019060200180831161114b57829003601f168201915b5050505050905092915050565b6060600080611182611562565b73ffffffffffffffffffffffffffffffffffffffff16846040516024016111a99190612551565b6040516020818303038152906040527f986e791a000000000000000000000000000000000000000000000000000000007bffffffffffffffffffffffffffffffffffffffffffffffffffffffff19166020820180517bffffffffffffffffffffffffffffffffffffffffffffffffffffffff838183161783525050505060405161123391906125a8565b600060405180830381855afa9150503d806000811461126e576040519150601f19603f3d011682016040523d82523d6000602084013e611273565b606091505b5091509150811561129b578080602001905181019061129291906129f6565b9250505061129e565b50505b919050565b6000600260008473ffffffffffffffffffffffffffffffffffffffff1673ffffffffffffffffffffffffffffffffffffffff168152602001908152602001600020600083815260200190815260200160002054905092915050565b6000600460008473ffffffffffffffffffffffffffffffffffffffff1673ffffffffffffffffffffffffffffffffffffffff168152602001908152602001600020600083815260200190815260200160002060009054906101000a900473ffffffffffffffffffffffffffffffffffffffff16905092915050565b6040518060400160405280600881526020017f52656769737465720000000000000000000000000000000000000000000000008152506113e081336040516020016113c5929190612685565b6040516020818303038152906040528051906020012061048e565b8061141d57506113ee611562565b73ffffffffffffffffffffffffffffffffffffffff163373ffffffffffffffffffffffffffffffffffffffff16145b61145c576040517f08c379a00000000000000000000000000000000000000000000000000000000081526004016114539061271f565b60405180910390fd5b81600260008673ffffffffffffffffffffffffffffffffffffffff1673ffffffffffffffffffffffffffffffffffffffff1681526020019081526020016000206000858152602001908152602001600020819055508373ffffffffffffffffffffffffffffffffffffffff167f1809b9804909420967dc276b4430ec515b7affc197959b4ad1cedbdeab30e42284846040516114f9929190612a3f565b60405180910390a250505050565b6000600360008473ffffffffffffffffffffffffffffffffffffffff1673ffffffffffffffffffffffffffffffffffffffff168152602001908152602001600020600083815260200190815260200160002054905092915050565b60008060007f000000000000000000000000000000000000000000000000000000000000000073ffffffffffffffffffffffffffffffffffffffff166040516024016040516020818303038152906040527f98fabd3a000000000000000000000000000000000000000000000000000000007bffffffffffffffffffffffffffffffffffffffffffffffffffffffff19166020820180517bffffffffffffffffffffffffffffffffffffffffffffffffffffffff838183161783525050505060405161162e91906125a8565b600060405180830381855afa9150503d8060008114611669576040519150601f19603f3d011682016040523d82523d6000602084013e61166e565b606091505b50915091508115611696578080602001905181019061168d91906128f8565b92505050611699565b50505b90565b6000600160008473ffffffffffffffffffffffffffffffffffffffff1673ffffffffffffffffffffffffffffffffffffffff168152602001908152602001600020600083815260200190815260200160002060009054906101000a900460ff16905092915050565b6040518060400160405280600881526020017f526567697374657200000000000000000000000000000000000000000000000081525061176b8133604051602001611750929190612685565b6040516020818303038152906040528051906020012061048e565b806117a85750611779611562565b73ffffffffffffffffffffffffffffffffffffffff163373ffffffffffffffffffffffffffffffffffffffff16145b6117e7576040517f08c379a00000000000000000000000000000000000000000000000000000000081526004016117de9061271f565b60405180910390fd5b81600560008673ffffffffffffffffffffffffffffffffffffffff1673ffffffffffffffffffffffffffffffffffffffff1681526020019081526020016000206000858152602001908152602001600020908051906020019061184b929190611c67565b508373ffffffffffffffffffffffffffffffffffffffff167f15e94a5f8355a865d59c3aff99de7b23dc160756ec53698df8a18756080084978484604051611894929190612a68565b60405180910390a250505050565b60008060006118af611562565b73ffffffffffffffffffffffffffffffffffffffff16846040516024016118d69190612551565b6040516020818303038152906040527f33598b00000000000000000000000000000000000000000000000000000000007bffffffffffffffffffffffffffffffffffffffffffffffffffffffff19166020820180517bffffffffffffffffffffffffffffffffffffffffffffffffffffffff838183161783525050505060405161196091906125a8565b600060405180830381855afa9150503d806000811461199b576040519150601f19603f3d011682016040523d82523d6000602084013e6119a0565b606091505b509150915081156119c857808060200190518101906119bf9190612aad565b925050506119cb565b50505b919050565b60008060006119dd611562565b73ffffffffffffffffffffffffffffffffffffffff1684604051602401611a049190612551565b6040516020818303038152906040527f33598b00000000000000000000000000000000000000000000000000000000007bffffffffffffffffffffffffffffffffffffffffffffffffffffffff19166020820180517bffffffffffffffffffffffffffffffffffffffffffffffffffffffff8381831617835250505050604051611a8e91906125a8565b600060405180830381855afa9150503d8060008114611ac9576040519150601f19603f3d011682016040523d82523d6000602084013e611ace565b606091505b50915091508115611af65780806020019051810190611aed9190612aef565b92505050611af9565b50505b919050565b6060600560008473ffffffffffffffffffffffffffffffffffffffff1673ffffffffffffffffffffffffffffffffffffffff16815260200190815260200160002060008381526020019081526020016000208054611b5b90612954565b80601f0160208091040260200160405190810160405280929190818152602001828054611b8790612954565b8015611bd45780601f10611ba957610100808354040283529160200191611bd4565b820191906000526020600020905b815481529060010190602001808311611bb757829003601f168201915b5050505050905092915050565b828054611bed90612954565b90600052602060002090601f016020900481019282611c0f5760008555611c56565b82601f10611c2857805160ff1916838001178555611c56565b82800160010185558215611c56579182015b82811115611c55578251825591602001919060010190611c3a565b5b509050611c639190611ced565b5090565b828054611c7390612954565b90600052602060002090601f016020900481019282611c955760008555611cdc565b82601f10611cae57805160ff1916838001178555611cdc565b82800160010185558215611cdc579182015b82811115611cdb578251825591602001919060010190611cc0565b5b509050611ce99190611ced565b5090565b5b80821115611d06576000816000905550600101611cee565b5090565b6000604051905090565b600080fd5b600080fd5b6000819050919050565b611d3181611d1e565b8114611d3c57600080fd5b50565b600081359050611d4e81611d28565b92915050565b600060208284031215611d6a57611d69611d14565b5b6000611d7884828501611d3f565b91505092915050565b60008115159050919050565b611d9681611d81565b82525050565b6000602082019050611db16000830184611d8d565b92915050565b600080fd5b600080fd5b6000601f19601f8301169050919050565b7f4e487b7100000000000000000000000000000000000000000000000000000000600052604160045260246000fd5b611e0a82611dc1565b810181811067ffffffffffffffff82111715611e2957611e28611dd2565b5b80604052505050565b6000611e3c611d0a565b9050611e488282611e01565b919050565b600067ffffffffffffffff821115611e6857611e67611dd2565b5b611e7182611dc1565b9050602081019050919050565b82818337600083830152505050565b6000611ea0611e9b84611e4d565b611e32565b905082815260208101848484011115611ebc57611ebb611dbc565b5b611ec7848285611e7e565b509392505050565b600082601f830112611ee457611ee3611db7565b5b8135611ef4848260208601611e8d565b91505092915050565b600073ffffffffffffffffffffffffffffffffffffffff82169050919050565b6000611f2882611efd565b9050919050565b611f3881611f1d565b8114611f4357600080fd5b50565b600081359050611f5581611f2f565b92915050565b60008060408385031215611f7257611f71611d14565b5b600083013567ffffffffffffffff811115611f9057611f8f611d19565b5b611f9c85828601611ecf565b9250506020611fad85828601611f46565b9150509250929050565b611fc081611d81565b8114611fcb57600080fd5b50565b600081359050611fdd81611fb7565b92915050565b600080600060608486031215611ffc57611ffb611d14565b5b600061200a86828701611f46565b935050602061201b86828701611d3f565b925050604061202c86828701611fce565b9150509250925092565b60008060006060848603121561204f5761204e611d14565b5b600061205d86828701611f46565b935050602061206e86828701611d3f565b925050604061207f86828701611f46565b9150509250925092565b600081519050919050565b600082825260208201905092915050565b60005b838110156120c35780820151818401526020810190506120a8565b838111156120d2576000848401525b50505050565b60006120e382612089565b6120ed8185612094565b93506120fd8185602086016120a5565b61210681611dc1565b840191505092915050565b6000602082019050818103600083015261212b81846120d8565b905092915050565b6000819050919050565b61214681612133565b811461215157600080fd5b50565b6000813590506121638161213d565b92915050565b60008060006060848603121561218257612181611d14565b5b600061219086828701611f46565b93505060206121a186828701611d3f565b92505060406121b286828701612154565b9150509250925092565b600067ffffffffffffffff8211156121d7576121d6611dd2565b5b6121e082611dc1565b9050602081019050919050565b60006122006121fb846121bc565b611e32565b90508281526020810184848401111561221c5761221b611dbc565b5b612227848285611e7e565b509392505050565b600082601f83011261224457612243611db7565b5b81356122548482602086016121ed565b91505092915050565b60008060006060848603121561227657612275611d14565b5b600061228486828701611f46565b935050602061229586828701611d3f565b925050604084013567ffffffffffffffff8111156122b6576122b5611d19565b5b6122c28682870161222f565b9150509250925092565b6000602082840312156122e2576122e1611d14565b5b600082013567ffffffffffffffff811115612300576122ff611d19565b5b61230c84828501611ecf565b91505092915050565b61231e81611f1d565b82525050565b60006020820190506123396000830184612315565b92915050565b6000806040838503121561235657612355611d14565b5b600061236485828601611f46565b925050602061237585828601611d3f565b9150509250929050565b600081519050919050565b600082825260208201905092915050565b60006123a68261237f565b6123b0818561238a565b93506123c08185602086016120a5565b6123c981611dc1565b840191505092915050565b600060208201905081810360008301526123ee818461239b565b905092915050565b6000819050919050565b612409816123f6565b82525050565b60006020820190506124246000830184612400565b92915050565b612433816123f6565b811461243e57600080fd5b50565b6000813590506124508161242a565b92915050565b60008060006060848603121561246f5761246e611d14565b5b600061247d86828701611f46565b935050602061248e86828701611d3f565b925050604061249f86828701612441565b9150509250925092565b6124b281612133565b82525050565b60006020820190506124cd60008301846124a9565b92915050565b6000806000606084860312156124ec576124eb611d14565b5b60006124fa86828701611f46565b935050602061250b86828701611d3f565b925050604084013567ffffffffffffffff81111561252c5761252b611d19565b5b61253886828701611ecf565b9150509250925092565b61254b81611d1e565b82525050565b60006020820190506125666000830184612542565b92915050565b600081905092915050565b600061258282612089565b61258c818561256c565b935061259c8185602086016120a5565b80840191505092915050565b60006125b48284612577565b915081905092915050565b6000815190506125ce81611fb7565b92915050565b6000602082840312156125ea576125e9611d14565b5b60006125f8848285016125bf565b91505092915050565b600081905092915050565b60006126178261237f565b6126218185612601565b93506126318185602086016120a5565b80840191505092915050565b60008160601b9050919050565b60006126558261263d565b9050919050565b60006126678261264a565b9050919050565b61267f61267a82611f1d565b61265c565b82525050565b6000612691828561260c565b915061269d828461266e565b6014820191508190509392505050565b7f446563656e7472616c4163636573733a2072657374726963746564206163636560008201527f737320746f20737065636966696320726f6c6c00000000000000000000000000602082015250565b600061270960338361238a565b9150612714826126ad565b604082019050919050565b60006020820190508181036000830152612738816126fc565b9050919050565b600061274b828461260c565b915081905092915050565b600060408201905061276b6000830185612542565b6127786020830184611d8d565b9392505050565b60006040820190506127946000830185612542565b6127a16020830184612315565b9392505050565b60006127bb6127b6846121bc565b611e32565b9050828152602081018484840111156127d7576127d6611dbc565b5b6127e28482856120a5565b509392505050565b600082601f8301126127ff576127fe611db7565b5b815161280f8482602086016127a8565b91505092915050565b60006020828403121561282e5761282d611d14565b5b600082015167ffffffffffffffff81111561284c5761284b611d19565b5b612858848285016127ea565b91505092915050565b60006040820190506128766000830185612542565b61288360208301846124a9565b9392505050565b600060408201905061289f6000830185612542565b81810360208301526128b181846120d8565b90509392505050565b60006128c582611efd565b9050919050565b6128d5816128ba565b81146128e057600080fd5b50565b6000815190506128f2816128cc565b92915050565b60006020828403121561290e5761290d611d14565b5b600061291c848285016128e3565b91505092915050565b7f4e487b7100000000000000000000000000000000000000000000000000000000600052602260045260246000fd5b6000600282049050600182168061296c57607f821691505b602082108114156129805761297f612925565b5b50919050565b600061299961299484611e4d565b611e32565b9050828152602081018484840111156129b5576129b4611dbc565b5b6129c08482856120a5565b509392505050565b600082601f8301126129dd576129dc611db7565b5b81516129ed848260208601612986565b91505092915050565b600060208284031215612a0c57612a0b611d14565b5b600082015167ffffffffffffffff811115612a2a57612a29611d19565b5b612a36848285016129c8565b91505092915050565b6000604082019050612a546000830185612542565b612a616020830184612400565b9392505050565b6000604082019050612a7d6000830185612542565b8181036020830152612a8f818461239b565b90509392505050565b600081519050612aa78161213d565b92915050565b600060208284031215612ac357612ac2611d14565b5b6000612ad184828501612a98565b91505092915050565b600081519050612ae98161242a565b92915050565b600060208284031215612b0557612b04611d14565b5b6000612b1384828501612ada565b9150509291505056fea26469706673582212202266206a6f7b244fe71111b051ace623e9d133947086cad01cd1b815f5ecc54564736f6c63430008090033",
          "opcodes": "PUSH1 0xA0 PUSH1 0x40 MSTORE PUSH20 0x245CAA689FA16AB50DF4E8AB48555715877F79FF PUSH20 0xFFFFFFFFFFFFFFFFFFFFFFFFFFFFFFFFFFFFFFFF AND PUSH1 0x80 SWAP1 PUSH20 0xFFFFFFFFFFFFFFFFFFFFFFFFFFFFFFFFFFFFFFFF AND DUP2 MSTORE POP CALLVALUE DUP1 ISZERO PUSH2 0x57 JUMPI PUSH1 0x0 DUP1 REVERT JUMPDEST POP PUSH1 0x80 MLOAD PUSH2 0x2B52 PUSH2 0x73 PUSH1 0x0 CODECOPY PUSH1 0x0 PUSH2 0x1569 ADD MSTORE PUSH2 0x2B52 PUSH1 0x0 RETURN INVALID PUSH1 0x80 PUSH1 0x40 MSTORE CALLVALUE DUP1 ISZERO PUSH2 0x10 JUMPI PUSH1 0x0 DUP1 REVERT JUMPDEST POP PUSH1 0x4 CALLDATASIZE LT PUSH2 0x137 JUMPI PUSH1 0x0 CALLDATALOAD PUSH1 0xE0 SHR DUP1 PUSH4 0x6E08CA2E GT PUSH2 0xB8 JUMPI DUP1 PUSH4 0x98FABD3A GT PUSH2 0x7C JUMPI DUP1 PUSH4 0x98FABD3A EQ PUSH2 0x394 JUMPI DUP1 PUSH4 0x9D74B37D EQ PUSH2 0x3B2 JUMPI DUP1 PUSH4 0xA02D6FD1 EQ PUSH2 0x3E2 JUMPI DUP1 PUSH4 0xAFDAC18A EQ PUSH2 0x3FE JUMPI DUP1 PUSH4 0xE2330B62 EQ PUSH2 0x42E JUMPI DUP1 PUSH4 0xE318DE73 EQ PUSH2 0x45E JUMPI PUSH2 0x137 JUMP JUMPDEST DUP1 PUSH4 0x6E08CA2E EQ PUSH2 0x2B8 JUMPI DUP1 PUSH4 0x71658552 EQ PUSH2 0x2E8 JUMPI DUP1 PUSH4 0x7AC4ED64 EQ PUSH2 0x318 JUMPI DUP1 PUSH4 0x87A18D14 EQ PUSH2 0x348 JUMPI DUP1 PUSH4 0x95EE8BAE EQ PUSH2 0x364 JUMPI PUSH2 0x137 JUMP JUMPDEST DUP1 PUSH4 0x4CE4A2F7 GT PUSH2 0xFF JUMPI DUP1 PUSH4 0x4CE4A2F7 EQ PUSH2 0x1F0 JUMPI DUP1 PUSH4 0x4FC729C2 EQ PUSH2 0x20C JUMPI DUP1 PUSH4 0x5C9566DC EQ PUSH2 0x228 JUMPI DUP1 PUSH4 0x5DBE43F2 EQ PUSH2 0x258 JUMPI DUP1 PUSH4 0x6556F767 EQ PUSH2 0x288 JUMPI PUSH2 0x137 JUMP JUMPDEST DUP1 PUSH4 0x25EC49A EQ PUSH2 0x13C JUMPI DUP1 PUSH4 0x2C588077 EQ PUSH2 0x16C JUMPI DUP1 PUSH4 0x34DC8B4F EQ PUSH2 0x188 JUMPI DUP1 PUSH4 0x473DCBAF EQ PUSH2 0x1A4 JUMPI DUP1 PUSH4 0x482FA043 EQ PUSH2 0x1C0 JUMPI JUMPDEST PUSH1 0x0 DUP1 REVERT JUMPDEST PUSH2 0x156 PUSH1 0x4 DUP1 CALLDATASIZE SUB DUP2 ADD SWAP1 PUSH2 0x151 SWAP2 SWAP1 PUSH2 0x1D54 JUMP JUMPDEST PUSH2 0x48E JUMP JUMPDEST PUSH1 0x40 MLOAD PUSH2 0x163 SWAP2 SWAP1 PUSH2 0x1D9C JUMP JUMPDEST PUSH1 0x40 MLOAD DUP1 SWAP2 SUB SWAP1 RETURN JUMPDEST PUSH2 0x186 PUSH1 0x4 DUP1 CALLDATASIZE SUB DUP2 ADD SWAP1 PUSH2 0x181 SWAP2 SWAP1 PUSH2 0x1F5B JUMP JUMPDEST PUSH2 0x5BC JUMP JUMPDEST STOP JUMPDEST PUSH2 0x1A2 PUSH1 0x4 DUP1 CALLDATASIZE SUB DUP2 ADD SWAP1 PUSH2 0x19D SWAP2 SWAP1 PUSH2 0x1FE3 JUMP JUMPDEST PUSH2 0x75A JUMP JUMPDEST STOP JUMPDEST PUSH2 0x1BE PUSH1 0x4 DUP1 CALLDATASIZE SUB DUP2 ADD SWAP1 PUSH2 0x1B9 SWAP2 SWAP1 PUSH2 0x2036 JUMP JUMPDEST PUSH2 0x8FB JUMP JUMPDEST STOP JUMPDEST PUSH2 0x1DA PUSH1 0x4 DUP1 CALLDATASIZE SUB DUP2 ADD SWAP1 PUSH2 0x1D5 SWAP2 SWAP1 PUSH2 0x1D54 JUMP JUMPDEST PUSH2 0xAC3 JUMP JUMPDEST PUSH1 0x40 MLOAD PUSH2 0x1E7 SWAP2 SWAP1 PUSH2 0x2111 JUMP JUMPDEST PUSH1 0x40 MLOAD DUP1 SWAP2 SUB SWAP1 RETURN JUMPDEST PUSH2 0x20A PUSH1 0x4 DUP1 CALLDATASIZE SUB DUP2 ADD SWAP1 PUSH2 0x205 SWAP2 SWAP1 PUSH2 0x2169 JUMP JUMPDEST PUSH2 0xBF1 JUMP JUMPDEST STOP JUMPDEST PUSH2 0x226 PUSH1 0x4 DUP1 CALLDATASIZE SUB DUP2 ADD SWAP1 PUSH2 0x221 SWAP2 SWAP1 PUSH2 0x225D JUMP JUMPDEST PUSH2 0xD7F JUMP JUMPDEST STOP JUMPDEST PUSH2 0x242 PUSH1 0x4 DUP1 CALLDATASIZE SUB DUP2 ADD SWAP1 PUSH2 0x23D SWAP2 SWAP1 PUSH2 0x22CC JUMP JUMPDEST PUSH2 0xF1D JUMP JUMPDEST PUSH1 0x40 MLOAD PUSH2 0x24F SWAP2 SWAP1 PUSH2 0x2324 JUMP JUMPDEST PUSH1 0x40 MLOAD DUP1 SWAP2 SUB SWAP1 RETURN JUMPDEST PUSH2 0x272 PUSH1 0x4 DUP1 CALLDATASIZE SUB DUP2 ADD SWAP1 PUSH2 0x26D SWAP2 SWAP1 PUSH2 0x1D54 JUMP JUMPDEST PUSH2 0xF64 JUMP JUMPDEST PUSH1 0x40 MLOAD PUSH2 0x27F SWAP2 SWAP1 PUSH2 0x2324 JUMP JUMPDEST PUSH1 0x40 MLOAD DUP1 SWAP2 SUB SWAP1 RETURN JUMPDEST PUSH2 0x2A2 PUSH1 0x4 DUP1 CALLDATASIZE SUB DUP2 ADD SWAP1 PUSH2 0x29D SWAP2 SWAP1 PUSH2 0x233F JUMP JUMPDEST PUSH2 0x1092 JUMP JUMPDEST PUSH1 0x40 MLOAD PUSH2 0x2AF SWAP2 SWAP1 PUSH2 0x2111 JUMP JUMPDEST PUSH1 0x40 MLOAD DUP1 SWAP2 SUB SWAP1 RETURN JUMPDEST PUSH2 0x2D2 PUSH1 0x4 DUP1 CALLDATASIZE SUB DUP2 ADD SWAP1 PUSH2 0x2CD SWAP2 SWAP1 PUSH2 0x1D54 JUMP JUMPDEST PUSH2 0x1175 JUMP JUMPDEST PUSH1 0x40 MLOAD PUSH2 0x2DF SWAP2 SWAP1 PUSH2 0x23D4 JUMP JUMPDEST PUSH1 0x40 MLOAD DUP1 SWAP2 SUB SWAP1 RETURN JUMPDEST PUSH2 0x302 PUSH1 0x4 DUP1 CALLDATASIZE SUB DUP2 ADD SWAP1 PUSH2 0x2FD SWAP2 SWAP1 PUSH2 0x233F JUMP JUMPDEST PUSH2 0x12A3 JUMP JUMPDEST PUSH1 0x40 MLOAD PUSH2 0x30F SWAP2 SWAP1 PUSH2 0x240F JUMP JUMPDEST PUSH1 0x40 MLOAD DUP1 SWAP2 SUB SWAP1 RETURN JUMPDEST PUSH2 0x332 PUSH1 0x4 DUP1 CALLDATASIZE SUB DUP2 ADD SWAP1 PUSH2 0x32D SWAP2 SWAP1 PUSH2 0x233F JUMP JUMPDEST PUSH2 0x12FE JUMP JUMPDEST PUSH1 0x40 MLOAD PUSH2 0x33F SWAP2 SWAP1 PUSH2 0x2324 JUMP JUMPDEST PUSH1 0x40 MLOAD DUP1 SWAP2 SUB SWAP1 RETURN JUMPDEST PUSH2 0x362 PUSH1 0x4 DUP1 CALLDATASIZE SUB DUP2 ADD SWAP1 PUSH2 0x35D SWAP2 SWAP1 PUSH2 0x2456 JUMP JUMPDEST PUSH2 0x1379 JUMP JUMPDEST STOP JUMPDEST PUSH2 0x37E PUSH1 0x4 DUP1 CALLDATASIZE SUB DUP2 ADD SWAP1 PUSH2 0x379 SWAP2 SWAP1 PUSH2 0x233F JUMP JUMPDEST PUSH2 0x1507 JUMP JUMPDEST PUSH1 0x40 MLOAD PUSH2 0x38B SWAP2 SWAP1 PUSH2 0x24B8 JUMP JUMPDEST PUSH1 0x40 MLOAD DUP1 SWAP2 SUB SWAP1 RETURN JUMPDEST PUSH2 0x39C PUSH2 0x1562 JUMP JUMPDEST PUSH1 0x40 MLOAD PUSH2 0x3A9 SWAP2 SWAP1 PUSH2 0x2324 JUMP JUMPDEST PUSH1 0x40 MLOAD DUP1 SWAP2 SUB SWAP1 RETURN JUMPDEST PUSH2 0x3CC PUSH1 0x4 DUP1 CALLDATASIZE SUB DUP2 ADD SWAP1 PUSH2 0x3C7 SWAP2 SWAP1 PUSH2 0x233F JUMP JUMPDEST PUSH2 0x169C JUMP JUMPDEST PUSH1 0x40 MLOAD PUSH2 0x3D9 SWAP2 SWAP1 PUSH2 0x1D9C JUMP JUMPDEST PUSH1 0x40 MLOAD DUP1 SWAP2 SUB SWAP1 RETURN JUMPDEST PUSH2 0x3FC PUSH1 0x4 DUP1 CALLDATASIZE SUB DUP2 ADD SWAP1 PUSH2 0x3F7 SWAP2 SWAP1 PUSH2 0x24D3 JUMP JUMPDEST PUSH2 0x1704 JUMP JUMPDEST STOP JUMPDEST PUSH2 0x418 PUSH1 0x4 DUP1 CALLDATASIZE SUB DUP2 ADD SWAP1 PUSH2 0x413 SWAP2 SWAP1 PUSH2 0x1D54 JUMP JUMPDEST PUSH2 0x18A2 JUMP JUMPDEST PUSH1 0x40 MLOAD PUSH2 0x425 SWAP2 SWAP1 PUSH2 0x24B8 JUMP JUMPDEST PUSH1 0x40 MLOAD DUP1 SWAP2 SUB SWAP1 RETURN JUMPDEST PUSH2 0x448 PUSH1 0x4 DUP1 CALLDATASIZE SUB DUP2 ADD SWAP1 PUSH2 0x443 SWAP2 SWAP1 PUSH2 0x1D54 JUMP JUMPDEST PUSH2 0x19D0 JUMP JUMPDEST PUSH1 0x40 MLOAD PUSH2 0x455 SWAP2 SWAP1 PUSH2 0x240F JUMP JUMPDEST PUSH1 0x40 MLOAD DUP1 SWAP2 SUB SWAP1 RETURN JUMPDEST PUSH2 0x478 PUSH1 0x4 DUP1 CALLDATASIZE SUB DUP2 ADD SWAP1 PUSH2 0x473 SWAP2 SWAP1 PUSH2 0x233F JUMP JUMPDEST PUSH2 0x1AFE JUMP JUMPDEST PUSH1 0x40 MLOAD PUSH2 0x485 SWAP2 SWAP1 PUSH2 0x23D4 JUMP JUMPDEST PUSH1 0x40 MLOAD DUP1 SWAP2 SUB SWAP1 RETURN JUMPDEST PUSH1 0x0 DUP1 PUSH1 0x0 PUSH2 0x49B PUSH2 0x1562 JUMP JUMPDEST PUSH20 0xFFFFFFFFFFFFFFFFFFFFFFFFFFFFFFFFFFFFFFFF AND DUP5 PUSH1 0x40 MLOAD PUSH1 0x24 ADD PUSH2 0x4C2 SWAP2 SWAP1 PUSH2 0x2551 JUMP JUMPDEST PUSH1 0x40 MLOAD PUSH1 0x20 DUP2 DUP4 SUB SUB DUP2 MSTORE SWAP1 PUSH1 0x40 MSTORE PUSH32 0x7AE1CFCA00000000000000000000000000000000000000000000000000000000 PUSH28 0xFFFFFFFFFFFFFFFFFFFFFFFFFFFFFFFFFFFFFFFFFFFFFFFFFFFFFFFF NOT AND PUSH1 0x20 DUP3 ADD DUP1 MLOAD PUSH28 0xFFFFFFFFFFFFFFFFFFFFFFFFFFFFFFFFFFFFFFFFFFFFFFFFFFFFFFFF DUP4 DUP2 DUP4 AND OR DUP4 MSTORE POP POP POP POP PUSH1 0x40 MLOAD PUSH2 0x54C SWAP2 SWAP1 PUSH2 0x25A8 JUMP JUMPDEST PUSH1 0x0 PUSH1 0x40 MLOAD DUP1 DUP4 SUB DUP2 DUP6 GAS STATICCALL SWAP2 POP POP RETURNDATASIZE DUP1 PUSH1 0x0 DUP2 EQ PUSH2 0x587 JUMPI PUSH1 0x40 MLOAD SWAP2 POP PUSH1 0x1F NOT PUSH1 0x3F RETURNDATASIZE ADD AND DUP3 ADD PUSH1 0x40 MSTORE RETURNDATASIZE DUP3 MSTORE RETURNDATASIZE PUSH1 0x0 PUSH1 0x20 DUP5 ADD RETURNDATACOPY PUSH2 0x58C JUMP JUMPDEST PUSH1 0x60 SWAP2 POP JUMPDEST POP SWAP2 POP SWAP2 POP DUP2 ISZERO PUSH2 0x5B4 JUMPI DUP1 DUP1 PUSH1 0x20 ADD SWAP1 MLOAD DUP2 ADD SWAP1 PUSH2 0x5AB SWAP2 SWAP1 PUSH2 0x25D4 JUMP JUMPDEST SWAP3 POP POP POP PUSH2 0x5B7 JUMP JUMPDEST POP POP JUMPDEST SWAP2 SWAP1 POP JUMP JUMPDEST PUSH1 0x40 MLOAD DUP1 PUSH1 0x40 ADD PUSH1 0x40 MSTORE DUP1 PUSH1 0x8 DUP2 MSTORE PUSH1 0x20 ADD PUSH32 0x5265676973746572000000000000000000000000000000000000000000000000 DUP2 MSTORE POP PUSH2 0x623 DUP2 CALLER PUSH1 0x40 MLOAD PUSH1 0x20 ADD PUSH2 0x608 SWAP3 SWAP2 SWAP1 PUSH2 0x2685 JUMP JUMPDEST PUSH1 0x40 MLOAD PUSH1 0x20 DUP2 DUP4 SUB SUB DUP2 MSTORE SWAP1 PUSH1 0x40 MSTORE DUP1 MLOAD SWAP1 PUSH1 0x20 ADD KECCAK256 PUSH2 0x48E JUMP JUMPDEST DUP1 PUSH2 0x660 JUMPI POP PUSH2 0x631 PUSH2 0x1562 JUMP JUMPDEST PUSH20 0xFFFFFFFFFFFFFFFFFFFFFFFFFFFFFFFFFFFFFFFF AND CALLER PUSH20 0xFFFFFFFFFFFFFFFFFFFFFFFFFFFFFFFFFFFFFFFF AND EQ JUMPDEST PUSH2 0x69F JUMPI PUSH1 0x40 MLOAD PUSH32 0x8C379A000000000000000000000000000000000000000000000000000000000 DUP2 MSTORE PUSH1 0x4 ADD PUSH2 0x696 SWAP1 PUSH2 0x271F JUMP JUMPDEST PUSH1 0x40 MLOAD DUP1 SWAP2 SUB SWAP1 REVERT JUMPDEST DUP2 PUSH1 0x0 DUP5 PUSH1 0x40 MLOAD PUSH2 0x6B0 SWAP2 SWAP1 PUSH2 0x273F JUMP JUMPDEST SWAP1 DUP2 MSTORE PUSH1 0x20 ADD PUSH1 0x40 MLOAD DUP1 SWAP2 SUB SWAP1 KECCAK256 PUSH1 0x0 PUSH2 0x100 EXP DUP2 SLOAD DUP2 PUSH20 0xFFFFFFFFFFFFFFFFFFFFFFFFFFFFFFFFFFFFFFFF MUL NOT AND SWAP1 DUP4 PUSH20 0xFFFFFFFFFFFFFFFFFFFFFFFFFFFFFFFFFFFFFFFF AND MUL OR SWAP1 SSTORE POP DUP2 PUSH20 0xFFFFFFFFFFFFFFFFFFFFFFFFFFFFFFFFFFFFFFFF AND DUP4 PUSH1 0x40 MLOAD PUSH2 0x721 SWAP2 SWAP1 PUSH2 0x273F JUMP JUMPDEST PUSH1 0x40 MLOAD DUP1 SWAP2 SUB SWAP1 KECCAK256 PUSH32 0x6FB008B895310DFCBCAED190964BECC148C6708E055F4804E03AEF85C6B3068E PUSH1 0x40 MLOAD PUSH1 0x40 MLOAD DUP1 SWAP2 SUB SWAP1 LOG3 POP POP POP JUMP JUMPDEST PUSH1 0x40 MLOAD DUP1 PUSH1 0x40 ADD PUSH1 0x40 MSTORE DUP1 PUSH1 0x8 DUP2 MSTORE PUSH1 0x20 ADD PUSH32 0x5265676973746572000000000000000000000000000000000000000000000000 DUP2 MSTORE POP PUSH2 0x7C1 DUP2 CALLER PUSH1 0x40 MLOAD PUSH1 0x20 ADD PUSH2 0x7A6 SWAP3 SWAP2 SWAP1 PUSH2 0x2685 JUMP JUMPDEST PUSH1 0x40 MLOAD PUSH1 0x20 DUP2 DUP4 SUB SUB DUP2 MSTORE SWAP1 PUSH1 0x40 MSTORE DUP1 MLOAD SWAP1 PUSH1 0x20 ADD KECCAK256 PUSH2 0x48E JUMP JUMPDEST DUP1 PUSH2 0x7FE JUMPI POP PUSH2 0x7CF PUSH2 0x1562 JUMP JUMPDEST PUSH20 0xFFFFFFFFFFFFFFFFFFFFFFFFFFFFFFFFFFFFFFFF AND CALLER PUSH20 0xFFFFFFFFFFFFFFFFFFFFFFFFFFFFFFFFFFFFFFFF AND EQ JUMPDEST PUSH2 0x83D JUMPI PUSH1 0x40 MLOAD PUSH32 0x8C379A000000000000000000000000000000000000000000000000000000000 DUP2 MSTORE PUSH1 0x4 ADD PUSH2 0x834 SWAP1 PUSH2 0x271F JUMP JUMPDEST PUSH1 0x40 MLOAD DUP1 SWAP2 SUB SWAP1 REVERT JUMPDEST DUP2 PUSH1 0x1 PUSH1 0x0 DUP7 PUSH20 0xFFFFFFFFFFFFFFFFFFFFFFFFFFFFFFFFFFFFFFFF AND PUSH20 0xFFFFFFFFFFFFFFFFFFFFFFFFFFFFFFFFFFFFFFFF AND DUP2 MSTORE PUSH1 0x20 ADD SWAP1 DUP2 MSTORE PUSH1 0x20 ADD PUSH1 0x0 KECCAK256 PUSH1 0x0 DUP6 DUP2 MSTORE PUSH1 0x20 ADD SWAP1 DUP2 MSTORE PUSH1 0x20 ADD PUSH1 0x0 KECCAK256 PUSH1 0x0 PUSH2 0x100 EXP DUP2 SLOAD DUP2 PUSH1 0xFF MUL NOT AND SWAP1 DUP4 ISZERO ISZERO MUL OR SWAP1 SSTORE POP DUP4 PUSH20 0xFFFFFFFFFFFFFFFFFFFFFFFFFFFFFFFFFFFFFFFF AND PUSH32 0xDA416AAD79DDD33A5C591CF3D102D83930967D67A998FF5735CA156C885C426 DUP5 DUP5 PUSH1 0x40 MLOAD PUSH2 0x8ED SWAP3 SWAP2 SWAP1 PUSH2 0x2756 JUMP JUMPDEST PUSH1 0x40 MLOAD DUP1 SWAP2 SUB SWAP1 LOG2 POP POP POP POP JUMP JUMPDEST PUSH1 0x40 MLOAD DUP1 PUSH1 0x40 ADD PUSH1 0x40 MSTORE DUP1 PUSH1 0x8 DUP2 MSTORE PUSH1 0x20 ADD PUSH32 0x5265676973746572000000000000000000000000000000000000000000000000 DUP2 MSTORE POP PUSH2 0x962 DUP2 CALLER PUSH1 0x40 MLOAD PUSH1 0x20 ADD PUSH2 0x947 SWAP3 SWAP2 SWAP1 PUSH2 0x2685 JUMP JUMPDEST PUSH1 0x40 MLOAD PUSH1 0x20 DUP2 DUP4 SUB SUB DUP2 MSTORE SWAP1 PUSH1 0x40 MSTORE DUP1 MLOAD SWAP1 PUSH1 0x20 ADD KECCAK256 PUSH2 0x48E JUMP JUMPDEST DUP1 PUSH2 0x99F JUMPI POP PUSH2 0x970 PUSH2 0x1562 JUMP JUMPDEST PUSH20 0xFFFFFFFFFFFFFFFFFFFFFFFFFFFFFFFFFFFFFFFF AND CALLER PUSH20 0xFFFFFFFFFFFFFFFFFFFFFFFFFFFFFFFFFFFFFFFF AND EQ JUMPDEST PUSH2 0x9DE JUMPI PUSH1 0x40 MLOAD PUSH32 0x8C379A000000000000000000000000000000000000000000000000000000000 DUP2 MSTORE PUSH1 0x4 ADD PUSH2 0x9D5 SWAP1 PUSH2 0x271F JUMP JUMPDEST PUSH1 0x40 MLOAD DUP1 SWAP2 SUB SWAP1 REVERT JUMPDEST DUP2 PUSH1 0x4 PUSH1 0x0 DUP7 PUSH20 0xFFFFFFFFFFFFFFFFFFFFFFFFFFFFFFFFFFFFFFFF AND PUSH20 0xFFFFFFFFFFFFFFFFFFFFFFFFFFFFFFFFFFFFFFFF AND DUP2 MSTORE PUSH1 0x20 ADD SWAP1 DUP2 MSTORE PUSH1 0x20 ADD PUSH1 0x0 KECCAK256 PUSH1 0x0 DUP6 DUP2 MSTORE PUSH1 0x20 ADD SWAP1 DUP2 MSTORE PUSH1 0x20 ADD PUSH1 0x0 KECCAK256 PUSH1 0x0 PUSH2 0x100 EXP DUP2 SLOAD DUP2 PUSH20 0xFFFFFFFFFFFFFFFFFFFFFFFFFFFFFFFFFFFFFFFF MUL NOT AND SWAP1 DUP4 PUSH20 0xFFFFFFFFFFFFFFFFFFFFFFFFFFFFFFFFFFFFFFFF AND MUL OR SWAP1 SSTORE POP DUP4 PUSH20 0xFFFFFFFFFFFFFFFFFFFFFFFFFFFFFFFFFFFFFFFF AND PUSH32 0x573853381A0D81243E8EB6A2D2902699E0732A401900FE6C7B39CB68EEA2A7E9 DUP5 DUP5 PUSH1 0x40 MLOAD PUSH2 0xAB5 SWAP3 SWAP2 SWAP1 PUSH2 0x277F JUMP JUMPDEST PUSH1 0x40 MLOAD DUP1 SWAP2 SUB SWAP1 LOG2 POP POP POP POP JUMP JUMPDEST PUSH1 0x60 PUSH1 0x0 DUP1 PUSH2 0xAD0 PUSH2 0x1562 JUMP JUMPDEST PUSH20 0xFFFFFFFFFFFFFFFFFFFFFFFFFFFFFFFFFFFFFFFF AND DUP5 PUSH1 0x40 MLOAD PUSH1 0x24 ADD PUSH2 0xAF7 SWAP2 SWAP1 PUSH2 0x2551 JUMP JUMPDEST PUSH1 0x40 MLOAD PUSH1 0x20 DUP2 DUP4 SUB SUB DUP2 MSTORE SWAP1 PUSH1 0x40 MSTORE PUSH32 0x3848207A00000000000000000000000000000000000000000000000000000000 PUSH28 0xFFFFFFFFFFFFFFFFFFFFFFFFFFFFFFFFFFFFFFFFFFFFFFFFFFFFFFFF NOT AND PUSH1 0x20 DUP3 ADD DUP1 MLOAD PUSH28 0xFFFFFFFFFFFFFFFFFFFFFFFFFFFFFFFFFFFFFFFFFFFFFFFFFFFFFFFF DUP4 DUP2 DUP4 AND OR DUP4 MSTORE POP POP POP POP PUSH1 0x40 MLOAD PUSH2 0xB81 SWAP2 SWAP1 PUSH2 0x25A8 JUMP JUMPDEST PUSH1 0x0 PUSH1 0x40 MLOAD DUP1 DUP4 SUB DUP2 DUP6 GAS STATICCALL SWAP2 POP POP RETURNDATASIZE DUP1 PUSH1 0x0 DUP2 EQ PUSH2 0xBBC JUMPI PUSH1 0x40 MLOAD SWAP2 POP PUSH1 0x1F NOT PUSH1 0x3F RETURNDATASIZE ADD AND DUP3 ADD PUSH1 0x40 MSTORE RETURNDATASIZE DUP3 MSTORE RETURNDATASIZE PUSH1 0x0 PUSH1 0x20 DUP5 ADD RETURNDATACOPY PUSH2 0xBC1 JUMP JUMPDEST PUSH1 0x60 SWAP2 POP JUMPDEST POP SWAP2 POP SWAP2 POP DUP2 ISZERO PUSH2 0xBE9 JUMPI DUP1 DUP1 PUSH1 0x20 ADD SWAP1 MLOAD DUP2 ADD SWAP1 PUSH2 0xBE0 SWAP2 SWAP1 PUSH2 0x2818 JUMP JUMPDEST SWAP3 POP POP POP PUSH2 0xBEC JUMP JUMPDEST POP POP JUMPDEST SWAP2 SWAP1 POP JUMP JUMPDEST PUSH1 0x40 MLOAD DUP1 PUSH1 0x40 ADD PUSH1 0x40 MSTORE DUP1 PUSH1 0x8 DUP2 MSTORE PUSH1 0x20 ADD PUSH32 0x5265676973746572000000000000000000000000000000000000000000000000 DUP2 MSTORE POP PUSH2 0xC58 DUP2 CALLER PUSH1 0x40 MLOAD PUSH1 0x20 ADD PUSH2 0xC3D SWAP3 SWAP2 SWAP1 PUSH2 0x2685 JUMP JUMPDEST PUSH1 0x40 MLOAD PUSH1 0x20 DUP2 DUP4 SUB SUB DUP2 MSTORE SWAP1 PUSH1 0x40 MSTORE DUP1 MLOAD SWAP1 PUSH1 0x20 ADD KECCAK256 PUSH2 0x48E JUMP JUMPDEST DUP1 PUSH2 0xC95 JUMPI POP PUSH2 0xC66 PUSH2 0x1562 JUMP JUMPDEST PUSH20 0xFFFFFFFFFFFFFFFFFFFFFFFFFFFFFFFFFFFFFFFF AND CALLER PUSH20 0xFFFFFFFFFFFFFFFFFFFFFFFFFFFFFFFFFFFFFFFF AND EQ JUMPDEST PUSH2 0xCD4 JUMPI PUSH1 0x40 MLOAD PUSH32 0x8C379A000000000000000000000000000000000000000000000000000000000 DUP2 MSTORE PUSH1 0x4 ADD PUSH2 0xCCB SWAP1 PUSH2 0x271F JUMP JUMPDEST PUSH1 0x40 MLOAD DUP1 SWAP2 SUB SWAP1 REVERT JUMPDEST DUP2 PUSH1 0x3 PUSH1 0x0 DUP7 PUSH20 0xFFFFFFFFFFFFFFFFFFFFFFFFFFFFFFFFFFFFFFFF AND PUSH20 0xFFFFFFFFFFFFFFFFFFFFFFFFFFFFFFFFFFFFFFFF AND DUP2 MSTORE PUSH1 0x20 ADD SWAP1 DUP2 MSTORE PUSH1 0x20 ADD PUSH1 0x0 KECCAK256 PUSH1 0x0 DUP6 DUP2 MSTORE PUSH1 0x20 ADD SWAP1 DUP2 MSTORE PUSH1 0x20 ADD PUSH1 0x0 KECCAK256 DUP2 SWAP1 SSTORE POP DUP4 PUSH20 0xFFFFFFFFFFFFFFFFFFFFFFFFFFFFFFFFFFFFFFFF AND PUSH32 0x1C8170CE404C9BC175D3E41DC77E0E0A46AF30BA23D2CC14AA9D1A2E264B86C5 DUP5 DUP5 PUSH1 0x40 MLOAD PUSH2 0xD71 SWAP3 SWAP2 SWAP1 PUSH2 0x2861 JUMP JUMPDEST PUSH1 0x40 MLOAD DUP1 SWAP2 SUB SWAP1 LOG2 POP POP POP POP JUMP JUMPDEST PUSH1 0x40 MLOAD DUP1 PUSH1 0x40 ADD PUSH1 0x40 MSTORE DUP1 PUSH1 0x8 DUP2 MSTORE PUSH1 0x20 ADD PUSH32 0x5265676973746572000000000000000000000000000000000000000000000000 DUP2 MSTORE POP PUSH2 0xDE6 DUP2 CALLER PUSH1 0x40 MLOAD PUSH1 0x20 ADD PUSH2 0xDCB SWAP3 SWAP2 SWAP1 PUSH2 0x2685 JUMP JUMPDEST PUSH1 0x40 MLOAD PUSH1 0x20 DUP2 DUP4 SUB SUB DUP2 MSTORE SWAP1 PUSH1 0x40 MSTORE DUP1 MLOAD SWAP1 PUSH1 0x20 ADD KECCAK256 PUSH2 0x48E JUMP JUMPDEST DUP1 PUSH2 0xE23 JUMPI POP PUSH2 0xDF4 PUSH2 0x1562 JUMP JUMPDEST PUSH20 0xFFFFFFFFFFFFFFFFFFFFFFFFFFFFFFFFFFFFFFFF AND CALLER PUSH20 0xFFFFFFFFFFFFFFFFFFFFFFFFFFFFFFFFFFFFFFFF AND EQ JUMPDEST PUSH2 0xE62 JUMPI PUSH1 0x40 MLOAD PUSH32 0x8C379A000000000000000000000000000000000000000000000000000000000 DUP2 MSTORE PUSH1 0x4 ADD PUSH2 0xE59 SWAP1 PUSH2 0x271F JUMP JUMPDEST PUSH1 0x40 MLOAD DUP1 SWAP2 SUB SWAP1 REVERT JUMPDEST DUP2 PUSH1 0x6 PUSH1 0x0 DUP7 PUSH20 0xFFFFFFFFFFFFFFFFFFFFFFFFFFFFFFFFFFFFFFFF AND PUSH20 0xFFFFFFFFFFFFFFFFFFFFFFFFFFFFFFFFFFFFFFFF AND DUP2 MSTORE PUSH1 0x20 ADD SWAP1 DUP2 MSTORE PUSH1 0x20 ADD PUSH1 0x0 KECCAK256 PUSH1 0x0 DUP6 DUP2 MSTORE PUSH1 0x20 ADD SWAP1 DUP2 MSTORE PUSH1 0x20 ADD PUSH1 0x0 KECCAK256 SWAP1 DUP1 MLOAD SWAP1 PUSH1 0x20 ADD SWAP1 PUSH2 0xEC6 SWAP3 SWAP2 SWAP1 PUSH2 0x1BE1 JUMP JUMPDEST POP DUP4 PUSH20 0xFFFFFFFFFFFFFFFFFFFFFFFFFFFFFFFFFFFFFFFF AND PUSH32 0x8757BF534C5976FFD520C520CCB22976F1E10FF8B756AA1F5FD940819961B596 DUP5 DUP5 PUSH1 0x40 MLOAD PUSH2 0xF0F SWAP3 SWAP2 SWAP1 PUSH2 0x288A JUMP JUMPDEST PUSH1 0x40 MLOAD DUP1 SWAP2 SUB SWAP1 LOG2 POP POP POP POP JUMP JUMPDEST PUSH1 0x0 DUP1 DUP3 PUSH1 0x40 MLOAD PUSH2 0xF2E SWAP2 SWAP1 PUSH2 0x273F JUMP JUMPDEST SWAP1 DUP2 MSTORE PUSH1 0x20 ADD PUSH1 0x40 MLOAD DUP1 SWAP2 SUB SWAP1 KECCAK256 PUSH1 0x0 SWAP1 SLOAD SWAP1 PUSH2 0x100 EXP SWAP1 DIV PUSH20 0xFFFFFFFFFFFFFFFFFFFFFFFFFFFFFFFFFFFFFFFF AND SWAP1 POP SWAP2 SWAP1 POP JUMP JUMPDEST PUSH1 0x0 DUP1 PUSH1 0x0 PUSH2 0xF71 PUSH2 0x1562 JUMP JUMPDEST PUSH20 0xFFFFFFFFFFFFFFFFFFFFFFFFFFFFFFFFFFFFFFFF AND DUP5 PUSH1 0x40 MLOAD PUSH1 0x24 ADD PUSH2 0xF98 SWAP2 SWAP1 PUSH2 0x2551 JUMP JUMPDEST PUSH1 0x40 MLOAD PUSH1 0x20 DUP2 DUP4 SUB SUB DUP2 MSTORE SWAP1 PUSH1 0x40 MSTORE PUSH32 0x21F8A72100000000000000000000000000000000000000000000000000000000 PUSH28 0xFFFFFFFFFFFFFFFFFFFFFFFFFFFFFFFFFFFFFFFFFFFFFFFFFFFFFFFF NOT AND PUSH1 0x20 DUP3 ADD DUP1 MLOAD PUSH28 0xFFFFFFFFFFFFFFFFFFFFFFFFFFFFFFFFFFFFFFFFFFFFFFFFFFFFFFFF DUP4 DUP2 DUP4 AND OR DUP4 MSTORE POP POP POP POP PUSH1 0x40 MLOAD PUSH2 0x1022 SWAP2 SWAP1 PUSH2 0x25A8 JUMP JUMPDEST PUSH1 0x0 PUSH1 0x40 MLOAD DUP1 DUP4 SUB DUP2 DUP6 GAS STATICCALL SWAP2 POP POP RETURNDATASIZE DUP1 PUSH1 0x0 DUP2 EQ PUSH2 0x105D JUMPI PUSH1 0x40 MLOAD SWAP2 POP PUSH1 0x1F NOT PUSH1 0x3F RETURNDATASIZE ADD AND DUP3 ADD PUSH1 0x40 MSTORE RETURNDATASIZE DUP3 MSTORE RETURNDATASIZE PUSH1 0x0 PUSH1 0x20 DUP5 ADD RETURNDATACOPY PUSH2 0x1062 JUMP JUMPDEST PUSH1 0x60 SWAP2 POP JUMPDEST POP SWAP2 POP SWAP2 POP DUP2 ISZERO PUSH2 0x108A JUMPI DUP1 DUP1 PUSH1 0x20 ADD SWAP1 MLOAD DUP2 ADD SWAP1 PUSH2 0x1081 SWAP2 SWAP1 PUSH2 0x28F8 JUMP JUMPDEST SWAP3 POP POP POP PUSH2 0x108D JUMP JUMPDEST POP POP JUMPDEST SWAP2 SWAP1 POP JUMP JUMPDEST PUSH1 0x60 PUSH1 0x6 PUSH1 0x0 DUP5 PUSH20 0xFFFFFFFFFFFFFFFFFFFFFFFFFFFFFFFFFFFFFFFF AND PUSH20 0xFFFFFFFFFFFFFFFFFFFFFFFFFFFFFFFFFFFFFFFF AND DUP2 MSTORE PUSH1 0x20 ADD SWAP1 DUP2 MSTORE PUSH1 0x20 ADD PUSH1 0x0 KECCAK256 PUSH1 0x0 DUP4 DUP2 MSTORE PUSH1 0x20 ADD SWAP1 DUP2 MSTORE PUSH1 0x20 ADD PUSH1 0x0 KECCAK256 DUP1 SLOAD PUSH2 0x10EF SWAP1 PUSH2 0x2954 JUMP JUMPDEST DUP1 PUSH1 0x1F ADD PUSH1 0x20 DUP1 SWAP2 DIV MUL PUSH1 0x20 ADD PUSH1 0x40 MLOAD SWAP1 DUP2 ADD PUSH1 0x40 MSTORE DUP1 SWAP3 SWAP2 SWAP1 DUP2 DUP2 MSTORE PUSH1 0x20 ADD DUP3 DUP1 SLOAD PUSH2 0x111B SWAP1 PUSH2 0x2954 JUMP JUMPDEST DUP1 ISZERO PUSH2 0x1168 JUMPI DUP1 PUSH1 0x1F LT PUSH2 0x113D JUMPI PUSH2 0x100 DUP1 DUP4 SLOAD DIV MUL DUP4 MSTORE SWAP2 PUSH1 0x20 ADD SWAP2 PUSH2 0x1168 JUMP JUMPDEST DUP3 ADD SWAP2 SWAP1 PUSH1 0x0 MSTORE PUSH1 0x20 PUSH1 0x0 KECCAK256 SWAP1 JUMPDEST DUP2 SLOAD DUP2 MSTORE SWAP1 PUSH1 0x1 ADD SWAP1 PUSH1 0x20 ADD DUP1 DUP4 GT PUSH2 0x114B JUMPI DUP3 SWAP1 SUB PUSH1 0x1F AND DUP3 ADD SWAP2 JUMPDEST POP POP POP POP POP SWAP1 POP SWAP3 SWAP2 POP POP JUMP JUMPDEST PUSH1 0x60 PUSH1 0x0 DUP1 PUSH2 0x1182 PUSH2 0x1562 JUMP JUMPDEST PUSH20 0xFFFFFFFFFFFFFFFFFFFFFFFFFFFFFFFFFFFFFFFF AND DUP5 PUSH1 0x40 MLOAD PUSH1 0x24 ADD PUSH2 0x11A9 SWAP2 SWAP1 PUSH2 0x2551 JUMP JUMPDEST PUSH1 0x40 MLOAD PUSH1 0x20 DUP2 DUP4 SUB SUB DUP2 MSTORE SWAP1 PUSH1 0x40 MSTORE PUSH32 0x986E791A00000000000000000000000000000000000000000000000000000000 PUSH28 0xFFFFFFFFFFFFFFFFFFFFFFFFFFFFFFFFFFFFFFFFFFFFFFFFFFFFFFFF NOT AND PUSH1 0x20 DUP3 ADD DUP1 MLOAD PUSH28 0xFFFFFFFFFFFFFFFFFFFFFFFFFFFFFFFFFFFFFFFFFFFFFFFFFFFFFFFF DUP4 DUP2 DUP4 AND OR DUP4 MSTORE POP POP POP POP PUSH1 0x40 MLOAD PUSH2 0x1233 SWAP2 SWAP1 PUSH2 0x25A8 JUMP JUMPDEST PUSH1 0x0 PUSH1 0x40 MLOAD DUP1 DUP4 SUB DUP2 DUP6 GAS STATICCALL SWAP2 POP POP RETURNDATASIZE DUP1 PUSH1 0x0 DUP2 EQ PUSH2 0x126E JUMPI PUSH1 0x40 MLOAD SWAP2 POP PUSH1 0x1F NOT PUSH1 0x3F RETURNDATASIZE ADD AND DUP3 ADD PUSH1 0x40 MSTORE RETURNDATASIZE DUP3 MSTORE RETURNDATASIZE PUSH1 0x0 PUSH1 0x20 DUP5 ADD RETURNDATACOPY PUSH2 0x1273 JUMP JUMPDEST PUSH1 0x60 SWAP2 POP JUMPDEST POP SWAP2 POP SWAP2 POP DUP2 ISZERO PUSH2 0x129B JUMPI DUP1 DUP1 PUSH1 0x20 ADD SWAP1 MLOAD DUP2 ADD SWAP1 PUSH2 0x1292 SWAP2 SWAP1 PUSH2 0x29F6 JUMP JUMPDEST SWAP3 POP POP POP PUSH2 0x129E JUMP JUMPDEST POP POP JUMPDEST SWAP2 SWAP1 POP JUMP JUMPDEST PUSH1 0x0 PUSH1 0x2 PUSH1 0x0 DUP5 PUSH20 0xFFFFFFFFFFFFFFFFFFFFFFFFFFFFFFFFFFFFFFFF AND PUSH20 0xFFFFFFFFFFFFFFFFFFFFFFFFFFFFFFFFFFFFFFFF AND DUP2 MSTORE PUSH1 0x20 ADD SWAP1 DUP2 MSTORE PUSH1 0x20 ADD PUSH1 0x0 KECCAK256 PUSH1 0x0 DUP4 DUP2 MSTORE PUSH1 0x20 ADD SWAP1 DUP2 MSTORE PUSH1 0x20 ADD PUSH1 0x0 KECCAK256 SLOAD SWAP1 POP SWAP3 SWAP2 POP POP JUMP JUMPDEST PUSH1 0x0 PUSH1 0x4 PUSH1 0x0 DUP5 PUSH20 0xFFFFFFFFFFFFFFFFFFFFFFFFFFFFFFFFFFFFFFFF AND PUSH20 0xFFFFFFFFFFFFFFFFFFFFFFFFFFFFFFFFFFFFFFFF AND DUP2 MSTORE PUSH1 0x20 ADD SWAP1 DUP2 MSTORE PUSH1 0x20 ADD PUSH1 0x0 KECCAK256 PUSH1 0x0 DUP4 DUP2 MSTORE PUSH1 0x20 ADD SWAP1 DUP2 MSTORE PUSH1 0x20 ADD PUSH1 0x0 KECCAK256 PUSH1 0x0 SWAP1 SLOAD SWAP1 PUSH2 0x100 EXP SWAP1 DIV PUSH20 0xFFFFFFFFFFFFFFFFFFFFFFFFFFFFFFFFFFFFFFFF AND SWAP1 POP SWAP3 SWAP2 POP POP JUMP JUMPDEST PUSH1 0x40 MLOAD DUP1 PUSH1 0x40 ADD PUSH1 0x40 MSTORE DUP1 PUSH1 0x8 DUP2 MSTORE PUSH1 0x20 ADD PUSH32 0x5265676973746572000000000000000000000000000000000000000000000000 DUP2 MSTORE POP PUSH2 0x13E0 DUP2 CALLER PUSH1 0x40 MLOAD PUSH1 0x20 ADD PUSH2 0x13C5 SWAP3 SWAP2 SWAP1 PUSH2 0x2685 JUMP JUMPDEST PUSH1 0x40 MLOAD PUSH1 0x20 DUP2 DUP4 SUB SUB DUP2 MSTORE SWAP1 PUSH1 0x40 MSTORE DUP1 MLOAD SWAP1 PUSH1 0x20 ADD KECCAK256 PUSH2 0x48E JUMP JUMPDEST DUP1 PUSH2 0x141D JUMPI POP PUSH2 0x13EE PUSH2 0x1562 JUMP JUMPDEST PUSH20 0xFFFFFFFFFFFFFFFFFFFFFFFFFFFFFFFFFFFFFFFF AND CALLER PUSH20 0xFFFFFFFFFFFFFFFFFFFFFFFFFFFFFFFFFFFFFFFF AND EQ JUMPDEST PUSH2 0x145C JUMPI PUSH1 0x40 MLOAD PUSH32 0x8C379A000000000000000000000000000000000000000000000000000000000 DUP2 MSTORE PUSH1 0x4 ADD PUSH2 0x1453 SWAP1 PUSH2 0x271F JUMP JUMPDEST PUSH1 0x40 MLOAD DUP1 SWAP2 SUB SWAP1 REVERT JUMPDEST DUP2 PUSH1 0x2 PUSH1 0x0 DUP7 PUSH20 0xFFFFFFFFFFFFFFFFFFFFFFFFFFFFFFFFFFFFFFFF AND PUSH20 0xFFFFFFFFFFFFFFFFFFFFFFFFFFFFFFFFFFFFFFFF AND DUP2 MSTORE PUSH1 0x20 ADD SWAP1 DUP2 MSTORE PUSH1 0x20 ADD PUSH1 0x0 KECCAK256 PUSH1 0x0 DUP6 DUP2 MSTORE PUSH1 0x20 ADD SWAP1 DUP2 MSTORE PUSH1 0x20 ADD PUSH1 0x0 KECCAK256 DUP2 SWAP1 SSTORE POP DUP4 PUSH20 0xFFFFFFFFFFFFFFFFFFFFFFFFFFFFFFFFFFFFFFFF AND PUSH32 0x1809B9804909420967DC276B4430EC515B7AFFC197959B4AD1CEDBDEAB30E422 DUP5 DUP5 PUSH1 0x40 MLOAD PUSH2 0x14F9 SWAP3 SWAP2 SWAP1 PUSH2 0x2A3F JUMP JUMPDEST PUSH1 0x40 MLOAD DUP1 SWAP2 SUB SWAP1 LOG2 POP POP POP POP JUMP JUMPDEST PUSH1 0x0 PUSH1 0x3 PUSH1 0x0 DUP5 PUSH20 0xFFFFFFFFFFFFFFFFFFFFFFFFFFFFFFFFFFFFFFFF AND PUSH20 0xFFFFFFFFFFFFFFFFFFFFFFFFFFFFFFFFFFFFFFFF AND DUP2 MSTORE PUSH1 0x20 ADD SWAP1 DUP2 MSTORE PUSH1 0x20 ADD PUSH1 0x0 KECCAK256 PUSH1 0x0 DUP4 DUP2 MSTORE PUSH1 0x20 ADD SWAP1 DUP2 MSTORE PUSH1 0x20 ADD PUSH1 0x0 KECCAK256 SLOAD SWAP1 POP SWAP3 SWAP2 POP POP JUMP JUMPDEST PUSH1 0x0 DUP1 PUSH1 0x0 PUSH32 0x0 PUSH20 0xFFFFFFFFFFFFFFFFFFFFFFFFFFFFFFFFFFFFFFFF AND PUSH1 0x40 MLOAD PUSH1 0x24 ADD PUSH1 0x40 MLOAD PUSH1 0x20 DUP2 DUP4 SUB SUB DUP2 MSTORE SWAP1 PUSH1 0x40 MSTORE PUSH32 0x98FABD3A00000000000000000000000000000000000000000000000000000000 PUSH28 0xFFFFFFFFFFFFFFFFFFFFFFFFFFFFFFFFFFFFFFFFFFFFFFFFFFFFFFFF NOT AND PUSH1 0x20 DUP3 ADD DUP1 MLOAD PUSH28 0xFFFFFFFFFFFFFFFFFFFFFFFFFFFFFFFFFFFFFFFFFFFFFFFFFFFFFFFF DUP4 DUP2 DUP4 AND OR DUP4 MSTORE POP POP POP POP PUSH1 0x40 MLOAD PUSH2 0x162E SWAP2 SWAP1 PUSH2 0x25A8 JUMP JUMPDEST PUSH1 0x0 PUSH1 0x40 MLOAD DUP1 DUP4 SUB DUP2 DUP6 GAS STATICCALL SWAP2 POP POP RETURNDATASIZE DUP1 PUSH1 0x0 DUP2 EQ PUSH2 0x1669 JUMPI PUSH1 0x40 MLOAD SWAP2 POP PUSH1 0x1F NOT PUSH1 0x3F RETURNDATASIZE ADD AND DUP3 ADD PUSH1 0x40 MSTORE RETURNDATASIZE DUP3 MSTORE RETURNDATASIZE PUSH1 0x0 PUSH1 0x20 DUP5 ADD RETURNDATACOPY PUSH2 0x166E JUMP JUMPDEST PUSH1 0x60 SWAP2 POP JUMPDEST POP SWAP2 POP SWAP2 POP DUP2 ISZERO PUSH2 0x1696 JUMPI DUP1 DUP1 PUSH1 0x20 ADD SWAP1 MLOAD DUP2 ADD SWAP1 PUSH2 0x168D SWAP2 SWAP1 PUSH2 0x28F8 JUMP JUMPDEST SWAP3 POP POP POP PUSH2 0x1699 JUMP JUMPDEST POP POP JUMPDEST SWAP1 JUMP JUMPDEST PUSH1 0x0 PUSH1 0x1 PUSH1 0x0 DUP5 PUSH20 0xFFFFFFFFFFFFFFFFFFFFFFFFFFFFFFFFFFFFFFFF AND PUSH20 0xFFFFFFFFFFFFFFFFFFFFFFFFFFFFFFFFFFFFFFFF AND DUP2 MSTORE PUSH1 0x20 ADD SWAP1 DUP2 MSTORE PUSH1 0x20 ADD PUSH1 0x0 KECCAK256 PUSH1 0x0 DUP4 DUP2 MSTORE PUSH1 0x20 ADD SWAP1 DUP2 MSTORE PUSH1 0x20 ADD PUSH1 0x0 KECCAK256 PUSH1 0x0 SWAP1 SLOAD SWAP1 PUSH2 0x100 EXP SWAP1 DIV PUSH1 0xFF AND SWAP1 POP SWAP3 SWAP2 POP POP JUMP JUMPDEST PUSH1 0x40 MLOAD DUP1 PUSH1 0x40 ADD PUSH1 0x40 MSTORE DUP1 PUSH1 0x8 DUP2 MSTORE PUSH1 0x20 ADD PUSH32 0x5265676973746572000000000000000000000000000000000000000000000000 DUP2 MSTORE POP PUSH2 0x176B DUP2 CALLER PUSH1 0x40 MLOAD PUSH1 0x20 ADD PUSH2 0x1750 SWAP3 SWAP2 SWAP1 PUSH2 0x2685 JUMP JUMPDEST PUSH1 0x40 MLOAD PUSH1 0x20 DUP2 DUP4 SUB SUB DUP2 MSTORE SWAP1 PUSH1 0x40 MSTORE DUP1 MLOAD SWAP1 PUSH1 0x20 ADD KECCAK256 PUSH2 0x48E JUMP JUMPDEST DUP1 PUSH2 0x17A8 JUMPI POP PUSH2 0x1779 PUSH2 0x1562 JUMP JUMPDEST PUSH20 0xFFFFFFFFFFFFFFFFFFFFFFFFFFFFFFFFFFFFFFFF AND CALLER PUSH20 0xFFFFFFFFFFFFFFFFFFFFFFFFFFFFFFFFFFFFFFFF AND EQ JUMPDEST PUSH2 0x17E7 JUMPI PUSH1 0x40 MLOAD PUSH32 0x8C379A000000000000000000000000000000000000000000000000000000000 DUP2 MSTORE PUSH1 0x4 ADD PUSH2 0x17DE SWAP1 PUSH2 0x271F JUMP JUMPDEST PUSH1 0x40 MLOAD DUP1 SWAP2 SUB SWAP1 REVERT JUMPDEST DUP2 PUSH1 0x5 PUSH1 0x0 DUP7 PUSH20 0xFFFFFFFFFFFFFFFFFFFFFFFFFFFFFFFFFFFFFFFF AND PUSH20 0xFFFFFFFFFFFFFFFFFFFFFFFFFFFFFFFFFFFFFFFF AND DUP2 MSTORE PUSH1 0x20 ADD SWAP1 DUP2 MSTORE PUSH1 0x20 ADD PUSH1 0x0 KECCAK256 PUSH1 0x0 DUP6 DUP2 MSTORE PUSH1 0x20 ADD SWAP1 DUP2 MSTORE PUSH1 0x20 ADD PUSH1 0x0 KECCAK256 SWAP1 DUP1 MLOAD SWAP1 PUSH1 0x20 ADD SWAP1 PUSH2 0x184B SWAP3 SWAP2 SWAP1 PUSH2 0x1C67 JUMP JUMPDEST POP DUP4 PUSH20 0xFFFFFFFFFFFFFFFFFFFFFFFFFFFFFFFFFFFFFFFF AND PUSH32 0x15E94A5F8355A865D59C3AFF99DE7B23DC160756EC53698DF8A1875608008497 DUP5 DUP5 PUSH1 0x40 MLOAD PUSH2 0x1894 SWAP3 SWAP2 SWAP1 PUSH2 0x2A68 JUMP JUMPDEST PUSH1 0x40 MLOAD DUP1 SWAP2 SUB SWAP1 LOG2 POP POP POP POP JUMP JUMPDEST PUSH1 0x0 DUP1 PUSH1 0x0 PUSH2 0x18AF PUSH2 0x1562 JUMP JUMPDEST PUSH20 0xFFFFFFFFFFFFFFFFFFFFFFFFFFFFFFFFFFFFFFFF AND DUP5 PUSH1 0x40 MLOAD PUSH1 0x24 ADD PUSH2 0x18D6 SWAP2 SWAP1 PUSH2 0x2551 JUMP JUMPDEST PUSH1 0x40 MLOAD PUSH1 0x20 DUP2 DUP4 SUB SUB DUP2 MSTORE SWAP1 PUSH1 0x40 MSTORE PUSH32 0x33598B0000000000000000000000000000000000000000000000000000000000 PUSH28 0xFFFFFFFFFFFFFFFFFFFFFFFFFFFFFFFFFFFFFFFFFFFFFFFFFFFFFFFF NOT AND PUSH1 0x20 DUP3 ADD DUP1 MLOAD PUSH28 0xFFFFFFFFFFFFFFFFFFFFFFFFFFFFFFFFFFFFFFFFFFFFFFFFFFFFFFFF DUP4 DUP2 DUP4 AND OR DUP4 MSTORE POP POP POP POP PUSH1 0x40 MLOAD PUSH2 0x1960 SWAP2 SWAP1 PUSH2 0x25A8 JUMP JUMPDEST PUSH1 0x0 PUSH1 0x40 MLOAD DUP1 DUP4 SUB DUP2 DUP6 GAS STATICCALL SWAP2 POP POP RETURNDATASIZE DUP1 PUSH1 0x0 DUP2 EQ PUSH2 0x199B JUMPI PUSH1 0x40 MLOAD SWAP2 POP PUSH1 0x1F NOT PUSH1 0x3F RETURNDATASIZE ADD AND DUP3 ADD PUSH1 0x40 MSTORE RETURNDATASIZE DUP3 MSTORE RETURNDATASIZE PUSH1 0x0 PUSH1 0x20 DUP5 ADD RETURNDATACOPY PUSH2 0x19A0 JUMP JUMPDEST PUSH1 0x60 SWAP2 POP JUMPDEST POP SWAP2 POP SWAP2 POP DUP2 ISZERO PUSH2 0x19C8 JUMPI DUP1 DUP1 PUSH1 0x20 ADD SWAP1 MLOAD DUP2 ADD SWAP1 PUSH2 0x19BF SWAP2 SWAP1 PUSH2 0x2AAD JUMP JUMPDEST SWAP3 POP POP POP PUSH2 0x19CB JUMP JUMPDEST POP POP JUMPDEST SWAP2 SWAP1 POP JUMP JUMPDEST PUSH1 0x0 DUP1 PUSH1 0x0 PUSH2 0x19DD PUSH2 0x1562 JUMP JUMPDEST PUSH20 0xFFFFFFFFFFFFFFFFFFFFFFFFFFFFFFFFFFFFFFFF AND DUP5 PUSH1 0x40 MLOAD PUSH1 0x24 ADD PUSH2 0x1A04 SWAP2 SWAP1 PUSH2 0x2551 JUMP JUMPDEST PUSH1 0x40 MLOAD PUSH1 0x20 DUP2 DUP4 SUB SUB DUP2 MSTORE SWAP1 PUSH1 0x40 MSTORE PUSH32 0x33598B0000000000000000000000000000000000000000000000000000000000 PUSH28 0xFFFFFFFFFFFFFFFFFFFFFFFFFFFFFFFFFFFFFFFFFFFFFFFFFFFFFFFF NOT AND PUSH1 0x20 DUP3 ADD DUP1 MLOAD PUSH28 0xFFFFFFFFFFFFFFFFFFFFFFFFFFFFFFFFFFFFFFFFFFFFFFFFFFFFFFFF DUP4 DUP2 DUP4 AND OR DUP4 MSTORE POP POP POP POP PUSH1 0x40 MLOAD PUSH2 0x1A8E SWAP2 SWAP1 PUSH2 0x25A8 JUMP JUMPDEST PUSH1 0x0 PUSH1 0x40 MLOAD DUP1 DUP4 SUB DUP2 DUP6 GAS STATICCALL SWAP2 POP POP RETURNDATASIZE DUP1 PUSH1 0x0 DUP2 EQ PUSH2 0x1AC9 JUMPI PUSH1 0x40 MLOAD SWAP2 POP PUSH1 0x1F NOT PUSH1 0x3F RETURNDATASIZE ADD AND DUP3 ADD PUSH1 0x40 MSTORE RETURNDATASIZE DUP3 MSTORE RETURNDATASIZE PUSH1 0x0 PUSH1 0x20 DUP5 ADD RETURNDATACOPY PUSH2 0x1ACE JUMP JUMPDEST PUSH1 0x60 SWAP2 POP JUMPDEST POP SWAP2 POP SWAP2 POP DUP2 ISZERO PUSH2 0x1AF6 JUMPI DUP1 DUP1 PUSH1 0x20 ADD SWAP1 MLOAD DUP2 ADD SWAP1 PUSH2 0x1AED SWAP2 SWAP1 PUSH2 0x2AEF JUMP JUMPDEST SWAP3 POP POP POP PUSH2 0x1AF9 JUMP JUMPDEST POP POP JUMPDEST SWAP2 SWAP1 POP JUMP JUMPDEST PUSH1 0x60 PUSH1 0x5 PUSH1 0x0 DUP5 PUSH20 0xFFFFFFFFFFFFFFFFFFFFFFFFFFFFFFFFFFFFFFFF AND PUSH20 0xFFFFFFFFFFFFFFFFFFFFFFFFFFFFFFFFFFFFFFFF AND DUP2 MSTORE PUSH1 0x20 ADD SWAP1 DUP2 MSTORE PUSH1 0x20 ADD PUSH1 0x0 KECCAK256 PUSH1 0x0 DUP4 DUP2 MSTORE PUSH1 0x20 ADD SWAP1 DUP2 MSTORE PUSH1 0x20 ADD PUSH1 0x0 KECCAK256 DUP1 SLOAD PUSH2 0x1B5B SWAP1 PUSH2 0x2954 JUMP JUMPDEST DUP1 PUSH1 0x1F ADD PUSH1 0x20 DUP1 SWAP2 DIV MUL PUSH1 0x20 ADD PUSH1 0x40 MLOAD SWAP1 DUP2 ADD PUSH1 0x40 MSTORE DUP1 SWAP3 SWAP2 SWAP1 DUP2 DUP2 MSTORE PUSH1 0x20 ADD DUP3 DUP1 SLOAD PUSH2 0x1B87 SWAP1 PUSH2 0x2954 JUMP JUMPDEST DUP1 ISZERO PUSH2 0x1BD4 JUMPI DUP1 PUSH1 0x1F LT PUSH2 0x1BA9 JUMPI PUSH2 0x100 DUP1 DUP4 SLOAD DIV MUL DUP4 MSTORE SWAP2 PUSH1 0x20 ADD SWAP2 PUSH2 0x1BD4 JUMP JUMPDEST DUP3 ADD SWAP2 SWAP1 PUSH1 0x0 MSTORE PUSH1 0x20 PUSH1 0x0 KECCAK256 SWAP1 JUMPDEST DUP2 SLOAD DUP2 MSTORE SWAP1 PUSH1 0x1 ADD SWAP1 PUSH1 0x20 ADD DUP1 DUP4 GT PUSH2 0x1BB7 JUMPI DUP3 SWAP1 SUB PUSH1 0x1F AND DUP3 ADD SWAP2 JUMPDEST POP POP POP POP POP SWAP1 POP SWAP3 SWAP2 POP POP JUMP JUMPDEST DUP3 DUP1 SLOAD PUSH2 0x1BED SWAP1 PUSH2 0x2954 JUMP JUMPDEST SWAP1 PUSH1 0x0 MSTORE PUSH1 0x20 PUSH1 0x0 KECCAK256 SWAP1 PUSH1 0x1F ADD PUSH1 0x20 SWAP1 DIV DUP2 ADD SWAP3 DUP3 PUSH2 0x1C0F JUMPI PUSH1 0x0 DUP6 SSTORE PUSH2 0x1C56 JUMP JUMPDEST DUP3 PUSH1 0x1F LT PUSH2 0x1C28 JUMPI DUP1 MLOAD PUSH1 0xFF NOT AND DUP4 DUP1 ADD OR DUP6 SSTORE PUSH2 0x1C56 JUMP JUMPDEST DUP3 DUP1 ADD PUSH1 0x1 ADD DUP6 SSTORE DUP3 ISZERO PUSH2 0x1C56 JUMPI SWAP2 DUP3 ADD JUMPDEST DUP3 DUP2 GT ISZERO PUSH2 0x1C55 JUMPI DUP3 MLOAD DUP3 SSTORE SWAP2 PUSH1 0x20 ADD SWAP2 SWAP1 PUSH1 0x1 ADD SWAP1 PUSH2 0x1C3A JUMP JUMPDEST JUMPDEST POP SWAP1 POP PUSH2 0x1C63 SWAP2 SWAP1 PUSH2 0x1CED JUMP JUMPDEST POP SWAP1 JUMP JUMPDEST DUP3 DUP1 SLOAD PUSH2 0x1C73 SWAP1 PUSH2 0x2954 JUMP JUMPDEST SWAP1 PUSH1 0x0 MSTORE PUSH1 0x20 PUSH1 0x0 KECCAK256 SWAP1 PUSH1 0x1F ADD PUSH1 0x20 SWAP1 DIV DUP2 ADD SWAP3 DUP3 PUSH2 0x1C95 JUMPI PUSH1 0x0 DUP6 SSTORE PUSH2 0x1CDC JUMP JUMPDEST DUP3 PUSH1 0x1F LT PUSH2 0x1CAE JUMPI DUP1 MLOAD PUSH1 0xFF NOT AND DUP4 DUP1 ADD OR DUP6 SSTORE PUSH2 0x1CDC JUMP JUMPDEST DUP3 DUP1 ADD PUSH1 0x1 ADD DUP6 SSTORE DUP3 ISZERO PUSH2 0x1CDC JUMPI SWAP2 DUP3 ADD JUMPDEST DUP3 DUP2 GT ISZERO PUSH2 0x1CDB JUMPI DUP3 MLOAD DUP3 SSTORE SWAP2 PUSH1 0x20 ADD SWAP2 SWAP1 PUSH1 0x1 ADD SWAP1 PUSH2 0x1CC0 JUMP JUMPDEST JUMPDEST POP SWAP1 POP PUSH2 0x1CE9 SWAP2 SWAP1 PUSH2 0x1CED JUMP JUMPDEST POP SWAP1 JUMP JUMPDEST JUMPDEST DUP1 DUP3 GT ISZERO PUSH2 0x1D06 JUMPI PUSH1 0x0 DUP2 PUSH1 0x0 SWAP1 SSTORE POP PUSH1 0x1 ADD PUSH2 0x1CEE JUMP JUMPDEST POP SWAP1 JUMP JUMPDEST PUSH1 0x0 PUSH1 0x40 MLOAD SWAP1 POP SWAP1 JUMP JUMPDEST PUSH1 0x0 DUP1 REVERT JUMPDEST PUSH1 0x0 DUP1 REVERT JUMPDEST PUSH1 0x0 DUP2 SWAP1 POP SWAP2 SWAP1 POP JUMP JUMPDEST PUSH2 0x1D31 DUP2 PUSH2 0x1D1E JUMP JUMPDEST DUP2 EQ PUSH2 0x1D3C JUMPI PUSH1 0x0 DUP1 REVERT JUMPDEST POP JUMP JUMPDEST PUSH1 0x0 DUP2 CALLDATALOAD SWAP1 POP PUSH2 0x1D4E DUP2 PUSH2 0x1D28 JUMP JUMPDEST SWAP3 SWAP2 POP POP JUMP JUMPDEST PUSH1 0x0 PUSH1 0x20 DUP3 DUP5 SUB SLT ISZERO PUSH2 0x1D6A JUMPI PUSH2 0x1D69 PUSH2 0x1D14 JUMP JUMPDEST JUMPDEST PUSH1 0x0 PUSH2 0x1D78 DUP5 DUP3 DUP6 ADD PUSH2 0x1D3F JUMP JUMPDEST SWAP2 POP POP SWAP3 SWAP2 POP POP JUMP JUMPDEST PUSH1 0x0 DUP2 ISZERO ISZERO SWAP1 POP SWAP2 SWAP1 POP JUMP JUMPDEST PUSH2 0x1D96 DUP2 PUSH2 0x1D81 JUMP JUMPDEST DUP3 MSTORE POP POP JUMP JUMPDEST PUSH1 0x0 PUSH1 0x20 DUP3 ADD SWAP1 POP PUSH2 0x1DB1 PUSH1 0x0 DUP4 ADD DUP5 PUSH2 0x1D8D JUMP JUMPDEST SWAP3 SWAP2 POP POP JUMP JUMPDEST PUSH1 0x0 DUP1 REVERT JUMPDEST PUSH1 0x0 DUP1 REVERT JUMPDEST PUSH1 0x0 PUSH1 0x1F NOT PUSH1 0x1F DUP4 ADD AND SWAP1 POP SWAP2 SWAP1 POP JUMP JUMPDEST PUSH32 0x4E487B7100000000000000000000000000000000000000000000000000000000 PUSH1 0x0 MSTORE PUSH1 0x41 PUSH1 0x4 MSTORE PUSH1 0x24 PUSH1 0x0 REVERT JUMPDEST PUSH2 0x1E0A DUP3 PUSH2 0x1DC1 JUMP JUMPDEST DUP2 ADD DUP2 DUP2 LT PUSH8 0xFFFFFFFFFFFFFFFF DUP3 GT OR ISZERO PUSH2 0x1E29 JUMPI PUSH2 0x1E28 PUSH2 0x1DD2 JUMP JUMPDEST JUMPDEST DUP1 PUSH1 0x40 MSTORE POP POP POP JUMP JUMPDEST PUSH1 0x0 PUSH2 0x1E3C PUSH2 0x1D0A JUMP JUMPDEST SWAP1 POP PUSH2 0x1E48 DUP3 DUP3 PUSH2 0x1E01 JUMP JUMPDEST SWAP2 SWAP1 POP JUMP JUMPDEST PUSH1 0x0 PUSH8 0xFFFFFFFFFFFFFFFF DUP3 GT ISZERO PUSH2 0x1E68 JUMPI PUSH2 0x1E67 PUSH2 0x1DD2 JUMP JUMPDEST JUMPDEST PUSH2 0x1E71 DUP3 PUSH2 0x1DC1 JUMP JUMPDEST SWAP1 POP PUSH1 0x20 DUP2 ADD SWAP1 POP SWAP2 SWAP1 POP JUMP JUMPDEST DUP3 DUP2 DUP4 CALLDATACOPY PUSH1 0x0 DUP4 DUP4 ADD MSTORE POP POP POP JUMP JUMPDEST PUSH1 0x0 PUSH2 0x1EA0 PUSH2 0x1E9B DUP5 PUSH2 0x1E4D JUMP JUMPDEST PUSH2 0x1E32 JUMP JUMPDEST SWAP1 POP DUP3 DUP2 MSTORE PUSH1 0x20 DUP2 ADD DUP5 DUP5 DUP5 ADD GT ISZERO PUSH2 0x1EBC JUMPI PUSH2 0x1EBB PUSH2 0x1DBC JUMP JUMPDEST JUMPDEST PUSH2 0x1EC7 DUP5 DUP3 DUP6 PUSH2 0x1E7E JUMP JUMPDEST POP SWAP4 SWAP3 POP POP POP JUMP JUMPDEST PUSH1 0x0 DUP3 PUSH1 0x1F DUP4 ADD SLT PUSH2 0x1EE4 JUMPI PUSH2 0x1EE3 PUSH2 0x1DB7 JUMP JUMPDEST JUMPDEST DUP2 CALLDATALOAD PUSH2 0x1EF4 DUP5 DUP3 PUSH1 0x20 DUP7 ADD PUSH2 0x1E8D JUMP JUMPDEST SWAP2 POP POP SWAP3 SWAP2 POP POP JUMP JUMPDEST PUSH1 0x0 PUSH20 0xFFFFFFFFFFFFFFFFFFFFFFFFFFFFFFFFFFFFFFFF DUP3 AND SWAP1 POP SWAP2 SWAP1 POP JUMP JUMPDEST PUSH1 0x0 PUSH2 0x1F28 DUP3 PUSH2 0x1EFD JUMP JUMPDEST SWAP1 POP SWAP2 SWAP1 POP JUMP JUMPDEST PUSH2 0x1F38 DUP2 PUSH2 0x1F1D JUMP JUMPDEST DUP2 EQ PUSH2 0x1F43 JUMPI PUSH1 0x0 DUP1 REVERT JUMPDEST POP JUMP JUMPDEST PUSH1 0x0 DUP2 CALLDATALOAD SWAP1 POP PUSH2 0x1F55 DUP2 PUSH2 0x1F2F JUMP JUMPDEST SWAP3 SWAP2 POP POP JUMP JUMPDEST PUSH1 0x0 DUP1 PUSH1 0x40 DUP4 DUP6 SUB SLT ISZERO PUSH2 0x1F72 JUMPI PUSH2 0x1F71 PUSH2 0x1D14 JUMP JUMPDEST JUMPDEST PUSH1 0x0 DUP4 ADD CALLDATALOAD PUSH8 0xFFFFFFFFFFFFFFFF DUP2 GT ISZERO PUSH2 0x1F90 JUMPI PUSH2 0x1F8F PUSH2 0x1D19 JUMP JUMPDEST JUMPDEST PUSH2 0x1F9C DUP6 DUP3 DUP7 ADD PUSH2 0x1ECF JUMP JUMPDEST SWAP3 POP POP PUSH1 0x20 PUSH2 0x1FAD DUP6 DUP3 DUP7 ADD PUSH2 0x1F46 JUMP JUMPDEST SWAP2 POP POP SWAP3 POP SWAP3 SWAP1 POP JUMP JUMPDEST PUSH2 0x1FC0 DUP2 PUSH2 0x1D81 JUMP JUMPDEST DUP2 EQ PUSH2 0x1FCB JUMPI PUSH1 0x0 DUP1 REVERT JUMPDEST POP JUMP JUMPDEST PUSH1 0x0 DUP2 CALLDATALOAD SWAP1 POP PUSH2 0x1FDD DUP2 PUSH2 0x1FB7 JUMP JUMPDEST SWAP3 SWAP2 POP POP JUMP JUMPDEST PUSH1 0x0 DUP1 PUSH1 0x0 PUSH1 0x60 DUP5 DUP7 SUB SLT ISZERO PUSH2 0x1FFC JUMPI PUSH2 0x1FFB PUSH2 0x1D14 JUMP JUMPDEST JUMPDEST PUSH1 0x0 PUSH2 0x200A DUP7 DUP3 DUP8 ADD PUSH2 0x1F46 JUMP JUMPDEST SWAP4 POP POP PUSH1 0x20 PUSH2 0x201B DUP7 DUP3 DUP8 ADD PUSH2 0x1D3F JUMP JUMPDEST SWAP3 POP POP PUSH1 0x40 PUSH2 0x202C DUP7 DUP3 DUP8 ADD PUSH2 0x1FCE JUMP JUMPDEST SWAP2 POP POP SWAP3 POP SWAP3 POP SWAP3 JUMP JUMPDEST PUSH1 0x0 DUP1 PUSH1 0x0 PUSH1 0x60 DUP5 DUP7 SUB SLT ISZERO PUSH2 0x204F JUMPI PUSH2 0x204E PUSH2 0x1D14 JUMP JUMPDEST JUMPDEST PUSH1 0x0 PUSH2 0x205D DUP7 DUP3 DUP8 ADD PUSH2 0x1F46 JUMP JUMPDEST SWAP4 POP POP PUSH1 0x20 PUSH2 0x206E DUP7 DUP3 DUP8 ADD PUSH2 0x1D3F JUMP JUMPDEST SWAP3 POP POP PUSH1 0x40 PUSH2 0x207F DUP7 DUP3 DUP8 ADD PUSH2 0x1F46 JUMP JUMPDEST SWAP2 POP POP SWAP3 POP SWAP3 POP SWAP3 JUMP JUMPDEST PUSH1 0x0 DUP2 MLOAD SWAP1 POP SWAP2 SWAP1 POP JUMP JUMPDEST PUSH1 0x0 DUP3 DUP3 MSTORE PUSH1 0x20 DUP3 ADD SWAP1 POP SWAP3 SWAP2 POP POP JUMP JUMPDEST PUSH1 0x0 JUMPDEST DUP4 DUP2 LT ISZERO PUSH2 0x20C3 JUMPI DUP1 DUP3 ADD MLOAD DUP2 DUP5 ADD MSTORE PUSH1 0x20 DUP2 ADD SWAP1 POP PUSH2 0x20A8 JUMP JUMPDEST DUP4 DUP2 GT ISZERO PUSH2 0x20D2 JUMPI PUSH1 0x0 DUP5 DUP5 ADD MSTORE JUMPDEST POP POP POP POP JUMP JUMPDEST PUSH1 0x0 PUSH2 0x20E3 DUP3 PUSH2 0x2089 JUMP JUMPDEST PUSH2 0x20ED DUP2 DUP6 PUSH2 0x2094 JUMP JUMPDEST SWAP4 POP PUSH2 0x20FD DUP2 DUP6 PUSH1 0x20 DUP7 ADD PUSH2 0x20A5 JUMP JUMPDEST PUSH2 0x2106 DUP2 PUSH2 0x1DC1 JUMP JUMPDEST DUP5 ADD SWAP2 POP POP SWAP3 SWAP2 POP POP JUMP JUMPDEST PUSH1 0x0 PUSH1 0x20 DUP3 ADD SWAP1 POP DUP2 DUP2 SUB PUSH1 0x0 DUP4 ADD MSTORE PUSH2 0x212B DUP2 DUP5 PUSH2 0x20D8 JUMP JUMPDEST SWAP1 POP SWAP3 SWAP2 POP POP JUMP JUMPDEST PUSH1 0x0 DUP2 SWAP1 POP SWAP2 SWAP1 POP JUMP JUMPDEST PUSH2 0x2146 DUP2 PUSH2 0x2133 JUMP JUMPDEST DUP2 EQ PUSH2 0x2151 JUMPI PUSH1 0x0 DUP1 REVERT JUMPDEST POP JUMP JUMPDEST PUSH1 0x0 DUP2 CALLDATALOAD SWAP1 POP PUSH2 0x2163 DUP2 PUSH2 0x213D JUMP JUMPDEST SWAP3 SWAP2 POP POP JUMP JUMPDEST PUSH1 0x0 DUP1 PUSH1 0x0 PUSH1 0x60 DUP5 DUP7 SUB SLT ISZERO PUSH2 0x2182 JUMPI PUSH2 0x2181 PUSH2 0x1D14 JUMP JUMPDEST JUMPDEST PUSH1 0x0 PUSH2 0x2190 DUP7 DUP3 DUP8 ADD PUSH2 0x1F46 JUMP JUMPDEST SWAP4 POP POP PUSH1 0x20 PUSH2 0x21A1 DUP7 DUP3 DUP8 ADD PUSH2 0x1D3F JUMP JUMPDEST SWAP3 POP POP PUSH1 0x40 PUSH2 0x21B2 DUP7 DUP3 DUP8 ADD PUSH2 0x2154 JUMP JUMPDEST SWAP2 POP POP SWAP3 POP SWAP3 POP SWAP3 JUMP JUMPDEST PUSH1 0x0 PUSH8 0xFFFFFFFFFFFFFFFF DUP3 GT ISZERO PUSH2 0x21D7 JUMPI PUSH2 0x21D6 PUSH2 0x1DD2 JUMP JUMPDEST JUMPDEST PUSH2 0x21E0 DUP3 PUSH2 0x1DC1 JUMP JUMPDEST SWAP1 POP PUSH1 0x20 DUP2 ADD SWAP1 POP SWAP2 SWAP1 POP JUMP JUMPDEST PUSH1 0x0 PUSH2 0x2200 PUSH2 0x21FB DUP5 PUSH2 0x21BC JUMP JUMPDEST PUSH2 0x1E32 JUMP JUMPDEST SWAP1 POP DUP3 DUP2 MSTORE PUSH1 0x20 DUP2 ADD DUP5 DUP5 DUP5 ADD GT ISZERO PUSH2 0x221C JUMPI PUSH2 0x221B PUSH2 0x1DBC JUMP JUMPDEST JUMPDEST PUSH2 0x2227 DUP5 DUP3 DUP6 PUSH2 0x1E7E JUMP JUMPDEST POP SWAP4 SWAP3 POP POP POP JUMP JUMPDEST PUSH1 0x0 DUP3 PUSH1 0x1F DUP4 ADD SLT PUSH2 0x2244 JUMPI PUSH2 0x2243 PUSH2 0x1DB7 JUMP JUMPDEST JUMPDEST DUP2 CALLDATALOAD PUSH2 0x2254 DUP5 DUP3 PUSH1 0x20 DUP7 ADD PUSH2 0x21ED JUMP JUMPDEST SWAP2 POP POP SWAP3 SWAP2 POP POP JUMP JUMPDEST PUSH1 0x0 DUP1 PUSH1 0x0 PUSH1 0x60 DUP5 DUP7 SUB SLT ISZERO PUSH2 0x2276 JUMPI PUSH2 0x2275 PUSH2 0x1D14 JUMP JUMPDEST JUMPDEST PUSH1 0x0 PUSH2 0x2284 DUP7 DUP3 DUP8 ADD PUSH2 0x1F46 JUMP JUMPDEST SWAP4 POP POP PUSH1 0x20 PUSH2 0x2295 DUP7 DUP3 DUP8 ADD PUSH2 0x1D3F JUMP JUMPDEST SWAP3 POP POP PUSH1 0x40 DUP5 ADD CALLDATALOAD PUSH8 0xFFFFFFFFFFFFFFFF DUP2 GT ISZERO PUSH2 0x22B6 JUMPI PUSH2 0x22B5 PUSH2 0x1D19 JUMP JUMPDEST JUMPDEST PUSH2 0x22C2 DUP7 DUP3 DUP8 ADD PUSH2 0x222F JUMP JUMPDEST SWAP2 POP POP SWAP3 POP SWAP3 POP SWAP3 JUMP JUMPDEST PUSH1 0x0 PUSH1 0x20 DUP3 DUP5 SUB SLT ISZERO PUSH2 0x22E2 JUMPI PUSH2 0x22E1 PUSH2 0x1D14 JUMP JUMPDEST JUMPDEST PUSH1 0x0 DUP3 ADD CALLDATALOAD PUSH8 0xFFFFFFFFFFFFFFFF DUP2 GT ISZERO PUSH2 0x2300 JUMPI PUSH2 0x22FF PUSH2 0x1D19 JUMP JUMPDEST JUMPDEST PUSH2 0x230C DUP5 DUP3 DUP6 ADD PUSH2 0x1ECF JUMP JUMPDEST SWAP2 POP POP SWAP3 SWAP2 POP POP JUMP JUMPDEST PUSH2 0x231E DUP2 PUSH2 0x1F1D JUMP JUMPDEST DUP3 MSTORE POP POP JUMP JUMPDEST PUSH1 0x0 PUSH1 0x20 DUP3 ADD SWAP1 POP PUSH2 0x2339 PUSH1 0x0 DUP4 ADD DUP5 PUSH2 0x2315 JUMP JUMPDEST SWAP3 SWAP2 POP POP JUMP JUMPDEST PUSH1 0x0 DUP1 PUSH1 0x40 DUP4 DUP6 SUB SLT ISZERO PUSH2 0x2356 JUMPI PUSH2 0x2355 PUSH2 0x1D14 JUMP JUMPDEST JUMPDEST PUSH1 0x0 PUSH2 0x2364 DUP6 DUP3 DUP7 ADD PUSH2 0x1F46 JUMP JUMPDEST SWAP3 POP POP PUSH1 0x20 PUSH2 0x2375 DUP6 DUP3 DUP7 ADD PUSH2 0x1D3F JUMP JUMPDEST SWAP2 POP POP SWAP3 POP SWAP3 SWAP1 POP JUMP JUMPDEST PUSH1 0x0 DUP2 MLOAD SWAP1 POP SWAP2 SWAP1 POP JUMP JUMPDEST PUSH1 0x0 DUP3 DUP3 MSTORE PUSH1 0x20 DUP3 ADD SWAP1 POP SWAP3 SWAP2 POP POP JUMP JUMPDEST PUSH1 0x0 PUSH2 0x23A6 DUP3 PUSH2 0x237F JUMP JUMPDEST PUSH2 0x23B0 DUP2 DUP6 PUSH2 0x238A JUMP JUMPDEST SWAP4 POP PUSH2 0x23C0 DUP2 DUP6 PUSH1 0x20 DUP7 ADD PUSH2 0x20A5 JUMP JUMPDEST PUSH2 0x23C9 DUP2 PUSH2 0x1DC1 JUMP JUMPDEST DUP5 ADD SWAP2 POP POP SWAP3 SWAP2 POP POP JUMP JUMPDEST PUSH1 0x0 PUSH1 0x20 DUP3 ADD SWAP1 POP DUP2 DUP2 SUB PUSH1 0x0 DUP4 ADD MSTORE PUSH2 0x23EE DUP2 DUP5 PUSH2 0x239B JUMP JUMPDEST SWAP1 POP SWAP3 SWAP2 POP POP JUMP JUMPDEST PUSH1 0x0 DUP2 SWAP1 POP SWAP2 SWAP1 POP JUMP JUMPDEST PUSH2 0x2409 DUP2 PUSH2 0x23F6 JUMP JUMPDEST DUP3 MSTORE POP POP JUMP JUMPDEST PUSH1 0x0 PUSH1 0x20 DUP3 ADD SWAP1 POP PUSH2 0x2424 PUSH1 0x0 DUP4 ADD DUP5 PUSH2 0x2400 JUMP JUMPDEST SWAP3 SWAP2 POP POP JUMP JUMPDEST PUSH2 0x2433 DUP2 PUSH2 0x23F6 JUMP JUMPDEST DUP2 EQ PUSH2 0x243E JUMPI PUSH1 0x0 DUP1 REVERT JUMPDEST POP JUMP JUMPDEST PUSH1 0x0 DUP2 CALLDATALOAD SWAP1 POP PUSH2 0x2450 DUP2 PUSH2 0x242A JUMP JUMPDEST SWAP3 SWAP2 POP POP JUMP JUMPDEST PUSH1 0x0 DUP1 PUSH1 0x0 PUSH1 0x60 DUP5 DUP7 SUB SLT ISZERO PUSH2 0x246F JUMPI PUSH2 0x246E PUSH2 0x1D14 JUMP JUMPDEST JUMPDEST PUSH1 0x0 PUSH2 0x247D DUP7 DUP3 DUP8 ADD PUSH2 0x1F46 JUMP JUMPDEST SWAP4 POP POP PUSH1 0x20 PUSH2 0x248E DUP7 DUP3 DUP8 ADD PUSH2 0x1D3F JUMP JUMPDEST SWAP3 POP POP PUSH1 0x40 PUSH2 0x249F DUP7 DUP3 DUP8 ADD PUSH2 0x2441 JUMP JUMPDEST SWAP2 POP POP SWAP3 POP SWAP3 POP SWAP3 JUMP JUMPDEST PUSH2 0x24B2 DUP2 PUSH2 0x2133 JUMP JUMPDEST DUP3 MSTORE POP POP JUMP JUMPDEST PUSH1 0x0 PUSH1 0x20 DUP3 ADD SWAP1 POP PUSH2 0x24CD PUSH1 0x0 DUP4 ADD DUP5 PUSH2 0x24A9 JUMP JUMPDEST SWAP3 SWAP2 POP POP JUMP JUMPDEST PUSH1 0x0 DUP1 PUSH1 0x0 PUSH1 0x60 DUP5 DUP7 SUB SLT ISZERO PUSH2 0x24EC JUMPI PUSH2 0x24EB PUSH2 0x1D14 JUMP JUMPDEST JUMPDEST PUSH1 0x0 PUSH2 0x24FA DUP7 DUP3 DUP8 ADD PUSH2 0x1F46 JUMP JUMPDEST SWAP4 POP POP PUSH1 0x20 PUSH2 0x250B DUP7 DUP3 DUP8 ADD PUSH2 0x1D3F JUMP JUMPDEST SWAP3 POP POP PUSH1 0x40 DUP5 ADD CALLDATALOAD PUSH8 0xFFFFFFFFFFFFFFFF DUP2 GT ISZERO PUSH2 0x252C JUMPI PUSH2 0x252B PUSH2 0x1D19 JUMP JUMPDEST JUMPDEST PUSH2 0x2538 DUP7 DUP3 DUP8 ADD PUSH2 0x1ECF JUMP JUMPDEST SWAP2 POP POP SWAP3 POP SWAP3 POP SWAP3 JUMP JUMPDEST PUSH2 0x254B DUP2 PUSH2 0x1D1E JUMP JUMPDEST DUP3 MSTORE POP POP JUMP JUMPDEST PUSH1 0x0 PUSH1 0x20 DUP3 ADD SWAP1 POP PUSH2 0x2566 PUSH1 0x0 DUP4 ADD DUP5 PUSH2 0x2542 JUMP JUMPDEST SWAP3 SWAP2 POP POP JUMP JUMPDEST PUSH1 0x0 DUP2 SWAP1 POP SWAP3 SWAP2 POP POP JUMP JUMPDEST PUSH1 0x0 PUSH2 0x2582 DUP3 PUSH2 0x2089 JUMP JUMPDEST PUSH2 0x258C DUP2 DUP6 PUSH2 0x256C JUMP JUMPDEST SWAP4 POP PUSH2 0x259C DUP2 DUP6 PUSH1 0x20 DUP7 ADD PUSH2 0x20A5 JUMP JUMPDEST DUP1 DUP5 ADD SWAP2 POP POP SWAP3 SWAP2 POP POP JUMP JUMPDEST PUSH1 0x0 PUSH2 0x25B4 DUP3 DUP5 PUSH2 0x2577 JUMP JUMPDEST SWAP2 POP DUP2 SWAP1 POP SWAP3 SWAP2 POP POP JUMP JUMPDEST PUSH1 0x0 DUP2 MLOAD SWAP1 POP PUSH2 0x25CE DUP2 PUSH2 0x1FB7 JUMP JUMPDEST SWAP3 SWAP2 POP POP JUMP JUMPDEST PUSH1 0x0 PUSH1 0x20 DUP3 DUP5 SUB SLT ISZERO PUSH2 0x25EA JUMPI PUSH2 0x25E9 PUSH2 0x1D14 JUMP JUMPDEST JUMPDEST PUSH1 0x0 PUSH2 0x25F8 DUP5 DUP3 DUP6 ADD PUSH2 0x25BF JUMP JUMPDEST SWAP2 POP POP SWAP3 SWAP2 POP POP JUMP JUMPDEST PUSH1 0x0 DUP2 SWAP1 POP SWAP3 SWAP2 POP POP JUMP JUMPDEST PUSH1 0x0 PUSH2 0x2617 DUP3 PUSH2 0x237F JUMP JUMPDEST PUSH2 0x2621 DUP2 DUP6 PUSH2 0x2601 JUMP JUMPDEST SWAP4 POP PUSH2 0x2631 DUP2 DUP6 PUSH1 0x20 DUP7 ADD PUSH2 0x20A5 JUMP JUMPDEST DUP1 DUP5 ADD SWAP2 POP POP SWAP3 SWAP2 POP POP JUMP JUMPDEST PUSH1 0x0 DUP2 PUSH1 0x60 SHL SWAP1 POP SWAP2 SWAP1 POP JUMP JUMPDEST PUSH1 0x0 PUSH2 0x2655 DUP3 PUSH2 0x263D JUMP JUMPDEST SWAP1 POP SWAP2 SWAP1 POP JUMP JUMPDEST PUSH1 0x0 PUSH2 0x2667 DUP3 PUSH2 0x264A JUMP JUMPDEST SWAP1 POP SWAP2 SWAP1 POP JUMP JUMPDEST PUSH2 0x267F PUSH2 0x267A DUP3 PUSH2 0x1F1D JUMP JUMPDEST PUSH2 0x265C JUMP JUMPDEST DUP3 MSTORE POP POP JUMP JUMPDEST PUSH1 0x0 PUSH2 0x2691 DUP3 DUP6 PUSH2 0x260C JUMP JUMPDEST SWAP2 POP PUSH2 0x269D DUP3 DUP5 PUSH2 0x266E JUMP JUMPDEST PUSH1 0x14 DUP3 ADD SWAP2 POP DUP2 SWAP1 POP SWAP4 SWAP3 POP POP POP JUMP JUMPDEST PUSH32 0x446563656E7472616C4163636573733A20726573747269637465642061636365 PUSH1 0x0 DUP3 ADD MSTORE PUSH32 0x737320746F20737065636966696320726F6C6C00000000000000000000000000 PUSH1 0x20 DUP3 ADD MSTORE POP JUMP JUMPDEST PUSH1 0x0 PUSH2 0x2709 PUSH1 0x33 DUP4 PUSH2 0x238A JUMP JUMPDEST SWAP2 POP PUSH2 0x2714 DUP3 PUSH2 0x26AD JUMP JUMPDEST PUSH1 0x40 DUP3 ADD SWAP1 POP SWAP2 SWAP1 POP JUMP JUMPDEST PUSH1 0x0 PUSH1 0x20 DUP3 ADD SWAP1 POP DUP2 DUP2 SUB PUSH1 0x0 DUP4 ADD MSTORE PUSH2 0x2738 DUP2 PUSH2 0x26FC JUMP JUMPDEST SWAP1 POP SWAP2 SWAP1 POP JUMP JUMPDEST PUSH1 0x0 PUSH2 0x274B DUP3 DUP5 PUSH2 0x260C JUMP JUMPDEST SWAP2 POP DUP2 SWAP1 POP SWAP3 SWAP2 POP POP JUMP JUMPDEST PUSH1 0x0 PUSH1 0x40 DUP3 ADD SWAP1 POP PUSH2 0x276B PUSH1 0x0 DUP4 ADD DUP6 PUSH2 0x2542 JUMP JUMPDEST PUSH2 0x2778 PUSH1 0x20 DUP4 ADD DUP5 PUSH2 0x1D8D JUMP JUMPDEST SWAP4 SWAP3 POP POP POP JUMP JUMPDEST PUSH1 0x0 PUSH1 0x40 DUP3 ADD SWAP1 POP PUSH2 0x2794 PUSH1 0x0 DUP4 ADD DUP6 PUSH2 0x2542 JUMP JUMPDEST PUSH2 0x27A1 PUSH1 0x20 DUP4 ADD DUP5 PUSH2 0x2315 JUMP JUMPDEST SWAP4 SWAP3 POP POP POP JUMP JUMPDEST PUSH1 0x0 PUSH2 0x27BB PUSH2 0x27B6 DUP5 PUSH2 0x21BC JUMP JUMPDEST PUSH2 0x1E32 JUMP JUMPDEST SWAP1 POP DUP3 DUP2 MSTORE PUSH1 0x20 DUP2 ADD DUP5 DUP5 DUP5 ADD GT ISZERO PUSH2 0x27D7 JUMPI PUSH2 0x27D6 PUSH2 0x1DBC JUMP JUMPDEST JUMPDEST PUSH2 0x27E2 DUP5 DUP3 DUP6 PUSH2 0x20A5 JUMP JUMPDEST POP SWAP4 SWAP3 POP POP POP JUMP JUMPDEST PUSH1 0x0 DUP3 PUSH1 0x1F DUP4 ADD SLT PUSH2 0x27FF JUMPI PUSH2 0x27FE PUSH2 0x1DB7 JUMP JUMPDEST JUMPDEST DUP2 MLOAD PUSH2 0x280F DUP5 DUP3 PUSH1 0x20 DUP7 ADD PUSH2 0x27A8 JUMP JUMPDEST SWAP2 POP POP SWAP3 SWAP2 POP POP JUMP JUMPDEST PUSH1 0x0 PUSH1 0x20 DUP3 DUP5 SUB SLT ISZERO PUSH2 0x282E JUMPI PUSH2 0x282D PUSH2 0x1D14 JUMP JUMPDEST JUMPDEST PUSH1 0x0 DUP3 ADD MLOAD PUSH8 0xFFFFFFFFFFFFFFFF DUP2 GT ISZERO PUSH2 0x284C JUMPI PUSH2 0x284B PUSH2 0x1D19 JUMP JUMPDEST JUMPDEST PUSH2 0x2858 DUP5 DUP3 DUP6 ADD PUSH2 0x27EA JUMP JUMPDEST SWAP2 POP POP SWAP3 SWAP2 POP POP JUMP JUMPDEST PUSH1 0x0 PUSH1 0x40 DUP3 ADD SWAP1 POP PUSH2 0x2876 PUSH1 0x0 DUP4 ADD DUP6 PUSH2 0x2542 JUMP JUMPDEST PUSH2 0x2883 PUSH1 0x20 DUP4 ADD DUP5 PUSH2 0x24A9 JUMP JUMPDEST SWAP4 SWAP3 POP POP POP JUMP JUMPDEST PUSH1 0x0 PUSH1 0x40 DUP3 ADD SWAP1 POP PUSH2 0x289F PUSH1 0x0 DUP4 ADD DUP6 PUSH2 0x2542 JUMP JUMPDEST DUP2 DUP2 SUB PUSH1 0x20 DUP4 ADD MSTORE PUSH2 0x28B1 DUP2 DUP5 PUSH2 0x20D8 JUMP JUMPDEST SWAP1 POP SWAP4 SWAP3 POP POP POP JUMP JUMPDEST PUSH1 0x0 PUSH2 0x28C5 DUP3 PUSH2 0x1EFD JUMP JUMPDEST SWAP1 POP SWAP2 SWAP1 POP JUMP JUMPDEST PUSH2 0x28D5 DUP2 PUSH2 0x28BA JUMP JUMPDEST DUP2 EQ PUSH2 0x28E0 JUMPI PUSH1 0x0 DUP1 REVERT JUMPDEST POP JUMP JUMPDEST PUSH1 0x0 DUP2 MLOAD SWAP1 POP PUSH2 0x28F2 DUP2 PUSH2 0x28CC JUMP JUMPDEST SWAP3 SWAP2 POP POP JUMP JUMPDEST PUSH1 0x0 PUSH1 0x20 DUP3 DUP5 SUB SLT ISZERO PUSH2 0x290E JUMPI PUSH2 0x290D PUSH2 0x1D14 JUMP JUMPDEST JUMPDEST PUSH1 0x0 PUSH2 0x291C DUP5 DUP3 DUP6 ADD PUSH2 0x28E3 JUMP JUMPDEST SWAP2 POP POP SWAP3 SWAP2 POP POP JUMP JUMPDEST PUSH32 0x4E487B7100000000000000000000000000000000000000000000000000000000 PUSH1 0x0 MSTORE PUSH1 0x22 PUSH1 0x4 MSTORE PUSH1 0x24 PUSH1 0x0 REVERT JUMPDEST PUSH1 0x0 PUSH1 0x2 DUP3 DIV SWAP1 POP PUSH1 0x1 DUP3 AND DUP1 PUSH2 0x296C JUMPI PUSH1 0x7F DUP3 AND SWAP2 POP JUMPDEST PUSH1 0x20 DUP3 LT DUP2 EQ ISZERO PUSH2 0x2980 JUMPI PUSH2 0x297F PUSH2 0x2925 JUMP JUMPDEST JUMPDEST POP SWAP2 SWAP1 POP JUMP JUMPDEST PUSH1 0x0 PUSH2 0x2999 PUSH2 0x2994 DUP5 PUSH2 0x1E4D JUMP JUMPDEST PUSH2 0x1E32 JUMP JUMPDEST SWAP1 POP DUP3 DUP2 MSTORE PUSH1 0x20 DUP2 ADD DUP5 DUP5 DUP5 ADD GT ISZERO PUSH2 0x29B5 JUMPI PUSH2 0x29B4 PUSH2 0x1DBC JUMP JUMPDEST JUMPDEST PUSH2 0x29C0 DUP5 DUP3 DUP6 PUSH2 0x20A5 JUMP JUMPDEST POP SWAP4 SWAP3 POP POP POP JUMP JUMPDEST PUSH1 0x0 DUP3 PUSH1 0x1F DUP4 ADD SLT PUSH2 0x29DD JUMPI PUSH2 0x29DC PUSH2 0x1DB7 JUMP JUMPDEST JUMPDEST DUP2 MLOAD PUSH2 0x29ED DUP5 DUP3 PUSH1 0x20 DUP7 ADD PUSH2 0x2986 JUMP JUMPDEST SWAP2 POP POP SWAP3 SWAP2 POP POP JUMP JUMPDEST PUSH1 0x0 PUSH1 0x20 DUP3 DUP5 SUB SLT ISZERO PUSH2 0x2A0C JUMPI PUSH2 0x2A0B PUSH2 0x1D14 JUMP JUMPDEST JUMPDEST PUSH1 0x0 DUP3 ADD MLOAD PUSH8 0xFFFFFFFFFFFFFFFF DUP2 GT ISZERO PUSH2 0x2A2A JUMPI PUSH2 0x2A29 PUSH2 0x1D19 JUMP JUMPDEST JUMPDEST PUSH2 0x2A36 DUP5 DUP3 DUP6 ADD PUSH2 0x29C8 JUMP JUMPDEST SWAP2 POP POP SWAP3 SWAP2 POP POP JUMP JUMPDEST PUSH1 0x0 PUSH1 0x40 DUP3 ADD SWAP1 POP PUSH2 0x2A54 PUSH1 0x0 DUP4 ADD DUP6 PUSH2 0x2542 JUMP JUMPDEST PUSH2 0x2A61 PUSH1 0x20 DUP4 ADD DUP5 PUSH2 0x2400 JUMP JUMPDEST SWAP4 SWAP3 POP POP POP JUMP JUMPDEST PUSH1 0x0 PUSH1 0x40 DUP3 ADD SWAP1 POP PUSH2 0x2A7D PUSH1 0x0 DUP4 ADD DUP6 PUSH2 0x2542 JUMP JUMPDEST DUP2 DUP2 SUB PUSH1 0x20 DUP4 ADD MSTORE PUSH2 0x2A8F DUP2 DUP5 PUSH2 0x239B JUMP JUMPDEST SWAP1 POP SWAP4 SWAP3 POP POP POP JUMP JUMPDEST PUSH1 0x0 DUP2 MLOAD SWAP1 POP PUSH2 0x2AA7 DUP2 PUSH2 0x213D JUMP JUMPDEST SWAP3 SWAP2 POP POP JUMP JUMPDEST PUSH1 0x0 PUSH1 0x20 DUP3 DUP5 SUB SLT ISZERO PUSH2 0x2AC3 JUMPI PUSH2 0x2AC2 PUSH2 0x1D14 JUMP JUMPDEST JUMPDEST PUSH1 0x0 PUSH2 0x2AD1 DUP5 DUP3 DUP6 ADD PUSH2 0x2A98 JUMP JUMPDEST SWAP2 POP POP SWAP3 SWAP2 POP POP JUMP JUMPDEST PUSH1 0x0 DUP2 MLOAD SWAP1 POP PUSH2 0x2AE9 DUP2 PUSH2 0x242A JUMP JUMPDEST SWAP3 SWAP2 POP POP JUMP JUMPDEST PUSH1 0x0 PUSH1 0x20 DUP3 DUP5 SUB SLT ISZERO PUSH2 0x2B05 JUMPI PUSH2 0x2B04 PUSH2 0x1D14 JUMP JUMPDEST JUMPDEST PUSH1 0x0 PUSH2 0x2B13 DUP5 DUP3 DUP6 ADD PUSH2 0x2ADA JUMP JUMPDEST SWAP2 POP POP SWAP3 SWAP2 POP POP JUMP INVALID LOG2 PUSH5 0x6970667358 0x22 SLT KECCAK256 0x22 PUSH7 0x206A6F7B244FE7 GT GT 0xB0 MLOAD 0xAC 0xE6 0x23 0xE9 0xD1 CALLER SWAP5 PUSH17 0x86CAD01CD1B815F5ECC54564736F6C6343 STOP ADDMOD MULMOD STOP CALLER "
        },
        "methodIdentifiers": {
          "DAO()": "98fabd3a",
          "DAOGetAddress(bytes32)": "5dbe43f2",
          "DAOGetBool(bytes32)": "025ec49a",
          "DAOGetBytes(bytes32)": "482fa043",
          "DAOGetInt(bytes32)": "afdac18a",
          "DAOGetString(bytes32)": "6e08ca2e",
          "DAOGetUint(bytes32)": "e2330b62",
          "getAddress(address,bytes32)": "7ac4ed64",
          "getBool(address,bytes32)": "9d74b37d",
          "getBytes(address,bytes32)": "6556f767",
          "getInt(address,bytes32)": "95ee8bae",
          "getString(address,bytes32)": "e318de73",
          "getUint(address,bytes32)": "71658552",
          "setData(address,bytes32,address)": "473dcbaf",
          "setData(address,bytes32,bool)": "34dc8b4f",
          "setData(address,bytes32,bytes)": "4fc729c2",
          "setData(address,bytes32,int256)": "4ce4a2f7",
          "setData(address,bytes32,string)": "a02d6fd1",
          "setData(address,bytes32,uint256)": "87a18d14",
          "setUserAddress(string,address)": "2c588077",
          "userAddress(string)": "5c9566dc"
        }
      }
    }
  }
}