{
  "_format": "hh-sol-artifact-1",
  "contractName": "Tickets",
  "sourceName": "contracts/ERC20/ERC20Permit1.sol",
  "abi": [
    {
      "inputs": [
        {
          "internalType": "string",
          "name": "_name",
          "type": "string"
        },
        {
          "internalType": "string",
          "name": "_symbol",
          "type": "string"
        }
      ],
      "stateMutability": "nonpayable",
      "type": "constructor"
    },
    {
      "anonymous": false,
      "inputs": [
        {
          "indexed": true,
          "internalType": "address",
          "name": "owner",
          "type": "address"
        },
        {
          "indexed": true,
          "internalType": "address",
          "name": "spender",
          "type": "address"
        },
        {
          "indexed": false,
          "internalType": "uint256",
          "name": "value",
          "type": "uint256"
        }
      ],
      "name": "Approval",
      "type": "event"
    },
    {
      "anonymous": false,
      "inputs": [
        {
          "indexed": true,
          "internalType": "address",
          "name": "previousOwner",
          "type": "address"
        },
        {
          "indexed": true,
          "internalType": "address",
          "name": "newOwner",
          "type": "address"
        }
      ],
      "name": "OwnershipTransferred",
      "type": "event"
    },
    {
      "anonymous": false,
      "inputs": [
        {
          "indexed": true,
          "internalType": "address",
          "name": "from",
          "type": "address"
        },
        {
          "indexed": true,
          "internalType": "address",
          "name": "to",
          "type": "address"
        },
        {
          "indexed": false,
          "internalType": "uint256",
          "name": "value",
          "type": "uint256"
        }
      ],
      "name": "Transfer",
      "type": "event"
    },
    {
      "inputs": [],
      "name": "DOMAIN_SEPARATOR",
      "outputs": [
        {
          "internalType": "bytes32",
          "name": "",
          "type": "bytes32"
        }
      ],
      "stateMutability": "view",
      "type": "function"
    },
    {
      "inputs": [
        {
          "internalType": "address",
          "name": "owner",
          "type": "address"
        },
        {
          "internalType": "address",
          "name": "spender",
          "type": "address"
        }
      ],
      "name": "allowance",
      "outputs": [
        {
          "internalType": "uint256",
          "name": "",
          "type": "uint256"
        }
      ],
      "stateMutability": "view",
      "type": "function"
    },
    {
      "inputs": [
        {
          "internalType": "address",
          "name": "spender",
          "type": "address"
        },
        {
          "internalType": "uint256",
          "name": "amount",
          "type": "uint256"
        }
      ],
      "name": "approve",
      "outputs": [
        {
          "internalType": "bool",
          "name": "",
          "type": "bool"
        }
      ],
      "stateMutability": "nonpayable",
      "type": "function"
    },
    {
      "inputs": [
        {
          "internalType": "address",
          "name": "account",
          "type": "address"
        }
      ],
      "name": "balanceOf",
      "outputs": [
        {
          "internalType": "uint256",
          "name": "",
          "type": "uint256"
        }
      ],
      "stateMutability": "view",
      "type": "function"
    },
    {
      "inputs": [],
      "name": "decimals",
      "outputs": [
        {
          "internalType": "uint8",
          "name": "",
          "type": "uint8"
        }
      ],
      "stateMutability": "view",
      "type": "function"
    },
    {
      "inputs": [
        {
          "internalType": "address",
          "name": "spender",
          "type": "address"
        },
        {
          "internalType": "uint256",
          "name": "subtractedValue",
          "type": "uint256"
        }
      ],
      "name": "decreaseAllowance",
      "outputs": [
        {
          "internalType": "bool",
          "name": "",
          "type": "bool"
        }
      ],
      "stateMutability": "nonpayable",
      "type": "function"
    },
    {
      "inputs": [
        {
          "internalType": "address",
          "name": "spender",
          "type": "address"
        },
        {
          "internalType": "uint256",
          "name": "addedValue",
          "type": "uint256"
        }
      ],
      "name": "increaseAllowance",
      "outputs": [
        {
          "internalType": "bool",
          "name": "",
          "type": "bool"
        }
      ],
      "stateMutability": "nonpayable",
      "type": "function"
    },
    {
      "inputs": [],
      "name": "name",
      "outputs": [
        {
          "internalType": "string",
          "name": "",
          "type": "string"
        }
      ],
      "stateMutability": "view",
      "type": "function"
    },
    {
      "inputs": [
        {
          "internalType": "address",
          "name": "owner",
          "type": "address"
        }
      ],
      "name": "nonces",
      "outputs": [
        {
          "internalType": "uint256",
          "name": "",
          "type": "uint256"
        }
      ],
      "stateMutability": "view",
      "type": "function"
    },
    {
      "inputs": [],
      "name": "owner",
      "outputs": [
        {
          "internalType": "address",
          "name": "",
          "type": "address"
        }
      ],
      "stateMutability": "view",
      "type": "function"
    },
    {
      "inputs": [
        {
          "internalType": "address",
          "name": "owner",
          "type": "address"
        },
        {
          "internalType": "address",
          "name": "spender",
          "type": "address"
        },
        {
          "internalType": "uint256",
          "name": "value",
          "type": "uint256"
        },
        {
          "internalType": "uint256",
          "name": "deadline",
          "type": "uint256"
        },
        {
          "internalType": "uint8",
          "name": "v",
          "type": "uint8"
        },
        {
          "internalType": "bytes32",
          "name": "r",
          "type": "bytes32"
        },
        {
          "internalType": "bytes32",
          "name": "s",
          "type": "bytes32"
        }
      ],
      "name": "permit",
      "outputs": [],
      "stateMutability": "nonpayable",
      "type": "function"
    },
    {
      "inputs": [
        {
          "internalType": "address",
          "name": "_account",
          "type": "address"
        },
        {
          "internalType": "uint256",
          "name": "_amount",
          "type": "uint256"
        }
      ],
      "name": "print",
      "outputs": [],
      "stateMutability": "nonpayable",
      "type": "function"
    },
    {
      "inputs": [
        {
          "internalType": "address",
          "name": "_account",
          "type": "address"
        },
        {
          "internalType": "uint256",
          "name": "_amount",
          "type": "uint256"
        }
      ],
      "name": "redeem",
      "outputs": [],
      "stateMutability": "nonpayable",
      "type": "function"
    },
    {
      "inputs": [],
      "name": "renounceOwnership",
      "outputs": [],
      "stateMutability": "nonpayable",
      "type": "function"
    },
    {
      "inputs": [],
      "name": "symbol",
      "outputs": [
        {
          "internalType": "string",
          "name": "",
          "type": "string"
        }
      ],
      "stateMutability": "view",
      "type": "function"
    },
    {
      "inputs": [],
      "name": "totalSupply",
      "outputs": [
        {
          "internalType": "uint256",
          "name": "",
          "type": "uint256"
        }
      ],
      "stateMutability": "view",
      "type": "function"
    },
    {
      "inputs": [
        {
          "internalType": "address",
          "name": "recipient",
          "type": "address"
        },
        {
          "internalType": "uint256",
          "name": "amount",
          "type": "uint256"
        }
      ],
      "name": "transfer",
      "outputs": [
        {
          "internalType": "bool",
          "name": "",
          "type": "bool"
        }
      ],
      "stateMutability": "nonpayable",
      "type": "function"
    },
    {
      "inputs": [
        {
          "internalType": "address",
          "name": "sender",
          "type": "address"
        },
        {
          "internalType": "address",
          "name": "recipient",
          "type": "address"
        },
        {
          "internalType": "uint256",
          "name": "amount",
          "type": "uint256"
        }
      ],
      "name": "transferFrom",
      "outputs": [
        {
          "internalType": "bool",
          "name": "",
          "type": "bool"
        }
      ],
      "stateMutability": "nonpayable",
      "type": "function"
    },
    {
      "inputs": [
        {
          "internalType": "address",
          "name": "newOwner",
          "type": "address"
        }
      ],
      "name": "transferOwnership",
      "outputs": [],
      "stateMutability": "nonpayable",
      "type": "function"
    }
  ],
  "bytecode": "0x6101406040527f6e71edae12b1b97f4d1f60370fef10105fa2faae0126114a169c64845d6126c9610120908152503480156200003a57600080fd5b50604051620031df380380620031df8339818101604052810190620000609190620004cb565b81806040518060400160405280600181526020017f310000000000000000000000000000000000000000000000000000000000000081525084848160039080519060200190620000b29291906200027e565b508060049080519060200190620000cb9291906200027e565b50505060008280519060200120905060008280519060200120905060007f8b73c3c69bb8fe3d512ecc4cf759cc79239f7b179b0ffacaa9a75d522b39400f90508260c081815250508160e081815250504660a08181525050620001368184846200017460201b60201c565b608081815250508061010081815250505050505050506200016c62000160620001b060201b60201c565b620001b860201b60201c565b50506200068d565b6000838383463060405160200162000191959493929190620005cb565b6040516020818303038152906040528051906020012090509392505050565b600033905090565b6000600660009054906101000a900473ffffffffffffffffffffffffffffffffffffffff16905081600660006101000a81548173ffffffffffffffffffffffffffffffffffffffff021916908373ffffffffffffffffffffffffffffffffffffffff1602179055508173ffffffffffffffffffffffffffffffffffffffff168173ffffffffffffffffffffffffffffffffffffffff167f8be0079c531659141344cd1fd0a4f28419497f9722a3daafe3b4186f6b6457e060405160405180910390a35050565b8280546200028c9062000657565b90600052602060002090601f016020900481019282620002b05760008555620002fc565b82601f10620002cb57805160ff1916838001178555620002fc565b82800160010185558215620002fc579182015b82811115620002fb578251825591602001919060010190620002de565b5b5090506200030b91906200030f565b5090565b5b808211156200032a57600081600090555060010162000310565b5090565b6000604051905090565b600080fd5b600080fd5b600080fd5b600080fd5b6000601f19601f8301169050919050565b7f4e487b7100000000000000000000000000000000000000000000000000000000600052604160045260246000fd5b62000397826200034c565b810181811067ffffffffffffffff82111715620003b957620003b86200035d565b5b80604052505050565b6000620003ce6200032e565b9050620003dc82826200038c565b919050565b600067ffffffffffffffff821115620003ff57620003fe6200035d565b5b6200040a826200034c565b9050602081019050919050565b60005b83811015620004375780820151818401526020810190506200041a565b8381111562000447576000848401525b50505050565b6000620004646200045e84620003e1565b620003c2565b90508281526020810184848401111562000483576200048262000347565b5b6200049084828562000417565b509392505050565b600082601f830112620004b057620004af62000342565b5b8151620004c28482602086016200044d565b91505092915050565b60008060408385031215620004e557620004e462000338565b5b600083015167ffffffffffffffff8111156200050657620005056200033d565b5b620005148582860162000498565b925050602083015167ffffffffffffffff8111156200053857620005376200033d565b5b620005468582860162000498565b9150509250929050565b6000819050919050565b620005658162000550565b82525050565b6000819050919050565b62000580816200056b565b82525050565b600073ffffffffffffffffffffffffffffffffffffffff82169050919050565b6000620005b38262000586565b9050919050565b620005c581620005a6565b82525050565b600060a082019050620005e260008301886200055a565b620005f160208301876200055a565b6200060060408301866200055a565b6200060f606083018562000575565b6200061e6080830184620005ba565b9695505050505050565b7f4e487b7100000000000000000000000000000000000000000000000000000000600052602260045260246000fd5b600060028204905060018216806200067057607f821691505b6020821081141562000687576200068662000628565b5b50919050565b60805160a05160c05160e0516101005161012051612b02620006dd6000396000610a8a01526000611386015260006113c8015260006113a7015260006113330152600061135b0152612b026000f3fe608060405234801561001057600080fd5b50600436106101215760003560e01c8063715018a6116100ad578063a9059cbb11610071578063a9059cbb14610320578063ac68553914610350578063d505accf1461036c578063dd62ed3e14610388578063f2fde38b146103b857610121565b8063715018a61461027a5780637ecebe00146102845780638da5cb5b146102b457806395d89b41146102d2578063a457c2d7146102f057610121565b806323b872dd116100f457806323b872dd146101ae578063313ce567146101de5780633644e515146101fc578063395093511461021a57806370a082311461024a57610121565b806306fdde0314610126578063095ea7b31461014457806318160ddd146101745780631e9a695014610192575b600080fd5b61012e6103d4565b60405161013b9190611ad1565b60405180910390f35b61015e60048036038101906101599190611b8c565b610466565b60405161016b9190611be7565b60405180910390f35b61017c610484565b6040516101899190611c11565b60405180910390f35b6101ac60048036038101906101a79190611b8c565b61048e565b005b6101c860048036038101906101c39190611c2c565b610518565b6040516101d59190611be7565b60405180910390f35b6101e6610610565b6040516101f39190611c9b565b60405180910390f35b610204610619565b6040516102119190611ccf565b60405180910390f35b610234600480360381019061022f9190611b8c565b610628565b6040516102419190611be7565b60405180910390f35b610264600480360381019061025f9190611cea565b6106d4565b6040516102719190611c11565b60405180910390f35b61028261071c565b005b61029e60048036038101906102999190611cea565b6107a4565b6040516102ab9190611c11565b60405180910390f35b6102bc6107f4565b6040516102c99190611d26565b60405180910390f35b6102da61081e565b6040516102e79190611ad1565b60405180910390f35b61030a60048036038101906103059190611b8c565b6108b0565b6040516103179190611be7565b60405180910390f35b61033a60048036038101906103359190611b8c565b61099b565b6040516103479190611be7565b60405180910390f35b61036a60048036038101906103659190611b8c565b6109b9565b005b61038660048036038101906103819190611d99565b610a43565b005b6103a2600480360381019061039d9190611e3b565b610b85565b6040516103af9190611c11565b60405180910390f35b6103d260048036038101906103cd9190611cea565b610c0c565b005b6060600380546103e390611eaa565b80601f016020809104026020016040519081016040528092919081815260200182805461040f90611eaa565b801561045c5780601f106104315761010080835404028352916020019161045c565b820191906000526020600020905b81548152906001019060200180831161043f57829003601f168201915b5050505050905090565b600061047a610473610d04565b8484610d0c565b6001905092915050565b6000600254905090565b610496610d04565b73ffffffffffffffffffffffffffffffffffffffff166104b46107f4565b73ffffffffffffffffffffffffffffffffffffffff161461050a576040517f08c379a000000000000000000000000000000000000000000000000000000000815260040161050190611f28565b60405180910390fd5b6105148282610ed7565b5050565b60006105258484846110ae565b6000600160008673ffffffffffffffffffffffffffffffffffffffff1673ffffffffffffffffffffffffffffffffffffffff1681526020019081526020016000206000610570610d04565b73ffffffffffffffffffffffffffffffffffffffff1673ffffffffffffffffffffffffffffffffffffffff168152602001908152602001600020549050828110156105f0576040517f08c379a00000000000000000000000000000000000000000000000000000000081526004016105e790611fba565b60405180910390fd5b610604856105fc610d04565b858403610d0c565b60019150509392505050565b60006012905090565b600061062361132f565b905090565b60006106ca610635610d04565b848460016000610643610d04565b73ffffffffffffffffffffffffffffffffffffffff1673ffffffffffffffffffffffffffffffffffffffff16815260200190815260200160002060008873ffffffffffffffffffffffffffffffffffffffff1673ffffffffffffffffffffffffffffffffffffffff168152602001908152602001600020546106c59190612009565b610d0c565b6001905092915050565b60008060008373ffffffffffffffffffffffffffffffffffffffff1673ffffffffffffffffffffffffffffffffffffffff168152602001908152602001600020549050919050565b610724610d04565b73ffffffffffffffffffffffffffffffffffffffff166107426107f4565b73ffffffffffffffffffffffffffffffffffffffff1614610798576040517f08c379a000000000000000000000000000000000000000000000000000000000815260040161078f90611f28565b60405180910390fd5b6107a260006113f2565b565b60006107ed600560008473ffffffffffffffffffffffffffffffffffffffff1673ffffffffffffffffffffffffffffffffffffffff1681526020019081526020016000206114b8565b9050919050565b6000600660009054906101000a900473ffffffffffffffffffffffffffffffffffffffff16905090565b60606004805461082d90611eaa565b80601f016020809104026020016040519081016040528092919081815260200182805461085990611eaa565b80156108a65780601f1061087b576101008083540402835291602001916108a6565b820191906000526020600020905b81548152906001019060200180831161088957829003601f168201915b5050505050905090565b600080600160006108bf610d04565b73ffffffffffffffffffffffffffffffffffffffff1673ffffffffffffffffffffffffffffffffffffffff16815260200190815260200160002060008573ffffffffffffffffffffffffffffffffffffffff1673ffffffffffffffffffffffffffffffffffffffff1681526020019081526020016000205490508281101561097c576040517f08c379a0000000000000000000000000000000000000000000000000000000008152600401610973906120d1565b60405180910390fd5b610990610987610d04565b85858403610d0c565b600191505092915050565b60006109af6109a8610d04565b84846110ae565b6001905092915050565b6109c1610d04565b73ffffffffffffffffffffffffffffffffffffffff166109df6107f4565b73ffffffffffffffffffffffffffffffffffffffff1614610a35576040517f08c379a0000000000000000000000000000000000000000000000000000000008152600401610a2c90611f28565b60405180910390fd5b610a3f82826114c6565b5050565b83421115610a86576040517f08c379a0000000000000000000000000000000000000000000000000000000008152600401610a7d9061213d565b60405180910390fd5b60007f0000000000000000000000000000000000000000000000000000000000000000888888610ab58c611626565b89604051602001610acb9695949392919061215d565b6040516020818303038152906040528051906020012090506000610aee82611684565b90506000610afe8287878761169e565b90508973ffffffffffffffffffffffffffffffffffffffff168173ffffffffffffffffffffffffffffffffffffffff1614610b6e576040517f08c379a0000000000000000000000000000000000000000000000000000000008152600401610b659061220a565b60405180910390fd5b610b798a8a8a610d0c565b50505050505050505050565b6000600160008473ffffffffffffffffffffffffffffffffffffffff1673ffffffffffffffffffffffffffffffffffffffff16815260200190815260200160002060008373ffffffffffffffffffffffffffffffffffffffff1673ffffffffffffffffffffffffffffffffffffffff16815260200190815260200160002054905092915050565b610c14610d04565b73ffffffffffffffffffffffffffffffffffffffff16610c326107f4565b73ffffffffffffffffffffffffffffffffffffffff1614610c88576040517f08c379a0000000000000000000000000000000000000000000000000000000008152600401610c7f90611f28565b60405180910390fd5b600073ffffffffffffffffffffffffffffffffffffffff168173ffffffffffffffffffffffffffffffffffffffff161415610cf8576040517f08c379a0000000000000000000000000000000000000000000000000000000008152600401610cef9061229c565b60405180910390fd5b610d01816113f2565b50565b600033905090565b600073ffffffffffffffffffffffffffffffffffffffff168373ffffffffffffffffffffffffffffffffffffffff161415610d7c576040517f08c379a0000000000000000000000000000000000000000000000000000000008152600401610d739061232e565b60405180910390fd5b600073ffffffffffffffffffffffffffffffffffffffff168273ffffffffffffffffffffffffffffffffffffffff161415610dec576040517f08c379a0000000000000000000000000000000000000000000000000000000008152600401610de3906123c0565b60405180910390fd5b80600160008573ffffffffffffffffffffffffffffffffffffffff1673ffffffffffffffffffffffffffffffffffffffff16815260200190815260200160002060008473ffffffffffffffffffffffffffffffffffffffff1673ffffffffffffffffffffffffffffffffffffffff168152602001908152602001600020819055508173ffffffffffffffffffffffffffffffffffffffff168373ffffffffffffffffffffffffffffffffffffffff167f8c5be1e5ebec7d5bd14f71427d1e84f3dd0314c0f7b2291e5b200ac8c7c3b92583604051610eca9190611c11565b60405180910390a3505050565b600073ffffffffffffffffffffffffffffffffffffffff168273ffffffffffffffffffffffffffffffffffffffff161415610f47576040517f08c379a0000000000000000000000000000000000000000000000000000000008152600401610f3e90612452565b60405180910390fd5b610f53826000836116c9565b60008060008473ffffffffffffffffffffffffffffffffffffffff1673ffffffffffffffffffffffffffffffffffffffff16815260200190815260200160002054905081811015610fd9576040517f08c379a0000000000000000000000000000000000000000000000000000000008152600401610fd0906124e4565b60405180910390fd5b8181036000808573ffffffffffffffffffffffffffffffffffffffff1673ffffffffffffffffffffffffffffffffffffffff1681526020019081526020016000208190555081600260008282546110309190612504565b92505081905550600073ffffffffffffffffffffffffffffffffffffffff168373ffffffffffffffffffffffffffffffffffffffff167fddf252ad1be2c89b69c2b068fc378daa952ba7f163c4a11628f55a4df523b3ef846040516110959190611c11565b60405180910390a36110a9836000846116ce565b505050565b600073ffffffffffffffffffffffffffffffffffffffff168373ffffffffffffffffffffffffffffffffffffffff16141561111e576040517f08c379a0000000000000000000000000000000000000000000000000000000008152600401611115906125aa565b60405180910390fd5b600073ffffffffffffffffffffffffffffffffffffffff168273ffffffffffffffffffffffffffffffffffffffff16141561118e576040517f08c379a00000000000000000000000000000000000000000000000000000000081526004016111859061263c565b60405180910390fd5b6111998383836116c9565b60008060008573ffffffffffffffffffffffffffffffffffffffff1673ffffffffffffffffffffffffffffffffffffffff1681526020019081526020016000205490508181101561121f576040517f08c379a0000000000000000000000000000000000000000000000000000000008152600401611216906126ce565b60405180910390fd5b8181036000808673ffffffffffffffffffffffffffffffffffffffff1673ffffffffffffffffffffffffffffffffffffffff16815260200190815260200160002081905550816000808573ffffffffffffffffffffffffffffffffffffffff1673ffffffffffffffffffffffffffffffffffffffff16815260200190815260200160002060008282546112b29190612009565b925050819055508273ffffffffffffffffffffffffffffffffffffffff168473ffffffffffffffffffffffffffffffffffffffff167fddf252ad1be2c89b69c2b068fc378daa952ba7f163c4a11628f55a4df523b3ef846040516113169190611c11565b60405180910390a36113298484846116ce565b50505050565b60007f0000000000000000000000000000000000000000000000000000000000000000461415611381577f000000000000000000000000000000000000000000000000000000000000000090506113ef565b6113ec7f00000000000000000000000000000000000000000000000000000000000000007f00000000000000000000000000000000000000000000000000000000000000007f00000000000000000000000000000000000000000000000000000000000000006116d3565b90505b90565b6000600660009054906101000a900473ffffffffffffffffffffffffffffffffffffffff16905081600660006101000a81548173ffffffffffffffffffffffffffffffffffffffff021916908373ffffffffffffffffffffffffffffffffffffffff1602179055508173ffffffffffffffffffffffffffffffffffffffff168173ffffffffffffffffffffffffffffffffffffffff167f8be0079c531659141344cd1fd0a4f28419497f9722a3daafe3b4186f6b6457e060405160405180910390a35050565b600081600001549050919050565b600073ffffffffffffffffffffffffffffffffffffffff168273ffffffffffffffffffffffffffffffffffffffff161415611536576040517f08c379a000000000000000000000000000000000000000000000000000000000815260040161152d9061273a565b60405180910390fd5b611542600083836116c9565b80600260008282546115549190612009565b92505081905550806000808473ffffffffffffffffffffffffffffffffffffffff1673ffffffffffffffffffffffffffffffffffffffff16815260200190815260200160002060008282546115a99190612009565b925050819055508173ffffffffffffffffffffffffffffffffffffffff16600073ffffffffffffffffffffffffffffffffffffffff167fddf252ad1be2c89b69c2b068fc378daa952ba7f163c4a11628f55a4df523b3ef8360405161160e9190611c11565b60405180910390a3611622600083836116ce565b5050565b600080600560008473ffffffffffffffffffffffffffffffffffffffff1673ffffffffffffffffffffffffffffffffffffffff1681526020019081526020016000209050611673816114b8565b915061167e8161170d565b50919050565b600061169761169161132f565b83611723565b9050919050565b60008060006116af87878787611756565b915091506116bc81611863565b8192505050949350505050565b505050565b505050565b600083838346306040516020016116ee95949392919061275a565b6040516020818303038152906040528051906020012090509392505050565b6001816000016000828254019250508190555050565b60008282604051602001611738929190612825565b60405160208183030381529060405280519060200120905092915050565b6000807f7fffffffffffffffffffffffffffffff5d576e7357a4501ddfe92f46681b20a08360001c111561179157600060039150915061185a565b601b8560ff16141580156117a95750601c8560ff1614155b156117bb57600060049150915061185a565b6000600187878787604051600081526020016040526040516117e0949392919061285c565b6020604051602081039080840390855afa158015611802573d6000803e3d6000fd5b505050602060405103519050600073ffffffffffffffffffffffffffffffffffffffff168173ffffffffffffffffffffffffffffffffffffffff1614156118515760006001925092505061185a565b80600092509250505b94509492505050565b60006004811115611877576118766128a1565b5b81600481111561188a576118896128a1565b5b141561189557611a35565b600160048111156118a9576118a86128a1565b5b8160048111156118bc576118bb6128a1565b5b14156118fd576040517f08c379a00000000000000000000000000000000000000000000000000000000081526004016118f49061291c565b60405180910390fd5b60026004811115611911576119106128a1565b5b816004811115611924576119236128a1565b5b1415611965576040517f08c379a000000000000000000000000000000000000000000000000000000000815260040161195c90612988565b60405180910390fd5b60036004811115611979576119786128a1565b5b81600481111561198c5761198b6128a1565b5b14156119cd576040517f08c379a00000000000000000000000000000000000000000000000000000000081526004016119c490612a1a565b60405180910390fd5b6004808111156119e0576119df6128a1565b5b8160048111156119f3576119f26128a1565b5b1415611a34576040517f08c379a0000000000000000000000000000000000000000000000000000000008152600401611a2b90612aac565b60405180910390fd5b5b50565b600081519050919050565b600082825260208201905092915050565b60005b83811015611a72578082015181840152602081019050611a57565b83811115611a81576000848401525b50505050565b6000601f19601f8301169050919050565b6000611aa382611a38565b611aad8185611a43565b9350611abd818560208601611a54565b611ac681611a87565b840191505092915050565b60006020820190508181036000830152611aeb8184611a98565b905092915050565b600080fd5b600073ffffffffffffffffffffffffffffffffffffffff82169050919050565b6000611b2382611af8565b9050919050565b611b3381611b18565b8114611b3e57600080fd5b50565b600081359050611b5081611b2a565b92915050565b6000819050919050565b611b6981611b56565b8114611b7457600080fd5b50565b600081359050611b8681611b60565b92915050565b60008060408385031215611ba357611ba2611af3565b5b6000611bb185828601611b41565b9250506020611bc285828601611b77565b9150509250929050565b60008115159050919050565b611be181611bcc565b82525050565b6000602082019050611bfc6000830184611bd8565b92915050565b611c0b81611b56565b82525050565b6000602082019050611c266000830184611c02565b92915050565b600080600060608486031215611c4557611c44611af3565b5b6000611c5386828701611b41565b9350506020611c6486828701611b41565b9250506040611c7586828701611b77565b9150509250925092565b600060ff82169050919050565b611c9581611c7f565b82525050565b6000602082019050611cb06000830184611c8c565b92915050565b6000819050919050565b611cc981611cb6565b82525050565b6000602082019050611ce46000830184611cc0565b92915050565b600060208284031215611d0057611cff611af3565b5b6000611d0e84828501611b41565b91505092915050565b611d2081611b18565b82525050565b6000602082019050611d3b6000830184611d17565b92915050565b611d4a81611c7f565b8114611d5557600080fd5b50565b600081359050611d6781611d41565b92915050565b611d7681611cb6565b8114611d8157600080fd5b50565b600081359050611d9381611d6d565b92915050565b600080600080600080600060e0888a031215611db857611db7611af3565b5b6000611dc68a828b01611b41565b9750506020611dd78a828b01611b41565b9650506040611de88a828b01611b77565b9550506060611df98a828b01611b77565b9450506080611e0a8a828b01611d58565b93505060a0611e1b8a828b01611d84565b92505060c0611e2c8a828b01611d84565b91505092959891949750929550565b60008060408385031215611e5257611e51611af3565b5b6000611e6085828601611b41565b9250506020611e7185828601611b41565b9150509250929050565b7f4e487b7100000000000000000000000000000000000000000000000000000000600052602260045260246000fd5b60006002820490506001821680611ec257607f821691505b60208210811415611ed657611ed5611e7b565b5b50919050565b7f4f776e61626c653a2063616c6c6572206973206e6f7420746865206f776e6572600082015250565b6000611f12602083611a43565b9150611f1d82611edc565b602082019050919050565b60006020820190508181036000830152611f4181611f05565b9050919050565b7f45524332303a207472616e7366657220616d6f756e742065786365656473206160008201527f6c6c6f77616e6365000000000000000000000000000000000000000000000000602082015250565b6000611fa4602883611a43565b9150611faf82611f48565b604082019050919050565b60006020820190508181036000830152611fd381611f97565b9050919050565b7f4e487b7100000000000000000000000000000000000000000000000000000000600052601160045260246000fd5b600061201482611b56565b915061201f83611b56565b9250827fffffffffffffffffffffffffffffffffffffffffffffffffffffffffffffffff0382111561205457612053611fda565b5b828201905092915050565b7f45524332303a2064656372656173656420616c6c6f77616e63652062656c6f7760008201527f207a65726f000000000000000000000000000000000000000000000000000000602082015250565b60006120bb602583611a43565b91506120c68261205f565b604082019050919050565b600060208201905081810360008301526120ea816120ae565b9050919050565b7f45524332305065726d69743a206578706972656420646561646c696e65000000600082015250565b6000612127601d83611a43565b9150612132826120f1565b602082019050919050565b600060208201905081810360008301526121568161211a565b9050919050565b600060c0820190506121726000830189611cc0565b61217f6020830188611d17565b61218c6040830187611d17565b6121996060830186611c02565b6121a66080830185611c02565b6121b360a0830184611c02565b979650505050505050565b7f45524332305065726d69743a20696e76616c6964207369676e61747572650000600082015250565b60006121f4601e83611a43565b91506121ff826121be565b602082019050919050565b60006020820190508181036000830152612223816121e7565b9050919050565b7f4f776e61626c653a206e6577206f776e657220697320746865207a65726f206160008201527f6464726573730000000000000000000000000000000000000000000000000000602082015250565b6000612286602683611a43565b91506122918261222a565b604082019050919050565b600060208201905081810360008301526122b581612279565b9050919050565b7f45524332303a20617070726f76652066726f6d20746865207a65726f2061646460008201527f7265737300000000000000000000000000000000000000000000000000000000602082015250565b6000612318602483611a43565b9150612323826122bc565b604082019050919050565b600060208201905081810360008301526123478161230b565b9050919050565b7f45524332303a20617070726f766520746f20746865207a65726f20616464726560008201527f7373000000000000000000000000000000000000000000000000000000000000602082015250565b60006123aa602283611a43565b91506123b58261234e565b604082019050919050565b600060208201905081810360008301526123d98161239d565b9050919050565b7f45524332303a206275726e2066726f6d20746865207a65726f2061646472657360008201527f7300000000000000000000000000000000000000000000000000000000000000602082015250565b600061243c602183611a43565b9150612447826123e0565b604082019050919050565b6000602082019050818103600083015261246b8161242f565b9050919050565b7f45524332303a206275726e20616d6f756e7420657863656564732062616c616e60008201527f6365000000000000000000000000000000000000000000000000000000000000602082015250565b60006124ce602283611a43565b91506124d982612472565b604082019050919050565b600060208201905081810360008301526124fd816124c1565b9050919050565b600061250f82611b56565b915061251a83611b56565b92508282101561252d5761252c611fda565b5b828203905092915050565b7f45524332303a207472616e736665722066726f6d20746865207a65726f20616460008201527f6472657373000000000000000000000000000000000000000000000000000000602082015250565b6000612594602583611a43565b915061259f82612538565b604082019050919050565b600060208201905081810360008301526125c381612587565b9050919050565b7f45524332303a207472616e7366657220746f20746865207a65726f206164647260008201527f6573730000000000000000000000000000000000000000000000000000000000602082015250565b6000612626602383611a43565b9150612631826125ca565b604082019050919050565b6000602082019050818103600083015261265581612619565b9050919050565b7f45524332303a207472616e7366657220616d6f756e742065786365656473206260008201527f616c616e63650000000000000000000000000000000000000000000000000000602082015250565b60006126b8602683611a43565b91506126c38261265c565b604082019050919050565b600060208201905081810360008301526126e7816126ab565b9050919050565b7f45524332303a206d696e7420746f20746865207a65726f206164647265737300600082015250565b6000612724601f83611a43565b915061272f826126ee565b602082019050919050565b6000602082019050818103600083015261275381612717565b9050919050565b600060a08201905061276f6000830188611cc0565b61277c6020830187611cc0565b6127896040830186611cc0565b6127966060830185611c02565b6127a36080830184611d17565b9695505050505050565b600081905092915050565b7f1901000000000000000000000000000000000000000000000000000000000000600082015250565b60006127ee6002836127ad565b91506127f9826127b8565b600282019050919050565b6000819050919050565b61281f61281a82611cb6565b612804565b82525050565b6000612830826127e1565b915061283c828561280e565b60208201915061284c828461280e565b6020820191508190509392505050565b60006080820190506128716000830187611cc0565b61287e6020830186611c8c565b61288b6040830185611cc0565b6128986060830184611cc0565b95945050505050565b7f4e487b7100000000000000000000000000000000000000000000000000000000600052602160045260246000fd5b7f45434453413a20696e76616c6964207369676e61747572650000000000000000600082015250565b6000612906601883611a43565b9150612911826128d0565b602082019050919050565b60006020820190508181036000830152612935816128f9565b9050919050565b7f45434453413a20696e76616c6964207369676e6174757265206c656e67746800600082015250565b6000612972601f83611a43565b915061297d8261293c565b602082019050919050565b600060208201905081810360008301526129a181612965565b9050919050565b7f45434453413a20696e76616c6964207369676e6174757265202773272076616c60008201527f7565000000000000000000000000000000000000000000000000000000000000602082015250565b6000612a04602283611a43565b9150612a0f826129a8565b604082019050919050565b60006020820190508181036000830152612a33816129f7565b9050919050565b7f45434453413a20696e76616c6964207369676e6174757265202776272076616c60008201527f7565000000000000000000000000000000000000000000000000000000000000602082015250565b6000612a96602283611a43565b9150612aa182612a3a565b604082019050919050565b60006020820190508181036000830152612ac581612a89565b905091905056fea2646970667358221220daaf8359a77356e932a63989a8de127598bca9b28bb3212ab1eabc24968060b264736f6c63430008090033",
  "linkReferences": {},
  "deployedLinkReferences": {}
}