{
  "_format": "hh-sol-artifact-1",
  "contractName": "RegisterDAO",
  "sourceName": "contracts/register/RegisterDAO.sol",
  "abi": [
    {
      "inputs": [],
      "name": "DAO",
      "outputs": [
        {
          "internalType": "address",
          "name": "DAOAddr",
          "type": "address"
        }
      ],
      "stateMutability": "view",
      "type": "function"
    },
    {
      "inputs": [
        {
          "internalType": "bytes32",
          "name": "tag",
          "type": "bytes32"
        }
      ],
      "name": "DAOGetAddress",
      "outputs": [
        {
          "internalType": "address",
          "name": "data",
          "type": "address"
        }
      ],
      "stateMutability": "view",
      "type": "function"
    },
    {
      "inputs": [
        {
          "internalType": "bytes32",
          "name": "tag",
          "type": "bytes32"
        }
      ],
      "name": "DAOGetBool",
      "outputs": [
        {
          "internalType": "bool",
          "name": "data",
          "type": "bool"
        }
      ],
      "stateMutability": "view",
      "type": "function"
    },
    {
      "inputs": [
        {
          "internalType": "bytes32",
          "name": "tag",
          "type": "bytes32"
        }
      ],
      "name": "DAOGetBytes",
      "outputs": [
        {
          "internalType": "bytes",
          "name": "data",
          "type": "bytes"
        }
      ],
      "stateMutability": "view",
      "type": "function"
    },
    {
      "inputs": [
        {
          "internalType": "bytes32",
          "name": "tag",
          "type": "bytes32"
        }
      ],
      "name": "DAOGetInt",
      "outputs": [
        {
          "internalType": "int256",
          "name": "data",
          "type": "int256"
        }
      ],
      "stateMutability": "view",
      "type": "function"
    },
    {
      "inputs": [
        {
          "internalType": "bytes32",
          "name": "tag",
          "type": "bytes32"
        }
      ],
      "name": "DAOGetString",
      "outputs": [
        {
          "internalType": "string",
          "name": "data",
          "type": "string"
        }
      ],
      "stateMutability": "view",
      "type": "function"
    },
    {
      "inputs": [
        {
          "internalType": "bytes32",
          "name": "tag",
          "type": "bytes32"
        }
      ],
      "name": "DAOGetUint",
      "outputs": [
        {
          "internalType": "uint256",
          "name": "data",
          "type": "uint256"
        }
      ],
      "stateMutability": "view",
      "type": "function"
    },
    {
      "inputs": [],
      "name": "EthSupply",
      "outputs": [
        {
          "internalType": "uint256",
          "name": "",
          "type": "uint256"
        }
      ],
      "stateMutability": "view",
      "type": "function"
    },
    {
      "inputs": [],
      "name": "LOTTToken",
      "outputs": [
        {
          "internalType": "contract ILOTT",
          "name": "",
          "type": "address"
        }
      ],
      "stateMutability": "view",
      "type": "function"
    },
    {
      "inputs": [
        {
          "internalType": "address",
          "name": "signer",
          "type": "address"
        },
        {
          "internalType": "address",
          "name": "presenter",
          "type": "address"
        },
        {
          "internalType": "bool",
          "name": "pureSign",
          "type": "bool"
        }
      ],
      "name": "registerSign",
      "outputs": [
        {
          "internalType": "bool",
          "name": "completed",
          "type": "bool"
        }
      ],
      "stateMutability": "payable",
      "type": "function"
    },
    {
      "inputs": [
        {
          "internalType": "address payable",
          "name": "receiver",
          "type": "address"
        },
        {
          "internalType": "uint256",
          "name": "amount",
          "type": "uint256"
        }
      ],
      "name": "withdrawEth",
      "outputs": [],
      "stateMutability": "nonpayable",
      "type": "function"
    }
  ],
  "bytecode": "0x60a060405273245caa689fa16ab50df4e8ab48555715877f79ff73ffffffffffffffffffffffffffffffffffffffff1660809073ffffffffffffffffffffffffffffffffffffffff1681525034801561005757600080fd5b5060805161169e61007360003960006107fb015261169e6000f3fe60806040526004361061009c5760003560e01c80636e08ca2e116100645780636e08ca2e146101ac57806398fabd3a146101e95780639ac7824c14610214578063afdac18a14610244578063cf16891514610281578063e2330b62146102ac5761009c565b8063025ec49a146100a15780631288805e146100de5780631b9a91a414610109578063482fa043146101325780635dbe43f21461016f575b600080fd5b3480156100ad57600080fd5b506100c860048036038101906100c39190610e22565b6102e9565b6040516100d59190610e6a565b60405180910390f35b3480156100ea57600080fd5b506100f3610417565b6040516101009190610e9e565b60405180910390f35b34801561011557600080fd5b50610130600480360381019061012b9190610f43565b61041f565b005b34801561013e57600080fd5b5061015960048036038101906101549190610e22565b61046a565b604051610166919061101c565b60405180910390f35b34801561017b57600080fd5b5061019660048036038101906101919190610e22565b610598565b6040516101a3919061105f565b60405180910390f35b3480156101b857600080fd5b506101d360048036038101906101ce9190610e22565b6106c6565b6040516101e091906110cf565b60405180910390f35b3480156101f557600080fd5b506101fe6107f4565b60405161020b919061105f565b60405180910390f35b61022e60048036038101906102299190611149565b61092e565b60405161023b9190610e6a565b60405180910390f35b34801561025057600080fd5b5061026b60048036038101906102669190610e22565b610b47565b60405161027891906111b5565b60405180910390f35b34801561028d57600080fd5b50610296610c75565b6040516102a3919061122f565b60405180910390f35b3480156102b857600080fd5b506102d360048036038101906102ce9190610e22565b610caa565b6040516102e09190610e9e565b60405180910390f35b60008060006102f66107f4565b73ffffffffffffffffffffffffffffffffffffffff168460405160240161031d9190611259565b6040516020818303038152906040527f7ae1cfca000000000000000000000000000000000000000000000000000000007bffffffffffffffffffffffffffffffffffffffffffffffffffffffff19166020820180517bffffffffffffffffffffffffffffffffffffffffffffffffffffffff83818316178352505050506040516103a791906112b0565b600060405180830381855afa9150503d80600081146103e2576040519150601f19603f3d011682016040523d82523d6000602084013e6103e7565b606091505b5091509150811561040f578080602001905181019061040691906112dc565b92505050610412565b50505b919050565b600047905090565b8173ffffffffffffffffffffffffffffffffffffffff166108fc829081150290604051600060405180830381858888f19350505050158015610465573d6000803e3d6000fd5b505050565b60606000806104776107f4565b73ffffffffffffffffffffffffffffffffffffffff168460405160240161049e9190611259565b6040516020818303038152906040527f3848207a000000000000000000000000000000000000000000000000000000007bffffffffffffffffffffffffffffffffffffffffffffffffffffffff19166020820180517bffffffffffffffffffffffffffffffffffffffffffffffffffffffff838183161783525050505060405161052891906112b0565b600060405180830381855afa9150503d8060008114610563576040519150601f19603f3d011682016040523d82523d6000602084013e610568565b606091505b509150915081156105905780806020019051810190610587919061142f565b92505050610593565b50505b919050565b60008060006105a56107f4565b73ffffffffffffffffffffffffffffffffffffffff16846040516024016105cc9190611259565b6040516020818303038152906040527f21f8a721000000000000000000000000000000000000000000000000000000007bffffffffffffffffffffffffffffffffffffffffffffffffffffffff19166020820180517bffffffffffffffffffffffffffffffffffffffffffffffffffffffff838183161783525050505060405161065691906112b0565b600060405180830381855afa9150503d8060008114610691576040519150601f19603f3d011682016040523d82523d6000602084013e610696565b606091505b509150915081156106be57808060200190518101906106b5919061148d565b925050506106c1565b50505b919050565b60606000806106d36107f4565b73ffffffffffffffffffffffffffffffffffffffff16846040516024016106fa9190611259565b6040516020818303038152906040527f986e791a000000000000000000000000000000000000000000000000000000007bffffffffffffffffffffffffffffffffffffffffffffffffffffffff19166020820180517bffffffffffffffffffffffffffffffffffffffffffffffffffffffff838183161783525050505060405161078491906112b0565b600060405180830381855afa9150503d80600081146107bf576040519150601f19603f3d011682016040523d82523d6000602084013e6107c4565b606091505b509150915081156107ec57808060200190518101906107e3919061155b565b925050506107ef565b50505b919050565b60008060007f000000000000000000000000000000000000000000000000000000000000000073ffffffffffffffffffffffffffffffffffffffff166040516024016040516020818303038152906040527f98fabd3a000000000000000000000000000000000000000000000000000000007bffffffffffffffffffffffffffffffffffffffffffffffffffffffff19166020820180517bffffffffffffffffffffffffffffffffffffffffffffffffffffffff83818316178352505050506040516108c091906112b0565b600060405180830381855afa9150503d80600081146108fb576040519150601f19603f3d011682016040523d82523d6000602084013e610900565b606091505b50915091508115610928578080602001905181019061091f919061148d565b9250505061092b565b50505b90565b600080610939610c75565b905082156109db578073ffffffffffffffffffffffffffffffffffffffff166340c10f19866109877fd7715c0b02bc841419f6cb444bb04801517126d31f0b17ac286c998e31ccc42a610caa565b6040518363ffffffff1660e01b81526004016109a49291906115a4565b600060405180830381600087803b1580156109be57600080fd5b505af11580156109d2573d6000803e3d6000fd5b50505050610a71565b8073ffffffffffffffffffffffffffffffffffffffff166340c10f1985610a217f64060b2ae7e98b84ab1bb76f21ec7fb12b1685b5c1a88449f24d7fc4039452f1610caa565b6040518363ffffffff1660e01b8152600401610a3e9291906115a4565b600060405180830381600087803b158015610a5857600080fd5b505af1158015610a6c573d6000803e3d6000fd5b505050505b600073ffffffffffffffffffffffffffffffffffffffff168473ffffffffffffffffffffffffffffffffffffffff1614610b3b578073ffffffffffffffffffffffffffffffffffffffff166340c10f1985610aeb7f595dab7ae9b2fe8911b53fe145465b2aa15afcac4d95e8df8c49d8f9ea7635c0610caa565b6040518363ffffffff1660e01b8152600401610b089291906115a4565b600060405180830381600087803b158015610b2257600080fd5b505af1158015610b36573d6000803e3d6000fd5b505050505b60019150509392505050565b6000806000610b546107f4565b73ffffffffffffffffffffffffffffffffffffffff1684604051602401610b7b9190611259565b6040516020818303038152906040527f33598b00000000000000000000000000000000000000000000000000000000007bffffffffffffffffffffffffffffffffffffffffffffffffffffffff19166020820180517bffffffffffffffffffffffffffffffffffffffffffffffffffffffff8381831617835250505050604051610c0591906112b0565b600060405180830381855afa9150503d8060008114610c40576040519150601f19603f3d011682016040523d82523d6000602084013e610c45565b606091505b50915091508115610c6d5780806020019051810190610c6491906115f9565b92505050610c70565b50505b919050565b600080610ca17f598f60ced2bf58c15c9df0b610ba22ad31b326c7718d32609ed643dcaafc8f0f610598565b90508091505090565b6000806000610cb76107f4565b73ffffffffffffffffffffffffffffffffffffffff1684604051602401610cde9190611259565b6040516020818303038152906040527f33598b00000000000000000000000000000000000000000000000000000000007bffffffffffffffffffffffffffffffffffffffffffffffffffffffff19166020820180517bffffffffffffffffffffffffffffffffffffffffffffffffffffffff8381831617835250505050604051610d6891906112b0565b600060405180830381855afa9150503d8060008114610da3576040519150601f19603f3d011682016040523d82523d6000602084013e610da8565b606091505b50915091508115610dd05780806020019051810190610dc7919061163b565b92505050610dd3565b50505b919050565b6000604051905090565b600080fd5b600080fd5b6000819050919050565b610dff81610dec565b8114610e0a57600080fd5b50565b600081359050610e1c81610df6565b92915050565b600060208284031215610e3857610e37610de2565b5b6000610e4684828501610e0d565b91505092915050565b60008115159050919050565b610e6481610e4f565b82525050565b6000602082019050610e7f6000830184610e5b565b92915050565b6000819050919050565b610e9881610e85565b82525050565b6000602082019050610eb36000830184610e8f565b92915050565b600073ffffffffffffffffffffffffffffffffffffffff82169050919050565b6000610ee482610eb9565b9050919050565b610ef481610ed9565b8114610eff57600080fd5b50565b600081359050610f1181610eeb565b92915050565b610f2081610e85565b8114610f2b57600080fd5b50565b600081359050610f3d81610f17565b92915050565b60008060408385031215610f5a57610f59610de2565b5b6000610f6885828601610f02565b9250506020610f7985828601610f2e565b9150509250929050565b600081519050919050565b600082825260208201905092915050565b60005b83811015610fbd578082015181840152602081019050610fa2565b83811115610fcc576000848401525b50505050565b6000601f19601f8301169050919050565b6000610fee82610f83565b610ff88185610f8e565b9350611008818560208601610f9f565b61101181610fd2565b840191505092915050565b600060208201905081810360008301526110368184610fe3565b905092915050565b600061104982610eb9565b9050919050565b6110598161103e565b82525050565b60006020820190506110746000830184611050565b92915050565b600081519050919050565b600082825260208201905092915050565b60006110a18261107a565b6110ab8185611085565b93506110bb818560208601610f9f565b6110c481610fd2565b840191505092915050565b600060208201905081810360008301526110e98184611096565b905092915050565b6110fa8161103e565b811461110557600080fd5b50565b600081359050611117816110f1565b92915050565b61112681610e4f565b811461113157600080fd5b50565b6000813590506111438161111d565b92915050565b60008060006060848603121561116257611161610de2565b5b600061117086828701611108565b935050602061118186828701611108565b925050604061119286828701611134565b9150509250925092565b6000819050919050565b6111af8161119c565b82525050565b60006020820190506111ca60008301846111a6565b92915050565b6000819050919050565b60006111f56111f06111eb84610eb9565b6111d0565b610eb9565b9050919050565b6000611207826111da565b9050919050565b6000611219826111fc565b9050919050565b6112298161120e565b82525050565b60006020820190506112446000830184611220565b92915050565b61125381610dec565b82525050565b600060208201905061126e600083018461124a565b92915050565b600081905092915050565b600061128a82610f83565b6112948185611274565b93506112a4818560208601610f9f565b80840191505092915050565b60006112bc828461127f565b915081905092915050565b6000815190506112d68161111d565b92915050565b6000602082840312156112f2576112f1610de2565b5b6000611300848285016112c7565b91505092915050565b600080fd5b600080fd5b7f4e487b7100000000000000000000000000000000000000000000000000000000600052604160045260246000fd5b61134b82610fd2565b810181811067ffffffffffffffff8211171561136a57611369611313565b5b80604052505050565b600061137d610dd8565b90506113898282611342565b919050565b600067ffffffffffffffff8211156113a9576113a8611313565b5b6113b282610fd2565b9050602081019050919050565b60006113d26113cd8461138e565b611373565b9050828152602081018484840111156113ee576113ed61130e565b5b6113f9848285610f9f565b509392505050565b600082601f83011261141657611415611309565b5b81516114268482602086016113bf565b91505092915050565b60006020828403121561144557611444610de2565b5b600082015167ffffffffffffffff81111561146357611462610de7565b5b61146f84828501611401565b91505092915050565b60008151905061148781610eeb565b92915050565b6000602082840312156114a3576114a2610de2565b5b60006114b184828501611478565b91505092915050565b600067ffffffffffffffff8211156114d5576114d4611313565b5b6114de82610fd2565b9050602081019050919050565b60006114fe6114f9846114ba565b611373565b90508281526020810184848401111561151a5761151961130e565b5b611525848285610f9f565b509392505050565b600082601f83011261154257611541611309565b5b81516115528482602086016114eb565b91505092915050565b60006020828403121561157157611570610de2565b5b600082015167ffffffffffffffff81111561158f5761158e610de7565b5b61159b8482850161152d565b91505092915050565b60006040820190506115b96000830185611050565b6115c66020830184610e8f565b9392505050565b6115d68161119c565b81146115e157600080fd5b50565b6000815190506115f3816115cd565b92915050565b60006020828403121561160f5761160e610de2565b5b600061161d848285016115e4565b91505092915050565b60008151905061163581610f17565b92915050565b60006020828403121561165157611650610de2565b5b600061165f84828501611626565b9150509291505056fea264697066735822122013b6d4e093431908638e6d1f5cd4010f089c3e488f2a265984b78b1616f6514164736f6c63430008090033",
  "linkReferences": {},
  "deployedLinkReferences": {}
}