{
  "_format": "hh-sol-artifact-1",
  "contractName": "RandomNumberConsumer",
  "sourceName": "contracts/RandomNumberConsumer.sol",
  "abi": [
    {
      "inputs": [],
      "stateMutability": "nonpayable",
      "type": "constructor"
    },
    {
      "anonymous": false,
      "inputs": [
        {
          "indexed": true,
          "internalType": "address",
          "name": "previousOwner",
          "type": "address"
        },
        {
          "indexed": true,
          "internalType": "address",
          "name": "newOwner",
          "type": "address"
        }
      ],
      "name": "OwnershipTransferred",
      "type": "event"
    },
    {
      "anonymous": false,
      "inputs": [
        {
          "indexed": false,
          "internalType": "bytes32",
          "name": "requestId",
          "type": "bytes32"
        }
      ],
      "name": "Request",
      "type": "event"
    },
    {
      "anonymous": false,
      "inputs": [
        {
          "indexed": false,
          "internalType": "bool",
          "name": "success",
          "type": "bool"
        },
        {
          "indexed": false,
          "internalType": "bytes",
          "name": "data",
          "type": "bytes"
        }
      ],
      "name": "Response",
      "type": "event"
    },
    {
      "inputs": [],
      "name": "appFee",
      "outputs": [
        {
          "internalType": "uint256",
          "name": "",
          "type": "uint256"
        }
      ],
      "stateMutability": "view",
      "type": "function"
    },
    {
      "inputs": [
        {
          "internalType": "bytes32",
          "name": "",
          "type": "bytes32"
        }
      ],
      "name": "applicants",
      "outputs": [
        {
          "internalType": "address",
          "name": "contractAddress",
          "type": "address"
        },
        {
          "internalType": "bytes4",
          "name": "callBackSelector",
          "type": "bytes4"
        },
        {
          "internalType": "uint256",
          "name": "randomResult",
          "type": "uint256"
        }
      ],
      "stateMutability": "view",
      "type": "function"
    },
    {
      "inputs": [
        {
          "internalType": "bytes4",
          "name": "_callBackSelector",
          "type": "bytes4"
        }
      ],
      "name": "getRandomNumber",
      "outputs": [
        {
          "internalType": "bytes32",
          "name": "requestId",
          "type": "bytes32"
        }
      ],
      "stateMutability": "payable",
      "type": "function"
    },
    {
      "inputs": [],
      "name": "linkSupply",
      "outputs": [
        {
          "internalType": "uint256",
          "name": "",
          "type": "uint256"
        }
      ],
      "stateMutability": "view",
      "type": "function"
    },
    {
      "inputs": [],
      "name": "owner",
      "outputs": [
        {
          "internalType": "address",
          "name": "",
          "type": "address"
        }
      ],
      "stateMutability": "view",
      "type": "function"
    },
    {
      "inputs": [
        {
          "internalType": "bytes32",
          "name": "requestId",
          "type": "bytes32"
        },
        {
          "internalType": "uint256",
          "name": "randomness",
          "type": "uint256"
        }
      ],
      "name": "rawFulfillRandomness",
      "outputs": [],
      "stateMutability": "nonpayable",
      "type": "function"
    },
    {
      "inputs": [],
      "name": "renounceOwnership",
      "outputs": [],
      "stateMutability": "nonpayable",
      "type": "function"
    },
    {
      "inputs": [],
      "name": "totalSupply",
      "outputs": [
        {
          "internalType": "uint256",
          "name": "",
          "type": "uint256"
        }
      ],
      "stateMutability": "view",
      "type": "function"
    },
    {
      "inputs": [
        {
          "internalType": "address",
          "name": "newOwner",
          "type": "address"
        }
      ],
      "name": "transferOwnership",
      "outputs": [],
      "stateMutability": "nonpayable",
      "type": "function"
    },
    {
      "inputs": [],
      "name": "withdrawCash",
      "outputs": [],
      "stateMutability": "nonpayable",
      "type": "function"
    },
    {
      "inputs": [
        {
          "internalType": "uint256",
          "name": "amount",
          "type": "uint256"
        }
      ],
      "name": "withdrawLink",
      "outputs": [],
      "stateMutability": "nonpayable",
      "type": "function"
    }
  ],
  "bytecode": "0x60c060405234801561001057600080fd5b50733d2341adb2d31f1c5530cdc622016af293177ae073b0897686c545045afc77cf20ec7a532e3120e0f18173ffffffffffffffffffffffffffffffffffffffff1660a08173ffffffffffffffffffffffffffffffffffffffff16815250508073ffffffffffffffffffffffffffffffffffffffff1660808173ffffffffffffffffffffffffffffffffffffffff168152505050506100c16100b661010b60201b60201c565b61011360201b60201c565b7ff86195cf7690c55907b2b611ebb7343a6f649bff128701cc542f0569e2c549da60001b600281905550655af3107a4000600381905550662386f26fc100006004819055506101d9565b600033905090565b6000600160009054906101000a900473ffffffffffffffffffffffffffffffffffffffff16905081600160006101000a81548173ffffffffffffffffffffffffffffffffffffffff021916908373ffffffffffffffffffffffffffffffffffffffff1602179055508173ffffffffffffffffffffffffffffffffffffffff168173ffffffffffffffffffffffffffffffffffffffff167f8be0079c531659141344cd1fd0a4f28419497f9722a3daafe3b4186f6b6457e060405160405180910390a35050565b60805160a0516117f861021a6000396000818161053a0152610c4b015260008181610385015281816105d8015281816107830152610c0f01526117f86000f3fe60806040526004361061009c5760003560e01c80638da5cb5b116100645780638da5cb5b1461014e57806394985ddd14610179578063ddc58991146101a2578063f2fde38b146101cd578063f5d34f23146101f6578063fb9cc957146102265761009c565b806318160ddd146100a157806370160fc5146100cc578063715018a6146100f75780637a8042bd1461010e578063884fa9a514610137575b600080fd5b3480156100ad57600080fd5b506100b6610265565b6040516100c39190610f0f565b60405180910390f35b3480156100d857600080fd5b506100e161026d565b6040516100ee9190610f0f565b60405180910390f35b34801561010357600080fd5b5061010c610273565b005b34801561011a57600080fd5b5061013560048036038101906101309190610f5b565b6102fb565b005b34801561014357600080fd5b5061014c610435565b005b34801561015a57600080fd5b5061016361050e565b6040516101709190610fc9565b60405180910390f35b34801561018557600080fd5b506101a0600480360381019061019b919061101a565b610538565b005b3480156101ae57600080fd5b506101b76105d4565b6040516101c49190610f0f565b60405180910390f35b3480156101d957600080fd5b506101f460048036038101906101ef9190611086565b610684565b005b610210600480360381019061020b919061110b565b61077c565b60405161021d9190611147565b60405180910390f35b34801561023257600080fd5b5061024d60048036038101906102489190611162565b6109d8565b60405161025c9392919061119e565b60405180910390f35b600047905090565b60045481565b61027b610a2f565b73ffffffffffffffffffffffffffffffffffffffff1661029961050e565b73ffffffffffffffffffffffffffffffffffffffff16146102ef576040517f08c379a00000000000000000000000000000000000000000000000000000000081526004016102e690611232565b60405180910390fd5b6102f96000610a37565b565b610303610a2f565b73ffffffffffffffffffffffffffffffffffffffff1661032161050e565b73ffffffffffffffffffffffffffffffffffffffff1614610377576040517f08c379a000000000000000000000000000000000000000000000000000000000815260040161036e90611232565b60405180910390fd5b600061038161050e565b90507f000000000000000000000000000000000000000000000000000000000000000073ffffffffffffffffffffffffffffffffffffffff1663a9059cbb82846040518363ffffffff1660e01b81526004016103de929190611252565b602060405180830381600087803b1580156103f857600080fd5b505af115801561040c573d6000803e3d6000fd5b505050506040513d601f19601f8201168201806040525081019061043091906112b3565b505050565b61043d610a2f565b73ffffffffffffffffffffffffffffffffffffffff1661045b61050e565b73ffffffffffffffffffffffffffffffffffffffff16146104b1576040517f08c379a00000000000000000000000000000000000000000000000000000000081526004016104a890611232565b60405180910390fd5b60006104bb61050e565b90508073ffffffffffffffffffffffffffffffffffffffff166108fc6104df610265565b9081150290604051600060405180830381858888f1935050505015801561050a573d6000803e3d6000fd5b5050565b6000600160009054906101000a900473ffffffffffffffffffffffffffffffffffffffff16905090565b7f000000000000000000000000000000000000000000000000000000000000000073ffffffffffffffffffffffffffffffffffffffff163373ffffffffffffffffffffffffffffffffffffffff16146105c6576040517f08c379a00000000000000000000000000000000000000000000000000000000081526004016105bd9061132c565b60405180910390fd5b6105d08282610afd565b5050565b60007f000000000000000000000000000000000000000000000000000000000000000073ffffffffffffffffffffffffffffffffffffffff166370a08231306040518263ffffffff1660e01b815260040161062f9190610fc9565b60206040518083038186803b15801561064757600080fd5b505afa15801561065b573d6000803e3d6000fd5b505050506040513d601f19601f8201168201806040525081019061067f9190611361565b905090565b61068c610a2f565b73ffffffffffffffffffffffffffffffffffffffff166106aa61050e565b73ffffffffffffffffffffffffffffffffffffffff1614610700576040517f08c379a00000000000000000000000000000000000000000000000000000000081526004016106f790611232565b60405180910390fd5b600073ffffffffffffffffffffffffffffffffffffffff168173ffffffffffffffffffffffffffffffffffffffff161415610770576040517f08c379a000000000000000000000000000000000000000000000000000000000815260040161076790611400565b60405180910390fd5b61077981610a37565b50565b60006003547f000000000000000000000000000000000000000000000000000000000000000073ffffffffffffffffffffffffffffffffffffffff166370a08231306040518263ffffffff1660e01b81526004016107da9190610fc9565b60206040518083038186803b1580156107f257600080fd5b505afa158015610806573d6000803e3d6000fd5b505050506040513d601f19601f8201168201806040525081019061082a9190611361565b101561086b576040517f08c379a00000000000000000000000000000000000000000000000000000000081526004016108629061146c565b60405180910390fd5b6004543410156108b0576040517f08c379a00000000000000000000000000000000000000000000000000000000081526004016108a7906114d8565b60405180910390fd5b6108be600254600354610c0b565b905060405180606001604052803373ffffffffffffffffffffffffffffffffffffffff168152602001837bffffffffffffffffffffffffffffffffffffffffffffffffffffffff1916815260200160008152506005600083815260200190815260200160002060008201518160000160006101000a81548173ffffffffffffffffffffffffffffffffffffffff021916908373ffffffffffffffffffffffffffffffffffffffff16021790555060208201518160000160146101000a81548163ffffffff021916908360e01c0217905550604082015181600101559050507f6f2c84d547103c34c868d8ad161cf5c513d18a7d50d65e15d16be17707f461ba816040516109cb9190611147565b60405180910390a1919050565b60056020528060005260406000206000915090508060000160009054906101000a900473ffffffffffffffffffffffffffffffffffffffff16908060000160149054906101000a900460e01b908060010154905083565b600033905090565b6000600160009054906101000a900473ffffffffffffffffffffffffffffffffffffffff16905081600160006101000a81548173ffffffffffffffffffffffffffffffffffffffff021916908373ffffffffffffffffffffffffffffffffffffffff1602179055508173ffffffffffffffffffffffffffffffffffffffff168173ffffffffffffffffffffffffffffffffffffffff167f8be0079c531659141344cd1fd0a4f28419497f9722a3daafe3b4186f6b6457e060405160405180910390a35050565b8060056000848152602001908152602001600020600101819055506000600560008481526020019081526020016000206040518060600160405290816000820160009054906101000a900473ffffffffffffffffffffffffffffffffffffffff1673ffffffffffffffffffffffffffffffffffffffff1673ffffffffffffffffffffffffffffffffffffffff1681526020016000820160149054906101000a900460e01b7bffffffffffffffffffffffffffffffffffffffffffffffffffffffff19167bffffffffffffffffffffffffffffffffffffffffffffffffffffffff191681526020016001820154815250509050610c06816000015182602001518360400151610d6a565b505050565b60007f000000000000000000000000000000000000000000000000000000000000000073ffffffffffffffffffffffffffffffffffffffff16634000aea07f000000000000000000000000000000000000000000000000000000000000000084866000604051602001610c7f9291906114f8565b6040516020818303038152906040526040518463ffffffff1660e01b8152600401610cac939291906115ba565b602060405180830381600087803b158015610cc657600080fd5b505af1158015610cda573d6000803e3d6000fd5b505050506040513d601f19601f82011682018060405250810190610cfe91906112b3565b506000610d208460003060008089815260200190815260200160002054610e87565b9050600160008086815260200190815260200160002054610d419190611627565b60008086815260200190815260200160002081905550610d618482610ec3565b91505092915050565b6000808473ffffffffffffffffffffffffffffffffffffffff168484604051602401610d969190610f0f565b604051602081830303815290604052907bffffffffffffffffffffffffffffffffffffffffffffffffffffffff19166020820180517bffffffffffffffffffffffffffffffffffffffffffffffffffffffff8381831617835250505050604051610e0091906116b9565b6000604051808303816000865af19150503d8060008114610e3d576040519150601f19603f3d011682016040523d82523d6000602084013e610e42565b606091505b50915091507f13848c3e38f8886f3f5d2ad9dff80d8092c2bbb8efd5b887a99c2c6cfc09ac2a8282604051610e789291906116df565b60405180910390a15050505050565b600084848484604051602001610ea0949392919061170f565b6040516020818303038152906040528051906020012060001c9050949350505050565b60008282604051602001610ed8929190611796565b60405160208183030381529060405280519060200120905092915050565b6000819050919050565b610f0981610ef6565b82525050565b6000602082019050610f246000830184610f00565b92915050565b600080fd5b610f3881610ef6565b8114610f4357600080fd5b50565b600081359050610f5581610f2f565b92915050565b600060208284031215610f7157610f70610f2a565b5b6000610f7f84828501610f46565b91505092915050565b600073ffffffffffffffffffffffffffffffffffffffff82169050919050565b6000610fb382610f88565b9050919050565b610fc381610fa8565b82525050565b6000602082019050610fde6000830184610fba565b92915050565b6000819050919050565b610ff781610fe4565b811461100257600080fd5b50565b60008135905061101481610fee565b92915050565b6000806040838503121561103157611030610f2a565b5b600061103f85828601611005565b925050602061105085828601610f46565b9150509250929050565b61106381610fa8565b811461106e57600080fd5b50565b6000813590506110808161105a565b92915050565b60006020828403121561109c5761109b610f2a565b5b60006110aa84828501611071565b91505092915050565b60007fffffffff0000000000000000000000000000000000000000000000000000000082169050919050565b6110e8816110b3565b81146110f357600080fd5b50565b600081359050611105816110df565b92915050565b60006020828403121561112157611120610f2a565b5b600061112f848285016110f6565b91505092915050565b61114181610fe4565b82525050565b600060208201905061115c6000830184611138565b92915050565b60006020828403121561117857611177610f2a565b5b600061118684828501611005565b91505092915050565b611198816110b3565b82525050565b60006060820190506111b36000830186610fba565b6111c0602083018561118f565b6111cd6040830184610f00565b949350505050565b600082825260208201905092915050565b7f4f776e61626c653a2063616c6c6572206973206e6f7420746865206f776e6572600082015250565b600061121c6020836111d5565b9150611227826111e6565b602082019050919050565b6000602082019050818103600083015261124b8161120f565b9050919050565b60006040820190506112676000830185610fba565b6112746020830184610f00565b9392505050565b60008115159050919050565b6112908161127b565b811461129b57600080fd5b50565b6000815190506112ad81611287565b92915050565b6000602082840312156112c9576112c8610f2a565b5b60006112d78482850161129e565b91505092915050565b7f4f6e6c7920565246436f6f7264696e61746f722063616e2066756c66696c6c00600082015250565b6000611316601f836111d5565b9150611321826112e0565b602082019050919050565b6000602082019050818103600083015261134581611309565b9050919050565b60008151905061135b81610f2f565b92915050565b60006020828403121561137757611376610f2a565b5b60006113858482850161134c565b91505092915050565b7f4f776e61626c653a206e6577206f776e657220697320746865207a65726f206160008201527f6464726573730000000000000000000000000000000000000000000000000000602082015250565b60006113ea6026836111d5565b91506113f58261138e565b604082019050919050565b60006020820190508181036000830152611419816113dd565b9050919050565b7f4e6f7420656e6f756768204c494e4b0000000000000000000000000000000000600082015250565b6000611456600f836111d5565b915061146182611420565b602082019050919050565b6000602082019050818103600083015261148581611449565b9050919050565b7f4e6f7420656e6f756768204d6174696300000000000000000000000000000000600082015250565b60006114c26010836111d5565b91506114cd8261148c565b602082019050919050565b600060208201905081810360008301526114f1816114b5565b9050919050565b600060408201905061150d6000830185611138565b61151a6020830184610f00565b9392505050565b600081519050919050565b600082825260208201905092915050565b60005b8381101561155b578082015181840152602081019050611540565b8381111561156a576000848401525b50505050565b6000601f19601f8301169050919050565b600061158c82611521565b611596818561152c565b93506115a681856020860161153d565b6115af81611570565b840191505092915050565b60006060820190506115cf6000830186610fba565b6115dc6020830185610f00565b81810360408301526115ee8184611581565b9050949350505050565b7f4e487b7100000000000000000000000000000000000000000000000000000000600052601160045260246000fd5b600061163282610ef6565b915061163d83610ef6565b9250827fffffffffffffffffffffffffffffffffffffffffffffffffffffffffffffffff03821115611672576116716115f8565b5b828201905092915050565b600081905092915050565b600061169382611521565b61169d818561167d565b93506116ad81856020860161153d565b80840191505092915050565b60006116c58284611688565b915081905092915050565b6116d98161127b565b82525050565b60006040820190506116f460008301856116d0565b81810360208301526117068184611581565b90509392505050565b60006080820190506117246000830187611138565b6117316020830186610f00565b61173e6040830185610fba565b61174b6060830184610f00565b95945050505050565b6000819050919050565b61176f61176a82610fe4565b611754565b82525050565b6000819050919050565b61179061178b82610ef6565b611775565b82525050565b60006117a2828561175e565b6020820191506117b2828461177f565b602082019150819050939250505056fea264697066735822122054c2824d6d78528412d2ba68518582e216b5f3d23741f1f6d7c0f63b45e744eb64736f6c63430008090033",
  "linkReferences": {},
  "deployedLinkReferences": {}
}