{
  "_format": "hh-sol-artifact-1",
  "contractName": "RandomNumberConsumer",
  "sourceName": "contracts/RandomNumberConsumer.sol",
  "abi": [
    {
      "inputs": [],
      "stateMutability": "nonpayable",
      "type": "constructor"
    },
    {
      "anonymous": false,
      "inputs": [
        {
          "indexed": true,
          "internalType": "address",
          "name": "previousOwner",
          "type": "address"
        },
        {
          "indexed": true,
          "internalType": "address",
          "name": "newOwner",
          "type": "address"
        }
      ],
      "name": "OwnershipTransferred",
      "type": "event"
    },
    {
      "anonymous": false,
      "inputs": [
        {
          "indexed": false,
          "internalType": "bytes32",
          "name": "requestId",
          "type": "bytes32"
        }
      ],
      "name": "Request",
      "type": "event"
    },
    {
      "anonymous": false,
      "inputs": [
        {
          "indexed": false,
          "internalType": "bytes",
          "name": "data",
          "type": "bytes"
        }
      ],
      "name": "Response",
      "type": "event"
    },
    {
      "inputs": [],
      "name": "appFee",
      "outputs": [
        {
          "internalType": "uint256",
          "name": "",
          "type": "uint256"
        }
      ],
      "stateMutability": "view",
      "type": "function"
    },
    {
      "inputs": [
        {
          "internalType": "bytes32",
          "name": "",
          "type": "bytes32"
        }
      ],
      "name": "applicants",
      "outputs": [
        {
          "internalType": "address",
          "name": "contractAddress",
          "type": "address"
        },
        {
          "internalType": "bytes4",
          "name": "callBackSelector",
          "type": "bytes4"
        },
        {
          "internalType": "uint256",
          "name": "randomResult",
          "type": "uint256"
        }
      ],
      "stateMutability": "view",
      "type": "function"
    },
    {
      "inputs": [
        {
          "internalType": "bytes4",
          "name": "_callBackSelector",
          "type": "bytes4"
        }
      ],
      "name": "getRandomNumber",
      "outputs": [
        {
          "internalType": "bytes32",
          "name": "requestId",
          "type": "bytes32"
        }
      ],
      "stateMutability": "payable",
      "type": "function"
    },
    {
      "inputs": [],
      "name": "linkSupply",
      "outputs": [
        {
          "internalType": "uint256",
          "name": "",
          "type": "uint256"
        }
      ],
      "stateMutability": "view",
      "type": "function"
    },
    {
      "inputs": [],
      "name": "owner",
      "outputs": [
        {
          "internalType": "address",
          "name": "",
          "type": "address"
        }
      ],
      "stateMutability": "view",
      "type": "function"
    },
    {
      "inputs": [
        {
          "internalType": "bytes32",
          "name": "requestId",
          "type": "bytes32"
        },
        {
          "internalType": "uint256",
          "name": "randomness",
          "type": "uint256"
        }
      ],
      "name": "rawFulfillRandomness",
      "outputs": [],
      "stateMutability": "nonpayable",
      "type": "function"
    },
    {
      "inputs": [],
      "name": "renounceOwnership",
      "outputs": [],
      "stateMutability": "nonpayable",
      "type": "function"
    },
    {
      "inputs": [],
      "name": "totalSupply",
      "outputs": [
        {
          "internalType": "uint256",
          "name": "",
          "type": "uint256"
        }
      ],
      "stateMutability": "view",
      "type": "function"
    },
    {
      "inputs": [
        {
          "internalType": "address",
          "name": "newOwner",
          "type": "address"
        }
      ],
      "name": "transferOwnership",
      "outputs": [],
      "stateMutability": "nonpayable",
      "type": "function"
    },
    {
      "inputs": [],
      "name": "withdrawCash",
      "outputs": [],
      "stateMutability": "nonpayable",
      "type": "function"
    },
    {
      "inputs": [
        {
          "internalType": "uint256",
          "name": "amount",
          "type": "uint256"
        }
      ],
      "name": "withdrawLink",
      "outputs": [],
      "stateMutability": "nonpayable",
      "type": "function"
    }
  ],
  "bytecode": "0x60c060405234801561001057600080fd5b50738c7382f9d8f56b33781fe506e897a4f1e2d1725573326c977e6efc84e512bb9c30f76e30c160ed06fb8173ffffffffffffffffffffffffffffffffffffffff1660a08173ffffffffffffffffffffffffffffffffffffffff16815250508073ffffffffffffffffffffffffffffffffffffffff1660808173ffffffffffffffffffffffffffffffffffffffff168152505050506100c16100b661010b60201b60201c565b61011360201b60201c565b7f6e75b569a01ef56d18cab6a8e71e6600d6ce853834d4a5748b720d06f878b3a460001b600281905550655af3107a4000600381905550662386f26fc100006004819055506101d9565b600033905090565b6000600160009054906101000a900473ffffffffffffffffffffffffffffffffffffffff16905081600160006101000a81548173ffffffffffffffffffffffffffffffffffffffff021916908373ffffffffffffffffffffffffffffffffffffffff1602179055508173ffffffffffffffffffffffffffffffffffffffff168173ffffffffffffffffffffffffffffffffffffffff167f8be0079c531659141344cd1fd0a4f28419497f9722a3daafe3b4186f6b6457e060405160405180910390a35050565b60805160a05161188561021a6000396000818161053a0152610c4b015260008181610385015281816105d8015281816107830152610c0f01526118856000f3fe60806040526004361061009c5760003560e01c80638da5cb5b116100645780638da5cb5b1461014e57806394985ddd14610179578063ddc58991146101a2578063f2fde38b146101cd578063f5d34f23146101f6578063fb9cc957146102265761009c565b806318160ddd146100a157806370160fc5146100cc578063715018a6146100f75780637a8042bd1461010e578063884fa9a514610137575b600080fd5b3480156100ad57600080fd5b506100b6610265565b6040516100c39190610f4d565b60405180910390f35b3480156100d857600080fd5b506100e161026d565b6040516100ee9190610f4d565b60405180910390f35b34801561010357600080fd5b5061010c610273565b005b34801561011a57600080fd5b5061013560048036038101906101309190610f99565b6102fb565b005b34801561014357600080fd5b5061014c610435565b005b34801561015a57600080fd5b5061016361050e565b6040516101709190611007565b60405180910390f35b34801561018557600080fd5b506101a0600480360381019061019b9190611058565b610538565b005b3480156101ae57600080fd5b506101b76105d4565b6040516101c49190610f4d565b60405180910390f35b3480156101d957600080fd5b506101f460048036038101906101ef91906110c4565b610684565b005b610210600480360381019061020b9190611149565b61077c565b60405161021d9190611185565b60405180910390f35b34801561023257600080fd5b5061024d600480360381019061024891906111a0565b6109d8565b60405161025c939291906111dc565b60405180910390f35b600047905090565b60045481565b61027b610a2f565b73ffffffffffffffffffffffffffffffffffffffff1661029961050e565b73ffffffffffffffffffffffffffffffffffffffff16146102ef576040517f08c379a00000000000000000000000000000000000000000000000000000000081526004016102e690611270565b60405180910390fd5b6102f96000610a37565b565b610303610a2f565b73ffffffffffffffffffffffffffffffffffffffff1661032161050e565b73ffffffffffffffffffffffffffffffffffffffff1614610377576040517f08c379a000000000000000000000000000000000000000000000000000000000815260040161036e90611270565b60405180910390fd5b600061038161050e565b90507f000000000000000000000000000000000000000000000000000000000000000073ffffffffffffffffffffffffffffffffffffffff1663a9059cbb82846040518363ffffffff1660e01b81526004016103de929190611290565b602060405180830381600087803b1580156103f857600080fd5b505af115801561040c573d6000803e3d6000fd5b505050506040513d601f19601f8201168201806040525081019061043091906112f1565b505050565b61043d610a2f565b73ffffffffffffffffffffffffffffffffffffffff1661045b61050e565b73ffffffffffffffffffffffffffffffffffffffff16146104b1576040517f08c379a00000000000000000000000000000000000000000000000000000000081526004016104a890611270565b60405180910390fd5b60006104bb61050e565b90508073ffffffffffffffffffffffffffffffffffffffff166108fc6104df610265565b9081150290604051600060405180830381858888f1935050505015801561050a573d6000803e3d6000fd5b5050565b6000600160009054906101000a900473ffffffffffffffffffffffffffffffffffffffff16905090565b7f000000000000000000000000000000000000000000000000000000000000000073ffffffffffffffffffffffffffffffffffffffff163373ffffffffffffffffffffffffffffffffffffffff16146105c6576040517f08c379a00000000000000000000000000000000000000000000000000000000081526004016105bd9061136a565b60405180910390fd5b6105d08282610afd565b5050565b60007f000000000000000000000000000000000000000000000000000000000000000073ffffffffffffffffffffffffffffffffffffffff166370a08231306040518263ffffffff1660e01b815260040161062f9190611007565b60206040518083038186803b15801561064757600080fd5b505afa15801561065b573d6000803e3d6000fd5b505050506040513d601f19601f8201168201806040525081019061067f919061139f565b905090565b61068c610a2f565b73ffffffffffffffffffffffffffffffffffffffff166106aa61050e565b73ffffffffffffffffffffffffffffffffffffffff1614610700576040517f08c379a00000000000000000000000000000000000000000000000000000000081526004016106f790611270565b60405180910390fd5b600073ffffffffffffffffffffffffffffffffffffffff168173ffffffffffffffffffffffffffffffffffffffff161415610770576040517f08c379a00000000000000000000000000000000000000000000000000000000081526004016107679061143e565b60405180910390fd5b61077981610a37565b50565b60006003547f000000000000000000000000000000000000000000000000000000000000000073ffffffffffffffffffffffffffffffffffffffff166370a08231306040518263ffffffff1660e01b81526004016107da9190611007565b60206040518083038186803b1580156107f257600080fd5b505afa158015610806573d6000803e3d6000fd5b505050506040513d601f19601f8201168201806040525081019061082a919061139f565b101561086b576040517f08c379a0000000000000000000000000000000000000000000000000000000008152600401610862906114aa565b60405180910390fd5b6004543410156108b0576040517f08c379a00000000000000000000000000000000000000000000000000000000081526004016108a790611516565b60405180910390fd5b6108be600254600354610c0b565b905060405180606001604052803373ffffffffffffffffffffffffffffffffffffffff168152602001837bffffffffffffffffffffffffffffffffffffffffffffffffffffffff1916815260200160008152506005600083815260200190815260200160002060008201518160000160006101000a81548173ffffffffffffffffffffffffffffffffffffffff021916908373ffffffffffffffffffffffffffffffffffffffff16021790555060208201518160000160146101000a81548163ffffffff021916908360e01c0217905550604082015181600101559050507f6f2c84d547103c34c868d8ad161cf5c513d18a7d50d65e15d16be17707f461ba816040516109cb9190611185565b60405180910390a1919050565b60056020528060005260406000206000915090508060000160009054906101000a900473ffffffffffffffffffffffffffffffffffffffff16908060000160149054906101000a900460e01b908060010154905083565b600033905090565b6000600160009054906101000a900473ffffffffffffffffffffffffffffffffffffffff16905081600160006101000a81548173ffffffffffffffffffffffffffffffffffffffff021916908373ffffffffffffffffffffffffffffffffffffffff1602179055508173ffffffffffffffffffffffffffffffffffffffff168173ffffffffffffffffffffffffffffffffffffffff167f8be0079c531659141344cd1fd0a4f28419497f9722a3daafe3b4186f6b6457e060405160405180910390a35050565b8060056000848152602001908152602001600020600101819055506000600560008481526020019081526020016000206040518060600160405290816000820160009054906101000a900473ffffffffffffffffffffffffffffffffffffffff1673ffffffffffffffffffffffffffffffffffffffff1673ffffffffffffffffffffffffffffffffffffffff1681526020016000820160149054906101000a900460e01b7bffffffffffffffffffffffffffffffffffffffffffffffffffffffff19167bffffffffffffffffffffffffffffffffffffffffffffffffffffffff191681526020016001820154815250509050610c06816000015182602001518360400151610d6a565b505050565b60007f000000000000000000000000000000000000000000000000000000000000000073ffffffffffffffffffffffffffffffffffffffff16634000aea07f000000000000000000000000000000000000000000000000000000000000000084866000604051602001610c7f929190611536565b6040516020818303038152906040526040518463ffffffff1660e01b8152600401610cac939291906115f8565b602060405180830381600087803b158015610cc657600080fd5b505af1158015610cda573d6000803e3d6000fd5b505050506040513d601f19601f82011682018060405250810190610cfe91906112f1565b506000610d208460003060008089815260200190815260200160002054610ec5565b9050600160008086815260200190815260200160002054610d419190611665565b60008086815260200190815260200160002081905550610d618482610f01565b91505092915050565b6000808473ffffffffffffffffffffffffffffffffffffffff168484604051602401610d969190610f4d565b604051602081830303815290604052907bffffffffffffffffffffffffffffffffffffffffffffffffffffffff19166020820180517bffffffffffffffffffffffffffffffffffffffffffffffffffffffff8381831617835250505050604051610e0091906116f7565b6000604051808303816000865af19150503d8060008114610e3d576040519150601f19603f3d011682016040523d82523d6000602084013e610e42565b606091505b509150915081610e87576040517f08c379a0000000000000000000000000000000000000000000000000000000008152600401610e7e9061175a565b60405180910390fd5b7f93864668e00bfeb0cafee67ab7145a622ae39e8045304432e9a0bfb97cc04d4681604051610eb6919061177a565b60405180910390a15050505050565b600084848484604051602001610ede949392919061179c565b6040516020818303038152906040528051906020012060001c9050949350505050565b60008282604051602001610f16929190611823565b60405160208183030381529060405280519060200120905092915050565b6000819050919050565b610f4781610f34565b82525050565b6000602082019050610f626000830184610f3e565b92915050565b600080fd5b610f7681610f34565b8114610f8157600080fd5b50565b600081359050610f9381610f6d565b92915050565b600060208284031215610faf57610fae610f68565b5b6000610fbd84828501610f84565b91505092915050565b600073ffffffffffffffffffffffffffffffffffffffff82169050919050565b6000610ff182610fc6565b9050919050565b61100181610fe6565b82525050565b600060208201905061101c6000830184610ff8565b92915050565b6000819050919050565b61103581611022565b811461104057600080fd5b50565b6000813590506110528161102c565b92915050565b6000806040838503121561106f5761106e610f68565b5b600061107d85828601611043565b925050602061108e85828601610f84565b9150509250929050565b6110a181610fe6565b81146110ac57600080fd5b50565b6000813590506110be81611098565b92915050565b6000602082840312156110da576110d9610f68565b5b60006110e8848285016110af565b91505092915050565b60007fffffffff0000000000000000000000000000000000000000000000000000000082169050919050565b611126816110f1565b811461113157600080fd5b50565b6000813590506111438161111d565b92915050565b60006020828403121561115f5761115e610f68565b5b600061116d84828501611134565b91505092915050565b61117f81611022565b82525050565b600060208201905061119a6000830184611176565b92915050565b6000602082840312156111b6576111b5610f68565b5b60006111c484828501611043565b91505092915050565b6111d6816110f1565b82525050565b60006060820190506111f16000830186610ff8565b6111fe60208301856111cd565b61120b6040830184610f3e565b949350505050565b600082825260208201905092915050565b7f4f776e61626c653a2063616c6c6572206973206e6f7420746865206f776e6572600082015250565b600061125a602083611213565b915061126582611224565b602082019050919050565b600060208201905081810360008301526112898161124d565b9050919050565b60006040820190506112a56000830185610ff8565b6112b26020830184610f3e565b9392505050565b60008115159050919050565b6112ce816112b9565b81146112d957600080fd5b50565b6000815190506112eb816112c5565b92915050565b60006020828403121561130757611306610f68565b5b6000611315848285016112dc565b91505092915050565b7f4f6e6c7920565246436f6f7264696e61746f722063616e2066756c66696c6c00600082015250565b6000611354601f83611213565b915061135f8261131e565b602082019050919050565b6000602082019050818103600083015261138381611347565b9050919050565b60008151905061139981610f6d565b92915050565b6000602082840312156113b5576113b4610f68565b5b60006113c38482850161138a565b91505092915050565b7f4f776e61626c653a206e6577206f776e657220697320746865207a65726f206160008201527f6464726573730000000000000000000000000000000000000000000000000000602082015250565b6000611428602683611213565b9150611433826113cc565b604082019050919050565b600060208201905081810360008301526114578161141b565b9050919050565b7f4e6f7420656e6f756768204c494e4b0000000000000000000000000000000000600082015250565b6000611494600f83611213565b915061149f8261145e565b602082019050919050565b600060208201905081810360008301526114c381611487565b9050919050565b7f4e6f7420656e6f756768204d6174696300000000000000000000000000000000600082015250565b6000611500601083611213565b915061150b826114ca565b602082019050919050565b6000602082019050818103600083015261152f816114f3565b9050919050565b600060408201905061154b6000830185611176565b6115586020830184610f3e565b9392505050565b600081519050919050565b600082825260208201905092915050565b60005b8381101561159957808201518184015260208101905061157e565b838111156115a8576000848401525b50505050565b6000601f19601f8301169050919050565b60006115ca8261155f565b6115d4818561156a565b93506115e481856020860161157b565b6115ed816115ae565b840191505092915050565b600060608201905061160d6000830186610ff8565b61161a6020830185610f3e565b818103604083015261162c81846115bf565b9050949350505050565b7f4e487b7100000000000000000000000000000000000000000000000000000000600052601160045260246000fd5b600061167082610f34565b915061167b83610f34565b9250827fffffffffffffffffffffffffffffffffffffffffffffffffffffffffffffffff038211156116b0576116af611636565b5b828201905092915050565b600081905092915050565b60006116d18261155f565b6116db81856116bb565b93506116eb81856020860161157b565b80840191505092915050565b600061170382846116c6565b915081905092915050565b7f436f756c64204e6f7420526573706f6e73652052616e646f6d6e657373000000600082015250565b6000611744601d83611213565b915061174f8261170e565b602082019050919050565b6000602082019050818103600083015261177381611737565b9050919050565b6000602082019050818103600083015261179481846115bf565b905092915050565b60006080820190506117b16000830187611176565b6117be6020830186610f3e565b6117cb6040830185610ff8565b6117d86060830184610f3e565b95945050505050565b6000819050919050565b6117fc6117f782611022565b6117e1565b82525050565b6000819050919050565b61181d61181882610f34565b611802565b82525050565b600061182f82856117eb565b60208201915061183f828461180c565b602082019150819050939250505056fea26469706673582212208d3abcac2dc2868e7aaba515ae3c0ff5e00a8f2144a151cbefca04ffeca7903564736f6c63430008090033",
  "linkReferences": {},
  "deployedLinkReferences": {}
}