{
  "_format": "hh-sol-artifact-1",
  "contractName": "SwapExamples",
  "sourceName": "contracts/swap/SwapSingleV3.sol",
  "abi": [
    {
      "inputs": [],
      "stateMutability": "nonpayable",
      "type": "constructor"
    },
    {
      "inputs": [],
      "name": "USDC",
      "outputs": [
        {
          "internalType": "address",
          "name": "",
          "type": "address"
        }
      ],
      "stateMutability": "view",
      "type": "function"
    },
    {
      "inputs": [],
      "name": "poolFee",
      "outputs": [
        {
          "internalType": "uint24",
          "name": "",
          "type": "uint24"
        }
      ],
      "stateMutability": "view",
      "type": "function"
    },
    {
      "inputs": [
        {
          "internalType": "address",
          "name": "_tokenIn",
          "type": "address"
        },
        {
          "internalType": "address",
          "name": "_tokenOut",
          "type": "address"
        },
        {
          "internalType": "uint256",
          "name": "amountIn",
          "type": "uint256"
        }
      ],
      "name": "swapExactInputSingle",
      "outputs": [
        {
          "internalType": "uint256",
          "name": "amountOut",
          "type": "uint256"
        }
      ],
      "stateMutability": "nonpayable",
      "type": "function"
    },
    {
      "inputs": [
        {
          "internalType": "address",
          "name": "_tokenIn",
          "type": "address"
        },
        {
          "internalType": "address",
          "name": "_tokenOut",
          "type": "address"
        },
        {
          "internalType": "uint256",
          "name": "amountOut",
          "type": "uint256"
        },
        {
          "internalType": "uint256",
          "name": "amountInMaximum",
          "type": "uint256"
        }
      ],
      "name": "swapExactOutputSingle",
      "outputs": [
        {
          "internalType": "uint256",
          "name": "amountIn",
          "type": "uint256"
        }
      ],
      "stateMutability": "nonpayable",
      "type": "function"
    },
    {
      "inputs": [],
      "name": "swapRouter",
      "outputs": [
        {
          "internalType": "contract ISwapRouter",
          "name": "",
          "type": "address"
        }
      ],
      "stateMutability": "view",
      "type": "function"
    }
  ],
  "bytecode": "0x60c060405234801561001057600080fd5b5073e592427a0aece92de3edee1f18e0157c0586156473ffffffffffffffffffffffffffffffffffffffff1660808173ffffffffffffffffffffffffffffffffffffffff168152505073a0b86991c6218b36c1d19d4a2e9eb0ce3606eb4873ffffffffffffffffffffffffffffffffffffffff1660a08173ffffffffffffffffffffffffffffffffffffffff168152505060805160a0516110636100e9600039600061011e01526000818161015401528181610219015281816102d20152818161031a01528181610350015261041601526110636000f3fe608060405234801561001057600080fd5b50600436106100575760003560e01c8063089fe6aa1461005c57806389a302711461007a578063bc96faa914610098578063c31c9c07146100c8578063ceb92012146100e6575b600080fd5b610064610116565b60405161007191906108e9565b60405180910390f35b61008261011c565b60405161008f9190610945565b60405180910390f35b6100b260048036038101906100ad91906109c7565b610140565b6040516100bf9190610a3d565b60405180910390f35b6100d0610318565b6040516100dd9190610ab7565b60405180910390f35b61010060048036038101906100fb9190610ad2565b61033c565b60405161010d9190610a3d565b60405180910390f35b610bb881565b7f000000000000000000000000000000000000000000000000000000000000000081565b600061014e853330856104c9565b610179857f000000000000000000000000000000000000000000000000000000000000000084610621565b60006040518061010001604052808773ffffffffffffffffffffffffffffffffffffffff1681526020018673ffffffffffffffffffffffffffffffffffffffff168152602001610bb862ffffff1681526020013373ffffffffffffffffffffffffffffffffffffffff168152602001428152602001858152602001848152602001600073ffffffffffffffffffffffffffffffffffffffff1681525090507f000000000000000000000000000000000000000000000000000000000000000073ffffffffffffffffffffffffffffffffffffffff1663db3e2198826040518263ffffffff1660e01b81526004016102709190610c03565b602060405180830381600087803b15801561028a57600080fd5b505af115801561029e573d6000803e3d6000fd5b505050506040513d601f19601f820116820180604052508101906102c29190610c34565b91508282101561030f576102f8867f00000000000000000000000000000000000000000000000000000000000000006000610621565b61030e863384866103099190610c90565b610776565b5b50949350505050565b7f000000000000000000000000000000000000000000000000000000000000000081565b600061034a843330856104c9565b610375847f000000000000000000000000000000000000000000000000000000000000000084610621565b60006040518061010001604052808673ffffffffffffffffffffffffffffffffffffffff1681526020018573ffffffffffffffffffffffffffffffffffffffff168152602001610bb862ffffff1681526020013373ffffffffffffffffffffffffffffffffffffffff16815260200142815260200184815260200160008152602001600073ffffffffffffffffffffffffffffffffffffffff1681525090507f000000000000000000000000000000000000000000000000000000000000000073ffffffffffffffffffffffffffffffffffffffff1663414bf389826040518263ffffffff1660e01b815260040161046d9190610d66565b602060405180830381600087803b15801561048757600080fd5b505af115801561049b573d6000803e3d6000fd5b505050506040513d601f19601f820116820180604052508101906104bf9190610c34565b9150509392505050565b6000808573ffffffffffffffffffffffffffffffffffffffff166323b872dd60e01b86868660405160240161050093929190610d82565b604051602081830303815290604052907bffffffffffffffffffffffffffffffffffffffffffffffffffffffff19166020820180517bffffffffffffffffffffffffffffffffffffffffffffffffffffffff838183161783525050505060405161056a9190610e33565b6000604051808303816000865af19150503d80600081146105a7576040519150601f19603f3d011682016040523d82523d6000602084013e6105ac565b606091505b50915091508180156105da57506000815114806105d95750808060200190518101906105d89190610e82565b5b5b610619576040517f08c379a000000000000000000000000000000000000000000000000000000000815260040161061090610f0c565b60405180910390fd5b505050505050565b6000808473ffffffffffffffffffffffffffffffffffffffff1663095ea7b360e01b8585604051602401610656929190610f2c565b604051602081830303815290604052907bffffffffffffffffffffffffffffffffffffffffffffffffffffffff19166020820180517bffffffffffffffffffffffffffffffffffffffffffffffffffffffff83818316178352505050506040516106c09190610e33565b6000604051808303816000865af19150503d80600081146106fd576040519150601f19603f3d011682016040523d82523d6000602084013e610702565b606091505b5091509150818015610730575060008151148061072f57508080602001905181019061072e9190610e82565b5b5b61076f576040517f08c379a000000000000000000000000000000000000000000000000000000000815260040161076690610fa1565b60405180910390fd5b5050505050565b6000808473ffffffffffffffffffffffffffffffffffffffff1663a9059cbb60e01b85856040516024016107ab929190610f2c565b604051602081830303815290604052907bffffffffffffffffffffffffffffffffffffffffffffffffffffffff19166020820180517bffffffffffffffffffffffffffffffffffffffffffffffffffffffff83818316178352505050506040516108159190610e33565b6000604051808303816000865af19150503d8060008114610852576040519150601f19603f3d011682016040523d82523d6000602084013e610857565b606091505b509150915081801561088557506000815114806108845750808060200190518101906108839190610e82565b5b5b6108c4576040517f08c379a00000000000000000000000000000000000000000000000000000000081526004016108bb9061100d565b60405180910390fd5b5050505050565b600062ffffff82169050919050565b6108e3816108cb565b82525050565b60006020820190506108fe60008301846108da565b92915050565b600073ffffffffffffffffffffffffffffffffffffffff82169050919050565b600061092f82610904565b9050919050565b61093f81610924565b82525050565b600060208201905061095a6000830184610936565b92915050565b600080fd5b61096e81610924565b811461097957600080fd5b50565b60008135905061098b81610965565b92915050565b6000819050919050565b6109a481610991565b81146109af57600080fd5b50565b6000813590506109c18161099b565b92915050565b600080600080608085870312156109e1576109e0610960565b5b60006109ef8782880161097c565b9450506020610a008782880161097c565b9350506040610a11878288016109b2565b9250506060610a22878288016109b2565b91505092959194509250565b610a3781610991565b82525050565b6000602082019050610a526000830184610a2e565b92915050565b6000819050919050565b6000610a7d610a78610a7384610904565b610a58565b610904565b9050919050565b6000610a8f82610a62565b9050919050565b6000610aa182610a84565b9050919050565b610ab181610a96565b82525050565b6000602082019050610acc6000830184610aa8565b92915050565b600080600060608486031215610aeb57610aea610960565b5b6000610af98682870161097c565b9350506020610b0a8682870161097c565b9250506040610b1b868287016109b2565b9150509250925092565b610b2e81610924565b82525050565b610b3d816108cb565b82525050565b610b4c81610991565b82525050565b610b5b81610904565b82525050565b61010082016000820151610b786000850182610b25565b506020820151610b8b6020850182610b25565b506040820151610b9e6040850182610b34565b506060820151610bb16060850182610b25565b506080820151610bc46080850182610b43565b5060a0820151610bd760a0850182610b43565b5060c0820151610bea60c0850182610b43565b5060e0820151610bfd60e0850182610b52565b50505050565b600061010082019050610c196000830184610b61565b92915050565b600081519050610c2e8161099b565b92915050565b600060208284031215610c4a57610c49610960565b5b6000610c5884828501610c1f565b91505092915050565b7f4e487b7100000000000000000000000000000000000000000000000000000000600052601160045260246000fd5b6000610c9b82610991565b9150610ca683610991565b925082821015610cb957610cb8610c61565b5b828203905092915050565b61010082016000820151610cdb6000850182610b25565b506020820151610cee6020850182610b25565b506040820151610d016040850182610b34565b506060820151610d146060850182610b25565b506080820151610d276080850182610b43565b5060a0820151610d3a60a0850182610b43565b5060c0820151610d4d60c0850182610b43565b5060e0820151610d6060e0850182610b52565b50505050565b600061010082019050610d7c6000830184610cc4565b92915050565b6000606082019050610d976000830186610936565b610da46020830185610936565b610db16040830184610a2e565b949350505050565b600081519050919050565b600081905092915050565b60005b83811015610ded578082015181840152602081019050610dd2565b83811115610dfc576000848401525b50505050565b6000610e0d82610db9565b610e178185610dc4565b9350610e27818560208601610dcf565b80840191505092915050565b6000610e3f8284610e02565b915081905092915050565b60008115159050919050565b610e5f81610e4a565b8114610e6a57600080fd5b50565b600081519050610e7c81610e56565b92915050565b600060208284031215610e9857610e97610960565b5b6000610ea684828501610e6d565b91505092915050565b600082825260208201905092915050565b7f5354460000000000000000000000000000000000000000000000000000000000600082015250565b6000610ef6600383610eaf565b9150610f0182610ec0565b602082019050919050565b60006020820190508181036000830152610f2581610ee9565b9050919050565b6000604082019050610f416000830185610936565b610f4e6020830184610a2e565b9392505050565b7f5341000000000000000000000000000000000000000000000000000000000000600082015250565b6000610f8b600283610eaf565b9150610f9682610f55565b602082019050919050565b60006020820190508181036000830152610fba81610f7e565b9050919050565b7f5354000000000000000000000000000000000000000000000000000000000000600082015250565b6000610ff7600283610eaf565b915061100282610fc1565b602082019050919050565b6000602082019050818103600083015261102681610fea565b905091905056fea2646970667358221220ce470eb39e1cfec65ce383d2cd722d7758a2847ca3fefe66eb3e3487972112ef64736f6c63430008090033",
  "linkReferences": {},
  "deployedLinkReferences": {}
}