{
  "_format": "hh-sol-artifact-1",
  "contractName": "ChanceRoom",
  "sourceName": "contracts/ChanceRoom.sol",
  "abi": [
    {
      "anonymous": false,
      "inputs": [
        {
          "indexed": false,
          "internalType": "bytes32",
          "name": "requestId",
          "type": "bytes32"
        }
      ],
      "name": "RollDice",
      "type": "event"
    },
    {
      "anonymous": false,
      "inputs": [
        {
          "indexed": false,
          "internalType": "address",
          "name": "user",
          "type": "address"
        }
      ],
      "name": "SignIn",
      "type": "event"
    },
    {
      "anonymous": false,
      "inputs": [
        {
          "indexed": false,
          "internalType": "uint256",
          "name": "index",
          "type": "uint256"
        },
        {
          "indexed": false,
          "internalType": "address",
          "name": "user",
          "type": "address"
        },
        {
          "indexed": false,
          "internalType": "uint256",
          "name": "amount",
          "type": "uint256"
        }
      ],
      "name": "Win",
      "type": "event"
    },
    {
      "inputs": [],
      "name": "RNC",
      "outputs": [
        {
          "internalType": "address",
          "name": "",
          "type": "address"
        }
      ],
      "stateMutability": "view",
      "type": "function"
    },
    {
      "inputs": [],
      "name": "RNCfee",
      "outputs": [
        {
          "internalType": "uint256",
          "name": "",
          "type": "uint256"
        }
      ],
      "stateMutability": "view",
      "type": "function"
    },
    {
      "inputs": [],
      "name": "RNCwithhold",
      "outputs": [
        {
          "internalType": "uint256",
          "name": "",
          "type": "uint256"
        }
      ],
      "stateMutability": "view",
      "type": "function"
    },
    {
      "inputs": [],
      "name": "baseURI",
      "outputs": [
        {
          "internalType": "string",
          "name": "",
          "type": "string"
        }
      ],
      "stateMutability": "view",
      "type": "function"
    },
    {
      "inputs": [],
      "name": "cancel",
      "outputs": [],
      "stateMutability": "nonpayable",
      "type": "function"
    },
    {
      "inputs": [],
      "name": "charge",
      "outputs": [],
      "stateMutability": "payable",
      "type": "function"
    },
    {
      "inputs": [],
      "name": "commission",
      "outputs": [
        {
          "internalType": "uint256",
          "name": "",
          "type": "uint256"
        }
      ],
      "stateMutability": "view",
      "type": "function"
    },
    {
      "inputs": [],
      "name": "deadLine",
      "outputs": [
        {
          "internalType": "uint256",
          "name": "",
          "type": "uint256"
        }
      ],
      "stateMutability": "view",
      "type": "function"
    },
    {
      "inputs": [],
      "name": "gateFee",
      "outputs": [
        {
          "internalType": "uint256",
          "name": "",
          "type": "uint256"
        }
      ],
      "stateMutability": "view",
      "type": "function"
    },
    {
      "inputs": [
        {
          "internalType": "uint256",
          "name": "",
          "type": "uint256"
        }
      ],
      "name": "indexToAddr",
      "outputs": [
        {
          "internalType": "address",
          "name": "",
          "type": "address"
        }
      ],
      "stateMutability": "view",
      "type": "function"
    },
    {
      "inputs": [],
      "name": "info",
      "outputs": [
        {
          "internalType": "string",
          "name": "",
          "type": "string"
        }
      ],
      "stateMutability": "view",
      "type": "function"
    },
    {
      "inputs": [
        {
          "internalType": "string",
          "name": "_info",
          "type": "string"
        },
        {
          "internalType": "string",
          "name": "_baseURI",
          "type": "string"
        },
        {
          "internalType": "uint256",
          "name": "_gateFee",
          "type": "uint256"
        },
        {
          "internalType": "uint256",
          "name": "_percentCommission",
          "type": "uint256"
        },
        {
          "internalType": "uint256",
          "name": "_userLimit",
          "type": "uint256"
        },
        {
          "internalType": "uint256",
          "name": "_timeLimit",
          "type": "uint256"
        },
        {
          "internalType": "address",
          "name": "_owner",
          "type": "address"
        },
        {
          "internalType": "address",
          "name": "_RandomNumberConsumer",
          "type": "address"
        }
      ],
      "name": "initialize",
      "outputs": [],
      "stateMutability": "nonpayable",
      "type": "function"
    },
    {
      "inputs": [],
      "name": "owner",
      "outputs": [
        {
          "internalType": "address",
          "name": "",
          "type": "address"
        }
      ],
      "stateMutability": "view",
      "type": "function"
    },
    {
      "inputs": [],
      "name": "prize",
      "outputs": [
        {
          "internalType": "uint256",
          "name": "",
          "type": "uint256"
        }
      ],
      "stateMutability": "view",
      "type": "function"
    },
    {
      "inputs": [],
      "name": "rollDice",
      "outputs": [],
      "stateMutability": "nonpayable",
      "type": "function"
    },
    {
      "inputs": [],
      "name": "secondsLeftToRollDice",
      "outputs": [
        {
          "internalType": "uint256",
          "name": "_secondsLeft",
          "type": "uint256"
        }
      ],
      "stateMutability": "view",
      "type": "function"
    },
    {
      "inputs": [
        {
          "internalType": "uint256",
          "name": "randomness",
          "type": "uint256"
        }
      ],
      "name": "select",
      "outputs": [],
      "stateMutability": "nonpayable",
      "type": "function"
    },
    {
      "inputs": [],
      "name": "signIn",
      "outputs": [],
      "stateMutability": "payable",
      "type": "function"
    },
    {
      "inputs": [],
      "name": "status",
      "outputs": [
        {
          "internalType": "string",
          "name": "",
          "type": "string"
        }
      ],
      "stateMutability": "view",
      "type": "function"
    },
    {
      "inputs": [
        {
          "internalType": "address",
          "name": "_RandomNumberConsumer",
          "type": "address"
        }
      ],
      "name": "upgradeRNC",
      "outputs": [],
      "stateMutability": "nonpayable",
      "type": "function"
    },
    {
      "inputs": [],
      "name": "userCount",
      "outputs": [
        {
          "internalType": "uint256",
          "name": "",
          "type": "uint256"
        }
      ],
      "stateMutability": "view",
      "type": "function"
    },
    {
      "inputs": [
        {
          "internalType": "address",
          "name": "",
          "type": "address"
        }
      ],
      "name": "userEntered",
      "outputs": [
        {
          "internalType": "bool",
          "name": "",
          "type": "bool"
        }
      ],
      "stateMutability": "view",
      "type": "function"
    },
    {
      "inputs": [],
      "name": "userLimit",
      "outputs": [
        {
          "internalType": "uint256",
          "name": "",
          "type": "uint256"
        }
      ],
      "stateMutability": "view",
      "type": "function"
    },
    {
      "inputs": [],
      "name": "usersNumberToRollDice",
      "outputs": [
        {
          "internalType": "uint256",
          "name": "_usersNeeded",
          "type": "uint256"
        }
      ],
      "stateMutability": "view",
      "type": "function"
    },
    {
      "inputs": [],
      "name": "winner",
      "outputs": [
        {
          "internalType": "address",
          "name": "",
          "type": "address"
        }
      ],
      "stateMutability": "view",
      "type": "function"
    },
    {
      "inputs": [],
      "name": "withdrawCommission",
      "outputs": [],
      "stateMutability": "nonpayable",
      "type": "function"
    },
    {
      "inputs": [],
      "name": "withdrawableSupply",
      "outputs": [
        {
          "internalType": "uint256",
          "name": "",
          "type": "uint256"
        }
      ],
      "stateMutability": "view",
      "type": "function"
    }
  ],
  "bytecode": "0x608060405234801561001057600080fd5b50612a12806100206000396000f3fe60806040526004361061019b5760003560e01c8063837e7cc6116100ec578063d48f37091161008a578063e148919111610064578063e148919114610531578063e3ac5d261461055c578063ea8a1af014610587578063f036a67f1461059e5761019b565b8063d48f3709146104b0578063def33fd4146104db578063dfbf53ae146105065761019b565b80639e4cda43116100c65780639e4cda4314610427578063a1d08f0a14610431578063a8935e141461045c578063bef3a083146104855761019b565b8063837e7cc6146103bc578063839a19d9146103d35780638da5cb5b146103fc5761019b565b80632ff8c0cc116101595780634a7c01ec116101335780634a7c01ec1461031f578063551619131461034a5780636c0360eb146103545780636e97b78a1461037f5761019b565b80632ff8c0cc146102b2578063370158ea146102dd5780633e25e837146103085761019b565b806294d81b146101a057806307973ccf146101c95780630faa51d8146101f4578063200d2ed21461021f5780632c82ae431461024a5780632fbd774a14610275575b600080fd5b3480156101ac57600080fd5b506101c760048036038101906101c29190611b7d565b6105c9565b005b3480156101d557600080fd5b506101de61069d565b6040516101eb9190611bc3565b60405180910390f35b34801561020057600080fd5b506102096106a3565b6040516102169190611bc3565b60405180910390f35b34801561022b57600080fd5b506102346106cc565b6040516102419190611c77565b60405180910390f35b34801561025657600080fd5b5061025f61075a565b60405161026c9190611bc3565b60405180910390f35b34801561028157600080fd5b5061029c60048036038101906102979190611b7d565b610787565b6040516102a99190611cb4565b60405180910390f35b3480156102be57600080fd5b506102c76107a7565b6040516102d49190611bc3565b60405180910390f35b3480156102e957600080fd5b506102f26107ad565b6040516102ff9190611c77565b60405180910390f35b34801561031457600080fd5b5061031d61083b565b005b34801561032b57600080fd5b50610334610943565b6040516103419190611bc3565b60405180910390f35b610352610949565b005b34801561036057600080fd5b5061036961094b565b6040516103769190611c77565b60405180910390f35b34801561038b57600080fd5b506103a660048036038101906103a19190611cfb565b6109d9565b6040516103b39190611d37565b60405180910390f35b3480156103c857600080fd5b506103d1610a0c565b005b3480156103df57600080fd5b506103fa60048036038101906103f59190611cfb565b610e66565b005b34801561040857600080fd5b50610411611033565b60405161041e9190611d37565b60405180910390f35b61042f611059565b005b34801561043d57600080fd5b50610446611337565b6040516104539190611d37565b60405180910390f35b34801561046857600080fd5b50610483600480360381019061047e9190611e87565b61135d565b005b34801561049157600080fd5b5061049a61159f565b6040516104a79190611bc3565b60405180910390f35b3480156104bc57600080fd5b506104c56115a5565b6040516104d29190611bc3565b60405180910390f35b3480156104e757600080fd5b506104f06116e3565b6040516104fd9190611bc3565b60405180910390f35b34801561051257600080fd5b5061051b61170a565b6040516105289190611d37565b60405180910390f35b34801561053d57600080fd5b50610546611730565b6040516105539190611bc3565b60405180910390f35b34801561056857600080fd5b50610571611736565b60405161057e9190611bc3565b60405180910390f35b34801561059357600080fd5b5061059c61173c565b005b3480156105aa57600080fd5b506105b3611932565b6040516105c09190611bc3565b60405180910390f35b600760009054906101000a900473ffffffffffffffffffffffffffffffffffffffff1673ffffffffffffffffffffffffffffffffffffffff163373ffffffffffffffffffffffffffffffffffffffff1614610659576040517f08c379a000000000000000000000000000000000000000000000000000000000815260040161065090611fe7565b60405180910390fd5b80600860006101000a81548173ffffffffffffffffffffffffffffffffffffffff021916908373ffffffffffffffffffffffffffffffffffffffff16021790555050565b600b5481565b60004260065411156106c457426006546106bd9190612036565b90506106c9565b600090505b90565b600980546106d990612099565b80601f016020809104026020016040519081016040528092919081815260200182805461070590612099565b80156107525780601f1061072757610100808354040283529160200191610752565b820191906000526020600020905b81548152906001019060200180831161073557829003601f168201915b505050505081565b6000600b54600554111561077f57600b546005546107789190612036565b9050610784565b600090505b90565b600f6020528060005260406000206000915054906101000a900460ff1681565b60035481565b600180546107ba90612099565b80601f01602080910402602001604051908101604052809291908181526020018280546107e690612099565b80156108335780601f1061080857610100808354040283529160200191610833565b820191906000526020600020905b81548152906001019060200180831161081657829003601f168201915b505050505081565b600760009054906101000a900473ffffffffffffffffffffffffffffffffffffffff1673ffffffffffffffffffffffffffffffffffffffff163373ffffffffffffffffffffffffffffffffffffffff16146108cb576040517f08c379a00000000000000000000000000000000000000000000000000000000081526004016108c290611fe7565b60405180910390fd5b6000600760009054906101000a900473ffffffffffffffffffffffffffffffffffffffff1690508073ffffffffffffffffffffffffffffffffffffffff166108fc6109146116e3565b9081150290604051600060405180830381858888f1935050505015801561093f573d6000803e3d6000fd5b5050565b60055481565b565b6002805461095890612099565b80601f016020809104026020016040519081016040528092919081815260200182805461098490612099565b80156109d15780601f106109a6576101008083540402835291602001916109d1565b820191906000526020600020905b8154815290600101906020018083116109b457829003601f168201915b505050505081565b600e6020528060005260406000206000915054906101000a900473ffffffffffffffffffffffffffffffffffffffff1681565b610a146115a5565b600a5414610a57576040517f08c379a0000000000000000000000000000000000000000000000000000000008152600401610a4e90612117565b60405180910390fd5b6000600554118015610a6b57506000600654115b15610ac857600554600b541480610a8457506006544210155b610ac3576040517f08c379a0000000000000000000000000000000000000000000000000000000008152600401610aba906121a9565b60405180910390fd5b610c06565b60006005541115610b1e57600554600b5414610b19576040517f08c379a0000000000000000000000000000000000000000000000000000000008152600401610b109061223b565b60405180910390fd5b610c05565b60006006541115610b7357600654421015610b6e576040517f08c379a0000000000000000000000000000000000000000000000000000000008152600401610b65906122cd565b60405180910390fd5b610c04565b600760009054906101000a900473ffffffffffffffffffffffffffffffffffffffff1673ffffffffffffffffffffffffffffffffffffffff163373ffffffffffffffffffffffffffffffffffffffff1614610c03576040517f08c379a0000000000000000000000000000000000000000000000000000000008152600401610bfa90611fe7565b60405180910390fd5b5b5b5b6000600860146101000a81548160ff02191690831515021790555060006040518060400160405280600f81526020017f73656c6563742875696e74323536290000000000000000000000000000000000815250805190602001209050600080600860009054906101000a900473ffffffffffffffffffffffffffffffffffffffff1673ffffffffffffffffffffffffffffffffffffffff16600a5484604051602401610cb29190612328565b6040516020818303038152906040527ff5d34f23000000000000000000000000000000000000000000000000000000007bffffffffffffffffffffffffffffffffffffffffffffffffffffffff19166020820180517bffffffffffffffffffffffffffffffffffffffffffffffffffffffff8381831617835250505050604051610d3c919061238a565b60006040518083038185875af1925050503d8060008114610d79576040519150601f19603f3d011682016040523d82523d6000602084013e610d7e565b606091505b509150915081610dc3576040517f08c379a0000000000000000000000000000000000000000000000000000000008152600401610dba906123ed565b60405180910390fd5b6000600a819055507f72179fcf9070583e88aa5e724a71e6affe79c12733c644cc78fe215dde9fa00281806020019051810190610e009190612443565b604051610e0d919061247f565b60405180910390a16040518060400160405280601c81526020017f77616974696e6720666f722072616e646f6d206e756d6265722e2e2e0000000081525060099080519060200190610e60929190611a68565b50505050565b600860009054906101000a900473ffffffffffffffffffffffffffffffffffffffff1673ffffffffffffffffffffffffffffffffffffffff163373ffffffffffffffffffffffffffffffffffffffff1614610ef6576040517f08c379a0000000000000000000000000000000000000000000000000000000008152600401610eed906124e6565b60405180910390fd5b6000600b5482610f069190612535565b9050600e600082815260200190815260200160002060009054906101000a900473ffffffffffffffffffffffffffffffffffffffff16600d60006101000a81548173ffffffffffffffffffffffffffffffffffffffff021916908373ffffffffffffffffffffffffffffffffffffffff1602179055507f94dd8caf4803213035e054c595c14a4902fc45ff2d35957b439326822e43481981600d60009054906101000a900473ffffffffffffffffffffffffffffffffffffffff16600c54604051610fd393929190612566565b60405180910390a1610fe3611938565b6040518060400160405280600981526020017f46696e69736865642e00000000000000000000000000000000000000000000008152506009908051906020019061102e929190611a68565b505050565b600760009054906101000a900473ffffffffffffffffffffffffffffffffffffffff1681565b600860149054906101000a900460ff166110a8576040517f08c379a000000000000000000000000000000000000000000000000000000000815260040161109f906125e9565b60405180910390fd5b600060055414806110bc5750600554600b54105b6110fb576040517f08c379a00000000000000000000000000000000000000000000000000000000081526004016110f290612655565b60405180910390fd5b600f60003373ffffffffffffffffffffffffffffffffffffffff1673ffffffffffffffffffffffffffffffffffffffff16815260200190815260200160002060009054906101000a900460ff1615611188576040517f08c379a000000000000000000000000000000000000000000000000000000000815260040161117f906126c1565b60405180910390fd5b60035434146111cc576040517f08c379a00000000000000000000000000000000000000000000000000000000081526004016111c39061272d565b60405180910390fd5b33600e6000600b54815260200190815260200160002060006101000a81548173ffffffffffffffffffffffffffffffffffffffff021916908373ffffffffffffffffffffffffffffffffffffffff1602179055506001600f60003373ffffffffffffffffffffffffffffffffffffffff1673ffffffffffffffffffffffffffffffffffffffff16815260200190815260200160002060006101000a81548160ff021916908315150217905550600b600081548092919061128b9061274d565b9190505550600061129b346119b3565b90506112a681611a31565b7fef383f4930adff403c14f551843bcd75d90c913f8e731f5a2baf2cd6339a92d8336040516112d59190611d37565b60405180910390a1600554600b541415611334576000600860146101000a81548160ff0219169083151502179055506040518060600160405280602581526020016129b86025913960099080519060200190611332929190611a68565b505b50565b600860009054906101000a900473ffffffffffffffffffffffffffffffffffffffff1681565b600060019054906101000a900460ff1680611383575060008054906101000a900460ff16155b6113c2576040517f08c379a00000000000000000000000000000000000000000000000000000000081526004016113b990612808565b60405180910390fd5b60008060019054906101000a900460ff161590508015611412576001600060016101000a81548160ff02191690831515021790555060016000806101000a81548160ff0219169083151502179055505b8860019080519060200190611428929190611a68565b50876002908051906020019061143f929190611a68565b50866003819055506064866003546114579190612828565b6114619190612882565b60048190555084600581905550600084111561148a57834261148391906128b3565b6006819055505b82600760006101000a81548173ffffffffffffffffffffffffffffffffffffffff021916908373ffffffffffffffffffffffffffffffffffffffff16021790555081600860006101000a81548173ffffffffffffffffffffffffffffffffffffffff021916908373ffffffffffffffffffffffffffffffffffffffff1602179055506001600860146101000a81548160ff0219169083151502179055506040518060400160405280600f81526020017f6f70656e20616e6420616374697665000000000000000000000000000000000081525060099080519060200190611572929190611a68565b5080156115945760008060016101000a81548160ff0219169083151502179055505b505050505050505050565b60065481565b6000806000600860009054906101000a900473ffffffffffffffffffffffffffffffffffffffff1673ffffffffffffffffffffffffffffffffffffffff166040516024016040516020818303038152906040527f70160fc5000000000000000000000000000000000000000000000000000000007bffffffffffffffffffffffffffffffffffffffffffffffffffffffff19166020820180517bffffffffffffffffffffffffffffffffffffffffffffffffffffffff8381831617835250505050604051611673919061238a565b600060405180830381855afa9150503d80600081146116ae576040519150601f19603f3d011682016040523d82523d6000602084013e6116b3565b606091505b5091509150816116c257600080fd5b6000818060200190518101906116d8919061291e565b905080935050505090565b600080600c54600a546116f691906128b3565b905080476117049190612036565b91505090565b600d60009054906101000a900473ffffffffffffffffffffffffffffffffffffffff1681565b60045481565b600c5481565b600760009054906101000a900473ffffffffffffffffffffffffffffffffffffffff1673ffffffffffffffffffffffffffffffffffffffff163373ffffffffffffffffffffffffffffffffffffffff16146117cc576040517f08c379a00000000000000000000000000000000000000000000000000000000081526004016117c390611fe7565b60405180910390fd5b600354600b546117dc9190612828565b47101561181e576040517f08c379a000000000000000000000000000000000000000000000000000000000815260040161181590612997565b60405180910390fd5b60005b600b548110156118c0576000600e600083815260200190815260200160002060009054906101000a900473ffffffffffffffffffffffffffffffffffffffff1690508073ffffffffffffffffffffffffffffffffffffffff166108fc6003549081150290604051600060405180830381858888f193505050501580156118ab573d6000803e3d6000fd5b505080806118b89061274d565b915050611821565b506000600c819055506000600860146101000a81548160ff0219169083151502179055506040518060400160405280600981526020017f43616e63656c65642e00000000000000000000000000000000000000000000008152506009908051906020019061192f929190611a68565b50565b600a5481565b6000600d60009054906101000a900473ffffffffffffffffffffffffffffffffffffffff1690508073ffffffffffffffffffffffffffffffffffffffff166108fc600c549081150290604051600060405180830381858888f193505050501580156119a7573d6000803e3d6000fd5b506000600c8190555050565b600080600a546119c16115a5565b6119cb9190612036565b90506000811115611a28578281106119ff5782600a60008282546119ef91906128b3565b9250508190555060009250611a27565b80600a6000828254611a1191906128b3565b925050819055508083611a249190612036565b92505b5b82915050919050565b600454811115611a655760045481611a499190612036565b905080600c6000828254611a5d91906128b3565b925050819055505b50565b828054611a7490612099565b90600052602060002090601f016020900481019282611a965760008555611add565b82601f10611aaf57805160ff1916838001178555611add565b82800160010185558215611add579182015b82811115611adc578251825591602001919060010190611ac1565b5b509050611aea9190611aee565b5090565b5b80821115611b07576000816000905550600101611aef565b5090565b6000604051905090565b600080fd5b600080fd5b600073ffffffffffffffffffffffffffffffffffffffff82169050919050565b6000611b4a82611b1f565b9050919050565b611b5a81611b3f565b8114611b6557600080fd5b50565b600081359050611b7781611b51565b92915050565b600060208284031215611b9357611b92611b15565b5b6000611ba184828501611b68565b91505092915050565b6000819050919050565b611bbd81611baa565b82525050565b6000602082019050611bd86000830184611bb4565b92915050565b600081519050919050565b600082825260208201905092915050565b60005b83811015611c18578082015181840152602081019050611bfd565b83811115611c27576000848401525b50505050565b6000601f19601f8301169050919050565b6000611c4982611bde565b611c538185611be9565b9350611c63818560208601611bfa565b611c6c81611c2d565b840191505092915050565b60006020820190508181036000830152611c918184611c3e565b905092915050565b60008115159050919050565b611cae81611c99565b82525050565b6000602082019050611cc96000830184611ca5565b92915050565b611cd881611baa565b8114611ce357600080fd5b50565b600081359050611cf581611ccf565b92915050565b600060208284031215611d1157611d10611b15565b5b6000611d1f84828501611ce6565b91505092915050565b611d3181611b3f565b82525050565b6000602082019050611d4c6000830184611d28565b92915050565b600080fd5b600080fd5b7f4e487b7100000000000000000000000000000000000000000000000000000000600052604160045260246000fd5b611d9482611c2d565b810181811067ffffffffffffffff82111715611db357611db2611d5c565b5b80604052505050565b6000611dc6611b0b565b9050611dd28282611d8b565b919050565b600067ffffffffffffffff821115611df257611df1611d5c565b5b611dfb82611c2d565b9050602081019050919050565b82818337600083830152505050565b6000611e2a611e2584611dd7565b611dbc565b905082815260208101848484011115611e4657611e45611d57565b5b611e51848285611e08565b509392505050565b600082601f830112611e6e57611e6d611d52565b5b8135611e7e848260208601611e17565b91505092915050565b600080600080600080600080610100898b031215611ea857611ea7611b15565b5b600089013567ffffffffffffffff811115611ec657611ec5611b1a565b5b611ed28b828c01611e59565b985050602089013567ffffffffffffffff811115611ef357611ef2611b1a565b5b611eff8b828c01611e59565b9750506040611f108b828c01611ce6565b9650506060611f218b828c01611ce6565b9550506080611f328b828c01611ce6565b94505060a0611f438b828c01611ce6565b93505060c0611f548b828c01611b68565b92505060e0611f658b828c01611b68565b9150509295985092959890939650565b7f6f6e6c79206f776e65722063616e2063616c6c20746869732066756e6374696f60008201527f6e00000000000000000000000000000000000000000000000000000000000000602082015250565b6000611fd1602183611be9565b9150611fdc82611f75565b604082019050919050565b6000602082019050818103600083015261200081611fc4565b9050919050565b7f4e487b7100000000000000000000000000000000000000000000000000000000600052601160045260246000fd5b600061204182611baa565b915061204c83611baa565b92508282101561205f5761205e612007565b5b828203905092915050565b7f4e487b7100000000000000000000000000000000000000000000000000000000600052602260045260246000fd5b600060028204905060018216806120b157607f821691505b602082108114156120c5576120c461206a565b5b50919050565b7f6e6f7420656e6f75676820524e432077697468686f6c64000000000000000000600082015250565b6000612101601783611be9565b915061210c826120cb565b602082019050919050565b60006020820190508181036000830152612130816120f4565b9050919050565b7f72656163682074696d65206c696d6974206f722075736572206c696d6974207460008201527f6f20616374697661746520646963650000000000000000000000000000000000602082015250565b6000612193602f83611be9565b915061219e82612137565b604082019050919050565b600060208201905081810360008301526121c281612186565b9050919050565b7f72656163682075736572206c696d697420746f2061637469766174652064696360008201527f6500000000000000000000000000000000000000000000000000000000000000602082015250565b6000612225602183611be9565b9150612230826121c9565b604082019050919050565b6000602082019050818103600083015261225481612218565b9050919050565b7f796f75206861766520746f207761697420756e74696c6c20646561646c696e6560008201527f2070617373000000000000000000000000000000000000000000000000000000602082015250565b60006122b7602583611be9565b91506122c28261225b565b604082019050919050565b600060208201905081810360008301526122e6816122aa565b9050919050565b60007fffffffff0000000000000000000000000000000000000000000000000000000082169050919050565b612322816122ed565b82525050565b600060208201905061233d6000830184612319565b92915050565b600081519050919050565b600081905092915050565b600061236482612343565b61236e818561234e565b935061237e818560208601611bfa565b80840191505092915050565b60006123968284612359565b915081905092915050565b7f524e432043616c6c204661696c65640000000000000000000000000000000000600082015250565b60006123d7600f83611be9565b91506123e2826123a1565b602082019050919050565b60006020820190508181036000830152612406816123ca565b9050919050565b6000819050919050565b6124208161240d565b811461242b57600080fd5b50565b60008151905061243d81612417565b92915050565b60006020828403121561245957612458611b15565b5b60006124678482850161242e565b91505092915050565b6124798161240d565b82525050565b60006020820190506124946000830184612470565b92915050565b7f63616c6c6572206973206e6f74207468652076616c696420524e430000000000600082015250565b60006124d0601b83611be9565b91506124db8261249a565b602082019050919050565b600060208201905081810360008301526124ff816124c3565b9050919050565b7f4e487b7100000000000000000000000000000000000000000000000000000000600052601260045260246000fd5b600061254082611baa565b915061254b83611baa565b92508261255b5761255a612506565b5b828206905092915050565b600060608201905061257b6000830186611bb4565b6125886020830185611d28565b6125956040830184611bb4565b949350505050565b7f726f6f6d20657870697265640000000000000000000000000000000000000000600082015250565b60006125d3600c83611be9565b91506125de8261259d565b602082019050919050565b60006020820190508181036000830152612602816125c6565b9050919050565b7f736f6c64206f75742e0000000000000000000000000000000000000000000000600082015250565b600061263f600983611be9565b915061264a82612609565b602082019050919050565b6000602082019050818103600083015261266e81612632565b9050919050565b7f7369676e656420696e206265666f72652e000000000000000000000000000000600082015250565b60006126ab601183611be9565b91506126b682612675565b602082019050919050565b600060208201905081810360008301526126da8161269e565b9050919050565b7f57726f6e6720636172642066656520656e746572656400000000000000000000600082015250565b6000612717601683611be9565b9150612722826126e1565b602082019050919050565b600060208201905081810360008301526127468161270a565b9050919050565b600061275882611baa565b91507fffffffffffffffffffffffffffffffffffffffffffffffffffffffffffffffff82141561278b5761278a612007565b5b600182019050919050565b7f496e697469616c697a61626c653a20636f6e747261637420697320616c72656160008201527f647920696e697469616c697a6564000000000000000000000000000000000000602082015250565b60006127f2602e83611be9565b91506127fd82612796565b604082019050919050565b60006020820190508181036000830152612821816127e5565b9050919050565b600061283382611baa565b915061283e83611baa565b9250817fffffffffffffffffffffffffffffffffffffffffffffffffffffffffffffffff048311821515161561287757612876612007565b5b828202905092915050565b600061288d82611baa565b915061289883611baa565b9250826128a8576128a7612506565b5b828204905092915050565b60006128be82611baa565b91506128c983611baa565b9250827fffffffffffffffffffffffffffffffffffffffffffffffffffffffffffffffff038211156128fe576128fd612007565b5b828201905092915050565b60008151905061291881611ccf565b92915050565b60006020828403121561293457612933611b15565b5b600061294284828501612909565b91505092915050565b7f6e6f7420656e6f756768206361736820746f2070617920757365727300000000600082015250565b6000612981601c83611be9565b915061298c8261294b565b602082019050919050565b600060208201905081810360008301526129b081612974565b905091905056fe4e756d626572206f6620757365727320686173207265616368207468652071756f72756d2ea26469706673582212205bc5aa38970170e48cb16b2a103cd1a56b9f85d15715f9799d2510c731d40e9264736f6c63430008090033",
  "linkReferences": {},
  "deployedLinkReferences": {}
}