{
  "_format": "hh-sol-artifact-1",
  "contractName": "ChanceRoom",
  "sourceName": "contracts/ChanceRoom.sol",
  "abi": [
    {
      "anonymous": false,
      "inputs": [
        {
          "indexed": true,
          "internalType": "address",
          "name": "user",
          "type": "address"
        }
      ],
      "name": "BuySeat",
      "type": "event"
    },
    {
      "anonymous": false,
      "inputs": [
        {
          "indexed": false,
          "internalType": "bytes32",
          "name": "requestId",
          "type": "bytes32"
        }
      ],
      "name": "RollDice",
      "type": "event"
    },
    {
      "anonymous": false,
      "inputs": [
        {
          "indexed": false,
          "internalType": "uint256",
          "name": "index",
          "type": "uint256"
        },
        {
          "indexed": false,
          "internalType": "address",
          "name": "user",
          "type": "address"
        },
        {
          "indexed": false,
          "internalType": "uint256",
          "name": "amount",
          "type": "uint256"
        }
      ],
      "name": "Win",
      "type": "event"
    },
    {
      "inputs": [],
      "name": "NFTAddress",
      "outputs": [
        {
          "internalType": "address",
          "name": "",
          "type": "address"
        }
      ],
      "stateMutability": "view",
      "type": "function"
    },
    {
      "inputs": [],
      "name": "RNCAddress",
      "outputs": [
        {
          "internalType": "address",
          "name": "",
          "type": "address"
        }
      ],
      "stateMutability": "view",
      "type": "function"
    },
    {
      "inputs": [],
      "name": "RNCwithhold",
      "outputs": [
        {
          "internalType": "uint256",
          "name": "",
          "type": "uint256"
        }
      ],
      "stateMutability": "view",
      "type": "function"
    },
    {
      "inputs": [],
      "name": "baseURI",
      "outputs": [
        {
          "internalType": "string",
          "name": "",
          "type": "string"
        }
      ],
      "stateMutability": "view",
      "type": "function"
    },
    {
      "inputs": [],
      "name": "buySeat",
      "outputs": [],
      "stateMutability": "payable",
      "type": "function"
    },
    {
      "inputs": [],
      "name": "cancel",
      "outputs": [],
      "stateMutability": "nonpayable",
      "type": "function"
    },
    {
      "inputs": [],
      "name": "charge",
      "outputs": [],
      "stateMutability": "payable",
      "type": "function"
    },
    {
      "inputs": [],
      "name": "commission",
      "outputs": [
        {
          "internalType": "uint256",
          "name": "",
          "type": "uint256"
        }
      ],
      "stateMutability": "view",
      "type": "function"
    },
    {
      "inputs": [],
      "name": "deadLine",
      "outputs": [
        {
          "internalType": "uint256",
          "name": "",
          "type": "uint256"
        }
      ],
      "stateMutability": "view",
      "type": "function"
    },
    {
      "inputs": [],
      "name": "gateFee",
      "outputs": [
        {
          "internalType": "uint256",
          "name": "",
          "type": "uint256"
        }
      ],
      "stateMutability": "view",
      "type": "function"
    },
    {
      "inputs": [
        {
          "internalType": "uint256",
          "name": "",
          "type": "uint256"
        }
      ],
      "name": "indexToAddr",
      "outputs": [
        {
          "internalType": "address",
          "name": "",
          "type": "address"
        }
      ],
      "stateMutability": "view",
      "type": "function"
    },
    {
      "inputs": [],
      "name": "info",
      "outputs": [
        {
          "internalType": "string",
          "name": "",
          "type": "string"
        }
      ],
      "stateMutability": "view",
      "type": "function"
    },
    {
      "inputs": [
        {
          "internalType": "string",
          "name": "_info",
          "type": "string"
        },
        {
          "internalType": "string",
          "name": "_baseURI",
          "type": "string"
        },
        {
          "internalType": "uint256",
          "name": "_gateFee",
          "type": "uint256"
        },
        {
          "internalType": "uint256",
          "name": "_percentCommission",
          "type": "uint256"
        },
        {
          "internalType": "uint256",
          "name": "_userLimit",
          "type": "uint256"
        },
        {
          "internalType": "uint256",
          "name": "_timeLimit",
          "type": "uint256"
        },
        {
          "internalType": "address",
          "name": "_owner",
          "type": "address"
        },
        {
          "internalType": "address",
          "name": "_RNCAddress",
          "type": "address"
        },
        {
          "internalType": "address",
          "name": "_NFTAddress",
          "type": "address"
        }
      ],
      "name": "initialize",
      "outputs": [],
      "stateMutability": "nonpayable",
      "type": "function"
    },
    {
      "inputs": [],
      "name": "owner",
      "outputs": [
        {
          "internalType": "address",
          "name": "",
          "type": "address"
        }
      ],
      "stateMutability": "view",
      "type": "function"
    },
    {
      "inputs": [],
      "name": "prize",
      "outputs": [
        {
          "internalType": "uint256",
          "name": "",
          "type": "uint256"
        }
      ],
      "stateMutability": "view",
      "type": "function"
    },
    {
      "inputs": [],
      "name": "rollDice",
      "outputs": [],
      "stateMutability": "nonpayable",
      "type": "function"
    },
    {
      "inputs": [],
      "name": "secondsLeftToRollDice",
      "outputs": [
        {
          "internalType": "uint256",
          "name": "_secondsLeft",
          "type": "uint256"
        }
      ],
      "stateMutability": "view",
      "type": "function"
    },
    {
      "inputs": [
        {
          "internalType": "uint256",
          "name": "randomness",
          "type": "uint256"
        }
      ],
      "name": "select",
      "outputs": [],
      "stateMutability": "nonpayable",
      "type": "function"
    },
    {
      "inputs": [],
      "name": "status",
      "outputs": [
        {
          "internalType": "string",
          "name": "",
          "type": "string"
        }
      ],
      "stateMutability": "view",
      "type": "function"
    },
    {
      "inputs": [
        {
          "internalType": "address",
          "name": "_RNCAddress",
          "type": "address"
        }
      ],
      "name": "upgradeRNC",
      "outputs": [],
      "stateMutability": "nonpayable",
      "type": "function"
    },
    {
      "inputs": [],
      "name": "userCount",
      "outputs": [
        {
          "internalType": "uint256",
          "name": "",
          "type": "uint256"
        }
      ],
      "stateMutability": "view",
      "type": "function"
    },
    {
      "inputs": [
        {
          "internalType": "address",
          "name": "",
          "type": "address"
        }
      ],
      "name": "userEntered",
      "outputs": [
        {
          "internalType": "bool",
          "name": "",
          "type": "bool"
        }
      ],
      "stateMutability": "view",
      "type": "function"
    },
    {
      "inputs": [],
      "name": "userLimit",
      "outputs": [
        {
          "internalType": "uint256",
          "name": "",
          "type": "uint256"
        }
      ],
      "stateMutability": "view",
      "type": "function"
    },
    {
      "inputs": [],
      "name": "usersNumberToRollDice",
      "outputs": [
        {
          "internalType": "uint256",
          "name": "_usersNeeded",
          "type": "uint256"
        }
      ],
      "stateMutability": "view",
      "type": "function"
    },
    {
      "inputs": [],
      "name": "winner",
      "outputs": [
        {
          "internalType": "address",
          "name": "",
          "type": "address"
        }
      ],
      "stateMutability": "view",
      "type": "function"
    },
    {
      "inputs": [],
      "name": "withdrawCommission",
      "outputs": [],
      "stateMutability": "nonpayable",
      "type": "function"
    },
    {
      "inputs": [],
      "name": "withdrawableSupply",
      "outputs": [
        {
          "internalType": "uint256",
          "name": "",
          "type": "uint256"
        }
      ],
      "stateMutability": "view",
      "type": "function"
    }
  ],
  "bytecode": "0x608060405234801561001057600080fd5b50612a9e806100206000396000f3fe60806040526004361061019b5760003560e01c806355161913116100ec578063bef3a0831161008a578063e148919111610064578063e148919114610531578063e3ac5d261461055c578063ea8a1af014610587578063f036a67f1461059e5761019b565b8063bef3a083146104b0578063def33fd4146104db578063dfbf53ae146105065761019b565b806382afd504116100c657806382afd5041461041a578063837e7cc614610445578063839a19d91461045c5780638da5cb5b146104855761019b565b806355161913146103a85780636c0360eb146103b25780636e97b78a146103dd5761019b565b80632fbd774a11610159578063370158ea11610133578063370158ea146103315780633e25e8371461035c5780634a7c01ec146103735780634cd77ded1461039e5761019b565b80632fbd774a1461029e5780632ff8c0cc146102db578063310c87cc146103065761019b565b806294d81b146101a057806303d3c218146101c957806307973ccf146101f25780630faa51d81461021d578063200d2ed2146102485780632c82ae4314610273575b600080fd5b3480156101ac57600080fd5b506101c760048036038101906101c29190611ce4565b6105c9565b005b3480156101d557600080fd5b506101f060048036038101906101eb9190611e8d565b610700565b005b3480156101fe57600080fd5b50610207610a06565b6040516102149190611f9e565b60405180910390f35b34801561022957600080fd5b50610232610a0c565b60405161023f9190611f9e565b60405180910390f35b34801561025457600080fd5b5061025d610a3b565b60405161026a9190612041565b60405180910390f35b34801561027f57600080fd5b50610288610ac9565b6040516102959190611f9e565b60405180910390f35b3480156102aa57600080fd5b506102c560048036038101906102c09190611ce4565b610af6565b6040516102d2919061207e565b60405180910390f35b3480156102e757600080fd5b506102f0610b16565b6040516102fd9190611f9e565b60405180910390f35b34801561031257600080fd5b5061031b610b1c565b60405161032891906120a8565b60405180910390f35b34801561033d57600080fd5b50610346610b42565b6040516103539190612041565b60405180910390f35b34801561036857600080fd5b50610371610bd0565b005b34801561037f57600080fd5b50610388610cd8565b6040516103959190611f9e565b60405180910390f35b6103a6610cde565b005b6103b0610ff1565b005b3480156103be57600080fd5b506103c7610ff3565b6040516103d49190612041565b60405180910390f35b3480156103e957600080fd5b5061040460048036038101906103ff91906120c3565b611081565b60405161041191906120a8565b60405180910390f35b34801561042657600080fd5b5061042f6110b4565b60405161043c91906120a8565b60405180910390f35b34801561045157600080fd5b5061045a6110da565b005b34801561046857600080fd5b50610483600480360381019061047e91906120c3565b61150a565b005b34801561049157600080fd5b5061049a611786565b6040516104a791906120a8565b60405180910390f35b3480156104bc57600080fd5b506104c56117ac565b6040516104d29190611f9e565b60405180910390f35b3480156104e757600080fd5b506104f06117b2565b6040516104fd9190611f9e565b60405180910390f35b34801561051257600080fd5b5061051b6117d9565b60405161052891906120a8565b60405180910390f35b34801561053d57600080fd5b506105466117ff565b6040516105539190611f9e565b60405180910390f35b34801561056857600080fd5b50610571611805565b60405161057e9190611f9e565b60405180910390f35b34801561059357600080fd5b5061059c61180b565b005b3480156105aa57600080fd5b506105b3611a01565b6040516105c09190611f9e565b60405180910390f35b600860009054906101000a900473ffffffffffffffffffffffffffffffffffffffff1673ffffffffffffffffffffffffffffffffffffffff163373ffffffffffffffffffffffffffffffffffffffff1614610659576040517f08c379a000000000000000000000000000000000000000000000000000000000815260040161065090612162565b60405180910390fd5b80600960006101000a81548173ffffffffffffffffffffffffffffffffffffffff021916908373ffffffffffffffffffffffffffffffffffffffff160217905550600960009054906101000a900473ffffffffffffffffffffffffffffffffffffffff16600060026101000a81548173ffffffffffffffffffffffffffffffffffffffff021916908373ffffffffffffffffffffffffffffffffffffffff16021790555050565b600060019054906101000a900460ff1680610726575060008054906101000a900460ff16155b610765576040517f08c379a000000000000000000000000000000000000000000000000000000000815260040161075c906121f4565b60405180910390fd5b60008060019054906101000a900460ff1615905080156107b5576001600060016101000a81548160ff02191690831515021790555060016000806101000a81548160ff0219169083151502179055505b89600290805190602001906107cb929190611bcf565b5088600390805190602001906107e2929190611bcf565b50876004819055506064876004546107fa9190612243565b61080491906122cc565b60058190555085600681905550600085111561082d57844261082691906122fd565b6007819055505b83600860006101000a81548173ffffffffffffffffffffffffffffffffffffffff021916908373ffffffffffffffffffffffffffffffffffffffff16021790555082600960006101000a81548173ffffffffffffffffffffffffffffffffffffffff021916908373ffffffffffffffffffffffffffffffffffffffff16021790555082600060026101000a81548173ffffffffffffffffffffffffffffffffffffffff021916908373ffffffffffffffffffffffffffffffffffffffff16021790555081600a60006101000a81548173ffffffffffffffffffffffffffffffffffffffff021916908373ffffffffffffffffffffffffffffffffffffffff16021790555081600160006101000a81548173ffffffffffffffffffffffffffffffffffffffff021916908373ffffffffffffffffffffffffffffffffffffffff1602179055506001600a60146101000a81548160ff0219169083151502179055506040518060400160405280600681526020017f6163746976650000000000000000000000000000000000000000000000000000815250600b90805190602001906109d8929190611bcf565b5080156109fa5760008060016101000a81548160ff0219169083151502179055505b50505050505050505050565b600d5481565b600080429050806007541115610a325780600754610a2a9190612353565b915050610a38565b60009150505b90565b600b8054610a48906123b6565b80601f0160208091040260200160405190810160405280929190818152602001828054610a74906123b6565b8015610ac15780601f10610a9657610100808354040283529160200191610ac1565b820191906000526020600020905b815481529060010190602001808311610aa457829003601f168201915b505050505081565b6000600d546006541115610aee57600d54600654610ae79190612353565b9050610af3565b600090505b90565b60116020528060005260406000206000915054906101000a900460ff1681565b60045481565b600a60009054906101000a900473ffffffffffffffffffffffffffffffffffffffff1681565b60028054610b4f906123b6565b80601f0160208091040260200160405190810160405280929190818152602001828054610b7b906123b6565b8015610bc85780601f10610b9d57610100808354040283529160200191610bc8565b820191906000526020600020905b815481529060010190602001808311610bab57829003601f168201915b505050505081565b600860009054906101000a900473ffffffffffffffffffffffffffffffffffffffff1673ffffffffffffffffffffffffffffffffffffffff163373ffffffffffffffffffffffffffffffffffffffff1614610c60576040517f08c379a0000000000000000000000000000000000000000000000000000000008152600401610c5790612162565b60405180910390fd5b6000600860009054906101000a900473ffffffffffffffffffffffffffffffffffffffff1690508073ffffffffffffffffffffffffffffffffffffffff166108fc610ca96117b2565b9081150290604051600060405180830381858888f19350505050158015610cd4573d6000803e3d6000fd5b5050565b60065481565b600a60149054906101000a900460ff16610d2d576040517f08c379a0000000000000000000000000000000000000000000000000000000008152600401610d2490612434565b60405180910390fd5b60006006541480610d415750600654600d54105b610d80576040517f08c379a0000000000000000000000000000000000000000000000000000000008152600401610d77906124a0565b60405180910390fd5b601160003373ffffffffffffffffffffffffffffffffffffffff1673ffffffffffffffffffffffffffffffffffffffff16815260200190815260200160002060009054906101000a900460ff1615610e0d576040517f08c379a0000000000000000000000000000000000000000000000000000000008152600401610e049061250c565b60405180910390fd5b600033905060003490506004548114610e5b576040517f08c379a0000000000000000000000000000000000000000000000000000000008152600401610e5290612578565b60405180910390fd5b8160106000600d54815260200190815260200160002060006101000a81548173ffffffffffffffffffffffffffffffffffffffff021916908373ffffffffffffffffffffffffffffffffffffffff1602179055506001601160008473ffffffffffffffffffffffffffffffffffffffff1673ffffffffffffffffffffffffffffffffffffffff16815260200190815260200160002060006101000a81548160ff0219169083151502179055508173ffffffffffffffffffffffffffffffffffffffff167f22b14d815e1456ee8e3186433fdfdaa984af441a362020080f799688c7ff2c1760405160405180910390a2600d6000815480929190610f5d90612598565b91905055506000610f6d82611a07565b9050610f7881611b1d565b600654600d541415610fec576000600a60146101000a81548160ff0219169083151502179055506040518060400160405280601481526020017f757365722071756f72756d20726561636865642e000000000000000000000000815250600b9080519060200190610fea929190611bcf565b505b505050565b565b60038054611000906123b6565b80601f016020809104026020016040519081016040528092919081815260200182805461102c906123b6565b80156110795780601f1061104e57610100808354040283529160200191611079565b820191906000526020600020905b81548152906001019060200180831161105c57829003601f168201915b505050505081565b60106020528060005260406000206000915054906101000a900473ffffffffffffffffffffffffffffffffffffffff1681565b600960009054906101000a900473ffffffffffffffffffffffffffffffffffffffff1681565b600060029054906101000a900473ffffffffffffffffffffffffffffffffffffffff1673ffffffffffffffffffffffffffffffffffffffff16632fe12dfb6040518163ffffffff1660e01b815260040160206040518083038186803b15801561114257600080fd5b505afa158015611156573d6000803e3d6000fd5b505050506040513d601f19601f8201168201806040525081019061117a91906125f6565b600c54146111bd576040517f08c379a00000000000000000000000000000000000000000000000000000000081526004016111b49061266f565b60405180910390fd5b60006006541180156111d157506000600754115b1561122e57600654600d5414806111ea57506007544210155b611229576040517f08c379a000000000000000000000000000000000000000000000000000000000815260040161122090612701565b60405180910390fd5b61136c565b6000600654111561128457600654600d541461127f576040517f08c379a000000000000000000000000000000000000000000000000000000000815260040161127690612793565b60405180910390fd5b61136b565b600060075411156112d9576007544210156112d4576040517f08c379a00000000000000000000000000000000000000000000000000000000081526004016112cb90612825565b60405180910390fd5b61136a565b600860009054906101000a900473ffffffffffffffffffffffffffffffffffffffff1673ffffffffffffffffffffffffffffffffffffffff163373ffffffffffffffffffffffffffffffffffffffff1614611369576040517f08c379a000000000000000000000000000000000000000000000000000000000815260040161136090612162565b60405180910390fd5b5b5b5b6000600a60146101000a81548160ff02191690831515021790555060006040518060400160405280600f81526020017f73656c6563742875696e7432353629000000000000000000000000000000000081525080519060200120905060008060029054906101000a900473ffffffffffffffffffffffffffffffffffffffff1673ffffffffffffffffffffffffffffffffffffffff1663f5d34f23600c54846040518363ffffffff1660e01b81526004016114279190612880565b6020604051808303818588803b15801561144057600080fd5b505af1158015611454573d6000803e3d6000fd5b50505050506040513d601f19601f8201168201806040525081019061147991906128d1565b90506000600c819055507f72179fcf9070583e88aa5e724a71e6affe79c12733c644cc78fe215dde9fa002816040516114b2919061290d565b60405180910390a16040518060400160405280601c81526020017f77616974696e6720666f722072616e646f6d206e756d6265722e2e2e00000000815250600b9080519060200190611505929190611bcf565b505050565b600960009054906101000a900473ffffffffffffffffffffffffffffffffffffffff1673ffffffffffffffffffffffffffffffffffffffff163373ffffffffffffffffffffffffffffffffffffffff161461159a576040517f08c379a000000000000000000000000000000000000000000000000000000000815260040161159190612974565b60405180910390fd5b6000600d54826115aa9190612994565b90506010600082815260200190815260200160002060009054906101000a900473ffffffffffffffffffffffffffffffffffffffff16600f60006101000a81548173ffffffffffffffffffffffffffffffffffffffff021916908373ffffffffffffffffffffffffffffffffffffffff1602179055507f94dd8caf4803213035e054c595c14a4902fc45ff2d35957b439326822e43481981600f60009054906101000a900473ffffffffffffffffffffffffffffffffffffffff16600e54604051611677939291906129c5565b60405180910390a1611687611b54565b600160009054906101000a900473ffffffffffffffffffffffffffffffffffffffff1673ffffffffffffffffffffffffffffffffffffffff166340d097c3600f60009054906101000a900473ffffffffffffffffffffffffffffffffffffffff166040518263ffffffff1660e01b815260040161170491906120a8565b600060405180830381600087803b15801561171e57600080fd5b505af1158015611732573d6000803e3d6000fd5b505050506040518060400160405280600981526020017f46696e69736865642e0000000000000000000000000000000000000000000000815250600b9080519060200190611781929190611bcf565b505050565b600860009054906101000a900473ffffffffffffffffffffffffffffffffffffffff1681565b60075481565b600080600e54600c546117c591906122fd565b905080476117d39190612353565b91505090565b600f60009054906101000a900473ffffffffffffffffffffffffffffffffffffffff1681565b60055481565b600e5481565b600860009054906101000a900473ffffffffffffffffffffffffffffffffffffffff1673ffffffffffffffffffffffffffffffffffffffff163373ffffffffffffffffffffffffffffffffffffffff161461189b576040517f08c379a000000000000000000000000000000000000000000000000000000000815260040161189290612162565b60405180910390fd5b600454600d546118ab9190612243565b4710156118ed576040517f08c379a00000000000000000000000000000000000000000000000000000000081526004016118e490612a48565b60405180910390fd5b60005b600d5481101561198f5760006010600083815260200190815260200160002060009054906101000a900473ffffffffffffffffffffffffffffffffffffffff1690508073ffffffffffffffffffffffffffffffffffffffff166108fc6004549081150290604051600060405180830381858888f1935050505015801561197a573d6000803e3d6000fd5b5050808061198790612598565b9150506118f0565b506000600e819055506000600a60146101000a81548160ff0219169083151502179055506040518060400160405280600981526020017f43616e63656c65642e0000000000000000000000000000000000000000000000815250600b90805190602001906119fe929190611bcf565b50565b600c5481565b600080600c54600060029054906101000a900473ffffffffffffffffffffffffffffffffffffffff1673ffffffffffffffffffffffffffffffffffffffff16632fe12dfb6040518163ffffffff1660e01b815260040160206040518083038186803b158015611a7557600080fd5b505afa158015611a89573d6000803e3d6000fd5b505050506040513d601f19601f82011682018060405250810190611aad91906125f6565b611ab79190612353565b90506000811115611b1457828110611aeb5782600c6000828254611adb91906122fd565b9250508190555060009250611b13565b80600c6000828254611afd91906122fd565b925050819055508083611b109190612353565b92505b5b82915050919050565b600554811115611b515760055481611b359190612353565b905080600e6000828254611b4991906122fd565b925050819055505b50565b6000600f60009054906101000a900473ffffffffffffffffffffffffffffffffffffffff1690508073ffffffffffffffffffffffffffffffffffffffff166108fc600e549081150290604051600060405180830381858888f19350505050158015611bc3573d6000803e3d6000fd5b506000600e8190555050565b828054611bdb906123b6565b90600052602060002090601f016020900481019282611bfd5760008555611c44565b82601f10611c1657805160ff1916838001178555611c44565b82800160010185558215611c44579182015b82811115611c43578251825591602001919060010190611c28565b5b509050611c519190611c55565b5090565b5b80821115611c6e576000816000905550600101611c56565b5090565b6000604051905090565b600080fd5b600080fd5b600073ffffffffffffffffffffffffffffffffffffffff82169050919050565b6000611cb182611c86565b9050919050565b611cc181611ca6565b8114611ccc57600080fd5b50565b600081359050611cde81611cb8565b92915050565b600060208284031215611cfa57611cf9611c7c565b5b6000611d0884828501611ccf565b91505092915050565b600080fd5b600080fd5b6000601f19601f8301169050919050565b7f4e487b7100000000000000000000000000000000000000000000000000000000600052604160045260246000fd5b611d6482611d1b565b810181811067ffffffffffffffff82111715611d8357611d82611d2c565b5b80604052505050565b6000611d96611c72565b9050611da28282611d5b565b919050565b600067ffffffffffffffff821115611dc257611dc1611d2c565b5b611dcb82611d1b565b9050602081019050919050565b82818337600083830152505050565b6000611dfa611df584611da7565b611d8c565b905082815260208101848484011115611e1657611e15611d16565b5b611e21848285611dd8565b509392505050565b600082601f830112611e3e57611e3d611d11565b5b8135611e4e848260208601611de7565b91505092915050565b6000819050919050565b611e6a81611e57565b8114611e7557600080fd5b50565b600081359050611e8781611e61565b92915050565b60008060008060008060008060006101208a8c031215611eb057611eaf611c7c565b5b60008a013567ffffffffffffffff811115611ece57611ecd611c81565b5b611eda8c828d01611e29565b99505060208a013567ffffffffffffffff811115611efb57611efa611c81565b5b611f078c828d01611e29565b9850506040611f188c828d01611e78565b9750506060611f298c828d01611e78565b9650506080611f3a8c828d01611e78565b95505060a0611f4b8c828d01611e78565b94505060c0611f5c8c828d01611ccf565b93505060e0611f6d8c828d01611ccf565b925050610100611f7f8c828d01611ccf565b9150509295985092959850929598565b611f9881611e57565b82525050565b6000602082019050611fb36000830184611f8f565b92915050565b600081519050919050565b600082825260208201905092915050565b60005b83811015611ff3578082015181840152602081019050611fd8565b83811115612002576000848401525b50505050565b600061201382611fb9565b61201d8185611fc4565b935061202d818560208601611fd5565b61203681611d1b565b840191505092915050565b6000602082019050818103600083015261205b8184612008565b905092915050565b60008115159050919050565b61207881612063565b82525050565b6000602082019050612093600083018461206f565b92915050565b6120a281611ca6565b82525050565b60006020820190506120bd6000830184612099565b92915050565b6000602082840312156120d9576120d8611c7c565b5b60006120e784828501611e78565b91505092915050565b7f6f6e6c79206f776e65722063616e2063616c6c20746869732066756e6374696f60008201527f6e00000000000000000000000000000000000000000000000000000000000000602082015250565b600061214c602183611fc4565b9150612157826120f0565b604082019050919050565b6000602082019050818103600083015261217b8161213f565b9050919050565b7f496e697469616c697a61626c653a20636f6e747261637420697320616c72656160008201527f647920696e697469616c697a6564000000000000000000000000000000000000602082015250565b60006121de602e83611fc4565b91506121e982612182565b604082019050919050565b6000602082019050818103600083015261220d816121d1565b9050919050565b7f4e487b7100000000000000000000000000000000000000000000000000000000600052601160045260246000fd5b600061224e82611e57565b915061225983611e57565b9250817fffffffffffffffffffffffffffffffffffffffffffffffffffffffffffffffff048311821515161561229257612291612214565b5b828202905092915050565b7f4e487b7100000000000000000000000000000000000000000000000000000000600052601260045260246000fd5b60006122d782611e57565b91506122e283611e57565b9250826122f2576122f161229d565b5b828204905092915050565b600061230882611e57565b915061231383611e57565b9250827fffffffffffffffffffffffffffffffffffffffffffffffffffffffffffffffff0382111561234857612347612214565b5b828201905092915050565b600061235e82611e57565b915061236983611e57565b92508282101561237c5761237b612214565b5b828203905092915050565b7f4e487b7100000000000000000000000000000000000000000000000000000000600052602260045260246000fd5b600060028204905060018216806123ce57607f821691505b602082108114156123e2576123e1612387565b5b50919050565b7f726f6f6d20657870697265640000000000000000000000000000000000000000600082015250565b600061241e600c83611fc4565b9150612429826123e8565b602082019050919050565b6000602082019050818103600083015261244d81612411565b9050919050565b7f736f6c64206f75742e0000000000000000000000000000000000000000000000600082015250565b600061248a600983611fc4565b915061249582612454565b602082019050919050565b600060208201905081810360008301526124b98161247d565b9050919050565b7f7369676e656420696e206265666f72652e000000000000000000000000000000600082015250565b60006124f6601183611fc4565b9150612501826124c0565b602082019050919050565b60006020820190508181036000830152612525816124e9565b9050919050565b7f57726f6e6720636172642066656520656e746572656400000000000000000000600082015250565b6000612562601683611fc4565b915061256d8261252c565b602082019050919050565b6000602082019050818103600083015261259181612555565b9050919050565b60006125a382611e57565b91507fffffffffffffffffffffffffffffffffffffffffffffffffffffffffffffffff8214156125d6576125d5612214565b5b600182019050919050565b6000815190506125f081611e61565b92915050565b60006020828403121561260c5761260b611c7c565b5b600061261a848285016125e1565b91505092915050565b7f6e6f7420656e6f75676820524e432077697468686f6c64000000000000000000600082015250565b6000612659601783611fc4565b915061266482612623565b602082019050919050565b600060208201905081810360008301526126888161264c565b9050919050565b7f72656163682074696d65206c696d6974206f722075736572206c696d6974207460008201527f6f20616374697661746520646963650000000000000000000000000000000000602082015250565b60006126eb602f83611fc4565b91506126f68261268f565b604082019050919050565b6000602082019050818103600083015261271a816126de565b9050919050565b7f72656163682075736572206c696d697420746f2061637469766174652064696360008201527f6500000000000000000000000000000000000000000000000000000000000000602082015250565b600061277d602183611fc4565b915061278882612721565b604082019050919050565b600060208201905081810360008301526127ac81612770565b9050919050565b7f796f75206861766520746f207761697420756e74696c6c20646561646c696e6560008201527f2070617373000000000000000000000000000000000000000000000000000000602082015250565b600061280f602583611fc4565b915061281a826127b3565b604082019050919050565b6000602082019050818103600083015261283e81612802565b9050919050565b60007fffffffff0000000000000000000000000000000000000000000000000000000082169050919050565b61287a81612845565b82525050565b60006020820190506128956000830184612871565b92915050565b6000819050919050565b6128ae8161289b565b81146128b957600080fd5b50565b6000815190506128cb816128a5565b92915050565b6000602082840312156128e7576128e6611c7c565b5b60006128f5848285016128bc565b91505092915050565b6129078161289b565b82525050565b600060208201905061292260008301846128fe565b92915050565b7f63616c6c6572206973206e6f74207468652076616c696420524e430000000000600082015250565b600061295e601b83611fc4565b915061296982612928565b602082019050919050565b6000602082019050818103600083015261298d81612951565b9050919050565b600061299f82611e57565b91506129aa83611e57565b9250826129ba576129b961229d565b5b828206905092915050565b60006060820190506129da6000830186611f8f565b6129e76020830185612099565b6129f46040830184611f8f565b949350505050565b7f6e6f7420656e6f756768206361736820746f2070617920757365727300000000600082015250565b6000612a32601c83611fc4565b9150612a3d826129fc565b602082019050919050565b60006020820190508181036000830152612a6181612a25565b905091905056fea264697066735822122049260e0ad5a0e32dd2b199170140fb9e1477cb9d70b4a3b87d2d697c161eac3a64736f6c63430008090033",
  "linkReferences": {},
  "deployedLinkReferences": {}
}