{
  "_format": "hh-sol-artifact-1",
  "contractName": "ChanceRoom",
  "sourceName": "contracts/ChanceRoom.sol",
  "abi": [
    {
      "anonymous": false,
      "inputs": [
        {
          "indexed": false,
          "internalType": "bytes32",
          "name": "requestId",
          "type": "bytes32"
        }
      ],
      "name": "RollDice",
      "type": "event"
    },
    {
      "anonymous": false,
      "inputs": [
        {
          "indexed": false,
          "internalType": "address",
          "name": "user",
          "type": "address"
        }
      ],
      "name": "SignIn",
      "type": "event"
    },
    {
      "anonymous": false,
      "inputs": [
        {
          "indexed": false,
          "internalType": "uint256",
          "name": "index",
          "type": "uint256"
        },
        {
          "indexed": false,
          "internalType": "address",
          "name": "user",
          "type": "address"
        },
        {
          "indexed": false,
          "internalType": "uint256",
          "name": "amount",
          "type": "uint256"
        }
      ],
      "name": "Win",
      "type": "event"
    },
    {
      "inputs": [],
      "name": "RNCAddress",
      "outputs": [
        {
          "internalType": "address",
          "name": "",
          "type": "address"
        }
      ],
      "stateMutability": "view",
      "type": "function"
    },
    {
      "inputs": [],
      "name": "RNCwithhold",
      "outputs": [
        {
          "internalType": "uint256",
          "name": "",
          "type": "uint256"
        }
      ],
      "stateMutability": "view",
      "type": "function"
    },
    {
      "inputs": [],
      "name": "baseURI",
      "outputs": [
        {
          "internalType": "string",
          "name": "",
          "type": "string"
        }
      ],
      "stateMutability": "view",
      "type": "function"
    },
    {
      "inputs": [],
      "name": "cancel",
      "outputs": [],
      "stateMutability": "nonpayable",
      "type": "function"
    },
    {
      "inputs": [],
      "name": "charge",
      "outputs": [],
      "stateMutability": "payable",
      "type": "function"
    },
    {
      "inputs": [],
      "name": "commission",
      "outputs": [
        {
          "internalType": "uint256",
          "name": "",
          "type": "uint256"
        }
      ],
      "stateMutability": "view",
      "type": "function"
    },
    {
      "inputs": [],
      "name": "deadLine",
      "outputs": [
        {
          "internalType": "uint256",
          "name": "",
          "type": "uint256"
        }
      ],
      "stateMutability": "view",
      "type": "function"
    },
    {
      "inputs": [],
      "name": "gateFee",
      "outputs": [
        {
          "internalType": "uint256",
          "name": "",
          "type": "uint256"
        }
      ],
      "stateMutability": "view",
      "type": "function"
    },
    {
      "inputs": [
        {
          "internalType": "uint256",
          "name": "",
          "type": "uint256"
        }
      ],
      "name": "indexToAddr",
      "outputs": [
        {
          "internalType": "address",
          "name": "",
          "type": "address"
        }
      ],
      "stateMutability": "view",
      "type": "function"
    },
    {
      "inputs": [],
      "name": "info",
      "outputs": [
        {
          "internalType": "string",
          "name": "",
          "type": "string"
        }
      ],
      "stateMutability": "view",
      "type": "function"
    },
    {
      "inputs": [
        {
          "internalType": "string",
          "name": "_info",
          "type": "string"
        },
        {
          "internalType": "string",
          "name": "_baseURI",
          "type": "string"
        },
        {
          "internalType": "uint256",
          "name": "_gateFee",
          "type": "uint256"
        },
        {
          "internalType": "uint256",
          "name": "_percentCommission",
          "type": "uint256"
        },
        {
          "internalType": "uint256",
          "name": "_userLimit",
          "type": "uint256"
        },
        {
          "internalType": "uint256",
          "name": "_timeLimit",
          "type": "uint256"
        },
        {
          "internalType": "address",
          "name": "_owner",
          "type": "address"
        },
        {
          "internalType": "address",
          "name": "_RandomNumberConsumer",
          "type": "address"
        }
      ],
      "name": "initialize",
      "outputs": [],
      "stateMutability": "nonpayable",
      "type": "function"
    },
    {
      "inputs": [],
      "name": "owner",
      "outputs": [
        {
          "internalType": "address",
          "name": "",
          "type": "address"
        }
      ],
      "stateMutability": "view",
      "type": "function"
    },
    {
      "inputs": [],
      "name": "prize",
      "outputs": [
        {
          "internalType": "uint256",
          "name": "",
          "type": "uint256"
        }
      ],
      "stateMutability": "view",
      "type": "function"
    },
    {
      "inputs": [],
      "name": "rollDice",
      "outputs": [],
      "stateMutability": "nonpayable",
      "type": "function"
    },
    {
      "inputs": [],
      "name": "secondsLeftToRollDice",
      "outputs": [
        {
          "internalType": "uint256",
          "name": "_secondsLeft",
          "type": "uint256"
        }
      ],
      "stateMutability": "view",
      "type": "function"
    },
    {
      "inputs": [
        {
          "internalType": "uint256",
          "name": "randomness",
          "type": "uint256"
        }
      ],
      "name": "select",
      "outputs": [],
      "stateMutability": "nonpayable",
      "type": "function"
    },
    {
      "inputs": [],
      "name": "signIn",
      "outputs": [],
      "stateMutability": "payable",
      "type": "function"
    },
    {
      "inputs": [],
      "name": "status",
      "outputs": [
        {
          "internalType": "string",
          "name": "",
          "type": "string"
        }
      ],
      "stateMutability": "view",
      "type": "function"
    },
    {
      "inputs": [
        {
          "internalType": "address",
          "name": "_RandomNumberConsumer",
          "type": "address"
        }
      ],
      "name": "upgradeRNC",
      "outputs": [],
      "stateMutability": "nonpayable",
      "type": "function"
    },
    {
      "inputs": [],
      "name": "userCount",
      "outputs": [
        {
          "internalType": "uint256",
          "name": "",
          "type": "uint256"
        }
      ],
      "stateMutability": "view",
      "type": "function"
    },
    {
      "inputs": [
        {
          "internalType": "address",
          "name": "",
          "type": "address"
        }
      ],
      "name": "userEntered",
      "outputs": [
        {
          "internalType": "bool",
          "name": "",
          "type": "bool"
        }
      ],
      "stateMutability": "view",
      "type": "function"
    },
    {
      "inputs": [],
      "name": "userLimit",
      "outputs": [
        {
          "internalType": "uint256",
          "name": "",
          "type": "uint256"
        }
      ],
      "stateMutability": "view",
      "type": "function"
    },
    {
      "inputs": [],
      "name": "usersNumberToRollDice",
      "outputs": [
        {
          "internalType": "uint256",
          "name": "_usersNeeded",
          "type": "uint256"
        }
      ],
      "stateMutability": "view",
      "type": "function"
    },
    {
      "inputs": [],
      "name": "winner",
      "outputs": [
        {
          "internalType": "address",
          "name": "",
          "type": "address"
        }
      ],
      "stateMutability": "view",
      "type": "function"
    },
    {
      "inputs": [],
      "name": "withdrawCommission",
      "outputs": [],
      "stateMutability": "nonpayable",
      "type": "function"
    },
    {
      "inputs": [],
      "name": "withdrawableSupply",
      "outputs": [
        {
          "internalType": "uint256",
          "name": "",
          "type": "uint256"
        }
      ],
      "stateMutability": "view",
      "type": "function"
    }
  ],
  "bytecode": "0x608060405234801561001057600080fd5b506128f8806100206000396000f3fe6080604052600436106101805760003560e01c806382afd504116100d1578063bef3a0831161008a578063e148919111610064578063e1489191146104eb578063e3ac5d2614610516578063ea8a1af014610541578063f036a67f1461055857610180565b8063bef3a0831461046a578063def33fd414610495578063dfbf53ae146104c057610180565b806382afd504146103a1578063837e7cc6146103cc578063839a19d9146103e35780638da5cb5b1461040c5780639e4cda4314610437578063a8935e141461044157610180565b80632ff8c0cc1161013e5780634a7c01ec116101185780634a7c01ec14610304578063551619131461032f5780636c0360eb146103395780636e97b78a1461036457610180565b80632ff8c0cc14610297578063370158ea146102c25780633e25e837146102ed57610180565b806294d81b1461018557806307973ccf146101ae5780630faa51d8146101d9578063200d2ed2146102045780632c82ae431461022f5780632fbd774a1461025a575b600080fd5b34801561019157600080fd5b506101ac60048036038101906101a79190611b2d565b610583565b005b3480156101ba57600080fd5b506101c36106ba565b6040516101d09190611b73565b60405180910390f35b3480156101e557600080fd5b506101ee6106c0565b6040516101fb9190611b73565b60405180910390f35b34801561021057600080fd5b506102196106e9565b6040516102269190611c27565b60405180910390f35b34801561023b57600080fd5b50610244610777565b6040516102519190611b73565b60405180910390f35b34801561026657600080fd5b50610281600480360381019061027c9190611b2d565b6107a4565b60405161028e9190611c64565b60405180910390f35b3480156102a357600080fd5b506102ac6107c4565b6040516102b99190611b73565b60405180910390f35b3480156102ce57600080fd5b506102d76107ca565b6040516102e49190611c27565b60405180910390f35b3480156102f957600080fd5b50610302610858565b005b34801561031057600080fd5b50610319610960565b6040516103269190611b73565b60405180910390f35b610337610966565b005b34801561034557600080fd5b5061034e610968565b60405161035b9190611c27565b60405180910390f35b34801561037057600080fd5b5061038b60048036038101906103869190611cab565b6109f6565b6040516103989190611ce7565b60405180910390f35b3480156103ad57600080fd5b506103b6610a29565b6040516103c39190611ce7565b60405180910390f35b3480156103d857600080fd5b506103e1610a4f565b005b3480156103ef57600080fd5b5061040a60048036038101906104059190611cab565b610e7f565b005b34801561041857600080fd5b5061042161104c565b60405161042e9190611ce7565b60405180910390f35b61043f611072565b005b34801561044d57600080fd5b5061046860048036038101906104639190611e37565b611350565b005b34801561047657600080fd5b5061047f6115f5565b60405161048c9190611b73565b60405180910390f35b3480156104a157600080fd5b506104aa6115fb565b6040516104b79190611b73565b60405180910390f35b3480156104cc57600080fd5b506104d5611622565b6040516104e29190611ce7565b60405180910390f35b3480156104f757600080fd5b50610500611648565b60405161050d9190611b73565b60405180910390f35b34801561052257600080fd5b5061052b61164e565b6040516105389190611b73565b60405180910390f35b34801561054d57600080fd5b50610556611654565b005b34801561056457600080fd5b5061056d61184a565b60405161057a9190611b73565b60405180910390f35b600760009054906101000a900473ffffffffffffffffffffffffffffffffffffffff1673ffffffffffffffffffffffffffffffffffffffff163373ffffffffffffffffffffffffffffffffffffffff1614610613576040517f08c379a000000000000000000000000000000000000000000000000000000000815260040161060a90611f97565b60405180910390fd5b80600860006101000a81548173ffffffffffffffffffffffffffffffffffffffff021916908373ffffffffffffffffffffffffffffffffffffffff160217905550600860009054906101000a900473ffffffffffffffffffffffffffffffffffffffff16600060026101000a81548173ffffffffffffffffffffffffffffffffffffffff021916908373ffffffffffffffffffffffffffffffffffffffff16021790555050565b600b5481565b60004260065411156106e157426006546106da9190611fe6565b90506106e6565b600090505b90565b600980546106f690612049565b80601f016020809104026020016040519081016040528092919081815260200182805461072290612049565b801561076f5780601f106107445761010080835404028352916020019161076f565b820191906000526020600020905b81548152906001019060200180831161075257829003601f168201915b505050505081565b6000600b54600554111561079c57600b546005546107959190611fe6565b90506107a1565b600090505b90565b600f6020528060005260406000206000915054906101000a900460ff1681565b60035481565b600180546107d790612049565b80601f016020809104026020016040519081016040528092919081815260200182805461080390612049565b80156108505780601f1061082557610100808354040283529160200191610850565b820191906000526020600020905b81548152906001019060200180831161083357829003601f168201915b505050505081565b600760009054906101000a900473ffffffffffffffffffffffffffffffffffffffff1673ffffffffffffffffffffffffffffffffffffffff163373ffffffffffffffffffffffffffffffffffffffff16146108e8576040517f08c379a00000000000000000000000000000000000000000000000000000000081526004016108df90611f97565b60405180910390fd5b6000600760009054906101000a900473ffffffffffffffffffffffffffffffffffffffff1690508073ffffffffffffffffffffffffffffffffffffffff166108fc6109316115fb565b9081150290604051600060405180830381858888f1935050505015801561095c573d6000803e3d6000fd5b5050565b60055481565b565b6002805461097590612049565b80601f01602080910402602001604051908101604052809291908181526020018280546109a190612049565b80156109ee5780601f106109c3576101008083540402835291602001916109ee565b820191906000526020600020905b8154815290600101906020018083116109d157829003601f168201915b505050505081565b600e6020528060005260406000206000915054906101000a900473ffffffffffffffffffffffffffffffffffffffff1681565b600860009054906101000a900473ffffffffffffffffffffffffffffffffffffffff1681565b600060029054906101000a900473ffffffffffffffffffffffffffffffffffffffff1673ffffffffffffffffffffffffffffffffffffffff16632fe12dfb6040518163ffffffff1660e01b815260040160206040518083038186803b158015610ab757600080fd5b505afa158015610acb573d6000803e3d6000fd5b505050506040513d601f19601f82011682018060405250810190610aef9190612090565b600a5414610b32576040517f08c379a0000000000000000000000000000000000000000000000000000000008152600401610b2990612109565b60405180910390fd5b6000600554118015610b4657506000600654115b15610ba357600554600b541480610b5f57506006544210155b610b9e576040517f08c379a0000000000000000000000000000000000000000000000000000000008152600401610b959061219b565b60405180910390fd5b610ce1565b60006005541115610bf957600554600b5414610bf4576040517f08c379a0000000000000000000000000000000000000000000000000000000008152600401610beb9061222d565b60405180910390fd5b610ce0565b60006006541115610c4e57600654421015610c49576040517f08c379a0000000000000000000000000000000000000000000000000000000008152600401610c40906122bf565b60405180910390fd5b610cdf565b600760009054906101000a900473ffffffffffffffffffffffffffffffffffffffff1673ffffffffffffffffffffffffffffffffffffffff163373ffffffffffffffffffffffffffffffffffffffff1614610cde576040517f08c379a0000000000000000000000000000000000000000000000000000000008152600401610cd590611f97565b60405180910390fd5b5b5b5b6000600860146101000a81548160ff02191690831515021790555060006040518060400160405280600f81526020017f73656c6563742875696e7432353629000000000000000000000000000000000081525080519060200120905060008060029054906101000a900473ffffffffffffffffffffffffffffffffffffffff1673ffffffffffffffffffffffffffffffffffffffff1663f5d34f23600a54846040518363ffffffff1660e01b8152600401610d9c919061231a565b6020604051808303818588803b158015610db557600080fd5b505af1158015610dc9573d6000803e3d6000fd5b50505050506040513d601f19601f82011682018060405250810190610dee919061236b565b90506000600a819055507f72179fcf9070583e88aa5e724a71e6affe79c12733c644cc78fe215dde9fa00281604051610e2791906123a7565b60405180910390a16040518060400160405280601c81526020017f77616974696e6720666f722072616e646f6d206e756d6265722e2e2e0000000081525060099080519060200190610e7a929190611a18565b505050565b600860009054906101000a900473ffffffffffffffffffffffffffffffffffffffff1673ffffffffffffffffffffffffffffffffffffffff163373ffffffffffffffffffffffffffffffffffffffff1614610f0f576040517f08c379a0000000000000000000000000000000000000000000000000000000008152600401610f069061240e565b60405180910390fd5b6000600b5482610f1f919061245d565b9050600e600082815260200190815260200160002060009054906101000a900473ffffffffffffffffffffffffffffffffffffffff16600d60006101000a81548173ffffffffffffffffffffffffffffffffffffffff021916908373ffffffffffffffffffffffffffffffffffffffff1602179055507f94dd8caf4803213035e054c595c14a4902fc45ff2d35957b439326822e43481981600d60009054906101000a900473ffffffffffffffffffffffffffffffffffffffff16600c54604051610fec9392919061248e565b60405180910390a1610ffc611850565b6040518060400160405280600981526020017f46696e69736865642e000000000000000000000000000000000000000000000081525060099080519060200190611047929190611a18565b505050565b600760009054906101000a900473ffffffffffffffffffffffffffffffffffffffff1681565b600860149054906101000a900460ff166110c1576040517f08c379a00000000000000000000000000000000000000000000000000000000081526004016110b890612511565b60405180910390fd5b600060055414806110d55750600554600b54105b611114576040517f08c379a000000000000000000000000000000000000000000000000000000000815260040161110b9061257d565b60405180910390fd5b600f60003373ffffffffffffffffffffffffffffffffffffffff1673ffffffffffffffffffffffffffffffffffffffff16815260200190815260200160002060009054906101000a900460ff16156111a1576040517f08c379a0000000000000000000000000000000000000000000000000000000008152600401611198906125e9565b60405180910390fd5b60035434146111e5576040517f08c379a00000000000000000000000000000000000000000000000000000000081526004016111dc90612655565b60405180910390fd5b33600e6000600b54815260200190815260200160002060006101000a81548173ffffffffffffffffffffffffffffffffffffffff021916908373ffffffffffffffffffffffffffffffffffffffff1602179055506001600f60003373ffffffffffffffffffffffffffffffffffffffff1673ffffffffffffffffffffffffffffffffffffffff16815260200190815260200160002060006101000a81548160ff021916908315150217905550600b60008154809291906112a490612675565b919050555060006112b4346118cb565b90506112bf816119e1565b7fef383f4930adff403c14f551843bcd75d90c913f8e731f5a2baf2cd6339a92d8336040516112ee9190611ce7565b60405180910390a1600554600b54141561134d576000600860146101000a81548160ff02191690831515021790555060405180606001604052806025815260200161289e602591396009908051906020019061134b929190611a18565b505b50565b600060019054906101000a900460ff1680611376575060008054906101000a900460ff16155b6113b5576040517f08c379a00000000000000000000000000000000000000000000000000000000081526004016113ac90612730565b60405180910390fd5b60008060019054906101000a900460ff161590508015611405576001600060016101000a81548160ff02191690831515021790555060016000806101000a81548160ff0219169083151502179055505b886001908051906020019061141b929190611a18565b508760029080519060200190611432929190611a18565b508660038190555060648660035461144a9190612750565b61145491906127aa565b60048190555084600581905550600084111561147d57834261147691906127db565b6006819055505b82600760006101000a81548173ffffffffffffffffffffffffffffffffffffffff021916908373ffffffffffffffffffffffffffffffffffffffff16021790555081600860006101000a81548173ffffffffffffffffffffffffffffffffffffffff021916908373ffffffffffffffffffffffffffffffffffffffff160217905550600860009054906101000a900473ffffffffffffffffffffffffffffffffffffffff16600060026101000a81548173ffffffffffffffffffffffffffffffffffffffff021916908373ffffffffffffffffffffffffffffffffffffffff1602179055506001600860146101000a81548160ff0219169083151502179055506040518060400160405280600f81526020017f6f70656e20616e64206163746976650000000000000000000000000000000000815250600990805190602001906115c8929190611a18565b5080156115ea5760008060016101000a81548160ff0219169083151502179055505b505050505050505050565b60065481565b600080600c54600a5461160e91906127db565b9050804761161c9190611fe6565b91505090565b600d60009054906101000a900473ffffffffffffffffffffffffffffffffffffffff1681565b60045481565b600c5481565b600760009054906101000a900473ffffffffffffffffffffffffffffffffffffffff1673ffffffffffffffffffffffffffffffffffffffff163373ffffffffffffffffffffffffffffffffffffffff16146116e4576040517f08c379a00000000000000000000000000000000000000000000000000000000081526004016116db90611f97565b60405180910390fd5b600354600b546116f49190612750565b471015611736576040517f08c379a000000000000000000000000000000000000000000000000000000000815260040161172d9061287d565b60405180910390fd5b60005b600b548110156117d8576000600e600083815260200190815260200160002060009054906101000a900473ffffffffffffffffffffffffffffffffffffffff1690508073ffffffffffffffffffffffffffffffffffffffff166108fc6003549081150290604051600060405180830381858888f193505050501580156117c3573d6000803e3d6000fd5b505080806117d090612675565b915050611739565b506000600c819055506000600860146101000a81548160ff0219169083151502179055506040518060400160405280600981526020017f43616e63656c65642e000000000000000000000000000000000000000000000081525060099080519060200190611847929190611a18565b50565b600a5481565b6000600d60009054906101000a900473ffffffffffffffffffffffffffffffffffffffff1690508073ffffffffffffffffffffffffffffffffffffffff166108fc600c549081150290604051600060405180830381858888f193505050501580156118bf573d6000803e3d6000fd5b506000600c8190555050565b600080600a54600060029054906101000a900473ffffffffffffffffffffffffffffffffffffffff1673ffffffffffffffffffffffffffffffffffffffff16632fe12dfb6040518163ffffffff1660e01b815260040160206040518083038186803b15801561193957600080fd5b505afa15801561194d573d6000803e3d6000fd5b505050506040513d601f19601f820116820180604052508101906119719190612090565b61197b9190611fe6565b905060008111156119d8578281106119af5782600a600082825461199f91906127db565b92505081905550600092506119d7565b80600a60008282546119c191906127db565b9250508190555080836119d49190611fe6565b92505b5b82915050919050565b600454811115611a1557600454816119f99190611fe6565b905080600c6000828254611a0d91906127db565b925050819055505b50565b828054611a2490612049565b90600052602060002090601f016020900481019282611a465760008555611a8d565b82601f10611a5f57805160ff1916838001178555611a8d565b82800160010185558215611a8d579182015b82811115611a8c578251825591602001919060010190611a71565b5b509050611a9a9190611a9e565b5090565b5b80821115611ab7576000816000905550600101611a9f565b5090565b6000604051905090565b600080fd5b600080fd5b600073ffffffffffffffffffffffffffffffffffffffff82169050919050565b6000611afa82611acf565b9050919050565b611b0a81611aef565b8114611b1557600080fd5b50565b600081359050611b2781611b01565b92915050565b600060208284031215611b4357611b42611ac5565b5b6000611b5184828501611b18565b91505092915050565b6000819050919050565b611b6d81611b5a565b82525050565b6000602082019050611b886000830184611b64565b92915050565b600081519050919050565b600082825260208201905092915050565b60005b83811015611bc8578082015181840152602081019050611bad565b83811115611bd7576000848401525b50505050565b6000601f19601f8301169050919050565b6000611bf982611b8e565b611c038185611b99565b9350611c13818560208601611baa565b611c1c81611bdd565b840191505092915050565b60006020820190508181036000830152611c418184611bee565b905092915050565b60008115159050919050565b611c5e81611c49565b82525050565b6000602082019050611c796000830184611c55565b92915050565b611c8881611b5a565b8114611c9357600080fd5b50565b600081359050611ca581611c7f565b92915050565b600060208284031215611cc157611cc0611ac5565b5b6000611ccf84828501611c96565b91505092915050565b611ce181611aef565b82525050565b6000602082019050611cfc6000830184611cd8565b92915050565b600080fd5b600080fd5b7f4e487b7100000000000000000000000000000000000000000000000000000000600052604160045260246000fd5b611d4482611bdd565b810181811067ffffffffffffffff82111715611d6357611d62611d0c565b5b80604052505050565b6000611d76611abb565b9050611d828282611d3b565b919050565b600067ffffffffffffffff821115611da257611da1611d0c565b5b611dab82611bdd565b9050602081019050919050565b82818337600083830152505050565b6000611dda611dd584611d87565b611d6c565b905082815260208101848484011115611df657611df5611d07565b5b611e01848285611db8565b509392505050565b600082601f830112611e1e57611e1d611d02565b5b8135611e2e848260208601611dc7565b91505092915050565b600080600080600080600080610100898b031215611e5857611e57611ac5565b5b600089013567ffffffffffffffff811115611e7657611e75611aca565b5b611e828b828c01611e09565b985050602089013567ffffffffffffffff811115611ea357611ea2611aca565b5b611eaf8b828c01611e09565b9750506040611ec08b828c01611c96565b9650506060611ed18b828c01611c96565b9550506080611ee28b828c01611c96565b94505060a0611ef38b828c01611c96565b93505060c0611f048b828c01611b18565b92505060e0611f158b828c01611b18565b9150509295985092959890939650565b7f6f6e6c79206f776e65722063616e2063616c6c20746869732066756e6374696f60008201527f6e00000000000000000000000000000000000000000000000000000000000000602082015250565b6000611f81602183611b99565b9150611f8c82611f25565b604082019050919050565b60006020820190508181036000830152611fb081611f74565b9050919050565b7f4e487b7100000000000000000000000000000000000000000000000000000000600052601160045260246000fd5b6000611ff182611b5a565b9150611ffc83611b5a565b92508282101561200f5761200e611fb7565b5b828203905092915050565b7f4e487b7100000000000000000000000000000000000000000000000000000000600052602260045260246000fd5b6000600282049050600182168061206157607f821691505b602082108114156120755761207461201a565b5b50919050565b60008151905061208a81611c7f565b92915050565b6000602082840312156120a6576120a5611ac5565b5b60006120b48482850161207b565b91505092915050565b7f6e6f7420656e6f75676820524e432077697468686f6c64000000000000000000600082015250565b60006120f3601783611b99565b91506120fe826120bd565b602082019050919050565b60006020820190508181036000830152612122816120e6565b9050919050565b7f72656163682074696d65206c696d6974206f722075736572206c696d6974207460008201527f6f20616374697661746520646963650000000000000000000000000000000000602082015250565b6000612185602f83611b99565b915061219082612129565b604082019050919050565b600060208201905081810360008301526121b481612178565b9050919050565b7f72656163682075736572206c696d697420746f2061637469766174652064696360008201527f6500000000000000000000000000000000000000000000000000000000000000602082015250565b6000612217602183611b99565b9150612222826121bb565b604082019050919050565b600060208201905081810360008301526122468161220a565b9050919050565b7f796f75206861766520746f207761697420756e74696c6c20646561646c696e6560008201527f2070617373000000000000000000000000000000000000000000000000000000602082015250565b60006122a9602583611b99565b91506122b48261224d565b604082019050919050565b600060208201905081810360008301526122d88161229c565b9050919050565b60007fffffffff0000000000000000000000000000000000000000000000000000000082169050919050565b612314816122df565b82525050565b600060208201905061232f600083018461230b565b92915050565b6000819050919050565b61234881612335565b811461235357600080fd5b50565b6000815190506123658161233f565b92915050565b60006020828403121561238157612380611ac5565b5b600061238f84828501612356565b91505092915050565b6123a181612335565b82525050565b60006020820190506123bc6000830184612398565b92915050565b7f63616c6c6572206973206e6f74207468652076616c696420524e430000000000600082015250565b60006123f8601b83611b99565b9150612403826123c2565b602082019050919050565b60006020820190508181036000830152612427816123eb565b9050919050565b7f4e487b7100000000000000000000000000000000000000000000000000000000600052601260045260246000fd5b600061246882611b5a565b915061247383611b5a565b9250826124835761248261242e565b5b828206905092915050565b60006060820190506124a36000830186611b64565b6124b06020830185611cd8565b6124bd6040830184611b64565b949350505050565b7f726f6f6d20657870697265640000000000000000000000000000000000000000600082015250565b60006124fb600c83611b99565b9150612506826124c5565b602082019050919050565b6000602082019050818103600083015261252a816124ee565b9050919050565b7f736f6c64206f75742e0000000000000000000000000000000000000000000000600082015250565b6000612567600983611b99565b915061257282612531565b602082019050919050565b600060208201905081810360008301526125968161255a565b9050919050565b7f7369676e656420696e206265666f72652e000000000000000000000000000000600082015250565b60006125d3601183611b99565b91506125de8261259d565b602082019050919050565b60006020820190508181036000830152612602816125c6565b9050919050565b7f57726f6e6720636172642066656520656e746572656400000000000000000000600082015250565b600061263f601683611b99565b915061264a82612609565b602082019050919050565b6000602082019050818103600083015261266e81612632565b9050919050565b600061268082611b5a565b91507fffffffffffffffffffffffffffffffffffffffffffffffffffffffffffffffff8214156126b3576126b2611fb7565b5b600182019050919050565b7f496e697469616c697a61626c653a20636f6e747261637420697320616c72656160008201527f647920696e697469616c697a6564000000000000000000000000000000000000602082015250565b600061271a602e83611b99565b9150612725826126be565b604082019050919050565b600060208201905081810360008301526127498161270d565b9050919050565b600061275b82611b5a565b915061276683611b5a565b9250817fffffffffffffffffffffffffffffffffffffffffffffffffffffffffffffffff048311821515161561279f5761279e611fb7565b5b828202905092915050565b60006127b582611b5a565b91506127c083611b5a565b9250826127d0576127cf61242e565b5b828204905092915050565b60006127e682611b5a565b91506127f183611b5a565b9250827fffffffffffffffffffffffffffffffffffffffffffffffffffffffffffffffff0382111561282657612825611fb7565b5b828201905092915050565b7f6e6f7420656e6f756768206361736820746f2070617920757365727300000000600082015250565b6000612867601c83611b99565b915061287282612831565b602082019050919050565b600060208201905081810360008301526128968161285a565b905091905056fe4e756d626572206f6620757365727320686173207265616368207468652071756f72756d2ea2646970667358221220d0d58e167e11cae63b9a17ccf4ad36e1be7730a761a712a16375c2380cc5e58f64736f6c63430008090033",
  "linkReferences": {},
  "deployedLinkReferences": {}
}