{
  "_format": "hh-sol-artifact-1",
  "contractName": "ChanceRoom",
  "sourceName": "contracts/ChanceRoom.sol",
  "abi": [
    {
      "anonymous": false,
      "inputs": [
        {
          "indexed": true,
          "internalType": "address",
          "name": "user",
          "type": "address"
        }
      ],
      "name": "BuySeat",
      "type": "event"
    },
    {
      "anonymous": false,
      "inputs": [
        {
          "indexed": false,
          "internalType": "bytes32",
          "name": "requestId",
          "type": "bytes32"
        }
      ],
      "name": "RollDice",
      "type": "event"
    },
    {
      "anonymous": false,
      "inputs": [
        {
          "indexed": false,
          "internalType": "uint256",
          "name": "index",
          "type": "uint256"
        },
        {
          "indexed": false,
          "internalType": "address",
          "name": "user",
          "type": "address"
        },
        {
          "indexed": false,
          "internalType": "uint256",
          "name": "amount",
          "type": "uint256"
        }
      ],
      "name": "Win",
      "type": "event"
    },
    {
      "inputs": [],
      "name": "NFTAddress",
      "outputs": [
        {
          "internalType": "address",
          "name": "",
          "type": "address"
        }
      ],
      "stateMutability": "view",
      "type": "function"
    },
    {
      "inputs": [],
      "name": "RNCAddress",
      "outputs": [
        {
          "internalType": "address",
          "name": "",
          "type": "address"
        }
      ],
      "stateMutability": "view",
      "type": "function"
    },
    {
      "inputs": [],
      "name": "RNCwithhold",
      "outputs": [
        {
          "internalType": "uint256",
          "name": "",
          "type": "uint256"
        }
      ],
      "stateMutability": "view",
      "type": "function"
    },
    {
      "inputs": [],
      "name": "baseURI",
      "outputs": [
        {
          "internalType": "string",
          "name": "",
          "type": "string"
        }
      ],
      "stateMutability": "view",
      "type": "function"
    },
    {
      "inputs": [],
      "name": "buySeat",
      "outputs": [],
      "stateMutability": "payable",
      "type": "function"
    },
    {
      "inputs": [],
      "name": "cancel",
      "outputs": [],
      "stateMutability": "nonpayable",
      "type": "function"
    },
    {
      "inputs": [],
      "name": "charge",
      "outputs": [],
      "stateMutability": "payable",
      "type": "function"
    },
    {
      "inputs": [],
      "name": "commission",
      "outputs": [
        {
          "internalType": "uint256",
          "name": "",
          "type": "uint256"
        }
      ],
      "stateMutability": "view",
      "type": "function"
    },
    {
      "inputs": [],
      "name": "deadLine",
      "outputs": [
        {
          "internalType": "uint256",
          "name": "",
          "type": "uint256"
        }
      ],
      "stateMutability": "view",
      "type": "function"
    },
    {
      "inputs": [],
      "name": "gateFee",
      "outputs": [
        {
          "internalType": "uint256",
          "name": "",
          "type": "uint256"
        }
      ],
      "stateMutability": "view",
      "type": "function"
    },
    {
      "inputs": [
        {
          "internalType": "uint256",
          "name": "",
          "type": "uint256"
        }
      ],
      "name": "indexToAddr",
      "outputs": [
        {
          "internalType": "address",
          "name": "",
          "type": "address"
        }
      ],
      "stateMutability": "view",
      "type": "function"
    },
    {
      "inputs": [],
      "name": "info",
      "outputs": [
        {
          "internalType": "string",
          "name": "",
          "type": "string"
        }
      ],
      "stateMutability": "view",
      "type": "function"
    },
    {
      "inputs": [
        {
          "internalType": "string",
          "name": "_info",
          "type": "string"
        },
        {
          "internalType": "string",
          "name": "_baseURI",
          "type": "string"
        },
        {
          "internalType": "uint256",
          "name": "_gateFee",
          "type": "uint256"
        },
        {
          "internalType": "uint256",
          "name": "_percentCommission",
          "type": "uint256"
        },
        {
          "internalType": "uint256",
          "name": "_userLimit",
          "type": "uint256"
        },
        {
          "internalType": "uint256",
          "name": "_timeLimit",
          "type": "uint256"
        },
        {
          "internalType": "address",
          "name": "_owner",
          "type": "address"
        },
        {
          "internalType": "address",
          "name": "_RNCAddress",
          "type": "address"
        },
        {
          "internalType": "address",
          "name": "_NFTAddress",
          "type": "address"
        }
      ],
      "name": "initialize",
      "outputs": [],
      "stateMutability": "nonpayable",
      "type": "function"
    },
    {
      "inputs": [],
      "name": "owner",
      "outputs": [
        {
          "internalType": "address",
          "name": "",
          "type": "address"
        }
      ],
      "stateMutability": "view",
      "type": "function"
    },
    {
      "inputs": [],
      "name": "prize",
      "outputs": [
        {
          "internalType": "uint256",
          "name": "",
          "type": "uint256"
        }
      ],
      "stateMutability": "view",
      "type": "function"
    },
    {
      "inputs": [],
      "name": "rollDice",
      "outputs": [],
      "stateMutability": "nonpayable",
      "type": "function"
    },
    {
      "inputs": [],
      "name": "secondsLeftToRollDice",
      "outputs": [
        {
          "internalType": "uint256",
          "name": "_secondsLeft",
          "type": "uint256"
        }
      ],
      "stateMutability": "view",
      "type": "function"
    },
    {
      "inputs": [
        {
          "internalType": "uint256",
          "name": "randomness",
          "type": "uint256"
        }
      ],
      "name": "select",
      "outputs": [],
      "stateMutability": "nonpayable",
      "type": "function"
    },
    {
      "inputs": [],
      "name": "status",
      "outputs": [
        {
          "internalType": "string",
          "name": "",
          "type": "string"
        }
      ],
      "stateMutability": "view",
      "type": "function"
    },
    {
      "inputs": [
        {
          "internalType": "address",
          "name": "_RNCAddress",
          "type": "address"
        }
      ],
      "name": "upgradeRNC",
      "outputs": [],
      "stateMutability": "nonpayable",
      "type": "function"
    },
    {
      "inputs": [],
      "name": "userCount",
      "outputs": [
        {
          "internalType": "uint256",
          "name": "",
          "type": "uint256"
        }
      ],
      "stateMutability": "view",
      "type": "function"
    },
    {
      "inputs": [
        {
          "internalType": "address",
          "name": "",
          "type": "address"
        }
      ],
      "name": "userEntered",
      "outputs": [
        {
          "internalType": "bool",
          "name": "",
          "type": "bool"
        }
      ],
      "stateMutability": "view",
      "type": "function"
    },
    {
      "inputs": [],
      "name": "userLimit",
      "outputs": [
        {
          "internalType": "uint256",
          "name": "",
          "type": "uint256"
        }
      ],
      "stateMutability": "view",
      "type": "function"
    },
    {
      "inputs": [],
      "name": "usersNumberToRollDice",
      "outputs": [
        {
          "internalType": "uint256",
          "name": "_usersNeeded",
          "type": "uint256"
        }
      ],
      "stateMutability": "view",
      "type": "function"
    },
    {
      "inputs": [],
      "name": "winner",
      "outputs": [
        {
          "internalType": "address",
          "name": "",
          "type": "address"
        }
      ],
      "stateMutability": "view",
      "type": "function"
    },
    {
      "inputs": [],
      "name": "withdrawCommission",
      "outputs": [],
      "stateMutability": "nonpayable",
      "type": "function"
    },
    {
      "inputs": [],
      "name": "withdrawableSupply",
      "outputs": [
        {
          "internalType": "uint256",
          "name": "",
          "type": "uint256"
        }
      ],
      "stateMutability": "view",
      "type": "function"
    }
  ],
  "bytecode": "0x608060405234801561001057600080fd5b50612aa6806100206000396000f3fe60806040526004361061019b5760003560e01c806355161913116100ec578063bef3a0831161008a578063e148919111610064578063e148919114610531578063e3ac5d261461055c578063ea8a1af014610587578063f036a67f1461059e5761019b565b8063bef3a083146104b0578063def33fd4146104db578063dfbf53ae146105065761019b565b806382afd504116100c657806382afd5041461041a578063837e7cc614610445578063839a19d91461045c5780638da5cb5b146104855761019b565b806355161913146103a85780636c0360eb146103b25780636e97b78a146103dd5761019b565b80632fbd774a11610159578063370158ea11610133578063370158ea146103315780633e25e8371461035c5780634a7c01ec146103735780634cd77ded1461039e5761019b565b80632fbd774a1461029e5780632ff8c0cc146102db578063310c87cc146103065761019b565b806294d81b146101a057806303d3c218146101c957806307973ccf146101f25780630faa51d81461021d578063200d2ed2146102485780632c82ae4314610273575b600080fd5b3480156101ac57600080fd5b506101c760048036038101906101c29190611cc7565b6105c9565b005b3480156101d557600080fd5b506101f060048036038101906101eb9190611e70565b610700565b005b3480156101fe57600080fd5b50610207610a06565b6040516102149190611f81565b60405180910390f35b34801561022957600080fd5b50610232610a0c565b60405161023f9190611f81565b60405180910390f35b34801561025457600080fd5b5061025d610a3b565b60405161026a9190612024565b60405180910390f35b34801561027f57600080fd5b50610288610ac9565b6040516102959190611f81565b60405180910390f35b3480156102aa57600080fd5b506102c560048036038101906102c09190611cc7565b610af6565b6040516102d29190612061565b60405180910390f35b3480156102e757600080fd5b506102f0610b16565b6040516102fd9190611f81565b60405180910390f35b34801561031257600080fd5b5061031b610b1c565b604051610328919061208b565b60405180910390f35b34801561033d57600080fd5b50610346610b42565b6040516103539190612024565b60405180910390f35b34801561036857600080fd5b50610371610bd0565b005b34801561037f57600080fd5b50610388610cd8565b6040516103959190611f81565b60405180910390f35b6103a6610cde565b005b6103b0610fd4565b005b3480156103be57600080fd5b506103c7610fd6565b6040516103d49190612024565b60405180910390f35b3480156103e957600080fd5b5061040460048036038101906103ff91906120a6565b611064565b604051610411919061208b565b60405180910390f35b34801561042657600080fd5b5061042f611097565b60405161043c919061208b565b60405180910390f35b34801561045157600080fd5b5061045a6110bd565b005b34801561046857600080fd5b50610483600480360381019061047e91906120a6565b6114ed565b005b34801561049157600080fd5b5061049a611769565b6040516104a7919061208b565b60405180910390f35b3480156104bc57600080fd5b506104c561178f565b6040516104d29190611f81565b60405180910390f35b3480156104e757600080fd5b506104f0611795565b6040516104fd9190611f81565b60405180910390f35b34801561051257600080fd5b5061051b6117bc565b604051610528919061208b565b60405180910390f35b34801561053d57600080fd5b506105466117e2565b6040516105539190611f81565b60405180910390f35b34801561056857600080fd5b506105716117e8565b60405161057e9190611f81565b60405180910390f35b34801561059357600080fd5b5061059c6117ee565b005b3480156105aa57600080fd5b506105b36119e4565b6040516105c09190611f81565b60405180910390f35b600860009054906101000a900473ffffffffffffffffffffffffffffffffffffffff1673ffffffffffffffffffffffffffffffffffffffff163373ffffffffffffffffffffffffffffffffffffffff1614610659576040517f08c379a000000000000000000000000000000000000000000000000000000000815260040161065090612145565b60405180910390fd5b80600960006101000a81548173ffffffffffffffffffffffffffffffffffffffff021916908373ffffffffffffffffffffffffffffffffffffffff160217905550600960009054906101000a900473ffffffffffffffffffffffffffffffffffffffff16600060026101000a81548173ffffffffffffffffffffffffffffffffffffffff021916908373ffffffffffffffffffffffffffffffffffffffff16021790555050565b600060019054906101000a900460ff1680610726575060008054906101000a900460ff16155b610765576040517f08c379a000000000000000000000000000000000000000000000000000000000815260040161075c906121d7565b60405180910390fd5b60008060019054906101000a900460ff1615905080156107b5576001600060016101000a81548160ff02191690831515021790555060016000806101000a81548160ff0219169083151502179055505b89600290805190602001906107cb929190611bb2565b5088600390805190602001906107e2929190611bb2565b50876004819055506064876004546107fa9190612226565b61080491906122af565b60058190555085600681905550600085111561082d57844261082691906122e0565b6007819055505b83600860006101000a81548173ffffffffffffffffffffffffffffffffffffffff021916908373ffffffffffffffffffffffffffffffffffffffff16021790555082600960006101000a81548173ffffffffffffffffffffffffffffffffffffffff021916908373ffffffffffffffffffffffffffffffffffffffff16021790555082600060026101000a81548173ffffffffffffffffffffffffffffffffffffffff021916908373ffffffffffffffffffffffffffffffffffffffff16021790555081600a60006101000a81548173ffffffffffffffffffffffffffffffffffffffff021916908373ffffffffffffffffffffffffffffffffffffffff16021790555081600160006101000a81548173ffffffffffffffffffffffffffffffffffffffff021916908373ffffffffffffffffffffffffffffffffffffffff1602179055506001600a60146101000a81548160ff0219169083151502179055506040518060400160405280600f81526020017f6f70656e20616e64206163746976650000000000000000000000000000000000815250600b90805190602001906109d8929190611bb2565b5080156109fa5760008060016101000a81548160ff0219169083151502179055505b50505050505050505050565b600d5481565b600080429050806007541115610a325780600754610a2a9190612336565b915050610a38565b60009150505b90565b600b8054610a4890612399565b80601f0160208091040260200160405190810160405280929190818152602001828054610a7490612399565b8015610ac15780601f10610a9657610100808354040283529160200191610ac1565b820191906000526020600020905b815481529060010190602001808311610aa457829003601f168201915b505050505081565b6000600d546006541115610aee57600d54600654610ae79190612336565b9050610af3565b600090505b90565b60116020528060005260406000206000915054906101000a900460ff1681565b60045481565b600a60009054906101000a900473ffffffffffffffffffffffffffffffffffffffff1681565b60028054610b4f90612399565b80601f0160208091040260200160405190810160405280929190818152602001828054610b7b90612399565b8015610bc85780601f10610b9d57610100808354040283529160200191610bc8565b820191906000526020600020905b815481529060010190602001808311610bab57829003601f168201915b505050505081565b600860009054906101000a900473ffffffffffffffffffffffffffffffffffffffff1673ffffffffffffffffffffffffffffffffffffffff163373ffffffffffffffffffffffffffffffffffffffff1614610c60576040517f08c379a0000000000000000000000000000000000000000000000000000000008152600401610c5790612145565b60405180910390fd5b6000600860009054906101000a900473ffffffffffffffffffffffffffffffffffffffff1690508073ffffffffffffffffffffffffffffffffffffffff166108fc610ca9611795565b9081150290604051600060405180830381858888f19350505050158015610cd4573d6000803e3d6000fd5b5050565b60065481565b600a60149054906101000a900460ff16610d2d576040517f08c379a0000000000000000000000000000000000000000000000000000000008152600401610d2490612417565b60405180910390fd5b60006006541480610d415750600654600d54105b610d80576040517f08c379a0000000000000000000000000000000000000000000000000000000008152600401610d7790612483565b60405180910390fd5b601160003373ffffffffffffffffffffffffffffffffffffffff1673ffffffffffffffffffffffffffffffffffffffff16815260200190815260200160002060009054906101000a900460ff1615610e0d576040517f08c379a0000000000000000000000000000000000000000000000000000000008152600401610e04906124ef565b60405180910390fd5b600033905060003490506004548114610e5b576040517f08c379a0000000000000000000000000000000000000000000000000000000008152600401610e529061255b565b60405180910390fd5b8160106000600d54815260200190815260200160002060006101000a81548173ffffffffffffffffffffffffffffffffffffffff021916908373ffffffffffffffffffffffffffffffffffffffff1602179055506001601160008473ffffffffffffffffffffffffffffffffffffffff1673ffffffffffffffffffffffffffffffffffffffff16815260200190815260200160002060006101000a81548160ff0219169083151502179055508173ffffffffffffffffffffffffffffffffffffffff167f22b14d815e1456ee8e3186433fdfdaa984af441a362020080f799688c7ff2c1760405160405180910390a2600d6000815480929190610f5d9061257b565b91905055506000610f6d826119ea565b9050610f7881611b00565b600654600d541415610fcf576000600a60146101000a81548160ff021916908315150217905550604051806060016040528060258152602001612a4c60259139600b9080519060200190610fcd929190611bb2565b505b505050565b565b60038054610fe390612399565b80601f016020809104026020016040519081016040528092919081815260200182805461100f90612399565b801561105c5780601f106110315761010080835404028352916020019161105c565b820191906000526020600020905b81548152906001019060200180831161103f57829003601f168201915b505050505081565b60106020528060005260406000206000915054906101000a900473ffffffffffffffffffffffffffffffffffffffff1681565b600960009054906101000a900473ffffffffffffffffffffffffffffffffffffffff1681565b600060029054906101000a900473ffffffffffffffffffffffffffffffffffffffff1673ffffffffffffffffffffffffffffffffffffffff16632fe12dfb6040518163ffffffff1660e01b815260040160206040518083038186803b15801561112557600080fd5b505afa158015611139573d6000803e3d6000fd5b505050506040513d601f19601f8201168201806040525081019061115d91906125d9565b600c54146111a0576040517f08c379a000000000000000000000000000000000000000000000000000000000815260040161119790612652565b60405180910390fd5b60006006541180156111b457506000600754115b1561121157600654600d5414806111cd57506007544210155b61120c576040517f08c379a0000000000000000000000000000000000000000000000000000000008152600401611203906126e4565b60405180910390fd5b61134f565b6000600654111561126757600654600d5414611262576040517f08c379a000000000000000000000000000000000000000000000000000000000815260040161125990612776565b60405180910390fd5b61134e565b600060075411156112bc576007544210156112b7576040517f08c379a00000000000000000000000000000000000000000000000000000000081526004016112ae90612808565b60405180910390fd5b61134d565b600860009054906101000a900473ffffffffffffffffffffffffffffffffffffffff1673ffffffffffffffffffffffffffffffffffffffff163373ffffffffffffffffffffffffffffffffffffffff161461134c576040517f08c379a000000000000000000000000000000000000000000000000000000000815260040161134390612145565b60405180910390fd5b5b5b5b6000600a60146101000a81548160ff02191690831515021790555060006040518060400160405280600f81526020017f73656c6563742875696e7432353629000000000000000000000000000000000081525080519060200120905060008060029054906101000a900473ffffffffffffffffffffffffffffffffffffffff1673ffffffffffffffffffffffffffffffffffffffff1663f5d34f23600c54846040518363ffffffff1660e01b815260040161140a9190612863565b6020604051808303818588803b15801561142357600080fd5b505af1158015611437573d6000803e3d6000fd5b50505050506040513d601f19601f8201168201806040525081019061145c91906128b4565b90506000600c819055507f72179fcf9070583e88aa5e724a71e6affe79c12733c644cc78fe215dde9fa0028160405161149591906128f0565b60405180910390a16040518060400160405280601c81526020017f77616974696e6720666f722072616e646f6d206e756d6265722e2e2e00000000815250600b90805190602001906114e8929190611bb2565b505050565b600960009054906101000a900473ffffffffffffffffffffffffffffffffffffffff1673ffffffffffffffffffffffffffffffffffffffff163373ffffffffffffffffffffffffffffffffffffffff161461157d576040517f08c379a000000000000000000000000000000000000000000000000000000000815260040161157490612957565b60405180910390fd5b6000600d548261158d9190612977565b90506010600082815260200190815260200160002060009054906101000a900473ffffffffffffffffffffffffffffffffffffffff16600f60006101000a81548173ffffffffffffffffffffffffffffffffffffffff021916908373ffffffffffffffffffffffffffffffffffffffff1602179055507f94dd8caf4803213035e054c595c14a4902fc45ff2d35957b439326822e43481981600f60009054906101000a900473ffffffffffffffffffffffffffffffffffffffff16600e5460405161165a939291906129a8565b60405180910390a161166a611b37565b600160009054906101000a900473ffffffffffffffffffffffffffffffffffffffff1673ffffffffffffffffffffffffffffffffffffffff166340d097c3600f60009054906101000a900473ffffffffffffffffffffffffffffffffffffffff166040518263ffffffff1660e01b81526004016116e7919061208b565b600060405180830381600087803b15801561170157600080fd5b505af1158015611715573d6000803e3d6000fd5b505050506040518060400160405280600981526020017f46696e69736865642e0000000000000000000000000000000000000000000000815250600b9080519060200190611764929190611bb2565b505050565b600860009054906101000a900473ffffffffffffffffffffffffffffffffffffffff1681565b60075481565b600080600e54600c546117a891906122e0565b905080476117b69190612336565b91505090565b600f60009054906101000a900473ffffffffffffffffffffffffffffffffffffffff1681565b60055481565b600e5481565b600860009054906101000a900473ffffffffffffffffffffffffffffffffffffffff1673ffffffffffffffffffffffffffffffffffffffff163373ffffffffffffffffffffffffffffffffffffffff161461187e576040517f08c379a000000000000000000000000000000000000000000000000000000000815260040161187590612145565b60405180910390fd5b600454600d5461188e9190612226565b4710156118d0576040517f08c379a00000000000000000000000000000000000000000000000000000000081526004016118c790612a2b565b60405180910390fd5b60005b600d548110156119725760006010600083815260200190815260200160002060009054906101000a900473ffffffffffffffffffffffffffffffffffffffff1690508073ffffffffffffffffffffffffffffffffffffffff166108fc6004549081150290604051600060405180830381858888f1935050505015801561195d573d6000803e3d6000fd5b5050808061196a9061257b565b9150506118d3565b506000600e819055506000600a60146101000a81548160ff0219169083151502179055506040518060400160405280600981526020017f43616e63656c65642e0000000000000000000000000000000000000000000000815250600b90805190602001906119e1929190611bb2565b50565b600c5481565b600080600c54600060029054906101000a900473ffffffffffffffffffffffffffffffffffffffff1673ffffffffffffffffffffffffffffffffffffffff16632fe12dfb6040518163ffffffff1660e01b815260040160206040518083038186803b158015611a5857600080fd5b505afa158015611a6c573d6000803e3d6000fd5b505050506040513d601f19601f82011682018060405250810190611a9091906125d9565b611a9a9190612336565b90506000811115611af757828110611ace5782600c6000828254611abe91906122e0565b9250508190555060009250611af6565b80600c6000828254611ae091906122e0565b925050819055508083611af39190612336565b92505b5b82915050919050565b600554811115611b345760055481611b189190612336565b905080600e6000828254611b2c91906122e0565b925050819055505b50565b6000600f60009054906101000a900473ffffffffffffffffffffffffffffffffffffffff1690508073ffffffffffffffffffffffffffffffffffffffff166108fc600e549081150290604051600060405180830381858888f19350505050158015611ba6573d6000803e3d6000fd5b506000600e8190555050565b828054611bbe90612399565b90600052602060002090601f016020900481019282611be05760008555611c27565b82601f10611bf957805160ff1916838001178555611c27565b82800160010185558215611c27579182015b82811115611c26578251825591602001919060010190611c0b565b5b509050611c349190611c38565b5090565b5b80821115611c51576000816000905550600101611c39565b5090565b6000604051905090565b600080fd5b600080fd5b600073ffffffffffffffffffffffffffffffffffffffff82169050919050565b6000611c9482611c69565b9050919050565b611ca481611c89565b8114611caf57600080fd5b50565b600081359050611cc181611c9b565b92915050565b600060208284031215611cdd57611cdc611c5f565b5b6000611ceb84828501611cb2565b91505092915050565b600080fd5b600080fd5b6000601f19601f8301169050919050565b7f4e487b7100000000000000000000000000000000000000000000000000000000600052604160045260246000fd5b611d4782611cfe565b810181811067ffffffffffffffff82111715611d6657611d65611d0f565b5b80604052505050565b6000611d79611c55565b9050611d858282611d3e565b919050565b600067ffffffffffffffff821115611da557611da4611d0f565b5b611dae82611cfe565b9050602081019050919050565b82818337600083830152505050565b6000611ddd611dd884611d8a565b611d6f565b905082815260208101848484011115611df957611df8611cf9565b5b611e04848285611dbb565b509392505050565b600082601f830112611e2157611e20611cf4565b5b8135611e31848260208601611dca565b91505092915050565b6000819050919050565b611e4d81611e3a565b8114611e5857600080fd5b50565b600081359050611e6a81611e44565b92915050565b60008060008060008060008060006101208a8c031215611e9357611e92611c5f565b5b60008a013567ffffffffffffffff811115611eb157611eb0611c64565b5b611ebd8c828d01611e0c565b99505060208a013567ffffffffffffffff811115611ede57611edd611c64565b5b611eea8c828d01611e0c565b9850506040611efb8c828d01611e5b565b9750506060611f0c8c828d01611e5b565b9650506080611f1d8c828d01611e5b565b95505060a0611f2e8c828d01611e5b565b94505060c0611f3f8c828d01611cb2565b93505060e0611f508c828d01611cb2565b925050610100611f628c828d01611cb2565b9150509295985092959850929598565b611f7b81611e3a565b82525050565b6000602082019050611f966000830184611f72565b92915050565b600081519050919050565b600082825260208201905092915050565b60005b83811015611fd6578082015181840152602081019050611fbb565b83811115611fe5576000848401525b50505050565b6000611ff682611f9c565b6120008185611fa7565b9350612010818560208601611fb8565b61201981611cfe565b840191505092915050565b6000602082019050818103600083015261203e8184611feb565b905092915050565b60008115159050919050565b61205b81612046565b82525050565b60006020820190506120766000830184612052565b92915050565b61208581611c89565b82525050565b60006020820190506120a0600083018461207c565b92915050565b6000602082840312156120bc576120bb611c5f565b5b60006120ca84828501611e5b565b91505092915050565b7f6f6e6c79206f776e65722063616e2063616c6c20746869732066756e6374696f60008201527f6e00000000000000000000000000000000000000000000000000000000000000602082015250565b600061212f602183611fa7565b915061213a826120d3565b604082019050919050565b6000602082019050818103600083015261215e81612122565b9050919050565b7f496e697469616c697a61626c653a20636f6e747261637420697320616c72656160008201527f647920696e697469616c697a6564000000000000000000000000000000000000602082015250565b60006121c1602e83611fa7565b91506121cc82612165565b604082019050919050565b600060208201905081810360008301526121f0816121b4565b9050919050565b7f4e487b7100000000000000000000000000000000000000000000000000000000600052601160045260246000fd5b600061223182611e3a565b915061223c83611e3a565b9250817fffffffffffffffffffffffffffffffffffffffffffffffffffffffffffffffff0483118215151615612275576122746121f7565b5b828202905092915050565b7f4e487b7100000000000000000000000000000000000000000000000000000000600052601260045260246000fd5b60006122ba82611e3a565b91506122c583611e3a565b9250826122d5576122d4612280565b5b828204905092915050565b60006122eb82611e3a565b91506122f683611e3a565b9250827fffffffffffffffffffffffffffffffffffffffffffffffffffffffffffffffff0382111561232b5761232a6121f7565b5b828201905092915050565b600061234182611e3a565b915061234c83611e3a565b92508282101561235f5761235e6121f7565b5b828203905092915050565b7f4e487b7100000000000000000000000000000000000000000000000000000000600052602260045260246000fd5b600060028204905060018216806123b157607f821691505b602082108114156123c5576123c461236a565b5b50919050565b7f726f6f6d20657870697265640000000000000000000000000000000000000000600082015250565b6000612401600c83611fa7565b915061240c826123cb565b602082019050919050565b60006020820190508181036000830152612430816123f4565b9050919050565b7f736f6c64206f75742e0000000000000000000000000000000000000000000000600082015250565b600061246d600983611fa7565b915061247882612437565b602082019050919050565b6000602082019050818103600083015261249c81612460565b9050919050565b7f7369676e656420696e206265666f72652e000000000000000000000000000000600082015250565b60006124d9601183611fa7565b91506124e4826124a3565b602082019050919050565b60006020820190508181036000830152612508816124cc565b9050919050565b7f57726f6e6720636172642066656520656e746572656400000000000000000000600082015250565b6000612545601683611fa7565b91506125508261250f565b602082019050919050565b6000602082019050818103600083015261257481612538565b9050919050565b600061258682611e3a565b91507fffffffffffffffffffffffffffffffffffffffffffffffffffffffffffffffff8214156125b9576125b86121f7565b5b600182019050919050565b6000815190506125d381611e44565b92915050565b6000602082840312156125ef576125ee611c5f565b5b60006125fd848285016125c4565b91505092915050565b7f6e6f7420656e6f75676820524e432077697468686f6c64000000000000000000600082015250565b600061263c601783611fa7565b915061264782612606565b602082019050919050565b6000602082019050818103600083015261266b8161262f565b9050919050565b7f72656163682074696d65206c696d6974206f722075736572206c696d6974207460008201527f6f20616374697661746520646963650000000000000000000000000000000000602082015250565b60006126ce602f83611fa7565b91506126d982612672565b604082019050919050565b600060208201905081810360008301526126fd816126c1565b9050919050565b7f72656163682075736572206c696d697420746f2061637469766174652064696360008201527f6500000000000000000000000000000000000000000000000000000000000000602082015250565b6000612760602183611fa7565b915061276b82612704565b604082019050919050565b6000602082019050818103600083015261278f81612753565b9050919050565b7f796f75206861766520746f207761697420756e74696c6c20646561646c696e6560008201527f2070617373000000000000000000000000000000000000000000000000000000602082015250565b60006127f2602583611fa7565b91506127fd82612796565b604082019050919050565b60006020820190508181036000830152612821816127e5565b9050919050565b60007fffffffff0000000000000000000000000000000000000000000000000000000082169050919050565b61285d81612828565b82525050565b60006020820190506128786000830184612854565b92915050565b6000819050919050565b6128918161287e565b811461289c57600080fd5b50565b6000815190506128ae81612888565b92915050565b6000602082840312156128ca576128c9611c5f565b5b60006128d88482850161289f565b91505092915050565b6128ea8161287e565b82525050565b600060208201905061290560008301846128e1565b92915050565b7f63616c6c6572206973206e6f74207468652076616c696420524e430000000000600082015250565b6000612941601b83611fa7565b915061294c8261290b565b602082019050919050565b6000602082019050818103600083015261297081612934565b9050919050565b600061298282611e3a565b915061298d83611e3a565b92508261299d5761299c612280565b5b828206905092915050565b60006060820190506129bd6000830186611f72565b6129ca602083018561207c565b6129d76040830184611f72565b949350505050565b7f6e6f7420656e6f756768206361736820746f2070617920757365727300000000600082015250565b6000612a15601c83611fa7565b9150612a20826129df565b602082019050919050565b60006020820190508181036000830152612a4481612a08565b905091905056fe4e756d626572206f6620757365727320686173207265616368207468652071756f72756d2ea264697066735822122088778a24b6d892bbe23ddfa1ac3ec3790acc4d30394a641eee23a41ccb6b9cd764736f6c63430008090033",
  "linkReferences": {},
  "deployedLinkReferences": {}
}