{
  "_format": "hh-sol-artifact-1",
  "contractName": "UserData",
  "sourceName": "contracts/register/UserData.sol",
  "abi": [
    {
      "anonymous": false,
      "inputs": [
        {
          "indexed": true,
          "internalType": "address",
          "name": "userAddr",
          "type": "address"
        },
        {
          "indexed": false,
          "internalType": "bytes32",
          "name": "tag",
          "type": "bytes32"
        },
        {
          "indexed": false,
          "internalType": "address",
          "name": "data",
          "type": "address"
        }
      ],
      "name": "SetAddress",
      "type": "event"
    },
    {
      "anonymous": false,
      "inputs": [
        {
          "indexed": true,
          "internalType": "address",
          "name": "userAddr",
          "type": "address"
        },
        {
          "indexed": false,
          "internalType": "bytes32",
          "name": "tag",
          "type": "bytes32"
        },
        {
          "indexed": false,
          "internalType": "bool",
          "name": "data",
          "type": "bool"
        }
      ],
      "name": "SetBool",
      "type": "event"
    },
    {
      "anonymous": false,
      "inputs": [
        {
          "indexed": true,
          "internalType": "address",
          "name": "userAddr",
          "type": "address"
        },
        {
          "indexed": false,
          "internalType": "bytes32",
          "name": "tag",
          "type": "bytes32"
        },
        {
          "indexed": false,
          "internalType": "bytes",
          "name": "data",
          "type": "bytes"
        }
      ],
      "name": "SetBytes",
      "type": "event"
    },
    {
      "anonymous": false,
      "inputs": [
        {
          "indexed": true,
          "internalType": "address",
          "name": "userAddr",
          "type": "address"
        },
        {
          "indexed": false,
          "internalType": "bytes32",
          "name": "tag",
          "type": "bytes32"
        },
        {
          "indexed": false,
          "internalType": "int256",
          "name": "data",
          "type": "int256"
        }
      ],
      "name": "SetInt",
      "type": "event"
    },
    {
      "anonymous": false,
      "inputs": [
        {
          "indexed": true,
          "internalType": "address",
          "name": "userAddr",
          "type": "address"
        },
        {
          "indexed": false,
          "internalType": "bytes32",
          "name": "tag",
          "type": "bytes32"
        },
        {
          "indexed": false,
          "internalType": "string",
          "name": "data",
          "type": "string"
        }
      ],
      "name": "SetString",
      "type": "event"
    },
    {
      "anonymous": false,
      "inputs": [
        {
          "indexed": true,
          "internalType": "address",
          "name": "userAddr",
          "type": "address"
        },
        {
          "indexed": false,
          "internalType": "bytes32",
          "name": "tag",
          "type": "bytes32"
        },
        {
          "indexed": false,
          "internalType": "uint256",
          "name": "data",
          "type": "uint256"
        }
      ],
      "name": "SetUint",
      "type": "event"
    },
    {
      "anonymous": false,
      "inputs": [
        {
          "indexed": true,
          "internalType": "string",
          "name": "username",
          "type": "string"
        },
        {
          "indexed": true,
          "internalType": "address",
          "name": "userAddr",
          "type": "address"
        }
      ],
      "name": "SetUserAddress",
      "type": "event"
    },
    {
      "inputs": [],
      "name": "DAO",
      "outputs": [
        {
          "internalType": "address",
          "name": "DAOAddr",
          "type": "address"
        }
      ],
      "stateMutability": "view",
      "type": "function"
    },
    {
      "inputs": [
        {
          "internalType": "bytes32",
          "name": "tag",
          "type": "bytes32"
        }
      ],
      "name": "DAOGetAddress",
      "outputs": [
        {
          "internalType": "address",
          "name": "data",
          "type": "address"
        }
      ],
      "stateMutability": "view",
      "type": "function"
    },
    {
      "inputs": [
        {
          "internalType": "bytes32",
          "name": "tag",
          "type": "bytes32"
        }
      ],
      "name": "DAOGetBool",
      "outputs": [
        {
          "internalType": "bool",
          "name": "data",
          "type": "bool"
        }
      ],
      "stateMutability": "view",
      "type": "function"
    },
    {
      "inputs": [
        {
          "internalType": "bytes32",
          "name": "tag",
          "type": "bytes32"
        }
      ],
      "name": "DAOGetBytes",
      "outputs": [
        {
          "internalType": "bytes",
          "name": "data",
          "type": "bytes"
        }
      ],
      "stateMutability": "view",
      "type": "function"
    },
    {
      "inputs": [
        {
          "internalType": "bytes32",
          "name": "tag",
          "type": "bytes32"
        }
      ],
      "name": "DAOGetInt",
      "outputs": [
        {
          "internalType": "int256",
          "name": "data",
          "type": "int256"
        }
      ],
      "stateMutability": "view",
      "type": "function"
    },
    {
      "inputs": [
        {
          "internalType": "bytes32",
          "name": "tag",
          "type": "bytes32"
        }
      ],
      "name": "DAOGetString",
      "outputs": [
        {
          "internalType": "string",
          "name": "data",
          "type": "string"
        }
      ],
      "stateMutability": "view",
      "type": "function"
    },
    {
      "inputs": [
        {
          "internalType": "bytes32",
          "name": "tag",
          "type": "bytes32"
        }
      ],
      "name": "DAOGetUint",
      "outputs": [
        {
          "internalType": "uint256",
          "name": "data",
          "type": "uint256"
        }
      ],
      "stateMutability": "view",
      "type": "function"
    },
    {
      "inputs": [
        {
          "internalType": "address",
          "name": "userAddr",
          "type": "address"
        },
        {
          "internalType": "bytes32",
          "name": "tag",
          "type": "bytes32"
        }
      ],
      "name": "getAddress",
      "outputs": [
        {
          "internalType": "address",
          "name": "data",
          "type": "address"
        }
      ],
      "stateMutability": "view",
      "type": "function"
    },
    {
      "inputs": [
        {
          "internalType": "address",
          "name": "userAddr",
          "type": "address"
        },
        {
          "internalType": "bytes32",
          "name": "tag",
          "type": "bytes32"
        }
      ],
      "name": "getBool",
      "outputs": [
        {
          "internalType": "bool",
          "name": "data",
          "type": "bool"
        }
      ],
      "stateMutability": "view",
      "type": "function"
    },
    {
      "inputs": [
        {
          "internalType": "address",
          "name": "userAddr",
          "type": "address"
        },
        {
          "internalType": "bytes32",
          "name": "tag",
          "type": "bytes32"
        }
      ],
      "name": "getBytes",
      "outputs": [
        {
          "internalType": "bytes",
          "name": "data",
          "type": "bytes"
        }
      ],
      "stateMutability": "view",
      "type": "function"
    },
    {
      "inputs": [
        {
          "internalType": "address",
          "name": "userAddr",
          "type": "address"
        },
        {
          "internalType": "bytes32",
          "name": "tag",
          "type": "bytes32"
        }
      ],
      "name": "getInt",
      "outputs": [
        {
          "internalType": "int256",
          "name": "data",
          "type": "int256"
        }
      ],
      "stateMutability": "view",
      "type": "function"
    },
    {
      "inputs": [
        {
          "internalType": "address",
          "name": "userAddr",
          "type": "address"
        },
        {
          "internalType": "bytes32",
          "name": "tag",
          "type": "bytes32"
        }
      ],
      "name": "getString",
      "outputs": [
        {
          "internalType": "string",
          "name": "data",
          "type": "string"
        }
      ],
      "stateMutability": "view",
      "type": "function"
    },
    {
      "inputs": [
        {
          "internalType": "address",
          "name": "userAddr",
          "type": "address"
        },
        {
          "internalType": "bytes32",
          "name": "tag",
          "type": "bytes32"
        }
      ],
      "name": "getUint",
      "outputs": [
        {
          "internalType": "uint256",
          "name": "data",
          "type": "uint256"
        }
      ],
      "stateMutability": "view",
      "type": "function"
    },
    {
      "inputs": [
        {
          "internalType": "address",
          "name": "userAddr",
          "type": "address"
        },
        {
          "internalType": "bytes32",
          "name": "tag",
          "type": "bytes32"
        },
        {
          "internalType": "address",
          "name": "data",
          "type": "address"
        }
      ],
      "name": "setAddress",
      "outputs": [],
      "stateMutability": "nonpayable",
      "type": "function"
    },
    {
      "inputs": [
        {
          "internalType": "address",
          "name": "userAddr",
          "type": "address"
        },
        {
          "internalType": "bytes32",
          "name": "tag",
          "type": "bytes32"
        },
        {
          "internalType": "bool",
          "name": "data",
          "type": "bool"
        }
      ],
      "name": "setBool",
      "outputs": [],
      "stateMutability": "nonpayable",
      "type": "function"
    },
    {
      "inputs": [
        {
          "internalType": "address",
          "name": "userAddr",
          "type": "address"
        },
        {
          "internalType": "bytes32",
          "name": "tag",
          "type": "bytes32"
        },
        {
          "internalType": "bytes",
          "name": "data",
          "type": "bytes"
        }
      ],
      "name": "setBytes",
      "outputs": [],
      "stateMutability": "nonpayable",
      "type": "function"
    },
    {
      "inputs": [
        {
          "internalType": "address",
          "name": "userAddr",
          "type": "address"
        },
        {
          "internalType": "bytes32",
          "name": "tag",
          "type": "bytes32"
        },
        {
          "internalType": "int256",
          "name": "data",
          "type": "int256"
        }
      ],
      "name": "setInt",
      "outputs": [],
      "stateMutability": "nonpayable",
      "type": "function"
    },
    {
      "inputs": [
        {
          "internalType": "address",
          "name": "userAddr",
          "type": "address"
        },
        {
          "internalType": "bytes32",
          "name": "tag",
          "type": "bytes32"
        },
        {
          "internalType": "string",
          "name": "data",
          "type": "string"
        }
      ],
      "name": "setString",
      "outputs": [],
      "stateMutability": "nonpayable",
      "type": "function"
    },
    {
      "inputs": [
        {
          "internalType": "address",
          "name": "userAddr",
          "type": "address"
        },
        {
          "internalType": "bytes32",
          "name": "tag",
          "type": "bytes32"
        },
        {
          "internalType": "uint256",
          "name": "data",
          "type": "uint256"
        }
      ],
      "name": "setUint",
      "outputs": [],
      "stateMutability": "nonpayable",
      "type": "function"
    },
    {
      "inputs": [
        {
          "internalType": "string",
          "name": "username",
          "type": "string"
        },
        {
          "internalType": "address",
          "name": "userAddr",
          "type": "address"
        }
      ],
      "name": "setUserAddress",
      "outputs": [],
      "stateMutability": "nonpayable",
      "type": "function"
    },
    {
      "inputs": [
        {
          "internalType": "string",
          "name": "username",
          "type": "string"
        }
      ],
      "name": "userAddress",
      "outputs": [
        {
          "internalType": "address",
          "name": "userAddr",
          "type": "address"
        }
      ],
      "stateMutability": "view",
      "type": "function"
    }
  ],
  "bytecode": "0x60a060405273245caa689fa16ab50df4e8ab48555715877f79ff73ffffffffffffffffffffffffffffffffffffffff1660809073ffffffffffffffffffffffffffffffffffffffff1681525034801561005757600080fd5b50608051612b5261007360003960006112000152612b526000f3fe608060405234801561001057600080fd5b50600436106101375760003560e01c80638aa30a71116100b8578063afdac18a1161007c578063afdac18a146103aa578063da548d6b146103da578063e2330b62146103f6578063e318de7314610426578063f4f20e7114610456578063fb8274781461047257610137565b80638aa30a71146102f4578063923b000b1461031057806395ee8bae1461032c57806398fabd3a1461035c5780639d74b37d1461037a57610137565b80635dbe43f2116100ff5780635dbe43f2146102045780636556f767146102345780636e08ca2e1461026457806371658552146102945780637ac4ed64146102c457610137565b8063025ec49a1461013c5780632c5880771461016c578063482fa043146101885780635b2f34b0146101b85780635c9566dc146101d4575b600080fd5b61015660048036038101906101519190611d54565b61048e565b6040516101639190611d9c565b60405180910390f35b61018660048036038101906101819190611f5b565b6105bc565b005b6101a2600480360381019061019d9190611d54565b61075a565b6040516101af919061203f565b60405180910390f35b6101d260048036038101906101cd9190612097565b610888565b005b6101ee60048036038101906101e991906120ea565b610a16565b6040516101fb9190612142565b60405180910390f35b61021e60048036038101906102199190611d54565b610a5d565b60405161022b9190612142565b60405180910390f35b61024e6004803603810190610249919061215d565b610b8b565b60405161025b919061203f565b60405180910390f35b61027e60048036038101906102799190611d54565b610c6e565b60405161028b91906121f2565b60405180910390f35b6102ae60048036038101906102a9919061215d565b610d9c565b6040516102bb9190612223565b60405180910390f35b6102de60048036038101906102d9919061215d565b610df7565b6040516102eb9190612142565b60405180910390f35b61030e600480360381019061030991906122df565b610e72565b005b61032a60048036038101906103259190612384565b611010565b005b6103466004803603810190610341919061215d565b61119e565b60405161035391906123e6565b60405180910390f35b6103646111f9565b6040516103719190612142565b60405180910390f35b610394600480360381019061038f919061215d565b611333565b6040516103a19190611d9c565b60405180910390f35b6103c460048036038101906103bf9190611d54565b61139b565b6040516103d191906123e6565b60405180910390f35b6103f460048036038101906103ef9190612401565b6114c9565b005b610410600480360381019061040b9190611d54565b611691565b60405161041d9190612223565b60405180910390f35b610440600480360381019061043b919061215d565b6117bf565b60405161044d91906121f2565b60405180910390f35b610470600480360381019061046b9190612454565b6118a2565b005b61048c600480360381019061048791906124ef565b611a40565b005b600080600061049b6111f9565b73ffffffffffffffffffffffffffffffffffffffff16846040516024016104c29190612551565b6040516020818303038152906040527f7ae1cfca000000000000000000000000000000000000000000000000000000007bffffffffffffffffffffffffffffffffffffffffffffffffffffffff19166020820180517bffffffffffffffffffffffffffffffffffffffffffffffffffffffff838183161783525050505060405161054c91906125a8565b600060405180830381855afa9150503d8060008114610587576040519150601f19603f3d011682016040523d82523d6000602084013e61058c565b606091505b509150915081156105b457808060200190518101906105ab91906125d4565b925050506105b7565b50505b919050565b6040518060400160405280600881526020017f52656769737465720000000000000000000000000000000000000000000000008152506106238133604051602001610608929190612685565b6040516020818303038152906040528051906020012061048e565b8061066057506106316111f9565b73ffffffffffffffffffffffffffffffffffffffff163373ffffffffffffffffffffffffffffffffffffffff16145b61069f576040517f08c379a00000000000000000000000000000000000000000000000000000000081526004016106969061271f565b60405180910390fd5b816000846040516106b0919061273f565b908152602001604051809103902060006101000a81548173ffffffffffffffffffffffffffffffffffffffff021916908373ffffffffffffffffffffffffffffffffffffffff1602179055508173ffffffffffffffffffffffffffffffffffffffff1683604051610721919061273f565b60405180910390207f6fb008b895310dfcbcaed190964becc148c6708e055f4804e03aef85c6b3068e60405160405180910390a3505050565b60606000806107676111f9565b73ffffffffffffffffffffffffffffffffffffffff168460405160240161078e9190612551565b6040516020818303038152906040527f3848207a000000000000000000000000000000000000000000000000000000007bffffffffffffffffffffffffffffffffffffffffffffffffffffffff19166020820180517bffffffffffffffffffffffffffffffffffffffffffffffffffffffff838183161783525050505060405161081891906125a8565b600060405180830381855afa9150503d8060008114610853576040519150601f19603f3d011682016040523d82523d6000602084013e610858565b606091505b50915091508115610880578080602001905181019061087791906127c6565b92505050610883565b50505b919050565b6040518060400160405280600881526020017f52656769737465720000000000000000000000000000000000000000000000008152506108ef81336040516020016108d4929190612685565b6040516020818303038152906040528051906020012061048e565b8061092c57506108fd6111f9565b73ffffffffffffffffffffffffffffffffffffffff163373ffffffffffffffffffffffffffffffffffffffff16145b61096b576040517f08c379a00000000000000000000000000000000000000000000000000000000081526004016109629061271f565b60405180910390fd5b81600260008673ffffffffffffffffffffffffffffffffffffffff1673ffffffffffffffffffffffffffffffffffffffff1681526020019081526020016000206000858152602001908152602001600020819055508373ffffffffffffffffffffffffffffffffffffffff167f61930c2effb031d692017dc34047cf0a4b23f9105d05df2370af025fd48ffcc08484604051610a0892919061280f565b60405180910390a250505050565b60008082604051610a27919061273f565b908152602001604051809103902060009054906101000a900473ffffffffffffffffffffffffffffffffffffffff169050919050565b6000806000610a6a6111f9565b73ffffffffffffffffffffffffffffffffffffffff1684604051602401610a919190612551565b6040516020818303038152906040527f21f8a721000000000000000000000000000000000000000000000000000000007bffffffffffffffffffffffffffffffffffffffffffffffffffffffff19166020820180517bffffffffffffffffffffffffffffffffffffffffffffffffffffffff8381831617835250505050604051610b1b91906125a8565b600060405180830381855afa9150503d8060008114610b56576040519150601f19603f3d011682016040523d82523d6000602084013e610b5b565b606091505b50915091508115610b835780806020019051810190610b7a9190612876565b92505050610b86565b50505b919050565b6060600660008473ffffffffffffffffffffffffffffffffffffffff1673ffffffffffffffffffffffffffffffffffffffff16815260200190815260200160002060008381526020019081526020016000208054610be8906128d2565b80601f0160208091040260200160405190810160405280929190818152602001828054610c14906128d2565b8015610c615780601f10610c3657610100808354040283529160200191610c61565b820191906000526020600020905b815481529060010190602001808311610c4457829003601f168201915b5050505050905092915050565b6060600080610c7b6111f9565b73ffffffffffffffffffffffffffffffffffffffff1684604051602401610ca29190612551565b6040516020818303038152906040527f986e791a000000000000000000000000000000000000000000000000000000007bffffffffffffffffffffffffffffffffffffffffffffffffffffffff19166020820180517bffffffffffffffffffffffffffffffffffffffffffffffffffffffff8381831617835250505050604051610d2c91906125a8565b600060405180830381855afa9150503d8060008114610d67576040519150601f19603f3d011682016040523d82523d6000602084013e610d6c565b606091505b50915091508115610d945780806020019051810190610d8b9190612974565b92505050610d97565b50505b919050565b6000600260008473ffffffffffffffffffffffffffffffffffffffff1673ffffffffffffffffffffffffffffffffffffffff168152602001908152602001600020600083815260200190815260200160002054905092915050565b6000600460008473ffffffffffffffffffffffffffffffffffffffff1673ffffffffffffffffffffffffffffffffffffffff168152602001908152602001600020600083815260200190815260200160002060009054906101000a900473ffffffffffffffffffffffffffffffffffffffff16905092915050565b6040518060400160405280600881526020017f5265676973746572000000000000000000000000000000000000000000000000815250610ed98133604051602001610ebe929190612685565b6040516020818303038152906040528051906020012061048e565b80610f165750610ee76111f9565b73ffffffffffffffffffffffffffffffffffffffff163373ffffffffffffffffffffffffffffffffffffffff16145b610f55576040517f08c379a0000000000000000000000000000000000000000000000000000000008152600401610f4c9061271f565b60405180910390fd5b81600660008673ffffffffffffffffffffffffffffffffffffffff1673ffffffffffffffffffffffffffffffffffffffff16815260200190815260200160002060008581526020019081526020016000209080519060200190610fb9929190611be1565b508373ffffffffffffffffffffffffffffffffffffffff167fad69eb1d2a2beb4a695031d42eeabd26b5ed0d8691257c2a025da60711b05a1c84846040516110029291906129bd565b60405180910390a250505050565b6040518060400160405280600881526020017f5265676973746572000000000000000000000000000000000000000000000000815250611077813360405160200161105c929190612685565b6040516020818303038152906040528051906020012061048e565b806110b457506110856111f9565b73ffffffffffffffffffffffffffffffffffffffff163373ffffffffffffffffffffffffffffffffffffffff16145b6110f3576040517f08c379a00000000000000000000000000000000000000000000000000000000081526004016110ea9061271f565b60405180910390fd5b81600360008673ffffffffffffffffffffffffffffffffffffffff1673ffffffffffffffffffffffffffffffffffffffff1681526020019081526020016000206000858152602001908152602001600020819055508373ffffffffffffffffffffffffffffffffffffffff167f1641f2f4aed2e707ebec645876be5ad55c7c12924d48aa32d248abd03272f51d84846040516111909291906129ed565b60405180910390a250505050565b6000600360008473ffffffffffffffffffffffffffffffffffffffff1673ffffffffffffffffffffffffffffffffffffffff168152602001908152602001600020600083815260200190815260200160002054905092915050565b60008060007f000000000000000000000000000000000000000000000000000000000000000073ffffffffffffffffffffffffffffffffffffffff166040516024016040516020818303038152906040527f98fabd3a000000000000000000000000000000000000000000000000000000007bffffffffffffffffffffffffffffffffffffffffffffffffffffffff19166020820180517bffffffffffffffffffffffffffffffffffffffffffffffffffffffff83818316178352505050506040516112c591906125a8565b600060405180830381855afa9150503d8060008114611300576040519150601f19603f3d011682016040523d82523d6000602084013e611305565b606091505b5091509150811561132d57808060200190518101906113249190612876565b92505050611330565b50505b90565b6000600160008473ffffffffffffffffffffffffffffffffffffffff1673ffffffffffffffffffffffffffffffffffffffff168152602001908152602001600020600083815260200190815260200160002060009054906101000a900460ff16905092915050565b60008060006113a86111f9565b73ffffffffffffffffffffffffffffffffffffffff16846040516024016113cf9190612551565b6040516020818303038152906040527f33598b00000000000000000000000000000000000000000000000000000000007bffffffffffffffffffffffffffffffffffffffffffffffffffffffff19166020820180517bffffffffffffffffffffffffffffffffffffffffffffffffffffffff838183161783525050505060405161145991906125a8565b600060405180830381855afa9150503d8060008114611494576040519150601f19603f3d011682016040523d82523d6000602084013e611499565b606091505b509150915081156114c157808060200190518101906114b89190612a2b565b925050506114c4565b50505b919050565b6040518060400160405280600881526020017f52656769737465720000000000000000000000000000000000000000000000008152506115308133604051602001611515929190612685565b6040516020818303038152906040528051906020012061048e565b8061156d575061153e6111f9565b73ffffffffffffffffffffffffffffffffffffffff163373ffffffffffffffffffffffffffffffffffffffff16145b6115ac576040517f08c379a00000000000000000000000000000000000000000000000000000000081526004016115a39061271f565b60405180910390fd5b81600460008673ffffffffffffffffffffffffffffffffffffffff1673ffffffffffffffffffffffffffffffffffffffff168152602001908152602001600020600085815260200190815260200160002060006101000a81548173ffffffffffffffffffffffffffffffffffffffff021916908373ffffffffffffffffffffffffffffffffffffffff1602179055508373ffffffffffffffffffffffffffffffffffffffff167f05dde291414806181f521f6b788ba12a637633eb620a99ab03836c9013128daf8484604051611683929190612a58565b60405180910390a250505050565b600080600061169e6111f9565b73ffffffffffffffffffffffffffffffffffffffff16846040516024016116c59190612551565b6040516020818303038152906040527f33598b00000000000000000000000000000000000000000000000000000000007bffffffffffffffffffffffffffffffffffffffffffffffffffffffff19166020820180517bffffffffffffffffffffffffffffffffffffffffffffffffffffffff838183161783525050505060405161174f91906125a8565b600060405180830381855afa9150503d806000811461178a576040519150601f19603f3d011682016040523d82523d6000602084013e61178f565b606091505b509150915081156117b757808060200190518101906117ae9190612a96565b925050506117ba565b50505b919050565b6060600560008473ffffffffffffffffffffffffffffffffffffffff1673ffffffffffffffffffffffffffffffffffffffff1681526020019081526020016000206000838152602001908152602001600020805461181c906128d2565b80601f0160208091040260200160405190810160405280929190818152602001828054611848906128d2565b80156118955780601f1061186a57610100808354040283529160200191611895565b820191906000526020600020905b81548152906001019060200180831161187857829003601f168201915b5050505050905092915050565b6040518060400160405280600881526020017f526567697374657200000000000000000000000000000000000000000000000081525061190981336040516020016118ee929190612685565b6040516020818303038152906040528051906020012061048e565b8061194657506119176111f9565b73ffffffffffffffffffffffffffffffffffffffff163373ffffffffffffffffffffffffffffffffffffffff16145b611985576040517f08c379a000000000000000000000000000000000000000000000000000000000815260040161197c9061271f565b60405180910390fd5b81600560008673ffffffffffffffffffffffffffffffffffffffff1673ffffffffffffffffffffffffffffffffffffffff168152602001908152602001600020600085815260200190815260200160002090805190602001906119e9929190611c67565b508373ffffffffffffffffffffffffffffffffffffffff167fc254e0061f62a39e85c02b4259d998e4f7c8654544c6a8287658f1880b694f308484604051611a32929190612ac3565b60405180910390a250505050565b6040518060400160405280600881526020017f5265676973746572000000000000000000000000000000000000000000000000815250611aa78133604051602001611a8c929190612685565b6040516020818303038152906040528051906020012061048e565b80611ae45750611ab56111f9565b73ffffffffffffffffffffffffffffffffffffffff163373ffffffffffffffffffffffffffffffffffffffff16145b611b23576040517f08c379a0000000000000000000000000000000000000000000000000000000008152600401611b1a9061271f565b60405180910390fd5b81600160008673ffffffffffffffffffffffffffffffffffffffff1673ffffffffffffffffffffffffffffffffffffffff168152602001908152602001600020600085815260200190815260200160002060006101000a81548160ff0219169083151502179055508373ffffffffffffffffffffffffffffffffffffffff167f58f00a1e948f27261cc666247db950db7a7dd39b09053f4c17c0c762d014117d8484604051611bd3929190612af3565b60405180910390a250505050565b828054611bed906128d2565b90600052602060002090601f016020900481019282611c0f5760008555611c56565b82601f10611c2857805160ff1916838001178555611c56565b82800160010185558215611c56579182015b82811115611c55578251825591602001919060010190611c3a565b5b509050611c639190611ced565b5090565b828054611c73906128d2565b90600052602060002090601f016020900481019282611c955760008555611cdc565b82601f10611cae57805160ff1916838001178555611cdc565b82800160010185558215611cdc579182015b82811115611cdb578251825591602001919060010190611cc0565b5b509050611ce99190611ced565b5090565b5b80821115611d06576000816000905550600101611cee565b5090565b6000604051905090565b600080fd5b600080fd5b6000819050919050565b611d3181611d1e565b8114611d3c57600080fd5b50565b600081359050611d4e81611d28565b92915050565b600060208284031215611d6a57611d69611d14565b5b6000611d7884828501611d3f565b91505092915050565b60008115159050919050565b611d9681611d81565b82525050565b6000602082019050611db16000830184611d8d565b92915050565b600080fd5b600080fd5b6000601f19601f8301169050919050565b7f4e487b7100000000000000000000000000000000000000000000000000000000600052604160045260246000fd5b611e0a82611dc1565b810181811067ffffffffffffffff82111715611e2957611e28611dd2565b5b80604052505050565b6000611e3c611d0a565b9050611e488282611e01565b919050565b600067ffffffffffffffff821115611e6857611e67611dd2565b5b611e7182611dc1565b9050602081019050919050565b82818337600083830152505050565b6000611ea0611e9b84611e4d565b611e32565b905082815260208101848484011115611ebc57611ebb611dbc565b5b611ec7848285611e7e565b509392505050565b600082601f830112611ee457611ee3611db7565b5b8135611ef4848260208601611e8d565b91505092915050565b600073ffffffffffffffffffffffffffffffffffffffff82169050919050565b6000611f2882611efd565b9050919050565b611f3881611f1d565b8114611f4357600080fd5b50565b600081359050611f5581611f2f565b92915050565b60008060408385031215611f7257611f71611d14565b5b600083013567ffffffffffffffff811115611f9057611f8f611d19565b5b611f9c85828601611ecf565b9250506020611fad85828601611f46565b9150509250929050565b600081519050919050565b600082825260208201905092915050565b60005b83811015611ff1578082015181840152602081019050611fd6565b83811115612000576000848401525b50505050565b600061201182611fb7565b61201b8185611fc2565b935061202b818560208601611fd3565b61203481611dc1565b840191505092915050565b600060208201905081810360008301526120598184612006565b905092915050565b6000819050919050565b61207481612061565b811461207f57600080fd5b50565b6000813590506120918161206b565b92915050565b6000806000606084860312156120b0576120af611d14565b5b60006120be86828701611f46565b93505060206120cf86828701611d3f565b92505060406120e086828701612082565b9150509250925092565b600060208284031215612100576120ff611d14565b5b600082013567ffffffffffffffff81111561211e5761211d611d19565b5b61212a84828501611ecf565b91505092915050565b61213c81611f1d565b82525050565b60006020820190506121576000830184612133565b92915050565b6000806040838503121561217457612173611d14565b5b600061218285828601611f46565b925050602061219385828601611d3f565b9150509250929050565b600081519050919050565b600082825260208201905092915050565b60006121c48261219d565b6121ce81856121a8565b93506121de818560208601611fd3565b6121e781611dc1565b840191505092915050565b6000602082019050818103600083015261220c81846121b9565b905092915050565b61221d81612061565b82525050565b60006020820190506122386000830184612214565b92915050565b600067ffffffffffffffff82111561225957612258611dd2565b5b61226282611dc1565b9050602081019050919050565b600061228261227d8461223e565b611e32565b90508281526020810184848401111561229e5761229d611dbc565b5b6122a9848285611e7e565b509392505050565b600082601f8301126122c6576122c5611db7565b5b81356122d684826020860161226f565b91505092915050565b6000806000606084860312156122f8576122f7611d14565b5b600061230686828701611f46565b935050602061231786828701611d3f565b925050604084013567ffffffffffffffff81111561233857612337611d19565b5b612344868287016122b1565b9150509250925092565b6000819050919050565b6123618161234e565b811461236c57600080fd5b50565b60008135905061237e81612358565b92915050565b60008060006060848603121561239d5761239c611d14565b5b60006123ab86828701611f46565b93505060206123bc86828701611d3f565b92505060406123cd8682870161236f565b9150509250925092565b6123e08161234e565b82525050565b60006020820190506123fb60008301846123d7565b92915050565b60008060006060848603121561241a57612419611d14565b5b600061242886828701611f46565b935050602061243986828701611d3f565b925050604061244a86828701611f46565b9150509250925092565b60008060006060848603121561246d5761246c611d14565b5b600061247b86828701611f46565b935050602061248c86828701611d3f565b925050604084013567ffffffffffffffff8111156124ad576124ac611d19565b5b6124b986828701611ecf565b9150509250925092565b6124cc81611d81565b81146124d757600080fd5b50565b6000813590506124e9816124c3565b92915050565b60008060006060848603121561250857612507611d14565b5b600061251686828701611f46565b935050602061252786828701611d3f565b9250506040612538868287016124da565b9150509250925092565b61254b81611d1e565b82525050565b60006020820190506125666000830184612542565b92915050565b600081905092915050565b600061258282611fb7565b61258c818561256c565b935061259c818560208601611fd3565b80840191505092915050565b60006125b48284612577565b915081905092915050565b6000815190506125ce816124c3565b92915050565b6000602082840312156125ea576125e9611d14565b5b60006125f8848285016125bf565b91505092915050565b600081905092915050565b60006126178261219d565b6126218185612601565b9350612631818560208601611fd3565b80840191505092915050565b60008160601b9050919050565b60006126558261263d565b9050919050565b60006126678261264a565b9050919050565b61267f61267a82611f1d565b61265c565b82525050565b6000612691828561260c565b915061269d828461266e565b6014820191508190509392505050565b7f446563656e7472616c4163636573733a2072657374726963746564206163636560008201527f737320746f20737065636966696320726f6c6c00000000000000000000000000602082015250565b60006127096033836121a8565b9150612714826126ad565b604082019050919050565b60006020820190508181036000830152612738816126fc565b9050919050565b600061274b828461260c565b915081905092915050565b60006127696127648461223e565b611e32565b90508281526020810184848401111561278557612784611dbc565b5b612790848285611fd3565b509392505050565b600082601f8301126127ad576127ac611db7565b5b81516127bd848260208601612756565b91505092915050565b6000602082840312156127dc576127db611d14565b5b600082015167ffffffffffffffff8111156127fa576127f9611d19565b5b61280684828501612798565b91505092915050565b60006040820190506128246000830185612542565b6128316020830184612214565b9392505050565b600061284382611efd565b9050919050565b61285381612838565b811461285e57600080fd5b50565b6000815190506128708161284a565b92915050565b60006020828403121561288c5761288b611d14565b5b600061289a84828501612861565b91505092915050565b7f4e487b7100000000000000000000000000000000000000000000000000000000600052602260045260246000fd5b600060028204905060018216806128ea57607f821691505b602082108114156128fe576128fd6128a3565b5b50919050565b600061291761291284611e4d565b611e32565b90508281526020810184848401111561293357612932611dbc565b5b61293e848285611fd3565b509392505050565b600082601f83011261295b5761295a611db7565b5b815161296b848260208601612904565b91505092915050565b60006020828403121561298a57612989611d14565b5b600082015167ffffffffffffffff8111156129a8576129a7611d19565b5b6129b484828501612946565b91505092915050565b60006040820190506129d26000830185612542565b81810360208301526129e48184612006565b90509392505050565b6000604082019050612a026000830185612542565b612a0f60208301846123d7565b9392505050565b600081519050612a2581612358565b92915050565b600060208284031215612a4157612a40611d14565b5b6000612a4f84828501612a16565b91505092915050565b6000604082019050612a6d6000830185612542565b612a7a6020830184612133565b9392505050565b600081519050612a908161206b565b92915050565b600060208284031215612aac57612aab611d14565b5b6000612aba84828501612a81565b91505092915050565b6000604082019050612ad86000830185612542565b8181036020830152612aea81846121b9565b90509392505050565b6000604082019050612b086000830185612542565b612b156020830184611d8d565b939250505056fea26469706673582212207fe3e2c1a73e2964f619481e9802e03576298b0c0dd50fe37641f90fd4a13d0c64736f6c63430008090033",
  "linkReferences": {},
  "deployedLinkReferences": {}
}