{
  "_format": "hh-sol-artifact-1",
  "contractName": "Register",
  "sourceName": "contracts/register/Register.sol",
  "abi": [
    {
      "inputs": [
        {
          "internalType": "address",
          "name": "_DAOAddress",
          "type": "address"
        },
        {
          "internalType": "uint256",
          "name": "_pureNameFee",
          "type": "uint256"
        }
      ],
      "stateMutability": "nonpayable",
      "type": "constructor"
    },
    {
      "anonymous": false,
      "inputs": [
        {
          "indexed": true,
          "internalType": "address",
          "name": "previousOwner",
          "type": "address"
        },
        {
          "indexed": true,
          "internalType": "address",
          "name": "newOwner",
          "type": "address"
        }
      ],
      "name": "OwnershipTransferred",
      "type": "event"
    },
    {
      "anonymous": false,
      "inputs": [
        {
          "indexed": true,
          "internalType": "address",
          "name": "userAddress",
          "type": "address"
        },
        {
          "indexed": false,
          "internalType": "string",
          "name": "info",
          "type": "string"
        }
      ],
      "name": "SetInfo",
      "type": "event"
    },
    {
      "anonymous": false,
      "inputs": [
        {
          "indexed": false,
          "internalType": "address",
          "name": "_from",
          "type": "address"
        },
        {
          "indexed": false,
          "internalType": "address",
          "name": "_to",
          "type": "address"
        },
        {
          "indexed": false,
          "internalType": "string",
          "name": "username",
          "type": "string"
        }
      ],
      "name": "TransferUsername",
      "type": "event"
    },
    {
      "inputs": [],
      "name": "DAOContract",
      "outputs": [
        {
          "internalType": "address",
          "name": "",
          "type": "address"
        }
      ],
      "stateMutability": "view",
      "type": "function"
    },
    {
      "inputs": [
        {
          "internalType": "address",
          "name": "",
          "type": "address"
        }
      ],
      "name": "addrToUser",
      "outputs": [
        {
          "internalType": "string",
          "name": "username",
          "type": "string"
        },
        {
          "internalType": "string",
          "name": "info",
          "type": "string"
        },
        {
          "internalType": "string",
          "name": "DAOInfo",
          "type": "string"
        },
        {
          "internalType": "bool",
          "name": "isVIP",
          "type": "bool"
        }
      ],
      "stateMutability": "view",
      "type": "function"
    },
    {
      "inputs": [
        {
          "internalType": "address",
          "name": "userAddr",
          "type": "address"
        }
      ],
      "name": "addressToProfile",
      "outputs": [
        {
          "internalType": "string",
          "name": "username",
          "type": "string"
        },
        {
          "internalType": "string",
          "name": "info",
          "type": "string"
        },
        {
          "internalType": "bool",
          "name": "VIPStatus",
          "type": "bool"
        }
      ],
      "stateMutability": "view",
      "type": "function"
    },
    {
      "inputs": [
        {
          "internalType": "address",
          "name": "userAddr",
          "type": "address"
        }
      ],
      "name": "addressToUsername",
      "outputs": [
        {
          "internalType": "string",
          "name": "username",
          "type": "string"
        }
      ],
      "stateMutability": "view",
      "type": "function"
    },
    {
      "inputs": [
        {
          "internalType": "address",
          "name": "userAddr",
          "type": "address"
        }
      ],
      "name": "isPure",
      "outputs": [
        {
          "internalType": "bool",
          "name": "",
          "type": "bool"
        }
      ],
      "stateMutability": "view",
      "type": "function"
    },
    {
      "inputs": [
        {
          "internalType": "address",
          "name": "userAddr",
          "type": "address"
        }
      ],
      "name": "isVIP",
      "outputs": [
        {
          "internalType": "bool",
          "name": "",
          "type": "bool"
        }
      ],
      "stateMutability": "view",
      "type": "function"
    },
    {
      "inputs": [
        {
          "internalType": "address",
          "name": "contractAddr",
          "type": "address"
        }
      ],
      "name": "newDAOContract",
      "outputs": [],
      "stateMutability": "nonpayable",
      "type": "function"
    },
    {
      "inputs": [],
      "name": "owner",
      "outputs": [
        {
          "internalType": "address",
          "name": "",
          "type": "address"
        }
      ],
      "stateMutability": "view",
      "type": "function"
    },
    {
      "inputs": [],
      "name": "pureNameFee",
      "outputs": [
        {
          "internalType": "uint256",
          "name": "",
          "type": "uint256"
        }
      ],
      "stateMutability": "view",
      "type": "function"
    },
    {
      "inputs": [
        {
          "internalType": "string",
          "name": "username",
          "type": "string"
        }
      ],
      "name": "registered",
      "outputs": [
        {
          "internalType": "bool",
          "name": "",
          "type": "bool"
        }
      ],
      "stateMutability": "view",
      "type": "function"
    },
    {
      "inputs": [
        {
          "internalType": "address",
          "name": "userAddr",
          "type": "address"
        }
      ],
      "name": "registered",
      "outputs": [
        {
          "internalType": "bool",
          "name": "",
          "type": "bool"
        }
      ],
      "stateMutability": "view",
      "type": "function"
    },
    {
      "inputs": [],
      "name": "renounceOwnership",
      "outputs": [],
      "stateMutability": "nonpayable",
      "type": "function"
    },
    {
      "inputs": [
        {
          "internalType": "string",
          "name": "info",
          "type": "string"
        }
      ],
      "name": "setInfo",
      "outputs": [],
      "stateMutability": "nonpayable",
      "type": "function"
    },
    {
      "inputs": [
        {
          "internalType": "uint256",
          "name": "_fee",
          "type": "uint256"
        }
      ],
      "name": "setPureNameFee",
      "outputs": [],
      "stateMutability": "nonpayable",
      "type": "function"
    },
    {
      "inputs": [
        {
          "internalType": "string",
          "name": "username",
          "type": "string"
        },
        {
          "internalType": "string",
          "name": "info",
          "type": "string"
        },
        {
          "internalType": "string",
          "name": "presenter",
          "type": "string"
        }
      ],
      "name": "signIn",
      "outputs": [],
      "stateMutability": "payable",
      "type": "function"
    },
    {
      "inputs": [
        {
          "internalType": "address",
          "name": "newOwner",
          "type": "address"
        }
      ],
      "name": "transferOwnership",
      "outputs": [],
      "stateMutability": "nonpayable",
      "type": "function"
    },
    {
      "inputs": [
        {
          "internalType": "address",
          "name": "_to",
          "type": "address"
        }
      ],
      "name": "transferUsername",
      "outputs": [],
      "stateMutability": "nonpayable",
      "type": "function"
    },
    {
      "inputs": [
        {
          "internalType": "address",
          "name": "userAddr",
          "type": "address"
        }
      ],
      "name": "upgradeToVIP",
      "outputs": [],
      "stateMutability": "nonpayable",
      "type": "function"
    },
    {
      "inputs": [
        {
          "internalType": "string",
          "name": "",
          "type": "string"
        }
      ],
      "name": "userToAddr",
      "outputs": [
        {
          "internalType": "address",
          "name": "",
          "type": "address"
        }
      ],
      "stateMutability": "view",
      "type": "function"
    },
    {
      "inputs": [
        {
          "internalType": "string",
          "name": "username",
          "type": "string"
        }
      ],
      "name": "usernameToAddress",
      "outputs": [
        {
          "internalType": "address",
          "name": "userAddr",
          "type": "address"
        }
      ],
      "stateMutability": "view",
      "type": "function"
    },
    {
      "inputs": [
        {
          "internalType": "string",
          "name": "username",
          "type": "string"
        }
      ],
      "name": "usernameToProfile",
      "outputs": [
        {
          "internalType": "address",
          "name": "userAddr",
          "type": "address"
        },
        {
          "internalType": "string",
          "name": "info",
          "type": "string"
        },
        {
          "internalType": "bool",
          "name": "VIPStatus",
          "type": "bool"
        }
      ],
      "stateMutability": "view",
      "type": "function"
    },
    {
      "inputs": [
        {
          "internalType": "address",
          "name": "receiverAddress",
          "type": "address"
        }
      ],
      "name": "withdraw",
      "outputs": [],
      "stateMutability": "nonpayable",
      "type": "function"
    }
  ],
  "bytecode": "0x60806040523480156200001157600080fd5b50604051620030e6380380620030e6833981810160405281019062000037919062000387565b620000576200004b6200008160201b60201c565b6200008960201b60201c565b62000068826200014d60201b60201c565b62000079816200022060201b60201c565b505062000451565b600033905090565b60008060009054906101000a900473ffffffffffffffffffffffffffffffffffffffff169050816000806101000a81548173ffffffffffffffffffffffffffffffffffffffff021916908373ffffffffffffffffffffffffffffffffffffffff1602179055508173ffffffffffffffffffffffffffffffffffffffff168173ffffffffffffffffffffffffffffffffffffffff167f8be0079c531659141344cd1fd0a4f28419497f9722a3daafe3b4186f6b6457e060405160405180910390a35050565b6200015d6200008160201b60201c565b73ffffffffffffffffffffffffffffffffffffffff1662000183620002b960201b60201c565b73ffffffffffffffffffffffffffffffffffffffff1614620001dc576040517f08c379a0000000000000000000000000000000000000000000000000000000008152600401620001d3906200042f565b60405180910390fd5b80600260006101000a81548173ffffffffffffffffffffffffffffffffffffffff021916908373ffffffffffffffffffffffffffffffffffffffff16021790555050565b620002306200008160201b60201c565b73ffffffffffffffffffffffffffffffffffffffff1662000256620002b960201b60201c565b73ffffffffffffffffffffffffffffffffffffffff1614620002af576040517f08c379a0000000000000000000000000000000000000000000000000000000008152600401620002a6906200042f565b60405180910390fd5b8060018190555050565b60008060009054906101000a900473ffffffffffffffffffffffffffffffffffffffff16905090565b600080fd5b600073ffffffffffffffffffffffffffffffffffffffff82169050919050565b60006200031482620002e7565b9050919050565b620003268162000307565b81146200033257600080fd5b50565b60008151905062000346816200031b565b92915050565b6000819050919050565b62000361816200034c565b81146200036d57600080fd5b50565b600081519050620003818162000356565b92915050565b60008060408385031215620003a157620003a0620002e2565b5b6000620003b18582860162000335565b9250506020620003c48582860162000370565b9150509250929050565b600082825260208201905092915050565b7f4f776e61626c653a2063616c6c6572206973206e6f7420746865206f776e6572600082015250565b600062000417602083620003ce565b91506200042482620003df565b602082019050919050565b600060208201905081810360008301526200044a8162000408565b9050919050565b612c8580620004616000396000f3fe6080604052600436106101355760003560e01c8063b2dd5c07116100ab578063cfcddeb01161006f578063cfcddeb014610419578063e07a0baa14610459578063e5f3880114610496578063f2fde38b146104d3578063f4201c3c146104fc578063f825f1431461053957610135565b8063b2dd5c0714610322578063b377f8ae1461035f578063b7110fb61461038a578063be321f42146103c7578063cad51e18146103f057610135565b806351cff8d9116100fd57806351cff8d91461022857806356360606146102515780635d2d5c371461027a578063715018a6146102b75780638da5cb5b146102ce578063937f6e77146102f957610135565b80630587db691461013a5780630e7b29bf146101655780630eb5cd1a146101a457806317d984ec146101e3578063344b15fb146101ff575b600080fd5b34801561014657600080fd5b5061014f610576565b60405161015c9190611f81565b60405180910390f35b34801561017157600080fd5b5061018c6004803603810190610187919061200e565b61057c565b60405161019b939291906120ef565b60405180910390f35b3480156101b057600080fd5b506101cb60048036038101906101c69190612269565b6107c2565b6040516101da939291906122c1565b60405180910390f35b6101fd60048036038101906101f891906122ff565b6108ff565b005b34801561020b57600080fd5b506102266004803603810190610221919061200e565b610c95565b005b34801561023457600080fd5b5061024f600480360381019061024a919061200e565b610df9565b005b34801561025d57600080fd5b506102786004803603810190610273919061200e565b610ec5565b005b34801561028657600080fd5b506102a1600480360381019061029c9190612269565b610f85565b6040516102ae91906123a6565b60405180910390f35b3480156102c357600080fd5b506102cc611004565b005b3480156102da57600080fd5b506102e361108c565b6040516102f091906123c1565b60405180910390f35b34801561030557600080fd5b50610320600480360381019061031b9190612269565b6110b5565b005b34801561032e57600080fd5b506103496004803603810190610344919061200e565b6111b2565b60405161035691906123a6565b60405180910390f35b34801561036b57600080fd5b5061037461120d565b60405161038191906123c1565b60405180910390f35b34801561039657600080fd5b506103b160048036038101906103ac919061200e565b611233565b6040516103be91906123a6565b60405180910390f35b3480156103d357600080fd5b506103ee60048036038101906103e99190612408565b611357565b005b3480156103fc57600080fd5b506104176004803603810190610412919061200e565b6113dd565b005b34801561042557600080fd5b50610440600480360381019061043b919061200e565b6114ff565b6040516104509493929190612435565b60405180910390f35b34801561046557600080fd5b50610480600480360381019061047b919061200e565b6116d4565b60405161048d919061248f565b60405180910390f35b3480156104a257600080fd5b506104bd60048036038101906104b89190612269565b6117f0565b6040516104ca91906123c1565b60405180910390f35b3480156104df57600080fd5b506104fa60048036038101906104f5919061200e565b611839565b005b34801561050857600080fd5b50610523600480360381019061051e919061200e565b611931565b60405161053091906123a6565b60405180910390f35b34801561054557600080fd5b50610560600480360381019061055b9190612269565b61199b565b60405161056d91906123c1565b60405180910390f35b60015481565b606080600061058a846111b2565b6105c9576040517f08c379a00000000000000000000000000000000000000000000000000000000081526004016105c0906124fd565b60405180910390fd5b600360008573ffffffffffffffffffffffffffffffffffffffff1673ffffffffffffffffffffffffffffffffffffffff168152602001908152602001600020600001600360008673ffffffffffffffffffffffffffffffffffffffff1673ffffffffffffffffffffffffffffffffffffffff168152602001908152602001600020600101600360008773ffffffffffffffffffffffffffffffffffffffff1673ffffffffffffffffffffffffffffffffffffffff16815260200190815260200160002060030160009054906101000a900460ff168280546106a99061254c565b80601f01602080910402602001604051908101604052809291908181526020018280546106d59061254c565b80156107225780601f106106f757610100808354040283529160200191610722565b820191906000526020600020905b81548152906001019060200180831161070557829003601f168201915b505050505092508180546107359061254c565b80601f01602080910402602001604051908101604052809291908181526020018280546107619061254c565b80156107ae5780601f10610783576101008083540402835291602001916107ae565b820191906000526020600020905b81548152906001019060200180831161079157829003601f168201915b505050505091509250925092509193909250565b6000606060006107d18461199b565b925082600360008573ffffffffffffffffffffffffffffffffffffffff1673ffffffffffffffffffffffffffffffffffffffff168152602001908152602001600020600101600360008673ffffffffffffffffffffffffffffffffffffffff1673ffffffffffffffffffffffffffffffffffffffff16815260200190815260200160002060030160009054906101000a900460ff168180546108729061254c565b80601f016020809104026020016040519081016040528092919081815260200182805461089e9061254c565b80156108eb5780601f106108c0576101008083540402835291602001916108eb565b820191906000526020600020905b8154815290600101906020018083116108ce57829003601f168201915b505050505091509250925092509193909250565b6000610909611a33565b905061091484610f85565b15610954576040517f08c379a000000000000000000000000000000000000000000000000000000000815260040161094b906125f0565b60405180910390fd5b7f5f000000000000000000000000000000000000000000000000000000000000007effffffffffffffffffffffffffffffffffffffffffffffffffffffffffffff1916846000815181106109ab576109aa612610565b5b602001015160f81c60f81b7effffffffffffffffffffffffffffffffffffffffffffffffffffffffffffff191614610a2357600154341015610a22576040517f08c379a0000000000000000000000000000000000000000000000000000000008152600401610a199061268b565b60405180910390fd5b5b610a2d8185611a3b565b7f41264ab639dc77fe0ba18329dc636b65ea5c2edddab76d67d4fc648ac0fc5bd860008286604051610a61939291906126ab565b60405180910390a1600083511115610a7d57610a7c836110b5565b5b60006004610a8a84611b88565b604051610a979190612725565b908152602001604051809103902060009054906101000a900473ffffffffffffffffffffffffffffffffffffffff169050600073ffffffffffffffffffffffffffffffffffffffff168173ffffffffffffffffffffffffffffffffffffffff1614610c8e57600080600260009054906101000a900473ffffffffffffffffffffffffffffffffffffffff1673ffffffffffffffffffffffffffffffffffffffff1683604051602401610b4991906123c1565b6040516020818303038152906040527ff9afbb67000000000000000000000000000000000000000000000000000000007bffffffffffffffffffffffffffffffffffffffffffffffffffffffff19166020820180517bffffffffffffffffffffffffffffffffffffffffffffffffffffffff8381831617835250505050604051610bd39190612783565b6000604051808303816000865af19150503d8060008114610c10576040519150601f19603f3d011682016040523d82523d6000602084013e610c15565b606091505b50915091508115610c8b5780806020019051810190610c34919061280a565b600360008673ffffffffffffffffffffffffffffffffffffffff1673ffffffffffffffffffffffffffffffffffffffff1681526020019081526020016000206002019080519060200190610c89929190611e85565b505b50505b5050505050565b6000610c9f611a33565b90506000600360008373ffffffffffffffffffffffffffffffffffffffff1673ffffffffffffffffffffffffffffffffffffffff1681526020019081526020016000206000018054610cf09061254c565b80601f0160208091040260200160405190810160405280929190818152602001828054610d1c9061254c565b8015610d695780601f10610d3e57610100808354040283529160200191610d69565b820191906000526020600020905b815481529060010190602001808311610d4c57829003601f168201915b50505050509050610d7a8282611c20565b600073ffffffffffffffffffffffffffffffffffffffff168373ffffffffffffffffffffffffffffffffffffffff1614610db957610db88382611a3b565b5b7f41264ab639dc77fe0ba18329dc636b65ea5c2edddab76d67d4fc648ac0fc5bd8828483604051610dec939291906126ab565b60405180910390a1505050565b610e01611a33565b73ffffffffffffffffffffffffffffffffffffffff16610e1f61108c565b73ffffffffffffffffffffffffffffffffffffffff1614610e75576040517f08c379a0000000000000000000000000000000000000000000000000000000008152600401610e6c9061289f565b60405180910390fd5b60008190508073ffffffffffffffffffffffffffffffffffffffff166108fc479081150290604051600060405180830381858888f19350505050158015610ec0573d6000803e3d6000fd5b505050565b610ecd611a33565b73ffffffffffffffffffffffffffffffffffffffff16610eeb61108c565b73ffffffffffffffffffffffffffffffffffffffff1614610f41576040517f08c379a0000000000000000000000000000000000000000000000000000000008152600401610f389061289f565b60405180910390fd5b80600260006101000a81548173ffffffffffffffffffffffffffffffffffffffff021916908373ffffffffffffffffffffffffffffffffffffffff16021790555050565b60008073ffffffffffffffffffffffffffffffffffffffff166004610fa984611b88565b604051610fb69190612725565b908152602001604051809103902060009054906101000a900473ffffffffffffffffffffffffffffffffffffffff1673ffffffffffffffffffffffffffffffffffffffff1614159050919050565b61100c611a33565b73ffffffffffffffffffffffffffffffffffffffff1661102a61108c565b73ffffffffffffffffffffffffffffffffffffffff1614611080576040517f08c379a00000000000000000000000000000000000000000000000000000000081526004016110779061289f565b60405180910390fd5b61108a6000611d3b565b565b60008060009054906101000a900473ffffffffffffffffffffffffffffffffffffffff16905090565b60006110bf611a33565b90506110ca816111b2565b611109576040517f08c379a00000000000000000000000000000000000000000000000000000000081526004016111009061290b565b60405180910390fd5b81600360008373ffffffffffffffffffffffffffffffffffffffff1673ffffffffffffffffffffffffffffffffffffffff168152602001908152602001600020600101908051906020019061115f929190611e85565b508073ffffffffffffffffffffffffffffffffffffffff167fed2dc10fbb70c5dca9665145aee8b5f838c00bd7fe21abfe08513209a53bfd04836040516111a6919061248f565b60405180910390a25050565b600080600360008473ffffffffffffffffffffffffffffffffffffffff1673ffffffffffffffffffffffffffffffffffffffff16815260200190815260200160002060000180546112029061254c565b905014159050919050565b600260009054906101000a900473ffffffffffffffffffffffffffffffffffffffff1681565b600061123e826111b2565b801561135057507f5f000000000000000000000000000000000000000000000000000000000000007effffffffffffffffffffffffffffffffffffffffffffffffffffffffffffff1916600360008473ffffffffffffffffffffffffffffffffffffffff1673ffffffffffffffffffffffffffffffffffffffff168152602001908152602001600020600001600081546112d79061254c565b81106112e6576112e5612610565b5b8154600116156113055790600052602060002090602091828204019190065b9054901a7f0100000000000000000000000000000000000000000000000000000000000000027effffffffffffffffffffffffffffffffffffffffffffffffffffffffffffff191614155b9050919050565b61135f611a33565b73ffffffffffffffffffffffffffffffffffffffff1661137d61108c565b73ffffffffffffffffffffffffffffffffffffffff16146113d3576040517f08c379a00000000000000000000000000000000000000000000000000000000081526004016113ca9061289f565b60405180910390fd5b8060018190555050565b6113e5611a33565b73ffffffffffffffffffffffffffffffffffffffff1661140361108c565b73ffffffffffffffffffffffffffffffffffffffff1614611459576040517f08c379a00000000000000000000000000000000000000000000000000000000081526004016114509061289f565b60405180910390fd5b611462816111b2565b6114a1576040517f08c379a0000000000000000000000000000000000000000000000000000000008152600401611498906124fd565b60405180910390fd5b6001600360008373ffffffffffffffffffffffffffffffffffffffff1673ffffffffffffffffffffffffffffffffffffffff16815260200190815260200160002060030160006101000a81548160ff02191690831515021790555050565b60036020528060005260406000206000915090508060000180546115229061254c565b80601f016020809104026020016040519081016040528092919081815260200182805461154e9061254c565b801561159b5780601f106115705761010080835404028352916020019161159b565b820191906000526020600020905b81548152906001019060200180831161157e57829003601f168201915b5050505050908060010180546115b09061254c565b80601f01602080910402602001604051908101604052809291908181526020018280546115dc9061254c565b80156116295780601f106115fe57610100808354040283529160200191611629565b820191906000526020600020905b81548152906001019060200180831161160c57829003601f168201915b50505050509080600201805461163e9061254c565b80601f016020809104026020016040519081016040528092919081815260200182805461166a9061254c565b80156116b75780601f1061168c576101008083540402835291602001916116b7565b820191906000526020600020905b81548152906001019060200180831161169a57829003601f168201915b5050505050908060030160009054906101000a900460ff16905084565b60606116df826111b2565b61171e576040517f08c379a0000000000000000000000000000000000000000000000000000000008152600401611715906124fd565b60405180910390fd5b600360008373ffffffffffffffffffffffffffffffffffffffff1673ffffffffffffffffffffffffffffffffffffffff168152602001908152602001600020600001805461176b9061254c565b80601f01602080910402602001604051908101604052809291908181526020018280546117979061254c565b80156117e45780601f106117b9576101008083540402835291602001916117e4565b820191906000526020600020905b8154815290600101906020018083116117c757829003601f168201915b50505050509050919050565b6004818051602081018201805184825260208301602085012081835280955050505050506000915054906101000a900473ffffffffffffffffffffffffffffffffffffffff1681565b611841611a33565b73ffffffffffffffffffffffffffffffffffffffff1661185f61108c565b73ffffffffffffffffffffffffffffffffffffffff16146118b5576040517f08c379a00000000000000000000000000000000000000000000000000000000081526004016118ac9061289f565b60405180910390fd5b600073ffffffffffffffffffffffffffffffffffffffff168173ffffffffffffffffffffffffffffffffffffffff161415611925576040517f08c379a000000000000000000000000000000000000000000000000000000000815260040161191c9061299d565b60405180910390fd5b61192e81611d3b565b50565b600061193c826111b2565b80156119945750600360008373ffffffffffffffffffffffffffffffffffffffff1673ffffffffffffffffffffffffffffffffffffffff16815260200190815260200160002060030160009054906101000a900460ff165b9050919050565b60006119a682610f85565b6119e5576040517f08c379a00000000000000000000000000000000000000000000000000000000081526004016119dc90612a09565b60405180910390fd5b60046119f083611b88565b6040516119fd9190612725565b908152602001604051809103902060009054906101000a900473ffffffffffffffffffffffffffffffffffffffff169050919050565b600033905090565b6000815111611a7f576040517f08c379a0000000000000000000000000000000000000000000000000000000008152600401611a7690612a75565b60405180910390fd5b611a88826111b2565b15611ac8576040517f08c379a0000000000000000000000000000000000000000000000000000000008152600401611abf90612b07565b60405180910390fd5b80600360008473ffffffffffffffffffffffffffffffffffffffff1673ffffffffffffffffffffffffffffffffffffffff1681526020019081526020016000206000019080519060200190611b1e929190611e85565b50816004611b2b83611b88565b604051611b389190612725565b908152602001604051809103902060006101000a81548173ffffffffffffffffffffffffffffffffffffffff021916908373ffffffffffffffffffffffffffffffffffffffff1602179055505050565b6060600082905060005b8151811015611c1657611bc1828281518110611bb157611bb0612610565b5b602001015160f81c60f81b611dff565b828281518110611bd457611bd3612610565b5b60200101907effffffffffffffffffffffffffffffffffffffffffffffffffffffffffffff1916908160001a9053508080611c0e90612b56565b915050611b92565b5080915050919050565b611c29826111b2565b611c68576040517f08c379a0000000000000000000000000000000000000000000000000000000008152600401611c5f90612beb565b60405180910390fd5b600360008373ffffffffffffffffffffffffffffffffffffffff1673ffffffffffffffffffffffffffffffffffffffff16815260200190815260200160002060008082016000611cb89190611f0b565b600182016000611cc89190611f0b565b600282016000611cd89190611f0b565b6003820160006101000a81549060ff021916905550506004611cf982611b88565b604051611d069190612725565b908152602001604051809103902060006101000a81549073ffffffffffffffffffffffffffffffffffffffff02191690555050565b60008060009054906101000a900473ffffffffffffffffffffffffffffffffffffffff169050816000806101000a81548173ffffffffffffffffffffffffffffffffffffffff021916908373ffffffffffffffffffffffffffffffffffffffff1602179055508173ffffffffffffffffffffffffffffffffffffffff168173ffffffffffffffffffffffffffffffffffffffff167f8be0079c531659141344cd1fd0a4f28419497f9722a3daafe3b4186f6b6457e060405160405180910390a35050565b6000604160f81b827effffffffffffffffffffffffffffffffffffffffffffffffffffffffffffff191610158015611e5d5750605a60f81b827effffffffffffffffffffffffffffffffffffffffffffffffffffffffffffff191611155b15611e7c5760208260f81c611e729190612c18565b60f81b9050611e80565b8190505b919050565b828054611e919061254c565b90600052602060002090601f016020900481019282611eb35760008555611efa565b82601f10611ecc57805160ff1916838001178555611efa565b82800160010185558215611efa579182015b82811115611ef9578251825591602001919060010190611ede565b5b509050611f079190611f4b565b5090565b508054611f179061254c565b6000825580601f10611f295750611f48565b601f016020900490600052602060002090810190611f479190611f4b565b5b50565b5b80821115611f64576000816000905550600101611f4c565b5090565b6000819050919050565b611f7b81611f68565b82525050565b6000602082019050611f966000830184611f72565b92915050565b6000604051905090565b600080fd5b600080fd5b600073ffffffffffffffffffffffffffffffffffffffff82169050919050565b6000611fdb82611fb0565b9050919050565b611feb81611fd0565b8114611ff657600080fd5b50565b60008135905061200881611fe2565b92915050565b60006020828403121561202457612023611fa6565b5b600061203284828501611ff9565b91505092915050565b600081519050919050565b600082825260208201905092915050565b60005b8381101561207557808201518184015260208101905061205a565b83811115612084576000848401525b50505050565b6000601f19601f8301169050919050565b60006120a68261203b565b6120b08185612046565b93506120c0818560208601612057565b6120c98161208a565b840191505092915050565b60008115159050919050565b6120e9816120d4565b82525050565b60006060820190508181036000830152612109818661209b565b9050818103602083015261211d818561209b565b905061212c60408301846120e0565b949350505050565b600080fd5b600080fd5b7f4e487b7100000000000000000000000000000000000000000000000000000000600052604160045260246000fd5b6121768261208a565b810181811067ffffffffffffffff821117156121955761219461213e565b5b80604052505050565b60006121a8611f9c565b90506121b4828261216d565b919050565b600067ffffffffffffffff8211156121d4576121d361213e565b5b6121dd8261208a565b9050602081019050919050565b82818337600083830152505050565b600061220c612207846121b9565b61219e565b90508281526020810184848401111561222857612227612139565b5b6122338482856121ea565b509392505050565b600082601f8301126122505761224f612134565b5b81356122608482602086016121f9565b91505092915050565b60006020828403121561227f5761227e611fa6565b5b600082013567ffffffffffffffff81111561229d5761229c611fab565b5b6122a98482850161223b565b91505092915050565b6122bb81611fd0565b82525050565b60006060820190506122d660008301866122b2565b81810360208301526122e8818561209b565b90506122f760408301846120e0565b949350505050565b60008060006060848603121561231857612317611fa6565b5b600084013567ffffffffffffffff81111561233657612335611fab565b5b6123428682870161223b565b935050602084013567ffffffffffffffff81111561236357612362611fab565b5b61236f8682870161223b565b925050604084013567ffffffffffffffff8111156123905761238f611fab565b5b61239c8682870161223b565b9150509250925092565b60006020820190506123bb60008301846120e0565b92915050565b60006020820190506123d660008301846122b2565b92915050565b6123e581611f68565b81146123f057600080fd5b50565b600081359050612402816123dc565b92915050565b60006020828403121561241e5761241d611fa6565b5b600061242c848285016123f3565b91505092915050565b6000608082019050818103600083015261244f818761209b565b90508181036020830152612463818661209b565b90508181036040830152612477818561209b565b905061248660608301846120e0565b95945050505050565b600060208201905081810360008301526124a9818461209b565b905092915050565b7f6e6f207573657220627920746869732061646472657373000000000000000000600082015250565b60006124e7601783612046565b91506124f2826124b1565b602082019050919050565b60006020820190508181036000830152612516816124da565b9050919050565b7f4e487b7100000000000000000000000000000000000000000000000000000000600052602260045260246000fd5b6000600282049050600182168061256457607f821691505b602082108114156125785761257761251d565b5b50919050565b7f7468697320757365726e616d6520686173206265656e2075736564206265666f60008201527f7265000000000000000000000000000000000000000000000000000000000000602082015250565b60006125da602283612046565b91506125e58261257e565b604082019050919050565b60006020820190508181036000830152612609816125cd565b9050919050565b7f4e487b7100000000000000000000000000000000000000000000000000000000600052603260045260246000fd5b7f7468697320757365726e616d652069732050617961626c650000000000000000600082015250565b6000612675601883612046565b91506126808261263f565b602082019050919050565b600060208201905081810360008301526126a481612668565b9050919050565b60006060820190506126c060008301866122b2565b6126cd60208301856122b2565b81810360408301526126df818461209b565b9050949350505050565b600081905092915050565b60006126ff8261203b565b61270981856126e9565b9350612719818560208601612057565b80840191505092915050565b600061273182846126f4565b915081905092915050565b600081519050919050565b600081905092915050565b600061275d8261273c565b6127678185612747565b9350612777818560208601612057565b80840191505092915050565b600061278f8284612752565b915081905092915050565b60006127ad6127a8846121b9565b61219e565b9050828152602081018484840111156127c9576127c8612139565b5b6127d4848285612057565b509392505050565b600082601f8301126127f1576127f0612134565b5b815161280184826020860161279a565b91505092915050565b6000602082840312156128205761281f611fa6565b5b600082015167ffffffffffffffff81111561283e5761283d611fab565b5b61284a848285016127dc565b91505092915050565b7f4f776e61626c653a2063616c6c6572206973206e6f7420746865206f776e6572600082015250565b6000612889602083612046565b915061289482612853565b602082019050919050565b600060208201905081810360008301526128b88161287c565b9050919050565b7f796f75206861766520746f207369676e20696e20666972737400000000000000600082015250565b60006128f5601983612046565b9150612900826128bf565b602082019050919050565b60006020820190508181036000830152612924816128e8565b9050919050565b7f4f776e61626c653a206e6577206f776e657220697320746865207a65726f206160008201527f6464726573730000000000000000000000000000000000000000000000000000602082015250565b6000612987602683612046565b91506129928261292b565b604082019050919050565b600060208201905081810360008301526129b68161297a565b9050919050565b7f6e6f2075736572206279207468697320757365726e616d650000000000000000600082015250565b60006129f3601883612046565b91506129fe826129bd565b602082019050919050565b60006020820190508181036000830152612a22816129e6565b9050919050565b7f656d70747920757365726e616d6520696e707574000000000000000000000000600082015250565b6000612a5f601483612046565b9150612a6a82612a29565b602082019050919050565b60006020820190508181036000830152612a8e81612a52565b9050919050565b7f74686973206164647265737320686173207369676e6564206120757365726e6160008201527f6d65206265666f72650000000000000000000000000000000000000000000000602082015250565b6000612af1602983612046565b9150612afc82612a95565b604082019050919050565b60006020820190508181036000830152612b2081612ae4565b9050919050565b7f4e487b7100000000000000000000000000000000000000000000000000000000600052601160045260246000fd5b6000612b6182611f68565b91507fffffffffffffffffffffffffffffffffffffffffffffffffffffffffffffffff821415612b9457612b93612b27565b5b600182019050919050565b7f796f7520617265206e6f74207265676973746572656400000000000000000000600082015250565b6000612bd5601683612046565b9150612be082612b9f565b602082019050919050565b60006020820190508181036000830152612c0481612bc8565b9050919050565b600060ff82169050919050565b6000612c2382612c0b565b9150612c2e83612c0b565b92508260ff03821115612c4457612c43612b27565b5b82820190509291505056fea264697066735822122043a7c1d9dc47037a84612ebee7afcc158576064c271d83b96a5ac105d87987a664736f6c63430008090033",
  "linkReferences": {},
  "deployedLinkReferences": {}
}