{
  "_format": "hh-sol-artifact-1",
  "contractName": "Register",
  "sourceName": "contracts/register/Register.sol",
  "abi": [
    {
      "inputs": [
        {
          "internalType": "address",
          "name": "_DAOAddress",
          "type": "address"
        },
        {
          "internalType": "uint256",
          "name": "_pureNameFee",
          "type": "uint256"
        }
      ],
      "stateMutability": "nonpayable",
      "type": "constructor"
    },
    {
      "anonymous": false,
      "inputs": [
        {
          "indexed": true,
          "internalType": "address",
          "name": "previousOwner",
          "type": "address"
        },
        {
          "indexed": true,
          "internalType": "address",
          "name": "newOwner",
          "type": "address"
        }
      ],
      "name": "OwnershipTransferred",
      "type": "event"
    },
    {
      "anonymous": false,
      "inputs": [
        {
          "indexed": true,
          "internalType": "address",
          "name": "userAddress",
          "type": "address"
        },
        {
          "indexed": false,
          "internalType": "string",
          "name": "info",
          "type": "string"
        }
      ],
      "name": "SetInfo",
      "type": "event"
    },
    {
      "anonymous": false,
      "inputs": [
        {
          "indexed": true,
          "internalType": "address",
          "name": "userAddress",
          "type": "address"
        },
        {
          "indexed": false,
          "internalType": "string",
          "name": "username",
          "type": "string"
        }
      ],
      "name": "SignIn",
      "type": "event"
    },
    {
      "inputs": [],
      "name": "DAOContract",
      "outputs": [
        {
          "internalType": "address",
          "name": "",
          "type": "address"
        }
      ],
      "stateMutability": "view",
      "type": "function"
    },
    {
      "inputs": [
        {
          "internalType": "address",
          "name": "",
          "type": "address"
        }
      ],
      "name": "addrToUser",
      "outputs": [
        {
          "internalType": "string",
          "name": "username",
          "type": "string"
        },
        {
          "internalType": "string",
          "name": "info",
          "type": "string"
        },
        {
          "internalType": "string",
          "name": "DAOInfo",
          "type": "string"
        },
        {
          "internalType": "bool",
          "name": "isVIP",
          "type": "bool"
        }
      ],
      "stateMutability": "view",
      "type": "function"
    },
    {
      "inputs": [
        {
          "internalType": "address",
          "name": "userAddr",
          "type": "address"
        }
      ],
      "name": "addressToProfile",
      "outputs": [
        {
          "internalType": "string",
          "name": "username",
          "type": "string"
        },
        {
          "internalType": "string",
          "name": "info",
          "type": "string"
        },
        {
          "internalType": "bool",
          "name": "VIPstatus",
          "type": "bool"
        }
      ],
      "stateMutability": "view",
      "type": "function"
    },
    {
      "inputs": [
        {
          "internalType": "address",
          "name": "userAddr",
          "type": "address"
        }
      ],
      "name": "addressToUsername",
      "outputs": [
        {
          "internalType": "string",
          "name": "username",
          "type": "string"
        }
      ],
      "stateMutability": "view",
      "type": "function"
    },
    {
      "inputs": [
        {
          "internalType": "address",
          "name": "userAddr",
          "type": "address"
        }
      ],
      "name": "isPure",
      "outputs": [
        {
          "internalType": "bool",
          "name": "",
          "type": "bool"
        }
      ],
      "stateMutability": "view",
      "type": "function"
    },
    {
      "inputs": [
        {
          "internalType": "address",
          "name": "userAddr",
          "type": "address"
        }
      ],
      "name": "isVIP",
      "outputs": [
        {
          "internalType": "bool",
          "name": "",
          "type": "bool"
        }
      ],
      "stateMutability": "view",
      "type": "function"
    },
    {
      "inputs": [
        {
          "internalType": "address",
          "name": "contractAddr",
          "type": "address"
        }
      ],
      "name": "newDAOContract",
      "outputs": [],
      "stateMutability": "nonpayable",
      "type": "function"
    },
    {
      "inputs": [],
      "name": "owner",
      "outputs": [
        {
          "internalType": "address",
          "name": "",
          "type": "address"
        }
      ],
      "stateMutability": "view",
      "type": "function"
    },
    {
      "inputs": [],
      "name": "pureNameFee",
      "outputs": [
        {
          "internalType": "uint256",
          "name": "",
          "type": "uint256"
        }
      ],
      "stateMutability": "view",
      "type": "function"
    },
    {
      "inputs": [
        {
          "internalType": "string",
          "name": "username",
          "type": "string"
        }
      ],
      "name": "registered",
      "outputs": [
        {
          "internalType": "bool",
          "name": "",
          "type": "bool"
        }
      ],
      "stateMutability": "view",
      "type": "function"
    },
    {
      "inputs": [
        {
          "internalType": "address",
          "name": "userAddr",
          "type": "address"
        }
      ],
      "name": "registered",
      "outputs": [
        {
          "internalType": "bool",
          "name": "",
          "type": "bool"
        }
      ],
      "stateMutability": "view",
      "type": "function"
    },
    {
      "inputs": [],
      "name": "renounceOwnership",
      "outputs": [],
      "stateMutability": "nonpayable",
      "type": "function"
    },
    {
      "inputs": [
        {
          "internalType": "string",
          "name": "info",
          "type": "string"
        }
      ],
      "name": "setInfo",
      "outputs": [],
      "stateMutability": "nonpayable",
      "type": "function"
    },
    {
      "inputs": [
        {
          "internalType": "uint256",
          "name": "_fee",
          "type": "uint256"
        }
      ],
      "name": "setPureNameFee",
      "outputs": [],
      "stateMutability": "nonpayable",
      "type": "function"
    },
    {
      "inputs": [
        {
          "internalType": "string",
          "name": "username",
          "type": "string"
        },
        {
          "internalType": "string",
          "name": "info",
          "type": "string"
        },
        {
          "internalType": "string",
          "name": "presenter",
          "type": "string"
        }
      ],
      "name": "signIn",
      "outputs": [],
      "stateMutability": "payable",
      "type": "function"
    },
    {
      "inputs": [
        {
          "internalType": "address",
          "name": "newOwner",
          "type": "address"
        }
      ],
      "name": "transferOwnership",
      "outputs": [],
      "stateMutability": "nonpayable",
      "type": "function"
    },
    {
      "inputs": [
        {
          "internalType": "address",
          "name": "userAddr",
          "type": "address"
        }
      ],
      "name": "upgradeToVIP",
      "outputs": [],
      "stateMutability": "nonpayable",
      "type": "function"
    },
    {
      "inputs": [
        {
          "internalType": "string",
          "name": "",
          "type": "string"
        }
      ],
      "name": "userToAddr",
      "outputs": [
        {
          "internalType": "address",
          "name": "",
          "type": "address"
        }
      ],
      "stateMutability": "view",
      "type": "function"
    },
    {
      "inputs": [
        {
          "internalType": "string",
          "name": "username",
          "type": "string"
        }
      ],
      "name": "usernameToAddress",
      "outputs": [
        {
          "internalType": "address",
          "name": "userAddr",
          "type": "address"
        }
      ],
      "stateMutability": "view",
      "type": "function"
    },
    {
      "inputs": [
        {
          "internalType": "string",
          "name": "username",
          "type": "string"
        }
      ],
      "name": "usernameToProfile",
      "outputs": [
        {
          "internalType": "address",
          "name": "userAddr",
          "type": "address"
        },
        {
          "internalType": "string",
          "name": "info",
          "type": "string"
        },
        {
          "internalType": "bool",
          "name": "VIPstatus",
          "type": "bool"
        }
      ],
      "stateMutability": "view",
      "type": "function"
    },
    {
      "inputs": [
        {
          "internalType": "address",
          "name": "receiverAddress",
          "type": "address"
        }
      ],
      "name": "withdraw",
      "outputs": [],
      "stateMutability": "nonpayable",
      "type": "function"
    }
  ],
  "bytecode": "0x60806040523480156200001157600080fd5b5060405162002d4d38038062002d4d833981810160405281019062000037919062000387565b620000576200004b6200008160201b60201c565b6200008960201b60201c565b62000068826200014d60201b60201c565b62000079816200022060201b60201c565b505062000451565b600033905090565b60008060009054906101000a900473ffffffffffffffffffffffffffffffffffffffff169050816000806101000a81548173ffffffffffffffffffffffffffffffffffffffff021916908373ffffffffffffffffffffffffffffffffffffffff1602179055508173ffffffffffffffffffffffffffffffffffffffff168173ffffffffffffffffffffffffffffffffffffffff167f8be0079c531659141344cd1fd0a4f28419497f9722a3daafe3b4186f6b6457e060405160405180910390a35050565b6200015d6200008160201b60201c565b73ffffffffffffffffffffffffffffffffffffffff1662000183620002b960201b60201c565b73ffffffffffffffffffffffffffffffffffffffff1614620001dc576040517f08c379a0000000000000000000000000000000000000000000000000000000008152600401620001d3906200042f565b60405180910390fd5b80600260006101000a81548173ffffffffffffffffffffffffffffffffffffffff021916908373ffffffffffffffffffffffffffffffffffffffff16021790555050565b620002306200008160201b60201c565b73ffffffffffffffffffffffffffffffffffffffff1662000256620002b960201b60201c565b73ffffffffffffffffffffffffffffffffffffffff1614620002af576040517f08c379a0000000000000000000000000000000000000000000000000000000008152600401620002a6906200042f565b60405180910390fd5b8060018190555050565b60008060009054906101000a900473ffffffffffffffffffffffffffffffffffffffff16905090565b600080fd5b600073ffffffffffffffffffffffffffffffffffffffff82169050919050565b60006200031482620002e7565b9050919050565b620003268162000307565b81146200033257600080fd5b50565b60008151905062000346816200031b565b92915050565b6000819050919050565b62000361816200034c565b81146200036d57600080fd5b50565b600081519050620003818162000356565b92915050565b60008060408385031215620003a157620003a0620002e2565b5b6000620003b18582860162000335565b9250506020620003c48582860162000370565b9150509250929050565b600082825260208201905092915050565b7f4f776e61626c653a2063616c6c6572206973206e6f7420746865206f776e6572600082015250565b600062000417602083620003ce565b91506200042482620003df565b602082019050919050565b600060208201905081810360008301526200044a8162000408565b9050919050565b6128ec80620004616000396000f3fe60806040526004361061012a5760003560e01c8063b2dd5c07116100ab578063cfcddeb01161006f578063cfcddeb0146103e5578063e07a0baa14610425578063e5f3880114610462578063f2fde38b1461049f578063f4201c3c146104c8578063f825f143146105055761012a565b8063b2dd5c07146102ee578063b377f8ae1461032b578063b7110fb614610356578063be321f4214610393578063cad51e18146103bc5761012a565b806356360606116100f2578063563606061461021d5780635d2d5c3714610246578063715018a6146102835780638da5cb5b1461029a578063937f6e77146102c55761012a565b80630587db691461012f5780630e7b29bf1461015a5780630eb5cd1a1461019957806317d984ec146101d857806351cff8d9146101f4575b600080fd5b34801561013b57600080fd5b50610144610542565b6040516101519190611c92565b60405180910390f35b34801561016657600080fd5b50610181600480360381019061017c9190611d1f565b610548565b60405161019093929190611e00565b60405180910390f35b3480156101a557600080fd5b506101c060048036038101906101bb9190611f7a565b61078e565b6040516101cf93929190611fd2565b60405180910390f35b6101f260048036038101906101ed9190612010565b6108cb565b005b34801561020057600080fd5b5061021b60048036038101906102169190611d1f565b610db2565b005b34801561022957600080fd5b50610244600480360381019061023f9190611d1f565b610e7e565b005b34801561025257600080fd5b5061026d60048036038101906102689190611f7a565b610f3e565b60405161027a91906120b7565b60405180910390f35b34801561028f57600080fd5b50610298610fbd565b005b3480156102a657600080fd5b506102af611045565b6040516102bc91906120d2565b60405180910390f35b3480156102d157600080fd5b506102ec60048036038101906102e79190611f7a565b61106e565b005b3480156102fa57600080fd5b5061031560048036038101906103109190611d1f565b61116b565b60405161032291906120b7565b60405180910390f35b34801561033757600080fd5b506103406111c6565b60405161034d91906120d2565b60405180910390f35b34801561036257600080fd5b5061037d60048036038101906103789190611d1f565b6111ec565b60405161038a91906120b7565b60405180910390f35b34801561039f57600080fd5b506103ba60048036038101906103b59190612119565b611310565b005b3480156103c857600080fd5b506103e360048036038101906103de9190611d1f565b611396565b005b3480156103f157600080fd5b5061040c60048036038101906104079190611d1f565b6114b8565b60405161041c9493929190612146565b60405180910390f35b34801561043157600080fd5b5061044c60048036038101906104479190611d1f565b61168d565b60405161045991906121a0565b60405180910390f35b34801561046e57600080fd5b5061048960048036038101906104849190611f7a565b6117a9565b60405161049691906120d2565b60405180910390f35b3480156104ab57600080fd5b506104c660048036038101906104c19190611d1f565b6117f2565b005b3480156104d457600080fd5b506104ef60048036038101906104ea9190611d1f565b6118ea565b6040516104fc91906120b7565b60405180910390f35b34801561051157600080fd5b5061052c60048036038101906105279190611f7a565b611954565b60405161053991906120d2565b60405180910390f35b60015481565b60608060006105568461116b565b610595576040517f08c379a000000000000000000000000000000000000000000000000000000000815260040161058c9061220e565b60405180910390fd5b600360008573ffffffffffffffffffffffffffffffffffffffff1673ffffffffffffffffffffffffffffffffffffffff168152602001908152602001600020600001600360008673ffffffffffffffffffffffffffffffffffffffff1673ffffffffffffffffffffffffffffffffffffffff168152602001908152602001600020600101600360008773ffffffffffffffffffffffffffffffffffffffff1673ffffffffffffffffffffffffffffffffffffffff16815260200190815260200160002060030160009054906101000a900460ff168280546106759061225d565b80601f01602080910402602001604051908101604052809291908181526020018280546106a19061225d565b80156106ee5780601f106106c3576101008083540402835291602001916106ee565b820191906000526020600020905b8154815290600101906020018083116106d157829003601f168201915b505050505092508180546107019061225d565b80601f016020809104026020016040519081016040528092919081815260200182805461072d9061225d565b801561077a5780601f1061074f5761010080835404028352916020019161077a565b820191906000526020600020905b81548152906001019060200180831161075d57829003601f168201915b505050505091509250925092509193909250565b60006060600061079d84611954565b925082600360008573ffffffffffffffffffffffffffffffffffffffff1673ffffffffffffffffffffffffffffffffffffffff168152602001908152602001600020600101600360008673ffffffffffffffffffffffffffffffffffffffff1673ffffffffffffffffffffffffffffffffffffffff16815260200190815260200160002060030160009054906101000a900460ff1681805461083e9061225d565b80601f016020809104026020016040519081016040528092919081815260200182805461086a9061225d565b80156108b75780601f1061088c576101008083540402835291602001916108b7565b820191906000526020600020905b81548152906001019060200180831161089a57829003601f168201915b505050505091509250925092509193909250565b60006108d56119ec565b90506108e08161116b565b15610920576040517f08c379a000000000000000000000000000000000000000000000000000000000815260040161091790612301565b60405180910390fd5b6000845111610964576040517f08c379a000000000000000000000000000000000000000000000000000000000815260040161095b9061236d565b60405180910390fd5b61096d84610f3e565b156109ad576040517f08c379a00000000000000000000000000000000000000000000000000000000081526004016109a4906123ff565b60405180910390fd5b7f5f000000000000000000000000000000000000000000000000000000000000007effffffffffffffffffffffffffffffffffffffffffffffffffffffffffffff191684600081518110610a0457610a0361241f565b5b602001015160f81c60f81b7effffffffffffffffffffffffffffffffffffffffffffffffffffffffffffff191614610a7c57600154341015610a7b576040517f08c379a0000000000000000000000000000000000000000000000000000000008152600401610a729061249a565b60405180910390fd5b5b83600360008373ffffffffffffffffffffffffffffffffffffffff1673ffffffffffffffffffffffffffffffffffffffff1681526020019081526020016000206000019080519060200190610ad2929190611bd6565b50806004610adf866119f4565b604051610aec91906124f6565b908152602001604051809103902060006101000a81548173ffffffffffffffffffffffffffffffffffffffff021916908373ffffffffffffffffffffffffffffffffffffffff1602179055508073ffffffffffffffffffffffffffffffffffffffff167f0a2abf815300d275c4387b4e1f4e74e0cd938c5301ff1223061fdc158e12f04c85604051610b7e91906121a0565b60405180910390a2600083511115610b9a57610b998361106e565b5b60006004610ba7846119f4565b604051610bb491906124f6565b908152602001604051809103902060009054906101000a900473ffffffffffffffffffffffffffffffffffffffff169050600073ffffffffffffffffffffffffffffffffffffffff168173ffffffffffffffffffffffffffffffffffffffff1614610dab57600080600260009054906101000a900473ffffffffffffffffffffffffffffffffffffffff1673ffffffffffffffffffffffffffffffffffffffff1683604051602401610c6691906120d2565b6040516020818303038152906040527ff9afbb67000000000000000000000000000000000000000000000000000000007bffffffffffffffffffffffffffffffffffffffffffffffffffffffff19166020820180517bffffffffffffffffffffffffffffffffffffffffffffffffffffffff8381831617835250505050604051610cf09190612554565b6000604051808303816000865af19150503d8060008114610d2d576040519150601f19603f3d011682016040523d82523d6000602084013e610d32565b606091505b50915091508115610da85780806020019051810190610d5191906125db565b600360008673ffffffffffffffffffffffffffffffffffffffff1673ffffffffffffffffffffffffffffffffffffffff1681526020019081526020016000206002019080519060200190610da6929190611bd6565b505b50505b5050505050565b610dba6119ec565b73ffffffffffffffffffffffffffffffffffffffff16610dd8611045565b73ffffffffffffffffffffffffffffffffffffffff1614610e2e576040517f08c379a0000000000000000000000000000000000000000000000000000000008152600401610e2590612670565b60405180910390fd5b60008190508073ffffffffffffffffffffffffffffffffffffffff166108fc479081150290604051600060405180830381858888f19350505050158015610e79573d6000803e3d6000fd5b505050565b610e866119ec565b73ffffffffffffffffffffffffffffffffffffffff16610ea4611045565b73ffffffffffffffffffffffffffffffffffffffff1614610efa576040517f08c379a0000000000000000000000000000000000000000000000000000000008152600401610ef190612670565b60405180910390fd5b80600260006101000a81548173ffffffffffffffffffffffffffffffffffffffff021916908373ffffffffffffffffffffffffffffffffffffffff16021790555050565b60008073ffffffffffffffffffffffffffffffffffffffff166004610f62846119f4565b604051610f6f91906124f6565b908152602001604051809103902060009054906101000a900473ffffffffffffffffffffffffffffffffffffffff1673ffffffffffffffffffffffffffffffffffffffff1614159050919050565b610fc56119ec565b73ffffffffffffffffffffffffffffffffffffffff16610fe3611045565b73ffffffffffffffffffffffffffffffffffffffff1614611039576040517f08c379a000000000000000000000000000000000000000000000000000000000815260040161103090612670565b60405180910390fd5b6110436000611a8c565b565b60008060009054906101000a900473ffffffffffffffffffffffffffffffffffffffff16905090565b60006110786119ec565b90506110838161116b565b6110c2576040517f08c379a00000000000000000000000000000000000000000000000000000000081526004016110b9906126dc565b60405180910390fd5b81600360008373ffffffffffffffffffffffffffffffffffffffff1673ffffffffffffffffffffffffffffffffffffffff1681526020019081526020016000206001019080519060200190611118929190611bd6565b508073ffffffffffffffffffffffffffffffffffffffff167fed2dc10fbb70c5dca9665145aee8b5f838c00bd7fe21abfe08513209a53bfd048360405161115f91906121a0565b60405180910390a25050565b600080600360008473ffffffffffffffffffffffffffffffffffffffff1673ffffffffffffffffffffffffffffffffffffffff16815260200190815260200160002060000180546111bb9061225d565b905014159050919050565b600260009054906101000a900473ffffffffffffffffffffffffffffffffffffffff1681565b60006111f78261116b565b801561130957507f5f000000000000000000000000000000000000000000000000000000000000007effffffffffffffffffffffffffffffffffffffffffffffffffffffffffffff1916600360008473ffffffffffffffffffffffffffffffffffffffff1673ffffffffffffffffffffffffffffffffffffffff168152602001908152602001600020600001600081546112909061225d565b811061129f5761129e61241f565b5b8154600116156112be5790600052602060002090602091828204019190065b9054901a7f0100000000000000000000000000000000000000000000000000000000000000027effffffffffffffffffffffffffffffffffffffffffffffffffffffffffffff191614155b9050919050565b6113186119ec565b73ffffffffffffffffffffffffffffffffffffffff16611336611045565b73ffffffffffffffffffffffffffffffffffffffff161461138c576040517f08c379a000000000000000000000000000000000000000000000000000000000815260040161138390612670565b60405180910390fd5b8060018190555050565b61139e6119ec565b73ffffffffffffffffffffffffffffffffffffffff166113bc611045565b73ffffffffffffffffffffffffffffffffffffffff1614611412576040517f08c379a000000000000000000000000000000000000000000000000000000000815260040161140990612670565b60405180910390fd5b61141b8161116b565b61145a576040517f08c379a00000000000000000000000000000000000000000000000000000000081526004016114519061220e565b60405180910390fd5b6001600360008373ffffffffffffffffffffffffffffffffffffffff1673ffffffffffffffffffffffffffffffffffffffff16815260200190815260200160002060030160006101000a81548160ff02191690831515021790555050565b60036020528060005260406000206000915090508060000180546114db9061225d565b80601f01602080910402602001604051908101604052809291908181526020018280546115079061225d565b80156115545780601f1061152957610100808354040283529160200191611554565b820191906000526020600020905b81548152906001019060200180831161153757829003601f168201915b5050505050908060010180546115699061225d565b80601f01602080910402602001604051908101604052809291908181526020018280546115959061225d565b80156115e25780601f106115b7576101008083540402835291602001916115e2565b820191906000526020600020905b8154815290600101906020018083116115c557829003601f168201915b5050505050908060020180546115f79061225d565b80601f01602080910402602001604051908101604052809291908181526020018280546116239061225d565b80156116705780601f1061164557610100808354040283529160200191611670565b820191906000526020600020905b81548152906001019060200180831161165357829003601f168201915b5050505050908060030160009054906101000a900460ff16905084565b60606116988261116b565b6116d7576040517f08c379a00000000000000000000000000000000000000000000000000000000081526004016116ce9061220e565b60405180910390fd5b600360008373ffffffffffffffffffffffffffffffffffffffff1673ffffffffffffffffffffffffffffffffffffffff16815260200190815260200160002060000180546117249061225d565b80601f01602080910402602001604051908101604052809291908181526020018280546117509061225d565b801561179d5780601f106117725761010080835404028352916020019161179d565b820191906000526020600020905b81548152906001019060200180831161178057829003601f168201915b50505050509050919050565b6004818051602081018201805184825260208301602085012081835280955050505050506000915054906101000a900473ffffffffffffffffffffffffffffffffffffffff1681565b6117fa6119ec565b73ffffffffffffffffffffffffffffffffffffffff16611818611045565b73ffffffffffffffffffffffffffffffffffffffff161461186e576040517f08c379a000000000000000000000000000000000000000000000000000000000815260040161186590612670565b60405180910390fd5b600073ffffffffffffffffffffffffffffffffffffffff168173ffffffffffffffffffffffffffffffffffffffff1614156118de576040517f08c379a00000000000000000000000000000000000000000000000000000000081526004016118d59061276e565b60405180910390fd5b6118e781611a8c565b50565b60006118f58261116b565b801561194d5750600360008373ffffffffffffffffffffffffffffffffffffffff1673ffffffffffffffffffffffffffffffffffffffff16815260200190815260200160002060030160009054906101000a900460ff165b9050919050565b600061195f82610f3e565b61199e576040517f08c379a0000000000000000000000000000000000000000000000000000000008152600401611995906127da565b60405180910390fd5b60046119a9836119f4565b6040516119b691906124f6565b908152602001604051809103902060009054906101000a900473ffffffffffffffffffffffffffffffffffffffff169050919050565b600033905090565b6060600082905060005b8151811015611a8257611a2d828281518110611a1d57611a1c61241f565b5b602001015160f81c60f81b611b50565b828281518110611a4057611a3f61241f565b5b60200101907effffffffffffffffffffffffffffffffffffffffffffffffffffffffffffff1916908160001a9053508080611a7a90612829565b9150506119fe565b5080915050919050565b60008060009054906101000a900473ffffffffffffffffffffffffffffffffffffffff169050816000806101000a81548173ffffffffffffffffffffffffffffffffffffffff021916908373ffffffffffffffffffffffffffffffffffffffff1602179055508173ffffffffffffffffffffffffffffffffffffffff168173ffffffffffffffffffffffffffffffffffffffff167f8be0079c531659141344cd1fd0a4f28419497f9722a3daafe3b4186f6b6457e060405160405180910390a35050565b6000604160f81b827effffffffffffffffffffffffffffffffffffffffffffffffffffffffffffff191610158015611bae5750605a60f81b827effffffffffffffffffffffffffffffffffffffffffffffffffffffffffffff191611155b15611bcd5760208260f81c611bc3919061287f565b60f81b9050611bd1565b8190505b919050565b828054611be29061225d565b90600052602060002090601f016020900481019282611c045760008555611c4b565b82601f10611c1d57805160ff1916838001178555611c4b565b82800160010185558215611c4b579182015b82811115611c4a578251825591602001919060010190611c2f565b5b509050611c589190611c5c565b5090565b5b80821115611c75576000816000905550600101611c5d565b5090565b6000819050919050565b611c8c81611c79565b82525050565b6000602082019050611ca76000830184611c83565b92915050565b6000604051905090565b600080fd5b600080fd5b600073ffffffffffffffffffffffffffffffffffffffff82169050919050565b6000611cec82611cc1565b9050919050565b611cfc81611ce1565b8114611d0757600080fd5b50565b600081359050611d1981611cf3565b92915050565b600060208284031215611d3557611d34611cb7565b5b6000611d4384828501611d0a565b91505092915050565b600081519050919050565b600082825260208201905092915050565b60005b83811015611d86578082015181840152602081019050611d6b565b83811115611d95576000848401525b50505050565b6000601f19601f8301169050919050565b6000611db782611d4c565b611dc18185611d57565b9350611dd1818560208601611d68565b611dda81611d9b565b840191505092915050565b60008115159050919050565b611dfa81611de5565b82525050565b60006060820190508181036000830152611e1a8186611dac565b90508181036020830152611e2e8185611dac565b9050611e3d6040830184611df1565b949350505050565b600080fd5b600080fd5b7f4e487b7100000000000000000000000000000000000000000000000000000000600052604160045260246000fd5b611e8782611d9b565b810181811067ffffffffffffffff82111715611ea657611ea5611e4f565b5b80604052505050565b6000611eb9611cad565b9050611ec58282611e7e565b919050565b600067ffffffffffffffff821115611ee557611ee4611e4f565b5b611eee82611d9b565b9050602081019050919050565b82818337600083830152505050565b6000611f1d611f1884611eca565b611eaf565b905082815260208101848484011115611f3957611f38611e4a565b5b611f44848285611efb565b509392505050565b600082601f830112611f6157611f60611e45565b5b8135611f71848260208601611f0a565b91505092915050565b600060208284031215611f9057611f8f611cb7565b5b600082013567ffffffffffffffff811115611fae57611fad611cbc565b5b611fba84828501611f4c565b91505092915050565b611fcc81611ce1565b82525050565b6000606082019050611fe76000830186611fc3565b8181036020830152611ff98185611dac565b90506120086040830184611df1565b949350505050565b60008060006060848603121561202957612028611cb7565b5b600084013567ffffffffffffffff81111561204757612046611cbc565b5b61205386828701611f4c565b935050602084013567ffffffffffffffff81111561207457612073611cbc565b5b61208086828701611f4c565b925050604084013567ffffffffffffffff8111156120a1576120a0611cbc565b5b6120ad86828701611f4c565b9150509250925092565b60006020820190506120cc6000830184611df1565b92915050565b60006020820190506120e76000830184611fc3565b92915050565b6120f681611c79565b811461210157600080fd5b50565b600081359050612113816120ed565b92915050565b60006020828403121561212f5761212e611cb7565b5b600061213d84828501612104565b91505092915050565b600060808201905081810360008301526121608187611dac565b905081810360208301526121748186611dac565b905081810360408301526121888185611dac565b90506121976060830184611df1565b95945050505050565b600060208201905081810360008301526121ba8184611dac565b905092915050565b7f6e6f207573657220627920746869732061646472657373000000000000000000600082015250565b60006121f8601783611d57565b9150612203826121c2565b602082019050919050565b60006020820190508181036000830152612227816121eb565b9050919050565b7f4e487b7100000000000000000000000000000000000000000000000000000000600052602260045260246000fd5b6000600282049050600182168061227557607f821691505b602082108114156122895761228861222e565b5b50919050565b7f74686973206164647265737320686173207369676e6564206120757365726e6160008201527f6d65206265666f72650000000000000000000000000000000000000000000000602082015250565b60006122eb602983611d57565b91506122f68261228f565b604082019050919050565b6000602082019050818103600083015261231a816122de565b9050919050565b7f656d70747920757365726e616d6520696e707574000000000000000000000000600082015250565b6000612357601483611d57565b915061236282612321565b602082019050919050565b600060208201905081810360008301526123868161234a565b9050919050565b7f7468697320757365726e616d6520686173206265656e2075736564206265666f60008201527f7265000000000000000000000000000000000000000000000000000000000000602082015250565b60006123e9602283611d57565b91506123f48261238d565b604082019050919050565b60006020820190508181036000830152612418816123dc565b9050919050565b7f4e487b7100000000000000000000000000000000000000000000000000000000600052603260045260246000fd5b7f7468697320757365726e616d652069732050617961626c650000000000000000600082015250565b6000612484601883611d57565b915061248f8261244e565b602082019050919050565b600060208201905081810360008301526124b381612477565b9050919050565b600081905092915050565b60006124d082611d4c565b6124da81856124ba565b93506124ea818560208601611d68565b80840191505092915050565b600061250282846124c5565b915081905092915050565b600081519050919050565b600081905092915050565b600061252e8261250d565b6125388185612518565b9350612548818560208601611d68565b80840191505092915050565b60006125608284612523565b915081905092915050565b600061257e61257984611eca565b611eaf565b90508281526020810184848401111561259a57612599611e4a565b5b6125a5848285611d68565b509392505050565b600082601f8301126125c2576125c1611e45565b5b81516125d284826020860161256b565b91505092915050565b6000602082840312156125f1576125f0611cb7565b5b600082015167ffffffffffffffff81111561260f5761260e611cbc565b5b61261b848285016125ad565b91505092915050565b7f4f776e61626c653a2063616c6c6572206973206e6f7420746865206f776e6572600082015250565b600061265a602083611d57565b915061266582612624565b602082019050919050565b600060208201905081810360008301526126898161264d565b9050919050565b7f796f75206861766520746f207369676e20696e20666972737400000000000000600082015250565b60006126c6601983611d57565b91506126d182612690565b602082019050919050565b600060208201905081810360008301526126f5816126b9565b9050919050565b7f4f776e61626c653a206e6577206f776e657220697320746865207a65726f206160008201527f6464726573730000000000000000000000000000000000000000000000000000602082015250565b6000612758602683611d57565b9150612763826126fc565b604082019050919050565b600060208201905081810360008301526127878161274b565b9050919050565b7f6e6f2075736572206279207468697320757365726e616d650000000000000000600082015250565b60006127c4601883611d57565b91506127cf8261278e565b602082019050919050565b600060208201905081810360008301526127f3816127b7565b9050919050565b7f4e487b7100000000000000000000000000000000000000000000000000000000600052601160045260246000fd5b600061283482611c79565b91507fffffffffffffffffffffffffffffffffffffffffffffffffffffffffffffffff821415612867576128666127fa565b5b600182019050919050565b600060ff82169050919050565b600061288a82612872565b915061289583612872565b92508260ff038211156128ab576128aa6127fa565b5b82820190509291505056fea2646970667358221220142834ac13c7c165afd1950bd50e68160c9f3bdd7199a046debf8ae7c6da3d9e64736f6c63430008090033",
  "linkReferences": {},
  "deployedLinkReferences": {}
}