{
  "_format": "hh-sol-artifact-1",
  "contractName": "Register",
  "sourceName": "contracts/register/Register.sol",
  "abi": [
    {
      "inputs": [
        {
          "internalType": "address",
          "name": "_DAOAddress",
          "type": "address"
        },
        {
          "internalType": "uint256",
          "name": "_pureNameFee",
          "type": "uint256"
        }
      ],
      "stateMutability": "nonpayable",
      "type": "constructor"
    },
    {
      "anonymous": false,
      "inputs": [
        {
          "indexed": true,
          "internalType": "address",
          "name": "previousOwner",
          "type": "address"
        },
        {
          "indexed": true,
          "internalType": "address",
          "name": "newOwner",
          "type": "address"
        }
      ],
      "name": "OwnershipTransferred",
      "type": "event"
    },
    {
      "anonymous": false,
      "inputs": [
        {
          "indexed": true,
          "internalType": "address",
          "name": "userAddress",
          "type": "address"
        },
        {
          "indexed": false,
          "internalType": "bytes",
          "name": "info",
          "type": "bytes"
        }
      ],
      "name": "SetInfo",
      "type": "event"
    },
    {
      "anonymous": false,
      "inputs": [
        {
          "indexed": false,
          "internalType": "address",
          "name": "_from",
          "type": "address"
        },
        {
          "indexed": false,
          "internalType": "address",
          "name": "_to",
          "type": "address"
        },
        {
          "indexed": false,
          "internalType": "bytes",
          "name": "username",
          "type": "bytes"
        }
      ],
      "name": "TransferUsername",
      "type": "event"
    },
    {
      "inputs": [],
      "name": "DAOContract",
      "outputs": [
        {
          "internalType": "address",
          "name": "",
          "type": "address"
        }
      ],
      "stateMutability": "view",
      "type": "function"
    },
    {
      "inputs": [
        {
          "internalType": "address",
          "name": "",
          "type": "address"
        }
      ],
      "name": "addrToUser",
      "outputs": [
        {
          "internalType": "bytes",
          "name": "username",
          "type": "bytes"
        },
        {
          "internalType": "bytes",
          "name": "info",
          "type": "bytes"
        },
        {
          "internalType": "bytes",
          "name": "DAOInfo",
          "type": "bytes"
        },
        {
          "internalType": "bool",
          "name": "isVIP",
          "type": "bool"
        }
      ],
      "stateMutability": "view",
      "type": "function"
    },
    {
      "inputs": [
        {
          "internalType": "address",
          "name": "userAddr",
          "type": "address"
        }
      ],
      "name": "addressToProfile",
      "outputs": [
        {
          "internalType": "bytes",
          "name": "username",
          "type": "bytes"
        },
        {
          "internalType": "bytes",
          "name": "info",
          "type": "bytes"
        },
        {
          "internalType": "bool",
          "name": "VIPStatus",
          "type": "bool"
        }
      ],
      "stateMutability": "view",
      "type": "function"
    },
    {
      "inputs": [
        {
          "internalType": "address",
          "name": "userAddr",
          "type": "address"
        }
      ],
      "name": "addressToUsername",
      "outputs": [
        {
          "internalType": "bytes",
          "name": "username",
          "type": "bytes"
        }
      ],
      "stateMutability": "view",
      "type": "function"
    },
    {
      "inputs": [
        {
          "internalType": "address",
          "name": "userAddr",
          "type": "address"
        }
      ],
      "name": "isPure",
      "outputs": [
        {
          "internalType": "bool",
          "name": "",
          "type": "bool"
        }
      ],
      "stateMutability": "view",
      "type": "function"
    },
    {
      "inputs": [
        {
          "internalType": "address",
          "name": "userAddr",
          "type": "address"
        }
      ],
      "name": "isVIP",
      "outputs": [
        {
          "internalType": "bool",
          "name": "",
          "type": "bool"
        }
      ],
      "stateMutability": "view",
      "type": "function"
    },
    {
      "inputs": [
        {
          "internalType": "address",
          "name": "contractAddr",
          "type": "address"
        }
      ],
      "name": "newDAOContract",
      "outputs": [],
      "stateMutability": "nonpayable",
      "type": "function"
    },
    {
      "inputs": [],
      "name": "owner",
      "outputs": [
        {
          "internalType": "address",
          "name": "",
          "type": "address"
        }
      ],
      "stateMutability": "view",
      "type": "function"
    },
    {
      "inputs": [],
      "name": "pureNameFee",
      "outputs": [
        {
          "internalType": "uint256",
          "name": "",
          "type": "uint256"
        }
      ],
      "stateMutability": "view",
      "type": "function"
    },
    {
      "inputs": [
        {
          "internalType": "bytes",
          "name": "username",
          "type": "bytes"
        }
      ],
      "name": "registered",
      "outputs": [
        {
          "internalType": "bool",
          "name": "",
          "type": "bool"
        }
      ],
      "stateMutability": "view",
      "type": "function"
    },
    {
      "inputs": [
        {
          "internalType": "address",
          "name": "userAddr",
          "type": "address"
        }
      ],
      "name": "registered",
      "outputs": [
        {
          "internalType": "bool",
          "name": "",
          "type": "bool"
        }
      ],
      "stateMutability": "view",
      "type": "function"
    },
    {
      "inputs": [],
      "name": "renounceOwnership",
      "outputs": [],
      "stateMutability": "nonpayable",
      "type": "function"
    },
    {
      "inputs": [
        {
          "internalType": "bytes",
          "name": "info",
          "type": "bytes"
        }
      ],
      "name": "setInfo",
      "outputs": [],
      "stateMutability": "nonpayable",
      "type": "function"
    },
    {
      "inputs": [
        {
          "internalType": "uint256",
          "name": "_fee",
          "type": "uint256"
        }
      ],
      "name": "setPureNameFee",
      "outputs": [],
      "stateMutability": "nonpayable",
      "type": "function"
    },
    {
      "inputs": [
        {
          "internalType": "bytes",
          "name": "username",
          "type": "bytes"
        },
        {
          "internalType": "bytes",
          "name": "info",
          "type": "bytes"
        },
        {
          "internalType": "bytes",
          "name": "presenter",
          "type": "bytes"
        }
      ],
      "name": "signIn",
      "outputs": [],
      "stateMutability": "payable",
      "type": "function"
    },
    {
      "inputs": [
        {
          "internalType": "address",
          "name": "newOwner",
          "type": "address"
        }
      ],
      "name": "transferOwnership",
      "outputs": [],
      "stateMutability": "nonpayable",
      "type": "function"
    },
    {
      "inputs": [
        {
          "internalType": "address",
          "name": "_to",
          "type": "address"
        }
      ],
      "name": "transferUsername",
      "outputs": [],
      "stateMutability": "nonpayable",
      "type": "function"
    },
    {
      "inputs": [
        {
          "internalType": "address",
          "name": "userAddr",
          "type": "address"
        }
      ],
      "name": "upgradeToVIP",
      "outputs": [],
      "stateMutability": "nonpayable",
      "type": "function"
    },
    {
      "inputs": [
        {
          "internalType": "bytes",
          "name": "",
          "type": "bytes"
        }
      ],
      "name": "userToAddr",
      "outputs": [
        {
          "internalType": "address",
          "name": "",
          "type": "address"
        }
      ],
      "stateMutability": "view",
      "type": "function"
    },
    {
      "inputs": [
        {
          "internalType": "bytes",
          "name": "username",
          "type": "bytes"
        }
      ],
      "name": "usernameToAddress",
      "outputs": [
        {
          "internalType": "address",
          "name": "userAddr",
          "type": "address"
        }
      ],
      "stateMutability": "view",
      "type": "function"
    },
    {
      "inputs": [
        {
          "internalType": "bytes",
          "name": "username",
          "type": "bytes"
        }
      ],
      "name": "usernameToProfile",
      "outputs": [
        {
          "internalType": "address",
          "name": "userAddr",
          "type": "address"
        },
        {
          "internalType": "bytes",
          "name": "info",
          "type": "bytes"
        },
        {
          "internalType": "bool",
          "name": "VIPStatus",
          "type": "bool"
        }
      ],
      "stateMutability": "view",
      "type": "function"
    },
    {
      "inputs": [
        {
          "internalType": "address",
          "name": "receiverAddress",
          "type": "address"
        }
      ],
      "name": "withdraw",
      "outputs": [],
      "stateMutability": "nonpayable",
      "type": "function"
    }
  ],
  "bytecode": "0x60806040523480156200001157600080fd5b5060405162002f4b38038062002f4b833981810160405281019062000037919062000387565b620000576200004b6200008160201b60201c565b6200008960201b60201c565b62000068826200014d60201b60201c565b62000079816200022060201b60201c565b505062000451565b600033905090565b60008060009054906101000a900473ffffffffffffffffffffffffffffffffffffffff169050816000806101000a81548173ffffffffffffffffffffffffffffffffffffffff021916908373ffffffffffffffffffffffffffffffffffffffff1602179055508173ffffffffffffffffffffffffffffffffffffffff168173ffffffffffffffffffffffffffffffffffffffff167f8be0079c531659141344cd1fd0a4f28419497f9722a3daafe3b4186f6b6457e060405160405180910390a35050565b6200015d6200008160201b60201c565b73ffffffffffffffffffffffffffffffffffffffff1662000183620002b960201b60201c565b73ffffffffffffffffffffffffffffffffffffffff1614620001dc576040517f08c379a0000000000000000000000000000000000000000000000000000000008152600401620001d3906200042f565b60405180910390fd5b80600260006101000a81548173ffffffffffffffffffffffffffffffffffffffff021916908373ffffffffffffffffffffffffffffffffffffffff16021790555050565b620002306200008160201b60201c565b73ffffffffffffffffffffffffffffffffffffffff1662000256620002b960201b60201c565b73ffffffffffffffffffffffffffffffffffffffff1614620002af576040517f08c379a0000000000000000000000000000000000000000000000000000000008152600401620002a6906200042f565b60405180910390fd5b8060018190555050565b60008060009054906101000a900473ffffffffffffffffffffffffffffffffffffffff16905090565b600080fd5b600073ffffffffffffffffffffffffffffffffffffffff82169050919050565b60006200031482620002e7565b9050919050565b620003268162000307565b81146200033257600080fd5b50565b60008151905062000346816200031b565b92915050565b6000819050919050565b62000361816200034c565b81146200036d57600080fd5b50565b600081519050620003818162000356565b92915050565b60008060408385031215620003a157620003a0620002e2565b5b6000620003b18582860162000335565b9250506020620003c48582860162000370565b9150509250929050565b600082825260208201905092915050565b7f4f776e61626c653a2063616c6c6572206973206e6f7420746865206f776e6572600082015250565b600062000417602083620003ce565b91506200042482620003df565b602082019050919050565b600060208201905081810360008301526200044a8162000408565b9050919050565b612aea80620004616000396000f3fe6080604052600436106101355760003560e01c8063b2dd5c07116100ab578063c5bb18441161006f578063c5bb184414610441578063cad51e181461046a578063cfcddeb014610493578063e07a0baa146104d3578063f2fde38b14610510578063f4201c3c1461053957610135565b8063b2dd5c0714610334578063b377f8ae14610371578063b4dfbc301461039c578063b7110fb6146103db578063be321f421461041857610135565b806351cff8d9116100fd57806351cff8d91461024757806356360606146102705780635aca952e14610299578063634286ef146102d6578063715018a6146102f25780638da5cb5b1461030957610135565b80630587db691461013a5780630e7b29bf14610165578063243c1a21146101a4578063344b15fb146101e15780634411bdf61461020a575b600080fd5b34801561014657600080fd5b5061014f610576565b60405161015c9190611eec565b60405180910390f35b34801561017157600080fd5b5061018c60048036038101906101879190611f79565b61057c565b60405161019b9392919061205a565b60405180910390f35b3480156101b057600080fd5b506101cb60048036038101906101c691906121d4565b6107c2565b6040516101d8919061222c565b60405180910390f35b3480156101ed57600080fd5b5061020860048036038101906102039190611f79565b61080b565b005b34801561021657600080fd5b50610231600480360381019061022c91906121d4565b61096f565b60405161023e919061222c565b60405180910390f35b34801561025357600080fd5b5061026e60048036038101906102699190611f79565b610a07565b005b34801561027c57600080fd5b5061029760048036038101906102929190611f79565b610ad3565b005b3480156102a557600080fd5b506102c060048036038101906102bb91906121d4565b610b93565b6040516102cd9190612247565b60405180910390f35b6102f060048036038101906102eb9190612262565b610c12565b005b3480156102fe57600080fd5b50610307610f57565b005b34801561031557600080fd5b5061031e610fdf565b60405161032b919061222c565b60405180910390f35b34801561034057600080fd5b5061035b60048036038101906103569190611f79565b611008565b6040516103689190612247565b60405180910390f35b34801561037d57600080fd5b50610386611063565b604051610393919061222c565b60405180910390f35b3480156103a857600080fd5b506103c360048036038101906103be91906121d4565b611089565b6040516103d293929190612309565b60405180910390f35b3480156103e757600080fd5b5061040260048036038101906103fd9190611f79565b6111c6565b60405161040f9190612247565b60405180910390f35b34801561042457600080fd5b5061043f600480360381019061043a9190612373565b6112ac565b005b34801561044d57600080fd5b50610468600480360381019061046391906121d4565b611332565b005b34801561047657600080fd5b50610491600480360381019061048c9190611f79565b61142f565b005b34801561049f57600080fd5b506104ba60048036038101906104b59190611f79565b611551565b6040516104ca94939291906123a0565b60405180910390f35b3480156104df57600080fd5b506104fa60048036038101906104f59190611f79565b611726565b60405161050791906123fa565b60405180910390f35b34801561051c57600080fd5b5061053760048036038101906105329190611f79565b611842565b005b34801561054557600080fd5b50610560600480360381019061055b9190611f79565b61193a565b60405161056d9190612247565b60405180910390f35b60015481565b606080600061058a84611008565b6105c9576040517f08c379a00000000000000000000000000000000000000000000000000000000081526004016105c090612479565b60405180910390fd5b600360008573ffffffffffffffffffffffffffffffffffffffff1673ffffffffffffffffffffffffffffffffffffffff168152602001908152602001600020600001600360008673ffffffffffffffffffffffffffffffffffffffff1673ffffffffffffffffffffffffffffffffffffffff168152602001908152602001600020600101600360008773ffffffffffffffffffffffffffffffffffffffff1673ffffffffffffffffffffffffffffffffffffffff16815260200190815260200160002060030160009054906101000a900460ff168280546106a9906124c8565b80601f01602080910402602001604051908101604052809291908181526020018280546106d5906124c8565b80156107225780601f106106f757610100808354040283529160200191610722565b820191906000526020600020905b81548152906001019060200180831161070557829003601f168201915b50505050509250818054610735906124c8565b80601f0160208091040260200160405190810160405280929190818152602001828054610761906124c8565b80156107ae5780601f10610783576101008083540402835291602001916107ae565b820191906000526020600020905b81548152906001019060200180831161079157829003601f168201915b505050505091509250925092509193909250565b6004818051602081018201805184825260208301602085012081835280955050505050506000915054906101000a900473ffffffffffffffffffffffffffffffffffffffff1681565b60006108156119a4565b90506000600360008373ffffffffffffffffffffffffffffffffffffffff1673ffffffffffffffffffffffffffffffffffffffff1681526020019081526020016000206000018054610866906124c8565b80601f0160208091040260200160405190810160405280929190818152602001828054610892906124c8565b80156108df5780601f106108b4576101008083540402835291602001916108df565b820191906000526020600020905b8154815290600101906020018083116108c257829003601f168201915b505050505090506108f082826119ac565b600073ffffffffffffffffffffffffffffffffffffffff168373ffffffffffffffffffffffffffffffffffffffff161461092f5761092e8382611ac7565b5b7fc5b005803cbef46386057a10525cd7571790a162e772a35e687b8990394f451c828483604051610962939291906124fa565b60405180910390a1505050565b600061097a82610b93565b6109b9576040517f08c379a00000000000000000000000000000000000000000000000000000000081526004016109b090612584565b60405180910390fd5b60046109c483611c14565b6040516109d191906125e0565b908152602001604051809103902060009054906101000a900473ffffffffffffffffffffffffffffffffffffffff169050919050565b610a0f6119a4565b73ffffffffffffffffffffffffffffffffffffffff16610a2d610fdf565b73ffffffffffffffffffffffffffffffffffffffff1614610a83576040517f08c379a0000000000000000000000000000000000000000000000000000000008152600401610a7a90612643565b60405180910390fd5b60008190508073ffffffffffffffffffffffffffffffffffffffff166108fc479081150290604051600060405180830381858888f19350505050158015610ace573d6000803e3d6000fd5b505050565b610adb6119a4565b73ffffffffffffffffffffffffffffffffffffffff16610af9610fdf565b73ffffffffffffffffffffffffffffffffffffffff1614610b4f576040517f08c379a0000000000000000000000000000000000000000000000000000000008152600401610b4690612643565b60405180910390fd5b80600260006101000a81548173ffffffffffffffffffffffffffffffffffffffff021916908373ffffffffffffffffffffffffffffffffffffffff16021790555050565b60008073ffffffffffffffffffffffffffffffffffffffff166004610bb784611c14565b604051610bc491906125e0565b908152602001604051809103902060009054906101000a900473ffffffffffffffffffffffffffffffffffffffff1673ffffffffffffffffffffffffffffffffffffffff1614159050919050565b6000610c1c6119a4565b9050610c2784610b93565b15610c67576040517f08c379a0000000000000000000000000000000000000000000000000000000008152600401610c5e906126d5565b60405180910390fd5b605f60f81b84600081518110610c8057610c7f6126f5565b5b602001015160f81c60f81b7effffffffffffffffffffffffffffffffffffffffffffffffffffffffffffff191614610cf857600154341015610cf7576040517f08c379a0000000000000000000000000000000000000000000000000000000008152600401610cee90612770565b60405180910390fd5b5b610d028185611ac7565b7fc5b005803cbef46386057a10525cd7571790a162e772a35e687b8990394f451c60008286604051610d36939291906124fa565b60405180910390a1600083511115610d5257610d5183611332565b5b60006004610d5f84611c14565b604051610d6c91906125e0565b908152602001604051809103902060009054906101000a900473ffffffffffffffffffffffffffffffffffffffff169050600073ffffffffffffffffffffffffffffffffffffffff168173ffffffffffffffffffffffffffffffffffffffff1614610f5057600080600260009054906101000a900473ffffffffffffffffffffffffffffffffffffffff1673ffffffffffffffffffffffffffffffffffffffff1683604051602401610e1e919061222c565b6040516020818303038152906040527ff9afbb67000000000000000000000000000000000000000000000000000000007bffffffffffffffffffffffffffffffffffffffffffffffffffffffff19166020820180517bffffffffffffffffffffffffffffffffffffffffffffffffffffffff8381831617835250505050604051610ea891906125e0565b6000604051808303816000865af19150503d8060008114610ee5576040519150601f19603f3d011682016040523d82523d6000602084013e610eea565b606091505b50915091508115610f4d5780600360008673ffffffffffffffffffffffffffffffffffffffff1673ffffffffffffffffffffffffffffffffffffffff1681526020019081526020016000206002019080519060200190610f4b929190611df0565b505b50505b5050505050565b610f5f6119a4565b73ffffffffffffffffffffffffffffffffffffffff16610f7d610fdf565b73ffffffffffffffffffffffffffffffffffffffff1614610fd3576040517f08c379a0000000000000000000000000000000000000000000000000000000008152600401610fca90612643565b60405180910390fd5b610fdd6000611ca6565b565b60008060009054906101000a900473ffffffffffffffffffffffffffffffffffffffff16905090565b600080600360008473ffffffffffffffffffffffffffffffffffffffff1673ffffffffffffffffffffffffffffffffffffffff1681526020019081526020016000206000018054611058906124c8565b905014159050919050565b600260009054906101000a900473ffffffffffffffffffffffffffffffffffffffff1681565b6000606060006110988461096f565b925082600360008573ffffffffffffffffffffffffffffffffffffffff1673ffffffffffffffffffffffffffffffffffffffff168152602001908152602001600020600101600360008673ffffffffffffffffffffffffffffffffffffffff1673ffffffffffffffffffffffffffffffffffffffff16815260200190815260200160002060030160009054906101000a900460ff16818054611139906124c8565b80601f0160208091040260200160405190810160405280929190818152602001828054611165906124c8565b80156111b25780601f10611187576101008083540402835291602001916111b2565b820191906000526020600020905b81548152906001019060200180831161119557829003601f168201915b505050505091509250925092509193909250565b60006111d182611008565b80156112a55750605f60f81b600360008473ffffffffffffffffffffffffffffffffffffffff1673ffffffffffffffffffffffffffffffffffffffff1681526020019081526020016000206000016000815461122c906124c8565b811061123b5761123a6126f5565b5b81546001161561125a5790600052602060002090602091828204019190065b9054901a7f0100000000000000000000000000000000000000000000000000000000000000027effffffffffffffffffffffffffffffffffffffffffffffffffffffffffffff191614155b9050919050565b6112b46119a4565b73ffffffffffffffffffffffffffffffffffffffff166112d2610fdf565b73ffffffffffffffffffffffffffffffffffffffff1614611328576040517f08c379a000000000000000000000000000000000000000000000000000000000815260040161131f90612643565b60405180910390fd5b8060018190555050565b600061133c6119a4565b905061134781611008565b611386576040517f08c379a000000000000000000000000000000000000000000000000000000000815260040161137d906127dc565b60405180910390fd5b81600360008373ffffffffffffffffffffffffffffffffffffffff1673ffffffffffffffffffffffffffffffffffffffff16815260200190815260200160002060010190805190602001906113dc929190611df0565b508073ffffffffffffffffffffffffffffffffffffffff167f920796a442ed2c02d9db76bf44d2ca26251fb0d1437fb12ba7d064bc2262d8d28360405161142391906123fa565b60405180910390a25050565b6114376119a4565b73ffffffffffffffffffffffffffffffffffffffff16611455610fdf565b73ffffffffffffffffffffffffffffffffffffffff16146114ab576040517f08c379a00000000000000000000000000000000000000000000000000000000081526004016114a290612643565b60405180910390fd5b6114b481611008565b6114f3576040517f08c379a00000000000000000000000000000000000000000000000000000000081526004016114ea90612479565b60405180910390fd5b6001600360008373ffffffffffffffffffffffffffffffffffffffff1673ffffffffffffffffffffffffffffffffffffffff16815260200190815260200160002060030160006101000a81548160ff02191690831515021790555050565b6003602052806000526040600020600091509050806000018054611574906124c8565b80601f01602080910402602001604051908101604052809291908181526020018280546115a0906124c8565b80156115ed5780601f106115c2576101008083540402835291602001916115ed565b820191906000526020600020905b8154815290600101906020018083116115d057829003601f168201915b505050505090806001018054611602906124c8565b80601f016020809104026020016040519081016040528092919081815260200182805461162e906124c8565b801561167b5780601f106116505761010080835404028352916020019161167b565b820191906000526020600020905b81548152906001019060200180831161165e57829003601f168201915b505050505090806002018054611690906124c8565b80601f01602080910402602001604051908101604052809291908181526020018280546116bc906124c8565b80156117095780601f106116de57610100808354040283529160200191611709565b820191906000526020600020905b8154815290600101906020018083116116ec57829003601f168201915b5050505050908060030160009054906101000a900460ff16905084565b606061173182611008565b611770576040517f08c379a000000000000000000000000000000000000000000000000000000000815260040161176790612479565b60405180910390fd5b600360008373ffffffffffffffffffffffffffffffffffffffff1673ffffffffffffffffffffffffffffffffffffffff16815260200190815260200160002060000180546117bd906124c8565b80601f01602080910402602001604051908101604052809291908181526020018280546117e9906124c8565b80156118365780601f1061180b57610100808354040283529160200191611836565b820191906000526020600020905b81548152906001019060200180831161181957829003601f168201915b50505050509050919050565b61184a6119a4565b73ffffffffffffffffffffffffffffffffffffffff16611868610fdf565b73ffffffffffffffffffffffffffffffffffffffff16146118be576040517f08c379a00000000000000000000000000000000000000000000000000000000081526004016118b590612643565b60405180910390fd5b600073ffffffffffffffffffffffffffffffffffffffff168173ffffffffffffffffffffffffffffffffffffffff16141561192e576040517f08c379a00000000000000000000000000000000000000000000000000000000081526004016119259061286e565b60405180910390fd5b61193781611ca6565b50565b600061194582611008565b801561199d5750600360008373ffffffffffffffffffffffffffffffffffffffff1673ffffffffffffffffffffffffffffffffffffffff16815260200190815260200160002060030160009054906101000a900460ff165b9050919050565b600033905090565b6119b582611008565b6119f4576040517f08c379a00000000000000000000000000000000000000000000000000000000081526004016119eb906128da565b60405180910390fd5b600360008373ffffffffffffffffffffffffffffffffffffffff1673ffffffffffffffffffffffffffffffffffffffff16815260200190815260200160002060008082016000611a449190611e76565b600182016000611a549190611e76565b600282016000611a649190611e76565b6003820160006101000a81549060ff021916905550506004611a8582611c14565b604051611a9291906125e0565b908152602001604051809103902060006101000a81549073ffffffffffffffffffffffffffffffffffffffff02191690555050565b6000815111611b0b576040517f08c379a0000000000000000000000000000000000000000000000000000000008152600401611b0290612946565b60405180910390fd5b611b1482611008565b15611b54576040517f08c379a0000000000000000000000000000000000000000000000000000000008152600401611b4b906129d8565b60405180910390fd5b80600360008473ffffffffffffffffffffffffffffffffffffffff1673ffffffffffffffffffffffffffffffffffffffff1681526020019081526020016000206000019080519060200190611baa929190611df0565b50816004611bb783611c14565b604051611bc491906125e0565b908152602001604051809103902060006101000a81548173ffffffffffffffffffffffffffffffffffffffff021916908373ffffffffffffffffffffffffffffffffffffffff1602179055505050565b606060005b8251811015611c9d57611c48838281518110611c3857611c376126f5565b5b602001015160f81c60f81b611d6a565b838281518110611c5b57611c5a6126f5565b5b60200101907effffffffffffffffffffffffffffffffffffffffffffffffffffffffffffff1916908160001a9053508080611c9590612a27565b915050611c19565b50819050919050565b60008060009054906101000a900473ffffffffffffffffffffffffffffffffffffffff169050816000806101000a81548173ffffffffffffffffffffffffffffffffffffffff021916908373ffffffffffffffffffffffffffffffffffffffff1602179055508173ffffffffffffffffffffffffffffffffffffffff168173ffffffffffffffffffffffffffffffffffffffff167f8be0079c531659141344cd1fd0a4f28419497f9722a3daafe3b4186f6b6457e060405160405180910390a35050565b6000604160f81b827effffffffffffffffffffffffffffffffffffffffffffffffffffffffffffff191610158015611dc85750605a60f81b827effffffffffffffffffffffffffffffffffffffffffffffffffffffffffffff191611155b15611de75760208260f81c611ddd9190612a7d565b60f81b9050611deb565b8190505b919050565b828054611dfc906124c8565b90600052602060002090601f016020900481019282611e1e5760008555611e65565b82601f10611e3757805160ff1916838001178555611e65565b82800160010185558215611e65579182015b82811115611e64578251825591602001919060010190611e49565b5b509050611e729190611eb6565b5090565b508054611e82906124c8565b6000825580601f10611e945750611eb3565b601f016020900490600052602060002090810190611eb29190611eb6565b5b50565b5b80821115611ecf576000816000905550600101611eb7565b5090565b6000819050919050565b611ee681611ed3565b82525050565b6000602082019050611f016000830184611edd565b92915050565b6000604051905090565b600080fd5b600080fd5b600073ffffffffffffffffffffffffffffffffffffffff82169050919050565b6000611f4682611f1b565b9050919050565b611f5681611f3b565b8114611f6157600080fd5b50565b600081359050611f7381611f4d565b92915050565b600060208284031215611f8f57611f8e611f11565b5b6000611f9d84828501611f64565b91505092915050565b600081519050919050565b600082825260208201905092915050565b60005b83811015611fe0578082015181840152602081019050611fc5565b83811115611fef576000848401525b50505050565b6000601f19601f8301169050919050565b600061201182611fa6565b61201b8185611fb1565b935061202b818560208601611fc2565b61203481611ff5565b840191505092915050565b60008115159050919050565b6120548161203f565b82525050565b600060608201905081810360008301526120748186612006565b905081810360208301526120888185612006565b9050612097604083018461204b565b949350505050565b600080fd5b600080fd5b7f4e487b7100000000000000000000000000000000000000000000000000000000600052604160045260246000fd5b6120e182611ff5565b810181811067ffffffffffffffff82111715612100576120ff6120a9565b5b80604052505050565b6000612113611f07565b905061211f82826120d8565b919050565b600067ffffffffffffffff82111561213f5761213e6120a9565b5b61214882611ff5565b9050602081019050919050565b82818337600083830152505050565b600061217761217284612124565b612109565b905082815260208101848484011115612193576121926120a4565b5b61219e848285612155565b509392505050565b600082601f8301126121bb576121ba61209f565b5b81356121cb848260208601612164565b91505092915050565b6000602082840312156121ea576121e9611f11565b5b600082013567ffffffffffffffff81111561220857612207611f16565b5b612214848285016121a6565b91505092915050565b61222681611f3b565b82525050565b6000602082019050612241600083018461221d565b92915050565b600060208201905061225c600083018461204b565b92915050565b60008060006060848603121561227b5761227a611f11565b5b600084013567ffffffffffffffff81111561229957612298611f16565b5b6122a5868287016121a6565b935050602084013567ffffffffffffffff8111156122c6576122c5611f16565b5b6122d2868287016121a6565b925050604084013567ffffffffffffffff8111156122f3576122f2611f16565b5b6122ff868287016121a6565b9150509250925092565b600060608201905061231e600083018661221d565b81810360208301526123308185612006565b905061233f604083018461204b565b949350505050565b61235081611ed3565b811461235b57600080fd5b50565b60008135905061236d81612347565b92915050565b60006020828403121561238957612388611f11565b5b60006123978482850161235e565b91505092915050565b600060808201905081810360008301526123ba8187612006565b905081810360208301526123ce8186612006565b905081810360408301526123e28185612006565b90506123f1606083018461204b565b95945050505050565b600060208201905081810360008301526124148184612006565b905092915050565b600082825260208201905092915050565b7f6e6f207573657220627920746869732061646472657373000000000000000000600082015250565b600061246360178361241c565b915061246e8261242d565b602082019050919050565b6000602082019050818103600083015261249281612456565b9050919050565b7f4e487b7100000000000000000000000000000000000000000000000000000000600052602260045260246000fd5b600060028204905060018216806124e057607f821691505b602082108114156124f4576124f3612499565b5b50919050565b600060608201905061250f600083018661221d565b61251c602083018561221d565b818103604083015261252e8184612006565b9050949350505050565b7f6e6f2075736572206279207468697320757365726e616d650000000000000000600082015250565b600061256e60188361241c565b915061257982612538565b602082019050919050565b6000602082019050818103600083015261259d81612561565b9050919050565b600081905092915050565b60006125ba82611fa6565b6125c481856125a4565b93506125d4818560208601611fc2565b80840191505092915050565b60006125ec82846125af565b915081905092915050565b7f4f776e61626c653a2063616c6c6572206973206e6f7420746865206f776e6572600082015250565b600061262d60208361241c565b9150612638826125f7565b602082019050919050565b6000602082019050818103600083015261265c81612620565b9050919050565b7f7468697320757365726e616d6520686173206265656e2075736564206265666f60008201527f7265000000000000000000000000000000000000000000000000000000000000602082015250565b60006126bf60228361241c565b91506126ca82612663565b604082019050919050565b600060208201905081810360008301526126ee816126b2565b9050919050565b7f4e487b7100000000000000000000000000000000000000000000000000000000600052603260045260246000fd5b7f7468697320757365726e616d652069732050617961626c650000000000000000600082015250565b600061275a60188361241c565b915061276582612724565b602082019050919050565b600060208201905081810360008301526127898161274d565b9050919050565b7f796f75206861766520746f207369676e20696e20666972737400000000000000600082015250565b60006127c660198361241c565b91506127d182612790565b602082019050919050565b600060208201905081810360008301526127f5816127b9565b9050919050565b7f4f776e61626c653a206e6577206f776e657220697320746865207a65726f206160008201527f6464726573730000000000000000000000000000000000000000000000000000602082015250565b600061285860268361241c565b9150612863826127fc565b604082019050919050565b600060208201905081810360008301526128878161284b565b9050919050565b7f796f7520617265206e6f74207265676973746572656400000000000000000000600082015250565b60006128c460168361241c565b91506128cf8261288e565b602082019050919050565b600060208201905081810360008301526128f3816128b7565b9050919050565b7f656d70747920757365726e616d6520696e707574000000000000000000000000600082015250565b600061293060148361241c565b915061293b826128fa565b602082019050919050565b6000602082019050818103600083015261295f81612923565b9050919050565b7f74686973206164647265737320686173207369676e6564206120757365726e6160008201527f6d65206265666f72650000000000000000000000000000000000000000000000602082015250565b60006129c260298361241c565b91506129cd82612966565b604082019050919050565b600060208201905081810360008301526129f1816129b5565b9050919050565b7f4e487b7100000000000000000000000000000000000000000000000000000000600052601160045260246000fd5b6000612a3282611ed3565b91507fffffffffffffffffffffffffffffffffffffffffffffffffffffffffffffffff821415612a6557612a646129f8565b5b600182019050919050565b600060ff82169050919050565b6000612a8882612a70565b9150612a9383612a70565b92508260ff03821115612aa957612aa86129f8565b5b82820190509291505056fea2646970667358221220371c7b1b7dbb867e95f45dd08517106b60f742491901806301918accd8ef5dbc64736f6c63430008090033",
  "linkReferences": {},
  "deployedLinkReferences": {}
}