{
  "_format": "hh-sol-artifact-1",
  "contractName": "Register",
  "sourceName": "contracts/register/Register.sol",
  "abi": [
    {
      "inputs": [],
      "name": "DAO",
      "outputs": [
        {
          "internalType": "address",
          "name": "DAOAddr",
          "type": "address"
        }
      ],
      "stateMutability": "view",
      "type": "function"
    },
    {
      "inputs": [
        {
          "internalType": "bytes32",
          "name": "tag",
          "type": "bytes32"
        }
      ],
      "name": "DAOGetAddress",
      "outputs": [
        {
          "internalType": "address",
          "name": "data",
          "type": "address"
        }
      ],
      "stateMutability": "view",
      "type": "function"
    },
    {
      "inputs": [
        {
          "internalType": "bytes32",
          "name": "tag",
          "type": "bytes32"
        }
      ],
      "name": "DAOGetBool",
      "outputs": [
        {
          "internalType": "bool",
          "name": "data",
          "type": "bool"
        }
      ],
      "stateMutability": "view",
      "type": "function"
    },
    {
      "inputs": [
        {
          "internalType": "bytes32",
          "name": "tag",
          "type": "bytes32"
        }
      ],
      "name": "DAOGetBytes",
      "outputs": [
        {
          "internalType": "bytes",
          "name": "data",
          "type": "bytes"
        }
      ],
      "stateMutability": "view",
      "type": "function"
    },
    {
      "inputs": [
        {
          "internalType": "bytes32",
          "name": "tag",
          "type": "bytes32"
        }
      ],
      "name": "DAOGetInt",
      "outputs": [
        {
          "internalType": "int256",
          "name": "data",
          "type": "int256"
        }
      ],
      "stateMutability": "view",
      "type": "function"
    },
    {
      "inputs": [
        {
          "internalType": "bytes32",
          "name": "tag",
          "type": "bytes32"
        }
      ],
      "name": "DAOGetString",
      "outputs": [
        {
          "internalType": "string",
          "name": "data",
          "type": "string"
        }
      ],
      "stateMutability": "view",
      "type": "function"
    },
    {
      "inputs": [
        {
          "internalType": "bytes32",
          "name": "tag",
          "type": "bytes32"
        }
      ],
      "name": "DAOGetUint",
      "outputs": [
        {
          "internalType": "uint256",
          "name": "data",
          "type": "uint256"
        }
      ],
      "stateMutability": "view",
      "type": "function"
    },
    {
      "inputs": [
        {
          "internalType": "address",
          "name": "userAddr",
          "type": "address"
        }
      ],
      "name": "addressToProfile",
      "outputs": [
        {
          "internalType": "string",
          "name": "username",
          "type": "string"
        },
        {
          "internalType": "string",
          "name": "userInfo",
          "type": "string"
        }
      ],
      "stateMutability": "view",
      "type": "function"
    },
    {
      "inputs": [
        {
          "internalType": "address",
          "name": "userAddr",
          "type": "address"
        }
      ],
      "name": "addressToUsername",
      "outputs": [
        {
          "internalType": "string",
          "name": "username",
          "type": "string"
        }
      ],
      "stateMutability": "view",
      "type": "function"
    },
    {
      "inputs": [
        {
          "internalType": "string",
          "name": "username",
          "type": "string"
        }
      ],
      "name": "registered",
      "outputs": [
        {
          "internalType": "bool",
          "name": "",
          "type": "bool"
        }
      ],
      "stateMutability": "view",
      "type": "function"
    },
    {
      "inputs": [
        {
          "internalType": "address",
          "name": "userAddr",
          "type": "address"
        }
      ],
      "name": "registered",
      "outputs": [
        {
          "internalType": "bool",
          "name": "",
          "type": "bool"
        }
      ],
      "stateMutability": "view",
      "type": "function"
    },
    {
      "inputs": [
        {
          "internalType": "string",
          "name": "userInfo",
          "type": "string"
        }
      ],
      "name": "setInfo",
      "outputs": [],
      "stateMutability": "nonpayable",
      "type": "function"
    },
    {
      "inputs": [
        {
          "internalType": "string",
          "name": "username",
          "type": "string"
        },
        {
          "internalType": "string",
          "name": "userInfo",
          "type": "string"
        },
        {
          "internalType": "string",
          "name": "presenter",
          "type": "string"
        }
      ],
      "name": "signIn",
      "outputs": [],
      "stateMutability": "payable",
      "type": "function"
    },
    {
      "inputs": [],
      "name": "userData",
      "outputs": [
        {
          "internalType": "contract UserData",
          "name": "",
          "type": "address"
        }
      ],
      "stateMutability": "view",
      "type": "function"
    },
    {
      "inputs": [
        {
          "internalType": "string",
          "name": "username",
          "type": "string"
        }
      ],
      "name": "usernameToAddress",
      "outputs": [
        {
          "internalType": "address",
          "name": "userAddr",
          "type": "address"
        }
      ],
      "stateMutability": "view",
      "type": "function"
    },
    {
      "inputs": [
        {
          "internalType": "string",
          "name": "username",
          "type": "string"
        }
      ],
      "name": "usernameToProfile",
      "outputs": [
        {
          "internalType": "address",
          "name": "userAddr",
          "type": "address"
        },
        {
          "internalType": "string",
          "name": "userInfo",
          "type": "string"
        }
      ],
      "stateMutability": "view",
      "type": "function"
    }
  ],
  "bytecode": "0x60a060405273245caa689fa16ab50df4e8ab48555715877f79ff73ffffffffffffffffffffffffffffffffffffffff1660809073ffffffffffffffffffffffffffffffffffffffff1681525034801561005757600080fd5b50608051612d9061007360003960006116b60152612d906000f3fe6080604052600436106100f35760003560e01c8063937f6e771161008a578063bea6998f11610059578063bea6998f1461038f578063e07a0baa146103ba578063e2330b62146103f7578063f825f14314610434576100f3565b8063937f6e77146102c157806398fabd3a146102ea578063afdac18a14610315578063b2dd5c0714610352576100f3565b8063482fa043116100c6578063482fa043146101cd5780635d2d5c371461020a5780635dbe43f2146102475780636e08ca2e14610284576100f3565b8063025ec49a146100f85780630e7b29bf146101355780630eb5cd1a1461017357806317d984ec146101b1575b600080fd5b34801561010457600080fd5b5061011f600480360381019061011a9190611ebb565b610471565b60405161012c9190611f03565b60405180910390f35b34801561014157600080fd5b5061015c60048036038101906101579190611f7c565b61059f565b60405161016a929190612042565b60405180910390f35b34801561017f57600080fd5b5061019a600480360381019061019591906121ae565b610762565b6040516101a8929190612206565b60405180910390f35b6101cb60048036038101906101c69190612236565b610930565b005b3480156101d957600080fd5b506101f460048036038101906101ef9190611ebb565b6110bd565b6040516102019190612332565b60405180910390f35b34801561021657600080fd5b50610231600480360381019061022c91906121ae565b6111eb565b60405161023e9190611f03565b60405180910390f35b34801561025357600080fd5b5061026e60048036038101906102699190611ebb565b6112bb565b60405161027b9190612354565b60405180910390f35b34801561029057600080fd5b506102ab60048036038101906102a69190611ebb565b6113e9565b6040516102b8919061236f565b60405180910390f35b3480156102cd57600080fd5b506102e860048036038101906102e391906121ae565b611517565b005b3480156102f657600080fd5b506102ff6116af565b60405161030c9190612354565b60405180910390f35b34801561032157600080fd5b5061033c60048036038101906103379190611ebb565b6117e9565b60405161034991906123aa565b60405180910390f35b34801561035e57600080fd5b5061037960048036038101906103749190611f7c565b611917565b6040516103869190611f03565b60405180910390f35b34801561039b57600080fd5b506103a46119da565b6040516103b19190612424565b60405180910390f35b3480156103c657600080fd5b506103e160048036038101906103dc9190611f7c565b611a0a565b6040516103ee919061236f565b60405180910390f35b34801561040357600080fd5b5061041e60048036038101906104199190611ebb565b611b14565b60405161042b9190612458565b60405180910390f35b34801561044057600080fd5b5061045b600480360381019061045691906121ae565b611c42565b6040516104689190612354565b60405180910390f35b600080600061047e6116af565b73ffffffffffffffffffffffffffffffffffffffff16846040516024016104a59190612482565b6040516020818303038152906040527f7ae1cfca000000000000000000000000000000000000000000000000000000007bffffffffffffffffffffffffffffffffffffffffffffffffffffffff19166020820180517bffffffffffffffffffffffffffffffffffffffffffffffffffffffff838183161783525050505060405161052f91906124d9565b600060405180830381855afa9150503d806000811461056a576040519150601f19603f3d011682016040523d82523d6000602084013e61056f565b606091505b50915091508115610597578080602001905181019061058e919061251c565b9250505061059a565b50505b919050565b60608060006105ac6119da565b905060008173ffffffffffffffffffffffffffffffffffffffff1663e318de73867f8a440962fb17f0fe928a3d930137743fe63b8f4c0ce5a5da63991310103d9aef6040518363ffffffff1660e01b815260040161060b929190612549565b60006040518083038186803b15801561062357600080fd5b505afa158015610637573d6000803e3d6000fd5b505050506040513d6000823e3d601f19601f8201168201806040525081019061066091906125e2565b905060008151116106a6576040517f08c379a000000000000000000000000000000000000000000000000000000000815260040161069d90612677565b60405180910390fd5b808273ffffffffffffffffffffffffffffffffffffffff1663e318de73877fbebc082d6e6b7cce489569e3716ad317012c8bdf6da0a0b13432ebec124c0b9a6040518363ffffffff1660e01b8152600401610702929190612549565b60006040518083038186803b15801561071a57600080fd5b505afa15801561072e573d6000803e3d6000fd5b505050506040513d6000823e3d601f19601f8201168201806040525081019061075791906125e2565b935093505050915091565b6000606060006107706119da565b90508073ffffffffffffffffffffffffffffffffffffffff16635c9566dc61079786611d53565b6040518263ffffffff1660e01b81526004016107b3919061236f565b60206040518083038186803b1580156107cb57600080fd5b505afa1580156107df573d6000803e3d6000fd5b505050506040513d601f19601f8201168201806040525081019061080391906126ac565b9250600073ffffffffffffffffffffffffffffffffffffffff168373ffffffffffffffffffffffffffffffffffffffff161415610875576040517f08c379a000000000000000000000000000000000000000000000000000000000815260040161086c90612725565b60405180910390fd5b828173ffffffffffffffffffffffffffffffffffffffff1663e318de73857fbebc082d6e6b7cce489569e3716ad317012c8bdf6da0a0b13432ebec124c0b9a6040518363ffffffff1660e01b81526004016108d1929190612549565b60006040518083038186803b1580156108e957600080fd5b505afa1580156108fd573d6000803e3d6000fd5b505050506040513d6000823e3d601f19601f8201168201806040525081019061092691906125e2565b9250925050915091565b600061093a6119da565b905060003390506000855111610985576040517f08c379a000000000000000000000000000000000000000000000000000000000815260040161097c90612791565b60405180910390fd5b600073ffffffffffffffffffffffffffffffffffffffff168273ffffffffffffffffffffffffffffffffffffffff16635c9566dc6109c288611d53565b6040518263ffffffff1660e01b81526004016109de919061236f565b60206040518083038186803b1580156109f657600080fd5b505afa158015610a0a573d6000803e3d6000fd5b505050506040513d601f19601f82011682018060405250810190610a2e91906126ac565b73ffffffffffffffffffffffffffffffffffffffff1614610a84576040517f08c379a0000000000000000000000000000000000000000000000000000000008152600401610a7b906127fd565b60405180910390fd5b60007f5f000000000000000000000000000000000000000000000000000000000000007effffffffffffffffffffffffffffffffffffffffffffffffffffffffffffff191686600081518110610add57610adc61281d565b5b602001015160f81c60f81b7effffffffffffffffffffffffffffffffffffffffffffffffffffffffffffff191614610b835760019050610b3c7f0c59eec62ac2fd9ed77a7ce3b89639464319163431dc54ecc02547953ec53962611b14565b341015610b7e576040517f08c379a0000000000000000000000000000000000000000000000000000000008152600401610b7590612898565b60405180910390fd5b610bef565b610bac7f7d5758ce500d52c55f03c3cd8184d4f4e988fa785f1058997b6e0b5bd5888d76611b14565b341015610bee576040517f08c379a0000000000000000000000000000000000000000000000000000000008152600401610be590612898565b60405180910390fd5b5b60008373ffffffffffffffffffffffffffffffffffffffff1663e318de73847f8a440962fb17f0fe928a3d930137743fe63b8f4c0ce5a5da63991310103d9aef6040518363ffffffff1660e01b8152600401610c4c929190612549565b60006040518083038186803b158015610c6457600080fd5b505afa158015610c78573d6000803e3d6000fd5b505050506040513d6000823e3d601f19601f82011682018060405250810190610ca191906125e2565b5114610ce2576040517f08c379a0000000000000000000000000000000000000000000000000000000008152600401610cd990612904565b60405180910390fd5b8273ffffffffffffffffffffffffffffffffffffffff16632c588077610d0788611d53565b846040518363ffffffff1660e01b8152600401610d25929190612924565b600060405180830381600087803b158015610d3f57600080fd5b505af1158015610d53573d6000803e3d6000fd5b505050508273ffffffffffffffffffffffffffffffffffffffff1663f4f20e71837f8a440962fb17f0fe928a3d930137743fe63b8f4c0ce5a5da63991310103d9aef896040518463ffffffff1660e01b8152600401610db493929190612954565b600060405180830381600087803b158015610dce57600080fd5b505af1158015610de2573d6000803e3d6000fd5b50505050600085511115610e80578273ffffffffffffffffffffffffffffffffffffffff1663f4f20e71837fbebc082d6e6b7cce489569e3716ad317012c8bdf6da0a0b13432ebec124c0b9a886040518463ffffffff1660e01b8152600401610e4d93929190612954565b600060405180830381600087803b158015610e6757600080fd5b505af1158015610e7b573d6000803e3d6000fd5b505050505b60008373ffffffffffffffffffffffffffffffffffffffff16635c9566dc610ea787611d53565b6040518263ffffffff1660e01b8152600401610ec3919061236f565b60206040518083038186803b158015610edb57600080fd5b505afa158015610eef573d6000803e3d6000fd5b505050506040513d601f19601f82011682018060405250810190610f1391906126ac565b9050600080610f417fbeefc1d791dce2a651a24c5dfe6f794afd0483393f2525c6b36ed0617e4837e36112bb565b73ffffffffffffffffffffffffffffffffffffffff1634868587604051602401610f6d93929190612992565b6040516020818303038152906040527f31454986000000000000000000000000000000000000000000000000000000007bffffffffffffffffffffffffffffffffffffffffffffffffffffffff19166020820180517bffffffffffffffffffffffffffffffffffffffffffffffffffffffff8381831617835250505050604051610ff791906124d9565b60006040518083038185875af1925050503d8060008114611034576040519150601f19603f3d011682016040523d82523d6000602084013e611039565b606091505b509150915081156110b2578573ffffffffffffffffffffffffffffffffffffffff16638aa30a7186836040518363ffffffff1660e01b815260040161107f9291906129ef565b600060405180830381600087803b15801561109957600080fd5b505af11580156110ad573d6000803e3d6000fd5b505050505b505050505050505050565b60606000806110ca6116af565b73ffffffffffffffffffffffffffffffffffffffff16846040516024016110f19190612482565b6040516020818303038152906040527f3848207a000000000000000000000000000000000000000000000000000000007bffffffffffffffffffffffffffffffffffffffffffffffffffffffff19166020820180517bffffffffffffffffffffffffffffffffffffffffffffffffffffffff838183161783525050505060405161117b91906124d9565b600060405180830381855afa9150503d80600081146111b6576040519150601f19603f3d011682016040523d82523d6000602084013e6111bb565b606091505b509150915081156111e357808060200190518101906111da9190612acc565b925050506111e6565b50505b919050565b60008073ffffffffffffffffffffffffffffffffffffffff1661120c6119da565b73ffffffffffffffffffffffffffffffffffffffff16635c9566dc61123085611d53565b6040518263ffffffff1660e01b815260040161124c919061236f565b60206040518083038186803b15801561126457600080fd5b505afa158015611278573d6000803e3d6000fd5b505050506040513d601f19601f8201168201806040525081019061129c91906126ac565b73ffffffffffffffffffffffffffffffffffffffff1614159050919050565b60008060006112c86116af565b73ffffffffffffffffffffffffffffffffffffffff16846040516024016112ef9190612482565b6040516020818303038152906040527f21f8a721000000000000000000000000000000000000000000000000000000007bffffffffffffffffffffffffffffffffffffffffffffffffffffffff19166020820180517bffffffffffffffffffffffffffffffffffffffffffffffffffffffff838183161783525050505060405161137991906124d9565b600060405180830381855afa9150503d80600081146113b4576040519150601f19603f3d011682016040523d82523d6000602084013e6113b9565b606091505b509150915081156113e157808060200190518101906113d89190612b53565b925050506113e4565b50505b919050565b60606000806113f66116af565b73ffffffffffffffffffffffffffffffffffffffff168460405160240161141d9190612482565b6040516020818303038152906040527f986e791a000000000000000000000000000000000000000000000000000000007bffffffffffffffffffffffffffffffffffffffffffffffffffffffff19166020820180517bffffffffffffffffffffffffffffffffffffffffffffffffffffffff83818316178352505050506040516114a791906124d9565b600060405180830381855afa9150503d80600081146114e2576040519150601f19603f3d011682016040523d82523d6000602084013e6114e7565b606091505b5091509150811561150f578080602001905181019061150691906125e2565b92505050611512565b50505b919050565b60006115216119da565b9050600033905060008273ffffffffffffffffffffffffffffffffffffffff1663e318de73837f8a440962fb17f0fe928a3d930137743fe63b8f4c0ce5a5da63991310103d9aef6040518363ffffffff1660e01b8152600401611585929190612549565b60006040518083038186803b15801561159d57600080fd5b505afa1580156115b1573d6000803e3d6000fd5b505050506040513d6000823e3d601f19601f820116820180604052508101906115da91906125e2565b511161161b576040517f08c379a000000000000000000000000000000000000000000000000000000000815260040161161290612bcc565b60405180910390fd5b8173ffffffffffffffffffffffffffffffffffffffff1663f4f20e71827fbebc082d6e6b7cce489569e3716ad317012c8bdf6da0a0b13432ebec124c0b9a866040518463ffffffff1660e01b815260040161167893929190612954565b600060405180830381600087803b15801561169257600080fd5b505af11580156116a6573d6000803e3d6000fd5b50505050505050565b60008060007f000000000000000000000000000000000000000000000000000000000000000073ffffffffffffffffffffffffffffffffffffffff166040516024016040516020818303038152906040527f98fabd3a000000000000000000000000000000000000000000000000000000007bffffffffffffffffffffffffffffffffffffffffffffffffffffffff19166020820180517bffffffffffffffffffffffffffffffffffffffffffffffffffffffff838183161783525050505060405161177b91906124d9565b600060405180830381855afa9150503d80600081146117b6576040519150601f19603f3d011682016040523d82523d6000602084013e6117bb565b606091505b509150915081156117e357808060200190518101906117da9190612b53565b925050506117e6565b50505b90565b60008060006117f66116af565b73ffffffffffffffffffffffffffffffffffffffff168460405160240161181d9190612482565b6040516020818303038152906040527f33598b00000000000000000000000000000000000000000000000000000000007bffffffffffffffffffffffffffffffffffffffffffffffffffffffff19166020820180517bffffffffffffffffffffffffffffffffffffffffffffffffffffffff83818316178352505050506040516118a791906124d9565b600060405180830381855afa9150503d80600081146118e2576040519150601f19603f3d011682016040523d82523d6000602084013e6118e7565b606091505b5091509150811561190f57808060200190518101906119069190612c18565b92505050611912565b50505b919050565b6000806119226119da565b73ffffffffffffffffffffffffffffffffffffffff1663e318de73847f8a440962fb17f0fe928a3d930137743fe63b8f4c0ce5a5da63991310103d9aef6040518363ffffffff1660e01b815260040161197c929190612549565b60006040518083038186803b15801561199457600080fd5b505afa1580156119a8573d6000803e3d6000fd5b505050506040513d6000823e3d601f19601f820116820180604052508101906119d191906125e2565b51119050919050565b6000611a057f96196b0fec96f71e1015402193437f97bb413b3f5d846b4a0a9e60a3b01ef52e6112bb565b905090565b60606000611a166119da565b73ffffffffffffffffffffffffffffffffffffffff1663e318de73847f8a440962fb17f0fe928a3d930137743fe63b8f4c0ce5a5da63991310103d9aef6040518363ffffffff1660e01b8152600401611a70929190612549565b60006040518083038186803b158015611a8857600080fd5b505afa158015611a9c573d6000803e3d6000fd5b505050506040513d6000823e3d601f19601f82011682018060405250810190611ac591906125e2565b90506000815111611b0b576040517f08c379a0000000000000000000000000000000000000000000000000000000008152600401611b0290612677565b60405180910390fd5b80915050919050565b6000806000611b216116af565b73ffffffffffffffffffffffffffffffffffffffff1684604051602401611b489190612482565b6040516020818303038152906040527f33598b00000000000000000000000000000000000000000000000000000000007bffffffffffffffffffffffffffffffffffffffffffffffffffffffff19166020820180517bffffffffffffffffffffffffffffffffffffffffffffffffffffffff8381831617835250505050604051611bd291906124d9565b600060405180830381855afa9150503d8060008114611c0d576040519150601f19603f3d011682016040523d82523d6000602084013e611c12565b606091505b50915091508115611c3a5780806020019051810190611c319190612c71565b92505050611c3d565b50505b919050565b6000611c4c6119da565b73ffffffffffffffffffffffffffffffffffffffff16635c9566dc611c7084611d53565b6040518263ffffffff1660e01b8152600401611c8c919061236f565b60206040518083038186803b158015611ca457600080fd5b505afa158015611cb8573d6000803e3d6000fd5b505050506040513d601f19601f82011682018060405250810190611cdc91906126ac565b9050600073ffffffffffffffffffffffffffffffffffffffff168173ffffffffffffffffffffffffffffffffffffffff161415611d4e576040517f08c379a0000000000000000000000000000000000000000000000000000000008152600401611d4590612725565b60405180910390fd5b919050565b6060600082905060005b8151811015611de157611d8c828281518110611d7c57611d7b61281d565b5b602001015160f81c60f81b611deb565b828281518110611d9f57611d9e61281d565b5b60200101907effffffffffffffffffffffffffffffffffffffffffffffffffffffffffffff1916908160001a9053508080611dd990612ccd565b915050611d5d565b5080915050919050565b6000604160f81b827effffffffffffffffffffffffffffffffffffffffffffffffffffffffffffff191610158015611e495750605a60f81b827effffffffffffffffffffffffffffffffffffffffffffffffffffffffffffff191611155b15611e685760208260f81c611e5e9190612d23565b60f81b9050611e6c565b8190505b919050565b6000604051905090565b600080fd5b600080fd5b6000819050919050565b611e9881611e85565b8114611ea357600080fd5b50565b600081359050611eb581611e8f565b92915050565b600060208284031215611ed157611ed0611e7b565b5b6000611edf84828501611ea6565b91505092915050565b60008115159050919050565b611efd81611ee8565b82525050565b6000602082019050611f186000830184611ef4565b92915050565b600073ffffffffffffffffffffffffffffffffffffffff82169050919050565b6000611f4982611f1e565b9050919050565b611f5981611f3e565b8114611f6457600080fd5b50565b600081359050611f7681611f50565b92915050565b600060208284031215611f9257611f91611e7b565b5b6000611fa084828501611f67565b91505092915050565b600081519050919050565b600082825260208201905092915050565b60005b83811015611fe3578082015181840152602081019050611fc8565b83811115611ff2576000848401525b50505050565b6000601f19601f8301169050919050565b600061201482611fa9565b61201e8185611fb4565b935061202e818560208601611fc5565b61203781611ff8565b840191505092915050565b6000604082019050818103600083015261205c8185612009565b905081810360208301526120708184612009565b90509392505050565b600080fd5b600080fd5b7f4e487b7100000000000000000000000000000000000000000000000000000000600052604160045260246000fd5b6120bb82611ff8565b810181811067ffffffffffffffff821117156120da576120d9612083565b5b80604052505050565b60006120ed611e71565b90506120f982826120b2565b919050565b600067ffffffffffffffff82111561211957612118612083565b5b61212282611ff8565b9050602081019050919050565b82818337600083830152505050565b600061215161214c846120fe565b6120e3565b90508281526020810184848401111561216d5761216c61207e565b5b61217884828561212f565b509392505050565b600082601f83011261219557612194612079565b5b81356121a584826020860161213e565b91505092915050565b6000602082840312156121c4576121c3611e7b565b5b600082013567ffffffffffffffff8111156121e2576121e1611e80565b5b6121ee84828501612180565b91505092915050565b61220081611f3e565b82525050565b600060408201905061221b60008301856121f7565b818103602083015261222d8184612009565b90509392505050565b60008060006060848603121561224f5761224e611e7b565b5b600084013567ffffffffffffffff81111561226d5761226c611e80565b5b61227986828701612180565b935050602084013567ffffffffffffffff81111561229a57612299611e80565b5b6122a686828701612180565b925050604084013567ffffffffffffffff8111156122c7576122c6611e80565b5b6122d386828701612180565b9150509250925092565b600081519050919050565b600082825260208201905092915050565b6000612304826122dd565b61230e81856122e8565b935061231e818560208601611fc5565b61232781611ff8565b840191505092915050565b6000602082019050818103600083015261234c81846122f9565b905092915050565b600060208201905061236960008301846121f7565b92915050565b600060208201905081810360008301526123898184612009565b905092915050565b6000819050919050565b6123a481612391565b82525050565b60006020820190506123bf600083018461239b565b92915050565b6000819050919050565b60006123ea6123e56123e084611f1e565b6123c5565b611f1e565b9050919050565b60006123fc826123cf565b9050919050565b600061240e826123f1565b9050919050565b61241e81612403565b82525050565b60006020820190506124396000830184612415565b92915050565b6000819050919050565b6124528161243f565b82525050565b600060208201905061246d6000830184612449565b92915050565b61247c81611e85565b82525050565b60006020820190506124976000830184612473565b92915050565b600081905092915050565b60006124b3826122dd565b6124bd818561249d565b93506124cd818560208601611fc5565b80840191505092915050565b60006124e582846124a8565b915081905092915050565b6124f981611ee8565b811461250457600080fd5b50565b600081519050612516816124f0565b92915050565b60006020828403121561253257612531611e7b565b5b600061254084828501612507565b91505092915050565b600060408201905061255e60008301856121f7565b61256b6020830184612473565b9392505050565b6000612585612580846120fe565b6120e3565b9050828152602081018484840111156125a1576125a061207e565b5b6125ac848285611fc5565b509392505050565b600082601f8301126125c9576125c8612079565b5b81516125d9848260208601612572565b91505092915050565b6000602082840312156125f8576125f7611e7b565b5b600082015167ffffffffffffffff81111561261657612615611e80565b5b612622848285016125b4565b91505092915050565b7f6e6f207573657220627920746869732061646472657373000000000000000000600082015250565b6000612661601783611fb4565b915061266c8261262b565b602082019050919050565b6000602082019050818103600083015261269081612654565b9050919050565b6000815190506126a681611f50565b92915050565b6000602082840312156126c2576126c1611e7b565b5b60006126d084828501612697565b91505092915050565b7f6e6f2075736572206279207468697320757365726e616d650000000000000000600082015250565b600061270f601883611fb4565b915061271a826126d9565b602082019050919050565b6000602082019050818103600083015261273e81612702565b9050919050565b7f656d70747920757365726e616d6520696e707574000000000000000000000000600082015250565b600061277b601483611fb4565b915061278682612745565b602082019050919050565b600060208201905081810360008301526127aa8161276e565b9050919050565b7f757365726e616d652074616b656e000000000000000000000000000000000000600082015250565b60006127e7600e83611fb4565b91506127f2826127b1565b602082019050919050565b60006020820190508181036000830152612816816127da565b9050919050565b7f4e487b7100000000000000000000000000000000000000000000000000000000600052603260045260246000fd5b7f696e73756666696369656e742066656500000000000000000000000000000000600082015250565b6000612882601083611fb4565b915061288d8261284c565b602082019050919050565b600060208201905081810360008301526128b181612875565b9050919050565b7f72656769737465726564206265666f72652e0000000000000000000000000000600082015250565b60006128ee601283611fb4565b91506128f9826128b8565b602082019050919050565b6000602082019050818103600083015261291d816128e1565b9050919050565b6000604082019050818103600083015261293e8185612009565b905061294d60208301846121f7565b9392505050565b600060608201905061296960008301866121f7565b6129766020830185612473565b81810360408301526129888184612009565b9050949350505050565b60006060820190506129a760008301866121f7565b6129b460208301856121f7565b6129c16040830184611ef4565b949350505050565b7f526567697374657244414f446174610000000000000000000000000000000000815250565b6000606082019050612a0460008301856121f7565b612a10602083016129c9565b8181036040830152612a2281846122f9565b90509392505050565b600067ffffffffffffffff821115612a4657612a45612083565b5b612a4f82611ff8565b9050602081019050919050565b6000612a6f612a6a84612a2b565b6120e3565b905082815260208101848484011115612a8b57612a8a61207e565b5b612a96848285611fc5565b509392505050565b600082601f830112612ab357612ab2612079565b5b8151612ac3848260208601612a5c565b91505092915050565b600060208284031215612ae257612ae1611e7b565b5b600082015167ffffffffffffffff811115612b0057612aff611e80565b5b612b0c84828501612a9e565b91505092915050565b6000612b2082611f1e565b9050919050565b612b3081612b15565b8114612b3b57600080fd5b50565b600081519050612b4d81612b27565b92915050565b600060208284031215612b6957612b68611e7b565b5b6000612b7784828501612b3e565b91505092915050565b7f796f75206861766520746f207369676e20696e20666972737400000000000000600082015250565b6000612bb6601983611fb4565b9150612bc182612b80565b602082019050919050565b60006020820190508181036000830152612be581612ba9565b9050919050565b612bf581612391565b8114612c0057600080fd5b50565b600081519050612c1281612bec565b92915050565b600060208284031215612c2e57612c2d611e7b565b5b6000612c3c84828501612c03565b91505092915050565b612c4e8161243f565b8114612c5957600080fd5b50565b600081519050612c6b81612c45565b92915050565b600060208284031215612c8757612c86611e7b565b5b6000612c9584828501612c5c565b91505092915050565b7f4e487b7100000000000000000000000000000000000000000000000000000000600052601160045260246000fd5b6000612cd88261243f565b91507fffffffffffffffffffffffffffffffffffffffffffffffffffffffffffffffff821415612d0b57612d0a612c9e565b5b600182019050919050565b600060ff82169050919050565b6000612d2e82612d16565b9150612d3983612d16565b92508260ff03821115612d4f57612d4e612c9e565b5b82820190509291505056fea264697066735822122097ebcbd9fadb4a72267f0fa8c74c21cdfa5ff3fd79583c35c5e3927871d48c5364736f6c63430008090033",
  "linkReferences": {},
  "deployedLinkReferences": {}
}