{
  "_format": "hh-sol-artifact-1",
  "contractName": "MyToken",
  "sourceName": "contracts/ERC20/LOTT.sol",
  "abi": [
    {
      "inputs": [],
      "stateMutability": "nonpayable",
      "type": "constructor"
    },
    {
      "anonymous": false,
      "inputs": [
        {
          "indexed": true,
          "internalType": "address",
          "name": "owner",
          "type": "address"
        },
        {
          "indexed": true,
          "internalType": "address",
          "name": "spender",
          "type": "address"
        },
        {
          "indexed": false,
          "internalType": "uint256",
          "name": "value",
          "type": "uint256"
        }
      ],
      "name": "Approval",
      "type": "event"
    },
    {
      "anonymous": false,
      "inputs": [
        {
          "indexed": true,
          "internalType": "address",
          "name": "delegator",
          "type": "address"
        },
        {
          "indexed": true,
          "internalType": "address",
          "name": "fromDelegate",
          "type": "address"
        },
        {
          "indexed": true,
          "internalType": "address",
          "name": "toDelegate",
          "type": "address"
        }
      ],
      "name": "DelegateChanged",
      "type": "event"
    },
    {
      "anonymous": false,
      "inputs": [
        {
          "indexed": true,
          "internalType": "address",
          "name": "delegate",
          "type": "address"
        },
        {
          "indexed": false,
          "internalType": "uint256",
          "name": "previousBalance",
          "type": "uint256"
        },
        {
          "indexed": false,
          "internalType": "uint256",
          "name": "newBalance",
          "type": "uint256"
        }
      ],
      "name": "DelegateVotesChanged",
      "type": "event"
    },
    {
      "anonymous": false,
      "inputs": [
        {
          "indexed": true,
          "internalType": "address",
          "name": "previousOwner",
          "type": "address"
        },
        {
          "indexed": true,
          "internalType": "address",
          "name": "newOwner",
          "type": "address"
        }
      ],
      "name": "OwnershipTransferred",
      "type": "event"
    },
    {
      "anonymous": false,
      "inputs": [
        {
          "indexed": false,
          "internalType": "address",
          "name": "account",
          "type": "address"
        }
      ],
      "name": "Paused",
      "type": "event"
    },
    {
      "anonymous": false,
      "inputs": [
        {
          "indexed": true,
          "internalType": "address",
          "name": "from",
          "type": "address"
        },
        {
          "indexed": true,
          "internalType": "address",
          "name": "to",
          "type": "address"
        },
        {
          "indexed": false,
          "internalType": "uint256",
          "name": "value",
          "type": "uint256"
        }
      ],
      "name": "Transfer",
      "type": "event"
    },
    {
      "anonymous": false,
      "inputs": [
        {
          "indexed": false,
          "internalType": "address",
          "name": "account",
          "type": "address"
        }
      ],
      "name": "Unpaused",
      "type": "event"
    },
    {
      "inputs": [],
      "name": "DOMAIN_SEPARATOR",
      "outputs": [
        {
          "internalType": "bytes32",
          "name": "",
          "type": "bytes32"
        }
      ],
      "stateMutability": "view",
      "type": "function"
    },
    {
      "inputs": [
        {
          "internalType": "address",
          "name": "owner",
          "type": "address"
        },
        {
          "internalType": "address",
          "name": "spender",
          "type": "address"
        }
      ],
      "name": "allowance",
      "outputs": [
        {
          "internalType": "uint256",
          "name": "",
          "type": "uint256"
        }
      ],
      "stateMutability": "view",
      "type": "function"
    },
    {
      "inputs": [
        {
          "internalType": "address",
          "name": "spender",
          "type": "address"
        },
        {
          "internalType": "uint256",
          "name": "amount",
          "type": "uint256"
        }
      ],
      "name": "approve",
      "outputs": [
        {
          "internalType": "bool",
          "name": "",
          "type": "bool"
        }
      ],
      "stateMutability": "nonpayable",
      "type": "function"
    },
    {
      "inputs": [
        {
          "internalType": "address",
          "name": "account",
          "type": "address"
        }
      ],
      "name": "balanceOf",
      "outputs": [
        {
          "internalType": "uint256",
          "name": "",
          "type": "uint256"
        }
      ],
      "stateMutability": "view",
      "type": "function"
    },
    {
      "inputs": [
        {
          "internalType": "uint256",
          "name": "amount",
          "type": "uint256"
        }
      ],
      "name": "burn",
      "outputs": [],
      "stateMutability": "nonpayable",
      "type": "function"
    },
    {
      "inputs": [
        {
          "internalType": "address",
          "name": "account",
          "type": "address"
        },
        {
          "internalType": "uint256",
          "name": "amount",
          "type": "uint256"
        }
      ],
      "name": "burnFrom",
      "outputs": [],
      "stateMutability": "nonpayable",
      "type": "function"
    },
    {
      "inputs": [
        {
          "internalType": "address",
          "name": "account",
          "type": "address"
        },
        {
          "internalType": "uint32",
          "name": "pos",
          "type": "uint32"
        }
      ],
      "name": "checkpoints",
      "outputs": [
        {
          "components": [
            {
              "internalType": "uint32",
              "name": "fromBlock",
              "type": "uint32"
            },
            {
              "internalType": "uint224",
              "name": "votes",
              "type": "uint224"
            }
          ],
          "internalType": "struct ERC20Votes.Checkpoint",
          "name": "",
          "type": "tuple"
        }
      ],
      "stateMutability": "view",
      "type": "function"
    },
    {
      "inputs": [],
      "name": "decimals",
      "outputs": [
        {
          "internalType": "uint8",
          "name": "",
          "type": "uint8"
        }
      ],
      "stateMutability": "view",
      "type": "function"
    },
    {
      "inputs": [
        {
          "internalType": "address",
          "name": "spender",
          "type": "address"
        },
        {
          "internalType": "uint256",
          "name": "subtractedValue",
          "type": "uint256"
        }
      ],
      "name": "decreaseAllowance",
      "outputs": [
        {
          "internalType": "bool",
          "name": "",
          "type": "bool"
        }
      ],
      "stateMutability": "nonpayable",
      "type": "function"
    },
    {
      "inputs": [
        {
          "internalType": "address",
          "name": "delegatee",
          "type": "address"
        }
      ],
      "name": "delegate",
      "outputs": [],
      "stateMutability": "nonpayable",
      "type": "function"
    },
    {
      "inputs": [
        {
          "internalType": "address",
          "name": "delegatee",
          "type": "address"
        },
        {
          "internalType": "uint256",
          "name": "nonce",
          "type": "uint256"
        },
        {
          "internalType": "uint256",
          "name": "expiry",
          "type": "uint256"
        },
        {
          "internalType": "uint8",
          "name": "v",
          "type": "uint8"
        },
        {
          "internalType": "bytes32",
          "name": "r",
          "type": "bytes32"
        },
        {
          "internalType": "bytes32",
          "name": "s",
          "type": "bytes32"
        }
      ],
      "name": "delegateBySig",
      "outputs": [],
      "stateMutability": "nonpayable",
      "type": "function"
    },
    {
      "inputs": [
        {
          "internalType": "address",
          "name": "account",
          "type": "address"
        }
      ],
      "name": "delegates",
      "outputs": [
        {
          "internalType": "address",
          "name": "",
          "type": "address"
        }
      ],
      "stateMutability": "view",
      "type": "function"
    },
    {
      "inputs": [
        {
          "internalType": "uint256",
          "name": "blockNumber",
          "type": "uint256"
        }
      ],
      "name": "getPastTotalSupply",
      "outputs": [
        {
          "internalType": "uint256",
          "name": "",
          "type": "uint256"
        }
      ],
      "stateMutability": "view",
      "type": "function"
    },
    {
      "inputs": [
        {
          "internalType": "address",
          "name": "account",
          "type": "address"
        },
        {
          "internalType": "uint256",
          "name": "blockNumber",
          "type": "uint256"
        }
      ],
      "name": "getPastVotes",
      "outputs": [
        {
          "internalType": "uint256",
          "name": "",
          "type": "uint256"
        }
      ],
      "stateMutability": "view",
      "type": "function"
    },
    {
      "inputs": [
        {
          "internalType": "address",
          "name": "account",
          "type": "address"
        }
      ],
      "name": "getVotes",
      "outputs": [
        {
          "internalType": "uint256",
          "name": "",
          "type": "uint256"
        }
      ],
      "stateMutability": "view",
      "type": "function"
    },
    {
      "inputs": [
        {
          "internalType": "address",
          "name": "spender",
          "type": "address"
        },
        {
          "internalType": "uint256",
          "name": "addedValue",
          "type": "uint256"
        }
      ],
      "name": "increaseAllowance",
      "outputs": [
        {
          "internalType": "bool",
          "name": "",
          "type": "bool"
        }
      ],
      "stateMutability": "nonpayable",
      "type": "function"
    },
    {
      "inputs": [
        {
          "internalType": "address",
          "name": "to",
          "type": "address"
        },
        {
          "internalType": "uint256",
          "name": "amount",
          "type": "uint256"
        }
      ],
      "name": "mint",
      "outputs": [],
      "stateMutability": "nonpayable",
      "type": "function"
    },
    {
      "inputs": [],
      "name": "name",
      "outputs": [
        {
          "internalType": "string",
          "name": "",
          "type": "string"
        }
      ],
      "stateMutability": "view",
      "type": "function"
    },
    {
      "inputs": [
        {
          "internalType": "address",
          "name": "owner",
          "type": "address"
        }
      ],
      "name": "nonces",
      "outputs": [
        {
          "internalType": "uint256",
          "name": "",
          "type": "uint256"
        }
      ],
      "stateMutability": "view",
      "type": "function"
    },
    {
      "inputs": [
        {
          "internalType": "address",
          "name": "account",
          "type": "address"
        }
      ],
      "name": "numCheckpoints",
      "outputs": [
        {
          "internalType": "uint32",
          "name": "",
          "type": "uint32"
        }
      ],
      "stateMutability": "view",
      "type": "function"
    },
    {
      "inputs": [],
      "name": "owner",
      "outputs": [
        {
          "internalType": "address",
          "name": "",
          "type": "address"
        }
      ],
      "stateMutability": "view",
      "type": "function"
    },
    {
      "inputs": [],
      "name": "pause",
      "outputs": [],
      "stateMutability": "nonpayable",
      "type": "function"
    },
    {
      "inputs": [],
      "name": "paused",
      "outputs": [
        {
          "internalType": "bool",
          "name": "",
          "type": "bool"
        }
      ],
      "stateMutability": "view",
      "type": "function"
    },
    {
      "inputs": [
        {
          "internalType": "address",
          "name": "owner",
          "type": "address"
        },
        {
          "internalType": "address",
          "name": "spender",
          "type": "address"
        },
        {
          "internalType": "uint256",
          "name": "value",
          "type": "uint256"
        },
        {
          "internalType": "uint256",
          "name": "deadline",
          "type": "uint256"
        },
        {
          "internalType": "uint8",
          "name": "v",
          "type": "uint8"
        },
        {
          "internalType": "bytes32",
          "name": "r",
          "type": "bytes32"
        },
        {
          "internalType": "bytes32",
          "name": "s",
          "type": "bytes32"
        }
      ],
      "name": "permit",
      "outputs": [],
      "stateMutability": "nonpayable",
      "type": "function"
    },
    {
      "inputs": [],
      "name": "renounceOwnership",
      "outputs": [],
      "stateMutability": "nonpayable",
      "type": "function"
    },
    {
      "inputs": [],
      "name": "symbol",
      "outputs": [
        {
          "internalType": "string",
          "name": "",
          "type": "string"
        }
      ],
      "stateMutability": "view",
      "type": "function"
    },
    {
      "inputs": [],
      "name": "totalSupply",
      "outputs": [
        {
          "internalType": "uint256",
          "name": "",
          "type": "uint256"
        }
      ],
      "stateMutability": "view",
      "type": "function"
    },
    {
      "inputs": [
        {
          "internalType": "address",
          "name": "recipient",
          "type": "address"
        },
        {
          "internalType": "uint256",
          "name": "amount",
          "type": "uint256"
        }
      ],
      "name": "transfer",
      "outputs": [
        {
          "internalType": "bool",
          "name": "",
          "type": "bool"
        }
      ],
      "stateMutability": "nonpayable",
      "type": "function"
    },
    {
      "inputs": [
        {
          "internalType": "address",
          "name": "sender",
          "type": "address"
        },
        {
          "internalType": "address",
          "name": "recipient",
          "type": "address"
        },
        {
          "internalType": "uint256",
          "name": "amount",
          "type": "uint256"
        }
      ],
      "name": "transferFrom",
      "outputs": [
        {
          "internalType": "bool",
          "name": "",
          "type": "bool"
        }
      ],
      "stateMutability": "nonpayable",
      "type": "function"
    },
    {
      "inputs": [
        {
          "internalType": "address",
          "name": "newOwner",
          "type": "address"
        }
      ],
      "name": "transferOwnership",
      "outputs": [],
      "stateMutability": "nonpayable",
      "type": "function"
    },
    {
      "inputs": [],
      "name": "unpause",
      "outputs": [],
      "stateMutability": "nonpayable",
      "type": "function"
    }
  ],
  "bytecode": "0x6101406040527f6e71edae12b1b97f4d1f60370fef10105fa2faae0126114a169c64845d6126c9610120908152503480156200003a57600080fd5b506040518060400160405280600781526020017f4d79546f6b656e00000000000000000000000000000000000000000000000000815250806040518060400160405280600181526020017f31000000000000000000000000000000000000000000000000000000000000008152506040518060400160405280600781526020017f4d79546f6b656e000000000000000000000000000000000000000000000000008152506040518060400160405280600381526020017f4d544b000000000000000000000000000000000000000000000000000000000081525081600390805190602001906200012c92919062000311565b5080600490805190602001906200014592919062000311565b5050506000600560006101000a81548160ff02191690831515021790555062000183620001776200020760201b60201c565b6200020f60201b60201c565b60008280519060200120905060008280519060200120905060007f8b73c3c69bb8fe3d512ecc4cf759cc79239f7b179b0ffacaa9a75d522b39400f90508260c081815250508160e081815250504660a08181525050620001eb818484620002d560201b60201c565b60808181525050806101008181525050505050505050620004fe565b600033905090565b6000600560019054906101000a900473ffffffffffffffffffffffffffffffffffffffff16905081600560016101000a81548173ffffffffffffffffffffffffffffffffffffffff021916908373ffffffffffffffffffffffffffffffffffffffff1602179055508173ffffffffffffffffffffffffffffffffffffffff168173ffffffffffffffffffffffffffffffffffffffff167f8be0079c531659141344cd1fd0a4f28419497f9722a3daafe3b4186f6b6457e060405160405180910390a35050565b60008383834630604051602001620002f29594939291906200043c565b6040516020818303038152906040528051906020012090509392505050565b8280546200031f90620004c8565b90600052602060002090601f0160209004810192826200034357600085556200038f565b82601f106200035e57805160ff19168380011785556200038f565b828001600101855582156200038f579182015b828111156200038e57825182559160200191906001019062000371565b5b5090506200039e9190620003a2565b5090565b5b80821115620003bd576000816000905550600101620003a3565b5090565b6000819050919050565b620003d681620003c1565b82525050565b6000819050919050565b620003f181620003dc565b82525050565b600073ffffffffffffffffffffffffffffffffffffffff82169050919050565b60006200042482620003f7565b9050919050565b620004368162000417565b82525050565b600060a082019050620004536000830188620003cb565b620004626020830187620003cb565b620004716040830186620003cb565b620004806060830185620003e6565b6200048f60808301846200042b565b9695505050505050565b7f4e487b7100000000000000000000000000000000000000000000000000000000600052602260045260246000fd5b60006002820490506001821680620004e157607f821691505b60208210811415620004f857620004f762000499565b5b50919050565b60805160a05160c05160e051610100516101205161457b6200054e600039600061117f015260006119b4015260006119f6015260006119d50152600061196101526000611989015261457b6000f3fe608060405234801561001057600080fd5b50600436106101e55760003560e01c806370a082311161010f5780639ab24eb0116100a2578063d505accf11610071578063d505accf146105a6578063dd62ed3e146105c2578063f1127ed8146105f2578063f2fde38b14610622576101e5565b80639ab24eb0146104fa578063a457c2d71461052a578063a9059cbb1461055a578063c3cda5201461058a576101e5565b80638456cb59116100de5780638456cb59146104845780638da5cb5b1461048e5780638e539e8c146104ac57806395d89b41146104dc576101e5565b806370a08231146103fe578063715018a61461042e57806379cc6790146104385780637ecebe0014610454576101e5565b80633a46b1a811610187578063587cde1e11610156578063587cde1e146103645780635c19a95c146103945780635c975abb146103b05780636fcfff45146103ce576101e5565b80633a46b1a8146102f25780633f4ba83a1461032257806340c10f191461032c57806342966c6814610348576101e5565b806323b872dd116101c357806323b872dd14610256578063313ce567146102865780633644e515146102a457806339509351146102c2576101e5565b806306fdde03146101ea578063095ea7b31461020857806318160ddd14610238575b600080fd5b6101f261063e565b6040516101ff9190612df9565b60405180910390f35b610222600480360381019061021d9190612eb4565b6106d0565b60405161022f9190612f0f565b60405180910390f35b6102406106ee565b60405161024d9190612f39565b60405180910390f35b610270600480360381019061026b9190612f54565b6106f8565b60405161027d9190612f0f565b60405180910390f35b61028e6107f0565b60405161029b9190612fc3565b60405180910390f35b6102ac6107f9565b6040516102b99190612ff7565b60405180910390f35b6102dc60048036038101906102d79190612eb4565b610808565b6040516102e99190612f0f565b60405180910390f35b61030c60048036038101906103079190612eb4565b6108b4565b6040516103199190612f39565b60405180910390f35b61032a610948565b005b61034660048036038101906103419190612eb4565b6109ce565b005b610362600480360381019061035d9190613012565b610a58565b005b61037e6004803603810190610379919061303f565b610a6c565b60405161038b919061307b565b60405180910390f35b6103ae60048036038101906103a9919061303f565b610ad5565b005b6103b8610ae9565b6040516103c59190612f0f565b60405180910390f35b6103e860048036038101906103e3919061303f565b610b00565b6040516103f591906130b5565b60405180910390f35b6104186004803603810190610413919061303f565b610b54565b6040516104259190612f39565b60405180910390f35b610436610b9c565b005b610452600480360381019061044d9190612eb4565b610c24565b005b61046e6004803603810190610469919061303f565b610c32565b60405161047b9190612f39565b60405180910390f35b61048c610c82565b005b610496610d08565b6040516104a3919061307b565b60405180910390f35b6104c660048036038101906104c19190613012565b610d32565b6040516104d39190612f39565b60405180910390f35b6104e4610d88565b6040516104f19190612df9565b60405180910390f35b610514600480360381019061050f919061303f565b610e1a565b6040516105219190612f39565b60405180910390f35b610544600480360381019061053f9190612eb4565b610f2b565b6040516105519190612f0f565b60405180910390f35b610574600480360381019061056f9190612eb4565b611016565b6040516105819190612f0f565b60405180910390f35b6105a4600480360381019061059f9190613128565b611034565b005b6105c060048036038101906105bb91906131b5565b611138565b005b6105dc60048036038101906105d79190613257565b61127a565b6040516105e99190612f39565b60405180910390f35b61060c600480360381019061060791906132c3565b611301565b6040516106199190613378565b60405180910390f35b61063c6004803603810190610637919061303f565b611411565b005b60606003805461064d906133c2565b80601f0160208091040260200160405190810160405280929190818152602001828054610679906133c2565b80156106c65780601f1061069b576101008083540402835291602001916106c6565b820191906000526020600020905b8154815290600101906020018083116106a957829003601f168201915b5050505050905090565b60006106e46106dd611509565b8484611511565b6001905092915050565b6000600254905090565b60006107058484846116dc565b6000600160008673ffffffffffffffffffffffffffffffffffffffff1673ffffffffffffffffffffffffffffffffffffffff1681526020019081526020016000206000610750611509565b73ffffffffffffffffffffffffffffffffffffffff1673ffffffffffffffffffffffffffffffffffffffff168152602001908152602001600020549050828110156107d0576040517f08c379a00000000000000000000000000000000000000000000000000000000081526004016107c790613466565b60405180910390fd5b6107e4856107dc611509565b858403611511565b60019150509392505050565b60006012905090565b600061080361195d565b905090565b60006108aa610815611509565b848460016000610823611509565b73ffffffffffffffffffffffffffffffffffffffff1673ffffffffffffffffffffffffffffffffffffffff16815260200190815260200160002060008873ffffffffffffffffffffffffffffffffffffffff1673ffffffffffffffffffffffffffffffffffffffff168152602001908152602001600020546108a591906134b5565b611511565b6001905092915050565b60004382106108f8576040517f08c379a00000000000000000000000000000000000000000000000000000000081526004016108ef90613557565b60405180910390fd5b610940600860008573ffffffffffffffffffffffffffffffffffffffff1673ffffffffffffffffffffffffffffffffffffffff16815260200190815260200160002083611a20565b905092915050565b610950611509565b73ffffffffffffffffffffffffffffffffffffffff1661096e610d08565b73ffffffffffffffffffffffffffffffffffffffff16146109c4576040517f08c379a00000000000000000000000000000000000000000000000000000000081526004016109bb906135c3565b60405180910390fd5b6109cc611b2c565b565b6109d6611509565b73ffffffffffffffffffffffffffffffffffffffff166109f4610d08565b73ffffffffffffffffffffffffffffffffffffffff1614610a4a576040517f08c379a0000000000000000000000000000000000000000000000000000000008152600401610a41906135c3565b60405180910390fd5b610a548282611bce565b5050565b610a69610a63611509565b82611bdc565b50565b6000600760008373ffffffffffffffffffffffffffffffffffffffff1673ffffffffffffffffffffffffffffffffffffffff16815260200190815260200160002060009054906101000a900473ffffffffffffffffffffffffffffffffffffffff169050919050565b610ae6610ae0611509565b82611bea565b50565b6000600560009054906101000a900460ff16905090565b6000610b4d600860008473ffffffffffffffffffffffffffffffffffffffff1673ffffffffffffffffffffffffffffffffffffffff16815260200190815260200160002080549050611d04565b9050919050565b60008060008373ffffffffffffffffffffffffffffffffffffffff1673ffffffffffffffffffffffffffffffffffffffff168152602001908152602001600020549050919050565b610ba4611509565b73ffffffffffffffffffffffffffffffffffffffff16610bc2610d08565b73ffffffffffffffffffffffffffffffffffffffff1614610c18576040517f08c379a0000000000000000000000000000000000000000000000000000000008152600401610c0f906135c3565b60405180910390fd5b610c226000611d57565b565b610c2e8282611e1d565b5050565b6000610c7b600660008473ffffffffffffffffffffffffffffffffffffffff1673ffffffffffffffffffffffffffffffffffffffff168152602001908152602001600020611e98565b9050919050565b610c8a611509565b73ffffffffffffffffffffffffffffffffffffffff16610ca8610d08565b73ffffffffffffffffffffffffffffffffffffffff1614610cfe576040517f08c379a0000000000000000000000000000000000000000000000000000000008152600401610cf5906135c3565b60405180910390fd5b610d06611ea6565b565b6000600560019054906101000a900473ffffffffffffffffffffffffffffffffffffffff16905090565b6000438210610d76576040517f08c379a0000000000000000000000000000000000000000000000000000000008152600401610d6d90613557565b60405180910390fd5b610d81600983611a20565b9050919050565b606060048054610d97906133c2565b80601f0160208091040260200160405190810160405280929190818152602001828054610dc3906133c2565b8015610e105780601f10610de557610100808354040283529160200191610e10565b820191906000526020600020905b815481529060010190602001808311610df357829003601f168201915b5050505050905090565b600080600860008473ffffffffffffffffffffffffffffffffffffffff1673ffffffffffffffffffffffffffffffffffffffff16815260200190815260200160002080549050905060008114610f0257600860008473ffffffffffffffffffffffffffffffffffffffff1673ffffffffffffffffffffffffffffffffffffffff168152602001908152602001600020600182610eb691906135e3565b81548110610ec757610ec6613617565b5b9060005260206000200160000160049054906101000a90047bffffffffffffffffffffffffffffffffffffffffffffffffffffffff16610f05565b60005b7bffffffffffffffffffffffffffffffffffffffffffffffffffffffff16915050919050565b60008060016000610f3a611509565b73ffffffffffffffffffffffffffffffffffffffff1673ffffffffffffffffffffffffffffffffffffffff16815260200190815260200160002060008573ffffffffffffffffffffffffffffffffffffffff1673ffffffffffffffffffffffffffffffffffffffff16815260200190815260200160002054905082811015610ff7576040517f08c379a0000000000000000000000000000000000000000000000000000000008152600401610fee906136b8565b60405180910390fd5b61100b611002611509565b85858403611511565b600191505092915050565b600061102a611023611509565b84846116dc565b6001905092915050565b83421115611077576040517f08c379a000000000000000000000000000000000000000000000000000000000815260040161106e90613724565b60405180910390fd5b60006110d96110d17fe48329057bfd03d55e49b547132e39cffd9c1820ad7b9d4c5307691425d15adf8989896040516020016110b69493929190613744565b60405160208183030381529060405280519060200120611f49565b858585611f63565b90506110e481611f8e565b8614611125576040517f08c379a000000000000000000000000000000000000000000000000000000000815260040161111c906137d5565b60405180910390fd5b61112f8188611bea565b50505050505050565b8342111561117b576040517f08c379a000000000000000000000000000000000000000000000000000000000815260040161117290613841565b60405180910390fd5b60007f00000000000000000000000000000000000000000000000000000000000000008888886111aa8c611f8e565b896040516020016111c096959493929190613861565b60405160208183030381529060405280519060200120905060006111e382611f49565b905060006111f382878787611f63565b90508973ffffffffffffffffffffffffffffffffffffffff168173ffffffffffffffffffffffffffffffffffffffff1614611263576040517f08c379a000000000000000000000000000000000000000000000000000000000815260040161125a9061390e565b60405180910390fd5b61126e8a8a8a611511565b50505050505050505050565b6000600160008473ffffffffffffffffffffffffffffffffffffffff1673ffffffffffffffffffffffffffffffffffffffff16815260200190815260200160002060008373ffffffffffffffffffffffffffffffffffffffff1673ffffffffffffffffffffffffffffffffffffffff16815260200190815260200160002054905092915050565b611309612d22565b600860008473ffffffffffffffffffffffffffffffffffffffff1673ffffffffffffffffffffffffffffffffffffffff1681526020019081526020016000208263ffffffff16815481106113605761135f613617565b5b906000526020600020016040518060400160405290816000820160009054906101000a900463ffffffff1663ffffffff1663ffffffff1681526020016000820160049054906101000a90047bffffffffffffffffffffffffffffffffffffffffffffffffffffffff167bffffffffffffffffffffffffffffffffffffffffffffffffffffffff167bffffffffffffffffffffffffffffffffffffffffffffffffffffffff1681525050905092915050565b611419611509565b73ffffffffffffffffffffffffffffffffffffffff16611437610d08565b73ffffffffffffffffffffffffffffffffffffffff161461148d576040517f08c379a0000000000000000000000000000000000000000000000000000000008152600401611484906135c3565b60405180910390fd5b600073ffffffffffffffffffffffffffffffffffffffff168173ffffffffffffffffffffffffffffffffffffffff1614156114fd576040517f08c379a00000000000000000000000000000000000000000000000000000000081526004016114f4906139a0565b60405180910390fd5b61150681611d57565b50565b600033905090565b600073ffffffffffffffffffffffffffffffffffffffff168373ffffffffffffffffffffffffffffffffffffffff161415611581576040517f08c379a000000000000000000000000000000000000000000000000000000000815260040161157890613a32565b60405180910390fd5b600073ffffffffffffffffffffffffffffffffffffffff168273ffffffffffffffffffffffffffffffffffffffff1614156115f1576040517f08c379a00000000000000000000000000000000000000000000000000000000081526004016115e890613ac4565b60405180910390fd5b80600160008573ffffffffffffffffffffffffffffffffffffffff1673ffffffffffffffffffffffffffffffffffffffff16815260200190815260200160002060008473ffffffffffffffffffffffffffffffffffffffff1673ffffffffffffffffffffffffffffffffffffffff168152602001908152602001600020819055508173ffffffffffffffffffffffffffffffffffffffff168373ffffffffffffffffffffffffffffffffffffffff167f8c5be1e5ebec7d5bd14f71427d1e84f3dd0314c0f7b2291e5b200ac8c7c3b925836040516116cf9190612f39565b60405180910390a3505050565b600073ffffffffffffffffffffffffffffffffffffffff168373ffffffffffffffffffffffffffffffffffffffff16141561174c576040517f08c379a000000000000000000000000000000000000000000000000000000000815260040161174390613b56565b60405180910390fd5b600073ffffffffffffffffffffffffffffffffffffffff168273ffffffffffffffffffffffffffffffffffffffff1614156117bc576040517f08c379a00000000000000000000000000000000000000000000000000000000081526004016117b390613be8565b60405180910390fd5b6117c7838383611fec565b60008060008573ffffffffffffffffffffffffffffffffffffffff1673ffffffffffffffffffffffffffffffffffffffff1681526020019081526020016000205490508181101561184d576040517f08c379a000000000000000000000000000000000000000000000000000000000815260040161184490613c7a565b60405180910390fd5b8181036000808673ffffffffffffffffffffffffffffffffffffffff1673ffffffffffffffffffffffffffffffffffffffff16815260200190815260200160002081905550816000808573ffffffffffffffffffffffffffffffffffffffff1673ffffffffffffffffffffffffffffffffffffffff16815260200190815260200160002060008282546118e091906134b5565b925050819055508273ffffffffffffffffffffffffffffffffffffffff168473ffffffffffffffffffffffffffffffffffffffff167fddf252ad1be2c89b69c2b068fc378daa952ba7f163c4a11628f55a4df523b3ef846040516119449190612f39565b60405180910390a3611957848484612044565b50505050565b60007f00000000000000000000000000000000000000000000000000000000000000004614156119af577f00000000000000000000000000000000000000000000000000000000000000009050611a1d565b611a1a7f00000000000000000000000000000000000000000000000000000000000000007f00000000000000000000000000000000000000000000000000000000000000007f0000000000000000000000000000000000000000000000000000000000000000612054565b90505b90565b6000808380549050905060005b81811015611a9f576000611a41828461208e565b905084868281548110611a5757611a56613617565b5b9060005260206000200160000160009054906101000a900463ffffffff1663ffffffff161115611a8957809250611a99565b600181611a9691906134b5565b91505b50611a2d565b60008214611b015784600183611ab591906135e3565b81548110611ac657611ac5613617565b5b9060005260206000200160000160049054906101000a90047bffffffffffffffffffffffffffffffffffffffffffffffffffffffff16611b04565b60005b7bffffffffffffffffffffffffffffffffffffffffffffffffffffffff169250505092915050565b611b34610ae9565b611b73576040517f08c379a0000000000000000000000000000000000000000000000000000000008152600401611b6a90613ce6565b60405180910390fd5b6000600560006101000a81548160ff0219169083151502179055507f5db9ee0a495bf2e6ff9c91a7834c1ba4fdd244a5e8aa4e537bd38aeae4b073aa611bb7611509565b604051611bc4919061307b565b60405180910390a1565b611bd882826120b4565b5050565b611be68282612141565b5050565b6000611bf583610a6c565b90506000611c0284610b54565b905082600760008673ffffffffffffffffffffffffffffffffffffffff1673ffffffffffffffffffffffffffffffffffffffff16815260200190815260200160002060006101000a81548173ffffffffffffffffffffffffffffffffffffffff021916908373ffffffffffffffffffffffffffffffffffffffff1602179055508273ffffffffffffffffffffffffffffffffffffffff168273ffffffffffffffffffffffffffffffffffffffff168573ffffffffffffffffffffffffffffffffffffffff167f3134e8a2e6d97e929a7e54011ea5485d7d196dd5f0ba4d4ef95803e8e3fc257f60405160405180910390a4611cfe82848361215f565b50505050565b600063ffffffff8016821115611d4f576040517f08c379a0000000000000000000000000000000000000000000000000000000008152600401611d4690613d78565b60405180910390fd5b819050919050565b6000600560019054906101000a900473ffffffffffffffffffffffffffffffffffffffff16905081600560016101000a81548173ffffffffffffffffffffffffffffffffffffffff021916908373ffffffffffffffffffffffffffffffffffffffff1602179055508173ffffffffffffffffffffffffffffffffffffffff168173ffffffffffffffffffffffffffffffffffffffff167f8be0079c531659141344cd1fd0a4f28419497f9722a3daafe3b4186f6b6457e060405160405180910390a35050565b6000611e3083611e2b611509565b61127a565b905081811015611e75576040517f08c379a0000000000000000000000000000000000000000000000000000000008152600401611e6c90613e0a565b60405180910390fd5b611e8983611e81611509565b848403611511565b611e938383611bdc565b505050565b600081600001549050919050565b611eae610ae9565b15611eee576040517f08c379a0000000000000000000000000000000000000000000000000000000008152600401611ee590613e76565b60405180910390fd5b6001600560006101000a81548160ff0219169083151502179055507f62e78cea01bee320cd4e420270b5ea74000d11b0c9f74754ebdbfc544b05a258611f32611509565b604051611f3f919061307b565b60405180910390a1565b6000611f5c611f5661195d565b83612358565b9050919050565b6000806000611f748787878761238b565b91509150611f8181612498565b8192505050949350505050565b600080600660008473ffffffffffffffffffffffffffffffffffffffff1673ffffffffffffffffffffffffffffffffffffffff1681526020019081526020016000209050611fdb81611e98565b9150611fe68161266d565b50919050565b611ff4610ae9565b15612034576040517f08c379a000000000000000000000000000000000000000000000000000000000815260040161202b90613e76565b60405180910390fd5b61203f838383612683565b505050565b61204f838383612688565b505050565b6000838383463060405160200161206f959493929190613e96565b6040516020818303038152906040528051906020012090509392505050565b6000600282841861209f9190613f18565b8284166120ac91906134b5565b905092915050565b6120be82826126b3565b6120c6612813565b7bffffffffffffffffffffffffffffffffffffffffffffffffffffffff166120ec6106ee565b111561212d576040517f08c379a000000000000000000000000000000000000000000000000000000000815260040161212490613fbb565b60405180910390fd5b61213b60096128378361284d565b50505050565b61214b8282612ac5565b6121596009612c9c8361284d565b50505050565b8173ffffffffffffffffffffffffffffffffffffffff168373ffffffffffffffffffffffffffffffffffffffff161415801561219b5750600081115b1561235357600073ffffffffffffffffffffffffffffffffffffffff168373ffffffffffffffffffffffffffffffffffffffff161461227957600080612222600860008773ffffffffffffffffffffffffffffffffffffffff1673ffffffffffffffffffffffffffffffffffffffff168152602001908152602001600020612c9c8561284d565b915091508473ffffffffffffffffffffffffffffffffffffffff167fdec2bacdd2f05b59de34da9b523dff8be42e5e38e818c82fdb0bae774387a724838360405161226e929190613fdb565b60405180910390a250505b600073ffffffffffffffffffffffffffffffffffffffff168273ffffffffffffffffffffffffffffffffffffffff1614612352576000806122fb600860008673ffffffffffffffffffffffffffffffffffffffff1673ffffffffffffffffffffffffffffffffffffffff1681526020019081526020016000206128378561284d565b915091508373ffffffffffffffffffffffffffffffffffffffff167fdec2bacdd2f05b59de34da9b523dff8be42e5e38e818c82fdb0bae774387a7248383604051612347929190613fdb565b60405180910390a250505b5b505050565b6000828260405160200161236d92919061407c565b60405160208183030381529060405280519060200120905092915050565b6000807f7fffffffffffffffffffffffffffffff5d576e7357a4501ddfe92f46681b20a08360001c11156123c657600060039150915061248f565b601b8560ff16141580156123de5750601c8560ff1614155b156123f057600060049150915061248f565b60006001878787876040516000815260200160405260405161241594939291906140b3565b6020604051602081039080840390855afa158015612437573d6000803e3d6000fd5b505050602060405103519050600073ffffffffffffffffffffffffffffffffffffffff168173ffffffffffffffffffffffffffffffffffffffff1614156124865760006001925092505061248f565b80600092509250505b94509492505050565b600060048111156124ac576124ab6140f8565b5b8160048111156124bf576124be6140f8565b5b14156124ca5761266a565b600160048111156124de576124dd6140f8565b5b8160048111156124f1576124f06140f8565b5b1415612532576040517f08c379a000000000000000000000000000000000000000000000000000000000815260040161252990614173565b60405180910390fd5b60026004811115612546576125456140f8565b5b816004811115612559576125586140f8565b5b141561259a576040517f08c379a0000000000000000000000000000000000000000000000000000000008152600401612591906141df565b60405180910390fd5b600360048111156125ae576125ad6140f8565b5b8160048111156125c1576125c06140f8565b5b1415612602576040517f08c379a00000000000000000000000000000000000000000000000000000000081526004016125f990614271565b60405180910390fd5b600480811115612615576126146140f8565b5b816004811115612628576126276140f8565b5b1415612669576040517f08c379a000000000000000000000000000000000000000000000000000000000815260040161266090614303565b60405180910390fd5b5b50565b6001816000016000828254019250508190555050565b505050565b612693838383612cb2565b6126ae61269f84610a6c565b6126a884610a6c565b8361215f565b505050565b600073ffffffffffffffffffffffffffffffffffffffff168273ffffffffffffffffffffffffffffffffffffffff161415612723576040517f08c379a000000000000000000000000000000000000000000000000000000000815260040161271a9061436f565b60405180910390fd5b61272f60008383611fec565b806002600082825461274191906134b5565b92505081905550806000808473ffffffffffffffffffffffffffffffffffffffff1673ffffffffffffffffffffffffffffffffffffffff168152602001908152602001600020600082825461279691906134b5565b925050819055508173ffffffffffffffffffffffffffffffffffffffff16600073ffffffffffffffffffffffffffffffffffffffff167fddf252ad1be2c89b69c2b068fc378daa952ba7f163c4a11628f55a4df523b3ef836040516127fb9190612f39565b60405180910390a361280f60008383612044565b5050565b60007bffffffffffffffffffffffffffffffffffffffffffffffffffffffff905090565b6000818361284591906134b5565b905092915050565b600080600085805490509050600081146128bb578560018261286f91906135e3565b815481106128805761287f613617565b5b9060005260206000200160000160049054906101000a90047bffffffffffffffffffffffffffffffffffffffffffffffffffffffff166128be565b60005b7bffffffffffffffffffffffffffffffffffffffffffffffffffffffff1692506128ec83858763ffffffff16565b915060008111801561293f5750438660018361290891906135e3565b8154811061291957612918613617565b5b9060005260206000200160000160009054906101000a900463ffffffff1663ffffffff16145b156129cc5761294d82612cb7565b8660018361295b91906135e3565b8154811061296c5761296b613617565b5b9060005260206000200160000160046101000a8154817bffffffffffffffffffffffffffffffffffffffffffffffffffffffff02191690837bffffffffffffffffffffffffffffffffffffffffffffffffffffffff160217905550612abc565b8560405180604001604052806129e143611d04565b63ffffffff1681526020016129f585612cb7565b7bffffffffffffffffffffffffffffffffffffffffffffffffffffffff168152509080600181540180825580915050600190039060005260206000200160009091909190915060008201518160000160006101000a81548163ffffffff021916908363ffffffff16021790555060208201518160000160046101000a8154817bffffffffffffffffffffffffffffffffffffffffffffffffffffffff02191690837bffffffffffffffffffffffffffffffffffffffffffffffffffffffff16021790555050505b50935093915050565b600073ffffffffffffffffffffffffffffffffffffffff168273ffffffffffffffffffffffffffffffffffffffff161415612b35576040517f08c379a0000000000000000000000000000000000000000000000000000000008152600401612b2c90614401565b60405180910390fd5b612b4182600083611fec565b60008060008473ffffffffffffffffffffffffffffffffffffffff1673ffffffffffffffffffffffffffffffffffffffff16815260200190815260200160002054905081811015612bc7576040517f08c379a0000000000000000000000000000000000000000000000000000000008152600401612bbe90614493565b60405180910390fd5b8181036000808573ffffffffffffffffffffffffffffffffffffffff1673ffffffffffffffffffffffffffffffffffffffff168152602001908152602001600020819055508160026000828254612c1e91906135e3565b92505081905550600073ffffffffffffffffffffffffffffffffffffffff168373ffffffffffffffffffffffffffffffffffffffff167fddf252ad1be2c89b69c2b068fc378daa952ba7f163c4a11628f55a4df523b3ef84604051612c839190612f39565b60405180910390a3612c9783600084612044565b505050565b60008183612caa91906135e3565b905092915050565b505050565b60007bffffffffffffffffffffffffffffffffffffffffffffffffffffffff8016821115612d1a576040517f08c379a0000000000000000000000000000000000000000000000000000000008152600401612d1190614525565b60405180910390fd5b819050919050565b6040518060400160405280600063ffffffff16815260200160007bffffffffffffffffffffffffffffffffffffffffffffffffffffffff1681525090565b600081519050919050565b600082825260208201905092915050565b60005b83811015612d9a578082015181840152602081019050612d7f565b83811115612da9576000848401525b50505050565b6000601f19601f8301169050919050565b6000612dcb82612d60565b612dd58185612d6b565b9350612de5818560208601612d7c565b612dee81612daf565b840191505092915050565b60006020820190508181036000830152612e138184612dc0565b905092915050565b600080fd5b600073ffffffffffffffffffffffffffffffffffffffff82169050919050565b6000612e4b82612e20565b9050919050565b612e5b81612e40565b8114612e6657600080fd5b50565b600081359050612e7881612e52565b92915050565b6000819050919050565b612e9181612e7e565b8114612e9c57600080fd5b50565b600081359050612eae81612e88565b92915050565b60008060408385031215612ecb57612eca612e1b565b5b6000612ed985828601612e69565b9250506020612eea85828601612e9f565b9150509250929050565b60008115159050919050565b612f0981612ef4565b82525050565b6000602082019050612f246000830184612f00565b92915050565b612f3381612e7e565b82525050565b6000602082019050612f4e6000830184612f2a565b92915050565b600080600060608486031215612f6d57612f6c612e1b565b5b6000612f7b86828701612e69565b9350506020612f8c86828701612e69565b9250506040612f9d86828701612e9f565b9150509250925092565b600060ff82169050919050565b612fbd81612fa7565b82525050565b6000602082019050612fd86000830184612fb4565b92915050565b6000819050919050565b612ff181612fde565b82525050565b600060208201905061300c6000830184612fe8565b92915050565b60006020828403121561302857613027612e1b565b5b600061303684828501612e9f565b91505092915050565b60006020828403121561305557613054612e1b565b5b600061306384828501612e69565b91505092915050565b61307581612e40565b82525050565b6000602082019050613090600083018461306c565b92915050565b600063ffffffff82169050919050565b6130af81613096565b82525050565b60006020820190506130ca60008301846130a6565b92915050565b6130d981612fa7565b81146130e457600080fd5b50565b6000813590506130f6816130d0565b92915050565b61310581612fde565b811461311057600080fd5b50565b600081359050613122816130fc565b92915050565b60008060008060008060c0878903121561314557613144612e1b565b5b600061315389828a01612e69565b965050602061316489828a01612e9f565b955050604061317589828a01612e9f565b945050606061318689828a016130e7565b935050608061319789828a01613113565b92505060a06131a889828a01613113565b9150509295509295509295565b600080600080600080600060e0888a0312156131d4576131d3612e1b565b5b60006131e28a828b01612e69565b97505060206131f38a828b01612e69565b96505060406132048a828b01612e9f565b95505060606132158a828b01612e9f565b94505060806132268a828b016130e7565b93505060a06132378a828b01613113565b92505060c06132488a828b01613113565b91505092959891949750929550565b6000806040838503121561326e5761326d612e1b565b5b600061327c85828601612e69565b925050602061328d85828601612e69565b9150509250929050565b6132a081613096565b81146132ab57600080fd5b50565b6000813590506132bd81613297565b92915050565b600080604083850312156132da576132d9612e1b565b5b60006132e885828601612e69565b92505060206132f9858286016132ae565b9150509250929050565b61330c81613096565b82525050565b60007bffffffffffffffffffffffffffffffffffffffffffffffffffffffff82169050919050565b61334381613312565b82525050565b60408201600082015161335f6000850182613303565b506020820151613372602085018261333a565b50505050565b600060408201905061338d6000830184613349565b92915050565b7f4e487b7100000000000000000000000000000000000000000000000000000000600052602260045260246000fd5b600060028204905060018216806133da57607f821691505b602082108114156133ee576133ed613393565b5b50919050565b7f45524332303a207472616e7366657220616d6f756e742065786365656473206160008201527f6c6c6f77616e6365000000000000000000000000000000000000000000000000602082015250565b6000613450602883612d6b565b915061345b826133f4565b604082019050919050565b6000602082019050818103600083015261347f81613443565b9050919050565b7f4e487b7100000000000000000000000000000000000000000000000000000000600052601160045260246000fd5b60006134c082612e7e565b91506134cb83612e7e565b9250827fffffffffffffffffffffffffffffffffffffffffffffffffffffffffffffffff03821115613500576134ff613486565b5b828201905092915050565b7f4552433230566f7465733a20626c6f636b206e6f7420796574206d696e656400600082015250565b6000613541601f83612d6b565b915061354c8261350b565b602082019050919050565b6000602082019050818103600083015261357081613534565b9050919050565b7f4f776e61626c653a2063616c6c6572206973206e6f7420746865206f776e6572600082015250565b60006135ad602083612d6b565b91506135b882613577565b602082019050919050565b600060208201905081810360008301526135dc816135a0565b9050919050565b60006135ee82612e7e565b91506135f983612e7e565b92508282101561360c5761360b613486565b5b828203905092915050565b7f4e487b7100000000000000000000000000000000000000000000000000000000600052603260045260246000fd5b7f45524332303a2064656372656173656420616c6c6f77616e63652062656c6f7760008201527f207a65726f000000000000000000000000000000000000000000000000000000602082015250565b60006136a2602583612d6b565b91506136ad82613646565b604082019050919050565b600060208201905081810360008301526136d181613695565b9050919050565b7f4552433230566f7465733a207369676e61747572652065787069726564000000600082015250565b600061370e601d83612d6b565b9150613719826136d8565b602082019050919050565b6000602082019050818103600083015261373d81613701565b9050919050565b60006080820190506137596000830187612fe8565b613766602083018661306c565b6137736040830185612f2a565b6137806060830184612f2a565b95945050505050565b7f4552433230566f7465733a20696e76616c6964206e6f6e636500000000000000600082015250565b60006137bf601983612d6b565b91506137ca82613789565b602082019050919050565b600060208201905081810360008301526137ee816137b2565b9050919050565b7f45524332305065726d69743a206578706972656420646561646c696e65000000600082015250565b600061382b601d83612d6b565b9150613836826137f5565b602082019050919050565b6000602082019050818103600083015261385a8161381e565b9050919050565b600060c0820190506138766000830189612fe8565b613883602083018861306c565b613890604083018761306c565b61389d6060830186612f2a565b6138aa6080830185612f2a565b6138b760a0830184612f2a565b979650505050505050565b7f45524332305065726d69743a20696e76616c6964207369676e61747572650000600082015250565b60006138f8601e83612d6b565b9150613903826138c2565b602082019050919050565b60006020820190508181036000830152613927816138eb565b9050919050565b7f4f776e61626c653a206e6577206f776e657220697320746865207a65726f206160008201527f6464726573730000000000000000000000000000000000000000000000000000602082015250565b600061398a602683612d6b565b91506139958261392e565b604082019050919050565b600060208201905081810360008301526139b98161397d565b9050919050565b7f45524332303a20617070726f76652066726f6d20746865207a65726f2061646460008201527f7265737300000000000000000000000000000000000000000000000000000000602082015250565b6000613a1c602483612d6b565b9150613a27826139c0565b604082019050919050565b60006020820190508181036000830152613a4b81613a0f565b9050919050565b7f45524332303a20617070726f766520746f20746865207a65726f20616464726560008201527f7373000000000000000000000000000000000000000000000000000000000000602082015250565b6000613aae602283612d6b565b9150613ab982613a52565b604082019050919050565b60006020820190508181036000830152613add81613aa1565b9050919050565b7f45524332303a207472616e736665722066726f6d20746865207a65726f20616460008201527f6472657373000000000000000000000000000000000000000000000000000000602082015250565b6000613b40602583612d6b565b9150613b4b82613ae4565b604082019050919050565b60006020820190508181036000830152613b6f81613b33565b9050919050565b7f45524332303a207472616e7366657220746f20746865207a65726f206164647260008201527f6573730000000000000000000000000000000000000000000000000000000000602082015250565b6000613bd2602383612d6b565b9150613bdd82613b76565b604082019050919050565b60006020820190508181036000830152613c0181613bc5565b9050919050565b7f45524332303a207472616e7366657220616d6f756e742065786365656473206260008201527f616c616e63650000000000000000000000000000000000000000000000000000602082015250565b6000613c64602683612d6b565b9150613c6f82613c08565b604082019050919050565b60006020820190508181036000830152613c9381613c57565b9050919050565b7f5061757361626c653a206e6f7420706175736564000000000000000000000000600082015250565b6000613cd0601483612d6b565b9150613cdb82613c9a565b602082019050919050565b60006020820190508181036000830152613cff81613cc3565b9050919050565b7f53616665436173743a2076616c756520646f65736e27742066697420696e203360008201527f3220626974730000000000000000000000000000000000000000000000000000602082015250565b6000613d62602683612d6b565b9150613d6d82613d06565b604082019050919050565b60006020820190508181036000830152613d9181613d55565b9050919050565b7f45524332303a206275726e20616d6f756e74206578636565647320616c6c6f7760008201527f616e636500000000000000000000000000000000000000000000000000000000602082015250565b6000613df4602483612d6b565b9150613dff82613d98565b604082019050919050565b60006020820190508181036000830152613e2381613de7565b9050919050565b7f5061757361626c653a2070617573656400000000000000000000000000000000600082015250565b6000613e60601083612d6b565b9150613e6b82613e2a565b602082019050919050565b60006020820190508181036000830152613e8f81613e53565b9050919050565b600060a082019050613eab6000830188612fe8565b613eb86020830187612fe8565b613ec56040830186612fe8565b613ed26060830185612f2a565b613edf608083018461306c565b9695505050505050565b7f4e487b7100000000000000000000000000000000000000000000000000000000600052601260045260246000fd5b6000613f2382612e7e565b9150613f2e83612e7e565b925082613f3e57613f3d613ee9565b5b828204905092915050565b7f4552433230566f7465733a20746f74616c20737570706c79207269736b73206f60008201527f766572666c6f77696e6720766f74657300000000000000000000000000000000602082015250565b6000613fa5603083612d6b565b9150613fb082613f49565b604082019050919050565b60006020820190508181036000830152613fd481613f98565b9050919050565b6000604082019050613ff06000830185612f2a565b613ffd6020830184612f2a565b9392505050565b600081905092915050565b7f1901000000000000000000000000000000000000000000000000000000000000600082015250565b6000614045600283614004565b91506140508261400f565b600282019050919050565b6000819050919050565b61407661407182612fde565b61405b565b82525050565b600061408782614038565b91506140938285614065565b6020820191506140a38284614065565b6020820191508190509392505050565b60006080820190506140c86000830187612fe8565b6140d56020830186612fb4565b6140e26040830185612fe8565b6140ef6060830184612fe8565b95945050505050565b7f4e487b7100000000000000000000000000000000000000000000000000000000600052602160045260246000fd5b7f45434453413a20696e76616c6964207369676e61747572650000000000000000600082015250565b600061415d601883612d6b565b915061416882614127565b602082019050919050565b6000602082019050818103600083015261418c81614150565b9050919050565b7f45434453413a20696e76616c6964207369676e6174757265206c656e67746800600082015250565b60006141c9601f83612d6b565b91506141d482614193565b602082019050919050565b600060208201905081810360008301526141f8816141bc565b9050919050565b7f45434453413a20696e76616c6964207369676e6174757265202773272076616c60008201527f7565000000000000000000000000000000000000000000000000000000000000602082015250565b600061425b602283612d6b565b9150614266826141ff565b604082019050919050565b6000602082019050818103600083015261428a8161424e565b9050919050565b7f45434453413a20696e76616c6964207369676e6174757265202776272076616c60008201527f7565000000000000000000000000000000000000000000000000000000000000602082015250565b60006142ed602283612d6b565b91506142f882614291565b604082019050919050565b6000602082019050818103600083015261431c816142e0565b9050919050565b7f45524332303a206d696e7420746f20746865207a65726f206164647265737300600082015250565b6000614359601f83612d6b565b915061436482614323565b602082019050919050565b600060208201905081810360008301526143888161434c565b9050919050565b7f45524332303a206275726e2066726f6d20746865207a65726f2061646472657360008201527f7300000000000000000000000000000000000000000000000000000000000000602082015250565b60006143eb602183612d6b565b91506143f68261438f565b604082019050919050565b6000602082019050818103600083015261441a816143de565b9050919050565b7f45524332303a206275726e20616d6f756e7420657863656564732062616c616e60008201527f6365000000000000000000000000000000000000000000000000000000000000602082015250565b600061447d602283612d6b565b915061448882614421565b604082019050919050565b600060208201905081810360008301526144ac81614470565b9050919050565b7f53616665436173743a2076616c756520646f65736e27742066697420696e203260008201527f3234206269747300000000000000000000000000000000000000000000000000602082015250565b600061450f602783612d6b565b915061451a826144b3565b604082019050919050565b6000602082019050818103600083015261453e81614502565b905091905056fea2646970667358221220269d670b04e2db0f7493deedcc0cda1aadcc005ca9a42435afdc4c438dd498d264736f6c63430008090033",
  "linkReferences": {},
  "deployedLinkReferences": {}
}