{
  "_format": "hh-sol-artifact-1",
  "contractName": "ERC20Transparent",
  "sourceName": "contracts/ERC20/ERC20Transparent.sol",
  "abi": [
    {
      "inputs": [],
      "stateMutability": "nonpayable",
      "type": "constructor"
    },
    {
      "anonymous": false,
      "inputs": [
        {
          "indexed": true,
          "internalType": "address",
          "name": "owner",
          "type": "address"
        },
        {
          "indexed": true,
          "internalType": "address",
          "name": "spender",
          "type": "address"
        },
        {
          "indexed": false,
          "internalType": "uint256",
          "name": "value",
          "type": "uint256"
        }
      ],
      "name": "Approval",
      "type": "event"
    },
    {
      "anonymous": false,
      "inputs": [
        {
          "indexed": true,
          "internalType": "address",
          "name": "previousOwner",
          "type": "address"
        },
        {
          "indexed": true,
          "internalType": "address",
          "name": "newOwner",
          "type": "address"
        }
      ],
      "name": "OwnershipTransferred",
      "type": "event"
    },
    {
      "anonymous": false,
      "inputs": [
        {
          "indexed": true,
          "internalType": "address",
          "name": "from",
          "type": "address"
        },
        {
          "indexed": true,
          "internalType": "address",
          "name": "to",
          "type": "address"
        },
        {
          "indexed": false,
          "internalType": "uint256",
          "name": "value",
          "type": "uint256"
        }
      ],
      "name": "Transfer",
      "type": "event"
    },
    {
      "inputs": [
        {
          "internalType": "address",
          "name": "owner",
          "type": "address"
        },
        {
          "internalType": "address",
          "name": "spender",
          "type": "address"
        }
      ],
      "name": "allowance",
      "outputs": [
        {
          "internalType": "uint256",
          "name": "",
          "type": "uint256"
        }
      ],
      "stateMutability": "view",
      "type": "function"
    },
    {
      "inputs": [
        {
          "internalType": "address",
          "name": "spender",
          "type": "address"
        },
        {
          "internalType": "uint256",
          "name": "amount",
          "type": "uint256"
        }
      ],
      "name": "approve",
      "outputs": [
        {
          "internalType": "bool",
          "name": "",
          "type": "bool"
        }
      ],
      "stateMutability": "nonpayable",
      "type": "function"
    },
    {
      "inputs": [
        {
          "internalType": "address",
          "name": "account",
          "type": "address"
        }
      ],
      "name": "balanceOf",
      "outputs": [
        {
          "internalType": "uint256",
          "name": "",
          "type": "uint256"
        }
      ],
      "stateMutability": "view",
      "type": "function"
    },
    {
      "inputs": [],
      "name": "decimals",
      "outputs": [
        {
          "internalType": "uint8",
          "name": "",
          "type": "uint8"
        }
      ],
      "stateMutability": "view",
      "type": "function"
    },
    {
      "inputs": [
        {
          "internalType": "address",
          "name": "spender",
          "type": "address"
        },
        {
          "internalType": "uint256",
          "name": "subtractedValue",
          "type": "uint256"
        }
      ],
      "name": "decreaseAllowance",
      "outputs": [
        {
          "internalType": "bool",
          "name": "",
          "type": "bool"
        }
      ],
      "stateMutability": "nonpayable",
      "type": "function"
    },
    {
      "inputs": [
        {
          "internalType": "address",
          "name": "spender",
          "type": "address"
        },
        {
          "internalType": "uint256",
          "name": "addedValue",
          "type": "uint256"
        }
      ],
      "name": "increaseAllowance",
      "outputs": [
        {
          "internalType": "bool",
          "name": "",
          "type": "bool"
        }
      ],
      "stateMutability": "nonpayable",
      "type": "function"
    },
    {
      "inputs": [],
      "name": "initialize",
      "outputs": [],
      "stateMutability": "nonpayable",
      "type": "function"
    },
    {
      "inputs": [
        {
          "internalType": "address",
          "name": "to",
          "type": "address"
        },
        {
          "internalType": "uint256",
          "name": "amount",
          "type": "uint256"
        }
      ],
      "name": "mint",
      "outputs": [],
      "stateMutability": "nonpayable",
      "type": "function"
    },
    {
      "inputs": [],
      "name": "name",
      "outputs": [
        {
          "internalType": "string",
          "name": "",
          "type": "string"
        }
      ],
      "stateMutability": "view",
      "type": "function"
    },
    {
      "inputs": [],
      "name": "owner",
      "outputs": [
        {
          "internalType": "address",
          "name": "",
          "type": "address"
        }
      ],
      "stateMutability": "view",
      "type": "function"
    },
    {
      "inputs": [],
      "name": "renounceOwnership",
      "outputs": [],
      "stateMutability": "nonpayable",
      "type": "function"
    },
    {
      "inputs": [],
      "name": "symbol",
      "outputs": [
        {
          "internalType": "string",
          "name": "",
          "type": "string"
        }
      ],
      "stateMutability": "view",
      "type": "function"
    },
    {
      "inputs": [],
      "name": "totalSupply",
      "outputs": [
        {
          "internalType": "uint256",
          "name": "",
          "type": "uint256"
        }
      ],
      "stateMutability": "view",
      "type": "function"
    },
    {
      "inputs": [
        {
          "internalType": "address",
          "name": "recipient",
          "type": "address"
        },
        {
          "internalType": "uint256",
          "name": "amount",
          "type": "uint256"
        }
      ],
      "name": "transfer",
      "outputs": [
        {
          "internalType": "bool",
          "name": "",
          "type": "bool"
        }
      ],
      "stateMutability": "nonpayable",
      "type": "function"
    },
    {
      "inputs": [
        {
          "internalType": "address",
          "name": "sender",
          "type": "address"
        },
        {
          "internalType": "address",
          "name": "recipient",
          "type": "address"
        },
        {
          "internalType": "uint256",
          "name": "amount",
          "type": "uint256"
        }
      ],
      "name": "transferFrom",
      "outputs": [
        {
          "internalType": "bool",
          "name": "",
          "type": "bool"
        }
      ],
      "stateMutability": "nonpayable",
      "type": "function"
    },
    {
      "inputs": [
        {
          "internalType": "address",
          "name": "newOwner",
          "type": "address"
        }
      ],
      "name": "transferOwnership",
      "outputs": [],
      "stateMutability": "nonpayable",
      "type": "function"
    }
  ],
  "bytecode": "0x60806040523480156200001157600080fd5b50600060019054906101000a900460ff166200003c5760008054906101000a900460ff16156200004d565b6200004c6200011960201b60201c565b5b6200008f576040517f08c379a000000000000000000000000000000000000000000000000000000000815260040162000086906200070a565b60405180910390fd5b60008060019054906101000a900460ff161590508015620000e0576001600060016101000a81548160ff02191690831515021790555060016000806101000a81548160ff0219169083151502179055505b620000f06200013760201b60201c565b8015620001125760008060016101000a81548160ff0219169083151502179055505b5062000829565b60006200013130620002b660201b62000b9d1760201c565b15905090565b600060019054906101000a900460ff16620001615760008054906101000a900460ff161562000172565b620001716200011960201b60201c565b5b620001b4576040517f08c379a0000000000000000000000000000000000000000000000000000000008152600401620001ab906200070a565b60405180910390fd5b60008060019054906101000a900460ff16159050801562000205576001600060016101000a81548160ff02191690831515021790555060016000806101000a81548160ff0219169083151502179055505b620002816040518060400160405280601081526020017f45524332305472616e73706172656e74000000000000000000000000000000008152506040518060400160405280600681526020017f4552433230540000000000000000000000000000000000000000000000000000815250620002c960201b60201c565b620002916200034160201b60201c565b8015620002b35760008060016101000a81548160ff0219169083151502179055505b50565b600080823b905060008111915050919050565b600060019054906101000a900460ff166200031b576040517f08c379a00000000000000000000000000000000000000000000000000000000081526004016200031290620007a2565b60405180910390fd5b6200032b620003b560201b60201c565b6200033d82826200040960201b60201c565b5050565b600060019054906101000a900460ff1662000393576040517f08c379a00000000000000000000000000000000000000000000000000000000081526004016200038a90620007a2565b60405180910390fd5b620003a3620003b560201b60201c565b620003b36200049160201b60201c565b565b600060019054906101000a900460ff1662000407576040517f08c379a0000000000000000000000000000000000000000000000000000000008152600401620003fe90620007a2565b60405180910390fd5b565b600060019054906101000a900460ff166200045b576040517f08c379a00000000000000000000000000000000000000000000000000000000081526004016200045290620007a2565b60405180910390fd5b816036908051906020019062000473929190620005d3565b5080603790805190602001906200048c929190620005d3565b505050565b600060019054906101000a900460ff16620004e3576040517f08c379a0000000000000000000000000000000000000000000000000000000008152600401620004da90620007a2565b60405180910390fd5b62000503620004f76200050560201b60201c565b6200050d60201b60201c565b565b600033905090565b6000606560009054906101000a900473ffffffffffffffffffffffffffffffffffffffff16905081606560006101000a81548173ffffffffffffffffffffffffffffffffffffffff021916908373ffffffffffffffffffffffffffffffffffffffff1602179055508173ffffffffffffffffffffffffffffffffffffffff168173ffffffffffffffffffffffffffffffffffffffff167f8be0079c531659141344cd1fd0a4f28419497f9722a3daafe3b4186f6b6457e060405160405180910390a35050565b828054620005e190620007f3565b90600052602060002090601f01602090048101928262000605576000855562000651565b82601f106200062057805160ff191683800117855562000651565b8280016001018555821562000651579182015b828111156200065057825182559160200191906001019062000633565b5b50905062000660919062000664565b5090565b5b808211156200067f57600081600090555060010162000665565b5090565b600082825260208201905092915050565b7f496e697469616c697a61626c653a20636f6e747261637420697320616c72656160008201527f647920696e697469616c697a6564000000000000000000000000000000000000602082015250565b6000620006f2602e8362000683565b9150620006ff8262000694565b604082019050919050565b600060208201905081810360008301526200072581620006e3565b9050919050565b7f496e697469616c697a61626c653a20636f6e7472616374206973206e6f74206960008201527f6e697469616c697a696e67000000000000000000000000000000000000000000602082015250565b60006200078a602b8362000683565b915062000797826200072c565b604082019050919050565b60006020820190508181036000830152620007bd816200077b565b9050919050565b7f4e487b7100000000000000000000000000000000000000000000000000000000600052602260045260246000fd5b600060028204905060018216806200080c57607f821691505b60208210811415620008235762000822620007c4565b5b50919050565b611fa280620008396000396000f3fe608060405234801561001057600080fd5b50600436106101005760003560e01c8063715018a611610097578063a457c2d711610066578063a457c2d71461028b578063a9059cbb146102bb578063dd62ed3e146102eb578063f2fde38b1461031b57610100565b8063715018a61461023b5780638129fc1c146102455780638da5cb5b1461024f57806395d89b411461026d57610100565b8063313ce567116100d3578063313ce567146101a157806339509351146101bf57806340c10f19146101ef57806370a082311461020b57610100565b806306fdde0314610105578063095ea7b31461012357806318160ddd1461015357806323b872dd14610171575b600080fd5b61010d610337565b60405161011a919061157e565b60405180910390f35b61013d60048036038101906101389190611639565b6103c9565b60405161014a9190611694565b60405180910390f35b61015b6103e7565b60405161016891906116be565b60405180910390f35b61018b600480360381019061018691906116d9565b6103f1565b6040516101989190611694565b60405180910390f35b6101a96104e9565b6040516101b69190611748565b60405180910390f35b6101d960048036038101906101d49190611639565b6104f2565b6040516101e69190611694565b60405180910390f35b61020960048036038101906102049190611639565b61059e565b005b61022560048036038101906102209190611763565b610628565b60405161023291906116be565b60405180910390f35b610243610671565b005b61024d6106f9565b005b610257610859565b604051610264919061179f565b60405180910390f35b610275610883565b604051610282919061157e565b60405180910390f35b6102a560048036038101906102a09190611639565b610915565b6040516102b29190611694565b60405180910390f35b6102d560048036038101906102d09190611639565b610a00565b6040516102e29190611694565b60405180910390f35b610305600480360381019061030091906117ba565b610a1e565b60405161031291906116be565b60405180910390f35b61033560048036038101906103309190611763565b610aa5565b005b60606036805461034690611829565b80601f016020809104026020016040519081016040528092919081815260200182805461037290611829565b80156103bf5780601f10610394576101008083540402835291602001916103bf565b820191906000526020600020905b8154815290600101906020018083116103a257829003601f168201915b5050505050905090565b60006103dd6103d6610bb0565b8484610bb8565b6001905092915050565b6000603554905090565b60006103fe848484610d83565b6000603460008673ffffffffffffffffffffffffffffffffffffffff1673ffffffffffffffffffffffffffffffffffffffff1681526020019081526020016000206000610449610bb0565b73ffffffffffffffffffffffffffffffffffffffff1673ffffffffffffffffffffffffffffffffffffffff168152602001908152602001600020549050828110156104c9576040517f08c379a00000000000000000000000000000000000000000000000000000000081526004016104c0906118cd565b60405180910390fd5b6104dd856104d5610bb0565b858403610bb8565b60019150509392505050565b60006012905090565b60006105946104ff610bb0565b84846034600061050d610bb0565b73ffffffffffffffffffffffffffffffffffffffff1673ffffffffffffffffffffffffffffffffffffffff16815260200190815260200160002060008873ffffffffffffffffffffffffffffffffffffffff1673ffffffffffffffffffffffffffffffffffffffff1681526020019081526020016000205461058f919061191c565b610bb8565b6001905092915050565b6105a6610bb0565b73ffffffffffffffffffffffffffffffffffffffff166105c4610859565b73ffffffffffffffffffffffffffffffffffffffff161461061a576040517f08c379a0000000000000000000000000000000000000000000000000000000008152600401610611906119be565b60405180910390fd5b6106248282611007565b5050565b6000603360008373ffffffffffffffffffffffffffffffffffffffff1673ffffffffffffffffffffffffffffffffffffffff168152602001908152602001600020549050919050565b610679610bb0565b73ffffffffffffffffffffffffffffffffffffffff16610697610859565b73ffffffffffffffffffffffffffffffffffffffff16146106ed576040517f08c379a00000000000000000000000000000000000000000000000000000000081526004016106e4906119be565b60405180910390fd5b6106f76000611168565b565b600060019054906101000a900460ff166107215760008054906101000a900460ff161561072a565b61072961122e565b5b610769576040517f08c379a000000000000000000000000000000000000000000000000000000000815260040161076090611a50565b60405180910390fd5b60008060019054906101000a900460ff1615905080156107b9576001600060016101000a81548160ff02191690831515021790555060016000806101000a81548160ff0219169083151502179055505b61082d6040518060400160405280601081526020017f45524332305472616e73706172656e74000000000000000000000000000000008152506040518060400160405280600681526020017f455243323054000000000000000000000000000000000000000000000000000081525061123f565b6108356112a4565b80156108565760008060016101000a81548160ff0219169083151502179055505b50565b6000606560009054906101000a900473ffffffffffffffffffffffffffffffffffffffff16905090565b60606037805461089290611829565b80601f01602080910402602001604051908101604052809291908181526020018280546108be90611829565b801561090b5780601f106108e05761010080835404028352916020019161090b565b820191906000526020600020905b8154815290600101906020018083116108ee57829003601f168201915b5050505050905090565b60008060346000610924610bb0565b73ffffffffffffffffffffffffffffffffffffffff1673ffffffffffffffffffffffffffffffffffffffff16815260200190815260200160002060008573ffffffffffffffffffffffffffffffffffffffff1673ffffffffffffffffffffffffffffffffffffffff168152602001908152602001600020549050828110156109e1576040517f08c379a00000000000000000000000000000000000000000000000000000000081526004016109d890611ae2565b60405180910390fd5b6109f56109ec610bb0565b85858403610bb8565b600191505092915050565b6000610a14610a0d610bb0565b8484610d83565b6001905092915050565b6000603460008473ffffffffffffffffffffffffffffffffffffffff1673ffffffffffffffffffffffffffffffffffffffff16815260200190815260200160002060008373ffffffffffffffffffffffffffffffffffffffff1673ffffffffffffffffffffffffffffffffffffffff16815260200190815260200160002054905092915050565b610aad610bb0565b73ffffffffffffffffffffffffffffffffffffffff16610acb610859565b73ffffffffffffffffffffffffffffffffffffffff1614610b21576040517f08c379a0000000000000000000000000000000000000000000000000000000008152600401610b18906119be565b60405180910390fd5b600073ffffffffffffffffffffffffffffffffffffffff168173ffffffffffffffffffffffffffffffffffffffff161415610b91576040517f08c379a0000000000000000000000000000000000000000000000000000000008152600401610b8890611b74565b60405180910390fd5b610b9a81611168565b50565b600080823b905060008111915050919050565b600033905090565b600073ffffffffffffffffffffffffffffffffffffffff168373ffffffffffffffffffffffffffffffffffffffff161415610c28576040517f08c379a0000000000000000000000000000000000000000000000000000000008152600401610c1f90611c06565b60405180910390fd5b600073ffffffffffffffffffffffffffffffffffffffff168273ffffffffffffffffffffffffffffffffffffffff161415610c98576040517f08c379a0000000000000000000000000000000000000000000000000000000008152600401610c8f90611c98565b60405180910390fd5b80603460008573ffffffffffffffffffffffffffffffffffffffff1673ffffffffffffffffffffffffffffffffffffffff16815260200190815260200160002060008473ffffffffffffffffffffffffffffffffffffffff1673ffffffffffffffffffffffffffffffffffffffff168152602001908152602001600020819055508173ffffffffffffffffffffffffffffffffffffffff168373ffffffffffffffffffffffffffffffffffffffff167f8c5be1e5ebec7d5bd14f71427d1e84f3dd0314c0f7b2291e5b200ac8c7c3b92583604051610d7691906116be565b60405180910390a3505050565b600073ffffffffffffffffffffffffffffffffffffffff168373ffffffffffffffffffffffffffffffffffffffff161415610df3576040517f08c379a0000000000000000000000000000000000000000000000000000000008152600401610dea90611d2a565b60405180910390fd5b600073ffffffffffffffffffffffffffffffffffffffff168273ffffffffffffffffffffffffffffffffffffffff161415610e63576040517f08c379a0000000000000000000000000000000000000000000000000000000008152600401610e5a90611dbc565b60405180910390fd5b610e6e838383611305565b6000603360008573ffffffffffffffffffffffffffffffffffffffff1673ffffffffffffffffffffffffffffffffffffffff16815260200190815260200160002054905081811015610ef5576040517f08c379a0000000000000000000000000000000000000000000000000000000008152600401610eec90611e4e565b60405180910390fd5b818103603360008673ffffffffffffffffffffffffffffffffffffffff1673ffffffffffffffffffffffffffffffffffffffff1681526020019081526020016000208190555081603360008573ffffffffffffffffffffffffffffffffffffffff1673ffffffffffffffffffffffffffffffffffffffff1681526020019081526020016000206000828254610f8a919061191c565b925050819055508273ffffffffffffffffffffffffffffffffffffffff168473ffffffffffffffffffffffffffffffffffffffff167fddf252ad1be2c89b69c2b068fc378daa952ba7f163c4a11628f55a4df523b3ef84604051610fee91906116be565b60405180910390a361100184848461130a565b50505050565b600073ffffffffffffffffffffffffffffffffffffffff168273ffffffffffffffffffffffffffffffffffffffff161415611077576040517f08c379a000000000000000000000000000000000000000000000000000000000815260040161106e90611eba565b60405180910390fd5b61108360008383611305565b8060356000828254611095919061191c565b9250508190555080603360008473ffffffffffffffffffffffffffffffffffffffff1673ffffffffffffffffffffffffffffffffffffffff16815260200190815260200160002060008282546110eb919061191c565b925050819055508173ffffffffffffffffffffffffffffffffffffffff16600073ffffffffffffffffffffffffffffffffffffffff167fddf252ad1be2c89b69c2b068fc378daa952ba7f163c4a11628f55a4df523b3ef8360405161115091906116be565b60405180910390a36111646000838361130a565b5050565b6000606560009054906101000a900473ffffffffffffffffffffffffffffffffffffffff16905081606560006101000a81548173ffffffffffffffffffffffffffffffffffffffff021916908373ffffffffffffffffffffffffffffffffffffffff1602179055508173ffffffffffffffffffffffffffffffffffffffff168173ffffffffffffffffffffffffffffffffffffffff167f8be0079c531659141344cd1fd0a4f28419497f9722a3daafe3b4186f6b6457e060405160405180910390a35050565b600061123930610b9d565b15905090565b600060019054906101000a900460ff1661128e576040517f08c379a000000000000000000000000000000000000000000000000000000000815260040161128590611f4c565b60405180910390fd5b61129661130f565b6112a08282611360565b5050565b600060019054906101000a900460ff166112f3576040517f08c379a00000000000000000000000000000000000000000000000000000000081526004016112ea90611f4c565b60405180910390fd5b6112fb61130f565b6113036113e1565b565b505050565b505050565b600060019054906101000a900460ff1661135e576040517f08c379a000000000000000000000000000000000000000000000000000000000815260040161135590611f4c565b60405180910390fd5b565b600060019054906101000a900460ff166113af576040517f08c379a00000000000000000000000000000000000000000000000000000000081526004016113a690611f4c565b60405180910390fd5b81603690805190602001906113c5929190611442565b5080603790805190602001906113dc929190611442565b505050565b600060019054906101000a900460ff16611430576040517f08c379a000000000000000000000000000000000000000000000000000000000815260040161142790611f4c565b60405180910390fd5b61144061143b610bb0565b611168565b565b82805461144e90611829565b90600052602060002090601f01602090048101928261147057600085556114b7565b82601f1061148957805160ff19168380011785556114b7565b828001600101855582156114b7579182015b828111156114b657825182559160200191906001019061149b565b5b5090506114c491906114c8565b5090565b5b808211156114e15760008160009055506001016114c9565b5090565b600081519050919050565b600082825260208201905092915050565b60005b8381101561151f578082015181840152602081019050611504565b8381111561152e576000848401525b50505050565b6000601f19601f8301169050919050565b6000611550826114e5565b61155a81856114f0565b935061156a818560208601611501565b61157381611534565b840191505092915050565b600060208201905081810360008301526115988184611545565b905092915050565b600080fd5b600073ffffffffffffffffffffffffffffffffffffffff82169050919050565b60006115d0826115a5565b9050919050565b6115e0816115c5565b81146115eb57600080fd5b50565b6000813590506115fd816115d7565b92915050565b6000819050919050565b61161681611603565b811461162157600080fd5b50565b6000813590506116338161160d565b92915050565b600080604083850312156116505761164f6115a0565b5b600061165e858286016115ee565b925050602061166f85828601611624565b9150509250929050565b60008115159050919050565b61168e81611679565b82525050565b60006020820190506116a96000830184611685565b92915050565b6116b881611603565b82525050565b60006020820190506116d360008301846116af565b92915050565b6000806000606084860312156116f2576116f16115a0565b5b6000611700868287016115ee565b9350506020611711868287016115ee565b925050604061172286828701611624565b9150509250925092565b600060ff82169050919050565b6117428161172c565b82525050565b600060208201905061175d6000830184611739565b92915050565b600060208284031215611779576117786115a0565b5b6000611787848285016115ee565b91505092915050565b611799816115c5565b82525050565b60006020820190506117b46000830184611790565b92915050565b600080604083850312156117d1576117d06115a0565b5b60006117df858286016115ee565b92505060206117f0858286016115ee565b9150509250929050565b7f4e487b7100000000000000000000000000000000000000000000000000000000600052602260045260246000fd5b6000600282049050600182168061184157607f821691505b60208210811415611855576118546117fa565b5b50919050565b7f45524332303a207472616e7366657220616d6f756e742065786365656473206160008201527f6c6c6f77616e6365000000000000000000000000000000000000000000000000602082015250565b60006118b76028836114f0565b91506118c28261185b565b604082019050919050565b600060208201905081810360008301526118e6816118aa565b9050919050565b7f4e487b7100000000000000000000000000000000000000000000000000000000600052601160045260246000fd5b600061192782611603565b915061193283611603565b9250827fffffffffffffffffffffffffffffffffffffffffffffffffffffffffffffffff03821115611967576119666118ed565b5b828201905092915050565b7f4f776e61626c653a2063616c6c6572206973206e6f7420746865206f776e6572600082015250565b60006119a86020836114f0565b91506119b382611972565b602082019050919050565b600060208201905081810360008301526119d78161199b565b9050919050565b7f496e697469616c697a61626c653a20636f6e747261637420697320616c72656160008201527f647920696e697469616c697a6564000000000000000000000000000000000000602082015250565b6000611a3a602e836114f0565b9150611a45826119de565b604082019050919050565b60006020820190508181036000830152611a6981611a2d565b9050919050565b7f45524332303a2064656372656173656420616c6c6f77616e63652062656c6f7760008201527f207a65726f000000000000000000000000000000000000000000000000000000602082015250565b6000611acc6025836114f0565b9150611ad782611a70565b604082019050919050565b60006020820190508181036000830152611afb81611abf565b9050919050565b7f4f776e61626c653a206e6577206f776e657220697320746865207a65726f206160008201527f6464726573730000000000000000000000000000000000000000000000000000602082015250565b6000611b5e6026836114f0565b9150611b6982611b02565b604082019050919050565b60006020820190508181036000830152611b8d81611b51565b9050919050565b7f45524332303a20617070726f76652066726f6d20746865207a65726f2061646460008201527f7265737300000000000000000000000000000000000000000000000000000000602082015250565b6000611bf06024836114f0565b9150611bfb82611b94565b604082019050919050565b60006020820190508181036000830152611c1f81611be3565b9050919050565b7f45524332303a20617070726f766520746f20746865207a65726f20616464726560008201527f7373000000000000000000000000000000000000000000000000000000000000602082015250565b6000611c826022836114f0565b9150611c8d82611c26565b604082019050919050565b60006020820190508181036000830152611cb181611c75565b9050919050565b7f45524332303a207472616e736665722066726f6d20746865207a65726f20616460008201527f6472657373000000000000000000000000000000000000000000000000000000602082015250565b6000611d146025836114f0565b9150611d1f82611cb8565b604082019050919050565b60006020820190508181036000830152611d4381611d07565b9050919050565b7f45524332303a207472616e7366657220746f20746865207a65726f206164647260008201527f6573730000000000000000000000000000000000000000000000000000000000602082015250565b6000611da66023836114f0565b9150611db182611d4a565b604082019050919050565b60006020820190508181036000830152611dd581611d99565b9050919050565b7f45524332303a207472616e7366657220616d6f756e742065786365656473206260008201527f616c616e63650000000000000000000000000000000000000000000000000000602082015250565b6000611e386026836114f0565b9150611e4382611ddc565b604082019050919050565b60006020820190508181036000830152611e6781611e2b565b9050919050565b7f45524332303a206d696e7420746f20746865207a65726f206164647265737300600082015250565b6000611ea4601f836114f0565b9150611eaf82611e6e565b602082019050919050565b60006020820190508181036000830152611ed381611e97565b9050919050565b7f496e697469616c697a61626c653a20636f6e7472616374206973206e6f74206960008201527f6e697469616c697a696e67000000000000000000000000000000000000000000602082015250565b6000611f36602b836114f0565b9150611f4182611eda565b604082019050919050565b60006020820190508181036000830152611f6581611f29565b905091905056fea264697066735822122053b5c65dd7768b671778e487b2544c738587e7c5f93d37c1443b7c1ed5ed1c7b64736f6c63430008090033",
  "linkReferences": {},
  "deployedLinkReferences": {}
}