{
  "_format": "hh-sol-artifact-1",
  "contractName": "Factory",
  "sourceName": "contracts/Factory.sol",
  "abi": [
    {
      "inputs": [
        {
          "internalType": "address",
          "name": "_registerContract",
          "type": "address"
        },
        {
          "internalType": "address",
          "name": "_randomNumberConsumer",
          "type": "address"
        },
        {
          "internalType": "address",
          "name": "_NFTContractAddress",
          "type": "address"
        },
        {
          "internalType": "address",
          "name": "_chanceRoomLibrary",
          "type": "address"
        }
      ],
      "stateMutability": "nonpayable",
      "type": "constructor"
    },
    {
      "anonymous": false,
      "inputs": [
        {
          "indexed": false,
          "internalType": "address",
          "name": "newLibrary",
          "type": "address"
        },
        {
          "indexed": false,
          "internalType": "uint256",
          "name": "updateTime",
          "type": "uint256"
        }
      ],
      "name": "ChanceRoomLibraryUpdated",
      "type": "event"
    },
    {
      "anonymous": false,
      "inputs": [
        {
          "indexed": false,
          "internalType": "address",
          "name": "newNFTContract",
          "type": "address"
        },
        {
          "indexed": false,
          "internalType": "uint256",
          "name": "updateTime",
          "type": "uint256"
        }
      ],
      "name": "NFTContractUpdated",
      "type": "event"
    },
    {
      "anonymous": false,
      "inputs": [
        {
          "indexed": false,
          "internalType": "address",
          "name": "chanceRoom",
          "type": "address"
        },
        {
          "indexed": false,
          "internalType": "address",
          "name": "owner",
          "type": "address"
        }
      ],
      "name": "NewChanceRoom",
      "type": "event"
    },
    {
      "anonymous": false,
      "inputs": [
        {
          "indexed": true,
          "internalType": "address",
          "name": "previousOwner",
          "type": "address"
        },
        {
          "indexed": true,
          "internalType": "address",
          "name": "newOwner",
          "type": "address"
        }
      ],
      "name": "OwnershipTransferred",
      "type": "event"
    },
    {
      "anonymous": false,
      "inputs": [
        {
          "indexed": false,
          "internalType": "address",
          "name": "newConsumer",
          "type": "address"
        },
        {
          "indexed": false,
          "internalType": "uint256",
          "name": "updateTime",
          "type": "uint256"
        }
      ],
      "name": "RandomNumberConsumerUpdated",
      "type": "event"
    },
    {
      "inputs": [],
      "name": "NFTContract",
      "outputs": [
        {
          "internalType": "address",
          "name": "",
          "type": "address"
        }
      ],
      "stateMutability": "view",
      "type": "function"
    },
    {
      "inputs": [],
      "name": "chanceRoomLibrary",
      "outputs": [
        {
          "internalType": "address",
          "name": "",
          "type": "address"
        }
      ],
      "stateMutability": "view",
      "type": "function"
    },
    {
      "inputs": [
        {
          "internalType": "uint256",
          "name": "",
          "type": "uint256"
        }
      ],
      "name": "chanceRooms",
      "outputs": [
        {
          "internalType": "address",
          "name": "",
          "type": "address"
        }
      ],
      "stateMutability": "view",
      "type": "function"
    },
    {
      "inputs": [
        {
          "internalType": "int256",
          "name": "_length",
          "type": "int256"
        },
        {
          "internalType": "int256",
          "name": "_offset",
          "type": "int256"
        }
      ],
      "name": "chanceRoomsCloned",
      "outputs": [
        {
          "internalType": "address[]",
          "name": "",
          "type": "address[]"
        }
      ],
      "stateMutability": "view",
      "type": "function"
    },
    {
      "inputs": [
        {
          "internalType": "address",
          "name": "",
          "type": "address"
        },
        {
          "internalType": "uint256",
          "name": "",
          "type": "uint256"
        }
      ],
      "name": "creatorToRooms",
      "outputs": [
        {
          "internalType": "address",
          "name": "",
          "type": "address"
        }
      ],
      "stateMutability": "view",
      "type": "function"
    },
    {
      "inputs": [
        {
          "internalType": "string",
          "name": "info",
          "type": "string"
        },
        {
          "internalType": "string",
          "name": "baseURI",
          "type": "string"
        },
        {
          "internalType": "uint256",
          "name": "gateFee",
          "type": "uint256"
        },
        {
          "internalType": "uint256",
          "name": "percentCommission",
          "type": "uint256"
        },
        {
          "internalType": "uint256",
          "name": "userLimit",
          "type": "uint256"
        },
        {
          "internalType": "uint256",
          "name": "timeLimit",
          "type": "uint256"
        }
      ],
      "name": "newChanceRoom",
      "outputs": [],
      "stateMutability": "nonpayable",
      "type": "function"
    },
    {
      "inputs": [
        {
          "internalType": "address",
          "name": "_chanceRoomLibrary",
          "type": "address"
        }
      ],
      "name": "newChanceRoomLibrary",
      "outputs": [],
      "stateMutability": "nonpayable",
      "type": "function"
    },
    {
      "inputs": [
        {
          "internalType": "address",
          "name": "_NFTContractAddress",
          "type": "address"
        }
      ],
      "name": "newNFTContract",
      "outputs": [],
      "stateMutability": "nonpayable",
      "type": "function"
    },
    {
      "inputs": [
        {
          "internalType": "address",
          "name": "_randomNumberConsumer",
          "type": "address"
        }
      ],
      "name": "newRandomNumberConsumer",
      "outputs": [],
      "stateMutability": "nonpayable",
      "type": "function"
    },
    {
      "inputs": [],
      "name": "owner",
      "outputs": [
        {
          "internalType": "address",
          "name": "",
          "type": "address"
        }
      ],
      "stateMutability": "view",
      "type": "function"
    },
    {
      "inputs": [],
      "name": "randomNumberConsumer",
      "outputs": [
        {
          "internalType": "address",
          "name": "",
          "type": "address"
        }
      ],
      "stateMutability": "view",
      "type": "function"
    },
    {
      "inputs": [],
      "name": "registerContract",
      "outputs": [
        {
          "internalType": "address",
          "name": "",
          "type": "address"
        }
      ],
      "stateMutability": "view",
      "type": "function"
    },
    {
      "inputs": [],
      "name": "renounceOwnership",
      "outputs": [],
      "stateMutability": "nonpayable",
      "type": "function"
    },
    {
      "inputs": [
        {
          "internalType": "address",
          "name": "newOwner",
          "type": "address"
        }
      ],
      "name": "transferOwnership",
      "outputs": [],
      "stateMutability": "nonpayable",
      "type": "function"
    }
  ],
  "bytecode": "0x60806040523480156200001157600080fd5b50604051620020c9380380620020c9833981810160405281019062000037919062000627565b620000576200004b6200013860201b60201c565b6200014060201b60201c565b83600160006101000a81548173ffffffffffffffffffffffffffffffffffffffff021916908373ffffffffffffffffffffffffffffffffffffffff160217905550600160009054906101000a900473ffffffffffffffffffffffffffffffffffffffff16600560006101000a81548173ffffffffffffffffffffffffffffffffffffffff021916908373ffffffffffffffffffffffffffffffffffffffff1602179055506200010c836200020460201b60201c565b6200011d826200033460201b60201c565b6200012e816200046460201b60201c565b5050505062000775565b600033905090565b60008060009054906101000a900473ffffffffffffffffffffffffffffffffffffffff169050816000806101000a81548173ffffffffffffffffffffffffffffffffffffffff021916908373ffffffffffffffffffffffffffffffffffffffff1602179055508173ffffffffffffffffffffffffffffffffffffffff168173ffffffffffffffffffffffffffffffffffffffff167f8be0079c531659141344cd1fd0a4f28419497f9722a3daafe3b4186f6b6457e060405160405180910390a35050565b620002146200013860201b60201c565b73ffffffffffffffffffffffffffffffffffffffff166200023a6200059460201b60201c565b73ffffffffffffffffffffffffffffffffffffffff161462000293576040517f08c379a00000000000000000000000000000000000000000000000000000000081526004016200028a90620006fa565b60405180910390fd5b80600360006101000a81548173ffffffffffffffffffffffffffffffffffffffff021916908373ffffffffffffffffffffffffffffffffffffffff1602179055507fbba88e6e23bdc1165d7f9143b9264605235ada17a9a335d41b42b688f0d1ec2d600360009054906101000a900473ffffffffffffffffffffffffffffffffffffffff16426040516200032992919062000748565b60405180910390a150565b620003446200013860201b60201c565b73ffffffffffffffffffffffffffffffffffffffff166200036a6200059460201b60201c565b73ffffffffffffffffffffffffffffffffffffffff1614620003c3576040517f08c379a0000000000000000000000000000000000000000000000000000000008152600401620003ba90620006fa565b60405180910390fd5b80600460006101000a81548173ffffffffffffffffffffffffffffffffffffffff021916908373ffffffffffffffffffffffffffffffffffffffff1602179055507fc73979e992d22e193f7b5e662cd8c78074e65778072e4a967c02dfe18fca58af600460009054906101000a900473ffffffffffffffffffffffffffffffffffffffff16426040516200045992919062000748565b60405180910390a150565b620004746200013860201b60201c565b73ffffffffffffffffffffffffffffffffffffffff166200049a6200059460201b60201c565b73ffffffffffffffffffffffffffffffffffffffff1614620004f3576040517f08c379a0000000000000000000000000000000000000000000000000000000008152600401620004ea90620006fa565b60405180910390fd5b80600260006101000a81548173ffffffffffffffffffffffffffffffffffffffff021916908373ffffffffffffffffffffffffffffffffffffffff1602179055507f7e487d8b19c664bc86759c7a2d4b39dd066c32e710c107f87ce7045896d19f0d600260009054906101000a900473ffffffffffffffffffffffffffffffffffffffff16426040516200058992919062000748565b60405180910390a150565b60008060009054906101000a900473ffffffffffffffffffffffffffffffffffffffff16905090565b600080fd5b600073ffffffffffffffffffffffffffffffffffffffff82169050919050565b6000620005ef82620005c2565b9050919050565b6200060181620005e2565b81146200060d57600080fd5b50565b6000815190506200062181620005f6565b92915050565b60008060008060808587031215620006445762000643620005bd565b5b6000620006548782880162000610565b9450506020620006678782880162000610565b93505060406200067a8782880162000610565b92505060606200068d8782880162000610565b91505092959194509250565b600082825260208201905092915050565b7f4f776e61626c653a2063616c6c6572206973206e6f7420746865206f776e6572600082015250565b6000620006e260208362000699565b9150620006ef82620006aa565b602082019050919050565b600060208201905081810360008301526200071581620006d3565b9050919050565b6200072781620005e2565b82525050565b6000819050919050565b62000742816200072d565b82525050565b60006040820190506200075f60008301856200071c565b6200076e602083018462000737565b9392505050565b61194480620007856000396000f3fe608060405234801561001057600080fd5b50600436106100ea5760003560e01c8063b6ca8db91161008c578063dab95a4911610066578063dab95a4914610227578063f2fde38b14610243578063f4603bc81461025f578063f4af382a1461027b576100ea565b8063b6ca8db9146101bd578063c46aeda9146101db578063da7d1750146101f7576100ea565b8063715018a6116100c8578063715018a61461015b5780637feffff3146101655780638da5cb5b1461018357806396531cea146101a1576100ea565b806320d15dbb146100ef57806331c2273b1461011f57806346df22da1461013d575b600080fd5b61010960048036038101906101049190610f9a565b6102ab565b6040516101169190610fe9565b60405180910390f35b6101276102f9565b6040516101349190610fe9565b60405180910390f35b61014561031f565b6040516101529190610fe9565b60405180910390f35b610163610345565b005b61016d6103cd565b60405161017a9190610fe9565b60405180910390f35b61018b6103f3565b6040516101989190610fe9565b60405180910390f35b6101bb60048036038101906101b6919061114a565b61041c565b005b6101c5610762565b6040516101d29190610fe9565b60405180910390f35b6101f560048036038101906101f0919061120f565b610788565b005b610211600480360381019061020c9190611272565b6108a3565b60405161021e9190611370565b60405180910390f35b610241600480360381019061023c919061120f565b6109e4565b005b61025d6004803603810190610258919061120f565b610aff565b005b6102796004803603810190610274919061120f565b610bf7565b005b61029560048036038101906102909190611392565b610d12565b6040516102a29190610fe9565b60405180910390f35b600760205281600052604060002081815481106102c757600080fd5b906000526020600020016000915091509054906101000a900473ffffffffffffffffffffffffffffffffffffffff1681565b600460009054906101000a900473ffffffffffffffffffffffffffffffffffffffff1681565b600360009054906101000a900473ffffffffffffffffffffffffffffffffffffffff1681565b61034d610d51565b73ffffffffffffffffffffffffffffffffffffffff1661036b6103f3565b73ffffffffffffffffffffffffffffffffffffffff16146103c1576040517f08c379a00000000000000000000000000000000000000000000000000000000081526004016103b89061141c565b60405180910390fd5b6103cb6000610d59565b565b600160009054906101000a900473ffffffffffffffffffffffffffffffffffffffff1681565b60008060009054906101000a900473ffffffffffffffffffffffffffffffffffffffff16905090565b6000610426610d51565b9050600560009054906101000a900473ffffffffffffffffffffffffffffffffffffffff1673ffffffffffffffffffffffffffffffffffffffff1663b2dd5c07826040518263ffffffff1660e01b81526004016104839190610fe9565b60206040518083038186803b15801561049b57600080fd5b505afa1580156104af573d6000803e3d6000fd5b505050506040513d601f19601f820116820180604052508101906104d39190611474565b610512576040517f08c379a000000000000000000000000000000000000000000000000000000000815260040161050990611513565b60405180910390fd5b6000610555600260009054906101000a900473ffffffffffffffffffffffffffffffffffffffff1673ffffffffffffffffffffffffffffffffffffffff16610e1d565b905060008190508073ffffffffffffffffffffffffffffffffffffffff166303d3c2188a8a8a8a8a8a8a600360009054906101000a900473ffffffffffffffffffffffffffffffffffffffff16600460009054906101000a900473ffffffffffffffffffffffffffffffffffffffff166040518a63ffffffff1660e01b81526004016105e9999897969594939291906115b9565b600060405180830381600087803b15801561060357600080fd5b505af1158015610617573d6000803e3d6000fd5b50505050600760008473ffffffffffffffffffffffffffffffffffffffff1673ffffffffffffffffffffffffffffffffffffffff168152602001908152602001600020829080600181540180825580915050600190039060005260206000200160009091909190916101000a81548173ffffffffffffffffffffffffffffffffffffffff021916908373ffffffffffffffffffffffffffffffffffffffff1602179055506006829080600181540180825580915050600190039060005260206000200160009091909190916101000a81548173ffffffffffffffffffffffffffffffffffffffff021916908373ffffffffffffffffffffffffffffffffffffffff1602179055507fae8cb6c4846333e05a9f771a9e08f3c8934e9c43192e001645862e6bad7abbf2828460405161074f929190611654565b60405180910390a1505050505050505050565b600260009054906101000a900473ffffffffffffffffffffffffffffffffffffffff1681565b610790610d51565b73ffffffffffffffffffffffffffffffffffffffff166107ae6103f3565b73ffffffffffffffffffffffffffffffffffffffff1614610804576040517f08c379a00000000000000000000000000000000000000000000000000000000081526004016107fb9061141c565b60405180910390fd5b80600260006101000a81548173ffffffffffffffffffffffffffffffffffffffff021916908373ffffffffffffffffffffffffffffffffffffffff1602179055507f7e487d8b19c664bc86759c7a2d4b39dd066c32e710c107f87ce7045896d19f0d600260009054906101000a900473ffffffffffffffffffffffffffffffffffffffff164260405161089892919061167d565b60405180910390a150565b606060068054905083836108b791906116d5565b11156108c6576108c5611769565b5b60008367ffffffffffffffff8111156108e2576108e161101f565b5b6040519080825280602002602001820160405280156109105781602001602082028036833780820191505090505b5090506000808490505b858561092691906116d5565b8110156109d8576006818154811061094157610940611798565b5b9060005260206000200160009054906101000a900473ffffffffffffffffffffffffffffffffffffffff16838380610978906117c7565b94508151811061098b5761098a611798565b5b602002602001019073ffffffffffffffffffffffffffffffffffffffff16908173ffffffffffffffffffffffffffffffffffffffff168152505080806109d0906117c7565b91505061091a565b50819250505092915050565b6109ec610d51565b73ffffffffffffffffffffffffffffffffffffffff16610a0a6103f3565b73ffffffffffffffffffffffffffffffffffffffff1614610a60576040517f08c379a0000000000000000000000000000000000000000000000000000000008152600401610a579061141c565b60405180910390fd5b80600460006101000a81548173ffffffffffffffffffffffffffffffffffffffff021916908373ffffffffffffffffffffffffffffffffffffffff1602179055507fc73979e992d22e193f7b5e662cd8c78074e65778072e4a967c02dfe18fca58af600460009054906101000a900473ffffffffffffffffffffffffffffffffffffffff1642604051610af492919061167d565b60405180910390a150565b610b07610d51565b73ffffffffffffffffffffffffffffffffffffffff16610b256103f3565b73ffffffffffffffffffffffffffffffffffffffff1614610b7b576040517f08c379a0000000000000000000000000000000000000000000000000000000008152600401610b729061141c565b60405180910390fd5b600073ffffffffffffffffffffffffffffffffffffffff168173ffffffffffffffffffffffffffffffffffffffff161415610beb576040517f08c379a0000000000000000000000000000000000000000000000000000000008152600401610be290611882565b60405180910390fd5b610bf481610d59565b50565b610bff610d51565b73ffffffffffffffffffffffffffffffffffffffff16610c1d6103f3565b73ffffffffffffffffffffffffffffffffffffffff1614610c73576040517f08c379a0000000000000000000000000000000000000000000000000000000008152600401610c6a9061141c565b60405180910390fd5b80600360006101000a81548173ffffffffffffffffffffffffffffffffffffffff021916908373ffffffffffffffffffffffffffffffffffffffff1602179055507fbba88e6e23bdc1165d7f9143b9264605235ada17a9a335d41b42b688f0d1ec2d600360009054906101000a900473ffffffffffffffffffffffffffffffffffffffff1642604051610d0792919061167d565b60405180910390a150565b60068181548110610d2257600080fd5b906000526020600020016000915054906101000a900473ffffffffffffffffffffffffffffffffffffffff1681565b600033905090565b60008060009054906101000a900473ffffffffffffffffffffffffffffffffffffffff169050816000806101000a81548173ffffffffffffffffffffffffffffffffffffffff021916908373ffffffffffffffffffffffffffffffffffffffff1602179055508173ffffffffffffffffffffffffffffffffffffffff168173ffffffffffffffffffffffffffffffffffffffff167f8be0079c531659141344cd1fd0a4f28419497f9722a3daafe3b4186f6b6457e060405160405180910390a35050565b60006040517f3d602d80600a3d3981f3363d3d373d3d3d363d7300000000000000000000000081528260601b60148201527f5af43d82803e903d91602b57fd5bf3000000000000000000000000000000000060288201526037816000f0915050600073ffffffffffffffffffffffffffffffffffffffff168173ffffffffffffffffffffffffffffffffffffffff161415610eed576040517f08c379a0000000000000000000000000000000000000000000000000000000008152600401610ee4906118ee565b60405180910390fd5b919050565b6000604051905090565b600080fd5b600080fd5b600073ffffffffffffffffffffffffffffffffffffffff82169050919050565b6000610f3182610f06565b9050919050565b610f4181610f26565b8114610f4c57600080fd5b50565b600081359050610f5e81610f38565b92915050565b6000819050919050565b610f7781610f64565b8114610f8257600080fd5b50565b600081359050610f9481610f6e565b92915050565b60008060408385031215610fb157610fb0610efc565b5b6000610fbf85828601610f4f565b9250506020610fd085828601610f85565b9150509250929050565b610fe381610f26565b82525050565b6000602082019050610ffe6000830184610fda565b92915050565b600080fd5b600080fd5b6000601f19601f8301169050919050565b7f4e487b7100000000000000000000000000000000000000000000000000000000600052604160045260246000fd5b6110578261100e565b810181811067ffffffffffffffff821117156110765761107561101f565b5b80604052505050565b6000611089610ef2565b9050611095828261104e565b919050565b600067ffffffffffffffff8211156110b5576110b461101f565b5b6110be8261100e565b9050602081019050919050565b82818337600083830152505050565b60006110ed6110e88461109a565b61107f565b90508281526020810184848401111561110957611108611009565b5b6111148482856110cb565b509392505050565b600082601f83011261113157611130611004565b5b81356111418482602086016110da565b91505092915050565b60008060008060008060c0878903121561116757611166610efc565b5b600087013567ffffffffffffffff81111561118557611184610f01565b5b61119189828a0161111c565b965050602087013567ffffffffffffffff8111156111b2576111b1610f01565b5b6111be89828a0161111c565b95505060406111cf89828a01610f85565b94505060606111e089828a01610f85565b93505060806111f189828a01610f85565b92505060a061120289828a01610f85565b9150509295509295509295565b60006020828403121561122557611224610efc565b5b600061123384828501610f4f565b91505092915050565b6000819050919050565b61124f8161123c565b811461125a57600080fd5b50565b60008135905061126c81611246565b92915050565b6000806040838503121561128957611288610efc565b5b60006112978582860161125d565b92505060206112a88582860161125d565b9150509250929050565b600081519050919050565b600082825260208201905092915050565b6000819050602082019050919050565b6112e781610f26565b82525050565b60006112f983836112de565b60208301905092915050565b6000602082019050919050565b600061131d826112b2565b61132781856112bd565b9350611332836112ce565b8060005b8381101561136357815161134a88826112ed565b975061135583611305565b925050600181019050611336565b5085935050505092915050565b6000602082019050818103600083015261138a8184611312565b905092915050565b6000602082840312156113a8576113a7610efc565b5b60006113b684828501610f85565b91505092915050565b600082825260208201905092915050565b7f4f776e61626c653a2063616c6c6572206973206e6f7420746865206f776e6572600082015250565b60006114066020836113bf565b9150611411826113d0565b602082019050919050565b60006020820190508181036000830152611435816113f9565b9050919050565b60008115159050919050565b6114518161143c565b811461145c57600080fd5b50565b60008151905061146e81611448565b92915050565b60006020828403121561148a57611489610efc565b5b60006114988482850161145f565b91505092915050565b7f4f6e6c79205649502075736572732063616e20636c6f6e652074686520636f6e60008201527f74726163742e0000000000000000000000000000000000000000000000000000602082015250565b60006114fd6026836113bf565b9150611508826114a1565b604082019050919050565b6000602082019050818103600083015261152c816114f0565b9050919050565b600081519050919050565b60005b8381101561155c578082015181840152602081019050611541565b8381111561156b576000848401525b50505050565b600061157c82611533565b61158681856113bf565b935061159681856020860161153e565b61159f8161100e565b840191505092915050565b6115b381610f64565b82525050565b60006101208201905081810360008301526115d4818c611571565b905081810360208301526115e8818b611571565b90506115f7604083018a6115aa565b61160460608301896115aa565b61161160808301886115aa565b61161e60a08301876115aa565b61162b60c0830186610fda565b61163860e0830185610fda565b611646610100830184610fda565b9a9950505050505050505050565b60006040820190506116696000830185610fda565b6116766020830184610fda565b9392505050565b60006040820190506116926000830185610fda565b61169f60208301846115aa565b9392505050565b7f4e487b7100000000000000000000000000000000000000000000000000000000600052601160045260246000fd5b60006116e08261123c565b91506116eb8361123c565b9250817f7fffffffffffffffffffffffffffffffffffffffffffffffffffffffffffffff03831360008312151615611726576117256116a6565b5b817f800000000000000000000000000000000000000000000000000000000000000003831260008312161561175e5761175d6116a6565b5b828201905092915050565b7f4e487b7100000000000000000000000000000000000000000000000000000000600052600160045260246000fd5b7f4e487b7100000000000000000000000000000000000000000000000000000000600052603260045260246000fd5b60006117d282610f64565b91507fffffffffffffffffffffffffffffffffffffffffffffffffffffffffffffffff821415611805576118046116a6565b5b600182019050919050565b7f4f776e61626c653a206e6577206f776e657220697320746865207a65726f206160008201527f6464726573730000000000000000000000000000000000000000000000000000602082015250565b600061186c6026836113bf565b915061187782611810565b604082019050919050565b6000602082019050818103600083015261189b8161185f565b9050919050565b7f455243313136373a20637265617465206661696c656400000000000000000000600082015250565b60006118d86016836113bf565b91506118e3826118a2565b602082019050919050565b60006020820190508181036000830152611907816118cb565b905091905056fea2646970667358221220ce6e999b85e7e7cff96e6b8990e3af0f37a8d4a8d5bc0fa5f53b9587972c7cae64736f6c63430008090033",
  "linkReferences": {},
  "deployedLinkReferences": {}
}