{
  "_format": "hh-sol-artifact-1",
  "contractName": "Factory",
  "sourceName": "contracts/Factory.sol",
  "abi": [
    {
      "inputs": [
        {
          "internalType": "address",
          "name": "_randomNumberConsumer",
          "type": "address"
        },
        {
          "internalType": "address",
          "name": "_chanceRoomLibrary",
          "type": "address"
        }
      ],
      "stateMutability": "nonpayable",
      "type": "constructor"
    },
    {
      "anonymous": false,
      "inputs": [
        {
          "indexed": false,
          "internalType": "address",
          "name": "chanceRoom",
          "type": "address"
        },
        {
          "indexed": false,
          "internalType": "address",
          "name": "owner",
          "type": "address"
        }
      ],
      "name": "NewChanceRoom",
      "type": "event"
    },
    {
      "anonymous": false,
      "inputs": [
        {
          "indexed": true,
          "internalType": "address",
          "name": "previousOwner",
          "type": "address"
        },
        {
          "indexed": true,
          "internalType": "address",
          "name": "newOwner",
          "type": "address"
        }
      ],
      "name": "OwnershipTransferred",
      "type": "event"
    },
    {
      "inputs": [],
      "name": "chanceRoomLibrary",
      "outputs": [
        {
          "internalType": "address",
          "name": "",
          "type": "address"
        }
      ],
      "stateMutability": "view",
      "type": "function"
    },
    {
      "inputs": [],
      "name": "chanceroomsList",
      "outputs": [
        {
          "internalType": "contract ChanceRoom[]",
          "name": "",
          "type": "address[]"
        }
      ],
      "stateMutability": "view",
      "type": "function"
    },
    {
      "inputs": [
        {
          "internalType": "string",
          "name": "info",
          "type": "string"
        },
        {
          "internalType": "string",
          "name": "baseURI",
          "type": "string"
        },
        {
          "internalType": "uint256",
          "name": "gateFee",
          "type": "uint256"
        },
        {
          "internalType": "uint256",
          "name": "percentCommission",
          "type": "uint256"
        },
        {
          "internalType": "uint256",
          "name": "userLimit",
          "type": "uint256"
        },
        {
          "internalType": "uint256",
          "name": "timeLimit",
          "type": "uint256"
        }
      ],
      "name": "newChanceRoom",
      "outputs": [],
      "stateMutability": "nonpayable",
      "type": "function"
    },
    {
      "inputs": [
        {
          "internalType": "address",
          "name": "_chanceRoomLibrary",
          "type": "address"
        }
      ],
      "name": "newChanceRoomLibrary",
      "outputs": [],
      "stateMutability": "nonpayable",
      "type": "function"
    },
    {
      "inputs": [
        {
          "internalType": "address",
          "name": "_randomNumberConsumer",
          "type": "address"
        }
      ],
      "name": "newRandomNumberConsumer",
      "outputs": [],
      "stateMutability": "nonpayable",
      "type": "function"
    },
    {
      "inputs": [],
      "name": "owner",
      "outputs": [
        {
          "internalType": "address",
          "name": "",
          "type": "address"
        }
      ],
      "stateMutability": "view",
      "type": "function"
    },
    {
      "inputs": [],
      "name": "randomNumberConsumer",
      "outputs": [
        {
          "internalType": "address",
          "name": "",
          "type": "address"
        }
      ],
      "stateMutability": "view",
      "type": "function"
    },
    {
      "inputs": [],
      "name": "renounceOwnership",
      "outputs": [],
      "stateMutability": "nonpayable",
      "type": "function"
    },
    {
      "inputs": [
        {
          "internalType": "address",
          "name": "newOwner",
          "type": "address"
        }
      ],
      "name": "transferOwnership",
      "outputs": [],
      "stateMutability": "nonpayable",
      "type": "function"
    }
  ],
  "bytecode": "0x60806040523480156200001157600080fd5b506040516200143f3803806200143f833981810160405281019062000037919062000386565b620000576200004b6200008160201b60201c565b6200008960201b60201c565b62000068826200014d60201b60201c565b62000079816200022060201b60201c565b505062000450565b600033905090565b60008060009054906101000a900473ffffffffffffffffffffffffffffffffffffffff169050816000806101000a81548173ffffffffffffffffffffffffffffffffffffffff021916908373ffffffffffffffffffffffffffffffffffffffff1602179055508173ffffffffffffffffffffffffffffffffffffffff168173ffffffffffffffffffffffffffffffffffffffff167f8be0079c531659141344cd1fd0a4f28419497f9722a3daafe3b4186f6b6457e060405160405180910390a35050565b6200015d6200008160201b60201c565b73ffffffffffffffffffffffffffffffffffffffff1662000183620002f360201b60201c565b73ffffffffffffffffffffffffffffffffffffffff1614620001dc576040517f08c379a0000000000000000000000000000000000000000000000000000000008152600401620001d3906200042e565b60405180910390fd5b80600260006101000a81548173ffffffffffffffffffffffffffffffffffffffff021916908373ffffffffffffffffffffffffffffffffffffffff16021790555050565b620002306200008160201b60201c565b73ffffffffffffffffffffffffffffffffffffffff1662000256620002f360201b60201c565b73ffffffffffffffffffffffffffffffffffffffff1614620002af576040517f08c379a0000000000000000000000000000000000000000000000000000000008152600401620002a6906200042e565b60405180910390fd5b80600160006101000a81548173ffffffffffffffffffffffffffffffffffffffff021916908373ffffffffffffffffffffffffffffffffffffffff16021790555050565b60008060009054906101000a900473ffffffffffffffffffffffffffffffffffffffff16905090565b600080fd5b600073ffffffffffffffffffffffffffffffffffffffff82169050919050565b60006200034e8262000321565b9050919050565b620003608162000341565b81146200036c57600080fd5b50565b600081519050620003808162000355565b92915050565b60008060408385031215620003a0576200039f6200031c565b5b6000620003b0858286016200036f565b9250506020620003c3858286016200036f565b9150509250929050565b600082825260208201905092915050565b7f4f776e61626c653a2063616c6c6572206973206e6f7420746865206f776e6572600082015250565b600062000416602083620003cd565b91506200042382620003de565b602082019050919050565b60006020820190508181036000830152620004498162000407565b9050919050565b610fdf80620004606000396000f3fe608060405234801561001057600080fd5b50600436106100935760003560e01c8063b6ca8db911610066578063b6ca8db9146100fa578063c46aeda914610118578063e7e723dd14610134578063f2fde38b14610152578063f4603bc81461016e57610093565b806346df22da14610098578063715018a6146100b65780638da5cb5b146100c057806396531cea146100de575b600080fd5b6100a061018a565b6040516100ad91906108fa565b60405180910390f35b6100be6101b0565b005b6100c8610238565b6040516100d591906108fa565b60405180910390f35b6100f860048036038101906100f39190610aa5565b610261565b005b6101026103ec565b60405161010f91906108fa565b60405180910390f35b610132600480360381019061012d9190610b96565b610412565b005b61013c6104d2565b6040516101499190610cd1565b60405180910390f35b61016c60048036038101906101679190610b96565b610560565b005b61018860048036038101906101839190610b96565b610658565b005b600260009054906101000a900473ffffffffffffffffffffffffffffffffffffffff1681565b6101b8610718565b73ffffffffffffffffffffffffffffffffffffffff166101d6610238565b73ffffffffffffffffffffffffffffffffffffffff161461022c576040517f08c379a000000000000000000000000000000000000000000000000000000000815260040161022390610d50565b60405180910390fd5b6102366000610720565b565b60008060009054906101000a900473ffffffffffffffffffffffffffffffffffffffff16905090565b60006102a4600160009054906101000a900473ffffffffffffffffffffffffffffffffffffffff1673ffffffffffffffffffffffffffffffffffffffff166107e4565b905060008190508073ffffffffffffffffffffffffffffffffffffffff1663a8935e1489898989898933600260009054906101000a900473ffffffffffffffffffffffffffffffffffffffff166040518963ffffffff1660e01b8152600401610314989796959493929190610df6565b600060405180830381600087803b15801561032e57600080fd5b505af1158015610342573d6000803e3d6000fd5b505050506003819080600181540180825580915050600190039060005260206000200160009091909190916101000a81548173ffffffffffffffffffffffffffffffffffffffff021916908373ffffffffffffffffffffffffffffffffffffffff1602179055507fae8cb6c4846333e05a9f771a9e08f3c8934e9c43192e001645862e6bad7abbf282336040516103da929190610e82565b60405180910390a15050505050505050565b600160009054906101000a900473ffffffffffffffffffffffffffffffffffffffff1681565b61041a610718565b73ffffffffffffffffffffffffffffffffffffffff16610438610238565b73ffffffffffffffffffffffffffffffffffffffff161461048e576040517f08c379a000000000000000000000000000000000000000000000000000000000815260040161048590610d50565b60405180910390fd5b80600160006101000a81548173ffffffffffffffffffffffffffffffffffffffff021916908373ffffffffffffffffffffffffffffffffffffffff16021790555050565b6060600380548060200260200160405190810160405280929190818152602001828054801561055657602002820191906000526020600020905b8160009054906101000a900473ffffffffffffffffffffffffffffffffffffffff1673ffffffffffffffffffffffffffffffffffffffff168152602001906001019080831161050c575b5050505050905090565b610568610718565b73ffffffffffffffffffffffffffffffffffffffff16610586610238565b73ffffffffffffffffffffffffffffffffffffffff16146105dc576040517f08c379a00000000000000000000000000000000000000000000000000000000081526004016105d390610d50565b60405180910390fd5b600073ffffffffffffffffffffffffffffffffffffffff168173ffffffffffffffffffffffffffffffffffffffff16141561064c576040517f08c379a000000000000000000000000000000000000000000000000000000000815260040161064390610f1d565b60405180910390fd5b61065581610720565b50565b610660610718565b73ffffffffffffffffffffffffffffffffffffffff1661067e610238565b73ffffffffffffffffffffffffffffffffffffffff16146106d4576040517f08c379a00000000000000000000000000000000000000000000000000000000081526004016106cb90610d50565b60405180910390fd5b80600260006101000a81548173ffffffffffffffffffffffffffffffffffffffff021916908373ffffffffffffffffffffffffffffffffffffffff16021790555050565b600033905090565b60008060009054906101000a900473ffffffffffffffffffffffffffffffffffffffff169050816000806101000a81548173ffffffffffffffffffffffffffffffffffffffff021916908373ffffffffffffffffffffffffffffffffffffffff1602179055508173ffffffffffffffffffffffffffffffffffffffff168173ffffffffffffffffffffffffffffffffffffffff167f8be0079c531659141344cd1fd0a4f28419497f9722a3daafe3b4186f6b6457e060405160405180910390a35050565b60006040517f3d602d80600a3d3981f3363d3d373d3d3d363d7300000000000000000000000081528260601b60148201527f5af43d82803e903d91602b57fd5bf3000000000000000000000000000000000060288201526037816000f0915050600073ffffffffffffffffffffffffffffffffffffffff168173ffffffffffffffffffffffffffffffffffffffff1614156108b4576040517f08c379a00000000000000000000000000000000000000000000000000000000081526004016108ab90610f89565b60405180910390fd5b919050565b600073ffffffffffffffffffffffffffffffffffffffff82169050919050565b60006108e4826108b9565b9050919050565b6108f4816108d9565b82525050565b600060208201905061090f60008301846108eb565b92915050565b6000604051905090565b600080fd5b600080fd5b600080fd5b600080fd5b6000601f19601f8301169050919050565b7f4e487b7100000000000000000000000000000000000000000000000000000000600052604160045260246000fd5b61097c82610933565b810181811067ffffffffffffffff8211171561099b5761099a610944565b5b80604052505050565b60006109ae610915565b90506109ba8282610973565b919050565b600067ffffffffffffffff8211156109da576109d9610944565b5b6109e382610933565b9050602081019050919050565b82818337600083830152505050565b6000610a12610a0d846109bf565b6109a4565b905082815260208101848484011115610a2e57610a2d61092e565b5b610a398482856109f0565b509392505050565b600082601f830112610a5657610a55610929565b5b8135610a668482602086016109ff565b91505092915050565b6000819050919050565b610a8281610a6f565b8114610a8d57600080fd5b50565b600081359050610a9f81610a79565b92915050565b60008060008060008060c08789031215610ac257610ac161091f565b5b600087013567ffffffffffffffff811115610ae057610adf610924565b5b610aec89828a01610a41565b965050602087013567ffffffffffffffff811115610b0d57610b0c610924565b5b610b1989828a01610a41565b9550506040610b2a89828a01610a90565b9450506060610b3b89828a01610a90565b9350506080610b4c89828a01610a90565b92505060a0610b5d89828a01610a90565b9150509295509295509295565b610b73816108d9565b8114610b7e57600080fd5b50565b600081359050610b9081610b6a565b92915050565b600060208284031215610bac57610bab61091f565b5b6000610bba84828501610b81565b91505092915050565b600081519050919050565b600082825260208201905092915050565b6000819050602082019050919050565b6000819050919050565b6000610c14610c0f610c0a846108b9565b610bef565b6108b9565b9050919050565b6000610c2682610bf9565b9050919050565b6000610c3882610c1b565b9050919050565b610c4881610c2d565b82525050565b6000610c5a8383610c3f565b60208301905092915050565b6000602082019050919050565b6000610c7e82610bc3565b610c888185610bce565b9350610c9383610bdf565b8060005b83811015610cc4578151610cab8882610c4e565b9750610cb683610c66565b925050600181019050610c97565b5085935050505092915050565b60006020820190508181036000830152610ceb8184610c73565b905092915050565b600082825260208201905092915050565b7f4f776e61626c653a2063616c6c6572206973206e6f7420746865206f776e6572600082015250565b6000610d3a602083610cf3565b9150610d4582610d04565b602082019050919050565b60006020820190508181036000830152610d6981610d2d565b9050919050565b600081519050919050565b60005b83811015610d99578082015181840152602081019050610d7e565b83811115610da8576000848401525b50505050565b6000610db982610d70565b610dc38185610cf3565b9350610dd3818560208601610d7b565b610ddc81610933565b840191505092915050565b610df081610a6f565b82525050565b6000610100820190508181036000830152610e11818b610dae565b90508181036020830152610e25818a610dae565b9050610e346040830189610de7565b610e416060830188610de7565b610e4e6080830187610de7565b610e5b60a0830186610de7565b610e6860c08301856108eb565b610e7560e08301846108eb565b9998505050505050505050565b6000604082019050610e9760008301856108eb565b610ea460208301846108eb565b9392505050565b7f4f776e61626c653a206e6577206f776e657220697320746865207a65726f206160008201527f6464726573730000000000000000000000000000000000000000000000000000602082015250565b6000610f07602683610cf3565b9150610f1282610eab565b604082019050919050565b60006020820190508181036000830152610f3681610efa565b9050919050565b7f455243313136373a20637265617465206661696c656400000000000000000000600082015250565b6000610f73601683610cf3565b9150610f7e82610f3d565b602082019050919050565b60006020820190508181036000830152610fa281610f66565b905091905056fea2646970667358221220adc287bbf2a3f6368baa40c4640f6d82d40e6bd0b5c0d3e86129090fa027ad9264736f6c63430008090033",
  "linkReferences": {},
  "deployedLinkReferences": {}
}