{
  "_format": "hh-sol-artifact-1",
  "contractName": "Factory",
  "sourceName": "contracts/Factory.sol",
  "abi": [
    {
      "inputs": [
        {
          "internalType": "address",
          "name": "_randomNumberConsumer",
          "type": "address"
        },
        {
          "internalType": "address",
          "name": "_chanceRoomLibrary",
          "type": "address"
        }
      ],
      "stateMutability": "nonpayable",
      "type": "constructor"
    },
    {
      "anonymous": false,
      "inputs": [
        {
          "indexed": false,
          "internalType": "address",
          "name": "newLibrary",
          "type": "address"
        },
        {
          "indexed": false,
          "internalType": "address",
          "name": "updater",
          "type": "address"
        }
      ],
      "name": "ChanceRoomLibraryUpdated",
      "type": "event"
    },
    {
      "anonymous": false,
      "inputs": [
        {
          "indexed": false,
          "internalType": "address",
          "name": "chanceRoom",
          "type": "address"
        },
        {
          "indexed": false,
          "internalType": "address",
          "name": "owner",
          "type": "address"
        }
      ],
      "name": "NewChanceRoom",
      "type": "event"
    },
    {
      "anonymous": false,
      "inputs": [
        {
          "indexed": false,
          "internalType": "address",
          "name": "newConsumer",
          "type": "address"
        },
        {
          "indexed": false,
          "internalType": "address",
          "name": "updater",
          "type": "address"
        }
      ],
      "name": "RandomNumberConsumerUpdated",
      "type": "event"
    },
    {
      "anonymous": false,
      "inputs": [
        {
          "indexed": true,
          "internalType": "bytes32",
          "name": "role",
          "type": "bytes32"
        },
        {
          "indexed": true,
          "internalType": "bytes32",
          "name": "previousAdminRole",
          "type": "bytes32"
        },
        {
          "indexed": true,
          "internalType": "bytes32",
          "name": "newAdminRole",
          "type": "bytes32"
        }
      ],
      "name": "RoleAdminChanged",
      "type": "event"
    },
    {
      "anonymous": false,
      "inputs": [
        {
          "indexed": true,
          "internalType": "bytes32",
          "name": "role",
          "type": "bytes32"
        },
        {
          "indexed": true,
          "internalType": "address",
          "name": "account",
          "type": "address"
        },
        {
          "indexed": true,
          "internalType": "address",
          "name": "sender",
          "type": "address"
        }
      ],
      "name": "RoleGranted",
      "type": "event"
    },
    {
      "anonymous": false,
      "inputs": [
        {
          "indexed": true,
          "internalType": "bytes32",
          "name": "role",
          "type": "bytes32"
        },
        {
          "indexed": true,
          "internalType": "address",
          "name": "account",
          "type": "address"
        },
        {
          "indexed": true,
          "internalType": "address",
          "name": "sender",
          "type": "address"
        }
      ],
      "name": "RoleRevoked",
      "type": "event"
    },
    {
      "anonymous": false,
      "inputs": [
        {
          "indexed": true,
          "internalType": "address",
          "name": "userAddress",
          "type": "address"
        },
        {
          "indexed": false,
          "internalType": "string",
          "name": "info",
          "type": "string"
        }
      ],
      "name": "SetInfo",
      "type": "event"
    },
    {
      "anonymous": false,
      "inputs": [
        {
          "indexed": true,
          "internalType": "address",
          "name": "userAddress",
          "type": "address"
        },
        {
          "indexed": false,
          "internalType": "string",
          "name": "username",
          "type": "string"
        }
      ],
      "name": "SignIn",
      "type": "event"
    },
    {
      "inputs": [],
      "name": "ADMIN_ROLE",
      "outputs": [
        {
          "internalType": "bytes32",
          "name": "",
          "type": "bytes32"
        }
      ],
      "stateMutability": "view",
      "type": "function"
    },
    {
      "inputs": [],
      "name": "CLONER_ROLE",
      "outputs": [
        {
          "internalType": "bytes32",
          "name": "",
          "type": "bytes32"
        }
      ],
      "stateMutability": "view",
      "type": "function"
    },
    {
      "inputs": [],
      "name": "DEFAULT_ADMIN_ROLE",
      "outputs": [
        {
          "internalType": "bytes32",
          "name": "",
          "type": "bytes32"
        }
      ],
      "stateMutability": "view",
      "type": "function"
    },
    {
      "inputs": [],
      "name": "VIPfee",
      "outputs": [
        {
          "internalType": "uint256",
          "name": "",
          "type": "uint256"
        }
      ],
      "stateMutability": "view",
      "type": "function"
    },
    {
      "inputs": [
        {
          "internalType": "address",
          "name": "",
          "type": "address"
        }
      ],
      "name": "addrToUser",
      "outputs": [
        {
          "internalType": "string",
          "name": "username",
          "type": "string"
        },
        {
          "internalType": "string",
          "name": "info",
          "type": "string"
        },
        {
          "internalType": "bool",
          "name": "isVIP",
          "type": "bool"
        }
      ],
      "stateMutability": "view",
      "type": "function"
    },
    {
      "inputs": [],
      "name": "chanceRoomLibrary",
      "outputs": [
        {
          "internalType": "address",
          "name": "",
          "type": "address"
        }
      ],
      "stateMutability": "view",
      "type": "function"
    },
    {
      "inputs": [],
      "name": "chanceroomsList",
      "outputs": [
        {
          "internalType": "contract ChanceRoom[]",
          "name": "",
          "type": "address[]"
        }
      ],
      "stateMutability": "view",
      "type": "function"
    },
    {
      "inputs": [
        {
          "internalType": "bytes32",
          "name": "role",
          "type": "bytes32"
        }
      ],
      "name": "getRoleAdmin",
      "outputs": [
        {
          "internalType": "bytes32",
          "name": "",
          "type": "bytes32"
        }
      ],
      "stateMutability": "view",
      "type": "function"
    },
    {
      "inputs": [
        {
          "internalType": "bytes32",
          "name": "role",
          "type": "bytes32"
        },
        {
          "internalType": "uint256",
          "name": "index",
          "type": "uint256"
        }
      ],
      "name": "getRoleMember",
      "outputs": [
        {
          "internalType": "address",
          "name": "",
          "type": "address"
        }
      ],
      "stateMutability": "view",
      "type": "function"
    },
    {
      "inputs": [
        {
          "internalType": "bytes32",
          "name": "role",
          "type": "bytes32"
        }
      ],
      "name": "getRoleMemberCount",
      "outputs": [
        {
          "internalType": "uint256",
          "name": "",
          "type": "uint256"
        }
      ],
      "stateMutability": "view",
      "type": "function"
    },
    {
      "inputs": [
        {
          "internalType": "bytes32",
          "name": "role",
          "type": "bytes32"
        },
        {
          "internalType": "address",
          "name": "account",
          "type": "address"
        }
      ],
      "name": "grantRole",
      "outputs": [],
      "stateMutability": "nonpayable",
      "type": "function"
    },
    {
      "inputs": [
        {
          "internalType": "bytes32",
          "name": "role",
          "type": "bytes32"
        },
        {
          "internalType": "address",
          "name": "account",
          "type": "address"
        }
      ],
      "name": "hasRole",
      "outputs": [
        {
          "internalType": "bool",
          "name": "",
          "type": "bool"
        }
      ],
      "stateMutability": "view",
      "type": "function"
    },
    {
      "inputs": [
        {
          "internalType": "string",
          "name": "info",
          "type": "string"
        },
        {
          "internalType": "string",
          "name": "baseURI",
          "type": "string"
        },
        {
          "internalType": "uint256",
          "name": "gateFee",
          "type": "uint256"
        },
        {
          "internalType": "uint256",
          "name": "percentCommission",
          "type": "uint256"
        },
        {
          "internalType": "uint256",
          "name": "userLimit",
          "type": "uint256"
        },
        {
          "internalType": "uint256",
          "name": "timeLimit",
          "type": "uint256"
        }
      ],
      "name": "newChanceRoom",
      "outputs": [],
      "stateMutability": "nonpayable",
      "type": "function"
    },
    {
      "inputs": [
        {
          "internalType": "address",
          "name": "_chanceRoomLibrary",
          "type": "address"
        }
      ],
      "name": "newChanceRoomLibrary",
      "outputs": [],
      "stateMutability": "nonpayable",
      "type": "function"
    },
    {
      "inputs": [
        {
          "internalType": "address",
          "name": "_randomNumberConsumer",
          "type": "address"
        }
      ],
      "name": "newRandomNumberConsumer",
      "outputs": [],
      "stateMutability": "nonpayable",
      "type": "function"
    },
    {
      "inputs": [],
      "name": "randomNumberConsumer",
      "outputs": [
        {
          "internalType": "address",
          "name": "",
          "type": "address"
        }
      ],
      "stateMutability": "view",
      "type": "function"
    },
    {
      "inputs": [
        {
          "internalType": "bytes32",
          "name": "role",
          "type": "bytes32"
        },
        {
          "internalType": "address",
          "name": "account",
          "type": "address"
        }
      ],
      "name": "renounceRole",
      "outputs": [],
      "stateMutability": "nonpayable",
      "type": "function"
    },
    {
      "inputs": [
        {
          "internalType": "bytes32",
          "name": "role",
          "type": "bytes32"
        },
        {
          "internalType": "address",
          "name": "account",
          "type": "address"
        }
      ],
      "name": "revokeRole",
      "outputs": [],
      "stateMutability": "nonpayable",
      "type": "function"
    },
    {
      "inputs": [
        {
          "internalType": "string",
          "name": "info",
          "type": "string"
        }
      ],
      "name": "setInfo",
      "outputs": [],
      "stateMutability": "nonpayable",
      "type": "function"
    },
    {
      "inputs": [
        {
          "internalType": "uint256",
          "name": "_fee",
          "type": "uint256"
        }
      ],
      "name": "setVIPfee",
      "outputs": [],
      "stateMutability": "nonpayable",
      "type": "function"
    },
    {
      "inputs": [
        {
          "internalType": "address",
          "name": "_presenter",
          "type": "address"
        },
        {
          "internalType": "string",
          "name": "_username",
          "type": "string"
        },
        {
          "internalType": "string",
          "name": "_info",
          "type": "string"
        }
      ],
      "name": "signIn",
      "outputs": [],
      "stateMutability": "nonpayable",
      "type": "function"
    },
    {
      "inputs": [
        {
          "internalType": "address",
          "name": "presenter",
          "type": "address"
        },
        {
          "internalType": "string",
          "name": "username",
          "type": "string"
        },
        {
          "internalType": "string",
          "name": "info",
          "type": "string"
        }
      ],
      "name": "signInVIP",
      "outputs": [],
      "stateMutability": "payable",
      "type": "function"
    },
    {
      "inputs": [
        {
          "internalType": "bytes4",
          "name": "interfaceId",
          "type": "bytes4"
        }
      ],
      "name": "supportsInterface",
      "outputs": [
        {
          "internalType": "bool",
          "name": "",
          "type": "bool"
        }
      ],
      "stateMutability": "view",
      "type": "function"
    },
    {
      "inputs": [
        {
          "internalType": "address",
          "name": "userAddr",
          "type": "address"
        }
      ],
      "name": "userInfo",
      "outputs": [
        {
          "internalType": "string",
          "name": "username",
          "type": "string"
        },
        {
          "internalType": "string",
          "name": "info",
          "type": "string"
        },
        {
          "internalType": "bool",
          "name": "isVIP",
          "type": "bool"
        }
      ],
      "stateMutability": "view",
      "type": "function"
    },
    {
      "inputs": [
        {
          "internalType": "string",
          "name": "",
          "type": "string"
        }
      ],
      "name": "userToAddr",
      "outputs": [
        {
          "internalType": "address",
          "name": "",
          "type": "address"
        }
      ],
      "stateMutability": "view",
      "type": "function"
    },
    {
      "inputs": [],
      "name": "withdraw",
      "outputs": [],
      "stateMutability": "nonpayable",
      "type": "function"
    }
  ],
  "bytecode": "0x60806040523480156200001157600080fd5b5060405162003c1338038062003c1383398181016040528101906200003791906200066d565b6200005b6000801b6200004f6200010760201b60201c565b6200010f60201b60201c565b6200009c7fa49807205ce4d355092ef5a8a18f56e8913cf4a201fbe287825b095693c21775620000906200010760201b60201c565b6200010f60201b60201c565b620000dd7f6857e419e8b269dc8dab45354d35c4655bcf3ccaac9a506b459c9b706445a8ae620000d16200010760201b60201c565b6200010f60201b60201c565b620000ee826200015760201b60201c565b620000ff816200028a60201b60201c565b50506200079b565b600033905090565b620001268282620003bd60201b620016981760201c565b620001528160016000858152602001908152602001600020620003d360201b620016a61790919060201c565b505050565b620001987fa49807205ce4d355092ef5a8a18f56e8913cf4a201fbe287825b095693c217756200018c6200010760201b60201c565b6200040b60201b60201c565b620001da576040517f08c379a0000000000000000000000000000000000000000000000000000000008152600401620001d1906200073b565b60405180910390fd5b80600760006101000a81548173ffffffffffffffffffffffffffffffffffffffff021916908373ffffffffffffffffffffffffffffffffffffffff1602179055507fc3420b4fb01375b75824f465544727a7d8d6b3e54faeebf00bba49d60369bb97600760009054906101000a900473ffffffffffffffffffffffffffffffffffffffff166200026f6200010760201b60201c565b6040516200027f9291906200076e565b60405180910390a150565b620002cb7fa49807205ce4d355092ef5a8a18f56e8913cf4a201fbe287825b095693c21775620002bf6200010760201b60201c565b6200040b60201b60201c565b6200030d576040517f08c379a000000000000000000000000000000000000000000000000000000000815260040162000304906200073b565b60405180910390fd5b80600660006101000a81548173ffffffffffffffffffffffffffffffffffffffff021916908373ffffffffffffffffffffffffffffffffffffffff1602179055507f419dc5c4eeba8af5920b71463ccb412e0fe053cc7865caa66efb085bf052eb33600660009054906101000a900473ffffffffffffffffffffffffffffffffffffffff16620003a26200010760201b60201c565b604051620003b29291906200076e565b60405180910390a150565b620003cf82826200047560201b60201c565b5050565b600062000403836000018373ffffffffffffffffffffffffffffffffffffffff1660001b6200056660201b60201c565b905092915050565b600080600084815260200190815260200160002060000160008373ffffffffffffffffffffffffffffffffffffffff1673ffffffffffffffffffffffffffffffffffffffff16815260200190815260200160002060009054906101000a900460ff16905092915050565b6200048782826200040b60201b60201c565b6200056257600160008084815260200190815260200160002060000160008373ffffffffffffffffffffffffffffffffffffffff1673ffffffffffffffffffffffffffffffffffffffff16815260200190815260200160002060006101000a81548160ff021916908315150217905550620005076200010760201b60201c565b73ffffffffffffffffffffffffffffffffffffffff168173ffffffffffffffffffffffffffffffffffffffff16837f2f8788117e7eff1d82e926ec794901d17c78024a50270940304540a733656f0d60405160405180910390a45b5050565b60006200057a8383620005e060201b60201c565b620005d5578260000182908060018154018082558091505060019003906000526020600020016000909190919091505582600001805490508360010160008481526020019081526020016000208190555060019050620005da565b600090505b92915050565b600080836001016000848152602001908152602001600020541415905092915050565b600080fd5b600073ffffffffffffffffffffffffffffffffffffffff82169050919050565b6000620006358262000608565b9050919050565b620006478162000628565b81146200065357600080fd5b50565b60008151905062000667816200063c565b92915050565b6000806040838503121562000687576200068662000603565b5b6000620006978582860162000656565b9250506020620006aa8582860162000656565b9150509250929050565b600082825260208201905092915050565b7f6d75737420686176652041646d696e20726f6c6520746f2063616c6c2074686960008201527f732066756e6374696f6e00000000000000000000000000000000000000000000602082015250565b600062000723602a83620006b4565b91506200073082620006c5565b604082019050919050565b60006020820190508181036000830152620007568162000714565b9050919050565b620007688162000628565b82525050565b60006040820190506200078560008301856200075d565b6200079460208301846200075d565b9392505050565b61346880620007ab6000396000f3fe6080604052600436106101815760003560e01c806396531cea116100d1578063d1204ea91161008a578063e7e723dd11610064578063e7e723dd1461059b578063eef0d8d7146105c6578063f4603bc8146105ef578063f769d3131461061857610181565b8063d1204ea914610519578063d547741f14610535578063e5f388011461055e57610181565b806396531cea146103f5578063a217fddf1461041e578063b6ca8db914610449578063c46aeda914610474578063ca15c8731461049d578063cfcddeb0146104da57610181565b80633ccfd60b1161013e57806375b238fc1161011857806375b238fc146103275780639010d07c1461035257806391d148541461038f578063937f6e77146103cc57610181565b80633ccfd60b146102bc57806346df22da146102d35780635e4e2187146102fe57610181565b806301ffc9a7146101865780631959a002146101c35780632072162414610202578063248a9ca31461022d5780632f2ff15d1461026a57806336568abe14610293575b600080fd5b34801561019257600080fd5b506101ad60048036038101906101a89190612396565b610643565b6040516101ba91906123de565b60405180910390f35b3480156101cf57600080fd5b506101ea60048036038101906101e59190612457565b6106bd565b6040516101f99392919061251d565b60405180910390f35b34801561020e57600080fd5b506102176108bb565b604051610224919061257b565b60405180910390f35b34801561023957600080fd5b50610254600480360381019061024f91906125cc565b6108c1565b6040516102619190612608565b60405180910390f35b34801561027657600080fd5b50610291600480360381019061028c9190612623565b6108e0565b005b34801561029f57600080fd5b506102ba60048036038101906102b59190612623565b610914565b005b3480156102c857600080fd5b506102d1610948565b005b3480156102df57600080fd5b506102e86109f1565b6040516102f59190612672565b60405180910390f35b34801561030a57600080fd5b50610325600480360381019061032091906126b9565b610a17565b005b34801561033357600080fd5b5061033c610a91565b6040516103499190612608565b60405180910390f35b34801561035e57600080fd5b50610379600480360381019061037491906126e6565b610ab5565b6040516103869190612672565b60405180910390f35b34801561039b57600080fd5b506103b660048036038101906103b19190612623565b610ae4565b6040516103c391906123de565b60405180910390f35b3480156103d857600080fd5b506103f360048036038101906103ee919061285b565b610b4e565b005b34801561040157600080fd5b5061041c600480360381019061041791906128a4565b610ce2565b005b34801561042a57600080fd5b50610433610eeb565b6040516104409190612608565b60405180910390f35b34801561045557600080fd5b5061045e610ef2565b60405161046b9190612672565b60405180910390f35b34801561048057600080fd5b5061049b60048036038101906104969190612457565b610f18565b005b3480156104a957600080fd5b506104c460048036038101906104bf91906125cc565b61102e565b6040516104d1919061257b565b60405180910390f35b3480156104e657600080fd5b5061050160048036038101906104fc9190612457565b611052565b6040516105109392919061251d565b60405180910390f35b610533600480360381019061052e9190612969565b611199565b005b34801561054157600080fd5b5061055c60048036038101906105579190612623565b611281565b005b34801561056a57600080fd5b506105856004803603810190610580919061285b565b6112b5565b6040516105929190612672565b60405180910390f35b3480156105a757600080fd5b506105b06112fe565b6040516105bd9190612b02565b60405180910390f35b3480156105d257600080fd5b506105ed60048036038101906105e89190612969565b61138c565b005b3480156105fb57600080fd5b5061061660048036038101906106119190612457565b61155e565b005b34801561062457600080fd5b5061062d611674565b60405161063a9190612608565b60405180910390f35b60007f5a05180f000000000000000000000000000000000000000000000000000000007bffffffffffffffffffffffffffffffffffffffffffffffffffffffff1916827bffffffffffffffffffffffffffffffffffffffffffffffffffffffff191614806106b657506106b5826116d6565b5b9050919050565b6060806000600460008573ffffffffffffffffffffffffffffffffffffffff1673ffffffffffffffffffffffffffffffffffffffff168152602001908152602001600020600001600460008673ffffffffffffffffffffffffffffffffffffffff1673ffffffffffffffffffffffffffffffffffffffff168152602001908152602001600020600101600460008773ffffffffffffffffffffffffffffffffffffffff1673ffffffffffffffffffffffffffffffffffffffff16815260200190815260200160002060020160009054906101000a900460ff168280546107a290612b53565b80601f01602080910402602001604051908101604052809291908181526020018280546107ce90612b53565b801561081b5780601f106107f05761010080835404028352916020019161081b565b820191906000526020600020905b8154815290600101906020018083116107fe57829003601f168201915b5050505050925081805461082e90612b53565b80601f016020809104026020016040519081016040528092919081815260200182805461085a90612b53565b80156108a75780601f1061087c576101008083540402835291602001916108a7565b820191906000526020600020905b81548152906001019060200180831161088a57829003601f168201915b505050505091509250925092509193909250565b60035481565b6000806000838152602001908152602001600020600101549050919050565b6108ea8282611750565b61090f81600160008581526020019081526020016000206116a690919063ffffffff16565b505050565b61091e8282611779565b61094381600160008581526020019081526020016000206117fc90919063ffffffff16565b505050565b61095c6000801b61095761182c565b610ae4565b61099b576040517f08c379a000000000000000000000000000000000000000000000000000000000815260040161099290612bf7565b60405180910390fd5b60006109a561182c565b90508073ffffffffffffffffffffffffffffffffffffffff166108fc479081150290604051600060405180830381858888f193505050501580156109ed573d6000803e3d6000fd5b5050565b600760009054906101000a900473ffffffffffffffffffffffffffffffffffffffff1681565b610a487fa49807205ce4d355092ef5a8a18f56e8913cf4a201fbe287825b095693c21775610a4361182c565b610ae4565b610a87576040517f08c379a0000000000000000000000000000000000000000000000000000000008152600401610a7e90612bf7565b60405180910390fd5b8060038190555050565b7fa49807205ce4d355092ef5a8a18f56e8913cf4a201fbe287825b095693c2177581565b6000610adc826001600086815260200190815260200160002061183490919063ffffffff16565b905092915050565b600080600084815260200190815260200160002060000160008373ffffffffffffffffffffffffffffffffffffffff1673ffffffffffffffffffffffffffffffffffffffff16815260200190815260200160002060009054906101000a900460ff16905092915050565b600060046000610b5c61182c565b73ffffffffffffffffffffffffffffffffffffffff1673ffffffffffffffffffffffffffffffffffffffff1681526020019081526020016000206000018054610ba490612b53565b90501415610be7576040517f08c379a0000000000000000000000000000000000000000000000000000000008152600401610bde90612c63565b60405180910390fd5b600081511415610c2c576040517f08c379a0000000000000000000000000000000000000000000000000000000008152600401610c2390612ccf565b60405180910390fd5b8060046000610c3961182c565b73ffffffffffffffffffffffffffffffffffffffff1673ffffffffffffffffffffffffffffffffffffffff1681526020019081526020016000206001019080519060200190610c89929190612287565b50610c9261182c565b73ffffffffffffffffffffffffffffffffffffffff167fed2dc10fbb70c5dca9665145aee8b5f838c00bd7fe21abfe08513209a53bfd0482604051610cd79190612cef565b60405180910390a250565b610d137f6857e419e8b269dc8dab45354d35c4655bcf3ccaac9a506b459c9b706445a8ae610d0e61182c565b610ae4565b610d52576040517f08c379a0000000000000000000000000000000000000000000000000000000008152600401610d4990612bf7565b60405180910390fd5b6000610d95600660009054906101000a900473ffffffffffffffffffffffffffffffffffffffff1673ffffffffffffffffffffffffffffffffffffffff1661184e565b905060008190508073ffffffffffffffffffffffffffffffffffffffff1663a8935e14898989898989610dc661182c565b600760009054906101000a900473ffffffffffffffffffffffffffffffffffffffff166040518963ffffffff1660e01b8152600401610e0c989796959493929190612d11565b600060405180830381600087803b158015610e2657600080fd5b505af1158015610e3a573d6000803e3d6000fd5b505050506008819080600181540180825580915050600190039060005260206000200160009091909190916101000a81548173ffffffffffffffffffffffffffffffffffffffff021916908373ffffffffffffffffffffffffffffffffffffffff1602179055507fae8cb6c4846333e05a9f771a9e08f3c8934e9c43192e001645862e6bad7abbf282610ecb61182c565b604051610ed9929190612d9d565b60405180910390a15050505050505050565b6000801b81565b600660009054906101000a900473ffffffffffffffffffffffffffffffffffffffff1681565b610f497fa49807205ce4d355092ef5a8a18f56e8913cf4a201fbe287825b095693c21775610f4461182c565b610ae4565b610f88576040517f08c379a0000000000000000000000000000000000000000000000000000000008152600401610f7f90612bf7565b60405180910390fd5b80600660006101000a81548173ffffffffffffffffffffffffffffffffffffffff021916908373ffffffffffffffffffffffffffffffffffffffff1602179055507f419dc5c4eeba8af5920b71463ccb412e0fe053cc7865caa66efb085bf052eb33600660009054906101000a900473ffffffffffffffffffffffffffffffffffffffff1661101561182c565b604051611023929190612d9d565b60405180910390a150565b600061104b60016000848152602001908152602001600020611923565b9050919050565b600460205280600052604060002060009150905080600001805461107590612b53565b80601f01602080910402602001604051908101604052809291908181526020018280546110a190612b53565b80156110ee5780601f106110c3576101008083540402835291602001916110ee565b820191906000526020600020905b8154815290600101906020018083116110d157829003601f168201915b50505050509080600101805461110390612b53565b80601f016020809104026020016040519081016040528092919081815260200182805461112f90612b53565b801561117c5780601f106111515761010080835404028352916020019161117c565b820191906000526020600020905b81548152906001019060200180831161115f57829003601f168201915b5050505050908060020160009054906101000a900460ff16905083565b6003543410156111de576040517f08c379a00000000000000000000000000000000000000000000000000000000081526004016111d590612e12565b60405180910390fd5b6111e983838361138c565b61121a7f6857e419e8b269dc8dab45354d35c4655bcf3ccaac9a506b459c9b706445a8ae61121561182c565b611938565b60016004600061122861182c565b73ffffffffffffffffffffffffffffffffffffffff1673ffffffffffffffffffffffffffffffffffffffff16815260200190815260200160002060020160006101000a81548160ff021916908315150217905550505050565b61128b828261196c565b6112b081600160008581526020019081526020016000206117fc90919063ffffffff16565b505050565b6005818051602081018201805184825260208301602085012081835280955050505050506000915054906101000a900473ffffffffffffffffffffffffffffffffffffffff1681565b6060600880548060200260200160405190810160405280929190818152602001828054801561138257602002820191906000526020600020905b8160009054906101000a900473ffffffffffffffffffffffffffffffffffffffff1673ffffffffffffffffffffffffffffffffffffffff1681526020019060010190808311611338575b5050505050905090565b60006004600061139a61182c565b73ffffffffffffffffffffffffffffffffffffffff1673ffffffffffffffffffffffffffffffffffffffff16815260200190815260200160002060000180546113e290612b53565b905014611424576040517f08c379a000000000000000000000000000000000000000000000000000000000815260040161141b90612e7e565b60405180910390fd5b600073ffffffffffffffffffffffffffffffffffffffff168373ffffffffffffffffffffffffffffffffffffffff1614158015611494575061146461182c565b73ffffffffffffffffffffffffffffffffffffffff168373ffffffffffffffffffffffffffffffffffffffff1614155b6114d3576040517f08c379a00000000000000000000000000000000000000000000000000000000081526004016114ca90612eea565b60405180910390fd5b60026114dd61182c565b9080600181540180825580915050600190039060005260206000200160009091909190916101000a81548173ffffffffffffffffffffffffffffffffffffffff021916908373ffffffffffffffffffffffffffffffffffffffff16021790555061154682611995565b60008151146115595761155881610b4e565b5b505050565b61158f7fa49807205ce4d355092ef5a8a18f56e8913cf4a201fbe287825b095693c2177561158a61182c565b610ae4565b6115ce576040517f08c379a00000000000000000000000000000000000000000000000000000000081526004016115c590612bf7565b60405180910390fd5b80600760006101000a81548173ffffffffffffffffffffffffffffffffffffffff021916908373ffffffffffffffffffffffffffffffffffffffff1602179055507fc3420b4fb01375b75824f465544727a7d8d6b3e54faeebf00bba49d60369bb97600760009054906101000a900473ffffffffffffffffffffffffffffffffffffffff1661165b61182c565b604051611669929190612d9d565b60405180910390a150565b7f6857e419e8b269dc8dab45354d35c4655bcf3ccaac9a506b459c9b706445a8ae81565b6116a28282611ba0565b5050565b60006116ce836000018373ffffffffffffffffffffffffffffffffffffffff1660001b611c80565b905092915050565b60007f7965db0b000000000000000000000000000000000000000000000000000000007bffffffffffffffffffffffffffffffffffffffffffffffffffffffff1916827bffffffffffffffffffffffffffffffffffffffffffffffffffffffff19161480611749575061174882611cf0565b5b9050919050565b611759826108c1565b61176a8161176561182c565b611d5a565b6117748383611ba0565b505050565b61178161182c565b73ffffffffffffffffffffffffffffffffffffffff168173ffffffffffffffffffffffffffffffffffffffff16146117ee576040517f08c379a00000000000000000000000000000000000000000000000000000000081526004016117e590612f7c565b60405180910390fd5b6117f88282611df7565b5050565b6000611824836000018373ffffffffffffffffffffffffffffffffffffffff1660001b611ed8565b905092915050565b600033905090565b60006118438360000183611fec565b60001c905092915050565b60006040517f3d602d80600a3d3981f3363d3d373d3d3d363d7300000000000000000000000081528260601b60148201527f5af43d82803e903d91602b57fd5bf3000000000000000000000000000000000060288201526037816000f0915050600073ffffffffffffffffffffffffffffffffffffffff168173ffffffffffffffffffffffffffffffffffffffff16141561191e576040517f08c379a000000000000000000000000000000000000000000000000000000000815260040161191590612fe8565b60405180910390fd5b919050565b600061193182600001612017565b9050919050565b6119428282611698565b61196781600160008581526020019081526020016000206116a690919063ffffffff16565b505050565b611975826108c1565b6119868161198161182c565b611d5a565b6119908383611df7565b505050565b600073ffffffffffffffffffffffffffffffffffffffff166005826040516119bd9190613044565b908152602001604051809103902060009054906101000a900473ffffffffffffffffffffffffffffffffffffffff1673ffffffffffffffffffffffffffffffffffffffff1614611a42576040517f08c379a0000000000000000000000000000000000000000000000000000000008152600401611a39906130cd565b60405180910390fd5b6000815111611a86576040517f08c379a0000000000000000000000000000000000000000000000000000000008152600401611a7d90613139565b60405180910390fd5b8060046000611a9361182c565b73ffffffffffffffffffffffffffffffffffffffff1673ffffffffffffffffffffffffffffffffffffffff1681526020019081526020016000206000019080519060200190611ae3929190612287565b50611aec61182c565b600582604051611afc9190613044565b908152602001604051809103902060006101000a81548173ffffffffffffffffffffffffffffffffffffffff021916908373ffffffffffffffffffffffffffffffffffffffff160217905550611b5061182c565b73ffffffffffffffffffffffffffffffffffffffff167f0a2abf815300d275c4387b4e1f4e74e0cd938c5301ff1223061fdc158e12f04c82604051611b959190612cef565b60405180910390a250565b611baa8282610ae4565b611c7c57600160008084815260200190815260200160002060000160008373ffffffffffffffffffffffffffffffffffffffff1673ffffffffffffffffffffffffffffffffffffffff16815260200190815260200160002060006101000a81548160ff021916908315150217905550611c2161182c565b73ffffffffffffffffffffffffffffffffffffffff168173ffffffffffffffffffffffffffffffffffffffff16837f2f8788117e7eff1d82e926ec794901d17c78024a50270940304540a733656f0d60405160405180910390a45b5050565b6000611c8c8383612028565b611ce5578260000182908060018154018082558091505060019003906000526020600020016000909190919091505582600001805490508360010160008481526020019081526020016000208190555060019050611cea565b600090505b92915050565b60007f01ffc9a7000000000000000000000000000000000000000000000000000000007bffffffffffffffffffffffffffffffffffffffffffffffffffffffff1916827bffffffffffffffffffffffffffffffffffffffffffffffffffffffff1916149050919050565b611d648282610ae4565b611df357611d898173ffffffffffffffffffffffffffffffffffffffff16601461204b565b611d978360001c602061204b565b604051602001611da89291906131f1565b6040516020818303038152906040526040517f08c379a0000000000000000000000000000000000000000000000000000000008152600401611dea9190612cef565b60405180910390fd5b5050565b611e018282610ae4565b15611ed457600080600084815260200190815260200160002060000160008373ffffffffffffffffffffffffffffffffffffffff1673ffffffffffffffffffffffffffffffffffffffff16815260200190815260200160002060006101000a81548160ff021916908315150217905550611e7961182c565b73ffffffffffffffffffffffffffffffffffffffff168173ffffffffffffffffffffffffffffffffffffffff16837ff6391f5c32d9c69d2a47ea670b442974b53935d1edc7fd64eb21e047a839171b60405160405180910390a45b5050565b60008083600101600084815260200190815260200160002054905060008114611fe0576000600182611f0a919061325a565b9050600060018660000180549050611f22919061325a565b9050818114611f91576000866000018281548110611f4357611f4261328e565b5b9060005260206000200154905080876000018481548110611f6757611f6661328e565b5b90600052602060002001819055508387600101600083815260200190815260200160002081905550505b85600001805480611fa557611fa46132bd565b5b600190038181906000526020600020016000905590558560010160008681526020019081526020016000206000905560019350505050611fe6565b60009150505b92915050565b60008260000182815481106120045761200361328e565b5b9060005260206000200154905092915050565b600081600001805490509050919050565b600080836001016000848152602001908152602001600020541415905092915050565b60606000600283600261205e91906132ec565b6120689190613346565b67ffffffffffffffff81111561208157612080612730565b5b6040519080825280601f01601f1916602001820160405280156120b35781602001600182028036833780820191505090505b5090507f3000000000000000000000000000000000000000000000000000000000000000816000815181106120eb576120ea61328e565b5b60200101907effffffffffffffffffffffffffffffffffffffffffffffffffffffffffffff1916908160001a9053507f78000000000000000000000000000000000000000000000000000000000000008160018151811061214f5761214e61328e565b5b60200101907effffffffffffffffffffffffffffffffffffffffffffffffffffffffffffff1916908160001a9053506000600184600261218f91906132ec565b6121999190613346565b90505b6001811115612239577f3031323334353637383961626364656600000000000000000000000000000000600f8616601081106121db576121da61328e565b5b1a60f81b8282815181106121f2576121f161328e565b5b60200101907effffffffffffffffffffffffffffffffffffffffffffffffffffffffffffff1916908160001a905350600485901c9450806122329061339c565b905061219c565b506000841461227d576040517f08c379a000000000000000000000000000000000000000000000000000000000815260040161227490613412565b60405180910390fd5b8091505092915050565b82805461229390612b53565b90600052602060002090601f0160209004810192826122b557600085556122fc565b82601f106122ce57805160ff19168380011785556122fc565b828001600101855582156122fc579182015b828111156122fb5782518255916020019190600101906122e0565b5b509050612309919061230d565b5090565b5b8082111561232657600081600090555060010161230e565b5090565b6000604051905090565b600080fd5b600080fd5b60007fffffffff0000000000000000000000000000000000000000000000000000000082169050919050565b6123738161233e565b811461237e57600080fd5b50565b6000813590506123908161236a565b92915050565b6000602082840312156123ac576123ab612334565b5b60006123ba84828501612381565b91505092915050565b60008115159050919050565b6123d8816123c3565b82525050565b60006020820190506123f360008301846123cf565b92915050565b600073ffffffffffffffffffffffffffffffffffffffff82169050919050565b6000612424826123f9565b9050919050565b61243481612419565b811461243f57600080fd5b50565b6000813590506124518161242b565b92915050565b60006020828403121561246d5761246c612334565b5b600061247b84828501612442565b91505092915050565b600081519050919050565b600082825260208201905092915050565b60005b838110156124be5780820151818401526020810190506124a3565b838111156124cd576000848401525b50505050565b6000601f19601f8301169050919050565b60006124ef82612484565b6124f9818561248f565b93506125098185602086016124a0565b612512816124d3565b840191505092915050565b6000606082019050818103600083015261253781866124e4565b9050818103602083015261254b81856124e4565b905061255a60408301846123cf565b949350505050565b6000819050919050565b61257581612562565b82525050565b6000602082019050612590600083018461256c565b92915050565b6000819050919050565b6125a981612596565b81146125b457600080fd5b50565b6000813590506125c6816125a0565b92915050565b6000602082840312156125e2576125e1612334565b5b60006125f0848285016125b7565b91505092915050565b61260281612596565b82525050565b600060208201905061261d60008301846125f9565b92915050565b6000806040838503121561263a57612639612334565b5b6000612648858286016125b7565b925050602061265985828601612442565b9150509250929050565b61266c81612419565b82525050565b60006020820190506126876000830184612663565b92915050565b61269681612562565b81146126a157600080fd5b50565b6000813590506126b38161268d565b92915050565b6000602082840312156126cf576126ce612334565b5b60006126dd848285016126a4565b91505092915050565b600080604083850312156126fd576126fc612334565b5b600061270b858286016125b7565b925050602061271c858286016126a4565b9150509250929050565b600080fd5b600080fd5b7f4e487b7100000000000000000000000000000000000000000000000000000000600052604160045260246000fd5b612768826124d3565b810181811067ffffffffffffffff8211171561278757612786612730565b5b80604052505050565b600061279a61232a565b90506127a6828261275f565b919050565b600067ffffffffffffffff8211156127c6576127c5612730565b5b6127cf826124d3565b9050602081019050919050565b82818337600083830152505050565b60006127fe6127f9846127ab565b612790565b90508281526020810184848401111561281a5761281961272b565b5b6128258482856127dc565b509392505050565b600082601f83011261284257612841612726565b5b81356128528482602086016127eb565b91505092915050565b60006020828403121561287157612870612334565b5b600082013567ffffffffffffffff81111561288f5761288e612339565b5b61289b8482850161282d565b91505092915050565b60008060008060008060c087890312156128c1576128c0612334565b5b600087013567ffffffffffffffff8111156128df576128de612339565b5b6128eb89828a0161282d565b965050602087013567ffffffffffffffff81111561290c5761290b612339565b5b61291889828a0161282d565b955050604061292989828a016126a4565b945050606061293a89828a016126a4565b935050608061294b89828a016126a4565b92505060a061295c89828a016126a4565b9150509295509295509295565b60008060006060848603121561298257612981612334565b5b600061299086828701612442565b935050602084013567ffffffffffffffff8111156129b1576129b0612339565b5b6129bd8682870161282d565b925050604084013567ffffffffffffffff8111156129de576129dd612339565b5b6129ea8682870161282d565b9150509250925092565b600081519050919050565b600082825260208201905092915050565b6000819050602082019050919050565b6000819050919050565b6000612a45612a40612a3b846123f9565b612a20565b6123f9565b9050919050565b6000612a5782612a2a565b9050919050565b6000612a6982612a4c565b9050919050565b612a7981612a5e565b82525050565b6000612a8b8383612a70565b60208301905092915050565b6000602082019050919050565b6000612aaf826129f4565b612ab981856129ff565b9350612ac483612a10565b8060005b83811015612af5578151612adc8882612a7f565b9750612ae783612a97565b925050600181019050612ac8565b5085935050505092915050565b60006020820190508181036000830152612b1c8184612aa4565b905092915050565b7f4e487b7100000000000000000000000000000000000000000000000000000000600052602260045260246000fd5b60006002820490506001821680612b6b57607f821691505b60208210811415612b7f57612b7e612b24565b5b50919050565b7f6d75737420686176652041646d696e20726f6c6520746f2063616c6c2074686960008201527f732066756e6374696f6e00000000000000000000000000000000000000000000602082015250565b6000612be1602a8361248f565b9150612bec82612b85565b604082019050919050565b60006020820190508181036000830152612c1081612bd4565b9050919050565b7f796f75206861766520746f207369676e20696e20666972737400000000000000600082015250565b6000612c4d60198361248f565b9150612c5882612c17565b602082019050919050565b60006020820190508181036000830152612c7c81612c40565b9050919050565b7f656d70747920696e666f00000000000000000000000000000000000000000000600082015250565b6000612cb9600a8361248f565b9150612cc482612c83565b602082019050919050565b60006020820190508181036000830152612ce881612cac565b9050919050565b60006020820190508181036000830152612d0981846124e4565b905092915050565b6000610100820190508181036000830152612d2c818b6124e4565b90508181036020830152612d40818a6124e4565b9050612d4f604083018961256c565b612d5c606083018861256c565b612d69608083018761256c565b612d7660a083018661256c565b612d8360c0830185612663565b612d9060e0830184612663565b9998505050505050505050565b6000604082019050612db26000830185612663565b612dbf6020830184612663565b9392505050565b7f746869732066756e6374696f6e2069732050617961626c650000000000000000600082015250565b6000612dfc60188361248f565b9150612e0782612dc6565b602082019050919050565b60006020820190508181036000830152612e2b81612def565b9050919050565b7f7573657220686173207369676e656420696e206265666f726500000000000000600082015250565b6000612e6860198361248f565b9150612e7382612e32565b602082019050919050565b60006020820190508181036000830152612e9781612e5b565b9050919050565b7f77726f6e672070726573656e746572206164647265737320656e746572656400600082015250565b6000612ed4601f8361248f565b9150612edf82612e9e565b602082019050919050565b60006020820190508181036000830152612f0381612ec7565b9050919050565b7f416363657373436f6e74726f6c3a2063616e206f6e6c792072656e6f756e636560008201527f20726f6c657320666f722073656c660000000000000000000000000000000000602082015250565b6000612f66602f8361248f565b9150612f7182612f0a565b604082019050919050565b60006020820190508181036000830152612f9581612f59565b9050919050565b7f455243313136373a20637265617465206661696c656400000000000000000000600082015250565b6000612fd260168361248f565b9150612fdd82612f9c565b602082019050919050565b6000602082019050818103600083015261300181612fc5565b9050919050565b600081905092915050565b600061301e82612484565b6130288185613008565b93506130388185602086016124a0565b80840191505092915050565b60006130508284613013565b915081905092915050565b7f7468697320757365726e616d6520686173206265656e2075736564206265666f60008201527f7265000000000000000000000000000000000000000000000000000000000000602082015250565b60006130b760228361248f565b91506130c28261305b565b604082019050919050565b600060208201905081810360008301526130e6816130aa565b9050919050565b7f736574206120757365726e616d65000000000000000000000000000000000000600082015250565b6000613123600e8361248f565b915061312e826130ed565b602082019050919050565b6000602082019050818103600083015261315281613116565b9050919050565b7f416363657373436f6e74726f6c3a206163636f756e7420000000000000000000600082015250565b600061318f601783613008565b915061319a82613159565b601782019050919050565b7f206973206d697373696e6720726f6c6520000000000000000000000000000000600082015250565b60006131db601183613008565b91506131e6826131a5565b601182019050919050565b60006131fc82613182565b91506132088285613013565b9150613213826131ce565b915061321f8284613013565b91508190509392505050565b7f4e487b7100000000000000000000000000000000000000000000000000000000600052601160045260246000fd5b600061326582612562565b915061327083612562565b9250828210156132835761328261322b565b5b828203905092915050565b7f4e487b7100000000000000000000000000000000000000000000000000000000600052603260045260246000fd5b7f4e487b7100000000000000000000000000000000000000000000000000000000600052603160045260246000fd5b60006132f782612562565b915061330283612562565b9250817fffffffffffffffffffffffffffffffffffffffffffffffffffffffffffffffff048311821515161561333b5761333a61322b565b5b828202905092915050565b600061335182612562565b915061335c83612562565b9250827fffffffffffffffffffffffffffffffffffffffffffffffffffffffffffffffff038211156133915761339061322b565b5b828201905092915050565b60006133a782612562565b915060008214156133bb576133ba61322b565b5b600182039050919050565b7f537472696e67733a20686578206c656e67746820696e73756666696369656e74600082015250565b60006133fc60208361248f565b9150613407826133c6565b602082019050919050565b6000602082019050818103600083015261342b816133ef565b905091905056fea2646970667358221220f06f910e4c7029f7ddc105ca554f3105efd88459f76b46254bb1817127bb33b664736f6c63430008090033",
  "linkReferences": {},
  "deployedLinkReferences": {}
}