{
  "_format": "hh-sol-artifact-1",
  "contractName": "Factory",
  "sourceName": "contracts/Factory.sol",
  "abi": [
    {
      "inputs": [
        {
          "internalType": "address",
          "name": "_registerContract",
          "type": "address"
        },
        {
          "internalType": "address",
          "name": "_randomNumberConsumer",
          "type": "address"
        },
        {
          "internalType": "address",
          "name": "_chanceRoomLibrary",
          "type": "address"
        }
      ],
      "stateMutability": "nonpayable",
      "type": "constructor"
    },
    {
      "anonymous": false,
      "inputs": [
        {
          "indexed": false,
          "internalType": "address",
          "name": "newLibrary",
          "type": "address"
        },
        {
          "indexed": false,
          "internalType": "address",
          "name": "updater",
          "type": "address"
        }
      ],
      "name": "ChanceRoomLibraryUpdated",
      "type": "event"
    },
    {
      "anonymous": false,
      "inputs": [
        {
          "indexed": false,
          "internalType": "address",
          "name": "chanceRoom",
          "type": "address"
        },
        {
          "indexed": false,
          "internalType": "address",
          "name": "owner",
          "type": "address"
        }
      ],
      "name": "NewChanceRoom",
      "type": "event"
    },
    {
      "anonymous": false,
      "inputs": [
        {
          "indexed": true,
          "internalType": "address",
          "name": "previousOwner",
          "type": "address"
        },
        {
          "indexed": true,
          "internalType": "address",
          "name": "newOwner",
          "type": "address"
        }
      ],
      "name": "OwnershipTransferred",
      "type": "event"
    },
    {
      "anonymous": false,
      "inputs": [
        {
          "indexed": false,
          "internalType": "address",
          "name": "newConsumer",
          "type": "address"
        },
        {
          "indexed": false,
          "internalType": "address",
          "name": "updater",
          "type": "address"
        }
      ],
      "name": "RandomNumberConsumerUpdated",
      "type": "event"
    },
    {
      "inputs": [],
      "name": "chanceRoomLibrary",
      "outputs": [
        {
          "internalType": "address",
          "name": "",
          "type": "address"
        }
      ],
      "stateMutability": "view",
      "type": "function"
    },
    {
      "inputs": [],
      "name": "chanceroomsList",
      "outputs": [
        {
          "internalType": "contract ChanceRoom[]",
          "name": "",
          "type": "address[]"
        }
      ],
      "stateMutability": "view",
      "type": "function"
    },
    {
      "inputs": [
        {
          "internalType": "string",
          "name": "info",
          "type": "string"
        },
        {
          "internalType": "string",
          "name": "baseURI",
          "type": "string"
        },
        {
          "internalType": "uint256",
          "name": "gateFee",
          "type": "uint256"
        },
        {
          "internalType": "uint256",
          "name": "percentCommission",
          "type": "uint256"
        },
        {
          "internalType": "uint256",
          "name": "userLimit",
          "type": "uint256"
        },
        {
          "internalType": "uint256",
          "name": "timeLimit",
          "type": "uint256"
        }
      ],
      "name": "newChanceRoom",
      "outputs": [],
      "stateMutability": "nonpayable",
      "type": "function"
    },
    {
      "inputs": [
        {
          "internalType": "address",
          "name": "_chanceRoomLibrary",
          "type": "address"
        }
      ],
      "name": "newChanceRoomLibrary",
      "outputs": [],
      "stateMutability": "nonpayable",
      "type": "function"
    },
    {
      "inputs": [
        {
          "internalType": "address",
          "name": "_randomNumberConsumer",
          "type": "address"
        }
      ],
      "name": "newRandomNumberConsumer",
      "outputs": [],
      "stateMutability": "nonpayable",
      "type": "function"
    },
    {
      "inputs": [],
      "name": "owner",
      "outputs": [
        {
          "internalType": "address",
          "name": "",
          "type": "address"
        }
      ],
      "stateMutability": "view",
      "type": "function"
    },
    {
      "inputs": [],
      "name": "randomNumberConsumer",
      "outputs": [
        {
          "internalType": "address",
          "name": "",
          "type": "address"
        }
      ],
      "stateMutability": "view",
      "type": "function"
    },
    {
      "inputs": [],
      "name": "registerContract",
      "outputs": [
        {
          "internalType": "address",
          "name": "",
          "type": "address"
        }
      ],
      "stateMutability": "view",
      "type": "function"
    },
    {
      "inputs": [],
      "name": "renounceOwnership",
      "outputs": [],
      "stateMutability": "nonpayable",
      "type": "function"
    },
    {
      "inputs": [
        {
          "internalType": "address",
          "name": "newOwner",
          "type": "address"
        }
      ],
      "name": "transferOwnership",
      "outputs": [],
      "stateMutability": "nonpayable",
      "type": "function"
    }
  ],
  "bytecode": "0x60806040523480156200001157600080fd5b506040516200191038038062001910833981810160405281019062000037919062000503565b620000576200004b6200012660201b60201c565b6200012e60201b60201c565b82600160006101000a81548173ffffffffffffffffffffffffffffffffffffffff021916908373ffffffffffffffffffffffffffffffffffffffff160217905550600160009054906101000a900473ffffffffffffffffffffffffffffffffffffffff16600460006101000a81548173ffffffffffffffffffffffffffffffffffffffff021916908373ffffffffffffffffffffffffffffffffffffffff1602179055506200010c82620001f260201b60201c565b6200011d816200033160201b60201c565b50505062000620565b600033905090565b60008060009054906101000a900473ffffffffffffffffffffffffffffffffffffffff169050816000806101000a81548173ffffffffffffffffffffffffffffffffffffffff021916908373ffffffffffffffffffffffffffffffffffffffff1602179055508173ffffffffffffffffffffffffffffffffffffffff168173ffffffffffffffffffffffffffffffffffffffff167f8be0079c531659141344cd1fd0a4f28419497f9722a3daafe3b4186f6b6457e060405160405180910390a35050565b620002026200012660201b60201c565b73ffffffffffffffffffffffffffffffffffffffff16620002286200047060201b60201c565b73ffffffffffffffffffffffffffffffffffffffff161462000281576040517f08c379a00000000000000000000000000000000000000000000000000000000081526004016200027890620005c0565b60405180910390fd5b80600360006101000a81548173ffffffffffffffffffffffffffffffffffffffff021916908373ffffffffffffffffffffffffffffffffffffffff1602179055507fc3420b4fb01375b75824f465544727a7d8d6b3e54faeebf00bba49d60369bb97600360009054906101000a900473ffffffffffffffffffffffffffffffffffffffff16620003166200012660201b60201c565b60405162000326929190620005f3565b60405180910390a150565b620003416200012660201b60201c565b73ffffffffffffffffffffffffffffffffffffffff16620003676200047060201b60201c565b73ffffffffffffffffffffffffffffffffffffffff1614620003c0576040517f08c379a0000000000000000000000000000000000000000000000000000000008152600401620003b790620005c0565b60405180910390fd5b80600260006101000a81548173ffffffffffffffffffffffffffffffffffffffff021916908373ffffffffffffffffffffffffffffffffffffffff1602179055507f419dc5c4eeba8af5920b71463ccb412e0fe053cc7865caa66efb085bf052eb33600260009054906101000a900473ffffffffffffffffffffffffffffffffffffffff16620004556200012660201b60201c565b60405162000465929190620005f3565b60405180910390a150565b60008060009054906101000a900473ffffffffffffffffffffffffffffffffffffffff16905090565b600080fd5b600073ffffffffffffffffffffffffffffffffffffffff82169050919050565b6000620004cb826200049e565b9050919050565b620004dd81620004be565b8114620004e957600080fd5b50565b600081519050620004fd81620004d2565b92915050565b6000806000606084860312156200051f576200051e62000499565b5b60006200052f86828701620004ec565b93505060206200054286828701620004ec565b92505060406200055586828701620004ec565b9150509250925092565b600082825260208201905092915050565b7f4f776e61626c653a2063616c6c6572206973206e6f7420746865206f776e6572600082015250565b6000620005a86020836200055f565b9150620005b58262000570565b602082019050919050565b60006020820190508181036000830152620005db8162000599565b9050919050565b620005ed81620004be565b82525050565b60006040820190506200060a6000830185620005e2565b620006196020830184620005e2565b9392505050565b6112e080620006306000396000f3fe608060405234801561001057600080fd5b506004361061009e5760003560e01c8063b6ca8db911610066578063b6ca8db914610123578063c46aeda914610141578063e7e723dd1461015d578063f2fde38b1461017b578063f4603bc8146101975761009e565b806346df22da146100a3578063715018a6146100c15780637feffff3146100cb5780638da5cb5b146100e957806396531cea14610107575b600080fd5b6100ab6101b3565b6040516100b89190610b04565b60405180910390f35b6100c96101d9565b005b6100d3610261565b6040516100e09190610b04565b60405180910390f35b6100f1610287565b6040516100fe9190610b04565b60405180910390f35b610121600480360381019061011c9190610caf565b6102b0565b005b61012b610532565b6040516101389190610b04565b60405180910390f35b61015b60048036038101906101569190610da0565b610558565b005b61016561067a565b6040516101729190610edb565b60405180910390f35b61019560048036038101906101909190610da0565b610708565b005b6101b160048036038101906101ac9190610da0565b610800565b005b600360009054906101000a900473ffffffffffffffffffffffffffffffffffffffff1681565b6101e1610922565b73ffffffffffffffffffffffffffffffffffffffff166101ff610287565b73ffffffffffffffffffffffffffffffffffffffff1614610255576040517f08c379a000000000000000000000000000000000000000000000000000000000815260040161024c90610f5a565b60405180910390fd5b61025f600061092a565b565b600160009054906101000a900473ffffffffffffffffffffffffffffffffffffffff1681565b60008060009054906101000a900473ffffffffffffffffffffffffffffffffffffffff16905090565b60006102ba610922565b9050600460009054906101000a900473ffffffffffffffffffffffffffffffffffffffff1673ffffffffffffffffffffffffffffffffffffffff1663b2dd5c07826040518263ffffffff1660e01b81526004016103179190610b04565b60206040518083038186803b15801561032f57600080fd5b505afa158015610343573d6000803e3d6000fd5b505050506040513d601f19601f820116820180604052508101906103679190610fb2565b6103a6576040517f08c379a000000000000000000000000000000000000000000000000000000000815260040161039d90611051565b60405180910390fd5b60006103e9600260009054906101000a900473ffffffffffffffffffffffffffffffffffffffff1673ffffffffffffffffffffffffffffffffffffffff166109ee565b905060008190508073ffffffffffffffffffffffffffffffffffffffff1663a8935e148a8a8a8a8a8a8a600360009054906101000a900473ffffffffffffffffffffffffffffffffffffffff166040518963ffffffff1660e01b81526004016104599897969594939291906110f7565b600060405180830381600087803b15801561047357600080fd5b505af1158015610487573d6000803e3d6000fd5b505050506005819080600181540180825580915050600190039060005260206000200160009091909190916101000a81548173ffffffffffffffffffffffffffffffffffffffff021916908373ffffffffffffffffffffffffffffffffffffffff1602179055507fae8cb6c4846333e05a9f771a9e08f3c8934e9c43192e001645862e6bad7abbf2828460405161051f929190611183565b60405180910390a1505050505050505050565b600260009054906101000a900473ffffffffffffffffffffffffffffffffffffffff1681565b610560610922565b73ffffffffffffffffffffffffffffffffffffffff1661057e610287565b73ffffffffffffffffffffffffffffffffffffffff16146105d4576040517f08c379a00000000000000000000000000000000000000000000000000000000081526004016105cb90610f5a565b60405180910390fd5b80600260006101000a81548173ffffffffffffffffffffffffffffffffffffffff021916908373ffffffffffffffffffffffffffffffffffffffff1602179055507f419dc5c4eeba8af5920b71463ccb412e0fe053cc7865caa66efb085bf052eb33600260009054906101000a900473ffffffffffffffffffffffffffffffffffffffff16610661610922565b60405161066f929190611183565b60405180910390a150565b606060058054806020026020016040519081016040528092919081815260200182805480156106fe57602002820191906000526020600020905b8160009054906101000a900473ffffffffffffffffffffffffffffffffffffffff1673ffffffffffffffffffffffffffffffffffffffff16815260200190600101908083116106b4575b5050505050905090565b610710610922565b73ffffffffffffffffffffffffffffffffffffffff1661072e610287565b73ffffffffffffffffffffffffffffffffffffffff1614610784576040517f08c379a000000000000000000000000000000000000000000000000000000000815260040161077b90610f5a565b60405180910390fd5b600073ffffffffffffffffffffffffffffffffffffffff168173ffffffffffffffffffffffffffffffffffffffff1614156107f4576040517f08c379a00000000000000000000000000000000000000000000000000000000081526004016107eb9061121e565b60405180910390fd5b6107fd8161092a565b50565b610808610922565b73ffffffffffffffffffffffffffffffffffffffff16610826610287565b73ffffffffffffffffffffffffffffffffffffffff161461087c576040517f08c379a000000000000000000000000000000000000000000000000000000000815260040161087390610f5a565b60405180910390fd5b80600360006101000a81548173ffffffffffffffffffffffffffffffffffffffff021916908373ffffffffffffffffffffffffffffffffffffffff1602179055507fc3420b4fb01375b75824f465544727a7d8d6b3e54faeebf00bba49d60369bb97600360009054906101000a900473ffffffffffffffffffffffffffffffffffffffff16610909610922565b604051610917929190611183565b60405180910390a150565b600033905090565b60008060009054906101000a900473ffffffffffffffffffffffffffffffffffffffff169050816000806101000a81548173ffffffffffffffffffffffffffffffffffffffff021916908373ffffffffffffffffffffffffffffffffffffffff1602179055508173ffffffffffffffffffffffffffffffffffffffff168173ffffffffffffffffffffffffffffffffffffffff167f8be0079c531659141344cd1fd0a4f28419497f9722a3daafe3b4186f6b6457e060405160405180910390a35050565b60006040517f3d602d80600a3d3981f3363d3d373d3d3d363d7300000000000000000000000081528260601b60148201527f5af43d82803e903d91602b57fd5bf3000000000000000000000000000000000060288201526037816000f0915050600073ffffffffffffffffffffffffffffffffffffffff168173ffffffffffffffffffffffffffffffffffffffff161415610abe576040517f08c379a0000000000000000000000000000000000000000000000000000000008152600401610ab59061128a565b60405180910390fd5b919050565b600073ffffffffffffffffffffffffffffffffffffffff82169050919050565b6000610aee82610ac3565b9050919050565b610afe81610ae3565b82525050565b6000602082019050610b196000830184610af5565b92915050565b6000604051905090565b600080fd5b600080fd5b600080fd5b600080fd5b6000601f19601f8301169050919050565b7f4e487b7100000000000000000000000000000000000000000000000000000000600052604160045260246000fd5b610b8682610b3d565b810181811067ffffffffffffffff82111715610ba557610ba4610b4e565b5b80604052505050565b6000610bb8610b1f565b9050610bc48282610b7d565b919050565b600067ffffffffffffffff821115610be457610be3610b4e565b5b610bed82610b3d565b9050602081019050919050565b82818337600083830152505050565b6000610c1c610c1784610bc9565b610bae565b905082815260208101848484011115610c3857610c37610b38565b5b610c43848285610bfa565b509392505050565b600082601f830112610c6057610c5f610b33565b5b8135610c70848260208601610c09565b91505092915050565b6000819050919050565b610c8c81610c79565b8114610c9757600080fd5b50565b600081359050610ca981610c83565b92915050565b60008060008060008060c08789031215610ccc57610ccb610b29565b5b600087013567ffffffffffffffff811115610cea57610ce9610b2e565b5b610cf689828a01610c4b565b965050602087013567ffffffffffffffff811115610d1757610d16610b2e565b5b610d2389828a01610c4b565b9550506040610d3489828a01610c9a565b9450506060610d4589828a01610c9a565b9350506080610d5689828a01610c9a565b92505060a0610d6789828a01610c9a565b9150509295509295509295565b610d7d81610ae3565b8114610d8857600080fd5b50565b600081359050610d9a81610d74565b92915050565b600060208284031215610db657610db5610b29565b5b6000610dc484828501610d8b565b91505092915050565b600081519050919050565b600082825260208201905092915050565b6000819050602082019050919050565b6000819050919050565b6000610e1e610e19610e1484610ac3565b610df9565b610ac3565b9050919050565b6000610e3082610e03565b9050919050565b6000610e4282610e25565b9050919050565b610e5281610e37565b82525050565b6000610e648383610e49565b60208301905092915050565b6000602082019050919050565b6000610e8882610dcd565b610e928185610dd8565b9350610e9d83610de9565b8060005b83811015610ece578151610eb58882610e58565b9750610ec083610e70565b925050600181019050610ea1565b5085935050505092915050565b60006020820190508181036000830152610ef58184610e7d565b905092915050565b600082825260208201905092915050565b7f4f776e61626c653a2063616c6c6572206973206e6f7420746865206f776e6572600082015250565b6000610f44602083610efd565b9150610f4f82610f0e565b602082019050919050565b60006020820190508181036000830152610f7381610f37565b9050919050565b60008115159050919050565b610f8f81610f7a565b8114610f9a57600080fd5b50565b600081519050610fac81610f86565b92915050565b600060208284031215610fc857610fc7610b29565b5b6000610fd684828501610f9d565b91505092915050565b7f4f6e6c79205649502075736572732063616e20636c6f6e652074686520636f6e60008201527f74726163742e0000000000000000000000000000000000000000000000000000602082015250565b600061103b602683610efd565b915061104682610fdf565b604082019050919050565b6000602082019050818103600083015261106a8161102e565b9050919050565b600081519050919050565b60005b8381101561109a57808201518184015260208101905061107f565b838111156110a9576000848401525b50505050565b60006110ba82611071565b6110c48185610efd565b93506110d481856020860161107c565b6110dd81610b3d565b840191505092915050565b6110f181610c79565b82525050565b6000610100820190508181036000830152611112818b6110af565b90508181036020830152611126818a6110af565b905061113560408301896110e8565b61114260608301886110e8565b61114f60808301876110e8565b61115c60a08301866110e8565b61116960c0830185610af5565b61117660e0830184610af5565b9998505050505050505050565b60006040820190506111986000830185610af5565b6111a56020830184610af5565b9392505050565b7f4f776e61626c653a206e6577206f776e657220697320746865207a65726f206160008201527f6464726573730000000000000000000000000000000000000000000000000000602082015250565b6000611208602683610efd565b9150611213826111ac565b604082019050919050565b60006020820190508181036000830152611237816111fb565b9050919050565b7f455243313136373a20637265617465206661696c656400000000000000000000600082015250565b6000611274601683610efd565b915061127f8261123e565b602082019050919050565b600060208201905081810360008301526112a381611267565b905091905056fea2646970667358221220ccf5bce640c49c6c6456c4256914b32bd201025e42f4cc67bd6d4cee88f9f5c764736f6c63430008090033",
  "linkReferences": {},
  "deployedLinkReferences": {}
}