{
  "_format": "hh-sol-artifact-1",
  "contractName": "Factory",
  "sourceName": "contracts/Factory.sol",
  "abi": [
    {
      "inputs": [
        {
          "internalType": "address",
          "name": "_registerContract",
          "type": "address"
        },
        {
          "internalType": "address",
          "name": "_randomNumberConsumer",
          "type": "address"
        },
        {
          "internalType": "address",
          "name": "_NFTContractAddress",
          "type": "address"
        },
        {
          "internalType": "address",
          "name": "_chanceRoomLibrary",
          "type": "address"
        }
      ],
      "stateMutability": "nonpayable",
      "type": "constructor"
    },
    {
      "anonymous": false,
      "inputs": [
        {
          "indexed": false,
          "internalType": "address",
          "name": "newLibrary",
          "type": "address"
        },
        {
          "indexed": false,
          "internalType": "uint256",
          "name": "updateTime",
          "type": "uint256"
        }
      ],
      "name": "ChanceRoomLibraryUpdated",
      "type": "event"
    },
    {
      "anonymous": false,
      "inputs": [
        {
          "indexed": false,
          "internalType": "address",
          "name": "newNFTContract",
          "type": "address"
        },
        {
          "indexed": false,
          "internalType": "uint256",
          "name": "updateTime",
          "type": "uint256"
        }
      ],
      "name": "NFTContractUpdated",
      "type": "event"
    },
    {
      "anonymous": false,
      "inputs": [
        {
          "indexed": false,
          "internalType": "address",
          "name": "chanceRoom",
          "type": "address"
        },
        {
          "indexed": false,
          "internalType": "address",
          "name": "owner",
          "type": "address"
        },
        {
          "indexed": false,
          "internalType": "uint256",
          "name": "gateFee",
          "type": "uint256"
        },
        {
          "indexed": false,
          "internalType": "uint256",
          "name": "percentCommission",
          "type": "uint256"
        },
        {
          "indexed": false,
          "internalType": "uint256",
          "name": "userLimit",
          "type": "uint256"
        },
        {
          "indexed": false,
          "internalType": "uint256",
          "name": "timeLimit",
          "type": "uint256"
        }
      ],
      "name": "NewChanceRoom",
      "type": "event"
    },
    {
      "anonymous": false,
      "inputs": [
        {
          "indexed": true,
          "internalType": "address",
          "name": "previousOwner",
          "type": "address"
        },
        {
          "indexed": true,
          "internalType": "address",
          "name": "newOwner",
          "type": "address"
        }
      ],
      "name": "OwnershipTransferred",
      "type": "event"
    },
    {
      "anonymous": false,
      "inputs": [
        {
          "indexed": false,
          "internalType": "address",
          "name": "newConsumer",
          "type": "address"
        },
        {
          "indexed": false,
          "internalType": "uint256",
          "name": "updateTime",
          "type": "uint256"
        }
      ],
      "name": "RandomNumberConsumerUpdated",
      "type": "event"
    },
    {
      "inputs": [],
      "name": "NFTContract",
      "outputs": [
        {
          "internalType": "address",
          "name": "",
          "type": "address"
        }
      ],
      "stateMutability": "view",
      "type": "function"
    },
    {
      "inputs": [],
      "name": "chanceRoomLibrary",
      "outputs": [
        {
          "internalType": "address",
          "name": "",
          "type": "address"
        }
      ],
      "stateMutability": "view",
      "type": "function"
    },
    {
      "inputs": [
        {
          "internalType": "uint256",
          "name": "",
          "type": "uint256"
        }
      ],
      "name": "chanceRooms",
      "outputs": [
        {
          "internalType": "address",
          "name": "",
          "type": "address"
        }
      ],
      "stateMutability": "view",
      "type": "function"
    },
    {
      "inputs": [
        {
          "internalType": "int256",
          "name": "_length",
          "type": "int256"
        },
        {
          "internalType": "int256",
          "name": "_offset",
          "type": "int256"
        }
      ],
      "name": "chanceRoomsCloned",
      "outputs": [
        {
          "internalType": "address[]",
          "name": "",
          "type": "address[]"
        }
      ],
      "stateMutability": "view",
      "type": "function"
    },
    {
      "inputs": [
        {
          "internalType": "address",
          "name": "",
          "type": "address"
        },
        {
          "internalType": "uint256",
          "name": "",
          "type": "uint256"
        }
      ],
      "name": "creatorToRooms",
      "outputs": [
        {
          "internalType": "address",
          "name": "",
          "type": "address"
        }
      ],
      "stateMutability": "view",
      "type": "function"
    },
    {
      "inputs": [
        {
          "internalType": "string",
          "name": "info",
          "type": "string"
        },
        {
          "internalType": "string",
          "name": "baseURI",
          "type": "string"
        },
        {
          "internalType": "uint256",
          "name": "gateFee",
          "type": "uint256"
        },
        {
          "internalType": "uint256",
          "name": "percentCommission",
          "type": "uint256"
        },
        {
          "internalType": "uint256",
          "name": "userLimit",
          "type": "uint256"
        },
        {
          "internalType": "uint256",
          "name": "timeLimit",
          "type": "uint256"
        }
      ],
      "name": "newChanceRoom",
      "outputs": [],
      "stateMutability": "nonpayable",
      "type": "function"
    },
    {
      "inputs": [
        {
          "internalType": "address",
          "name": "_chanceRoomLibrary",
          "type": "address"
        }
      ],
      "name": "newChanceRoomLibrary",
      "outputs": [],
      "stateMutability": "nonpayable",
      "type": "function"
    },
    {
      "inputs": [
        {
          "internalType": "address",
          "name": "_NFTContractAddress",
          "type": "address"
        }
      ],
      "name": "newNFTContract",
      "outputs": [],
      "stateMutability": "nonpayable",
      "type": "function"
    },
    {
      "inputs": [
        {
          "internalType": "address",
          "name": "_randomNumberConsumer",
          "type": "address"
        }
      ],
      "name": "newRandomNumberConsumer",
      "outputs": [],
      "stateMutability": "nonpayable",
      "type": "function"
    },
    {
      "inputs": [],
      "name": "owner",
      "outputs": [
        {
          "internalType": "address",
          "name": "",
          "type": "address"
        }
      ],
      "stateMutability": "view",
      "type": "function"
    },
    {
      "inputs": [],
      "name": "randomNumberConsumer",
      "outputs": [
        {
          "internalType": "address",
          "name": "",
          "type": "address"
        }
      ],
      "stateMutability": "view",
      "type": "function"
    },
    {
      "inputs": [],
      "name": "registerContract",
      "outputs": [
        {
          "internalType": "address",
          "name": "",
          "type": "address"
        }
      ],
      "stateMutability": "view",
      "type": "function"
    },
    {
      "inputs": [],
      "name": "renounceOwnership",
      "outputs": [],
      "stateMutability": "nonpayable",
      "type": "function"
    },
    {
      "inputs": [
        {
          "internalType": "address",
          "name": "newOwner",
          "type": "address"
        }
      ],
      "name": "transferOwnership",
      "outputs": [],
      "stateMutability": "nonpayable",
      "type": "function"
    }
  ],
  "bytecode": "0x60806040523480156200001157600080fd5b506040516200210938038062002109833981810160405281019062000037919062000627565b620000576200004b6200013860201b60201c565b6200014060201b60201c565b83600160006101000a81548173ffffffffffffffffffffffffffffffffffffffff021916908373ffffffffffffffffffffffffffffffffffffffff160217905550600160009054906101000a900473ffffffffffffffffffffffffffffffffffffffff16600560006101000a81548173ffffffffffffffffffffffffffffffffffffffff021916908373ffffffffffffffffffffffffffffffffffffffff1602179055506200010c836200020460201b60201c565b6200011d826200033460201b60201c565b6200012e816200046460201b60201c565b5050505062000775565b600033905090565b60008060009054906101000a900473ffffffffffffffffffffffffffffffffffffffff169050816000806101000a81548173ffffffffffffffffffffffffffffffffffffffff021916908373ffffffffffffffffffffffffffffffffffffffff1602179055508173ffffffffffffffffffffffffffffffffffffffff168173ffffffffffffffffffffffffffffffffffffffff167f8be0079c531659141344cd1fd0a4f28419497f9722a3daafe3b4186f6b6457e060405160405180910390a35050565b620002146200013860201b60201c565b73ffffffffffffffffffffffffffffffffffffffff166200023a6200059460201b60201c565b73ffffffffffffffffffffffffffffffffffffffff161462000293576040517f08c379a00000000000000000000000000000000000000000000000000000000081526004016200028a90620006fa565b60405180910390fd5b80600360006101000a81548173ffffffffffffffffffffffffffffffffffffffff021916908373ffffffffffffffffffffffffffffffffffffffff1602179055507fbba88e6e23bdc1165d7f9143b9264605235ada17a9a335d41b42b688f0d1ec2d600360009054906101000a900473ffffffffffffffffffffffffffffffffffffffff16426040516200032992919062000748565b60405180910390a150565b620003446200013860201b60201c565b73ffffffffffffffffffffffffffffffffffffffff166200036a6200059460201b60201c565b73ffffffffffffffffffffffffffffffffffffffff1614620003c3576040517f08c379a0000000000000000000000000000000000000000000000000000000008152600401620003ba90620006fa565b60405180910390fd5b80600460006101000a81548173ffffffffffffffffffffffffffffffffffffffff021916908373ffffffffffffffffffffffffffffffffffffffff1602179055507fc73979e992d22e193f7b5e662cd8c78074e65778072e4a967c02dfe18fca58af600460009054906101000a900473ffffffffffffffffffffffffffffffffffffffff16426040516200045992919062000748565b60405180910390a150565b620004746200013860201b60201c565b73ffffffffffffffffffffffffffffffffffffffff166200049a6200059460201b60201c565b73ffffffffffffffffffffffffffffffffffffffff1614620004f3576040517f08c379a0000000000000000000000000000000000000000000000000000000008152600401620004ea90620006fa565b60405180910390fd5b80600260006101000a81548173ffffffffffffffffffffffffffffffffffffffff021916908373ffffffffffffffffffffffffffffffffffffffff1602179055507f7e487d8b19c664bc86759c7a2d4b39dd066c32e710c107f87ce7045896d19f0d600260009054906101000a900473ffffffffffffffffffffffffffffffffffffffff16426040516200058992919062000748565b60405180910390a150565b60008060009054906101000a900473ffffffffffffffffffffffffffffffffffffffff16905090565b600080fd5b600073ffffffffffffffffffffffffffffffffffffffff82169050919050565b6000620005ef82620005c2565b9050919050565b6200060181620005e2565b81146200060d57600080fd5b50565b6000815190506200062181620005f6565b92915050565b60008060008060808587031215620006445762000643620005bd565b5b6000620006548782880162000610565b9450506020620006678782880162000610565b93505060406200067a8782880162000610565b92505060606200068d8782880162000610565b91505092959194509250565b600082825260208201905092915050565b7f4f776e61626c653a2063616c6c6572206973206e6f7420746865206f776e6572600082015250565b6000620006e260208362000699565b9150620006ef82620006aa565b602082019050919050565b600060208201905081810360008301526200071581620006d3565b9050919050565b6200072781620005e2565b82525050565b6000819050919050565b62000742816200072d565b82525050565b60006040820190506200075f60008301856200071c565b6200076e602083018462000737565b9392505050565b61198480620007856000396000f3fe608060405234801561001057600080fd5b50600436106100ea5760003560e01c8063b6ca8db91161008c578063dab95a4911610066578063dab95a4914610227578063f2fde38b14610243578063f4603bc81461025f578063f4af382a1461027b576100ea565b8063b6ca8db9146101bd578063c46aeda9146101db578063da7d1750146101f7576100ea565b8063715018a6116100c8578063715018a61461015b5780637feffff3146101655780638da5cb5b1461018357806396531cea146101a1576100ea565b806320d15dbb146100ef57806331c2273b1461011f57806346df22da1461013d575b600080fd5b61010960048036038101906101049190610fa2565b6102ab565b6040516101169190610ff1565b60405180910390f35b6101276102f9565b6040516101349190610ff1565b60405180910390f35b61014561031f565b6040516101529190610ff1565b60405180910390f35b610163610345565b005b61016d6103cd565b60405161017a9190610ff1565b60405180910390f35b61018b6103f3565b6040516101989190610ff1565b60405180910390f35b6101bb60048036038101906101b69190611152565b61041c565b005b6101c561076a565b6040516101d29190610ff1565b60405180910390f35b6101f560048036038101906101f09190611217565b610790565b005b610211600480360381019061020c919061127a565b6108ab565b60405161021e9190611378565b60405180910390f35b610241600480360381019061023c9190611217565b6109ec565b005b61025d60048036038101906102589190611217565b610b07565b005b61027960048036038101906102749190611217565b610bff565b005b6102956004803603810190610290919061139a565b610d1a565b6040516102a29190610ff1565b60405180910390f35b600760205281600052604060002081815481106102c757600080fd5b906000526020600020016000915091509054906101000a900473ffffffffffffffffffffffffffffffffffffffff1681565b600460009054906101000a900473ffffffffffffffffffffffffffffffffffffffff1681565b600360009054906101000a900473ffffffffffffffffffffffffffffffffffffffff1681565b61034d610d59565b73ffffffffffffffffffffffffffffffffffffffff1661036b6103f3565b73ffffffffffffffffffffffffffffffffffffffff16146103c1576040517f08c379a00000000000000000000000000000000000000000000000000000000081526004016103b890611424565b60405180910390fd5b6103cb6000610d61565b565b600160009054906101000a900473ffffffffffffffffffffffffffffffffffffffff1681565b60008060009054906101000a900473ffffffffffffffffffffffffffffffffffffffff16905090565b6000610426610d59565b9050600560009054906101000a900473ffffffffffffffffffffffffffffffffffffffff1673ffffffffffffffffffffffffffffffffffffffff1663b2dd5c07826040518263ffffffff1660e01b81526004016104839190610ff1565b60206040518083038186803b15801561049b57600080fd5b505afa1580156104af573d6000803e3d6000fd5b505050506040513d601f19601f820116820180604052508101906104d3919061147c565b610512576040517f08c379a00000000000000000000000000000000000000000000000000000000081526004016105099061151b565b60405180910390fd5b6000610555600260009054906101000a900473ffffffffffffffffffffffffffffffffffffffff1673ffffffffffffffffffffffffffffffffffffffff16610e25565b905060008190508073ffffffffffffffffffffffffffffffffffffffff166303d3c2188a8a8a8a8a8a8a600360009054906101000a900473ffffffffffffffffffffffffffffffffffffffff16600460009054906101000a900473ffffffffffffffffffffffffffffffffffffffff166040518a63ffffffff1660e01b81526004016105e9999897969594939291906115c1565b600060405180830381600087803b15801561060357600080fd5b505af1158015610617573d6000803e3d6000fd5b50505050600760008473ffffffffffffffffffffffffffffffffffffffff1673ffffffffffffffffffffffffffffffffffffffff168152602001908152602001600020829080600181540180825580915050600190039060005260206000200160009091909190916101000a81548173ffffffffffffffffffffffffffffffffffffffff021916908373ffffffffffffffffffffffffffffffffffffffff1602179055506006829080600181540180825580915050600190039060005260206000200160009091909190916101000a81548173ffffffffffffffffffffffffffffffffffffffff021916908373ffffffffffffffffffffffffffffffffffffffff1602179055507fd1acb0e35d2d7d1bc4af7f87bd7d532ec506209dab4cf0a35cb6fc7cfab998c58284898989896040516107579695949392919061165c565b60405180910390a1505050505050505050565b600260009054906101000a900473ffffffffffffffffffffffffffffffffffffffff1681565b610798610d59565b73ffffffffffffffffffffffffffffffffffffffff166107b66103f3565b73ffffffffffffffffffffffffffffffffffffffff161461080c576040517f08c379a000000000000000000000000000000000000000000000000000000000815260040161080390611424565b60405180910390fd5b80600260006101000a81548173ffffffffffffffffffffffffffffffffffffffff021916908373ffffffffffffffffffffffffffffffffffffffff1602179055507f7e487d8b19c664bc86759c7a2d4b39dd066c32e710c107f87ce7045896d19f0d600260009054906101000a900473ffffffffffffffffffffffffffffffffffffffff16426040516108a09291906116bd565b60405180910390a150565b606060068054905083836108bf9190611715565b11156108ce576108cd6117a9565b5b60008367ffffffffffffffff8111156108ea576108e9611027565b5b6040519080825280602002602001820160405280156109185781602001602082028036833780820191505090505b5090506000808490505b858561092e9190611715565b8110156109e05760068181548110610949576109486117d8565b5b9060005260206000200160009054906101000a900473ffffffffffffffffffffffffffffffffffffffff1683838061098090611807565b945081518110610993576109926117d8565b5b602002602001019073ffffffffffffffffffffffffffffffffffffffff16908173ffffffffffffffffffffffffffffffffffffffff168152505080806109d890611807565b915050610922565b50819250505092915050565b6109f4610d59565b73ffffffffffffffffffffffffffffffffffffffff16610a126103f3565b73ffffffffffffffffffffffffffffffffffffffff1614610a68576040517f08c379a0000000000000000000000000000000000000000000000000000000008152600401610a5f90611424565b60405180910390fd5b80600460006101000a81548173ffffffffffffffffffffffffffffffffffffffff021916908373ffffffffffffffffffffffffffffffffffffffff1602179055507fc73979e992d22e193f7b5e662cd8c78074e65778072e4a967c02dfe18fca58af600460009054906101000a900473ffffffffffffffffffffffffffffffffffffffff1642604051610afc9291906116bd565b60405180910390a150565b610b0f610d59565b73ffffffffffffffffffffffffffffffffffffffff16610b2d6103f3565b73ffffffffffffffffffffffffffffffffffffffff1614610b83576040517f08c379a0000000000000000000000000000000000000000000000000000000008152600401610b7a90611424565b60405180910390fd5b600073ffffffffffffffffffffffffffffffffffffffff168173ffffffffffffffffffffffffffffffffffffffff161415610bf3576040517f08c379a0000000000000000000000000000000000000000000000000000000008152600401610bea906118c2565b60405180910390fd5b610bfc81610d61565b50565b610c07610d59565b73ffffffffffffffffffffffffffffffffffffffff16610c256103f3565b73ffffffffffffffffffffffffffffffffffffffff1614610c7b576040517f08c379a0000000000000000000000000000000000000000000000000000000008152600401610c7290611424565b60405180910390fd5b80600360006101000a81548173ffffffffffffffffffffffffffffffffffffffff021916908373ffffffffffffffffffffffffffffffffffffffff1602179055507fbba88e6e23bdc1165d7f9143b9264605235ada17a9a335d41b42b688f0d1ec2d600360009054906101000a900473ffffffffffffffffffffffffffffffffffffffff1642604051610d0f9291906116bd565b60405180910390a150565b60068181548110610d2a57600080fd5b906000526020600020016000915054906101000a900473ffffffffffffffffffffffffffffffffffffffff1681565b600033905090565b60008060009054906101000a900473ffffffffffffffffffffffffffffffffffffffff169050816000806101000a81548173ffffffffffffffffffffffffffffffffffffffff021916908373ffffffffffffffffffffffffffffffffffffffff1602179055508173ffffffffffffffffffffffffffffffffffffffff168173ffffffffffffffffffffffffffffffffffffffff167f8be0079c531659141344cd1fd0a4f28419497f9722a3daafe3b4186f6b6457e060405160405180910390a35050565b60006040517f3d602d80600a3d3981f3363d3d373d3d3d363d7300000000000000000000000081528260601b60148201527f5af43d82803e903d91602b57fd5bf3000000000000000000000000000000000060288201526037816000f0915050600073ffffffffffffffffffffffffffffffffffffffff168173ffffffffffffffffffffffffffffffffffffffff161415610ef5576040517f08c379a0000000000000000000000000000000000000000000000000000000008152600401610eec9061192e565b60405180910390fd5b919050565b6000604051905090565b600080fd5b600080fd5b600073ffffffffffffffffffffffffffffffffffffffff82169050919050565b6000610f3982610f0e565b9050919050565b610f4981610f2e565b8114610f5457600080fd5b50565b600081359050610f6681610f40565b92915050565b6000819050919050565b610f7f81610f6c565b8114610f8a57600080fd5b50565b600081359050610f9c81610f76565b92915050565b60008060408385031215610fb957610fb8610f04565b5b6000610fc785828601610f57565b9250506020610fd885828601610f8d565b9150509250929050565b610feb81610f2e565b82525050565b60006020820190506110066000830184610fe2565b92915050565b600080fd5b600080fd5b6000601f19601f8301169050919050565b7f4e487b7100000000000000000000000000000000000000000000000000000000600052604160045260246000fd5b61105f82611016565b810181811067ffffffffffffffff8211171561107e5761107d611027565b5b80604052505050565b6000611091610efa565b905061109d8282611056565b919050565b600067ffffffffffffffff8211156110bd576110bc611027565b5b6110c682611016565b9050602081019050919050565b82818337600083830152505050565b60006110f56110f0846110a2565b611087565b90508281526020810184848401111561111157611110611011565b5b61111c8482856110d3565b509392505050565b600082601f8301126111395761113861100c565b5b81356111498482602086016110e2565b91505092915050565b60008060008060008060c0878903121561116f5761116e610f04565b5b600087013567ffffffffffffffff81111561118d5761118c610f09565b5b61119989828a01611124565b965050602087013567ffffffffffffffff8111156111ba576111b9610f09565b5b6111c689828a01611124565b95505060406111d789828a01610f8d565b94505060606111e889828a01610f8d565b93505060806111f989828a01610f8d565b92505060a061120a89828a01610f8d565b9150509295509295509295565b60006020828403121561122d5761122c610f04565b5b600061123b84828501610f57565b91505092915050565b6000819050919050565b61125781611244565b811461126257600080fd5b50565b6000813590506112748161124e565b92915050565b6000806040838503121561129157611290610f04565b5b600061129f85828601611265565b92505060206112b085828601611265565b9150509250929050565b600081519050919050565b600082825260208201905092915050565b6000819050602082019050919050565b6112ef81610f2e565b82525050565b600061130183836112e6565b60208301905092915050565b6000602082019050919050565b6000611325826112ba565b61132f81856112c5565b935061133a836112d6565b8060005b8381101561136b57815161135288826112f5565b975061135d8361130d565b92505060018101905061133e565b5085935050505092915050565b60006020820190508181036000830152611392818461131a565b905092915050565b6000602082840312156113b0576113af610f04565b5b60006113be84828501610f8d565b91505092915050565b600082825260208201905092915050565b7f4f776e61626c653a2063616c6c6572206973206e6f7420746865206f776e6572600082015250565b600061140e6020836113c7565b9150611419826113d8565b602082019050919050565b6000602082019050818103600083015261143d81611401565b9050919050565b60008115159050919050565b61145981611444565b811461146457600080fd5b50565b60008151905061147681611450565b92915050565b60006020828403121561149257611491610f04565b5b60006114a084828501611467565b91505092915050565b7f4f6e6c79205649502075736572732063616e20636c6f6e652074686520636f6e60008201527f74726163742e0000000000000000000000000000000000000000000000000000602082015250565b60006115056026836113c7565b9150611510826114a9565b604082019050919050565b60006020820190508181036000830152611534816114f8565b9050919050565b600081519050919050565b60005b83811015611564578082015181840152602081019050611549565b83811115611573576000848401525b50505050565b60006115848261153b565b61158e81856113c7565b935061159e818560208601611546565b6115a781611016565b840191505092915050565b6115bb81610f6c565b82525050565b60006101208201905081810360008301526115dc818c611579565b905081810360208301526115f0818b611579565b90506115ff604083018a6115b2565b61160c60608301896115b2565b61161960808301886115b2565b61162660a08301876115b2565b61163360c0830186610fe2565b61164060e0830185610fe2565b61164e610100830184610fe2565b9a9950505050505050505050565b600060c0820190506116716000830189610fe2565b61167e6020830188610fe2565b61168b60408301876115b2565b61169860608301866115b2565b6116a560808301856115b2565b6116b260a08301846115b2565b979650505050505050565b60006040820190506116d26000830185610fe2565b6116df60208301846115b2565b9392505050565b7f4e487b7100000000000000000000000000000000000000000000000000000000600052601160045260246000fd5b600061172082611244565b915061172b83611244565b9250817f7fffffffffffffffffffffffffffffffffffffffffffffffffffffffffffffff03831360008312151615611766576117656116e6565b5b817f800000000000000000000000000000000000000000000000000000000000000003831260008312161561179e5761179d6116e6565b5b828201905092915050565b7f4e487b7100000000000000000000000000000000000000000000000000000000600052600160045260246000fd5b7f4e487b7100000000000000000000000000000000000000000000000000000000600052603260045260246000fd5b600061181282610f6c565b91507fffffffffffffffffffffffffffffffffffffffffffffffffffffffffffffffff821415611845576118446116e6565b5b600182019050919050565b7f4f776e61626c653a206e6577206f776e657220697320746865207a65726f206160008201527f6464726573730000000000000000000000000000000000000000000000000000602082015250565b60006118ac6026836113c7565b91506118b782611850565b604082019050919050565b600060208201905081810360008301526118db8161189f565b9050919050565b7f455243313136373a20637265617465206661696c656400000000000000000000600082015250565b60006119186016836113c7565b9150611923826118e2565b602082019050919050565b600060208201905081810360008301526119478161190b565b905091905056fea2646970667358221220fb0c829e7bed3f3cf7ad27900fe5799276f5fd17aaaec9aad4d39214659a734f64736f6c63430008090033",
  "linkReferences": {},
  "deployedLinkReferences": {}
}