{
  "_format": "hh-sol-artifact-1",
  "contractName": "Factory",
  "sourceName": "contracts/Factory.sol",
  "abi": [
    {
      "inputs": [
        {
          "internalType": "address",
          "name": "_registerContract",
          "type": "address"
        },
        {
          "internalType": "address",
          "name": "_randomNumberConsumer",
          "type": "address"
        },
        {
          "internalType": "address",
          "name": "_NFTContractAddress",
          "type": "address"
        },
        {
          "internalType": "address",
          "name": "_chanceRoomLibrary",
          "type": "address"
        }
      ],
      "stateMutability": "nonpayable",
      "type": "constructor"
    },
    {
      "anonymous": false,
      "inputs": [
        {
          "indexed": false,
          "internalType": "address",
          "name": "newLibrary",
          "type": "address"
        },
        {
          "indexed": false,
          "internalType": "uint256",
          "name": "updateTime",
          "type": "uint256"
        }
      ],
      "name": "ChanceRoomLibraryUpdated",
      "type": "event"
    },
    {
      "anonymous": false,
      "inputs": [
        {
          "indexed": false,
          "internalType": "address",
          "name": "newNFTContract",
          "type": "address"
        },
        {
          "indexed": false,
          "internalType": "uint256",
          "name": "updateTime",
          "type": "uint256"
        }
      ],
      "name": "NFTContractUpdated",
      "type": "event"
    },
    {
      "anonymous": false,
      "inputs": [
        {
          "indexed": false,
          "internalType": "address",
          "name": "chanceRoom",
          "type": "address"
        },
        {
          "indexed": false,
          "internalType": "address",
          "name": "owner",
          "type": "address"
        }
      ],
      "name": "NewChanceRoom",
      "type": "event"
    },
    {
      "anonymous": false,
      "inputs": [
        {
          "indexed": true,
          "internalType": "address",
          "name": "previousOwner",
          "type": "address"
        },
        {
          "indexed": true,
          "internalType": "address",
          "name": "newOwner",
          "type": "address"
        }
      ],
      "name": "OwnershipTransferred",
      "type": "event"
    },
    {
      "anonymous": false,
      "inputs": [
        {
          "indexed": false,
          "internalType": "address",
          "name": "newConsumer",
          "type": "address"
        },
        {
          "indexed": false,
          "internalType": "uint256",
          "name": "updateTime",
          "type": "uint256"
        }
      ],
      "name": "RandomNumberConsumerUpdated",
      "type": "event"
    },
    {
      "inputs": [],
      "name": "NFTContract",
      "outputs": [
        {
          "internalType": "address",
          "name": "",
          "type": "address"
        }
      ],
      "stateMutability": "view",
      "type": "function"
    },
    {
      "inputs": [],
      "name": "chanceRoomLibrary",
      "outputs": [
        {
          "internalType": "address",
          "name": "",
          "type": "address"
        }
      ],
      "stateMutability": "view",
      "type": "function"
    },
    {
      "inputs": [
        {
          "internalType": "uint256",
          "name": "",
          "type": "uint256"
        }
      ],
      "name": "chanceRooms",
      "outputs": [
        {
          "internalType": "address",
          "name": "",
          "type": "address"
        }
      ],
      "stateMutability": "view",
      "type": "function"
    },
    {
      "inputs": [
        {
          "internalType": "int256",
          "name": "_length",
          "type": "int256"
        },
        {
          "internalType": "int256",
          "name": "_offset",
          "type": "int256"
        }
      ],
      "name": "chanceRoomsCloned",
      "outputs": [
        {
          "internalType": "address[]",
          "name": "",
          "type": "address[]"
        }
      ],
      "stateMutability": "view",
      "type": "function"
    },
    {
      "inputs": [
        {
          "internalType": "address",
          "name": "",
          "type": "address"
        },
        {
          "internalType": "uint256",
          "name": "",
          "type": "uint256"
        }
      ],
      "name": "creatorToRooms",
      "outputs": [
        {
          "internalType": "address",
          "name": "",
          "type": "address"
        }
      ],
      "stateMutability": "view",
      "type": "function"
    },
    {
      "inputs": [
        {
          "internalType": "string",
          "name": "info",
          "type": "string"
        },
        {
          "internalType": "string",
          "name": "baseURI",
          "type": "string"
        },
        {
          "internalType": "uint256",
          "name": "gateFee",
          "type": "uint256"
        },
        {
          "internalType": "uint256",
          "name": "percentCommission",
          "type": "uint256"
        },
        {
          "internalType": "uint256",
          "name": "userLimit",
          "type": "uint256"
        },
        {
          "internalType": "uint256",
          "name": "timeLimit",
          "type": "uint256"
        }
      ],
      "name": "newChanceRoom",
      "outputs": [],
      "stateMutability": "nonpayable",
      "type": "function"
    },
    {
      "inputs": [
        {
          "internalType": "address",
          "name": "_chanceRoomLibrary",
          "type": "address"
        }
      ],
      "name": "newChanceRoomLibrary",
      "outputs": [],
      "stateMutability": "nonpayable",
      "type": "function"
    },
    {
      "inputs": [
        {
          "internalType": "address",
          "name": "_NFTContractAddress",
          "type": "address"
        }
      ],
      "name": "newNFTContract",
      "outputs": [],
      "stateMutability": "nonpayable",
      "type": "function"
    },
    {
      "inputs": [
        {
          "internalType": "address",
          "name": "_randomNumberConsumer",
          "type": "address"
        }
      ],
      "name": "newRandomNumberConsumer",
      "outputs": [],
      "stateMutability": "nonpayable",
      "type": "function"
    },
    {
      "inputs": [],
      "name": "numberOfClonedChanceRooms",
      "outputs": [
        {
          "internalType": "uint256",
          "name": "",
          "type": "uint256"
        }
      ],
      "stateMutability": "view",
      "type": "function"
    },
    {
      "inputs": [],
      "name": "owner",
      "outputs": [
        {
          "internalType": "address",
          "name": "",
          "type": "address"
        }
      ],
      "stateMutability": "view",
      "type": "function"
    },
    {
      "inputs": [],
      "name": "randomNumberConsumer",
      "outputs": [
        {
          "internalType": "address",
          "name": "",
          "type": "address"
        }
      ],
      "stateMutability": "view",
      "type": "function"
    },
    {
      "inputs": [],
      "name": "registerContract",
      "outputs": [
        {
          "internalType": "address",
          "name": "",
          "type": "address"
        }
      ],
      "stateMutability": "view",
      "type": "function"
    },
    {
      "inputs": [],
      "name": "renounceOwnership",
      "outputs": [],
      "stateMutability": "nonpayable",
      "type": "function"
    },
    {
      "inputs": [
        {
          "internalType": "address",
          "name": "newOwner",
          "type": "address"
        }
      ],
      "name": "transferOwnership",
      "outputs": [],
      "stateMutability": "nonpayable",
      "type": "function"
    }
  ],
  "bytecode": "0x60806040523480156200001157600080fd5b506040516200211a3803806200211a833981810160405281019062000037919062000627565b620000576200004b6200013860201b60201c565b6200014060201b60201c565b83600160006101000a81548173ffffffffffffffffffffffffffffffffffffffff021916908373ffffffffffffffffffffffffffffffffffffffff160217905550600160009054906101000a900473ffffffffffffffffffffffffffffffffffffffff16600560006101000a81548173ffffffffffffffffffffffffffffffffffffffff021916908373ffffffffffffffffffffffffffffffffffffffff1602179055506200010c836200020460201b60201c565b6200011d826200033460201b60201c565b6200012e816200046460201b60201c565b5050505062000775565b600033905090565b60008060009054906101000a900473ffffffffffffffffffffffffffffffffffffffff169050816000806101000a81548173ffffffffffffffffffffffffffffffffffffffff021916908373ffffffffffffffffffffffffffffffffffffffff1602179055508173ffffffffffffffffffffffffffffffffffffffff168173ffffffffffffffffffffffffffffffffffffffff167f8be0079c531659141344cd1fd0a4f28419497f9722a3daafe3b4186f6b6457e060405160405180910390a35050565b620002146200013860201b60201c565b73ffffffffffffffffffffffffffffffffffffffff166200023a6200059460201b60201c565b73ffffffffffffffffffffffffffffffffffffffff161462000293576040517f08c379a00000000000000000000000000000000000000000000000000000000081526004016200028a90620006fa565b60405180910390fd5b80600360006101000a81548173ffffffffffffffffffffffffffffffffffffffff021916908373ffffffffffffffffffffffffffffffffffffffff1602179055507fbba88e6e23bdc1165d7f9143b9264605235ada17a9a335d41b42b688f0d1ec2d600360009054906101000a900473ffffffffffffffffffffffffffffffffffffffff16426040516200032992919062000748565b60405180910390a150565b620003446200013860201b60201c565b73ffffffffffffffffffffffffffffffffffffffff166200036a6200059460201b60201c565b73ffffffffffffffffffffffffffffffffffffffff1614620003c3576040517f08c379a0000000000000000000000000000000000000000000000000000000008152600401620003ba90620006fa565b60405180910390fd5b80600460006101000a81548173ffffffffffffffffffffffffffffffffffffffff021916908373ffffffffffffffffffffffffffffffffffffffff1602179055507fc73979e992d22e193f7b5e662cd8c78074e65778072e4a967c02dfe18fca58af600460009054906101000a900473ffffffffffffffffffffffffffffffffffffffff16426040516200045992919062000748565b60405180910390a150565b620004746200013860201b60201c565b73ffffffffffffffffffffffffffffffffffffffff166200049a6200059460201b60201c565b73ffffffffffffffffffffffffffffffffffffffff1614620004f3576040517f08c379a0000000000000000000000000000000000000000000000000000000008152600401620004ea90620006fa565b60405180910390fd5b80600260006101000a81548173ffffffffffffffffffffffffffffffffffffffff021916908373ffffffffffffffffffffffffffffffffffffffff1602179055507f7e487d8b19c664bc86759c7a2d4b39dd066c32e710c107f87ce7045896d19f0d600260009054906101000a900473ffffffffffffffffffffffffffffffffffffffff16426040516200058992919062000748565b60405180910390a150565b60008060009054906101000a900473ffffffffffffffffffffffffffffffffffffffff16905090565b600080fd5b600073ffffffffffffffffffffffffffffffffffffffff82169050919050565b6000620005ef82620005c2565b9050919050565b6200060181620005e2565b81146200060d57600080fd5b50565b6000815190506200062181620005f6565b92915050565b60008060008060808587031215620006445762000643620005bd565b5b6000620006548782880162000610565b9450506020620006678782880162000610565b93505060406200067a8782880162000610565b92505060606200068d8782880162000610565b91505092959194509250565b600082825260208201905092915050565b7f4f776e61626c653a2063616c6c6572206973206e6f7420746865206f776e6572600082015250565b6000620006e260208362000699565b9150620006ef82620006aa565b602082019050919050565b600060208201905081810360008301526200071581620006d3565b9050919050565b6200072781620005e2565b82525050565b6000819050919050565b62000742816200072d565b82525050565b60006040820190506200075f60008301856200071c565b6200076e602083018462000737565b9392505050565b61199580620007856000396000f3fe608060405234801561001057600080fd5b50600436106100f55760003560e01c806396531cea11610097578063dab95a4911610066578063dab95a4914610250578063f2fde38b1461026c578063f4603bc814610288578063f4af382a146102a4576100f5565b806396531cea146101ca578063b6ca8db9146101e6578063c46aeda914610204578063da7d175014610220576100f5565b806346df22da116100d357806346df22da14610166578063715018a6146101845780637feffff31461018e5780638da5cb5b146101ac576100f5565b806320d15dbb146100fa57806331c2273b1461012a578063410ad8d114610148575b600080fd5b610114600480360381019061010f9190610fd0565b6102d4565b604051610121919061101f565b60405180910390f35b610132610322565b60405161013f919061101f565b60405180910390f35b610150610348565b60405161015d9190611049565b60405180910390f35b61016e610355565b60405161017b919061101f565b60405180910390f35b61018c61037b565b005b610196610403565b6040516101a3919061101f565b60405180910390f35b6101b4610429565b6040516101c1919061101f565b60405180910390f35b6101e460048036038101906101df91906111aa565b610452565b005b6101ee610798565b6040516101fb919061101f565b60405180910390f35b61021e6004803603810190610219919061126f565b6107be565b005b61023a600480360381019061023591906112d2565b6108d9565b60405161024791906113d0565b60405180910390f35b61026a6004803603810190610265919061126f565b610a1a565b005b6102866004803603810190610281919061126f565b610b35565b005b6102a2600480360381019061029d919061126f565b610c2d565b005b6102be60048036038101906102b991906113f2565b610d48565b6040516102cb919061101f565b60405180910390f35b600760205281600052604060002081815481106102f057600080fd5b906000526020600020016000915091509054906101000a900473ffffffffffffffffffffffffffffffffffffffff1681565b600460009054906101000a900473ffffffffffffffffffffffffffffffffffffffff1681565b6000600680549050905090565b600360009054906101000a900473ffffffffffffffffffffffffffffffffffffffff1681565b610383610d87565b73ffffffffffffffffffffffffffffffffffffffff166103a1610429565b73ffffffffffffffffffffffffffffffffffffffff16146103f7576040517f08c379a00000000000000000000000000000000000000000000000000000000081526004016103ee9061147c565b60405180910390fd5b6104016000610d8f565b565b600160009054906101000a900473ffffffffffffffffffffffffffffffffffffffff1681565b60008060009054906101000a900473ffffffffffffffffffffffffffffffffffffffff16905090565b600061045c610d87565b9050600560009054906101000a900473ffffffffffffffffffffffffffffffffffffffff1673ffffffffffffffffffffffffffffffffffffffff1663b2dd5c07826040518263ffffffff1660e01b81526004016104b9919061101f565b60206040518083038186803b1580156104d157600080fd5b505afa1580156104e5573d6000803e3d6000fd5b505050506040513d601f19601f8201168201806040525081019061050991906114d4565b610548576040517f08c379a000000000000000000000000000000000000000000000000000000000815260040161053f90611573565b60405180910390fd5b600061058b600260009054906101000a900473ffffffffffffffffffffffffffffffffffffffff1673ffffffffffffffffffffffffffffffffffffffff16610e53565b905060008190508073ffffffffffffffffffffffffffffffffffffffff166303d3c2188a8a8a8a8a8a8a600360009054906101000a900473ffffffffffffffffffffffffffffffffffffffff16600460009054906101000a900473ffffffffffffffffffffffffffffffffffffffff166040518a63ffffffff1660e01b815260040161061f9998979695949392919061160a565b600060405180830381600087803b15801561063957600080fd5b505af115801561064d573d6000803e3d6000fd5b50505050600760008473ffffffffffffffffffffffffffffffffffffffff1673ffffffffffffffffffffffffffffffffffffffff168152602001908152602001600020829080600181540180825580915050600190039060005260206000200160009091909190916101000a81548173ffffffffffffffffffffffffffffffffffffffff021916908373ffffffffffffffffffffffffffffffffffffffff1602179055506006829080600181540180825580915050600190039060005260206000200160009091909190916101000a81548173ffffffffffffffffffffffffffffffffffffffff021916908373ffffffffffffffffffffffffffffffffffffffff1602179055507fae8cb6c4846333e05a9f771a9e08f3c8934e9c43192e001645862e6bad7abbf282846040516107859291906116a5565b60405180910390a1505050505050505050565b600260009054906101000a900473ffffffffffffffffffffffffffffffffffffffff1681565b6107c6610d87565b73ffffffffffffffffffffffffffffffffffffffff166107e4610429565b73ffffffffffffffffffffffffffffffffffffffff161461083a576040517f08c379a00000000000000000000000000000000000000000000000000000000081526004016108319061147c565b60405180910390fd5b80600260006101000a81548173ffffffffffffffffffffffffffffffffffffffff021916908373ffffffffffffffffffffffffffffffffffffffff1602179055507f7e487d8b19c664bc86759c7a2d4b39dd066c32e710c107f87ce7045896d19f0d600260009054906101000a900473ffffffffffffffffffffffffffffffffffffffff16426040516108ce9291906116ce565b60405180910390a150565b606060068054905083836108ed9190611726565b11156108fc576108fb6117ba565b5b60008367ffffffffffffffff8111156109185761091761107f565b5b6040519080825280602002602001820160405280156109465781602001602082028036833780820191505090505b5090506000808490505b858561095c9190611726565b811015610a0e5760068181548110610977576109766117e9565b5b9060005260206000200160009054906101000a900473ffffffffffffffffffffffffffffffffffffffff168383806109ae90611818565b9450815181106109c1576109c06117e9565b5b602002602001019073ffffffffffffffffffffffffffffffffffffffff16908173ffffffffffffffffffffffffffffffffffffffff16815250508080610a0690611818565b915050610950565b50819250505092915050565b610a22610d87565b73ffffffffffffffffffffffffffffffffffffffff16610a40610429565b73ffffffffffffffffffffffffffffffffffffffff1614610a96576040517f08c379a0000000000000000000000000000000000000000000000000000000008152600401610a8d9061147c565b60405180910390fd5b80600460006101000a81548173ffffffffffffffffffffffffffffffffffffffff021916908373ffffffffffffffffffffffffffffffffffffffff1602179055507fc73979e992d22e193f7b5e662cd8c78074e65778072e4a967c02dfe18fca58af600460009054906101000a900473ffffffffffffffffffffffffffffffffffffffff1642604051610b2a9291906116ce565b60405180910390a150565b610b3d610d87565b73ffffffffffffffffffffffffffffffffffffffff16610b5b610429565b73ffffffffffffffffffffffffffffffffffffffff1614610bb1576040517f08c379a0000000000000000000000000000000000000000000000000000000008152600401610ba89061147c565b60405180910390fd5b600073ffffffffffffffffffffffffffffffffffffffff168173ffffffffffffffffffffffffffffffffffffffff161415610c21576040517f08c379a0000000000000000000000000000000000000000000000000000000008152600401610c18906118d3565b60405180910390fd5b610c2a81610d8f565b50565b610c35610d87565b73ffffffffffffffffffffffffffffffffffffffff16610c53610429565b73ffffffffffffffffffffffffffffffffffffffff1614610ca9576040517f08c379a0000000000000000000000000000000000000000000000000000000008152600401610ca09061147c565b60405180910390fd5b80600360006101000a81548173ffffffffffffffffffffffffffffffffffffffff021916908373ffffffffffffffffffffffffffffffffffffffff1602179055507fbba88e6e23bdc1165d7f9143b9264605235ada17a9a335d41b42b688f0d1ec2d600360009054906101000a900473ffffffffffffffffffffffffffffffffffffffff1642604051610d3d9291906116ce565b60405180910390a150565b60068181548110610d5857600080fd5b906000526020600020016000915054906101000a900473ffffffffffffffffffffffffffffffffffffffff1681565b600033905090565b60008060009054906101000a900473ffffffffffffffffffffffffffffffffffffffff169050816000806101000a81548173ffffffffffffffffffffffffffffffffffffffff021916908373ffffffffffffffffffffffffffffffffffffffff1602179055508173ffffffffffffffffffffffffffffffffffffffff168173ffffffffffffffffffffffffffffffffffffffff167f8be0079c531659141344cd1fd0a4f28419497f9722a3daafe3b4186f6b6457e060405160405180910390a35050565b60006040517f3d602d80600a3d3981f3363d3d373d3d3d363d7300000000000000000000000081528260601b60148201527f5af43d82803e903d91602b57fd5bf3000000000000000000000000000000000060288201526037816000f0915050600073ffffffffffffffffffffffffffffffffffffffff168173ffffffffffffffffffffffffffffffffffffffff161415610f23576040517f08c379a0000000000000000000000000000000000000000000000000000000008152600401610f1a9061193f565b60405180910390fd5b919050565b6000604051905090565b600080fd5b600080fd5b600073ffffffffffffffffffffffffffffffffffffffff82169050919050565b6000610f6782610f3c565b9050919050565b610f7781610f5c565b8114610f8257600080fd5b50565b600081359050610f9481610f6e565b92915050565b6000819050919050565b610fad81610f9a565b8114610fb857600080fd5b50565b600081359050610fca81610fa4565b92915050565b60008060408385031215610fe757610fe6610f32565b5b6000610ff585828601610f85565b925050602061100685828601610fbb565b9150509250929050565b61101981610f5c565b82525050565b60006020820190506110346000830184611010565b92915050565b61104381610f9a565b82525050565b600060208201905061105e600083018461103a565b92915050565b600080fd5b600080fd5b6000601f19601f8301169050919050565b7f4e487b7100000000000000000000000000000000000000000000000000000000600052604160045260246000fd5b6110b78261106e565b810181811067ffffffffffffffff821117156110d6576110d561107f565b5b80604052505050565b60006110e9610f28565b90506110f582826110ae565b919050565b600067ffffffffffffffff8211156111155761111461107f565b5b61111e8261106e565b9050602081019050919050565b82818337600083830152505050565b600061114d611148846110fa565b6110df565b90508281526020810184848401111561116957611168611069565b5b61117484828561112b565b509392505050565b600082601f83011261119157611190611064565b5b81356111a184826020860161113a565b91505092915050565b60008060008060008060c087890312156111c7576111c6610f32565b5b600087013567ffffffffffffffff8111156111e5576111e4610f37565b5b6111f189828a0161117c565b965050602087013567ffffffffffffffff81111561121257611211610f37565b5b61121e89828a0161117c565b955050604061122f89828a01610fbb565b945050606061124089828a01610fbb565b935050608061125189828a01610fbb565b92505060a061126289828a01610fbb565b9150509295509295509295565b60006020828403121561128557611284610f32565b5b600061129384828501610f85565b91505092915050565b6000819050919050565b6112af8161129c565b81146112ba57600080fd5b50565b6000813590506112cc816112a6565b92915050565b600080604083850312156112e9576112e8610f32565b5b60006112f7858286016112bd565b9250506020611308858286016112bd565b9150509250929050565b600081519050919050565b600082825260208201905092915050565b6000819050602082019050919050565b61134781610f5c565b82525050565b6000611359838361133e565b60208301905092915050565b6000602082019050919050565b600061137d82611312565b611387818561131d565b93506113928361132e565b8060005b838110156113c35781516113aa888261134d565b97506113b583611365565b925050600181019050611396565b5085935050505092915050565b600060208201905081810360008301526113ea8184611372565b905092915050565b60006020828403121561140857611407610f32565b5b600061141684828501610fbb565b91505092915050565b600082825260208201905092915050565b7f4f776e61626c653a2063616c6c6572206973206e6f7420746865206f776e6572600082015250565b600061146660208361141f565b915061147182611430565b602082019050919050565b6000602082019050818103600083015261149581611459565b9050919050565b60008115159050919050565b6114b18161149c565b81146114bc57600080fd5b50565b6000815190506114ce816114a8565b92915050565b6000602082840312156114ea576114e9610f32565b5b60006114f8848285016114bf565b91505092915050565b7f4f6e6c79205649502075736572732063616e20636c6f6e652074686520636f6e60008201527f74726163742e0000000000000000000000000000000000000000000000000000602082015250565b600061155d60268361141f565b915061156882611501565b604082019050919050565b6000602082019050818103600083015261158c81611550565b9050919050565b600081519050919050565b60005b838110156115bc5780820151818401526020810190506115a1565b838111156115cb576000848401525b50505050565b60006115dc82611593565b6115e6818561141f565b93506115f681856020860161159e565b6115ff8161106e565b840191505092915050565b6000610120820190508181036000830152611625818c6115d1565b90508181036020830152611639818b6115d1565b9050611648604083018a61103a565b611655606083018961103a565b611662608083018861103a565b61166f60a083018761103a565b61167c60c0830186611010565b61168960e0830185611010565b611697610100830184611010565b9a9950505050505050505050565b60006040820190506116ba6000830185611010565b6116c76020830184611010565b9392505050565b60006040820190506116e36000830185611010565b6116f0602083018461103a565b9392505050565b7f4e487b7100000000000000000000000000000000000000000000000000000000600052601160045260246000fd5b60006117318261129c565b915061173c8361129c565b9250817f7fffffffffffffffffffffffffffffffffffffffffffffffffffffffffffffff03831360008312151615611777576117766116f7565b5b817f80000000000000000000000000000000000000000000000000000000000000000383126000831216156117af576117ae6116f7565b5b828201905092915050565b7f4e487b7100000000000000000000000000000000000000000000000000000000600052600160045260246000fd5b7f4e487b7100000000000000000000000000000000000000000000000000000000600052603260045260246000fd5b600061182382610f9a565b91507fffffffffffffffffffffffffffffffffffffffffffffffffffffffffffffffff821415611856576118556116f7565b5b600182019050919050565b7f4f776e61626c653a206e6577206f776e657220697320746865207a65726f206160008201527f6464726573730000000000000000000000000000000000000000000000000000602082015250565b60006118bd60268361141f565b91506118c882611861565b604082019050919050565b600060208201905081810360008301526118ec816118b0565b9050919050565b7f455243313136373a20637265617465206661696c656400000000000000000000600082015250565b600061192960168361141f565b9150611934826118f3565b602082019050919050565b600060208201905081810360008301526119588161191c565b905091905056fea2646970667358221220481c377629e917b14241cd447397bc4602fde8e3dadf3f5bedb9d1be6281fcf364736f6c63430008090033",
  "linkReferences": {},
  "deployedLinkReferences": {}
}