{
  "_format": "hh-sol-artifact-1",
  "contractName": "ERC777TestReceiver",
  "sourceName": "contracts/ERC777/ERC777TestReceiver.sol",
  "abi": [
    {
      "inputs": [],
      "stateMutability": "nonpayable",
      "type": "constructor"
    },
    {
      "inputs": [
        {
          "internalType": "address",
          "name": "tokenContractAddress",
          "type": "address"
        }
      ],
      "name": "ERC777Balance",
      "outputs": [
        {
          "internalType": "uint256",
          "name": "",
          "type": "uint256"
        }
      ],
      "stateMutability": "view",
      "type": "function"
    },
    {
      "inputs": [
        {
          "internalType": "address",
          "name": "operator",
          "type": "address"
        },
        {
          "internalType": "address",
          "name": "from",
          "type": "address"
        },
        {
          "internalType": "address",
          "name": "to",
          "type": "address"
        },
        {
          "internalType": "uint256",
          "name": "amount",
          "type": "uint256"
        },
        {
          "internalType": "bytes",
          "name": "userData",
          "type": "bytes"
        },
        {
          "internalType": "bytes",
          "name": "operatorData",
          "type": "bytes"
        }
      ],
      "name": "tokensReceived",
      "outputs": [],
      "stateMutability": "nonpayable",
      "type": "function"
    }
  ],
  "bytecode": "0x608060405234801561001057600080fd5b50731820a4b7618bde71dce8cdc73aab6c95905fad2473ffffffffffffffffffffffffffffffffffffffff166329965a1d307fb281fc8c12954d22544db45de3159a39272895b169a852b314f9cc762e44c53b306040518463ffffffff1660e01b815260040161008293929190610113565b600060405180830381600087803b15801561009c57600080fd5b505af11580156100b0573d6000803e3d6000fd5b5050505061014a565b600073ffffffffffffffffffffffffffffffffffffffff82169050919050565b60006100e4826100b9565b9050919050565b6100f4816100d9565b82525050565b6000819050919050565b61010d816100fa565b82525050565b600060608201905061012860008301866100eb565b6101356020830185610104565b61014260408301846100eb565b949350505050565b6104ba806101596000396000f3fe608060405234801561001057600080fd5b50600436106100355760003560e01c806223de291461003a578063f07d631514610056575b600080fd5b610054600480360381019061004f9190610275565b610086565b005b610070600480360381019061006b9190610344565b6100db565b60405161007d9190610380565b60405180910390f35b683635c9adc5dea0000085146100d1576040517f08c379a00000000000000000000000000000000000000000000000000000000081526004016100c8906103f8565b60405180910390fd5b5050505050505050565b6000808290508073ffffffffffffffffffffffffffffffffffffffff166370a08231306040518263ffffffff1660e01b815260040161011a9190610427565b60206040518083038186803b15801561013257600080fd5b505afa158015610146573d6000803e3d6000fd5b505050506040513d601f19601f8201168201806040525081019061016a9190610457565b915050919050565b600080fd5b600080fd5b600073ffffffffffffffffffffffffffffffffffffffff82169050919050565b60006101a78261017c565b9050919050565b6101b78161019c565b81146101c257600080fd5b50565b6000813590506101d4816101ae565b92915050565b6000819050919050565b6101ed816101da565b81146101f857600080fd5b50565b60008135905061020a816101e4565b92915050565b600080fd5b600080fd5b600080fd5b60008083601f84011261023557610234610210565b5b8235905067ffffffffffffffff81111561025257610251610215565b5b60208301915083600182028301111561026e5761026d61021a565b5b9250929050565b60008060008060008060008060c0898b03121561029557610294610172565b5b60006102a38b828c016101c5565b98505060206102b48b828c016101c5565b97505060406102c58b828c016101c5565b96505060606102d68b828c016101fb565b955050608089013567ffffffffffffffff8111156102f7576102f6610177565b5b6103038b828c0161021f565b945094505060a089013567ffffffffffffffff81111561032657610325610177565b5b6103328b828c0161021f565b92509250509295985092959890939650565b60006020828403121561035a57610359610172565b5b6000610368848285016101c5565b91505092915050565b61037a816101da565b82525050565b60006020820190506103956000830184610371565b92915050565b600082825260208201905092915050565b7f696e73756666696369656e742066656500000000000000000000000000000000600082015250565b60006103e260108361039b565b91506103ed826103ac565b602082019050919050565b60006020820190508181036000830152610411816103d5565b9050919050565b6104218161019c565b82525050565b600060208201905061043c6000830184610418565b92915050565b600081519050610451816101e4565b92915050565b60006020828403121561046d5761046c610172565b5b600061047b84828501610442565b9150509291505056fea26469706673582212209544d6d58d7b1a2fe08e314bef8d2c81e2217a402b0af677c4b46f5a7d3c997164736f6c63430008090033",
  "linkReferences": {},
  "deployedLinkReferences": {}
}