{
  "_format": "hh-sol-artifact-1",
  "contractName": "Erc20Permit",
  "sourceName": "@paulrberg/contracts/token/erc20/Erc20Permit.sol",
  "abi": [
    {
      "inputs": [
        {
          "internalType": "string",
          "name": "_name",
          "type": "string"
        },
        {
          "internalType": "string",
          "name": "_symbol",
          "type": "string"
        },
        {
          "internalType": "uint8",
          "name": "_decimals",
          "type": "uint8"
        }
      ],
      "stateMutability": "nonpayable",
      "type": "constructor"
    },
    {
      "inputs": [
        {
          "internalType": "uint8",
          "name": "v",
          "type": "uint8"
        },
        {
          "internalType": "bytes32",
          "name": "r",
          "type": "bytes32"
        },
        {
          "internalType": "bytes32",
          "name": "s",
          "type": "bytes32"
        }
      ],
      "name": "Erc20Permit__InvalidSignature",
      "type": "error"
    },
    {
      "inputs": [],
      "name": "Erc20Permit__OwnerZeroAddress",
      "type": "error"
    },
    {
      "inputs": [
        {
          "internalType": "uint256",
          "name": "deadline",
          "type": "uint256"
        }
      ],
      "name": "Erc20Permit__PermitExpired",
      "type": "error"
    },
    {
      "inputs": [],
      "name": "Erc20Permit__RecoveredOwnerZeroAddress",
      "type": "error"
    },
    {
      "inputs": [],
      "name": "Erc20Permit__SpenderZeroAddress",
      "type": "error"
    },
    {
      "inputs": [],
      "name": "Erc20__ApproveOwnerZeroAddress",
      "type": "error"
    },
    {
      "inputs": [],
      "name": "Erc20__ApproveSpenderZeroAddress",
      "type": "error"
    },
    {
      "inputs": [
        {
          "internalType": "uint256",
          "name": "allowance",
          "type": "uint256"
        },
        {
          "internalType": "uint256",
          "name": "amount",
          "type": "uint256"
        }
      ],
      "name": "Erc20__InsufficientAllowance",
      "type": "error"
    },
    {
      "inputs": [
        {
          "internalType": "uint256",
          "name": "senderBalance",
          "type": "uint256"
        },
        {
          "internalType": "uint256",
          "name": "amount",
          "type": "uint256"
        }
      ],
      "name": "Erc20__InsufficientBalance",
      "type": "error"
    },
    {
      "inputs": [],
      "name": "Erc20__TransferRecipientZeroAddress",
      "type": "error"
    },
    {
      "inputs": [],
      "name": "Erc20__TransferSenderZeroAddress",
      "type": "error"
    },
    {
      "anonymous": false,
      "inputs": [
        {
          "indexed": true,
          "internalType": "address",
          "name": "owner",
          "type": "address"
        },
        {
          "indexed": true,
          "internalType": "address",
          "name": "spender",
          "type": "address"
        },
        {
          "indexed": false,
          "internalType": "uint256",
          "name": "amount",
          "type": "uint256"
        }
      ],
      "name": "Approval",
      "type": "event"
    },
    {
      "anonymous": false,
      "inputs": [
        {
          "indexed": true,
          "internalType": "address",
          "name": "from",
          "type": "address"
        },
        {
          "indexed": true,
          "internalType": "address",
          "name": "to",
          "type": "address"
        },
        {
          "indexed": false,
          "internalType": "uint256",
          "name": "amount",
          "type": "uint256"
        }
      ],
      "name": "Transfer",
      "type": "event"
    },
    {
      "inputs": [],
      "name": "DOMAIN_SEPARATOR",
      "outputs": [
        {
          "internalType": "bytes32",
          "name": "",
          "type": "bytes32"
        }
      ],
      "stateMutability": "view",
      "type": "function"
    },
    {
      "inputs": [],
      "name": "PERMIT_TYPEHASH",
      "outputs": [
        {
          "internalType": "bytes32",
          "name": "",
          "type": "bytes32"
        }
      ],
      "stateMutability": "view",
      "type": "function"
    },
    {
      "inputs": [
        {
          "internalType": "address",
          "name": "owner",
          "type": "address"
        },
        {
          "internalType": "address",
          "name": "spender",
          "type": "address"
        }
      ],
      "name": "allowance",
      "outputs": [
        {
          "internalType": "uint256",
          "name": "",
          "type": "uint256"
        }
      ],
      "stateMutability": "view",
      "type": "function"
    },
    {
      "inputs": [
        {
          "internalType": "address",
          "name": "spender",
          "type": "address"
        },
        {
          "internalType": "uint256",
          "name": "amount",
          "type": "uint256"
        }
      ],
      "name": "approve",
      "outputs": [
        {
          "internalType": "bool",
          "name": "",
          "type": "bool"
        }
      ],
      "stateMutability": "nonpayable",
      "type": "function"
    },
    {
      "inputs": [
        {
          "internalType": "address",
          "name": "account",
          "type": "address"
        }
      ],
      "name": "balanceOf",
      "outputs": [
        {
          "internalType": "uint256",
          "name": "",
          "type": "uint256"
        }
      ],
      "stateMutability": "view",
      "type": "function"
    },
    {
      "inputs": [],
      "name": "decimals",
      "outputs": [
        {
          "internalType": "uint8",
          "name": "",
          "type": "uint8"
        }
      ],
      "stateMutability": "view",
      "type": "function"
    },
    {
      "inputs": [
        {
          "internalType": "address",
          "name": "spender",
          "type": "address"
        },
        {
          "internalType": "uint256",
          "name": "subtractedAmount",
          "type": "uint256"
        }
      ],
      "name": "decreaseAllowance",
      "outputs": [
        {
          "internalType": "bool",
          "name": "",
          "type": "bool"
        }
      ],
      "stateMutability": "nonpayable",
      "type": "function"
    },
    {
      "inputs": [
        {
          "internalType": "address",
          "name": "spender",
          "type": "address"
        },
        {
          "internalType": "uint256",
          "name": "addedAmount",
          "type": "uint256"
        }
      ],
      "name": "increaseAllowance",
      "outputs": [
        {
          "internalType": "bool",
          "name": "",
          "type": "bool"
        }
      ],
      "stateMutability": "nonpayable",
      "type": "function"
    },
    {
      "inputs": [],
      "name": "name",
      "outputs": [
        {
          "internalType": "string",
          "name": "",
          "type": "string"
        }
      ],
      "stateMutability": "view",
      "type": "function"
    },
    {
      "inputs": [
        {
          "internalType": "address",
          "name": "",
          "type": "address"
        }
      ],
      "name": "nonces",
      "outputs": [
        {
          "internalType": "uint256",
          "name": "",
          "type": "uint256"
        }
      ],
      "stateMutability": "view",
      "type": "function"
    },
    {
      "inputs": [
        {
          "internalType": "address",
          "name": "owner",
          "type": "address"
        },
        {
          "internalType": "address",
          "name": "spender",
          "type": "address"
        },
        {
          "internalType": "uint256",
          "name": "amount",
          "type": "uint256"
        },
        {
          "internalType": "uint256",
          "name": "deadline",
          "type": "uint256"
        },
        {
          "internalType": "uint8",
          "name": "v",
          "type": "uint8"
        },
        {
          "internalType": "bytes32",
          "name": "r",
          "type": "bytes32"
        },
        {
          "internalType": "bytes32",
          "name": "s",
          "type": "bytes32"
        }
      ],
      "name": "permit",
      "outputs": [],
      "stateMutability": "nonpayable",
      "type": "function"
    },
    {
      "inputs": [],
      "name": "symbol",
      "outputs": [
        {
          "internalType": "string",
          "name": "",
          "type": "string"
        }
      ],
      "stateMutability": "view",
      "type": "function"
    },
    {
      "inputs": [],
      "name": "totalSupply",
      "outputs": [
        {
          "internalType": "uint256",
          "name": "",
          "type": "uint256"
        }
      ],
      "stateMutability": "view",
      "type": "function"
    },
    {
      "inputs": [
        {
          "internalType": "address",
          "name": "recipient",
          "type": "address"
        },
        {
          "internalType": "uint256",
          "name": "amount",
          "type": "uint256"
        }
      ],
      "name": "transfer",
      "outputs": [
        {
          "internalType": "bool",
          "name": "",
          "type": "bool"
        }
      ],
      "stateMutability": "nonpayable",
      "type": "function"
    },
    {
      "inputs": [
        {
          "internalType": "address",
          "name": "sender",
          "type": "address"
        },
        {
          "internalType": "address",
          "name": "recipient",
          "type": "address"
        },
        {
          "internalType": "uint256",
          "name": "amount",
          "type": "uint256"
        }
      ],
      "name": "transferFrom",
      "outputs": [
        {
          "internalType": "bool",
          "name": "",
          "type": "bool"
        }
      ],
      "stateMutability": "nonpayable",
      "type": "function"
    },
    {
      "inputs": [],
      "name": "version",
      "outputs": [
        {
          "internalType": "string",
          "name": "",
          "type": "string"
        }
      ],
      "stateMutability": "view",
      "type": "function"
    }
  ],
  "bytecode": "0x60c06040523480156200001157600080fd5b5060405162001da238038062001da28339818101604052810190620000379190620003c3565b82828282600090805190602001906200005292919062000138565b5081600190805190602001906200006b92919062000138565b508060ff1660808160ff168152505050505060004690507f8b73c3c69bb8fe3d512ecc4cf759cc79239f7b179b0ffacaa9a75d522b39400f6000604051620000b491906200056d565b60405180910390206040518060400160405280600181526020017f31000000000000000000000000000000000000000000000000000000000000008152508051906020012083306040516020016200011195949392919062000601565b6040516020818303038152906040528051906020012060a08181525050505050506200065e565b82805462000146906200048c565b90600052602060002090601f0160209004810192826200016a5760008555620001b6565b82601f106200018557805160ff1916838001178555620001b6565b82800160010185558215620001b6579182015b82811115620001b557825182559160200191906001019062000198565b5b509050620001c59190620001c9565b5090565b5b80821115620001e4576000816000905550600101620001ca565b5090565b6000604051905090565b600080fd5b600080fd5b600080fd5b600080fd5b6000601f19601f8301169050919050565b7f4e487b7100000000000000000000000000000000000000000000000000000000600052604160045260246000fd5b620002518262000206565b810181811067ffffffffffffffff8211171562000273576200027262000217565b5b80604052505050565b600062000288620001e8565b905062000296828262000246565b919050565b600067ffffffffffffffff821115620002b957620002b862000217565b5b620002c48262000206565b9050602081019050919050565b60005b83811015620002f1578082015181840152602081019050620002d4565b8381111562000301576000848401525b50505050565b60006200031e62000318846200029b565b6200027c565b9050828152602081018484840111156200033d576200033c62000201565b5b6200034a848285620002d1565b509392505050565b600082601f8301126200036a5762000369620001fc565b5b81516200037c84826020860162000307565b91505092915050565b600060ff82169050919050565b6200039d8162000385565b8114620003a957600080fd5b50565b600081519050620003bd8162000392565b92915050565b600080600060608486031215620003df57620003de620001f2565b5b600084015167ffffffffffffffff8111156200040057620003ff620001f7565b5b6200040e8682870162000352565b935050602084015167ffffffffffffffff811115620004325762000431620001f7565b5b620004408682870162000352565b92505060406200045386828701620003ac565b9150509250925092565b7f4e487b7100000000000000000000000000000000000000000000000000000000600052602260045260246000fd5b60006002820490506001821680620004a557607f821691505b60208210811415620004bc57620004bb6200045d565b5b50919050565b600081905092915050565b60008190508160005260206000209050919050565b60008154620004f1816200048c565b620004fd8186620004c2565b945060018216600081146200051b57600181146200052d5762000564565b60ff1983168652818601935062000564565b6200053885620004cd565b60005b838110156200055c578154818901526001820191506020810190506200053b565b838801955050505b50505092915050565b60006200057b8284620004e2565b915081905092915050565b6000819050919050565b6200059b8162000586565b82525050565b6000819050919050565b620005b681620005a1565b82525050565b600073ffffffffffffffffffffffffffffffffffffffff82169050919050565b6000620005e982620005bc565b9050919050565b620005fb81620005dc565b82525050565b600060a08201905062000618600083018862000590565b62000627602083018762000590565b62000636604083018662000590565b620006456060830185620005ab565b620006546080830184620005f0565b9695505050505050565b60805160a0516117176200068b6000396000818161055901526109bc0152600061053501526117176000f3fe608060405234801561001057600080fd5b50600436106101005760003560e01c806354fd4d5011610097578063a457c2d711610066578063a457c2d7146102c7578063a9059cbb146102f7578063d505accf14610327578063dd62ed3e1461034357610100565b806354fd4d501461022b57806370a08231146102495780637ecebe001461027957806395d89b41146102a957610100565b806330adf81f116100d357806330adf81f146101a1578063313ce567146101bf5780633644e515146101dd57806339509351146101fb57610100565b806306fdde0314610105578063095ea7b31461012357806318160ddd1461015357806323b872dd14610171575b600080fd5b61010d610373565b60405161011a9190611083565b60405180910390f35b61013d6004803603810190610138919061113e565b610401565b60405161014a9190611199565b60405180910390f35b61015b610418565b60405161016891906111c3565b60405180910390f35b61018b600480360381019061018691906111de565b61041e565b6040516101989190611199565b60405180910390f35b6101a961050c565b6040516101b6919061124a565b60405180910390f35b6101c7610533565b6040516101d49190611281565b60405180910390f35b6101e5610557565b6040516101f2919061124a565b60405180910390f35b6102156004803603810190610210919061113e565b61057b565b6040516102229190611199565b60405180910390f35b61023361061e565b6040516102409190611083565b60405180910390f35b610263600480360381019061025e919061129c565b610657565b60405161027091906111c3565b60405180910390f35b610293600480360381019061028e919061129c565b6106a0565b6040516102a091906111c3565b60405180910390f35b6102b16106b8565b6040516102be9190611083565b60405180910390f35b6102e160048036038101906102dc919061113e565b610746565b6040516102ee9190611199565b60405180910390f35b610311600480360381019061030c919061113e565b6107e9565b60405161031e9190611199565b60405180910390f35b610341600480360381019061033c9190611321565b610800565b005b61035d600480360381019061035891906113c3565b610b4a565b60405161036a91906111c3565b60405180910390f35b6000805461038090611432565b80601f01602080910402602001604051908101604052809291908181526020018280546103ac90611432565b80156103f95780601f106103ce576101008083540402835291602001916103f9565b820191906000526020600020905b8154815290600101906020018083116103dc57829003601f168201915b505050505081565b600061040e338484610bd1565b6001905092915050565b60025481565b600061042b848484610d8a565b6000600460008673ffffffffffffffffffffffffffffffffffffffff1673ffffffffffffffffffffffffffffffffffffffff16815260200190815260200160002060003373ffffffffffffffffffffffffffffffffffffffff1673ffffffffffffffffffffffffffffffffffffffff168152602001908152602001600020549050828110156104f35780836040517f56794de60000000000000000000000000000000000000000000000000000000081526004016104ea929190611464565b60405180910390fd5b6105008533858403610bd1565b60019150509392505050565b7ffc77c2b9d30fe91687fd39abb7d16fcdfe1472d065740051ab8b13e4bf4a617f60001b81565b7f000000000000000000000000000000000000000000000000000000000000000081565b7f000000000000000000000000000000000000000000000000000000000000000081565b60008082600460003373ffffffffffffffffffffffffffffffffffffffff1673ffffffffffffffffffffffffffffffffffffffff16815260200190815260200160002060008673ffffffffffffffffffffffffffffffffffffffff1673ffffffffffffffffffffffffffffffffffffffff1681526020019081526020016000205461060691906114bc565b9050610613338583610bd1565b600191505092915050565b6040518060400160405280600181526020017f310000000000000000000000000000000000000000000000000000000000000081525081565b6000600360008373ffffffffffffffffffffffffffffffffffffffff1673ffffffffffffffffffffffffffffffffffffffff168152602001908152602001600020549050919050565b60056020528060005260406000206000915090505481565b600180546106c590611432565b80601f01602080910402602001604051908101604052809291908181526020018280546106f190611432565b801561073e5780601f106107135761010080835404028352916020019161073e565b820191906000526020600020905b81548152906001019060200180831161072157829003601f168201915b505050505081565b60008082600460003373ffffffffffffffffffffffffffffffffffffffff1673ffffffffffffffffffffffffffffffffffffffff16815260200190815260200160002060008673ffffffffffffffffffffffffffffffffffffffff1673ffffffffffffffffffffffffffffffffffffffff168152602001908152602001600020546107d19190611512565b90506107de338583610bd1565b600191505092915050565b60006107f6338484610d8a565b6001905092915050565b600073ffffffffffffffffffffffffffffffffffffffff168773ffffffffffffffffffffffffffffffffffffffff161415610867576040517fbc622b6300000000000000000000000000000000000000000000000000000000815260040160405180910390fd5b600073ffffffffffffffffffffffffffffffffffffffff168673ffffffffffffffffffffffffffffffffffffffff1614156108ce576040517f50a6929600000000000000000000000000000000000000000000000000000000815260040160405180910390fd5b4284101561091357836040517f425db17600000000000000000000000000000000000000000000000000000000815260040161090a91906111c3565b60405180910390fd5b60007ffc77c2b9d30fe91687fd39abb7d16fcdfe1472d065740051ab8b13e4bf4a617f60001b888888600560008d73ffffffffffffffffffffffffffffffffffffffff1673ffffffffffffffffffffffffffffffffffffffff168152602001908152602001600020600081548092919060010191905055896040516020016109a096959493929190611555565b60405160208183030381529060405280519060200120905060007f0000000000000000000000000000000000000000000000000000000000000000826040516020016109ed92919061162e565b604051602081830303815290604052805190602001209050600060018287878760405160008152602001604052604051610a2a9493929190611665565b6020604051602081039080840390855afa158015610a4c573d6000803e3d6000fd5b505050602060405103519050600073ffffffffffffffffffffffffffffffffffffffff168173ffffffffffffffffffffffffffffffffffffffff161415610abf576040517f7c091a7800000000000000000000000000000000000000000000000000000000815260040160405180910390fd5b8973ffffffffffffffffffffffffffffffffffffffff168173ffffffffffffffffffffffffffffffffffffffff1614610b33578585856040517f5bb0c9c8000000000000000000000000000000000000000000000000000000008152600401610b2a939291906116aa565b60405180910390fd5b610b3e8a8a8a610bd1565b50505050505050505050565b6000600460008473ffffffffffffffffffffffffffffffffffffffff1673ffffffffffffffffffffffffffffffffffffffff16815260200190815260200160002060008373ffffffffffffffffffffffffffffffffffffffff1673ffffffffffffffffffffffffffffffffffffffff16815260200190815260200160002054905092915050565b600073ffffffffffffffffffffffffffffffffffffffff168373ffffffffffffffffffffffffffffffffffffffff161415610c38576040517f46064d7e00000000000000000000000000000000000000000000000000000000815260040160405180910390fd5b600073ffffffffffffffffffffffffffffffffffffffff168273ffffffffffffffffffffffffffffffffffffffff161415610c9f576040517f2ce7b36400000000000000000000000000000000000000000000000000000000815260040160405180910390fd5b80600460008573ffffffffffffffffffffffffffffffffffffffff1673ffffffffffffffffffffffffffffffffffffffff16815260200190815260200160002060008473ffffffffffffffffffffffffffffffffffffffff1673ffffffffffffffffffffffffffffffffffffffff168152602001908152602001600020819055508173ffffffffffffffffffffffffffffffffffffffff168373ffffffffffffffffffffffffffffffffffffffff167f8c5be1e5ebec7d5bd14f71427d1e84f3dd0314c0f7b2291e5b200ac8c7c3b92583604051610d7d91906111c3565b60405180910390a3505050565b600073ffffffffffffffffffffffffffffffffffffffff168373ffffffffffffffffffffffffffffffffffffffff161415610df1576040517f907bfbd700000000000000000000000000000000000000000000000000000000815260040160405180910390fd5b600073ffffffffffffffffffffffffffffffffffffffff168273ffffffffffffffffffffffffffffffffffffffff161415610e58576040517f7184c13f00000000000000000000000000000000000000000000000000000000815260040160405180910390fd5b6000600360008573ffffffffffffffffffffffffffffffffffffffff1673ffffffffffffffffffffffffffffffffffffffff16815260200190815260200160002054905081811015610ee35780826040517fb73cb884000000000000000000000000000000000000000000000000000000008152600401610eda929190611464565b60405180910390fd5b818103600360008673ffffffffffffffffffffffffffffffffffffffff1673ffffffffffffffffffffffffffffffffffffffff1681526020019081526020016000208190555081600360008573ffffffffffffffffffffffffffffffffffffffff1673ffffffffffffffffffffffffffffffffffffffff1681526020019081526020016000206000828254610f7891906114bc565b925050819055508273ffffffffffffffffffffffffffffffffffffffff168473ffffffffffffffffffffffffffffffffffffffff167fddf252ad1be2c89b69c2b068fc378daa952ba7f163c4a11628f55a4df523b3ef84604051610fdc91906111c3565b60405180910390a350505050565b600081519050919050565b600082825260208201905092915050565b60005b83811015611024578082015181840152602081019050611009565b83811115611033576000848401525b50505050565b6000601f19601f8301169050919050565b600061105582610fea565b61105f8185610ff5565b935061106f818560208601611006565b61107881611039565b840191505092915050565b6000602082019050818103600083015261109d818461104a565b905092915050565b600080fd5b600073ffffffffffffffffffffffffffffffffffffffff82169050919050565b60006110d5826110aa565b9050919050565b6110e5816110ca565b81146110f057600080fd5b50565b600081359050611102816110dc565b92915050565b6000819050919050565b61111b81611108565b811461112657600080fd5b50565b60008135905061113881611112565b92915050565b60008060408385031215611155576111546110a5565b5b6000611163858286016110f3565b925050602061117485828601611129565b9150509250929050565b60008115159050919050565b6111938161117e565b82525050565b60006020820190506111ae600083018461118a565b92915050565b6111bd81611108565b82525050565b60006020820190506111d860008301846111b4565b92915050565b6000806000606084860312156111f7576111f66110a5565b5b6000611205868287016110f3565b9350506020611216868287016110f3565b925050604061122786828701611129565b9150509250925092565b6000819050919050565b61124481611231565b82525050565b600060208201905061125f600083018461123b565b92915050565b600060ff82169050919050565b61127b81611265565b82525050565b60006020820190506112966000830184611272565b92915050565b6000602082840312156112b2576112b16110a5565b5b60006112c0848285016110f3565b91505092915050565b6112d281611265565b81146112dd57600080fd5b50565b6000813590506112ef816112c9565b92915050565b6112fe81611231565b811461130957600080fd5b50565b60008135905061131b816112f5565b92915050565b600080600080600080600060e0888a0312156113405761133f6110a5565b5b600061134e8a828b016110f3565b975050602061135f8a828b016110f3565b96505060406113708a828b01611129565b95505060606113818a828b01611129565b94505060806113928a828b016112e0565b93505060a06113a38a828b0161130c565b92505060c06113b48a828b0161130c565b91505092959891949750929550565b600080604083850312156113da576113d96110a5565b5b60006113e8858286016110f3565b92505060206113f9858286016110f3565b9150509250929050565b7f4e487b7100000000000000000000000000000000000000000000000000000000600052602260045260246000fd5b6000600282049050600182168061144a57607f821691505b6020821081141561145e5761145d611403565b5b50919050565b600060408201905061147960008301856111b4565b61148660208301846111b4565b9392505050565b7f4e487b7100000000000000000000000000000000000000000000000000000000600052601160045260246000fd5b60006114c782611108565b91506114d283611108565b9250827fffffffffffffffffffffffffffffffffffffffffffffffffffffffffffffffff038211156115075761150661148d565b5b828201905092915050565b600061151d82611108565b915061152883611108565b92508282101561153b5761153a61148d565b5b828203905092915050565b61154f816110ca565b82525050565b600060c08201905061156a600083018961123b565b6115776020830188611546565b6115846040830187611546565b61159160608301866111b4565b61159e60808301856111b4565b6115ab60a08301846111b4565b979650505050505050565b600081905092915050565b7f1901000000000000000000000000000000000000000000000000000000000000600082015250565b60006115f76002836115b6565b9150611602826115c1565b600282019050919050565b6000819050919050565b61162861162382611231565b61160d565b82525050565b6000611639826115ea565b91506116458285611617565b6020820191506116558284611617565b6020820191508190509392505050565b600060808201905061167a600083018761123b565b6116876020830186611272565b611694604083018561123b565b6116a1606083018461123b565b95945050505050565b60006060820190506116bf6000830186611272565b6116cc602083018561123b565b6116d9604083018461123b565b94935050505056fea2646970667358221220940ca3ee1320ffa14734915da0c07a209d5787951a57539c04593e2fc9bf92fb64736f6c63430008090033",
  "linkReferences": {},
  "deployedLinkReferences": {}
}