{
  "_format": "hh-sol-artifact-1",
  "contractName": "LinkConsumer",
  "sourceName": "contracts/DAO/LinkConsumer.sol",
  "abi": [
    {
      "inputs": [],
      "stateMutability": "nonpayable",
      "type": "constructor"
    },
    {
      "anonymous": false,
      "inputs": [
        {
          "indexed": true,
          "internalType": "bytes32",
          "name": "role",
          "type": "bytes32"
        },
        {
          "indexed": true,
          "internalType": "bytes32",
          "name": "previousAdminRole",
          "type": "bytes32"
        },
        {
          "indexed": true,
          "internalType": "bytes32",
          "name": "newAdminRole",
          "type": "bytes32"
        }
      ],
      "name": "RoleAdminChanged",
      "type": "event"
    },
    {
      "anonymous": false,
      "inputs": [
        {
          "indexed": true,
          "internalType": "bytes32",
          "name": "role",
          "type": "bytes32"
        },
        {
          "indexed": true,
          "internalType": "address",
          "name": "account",
          "type": "address"
        },
        {
          "indexed": true,
          "internalType": "address",
          "name": "sender",
          "type": "address"
        }
      ],
      "name": "RoleGranted",
      "type": "event"
    },
    {
      "anonymous": false,
      "inputs": [
        {
          "indexed": true,
          "internalType": "bytes32",
          "name": "role",
          "type": "bytes32"
        },
        {
          "indexed": true,
          "internalType": "address",
          "name": "account",
          "type": "address"
        },
        {
          "indexed": true,
          "internalType": "address",
          "name": "sender",
          "type": "address"
        }
      ],
      "name": "RoleRevoked",
      "type": "event"
    },
    {
      "inputs": [],
      "name": "DEFAULT_ADMIN_ROLE",
      "outputs": [
        {
          "internalType": "bytes32",
          "name": "",
          "type": "bytes32"
        }
      ],
      "stateMutability": "view",
      "type": "function"
    },
    {
      "inputs": [],
      "name": "RNC_ROLE",
      "outputs": [
        {
          "internalType": "bytes32",
          "name": "",
          "type": "bytes32"
        }
      ],
      "stateMutability": "view",
      "type": "function"
    },
    {
      "inputs": [
        {
          "internalType": "bytes32",
          "name": "role",
          "type": "bytes32"
        }
      ],
      "name": "getRoleAdmin",
      "outputs": [
        {
          "internalType": "bytes32",
          "name": "",
          "type": "bytes32"
        }
      ],
      "stateMutability": "view",
      "type": "function"
    },
    {
      "inputs": [
        {
          "internalType": "bytes32",
          "name": "role",
          "type": "bytes32"
        },
        {
          "internalType": "uint256",
          "name": "index",
          "type": "uint256"
        }
      ],
      "name": "getRoleMember",
      "outputs": [
        {
          "internalType": "address",
          "name": "",
          "type": "address"
        }
      ],
      "stateMutability": "view",
      "type": "function"
    },
    {
      "inputs": [
        {
          "internalType": "bytes32",
          "name": "role",
          "type": "bytes32"
        }
      ],
      "name": "getRoleMemberCount",
      "outputs": [
        {
          "internalType": "uint256",
          "name": "",
          "type": "uint256"
        }
      ],
      "stateMutability": "view",
      "type": "function"
    },
    {
      "inputs": [
        {
          "internalType": "bytes32",
          "name": "role",
          "type": "bytes32"
        },
        {
          "internalType": "address",
          "name": "account",
          "type": "address"
        }
      ],
      "name": "grantRole",
      "outputs": [],
      "stateMutability": "nonpayable",
      "type": "function"
    },
    {
      "inputs": [
        {
          "internalType": "bytes32",
          "name": "role",
          "type": "bytes32"
        },
        {
          "internalType": "address",
          "name": "account",
          "type": "address"
        }
      ],
      "name": "hasRole",
      "outputs": [
        {
          "internalType": "bool",
          "name": "",
          "type": "bool"
        }
      ],
      "stateMutability": "view",
      "type": "function"
    },
    {
      "inputs": [],
      "name": "linkSupply",
      "outputs": [
        {
          "internalType": "uint256",
          "name": "",
          "type": "uint256"
        }
      ],
      "stateMutability": "view",
      "type": "function"
    },
    {
      "inputs": [
        {
          "internalType": "bytes32",
          "name": "role",
          "type": "bytes32"
        },
        {
          "internalType": "address",
          "name": "account",
          "type": "address"
        }
      ],
      "name": "renounceRole",
      "outputs": [],
      "stateMutability": "nonpayable",
      "type": "function"
    },
    {
      "inputs": [],
      "name": "requestForLink",
      "outputs": [
        {
          "internalType": "bool",
          "name": "",
          "type": "bool"
        }
      ],
      "stateMutability": "payable",
      "type": "function"
    },
    {
      "inputs": [
        {
          "internalType": "bytes32",
          "name": "role",
          "type": "bytes32"
        },
        {
          "internalType": "address",
          "name": "account",
          "type": "address"
        }
      ],
      "name": "revokeRole",
      "outputs": [],
      "stateMutability": "nonpayable",
      "type": "function"
    },
    {
      "inputs": [
        {
          "internalType": "bytes4",
          "name": "interfaceId",
          "type": "bytes4"
        }
      ],
      "name": "supportsInterface",
      "outputs": [
        {
          "internalType": "bool",
          "name": "",
          "type": "bool"
        }
      ],
      "stateMutability": "view",
      "type": "function"
    }
  ],
  "bytecode": "0x60a06040523480156200001157600080fd5b5073326c977e6efc84e512bb9c30f76e30c160ed06fb73ffffffffffffffffffffffffffffffffffffffff1660808173ffffffffffffffffffffffffffffffffffffffff168152505066038d7ea4c680006002819055506200008c6000801b62000080620000d360201b60201c565b620000db60201b60201c565b620000cd7fba5fcaa224051b4aaf1ad12b919dd103eebcbdd109961333f059c1af1522e896620000c1620000d360201b60201c565b620000db60201b60201c565b62000369565b600033905090565b620000f282826200012360201b620006f41760201c565b6200011e81600160008581526020019081526020016000206200013960201b620007021790919060201c565b505050565b6200013582826200017160201b60201c565b5050565b600062000169836000018373ffffffffffffffffffffffffffffffffffffffff1660001b6200026260201b60201c565b905092915050565b620001838282620002dc60201b60201c565b6200025e57600160008084815260200190815260200160002060000160008373ffffffffffffffffffffffffffffffffffffffff1673ffffffffffffffffffffffffffffffffffffffff16815260200190815260200160002060006101000a81548160ff02191690831515021790555062000203620000d360201b60201c565b73ffffffffffffffffffffffffffffffffffffffff168173ffffffffffffffffffffffffffffffffffffffff16837f2f8788117e7eff1d82e926ec794901d17c78024a50270940304540a733656f0d60405160405180910390a45b5050565b60006200027683836200034660201b60201c565b620002d1578260000182908060018154018082558091505060019003906000526020600020016000909190919091505582600001805490508360010160008481526020019081526020016000208190555060019050620002d6565b600090505b92915050565b600080600084815260200190815260200160002060000160008373ffffffffffffffffffffffffffffffffffffffff1673ffffffffffffffffffffffffffffffffffffffff16815260200190815260200160002060009054906101000a900460ff16905092915050565b600080836001016000848152602001908152602001600020541415905092915050565b60805161187b6200038c600039600081816105290152610648015261187b6000f3fe6080604052600436106100a75760003560e01c806391d148541161006457806391d14854146101e057806392f389e91461021d578063a217fddf1461023b578063ca15c87314610266578063d547741f146102a3578063ddc58991146102cc576100a7565b806301ffc9a7146100ac578063248a9ca3146100e95780632f2ff15d1461012657806336568abe1461014f57806364206f89146101785780639010d07c146101a3575b600080fd5b3480156100b857600080fd5b506100d360048036038101906100ce919061102c565b6102f7565b6040516100e09190611074565b60405180910390f35b3480156100f557600080fd5b50610110600480360381019061010b91906110c5565b610371565b60405161011d9190611101565b60405180910390f35b34801561013257600080fd5b5061014d6004803603810190610148919061117a565b610390565b005b34801561015b57600080fd5b506101766004803603810190610171919061117a565b6103c4565b005b34801561018457600080fd5b5061018d6103f8565b60405161019a9190611101565b60405180910390f35b3480156101af57600080fd5b506101ca60048036038101906101c591906111f0565b61041c565b6040516101d7919061123f565b60405180910390f35b3480156101ec57600080fd5b506102076004803603810190610202919061117a565b61044b565b6040516102149190611074565b60405180910390f35b6102256104b5565b6040516102329190611074565b60405180910390f35b34801561024757600080fd5b506102506105e5565b60405161025d9190611101565b60405180910390f35b34801561027257600080fd5b5061028d600480360381019061028891906110c5565b6105ec565b60405161029a9190611269565b60405180910390f35b3480156102af57600080fd5b506102ca60048036038101906102c5919061117a565b610610565b005b3480156102d857600080fd5b506102e1610644565b6040516102ee9190611269565b60405180910390f35b60007f5a05180f000000000000000000000000000000000000000000000000000000007bffffffffffffffffffffffffffffffffffffffffffffffffffffffff1916827bffffffffffffffffffffffffffffffffffffffffffffffffffffffff1916148061036a575061036982610732565b5b9050919050565b6000806000838152602001908152602001600020600101549050919050565b61039a82826107ac565b6103bf816001600085815260200190815260200160002061070290919063ffffffff16565b505050565b6103ce82826107d5565b6103f3816001600085815260200190815260200160002061085890919063ffffffff16565b505050565b7fba5fcaa224051b4aaf1ad12b919dd103eebcbdd109961333f059c1af1522e89681565b6000610443826001600086815260200190815260200160002061088890919063ffffffff16565b905092915050565b600080600084815260200190815260200160002060000160008373ffffffffffffffffffffffffffffffffffffffff1673ffffffffffffffffffffffffffffffffffffffff16815260200190815260200160002060009054906101000a900460ff16905092915050565b60006104e87fba5fcaa224051b4aaf1ad12b919dd103eebcbdd109961333f059c1af1522e8966104e36108a2565b61044b565b610527576040517f08c379a000000000000000000000000000000000000000000000000000000000815260040161051e906112e1565b60405180910390fd5b7f000000000000000000000000000000000000000000000000000000000000000073ffffffffffffffffffffffffffffffffffffffff1663a9059cbb61056b6108a2565b6002546040518363ffffffff1660e01b815260040161058b929190611301565b602060405180830381600087803b1580156105a557600080fd5b505af11580156105b9573d6000803e3d6000fd5b505050506040513d601f19601f820116820180604052508101906105dd9190611356565b506001905090565b6000801b81565b6000610609600160008481526020019081526020016000206108aa565b9050919050565b61061a82826108bf565b61063f816001600085815260200190815260200160002061085890919063ffffffff16565b505050565b60007f000000000000000000000000000000000000000000000000000000000000000073ffffffffffffffffffffffffffffffffffffffff166370a08231306040518263ffffffff1660e01b815260040161069f919061123f565b60206040518083038186803b1580156106b757600080fd5b505afa1580156106cb573d6000803e3d6000fd5b505050506040513d601f19601f820116820180604052508101906106ef9190611398565b905090565b6106fe82826108e8565b5050565b600061072a836000018373ffffffffffffffffffffffffffffffffffffffff1660001b6109c8565b905092915050565b60007f7965db0b000000000000000000000000000000000000000000000000000000007bffffffffffffffffffffffffffffffffffffffffffffffffffffffff1916827bffffffffffffffffffffffffffffffffffffffffffffffffffffffff191614806107a557506107a482610a38565b5b9050919050565b6107b582610371565b6107c6816107c16108a2565b610aa2565b6107d083836108e8565b505050565b6107dd6108a2565b73ffffffffffffffffffffffffffffffffffffffff168173ffffffffffffffffffffffffffffffffffffffff161461084a576040517f08c379a000000000000000000000000000000000000000000000000000000000815260040161084190611437565b60405180910390fd5b6108548282610b3f565b5050565b6000610880836000018373ffffffffffffffffffffffffffffffffffffffff1660001b610c20565b905092915050565b60006108978360000183610d34565b60001c905092915050565b600033905090565b60006108b882600001610d5f565b9050919050565b6108c882610371565b6108d9816108d46108a2565b610aa2565b6108e38383610b3f565b505050565b6108f2828261044b565b6109c457600160008084815260200190815260200160002060000160008373ffffffffffffffffffffffffffffffffffffffff1673ffffffffffffffffffffffffffffffffffffffff16815260200190815260200160002060006101000a81548160ff0219169083151502179055506109696108a2565b73ffffffffffffffffffffffffffffffffffffffff168173ffffffffffffffffffffffffffffffffffffffff16837f2f8788117e7eff1d82e926ec794901d17c78024a50270940304540a733656f0d60405160405180910390a45b5050565b60006109d48383610d70565b610a2d578260000182908060018154018082558091505060019003906000526020600020016000909190919091505582600001805490508360010160008481526020019081526020016000208190555060019050610a32565b600090505b92915050565b60007f01ffc9a7000000000000000000000000000000000000000000000000000000007bffffffffffffffffffffffffffffffffffffffffffffffffffffffff1916827bffffffffffffffffffffffffffffffffffffffffffffffffffffffff1916149050919050565b610aac828261044b565b610b3b57610ad18173ffffffffffffffffffffffffffffffffffffffff166014610d93565b610adf8360001c6020610d93565b604051602001610af0929190611569565b6040516020818303038152906040526040517f08c379a0000000000000000000000000000000000000000000000000000000008152600401610b3291906115ed565b60405180910390fd5b5050565b610b49828261044b565b15610c1c57600080600084815260200190815260200160002060000160008373ffffffffffffffffffffffffffffffffffffffff1673ffffffffffffffffffffffffffffffffffffffff16815260200190815260200160002060006101000a81548160ff021916908315150217905550610bc16108a2565b73ffffffffffffffffffffffffffffffffffffffff168173ffffffffffffffffffffffffffffffffffffffff16837ff6391f5c32d9c69d2a47ea670b442974b53935d1edc7fd64eb21e047a839171b60405160405180910390a45b5050565b60008083600101600084815260200190815260200160002054905060008114610d28576000600182610c52919061163e565b9050600060018660000180549050610c6a919061163e565b9050818114610cd9576000866000018281548110610c8b57610c8a611672565b5b9060005260206000200154905080876000018481548110610caf57610cae611672565b5b90600052602060002001819055508387600101600083815260200190815260200160002081905550505b85600001805480610ced57610cec6116a1565b5b600190038181906000526020600020016000905590558560010160008681526020019081526020016000206000905560019350505050610d2e565b60009150505b92915050565b6000826000018281548110610d4c57610d4b611672565b5b9060005260206000200154905092915050565b600081600001805490509050919050565b600080836001016000848152602001908152602001600020541415905092915050565b606060006002836002610da691906116d0565b610db0919061172a565b67ffffffffffffffff811115610dc957610dc8611780565b5b6040519080825280601f01601f191660200182016040528015610dfb5781602001600182028036833780820191505090505b5090507f300000000000000000000000000000000000000000000000000000000000000081600081518110610e3357610e32611672565b5b60200101907effffffffffffffffffffffffffffffffffffffffffffffffffffffffffffff1916908160001a9053507f780000000000000000000000000000000000000000000000000000000000000081600181518110610e9757610e96611672565b5b60200101907effffffffffffffffffffffffffffffffffffffffffffffffffffffffffffff1916908160001a90535060006001846002610ed791906116d0565b610ee1919061172a565b90505b6001811115610f81577f3031323334353637383961626364656600000000000000000000000000000000600f861660108110610f2357610f22611672565b5b1a60f81b828281518110610f3a57610f39611672565b5b60200101907effffffffffffffffffffffffffffffffffffffffffffffffffffffffffffff1916908160001a905350600485901c945080610f7a906117af565b9050610ee4565b5060008414610fc5576040517f08c379a0000000000000000000000000000000000000000000000000000000008152600401610fbc90611825565b60405180910390fd5b8091505092915050565b600080fd5b60007fffffffff0000000000000000000000000000000000000000000000000000000082169050919050565b61100981610fd4565b811461101457600080fd5b50565b60008135905061102681611000565b92915050565b60006020828403121561104257611041610fcf565b5b600061105084828501611017565b91505092915050565b60008115159050919050565b61106e81611059565b82525050565b60006020820190506110896000830184611065565b92915050565b6000819050919050565b6110a28161108f565b81146110ad57600080fd5b50565b6000813590506110bf81611099565b92915050565b6000602082840312156110db576110da610fcf565b5b60006110e9848285016110b0565b91505092915050565b6110fb8161108f565b82525050565b600060208201905061111660008301846110f2565b92915050565b600073ffffffffffffffffffffffffffffffffffffffff82169050919050565b60006111478261111c565b9050919050565b6111578161113c565b811461116257600080fd5b50565b6000813590506111748161114e565b92915050565b6000806040838503121561119157611190610fcf565b5b600061119f858286016110b0565b92505060206111b085828601611165565b9150509250929050565b6000819050919050565b6111cd816111ba565b81146111d857600080fd5b50565b6000813590506111ea816111c4565b92915050565b6000806040838503121561120757611206610fcf565b5b6000611215858286016110b0565b9250506020611226858286016111db565b9150509250929050565b6112398161113c565b82525050565b60006020820190506112546000830184611230565b92915050565b611263816111ba565b82525050565b600060208201905061127e600083018461125a565b92915050565b600082825260208201905092915050565b7f63616c6c65722073686f756c6420626520612076616c696420524e4300000000600082015250565b60006112cb601c83611284565b91506112d682611295565b602082019050919050565b600060208201905081810360008301526112fa816112be565b9050919050565b60006040820190506113166000830185611230565b611323602083018461125a565b9392505050565b61133381611059565b811461133e57600080fd5b50565b6000815190506113508161132a565b92915050565b60006020828403121561136c5761136b610fcf565b5b600061137a84828501611341565b91505092915050565b600081519050611392816111c4565b92915050565b6000602082840312156113ae576113ad610fcf565b5b60006113bc84828501611383565b91505092915050565b7f416363657373436f6e74726f6c3a2063616e206f6e6c792072656e6f756e636560008201527f20726f6c657320666f722073656c660000000000000000000000000000000000602082015250565b6000611421602f83611284565b915061142c826113c5565b604082019050919050565b6000602082019050818103600083015261145081611414565b9050919050565b600081905092915050565b7f416363657373436f6e74726f6c3a206163636f756e7420000000000000000000600082015250565b6000611498601783611457565b91506114a382611462565b601782019050919050565b600081519050919050565b60005b838110156114d75780820151818401526020810190506114bc565b838111156114e6576000848401525b50505050565b60006114f7826114ae565b6115018185611457565b93506115118185602086016114b9565b80840191505092915050565b7f206973206d697373696e6720726f6c6520000000000000000000000000000000600082015250565b6000611553601183611457565b915061155e8261151d565b601182019050919050565b60006115748261148b565b915061158082856114ec565b915061158b82611546565b915061159782846114ec565b91508190509392505050565b6000601f19601f8301169050919050565b60006115bf826114ae565b6115c98185611284565b93506115d98185602086016114b9565b6115e2816115a3565b840191505092915050565b6000602082019050818103600083015261160781846115b4565b905092915050565b7f4e487b7100000000000000000000000000000000000000000000000000000000600052601160045260246000fd5b6000611649826111ba565b9150611654836111ba565b9250828210156116675761166661160f565b5b828203905092915050565b7f4e487b7100000000000000000000000000000000000000000000000000000000600052603260045260246000fd5b7f4e487b7100000000000000000000000000000000000000000000000000000000600052603160045260246000fd5b60006116db826111ba565b91506116e6836111ba565b9250817fffffffffffffffffffffffffffffffffffffffffffffffffffffffffffffffff048311821515161561171f5761171e61160f565b5b828202905092915050565b6000611735826111ba565b9150611740836111ba565b9250827fffffffffffffffffffffffffffffffffffffffffffffffffffffffffffffffff038211156117755761177461160f565b5b828201905092915050565b7f4e487b7100000000000000000000000000000000000000000000000000000000600052604160045260246000fd5b60006117ba826111ba565b915060008214156117ce576117cd61160f565b5b600182039050919050565b7f537472696e67733a20686578206c656e67746820696e73756666696369656e74600082015250565b600061180f602083611284565b915061181a826117d9565b602082019050919050565b6000602082019050818103600083015261183e81611802565b905091905056fea264697066735822122082bcfbb4e14d80a844456f992820a8f42e5d9d07e581f0a1f7cd9782b8fc481864736f6c63430008090033",
  "linkReferences": {},
  "deployedLinkReferences": {}
}