{
  "_format": "hh-sol-artifact-1",
  "contractName": "Lottery",
  "sourceName": "contracts/Lottery.sol",
  "abi": [
    {
      "inputs": [
        {
          "internalType": "string",
          "name": "_info",
          "type": "string"
        },
        {
          "internalType": "string",
          "name": "_baseURI",
          "type": "string"
        },
        {
          "internalType": "uint256",
          "name": "_gateFee",
          "type": "uint256"
        },
        {
          "internalType": "uint256",
          "name": "_commission",
          "type": "uint256"
        },
        {
          "internalType": "uint256",
          "name": "_userLimit",
          "type": "uint256"
        },
        {
          "internalType": "uint256",
          "name": "_timeLimit",
          "type": "uint256"
        },
        {
          "internalType": "address",
          "name": "_owner",
          "type": "address"
        },
        {
          "internalType": "address",
          "name": "_RandomNumberConsumer",
          "type": "address"
        }
      ],
      "stateMutability": "nonpayable",
      "type": "constructor"
    },
    {
      "anonymous": false,
      "inputs": [
        {
          "indexed": false,
          "internalType": "bool",
          "name": "getFee",
          "type": "bool"
        },
        {
          "indexed": false,
          "internalType": "uint256",
          "name": "fee",
          "type": "uint256"
        }
      ],
      "name": "RNCFee",
      "type": "event"
    },
    {
      "anonymous": false,
      "inputs": [
        {
          "indexed": false,
          "internalType": "bytes32",
          "name": "requestId",
          "type": "bytes32"
        }
      ],
      "name": "RollDice",
      "type": "event"
    },
    {
      "anonymous": false,
      "inputs": [
        {
          "indexed": false,
          "internalType": "address",
          "name": "user",
          "type": "address"
        }
      ],
      "name": "SignIn",
      "type": "event"
    },
    {
      "anonymous": false,
      "inputs": [
        {
          "indexed": false,
          "internalType": "uint256",
          "name": "index",
          "type": "uint256"
        },
        {
          "indexed": false,
          "internalType": "address",
          "name": "user",
          "type": "address"
        },
        {
          "indexed": false,
          "internalType": "uint256",
          "name": "amount",
          "type": "uint256"
        }
      ],
      "name": "Win",
      "type": "event"
    },
    {
      "inputs": [],
      "name": "RNCfee",
      "outputs": [
        {
          "internalType": "uint256",
          "name": "",
          "type": "uint256"
        }
      ],
      "stateMutability": "view",
      "type": "function"
    },
    {
      "inputs": [],
      "name": "baseURI",
      "outputs": [
        {
          "internalType": "string",
          "name": "",
          "type": "string"
        }
      ],
      "stateMutability": "view",
      "type": "function"
    },
    {
      "inputs": [],
      "name": "cancel",
      "outputs": [],
      "stateMutability": "nonpayable",
      "type": "function"
    },
    {
      "inputs": [],
      "name": "commission",
      "outputs": [
        {
          "internalType": "uint256",
          "name": "",
          "type": "uint256"
        }
      ],
      "stateMutability": "view",
      "type": "function"
    },
    {
      "inputs": [],
      "name": "deadLine",
      "outputs": [
        {
          "internalType": "uint256",
          "name": "",
          "type": "uint256"
        }
      ],
      "stateMutability": "view",
      "type": "function"
    },
    {
      "inputs": [],
      "name": "gateFee",
      "outputs": [
        {
          "internalType": "uint256",
          "name": "",
          "type": "uint256"
        }
      ],
      "stateMutability": "view",
      "type": "function"
    },
    {
      "inputs": [],
      "name": "info",
      "outputs": [
        {
          "internalType": "string",
          "name": "",
          "type": "string"
        }
      ],
      "stateMutability": "view",
      "type": "function"
    },
    {
      "inputs": [],
      "name": "owner",
      "outputs": [
        {
          "internalType": "address",
          "name": "",
          "type": "address"
        }
      ],
      "stateMutability": "view",
      "type": "function"
    },
    {
      "inputs": [],
      "name": "prize",
      "outputs": [
        {
          "internalType": "uint256",
          "name": "",
          "type": "uint256"
        }
      ],
      "stateMutability": "view",
      "type": "function"
    },
    {
      "inputs": [],
      "name": "rollDice",
      "outputs": [],
      "stateMutability": "nonpayable",
      "type": "function"
    },
    {
      "inputs": [
        {
          "internalType": "uint256",
          "name": "randomness",
          "type": "uint256"
        }
      ],
      "name": "select",
      "outputs": [],
      "stateMutability": "nonpayable",
      "type": "function"
    },
    {
      "inputs": [],
      "name": "signIn",
      "outputs": [],
      "stateMutability": "payable",
      "type": "function"
    },
    {
      "inputs": [
        {
          "internalType": "address",
          "name": "_RandomNumberConsumer",
          "type": "address"
        }
      ],
      "name": "upgradeRNC",
      "outputs": [],
      "stateMutability": "nonpayable",
      "type": "function"
    },
    {
      "inputs": [],
      "name": "userCount",
      "outputs": [
        {
          "internalType": "uint256",
          "name": "",
          "type": "uint256"
        }
      ],
      "stateMutability": "view",
      "type": "function"
    },
    {
      "inputs": [],
      "name": "userLimit",
      "outputs": [
        {
          "internalType": "uint256",
          "name": "",
          "type": "uint256"
        }
      ],
      "stateMutability": "view",
      "type": "function"
    },
    {
      "inputs": [],
      "name": "winner",
      "outputs": [
        {
          "internalType": "address",
          "name": "",
          "type": "address"
        }
      ],
      "stateMutability": "view",
      "type": "function"
    },
    {
      "inputs": [],
      "name": "withdrawCommission",
      "outputs": [],
      "stateMutability": "nonpayable",
      "type": "function"
    }
  ],
  "bytecode": "0x60806040523480156200001157600080fd5b50604051620023d0380380620023d0833981810160405281019062000037919062000434565b87600490805190602001906200004f92919062000147565b5086600590805190602001906200006892919062000147565b5085600681905550846007819055508360088190555060008311156200009d5782426200009691906200056a565b6009819055505b81600a60006101000a81548173ffffffffffffffffffffffffffffffffffffffff021916908373ffffffffffffffffffffffffffffffffffffffff160217905550806000806101000a81548173ffffffffffffffffffffffffffffffffffffffff021916908373ffffffffffffffffffffffffffffffffffffffff1602179055506001600060146101000a81548160ff02191690831515021790555050505050505050506200062c565b8280546200015590620005f6565b90600052602060002090601f016020900481019282620001795760008555620001c5565b82601f106200019457805160ff1916838001178555620001c5565b82800160010185558215620001c5579182015b82811115620001c4578251825591602001919060010190620001a7565b5b509050620001d49190620001d8565b5090565b5b80821115620001f3576000816000905550600101620001d9565b5090565b6000604051905090565b600080fd5b600080fd5b600080fd5b600080fd5b6000601f19601f8301169050919050565b7f4e487b7100000000000000000000000000000000000000000000000000000000600052604160045260246000fd5b620002608262000215565b810181811067ffffffffffffffff8211171562000282576200028162000226565b5b80604052505050565b600062000297620001f7565b9050620002a5828262000255565b919050565b600067ffffffffffffffff821115620002c857620002c762000226565b5b620002d38262000215565b9050602081019050919050565b60005b8381101562000300578082015181840152602081019050620002e3565b8381111562000310576000848401525b50505050565b60006200032d6200032784620002aa565b6200028b565b9050828152602081018484840111156200034c576200034b62000210565b5b62000359848285620002e0565b509392505050565b600082601f8301126200037957620003786200020b565b5b81516200038b84826020860162000316565b91505092915050565b6000819050919050565b620003a98162000394565b8114620003b557600080fd5b50565b600081519050620003c9816200039e565b92915050565b600073ffffffffffffffffffffffffffffffffffffffff82169050919050565b6000620003fc82620003cf565b9050919050565b6200040e81620003ef565b81146200041a57600080fd5b50565b6000815190506200042e8162000403565b92915050565b600080600080600080600080610100898b03121562000458576200045762000201565b5b600089015167ffffffffffffffff81111562000479576200047862000206565b5b620004878b828c0162000361565b985050602089015167ffffffffffffffff811115620004ab57620004aa62000206565b5b620004b98b828c0162000361565b9750506040620004cc8b828c01620003b8565b9650506060620004df8b828c01620003b8565b9550506080620004f28b828c01620003b8565b94505060a0620005058b828c01620003b8565b93505060c0620005188b828c016200041d565b92505060e06200052b8b828c016200041d565b9150509295985092959890939650565b7f4e487b7100000000000000000000000000000000000000000000000000000000600052601160045260246000fd5b6000620005778262000394565b9150620005848362000394565b9250827fffffffffffffffffffffffffffffffffffffffffffffffffffffffffffffffff03821115620005bc57620005bb6200053b565b5b828201905092915050565b7f4e487b7100000000000000000000000000000000000000000000000000000000600052602260045260246000fd5b600060028204905060018216806200060f57607f821691505b60208210811415620006265762000625620005c7565b5b50919050565b611d94806200063c6000396000f3fe6080604052600436106100fd5760003560e01c8063839a19d911610095578063d48f370911610064578063d48f3709146102b9578063dfbf53ae146102e4578063e14891911461030f578063e3ac5d261461033a578063ea8a1af014610365576100fd565b8063839a19d9146102305780638da5cb5b146102595780639e4cda4314610284578063bef3a0831461028e576100fd565b80633e25e837116100d15780633e25e837146101ac5780634a7c01ec146101c35780636c0360eb146101ee578063837e7cc614610219576100fd565b806294d81b1461010257806307973ccf1461012b5780632ff8c0cc14610156578063370158ea14610181575b600080fd5b34801561010e57600080fd5b50610129600480360381019061012491906112ac565b61037c565b005b34801561013757600080fd5b5061014061044f565b60405161014d91906112f2565b60405180910390f35b34801561016257600080fd5b5061016b610455565b60405161017891906112f2565b60405180910390f35b34801561018d57600080fd5b5061019661045b565b6040516101a391906113a6565b60405180910390f35b3480156101b857600080fd5b506101c16104e9565b005b3480156101cf57600080fd5b506101d86105fd565b6040516101e591906112f2565b60405180910390f35b3480156101fa57600080fd5b50610203610603565b60405161021091906113a6565b60405180910390f35b34801561022557600080fd5b5061022e610691565b005b34801561023c57600080fd5b50610257600480360381019061025291906113f4565b610a4e565b005b34801561026557600080fd5b5061026e610bcd565b60405161027b9190611430565b60405180910390f35b61028c610bf3565b005b34801561029a57600080fd5b506102a3610eb0565b6040516102b091906112f2565b60405180910390f35b3480156102c557600080fd5b506102ce610eb6565b6040516102db91906112f2565b60405180910390f35b3480156102f057600080fd5b506102f9610ff3565b6040516103069190611430565b60405180910390f35b34801561031b57600080fd5b50610324611019565b60405161033191906112f2565b60405180910390f35b34801561034657600080fd5b5061034f61101f565b60405161035c91906112f2565b60405180910390f35b34801561037157600080fd5b5061037a611025565b005b600a60009054906101000a900473ffffffffffffffffffffffffffffffffffffffff1673ffffffffffffffffffffffffffffffffffffffff163373ffffffffffffffffffffffffffffffffffffffff161461040c576040517f08c379a0000000000000000000000000000000000000000000000000000000008152600401610403906114bd565b60405180910390fd5b806000806101000a81548173ffffffffffffffffffffffffffffffffffffffff021916908373ffffffffffffffffffffffffffffffffffffffff16021790555050565b60015481565b60065481565b600480546104689061150c565b80601f01602080910402602001604051908101604052809291908181526020018280546104949061150c565b80156104e15780601f106104b6576101008083540402835291602001916104e1565b820191906000526020600020905b8154815290600101906020018083116104c457829003601f168201915b505050505081565b600a60009054906101000a900473ffffffffffffffffffffffffffffffffffffffff1673ffffffffffffffffffffffffffffffffffffffff163373ffffffffffffffffffffffffffffffffffffffff1614610579576040517f08c379a0000000000000000000000000000000000000000000000000000000008152600401610570906114bd565b60405180910390fd5b600060025447610589919061156d565b90506000600a60009054906101000a900473ffffffffffffffffffffffffffffffffffffffff1690508073ffffffffffffffffffffffffffffffffffffffff166108fc839081150290604051600060405180830381858888f193505050501580156105f8573d6000803e3d6000fd5b505050565b60085481565b600580546106109061150c565b80601f016020809104026020016040519081016040528092919081815260200182805461063c9061150c565b80156106895780601f1061065e57610100808354040283529160200191610689565b820191906000526020600020905b81548152906001019060200180831161066c57829003601f168201915b505050505081565b60006008541180156106a557506000600954115b156107025760085460015414806106be57506009544210155b6106fd576040517f08c379a00000000000000000000000000000000000000000000000000000000081526004016106f490611613565b60405180910390fd5b610840565b600060085411156107585760085460015414610753576040517f08c379a000000000000000000000000000000000000000000000000000000000815260040161074a906116a5565b60405180910390fd5b61083f565b600060095411156107ad576009544210156107a8576040517f08c379a000000000000000000000000000000000000000000000000000000000815260040161079f90611737565b60405180910390fd5b61083e565b600a60009054906101000a900473ffffffffffffffffffffffffffffffffffffffff1673ffffffffffffffffffffffffffffffffffffffff163373ffffffffffffffffffffffffffffffffffffffff161461083d576040517f08c379a0000000000000000000000000000000000000000000000000000000008152600401610834906114bd565b60405180910390fd5b5b5b5b60008060146101000a81548160ff02191690831515021790555060006040518060400160405280600f81526020017f73656c6563742875696e7432353629000000000000000000000000000000000081525080519060200120905060008060008054906101000a900473ffffffffffffffffffffffffffffffffffffffff1673ffffffffffffffffffffffffffffffffffffffff166108dd610eb6565b846040516024016108ee9190611792565b6040516020818303038152906040527ff5d34f23000000000000000000000000000000000000000000000000000000007bffffffffffffffffffffffffffffffffffffffffffffffffffffffff19166020820180517bffffffffffffffffffffffffffffffffffffffffffffffffffffffff838183161783525050505060405161097891906117f4565b60006040518083038185875af1925050503d80600081146109b5576040519150601f19603f3d011682016040523d82523d6000602084013e6109ba565b606091505b5091509150816109ff576040517f08c379a00000000000000000000000000000000000000000000000000000000081526004016109f690611857565b60405180910390fd5b7f72179fcf9070583e88aa5e724a71e6affe79c12733c644cc78fe215dde9fa00281806020019051810190610a3491906118ad565b604051610a4191906118e9565b60405180910390a1505050565b60008054906101000a900473ffffffffffffffffffffffffffffffffffffffff1673ffffffffffffffffffffffffffffffffffffffff163373ffffffffffffffffffffffffffffffffffffffff1614610adc576040517f08c379a0000000000000000000000000000000000000000000000000000000008152600401610ad390611950565b60405180910390fd5b600060015482610aec919061199f565b9050600b600082815260200190815260200160002060009054906101000a900473ffffffffffffffffffffffffffffffffffffffff16600360006101000a81548173ffffffffffffffffffffffffffffffffffffffff021916908373ffffffffffffffffffffffffffffffffffffffff1602179055507f94dd8caf4803213035e054c595c14a4902fc45ff2d35957b439326822e43481981600360009054906101000a900473ffffffffffffffffffffffffffffffffffffffff16600254604051610bb9939291906119d0565b60405180910390a1610bc96111ce565b5050565b600a60009054906101000a900473ffffffffffffffffffffffffffffffffffffffff1681565b600060149054906101000a900460ff16610c42576040517f08c379a0000000000000000000000000000000000000000000000000000000008152600401610c3990611a53565b60405180910390fd5b60006008541480610c565750600854600154105b610c95576040517f08c379a0000000000000000000000000000000000000000000000000000000008152600401610c8c90611abf565b60405180910390fd5b600c60003373ffffffffffffffffffffffffffffffffffffffff1673ffffffffffffffffffffffffffffffffffffffff16815260200190815260200160002060009054906101000a900460ff1615610d22576040517f08c379a0000000000000000000000000000000000000000000000000000000008152600401610d1990611b2b565b60405180910390fd5b6006543414610d66576040517f08c379a0000000000000000000000000000000000000000000000000000000008152600401610d5d90611b97565b60405180910390fd5b33600b6000600154815260200190815260200160002060006101000a81548173ffffffffffffffffffffffffffffffffffffffff021916908373ffffffffffffffffffffffffffffffffffffffff1602179055506001600c60003373ffffffffffffffffffffffffffffffffffffffff1673ffffffffffffffffffffffffffffffffffffffff16815260200190815260200160002060006101000a81548160ff02191690831515021790555060016000815480929190610e2590611bb7565b919050555060075434610e38919061156d565b60026000828254610e499190611c00565b925050819055507fef383f4930adff403c14f551843bcd75d90c913f8e731f5a2baf2cd6339a92d833604051610e7f9190611430565b60405180910390a16008546001541415610eae5760008060146101000a81548160ff0219169083151502179055505b565b60095481565b60008060008060009054906101000a900473ffffffffffffffffffffffffffffffffffffffff1673ffffffffffffffffffffffffffffffffffffffff166040516024016040516020818303038152906040527f70160fc5000000000000000000000000000000000000000000000000000000007bffffffffffffffffffffffffffffffffffffffffffffffffffffffff19166020820180517bffffffffffffffffffffffffffffffffffffffffffffffffffffffff8381831617835250505050604051610f8391906117f4565b600060405180830381855afa9150503d8060008114610fbe576040519150601f19603f3d011682016040523d82523d6000602084013e610fc3565b606091505b509150915081610fd257600080fd5b600081806020019051810190610fe89190611c6b565b905080935050505090565b600360009054906101000a900473ffffffffffffffffffffffffffffffffffffffff1681565b60075481565b60025481565b600a60009054906101000a900473ffffffffffffffffffffffffffffffffffffffff1673ffffffffffffffffffffffffffffffffffffffff163373ffffffffffffffffffffffffffffffffffffffff16146110b5576040517f08c379a00000000000000000000000000000000000000000000000000000000081526004016110ac906114bd565b60405180910390fd5b6006546001546110c59190611c98565b471015611107576040517f08c379a00000000000000000000000000000000000000000000000000000000081526004016110fe90611d3e565b60405180910390fd5b60005b6001548110156111a9576000600b600083815260200190815260200160002060009054906101000a900473ffffffffffffffffffffffffffffffffffffffff1690508073ffffffffffffffffffffffffffffffffffffffff166108fc6006549081150290604051600060405180830381858888f19350505050158015611194573d6000803e3d6000fd5b505080806111a190611bb7565b91505061110a565b50600060028190555060008060146101000a81548160ff021916908315150217905550565b6000600360009054906101000a900473ffffffffffffffffffffffffffffffffffffffff1690508073ffffffffffffffffffffffffffffffffffffffff166108fc6002549081150290604051600060405180830381858888f1935050505015801561123d573d6000803e3d6000fd5b50600060028190555050565b600080fd5b600073ffffffffffffffffffffffffffffffffffffffff82169050919050565b60006112798261124e565b9050919050565b6112898161126e565b811461129457600080fd5b50565b6000813590506112a681611280565b92915050565b6000602082840312156112c2576112c1611249565b5b60006112d084828501611297565b91505092915050565b6000819050919050565b6112ec816112d9565b82525050565b600060208201905061130760008301846112e3565b92915050565b600081519050919050565b600082825260208201905092915050565b60005b8381101561134757808201518184015260208101905061132c565b83811115611356576000848401525b50505050565b6000601f19601f8301169050919050565b60006113788261130d565b6113828185611318565b9350611392818560208601611329565b61139b8161135c565b840191505092915050565b600060208201905081810360008301526113c0818461136d565b905092915050565b6113d1816112d9565b81146113dc57600080fd5b50565b6000813590506113ee816113c8565b92915050565b60006020828403121561140a57611409611249565b5b6000611418848285016113df565b91505092915050565b61142a8161126e565b82525050565b60006020820190506114456000830184611421565b92915050565b7f6f6e6c79206f776e65722063616e2063616c6c20746869732066756e6374696f60008201527f6e00000000000000000000000000000000000000000000000000000000000000602082015250565b60006114a7602183611318565b91506114b28261144b565b604082019050919050565b600060208201905081810360008301526114d68161149a565b9050919050565b7f4e487b7100000000000000000000000000000000000000000000000000000000600052602260045260246000fd5b6000600282049050600182168061152457607f821691505b60208210811415611538576115376114dd565b5b50919050565b7f4e487b7100000000000000000000000000000000000000000000000000000000600052601160045260246000fd5b6000611578826112d9565b9150611583836112d9565b9250828210156115965761159561153e565b5b828203905092915050565b7f72656163682074696d65206c696d6974206f722075736572206c696d6974207460008201527f6f20616374697661746520646963650000000000000000000000000000000000602082015250565b60006115fd602f83611318565b9150611608826115a1565b604082019050919050565b6000602082019050818103600083015261162c816115f0565b9050919050565b7f72656163682075736572206c696d697420746f2061637469766174652064696360008201527f6500000000000000000000000000000000000000000000000000000000000000602082015250565b600061168f602183611318565b915061169a82611633565b604082019050919050565b600060208201905081810360008301526116be81611682565b9050919050565b7f796f75206861766520746f207761697420756e74696c6c20646561646c696e6560008201527f2070617373000000000000000000000000000000000000000000000000000000602082015250565b6000611721602583611318565b915061172c826116c5565b604082019050919050565b6000602082019050818103600083015261175081611714565b9050919050565b60007fffffffff0000000000000000000000000000000000000000000000000000000082169050919050565b61178c81611757565b82525050565b60006020820190506117a76000830184611783565b92915050565b600081519050919050565b600081905092915050565b60006117ce826117ad565b6117d881856117b8565b93506117e8818560208601611329565b80840191505092915050565b600061180082846117c3565b915081905092915050565b7f524e432043616c6c204661696c65640000000000000000000000000000000000600082015250565b6000611841600f83611318565b915061184c8261180b565b602082019050919050565b6000602082019050818103600083015261187081611834565b9050919050565b6000819050919050565b61188a81611877565b811461189557600080fd5b50565b6000815190506118a781611881565b92915050565b6000602082840312156118c3576118c2611249565b5b60006118d184828501611898565b91505092915050565b6118e381611877565b82525050565b60006020820190506118fe60008301846118da565b92915050565b7f63616c6c6572206973206e6f74207468652076616c696420524e430000000000600082015250565b600061193a601b83611318565b915061194582611904565b602082019050919050565b600060208201905081810360008301526119698161192d565b9050919050565b7f4e487b7100000000000000000000000000000000000000000000000000000000600052601260045260246000fd5b60006119aa826112d9565b91506119b5836112d9565b9250826119c5576119c4611970565b5b828206905092915050565b60006060820190506119e560008301866112e3565b6119f26020830185611421565b6119ff60408301846112e3565b949350505050565b7f67616d6520657870697265640000000000000000000000000000000000000000600082015250565b6000611a3d600c83611318565b9150611a4882611a07565b602082019050919050565b60006020820190508181036000830152611a6c81611a30565b9050919050565b7f736f6c64206f75742e0000000000000000000000000000000000000000000000600082015250565b6000611aa9600983611318565b9150611ab482611a73565b602082019050919050565b60006020820190508181036000830152611ad881611a9c565b9050919050565b7f7369676e656420696e206265666f72652e000000000000000000000000000000600082015250565b6000611b15601183611318565b9150611b2082611adf565b602082019050919050565b60006020820190508181036000830152611b4481611b08565b9050919050565b7f57726f6e6720636172642066656520656e746572656400000000000000000000600082015250565b6000611b81601683611318565b9150611b8c82611b4b565b602082019050919050565b60006020820190508181036000830152611bb081611b74565b9050919050565b6000611bc2826112d9565b91507fffffffffffffffffffffffffffffffffffffffffffffffffffffffffffffffff821415611bf557611bf461153e565b5b600182019050919050565b6000611c0b826112d9565b9150611c16836112d9565b9250827fffffffffffffffffffffffffffffffffffffffffffffffffffffffffffffffff03821115611c4b57611c4a61153e565b5b828201905092915050565b600081519050611c65816113c8565b92915050565b600060208284031215611c8157611c80611249565b5b6000611c8f84828501611c56565b91505092915050565b6000611ca3826112d9565b9150611cae836112d9565b9250817fffffffffffffffffffffffffffffffffffffffffffffffffffffffffffffffff0483118215151615611ce757611ce661153e565b5b828202905092915050565b7f6e6f7420656e6f6768206361736820746f207061792075736572730000000000600082015250565b6000611d28601b83611318565b9150611d3382611cf2565b602082019050919050565b60006020820190508181036000830152611d5781611d1b565b905091905056fea2646970667358221220bbf1c6934e99bb39bcb2d79bb81bcf7e873c6a2ce18b9bf658adb59323266aee64736f6c63430008090033",
  "linkReferences": {},
  "deployedLinkReferences": {}
}