{
  "_format": "hh-sol-artifact-1",
  "contractName": "Lottery",
  "sourceName": "contracts/Lottery.sol",
  "abi": [
    {
      "inputs": [
        {
          "internalType": "string",
          "name": "_info",
          "type": "string"
        },
        {
          "internalType": "string",
          "name": "_baseURI",
          "type": "string"
        },
        {
          "internalType": "uint256",
          "name": "_gateFee",
          "type": "uint256"
        },
        {
          "internalType": "uint256",
          "name": "_commission",
          "type": "uint256"
        },
        {
          "internalType": "uint256",
          "name": "_userLimit",
          "type": "uint256"
        },
        {
          "internalType": "uint256",
          "name": "_timeLimit",
          "type": "uint256"
        },
        {
          "internalType": "address",
          "name": "_owner",
          "type": "address"
        },
        {
          "internalType": "address",
          "name": "_RandomNumberConsumer",
          "type": "address"
        }
      ],
      "stateMutability": "nonpayable",
      "type": "constructor"
    },
    {
      "anonymous": false,
      "inputs": [
        {
          "indexed": false,
          "internalType": "bool",
          "name": "getFee",
          "type": "bool"
        },
        {
          "indexed": false,
          "internalType": "uint256",
          "name": "fee",
          "type": "uint256"
        }
      ],
      "name": "RNCFee",
      "type": "event"
    },
    {
      "anonymous": false,
      "inputs": [
        {
          "indexed": false,
          "internalType": "bool",
          "name": "success",
          "type": "bool"
        },
        {
          "indexed": false,
          "internalType": "bytes32",
          "name": "requestId",
          "type": "bytes32"
        }
      ],
      "name": "RollDice",
      "type": "event"
    },
    {
      "anonymous": false,
      "inputs": [
        {
          "indexed": false,
          "internalType": "address",
          "name": "user",
          "type": "address"
        }
      ],
      "name": "SignIn",
      "type": "event"
    },
    {
      "anonymous": false,
      "inputs": [
        {
          "indexed": false,
          "internalType": "uint256",
          "name": "index",
          "type": "uint256"
        },
        {
          "indexed": false,
          "internalType": "address",
          "name": "user",
          "type": "address"
        },
        {
          "indexed": false,
          "internalType": "uint256",
          "name": "amount",
          "type": "uint256"
        }
      ],
      "name": "Win",
      "type": "event"
    },
    {
      "inputs": [],
      "name": "RNCfee",
      "outputs": [
        {
          "internalType": "uint256",
          "name": "",
          "type": "uint256"
        }
      ],
      "stateMutability": "view",
      "type": "function"
    },
    {
      "inputs": [],
      "name": "baseURI",
      "outputs": [
        {
          "internalType": "string",
          "name": "",
          "type": "string"
        }
      ],
      "stateMutability": "view",
      "type": "function"
    },
    {
      "inputs": [],
      "name": "cancel",
      "outputs": [],
      "stateMutability": "nonpayable",
      "type": "function"
    },
    {
      "inputs": [],
      "name": "commission",
      "outputs": [
        {
          "internalType": "uint256",
          "name": "",
          "type": "uint256"
        }
      ],
      "stateMutability": "view",
      "type": "function"
    },
    {
      "inputs": [],
      "name": "deadLine",
      "outputs": [
        {
          "internalType": "uint256",
          "name": "",
          "type": "uint256"
        }
      ],
      "stateMutability": "view",
      "type": "function"
    },
    {
      "inputs": [],
      "name": "gateFee",
      "outputs": [
        {
          "internalType": "uint256",
          "name": "",
          "type": "uint256"
        }
      ],
      "stateMutability": "view",
      "type": "function"
    },
    {
      "inputs": [],
      "name": "info",
      "outputs": [
        {
          "internalType": "string",
          "name": "",
          "type": "string"
        }
      ],
      "stateMutability": "view",
      "type": "function"
    },
    {
      "inputs": [],
      "name": "owner",
      "outputs": [
        {
          "internalType": "address",
          "name": "",
          "type": "address"
        }
      ],
      "stateMutability": "view",
      "type": "function"
    },
    {
      "inputs": [],
      "name": "prize",
      "outputs": [
        {
          "internalType": "uint256",
          "name": "",
          "type": "uint256"
        }
      ],
      "stateMutability": "view",
      "type": "function"
    },
    {
      "inputs": [],
      "name": "rollDice",
      "outputs": [],
      "stateMutability": "nonpayable",
      "type": "function"
    },
    {
      "inputs": [
        {
          "internalType": "uint256",
          "name": "randomness",
          "type": "uint256"
        }
      ],
      "name": "select",
      "outputs": [],
      "stateMutability": "nonpayable",
      "type": "function"
    },
    {
      "inputs": [],
      "name": "signIn",
      "outputs": [],
      "stateMutability": "payable",
      "type": "function"
    },
    {
      "inputs": [
        {
          "internalType": "address",
          "name": "_RandomNumberConsumer",
          "type": "address"
        }
      ],
      "name": "upgradeRNC",
      "outputs": [],
      "stateMutability": "nonpayable",
      "type": "function"
    },
    {
      "inputs": [],
      "name": "userCount",
      "outputs": [
        {
          "internalType": "uint256",
          "name": "",
          "type": "uint256"
        }
      ],
      "stateMutability": "view",
      "type": "function"
    },
    {
      "inputs": [],
      "name": "userLimit",
      "outputs": [
        {
          "internalType": "uint256",
          "name": "",
          "type": "uint256"
        }
      ],
      "stateMutability": "view",
      "type": "function"
    },
    {
      "inputs": [],
      "name": "winner",
      "outputs": [
        {
          "internalType": "address",
          "name": "",
          "type": "address"
        }
      ],
      "stateMutability": "view",
      "type": "function"
    },
    {
      "inputs": [],
      "name": "withdrawCommission",
      "outputs": [],
      "stateMutability": "nonpayable",
      "type": "function"
    }
  ],
  "bytecode": "0x60806040523480156200001157600080fd5b506040516200234b3803806200234b833981810160405281019062000037919062000434565b87600490805190602001906200004f92919062000147565b5086600590805190602001906200006892919062000147565b5085600681905550846007819055508360088190555060008311156200009d5782426200009691906200056a565b6009819055505b81600a60006101000a81548173ffffffffffffffffffffffffffffffffffffffff021916908373ffffffffffffffffffffffffffffffffffffffff160217905550806000806101000a81548173ffffffffffffffffffffffffffffffffffffffff021916908373ffffffffffffffffffffffffffffffffffffffff1602179055506001600060146101000a81548160ff02191690831515021790555050505050505050506200062c565b8280546200015590620005f6565b90600052602060002090601f016020900481019282620001795760008555620001c5565b82601f106200019457805160ff1916838001178555620001c5565b82800160010185558215620001c5579182015b82811115620001c4578251825591602001919060010190620001a7565b5b509050620001d49190620001d8565b5090565b5b80821115620001f3576000816000905550600101620001d9565b5090565b6000604051905090565b600080fd5b600080fd5b600080fd5b600080fd5b6000601f19601f8301169050919050565b7f4e487b7100000000000000000000000000000000000000000000000000000000600052604160045260246000fd5b620002608262000215565b810181811067ffffffffffffffff8211171562000282576200028162000226565b5b80604052505050565b600062000297620001f7565b9050620002a5828262000255565b919050565b600067ffffffffffffffff821115620002c857620002c762000226565b5b620002d38262000215565b9050602081019050919050565b60005b8381101562000300578082015181840152602081019050620002e3565b8381111562000310576000848401525b50505050565b60006200032d6200032784620002aa565b6200028b565b9050828152602081018484840111156200034c576200034b62000210565b5b62000359848285620002e0565b509392505050565b600082601f8301126200037957620003786200020b565b5b81516200038b84826020860162000316565b91505092915050565b6000819050919050565b620003a98162000394565b8114620003b557600080fd5b50565b600081519050620003c9816200039e565b92915050565b600073ffffffffffffffffffffffffffffffffffffffff82169050919050565b6000620003fc82620003cf565b9050919050565b6200040e81620003ef565b81146200041a57600080fd5b50565b6000815190506200042e8162000403565b92915050565b600080600080600080600080610100898b03121562000458576200045762000201565b5b600089015167ffffffffffffffff81111562000479576200047862000206565b5b620004878b828c0162000361565b985050602089015167ffffffffffffffff811115620004ab57620004aa62000206565b5b620004b98b828c0162000361565b9750506040620004cc8b828c01620003b8565b9650506060620004df8b828c01620003b8565b9550506080620004f28b828c01620003b8565b94505060a0620005058b828c01620003b8565b93505060c0620005188b828c016200041d565b92505060e06200052b8b828c016200041d565b9150509295985092959890939650565b7f4e487b7100000000000000000000000000000000000000000000000000000000600052601160045260246000fd5b6000620005778262000394565b9150620005848362000394565b9250827fffffffffffffffffffffffffffffffffffffffffffffffffffffffffffffffff03821115620005bc57620005bb6200053b565b5b828201905092915050565b7f4e487b7100000000000000000000000000000000000000000000000000000000600052602260045260246000fd5b600060028204905060018216806200060f57607f821691505b60208210811415620006265762000625620005c7565b5b50919050565b611d0f806200063c6000396000f3fe6080604052600436106100fd5760003560e01c8063839a19d911610095578063d48f370911610064578063d48f3709146102b9578063dfbf53ae146102e4578063e14891911461030f578063e3ac5d261461033a578063ea8a1af014610365576100fd565b8063839a19d9146102305780638da5cb5b146102595780639e4cda4314610284578063bef3a0831461028e576100fd565b80633e25e837116100d15780633e25e837146101ac5780634a7c01ec146101c35780636c0360eb146101ee578063837e7cc614610219576100fd565b806294d81b1461010257806307973ccf1461012b5780632ff8c0cc14610156578063370158ea14610181575b600080fd5b34801561010e57600080fd5b506101296004803603810190610124919061126a565b61037c565b005b34801561013757600080fd5b5061014061044f565b60405161014d91906112b0565b60405180910390f35b34801561016257600080fd5b5061016b610455565b60405161017891906112b0565b60405180910390f35b34801561018d57600080fd5b5061019661045b565b6040516101a39190611364565b60405180910390f35b3480156101b857600080fd5b506101c16104e9565b005b3480156101cf57600080fd5b506101d86105fd565b6040516101e591906112b0565b60405180910390f35b3480156101fa57600080fd5b50610203610603565b6040516102109190611364565b60405180910390f35b34801561022557600080fd5b5061022e610691565b005b34801561023c57600080fd5b50610257600480360381019061025291906113b2565b610a16565b005b34801561026557600080fd5b5061026e610b95565b60405161027b91906113ee565b60405180910390f35b61028c610bbb565b005b34801561029a57600080fd5b506102a3610e78565b6040516102b091906112b0565b60405180910390f35b3480156102c557600080fd5b506102ce610e7e565b6040516102db91906112b0565b60405180910390f35b3480156102f057600080fd5b506102f9610fb1565b60405161030691906113ee565b60405180910390f35b34801561031b57600080fd5b50610324610fd7565b60405161033191906112b0565b60405180910390f35b34801561034657600080fd5b5061034f610fdd565b60405161035c91906112b0565b60405180910390f35b34801561037157600080fd5b5061037a610fe3565b005b600a60009054906101000a900473ffffffffffffffffffffffffffffffffffffffff1673ffffffffffffffffffffffffffffffffffffffff163373ffffffffffffffffffffffffffffffffffffffff161461040c576040517f08c379a00000000000000000000000000000000000000000000000000000000081526004016104039061147b565b60405180910390fd5b806000806101000a81548173ffffffffffffffffffffffffffffffffffffffff021916908373ffffffffffffffffffffffffffffffffffffffff16021790555050565b60015481565b60065481565b60048054610468906114ca565b80601f0160208091040260200160405190810160405280929190818152602001828054610494906114ca565b80156104e15780601f106104b6576101008083540402835291602001916104e1565b820191906000526020600020905b8154815290600101906020018083116104c457829003601f168201915b505050505081565b600a60009054906101000a900473ffffffffffffffffffffffffffffffffffffffff1673ffffffffffffffffffffffffffffffffffffffff163373ffffffffffffffffffffffffffffffffffffffff1614610579576040517f08c379a00000000000000000000000000000000000000000000000000000000081526004016105709061147b565b60405180910390fd5b600060025447610589919061152b565b90506000600a60009054906101000a900473ffffffffffffffffffffffffffffffffffffffff1690508073ffffffffffffffffffffffffffffffffffffffff166108fc839081150290604051600060405180830381858888f193505050501580156105f8573d6000803e3d6000fd5b505050565b60085481565b60058054610610906114ca565b80601f016020809104026020016040519081016040528092919081815260200182805461063c906114ca565b80156106895780601f1061065e57610100808354040283529160200191610689565b820191906000526020600020905b81548152906001019060200180831161066c57829003601f168201915b505050505081565b60006008541180156106a557506000600954115b156107025760085460015414806106be57506009544210155b6106fd576040517f08c379a00000000000000000000000000000000000000000000000000000000081526004016106f4906115d1565b60405180910390fd5b610840565b600060085411156107585760085460015414610753576040517f08c379a000000000000000000000000000000000000000000000000000000000815260040161074a90611663565b60405180910390fd5b61083f565b600060095411156107ad576009544210156107a8576040517f08c379a000000000000000000000000000000000000000000000000000000000815260040161079f906116f5565b60405180910390fd5b61083e565b600a60009054906101000a900473ffffffffffffffffffffffffffffffffffffffff1673ffffffffffffffffffffffffffffffffffffffff163373ffffffffffffffffffffffffffffffffffffffff161461083d576040517f08c379a00000000000000000000000000000000000000000000000000000000081526004016108349061147b565b60405180910390fd5b5b5b5b60008060146101000a81548160ff02191690831515021790555060006040518060400160405280600f81526020017f73656c6563742875696e7432353629000000000000000000000000000000000081525080519060200120905060008060008054906101000a900473ffffffffffffffffffffffffffffffffffffffff1673ffffffffffffffffffffffffffffffffffffffff166108dd610e7e565b846040516024016108ee9190611750565b6040516020818303038152906040527fdbdff2c1000000000000000000000000000000000000000000000000000000007bffffffffffffffffffffffffffffffffffffffffffffffffffffffff19166020820180517bffffffffffffffffffffffffffffffffffffffffffffffffffffffff838183161783525050505060405161097891906117b2565b60006040518083038185875af1925050503d80600081146109b5576040519150601f19603f3d011682016040523d82523d6000602084013e6109ba565b606091505b50915091506000818060200190518101906109d591906117ff565b90507f06894999b6850dada8c02e3669fb0fd04cf344217bd863dec0e8c35727109d118382604051610a08929190611856565b60405180910390a150505050565b60008054906101000a900473ffffffffffffffffffffffffffffffffffffffff1673ffffffffffffffffffffffffffffffffffffffff163373ffffffffffffffffffffffffffffffffffffffff1614610aa4576040517f08c379a0000000000000000000000000000000000000000000000000000000008152600401610a9b906118cb565b60405180910390fd5b600060015482610ab4919061191a565b9050600b600082815260200190815260200160002060009054906101000a900473ffffffffffffffffffffffffffffffffffffffff16600360006101000a81548173ffffffffffffffffffffffffffffffffffffffff021916908373ffffffffffffffffffffffffffffffffffffffff1602179055507f94dd8caf4803213035e054c595c14a4902fc45ff2d35957b439326822e43481981600360009054906101000a900473ffffffffffffffffffffffffffffffffffffffff16600254604051610b819392919061194b565b60405180910390a1610b9161118c565b5050565b600a60009054906101000a900473ffffffffffffffffffffffffffffffffffffffff1681565b600060149054906101000a900460ff16610c0a576040517f08c379a0000000000000000000000000000000000000000000000000000000008152600401610c01906119ce565b60405180910390fd5b60006008541480610c1e5750600854600154105b610c5d576040517f08c379a0000000000000000000000000000000000000000000000000000000008152600401610c5490611a3a565b60405180910390fd5b600c60003373ffffffffffffffffffffffffffffffffffffffff1673ffffffffffffffffffffffffffffffffffffffff16815260200190815260200160002060009054906101000a900460ff1615610cea576040517f08c379a0000000000000000000000000000000000000000000000000000000008152600401610ce190611aa6565b60405180910390fd5b6006543414610d2e576040517f08c379a0000000000000000000000000000000000000000000000000000000008152600401610d2590611b12565b60405180910390fd5b33600b6000600154815260200190815260200160002060006101000a81548173ffffffffffffffffffffffffffffffffffffffff021916908373ffffffffffffffffffffffffffffffffffffffff1602179055506001600c60003373ffffffffffffffffffffffffffffffffffffffff1673ffffffffffffffffffffffffffffffffffffffff16815260200190815260200160002060006101000a81548160ff02191690831515021790555060016000815480929190610ded90611b32565b919050555060075434610e00919061152b565b60026000828254610e119190611b7b565b925050819055507fef383f4930adff403c14f551843bcd75d90c913f8e731f5a2baf2cd6339a92d833604051610e4791906113ee565b60405180910390a16008546001541415610e765760008060146101000a81548160ff0219169083151502179055505b565b60095481565b60008060008060009054906101000a900473ffffffffffffffffffffffffffffffffffffffff1673ffffffffffffffffffffffffffffffffffffffff166040516024016040516020818303038152906040527f70160fc5000000000000000000000000000000000000000000000000000000007bffffffffffffffffffffffffffffffffffffffffffffffffffffffff19166020820180517bffffffffffffffffffffffffffffffffffffffffffffffffffffffff8381831617835250505050604051610f4b91906117b2565b600060405180830381855afa9150503d8060008114610f86576040519150601f19603f3d011682016040523d82523d6000602084013e610f8b565b606091505b5091509150600081806020019051810190610fa69190611be6565b905080935050505090565b600360009054906101000a900473ffffffffffffffffffffffffffffffffffffffff1681565b60075481565b60025481565b600a60009054906101000a900473ffffffffffffffffffffffffffffffffffffffff1673ffffffffffffffffffffffffffffffffffffffff163373ffffffffffffffffffffffffffffffffffffffff1614611073576040517f08c379a000000000000000000000000000000000000000000000000000000000815260040161106a9061147b565b60405180910390fd5b6006546001546110839190611c13565b4710156110c5576040517f08c379a00000000000000000000000000000000000000000000000000000000081526004016110bc90611cb9565b60405180910390fd5b60005b600154811015611167576000600b600083815260200190815260200160002060009054906101000a900473ffffffffffffffffffffffffffffffffffffffff1690508073ffffffffffffffffffffffffffffffffffffffff166108fc6006549081150290604051600060405180830381858888f19350505050158015611152573d6000803e3d6000fd5b5050808061115f90611b32565b9150506110c8565b50600060028190555060008060146101000a81548160ff021916908315150217905550565b6000600360009054906101000a900473ffffffffffffffffffffffffffffffffffffffff1690508073ffffffffffffffffffffffffffffffffffffffff166108fc6002549081150290604051600060405180830381858888f193505050501580156111fb573d6000803e3d6000fd5b50600060028190555050565b600080fd5b600073ffffffffffffffffffffffffffffffffffffffff82169050919050565b60006112378261120c565b9050919050565b6112478161122c565b811461125257600080fd5b50565b6000813590506112648161123e565b92915050565b6000602082840312156112805761127f611207565b5b600061128e84828501611255565b91505092915050565b6000819050919050565b6112aa81611297565b82525050565b60006020820190506112c560008301846112a1565b92915050565b600081519050919050565b600082825260208201905092915050565b60005b838110156113055780820151818401526020810190506112ea565b83811115611314576000848401525b50505050565b6000601f19601f8301169050919050565b6000611336826112cb565b61134081856112d6565b93506113508185602086016112e7565b6113598161131a565b840191505092915050565b6000602082019050818103600083015261137e818461132b565b905092915050565b61138f81611297565b811461139a57600080fd5b50565b6000813590506113ac81611386565b92915050565b6000602082840312156113c8576113c7611207565b5b60006113d68482850161139d565b91505092915050565b6113e88161122c565b82525050565b600060208201905061140360008301846113df565b92915050565b7f6f6e6c79206f776e65722063616e2063616c6c20746869732066756e6374696f60008201527f6e00000000000000000000000000000000000000000000000000000000000000602082015250565b60006114656021836112d6565b915061147082611409565b604082019050919050565b6000602082019050818103600083015261149481611458565b9050919050565b7f4e487b7100000000000000000000000000000000000000000000000000000000600052602260045260246000fd5b600060028204905060018216806114e257607f821691505b602082108114156114f6576114f561149b565b5b50919050565b7f4e487b7100000000000000000000000000000000000000000000000000000000600052601160045260246000fd5b600061153682611297565b915061154183611297565b925082821015611554576115536114fc565b5b828203905092915050565b7f72656163682074696d65206c696d6974206f722075736572206c696d6974207460008201527f6f20616374697661746520646963650000000000000000000000000000000000602082015250565b60006115bb602f836112d6565b91506115c68261155f565b604082019050919050565b600060208201905081810360008301526115ea816115ae565b9050919050565b7f72656163682075736572206c696d697420746f2061637469766174652064696360008201527f6500000000000000000000000000000000000000000000000000000000000000602082015250565b600061164d6021836112d6565b9150611658826115f1565b604082019050919050565b6000602082019050818103600083015261167c81611640565b9050919050565b7f796f75206861766520746f207761697420756e74696c6c20646561646c696e6560008201527f2070617373000000000000000000000000000000000000000000000000000000602082015250565b60006116df6025836112d6565b91506116ea82611683565b604082019050919050565b6000602082019050818103600083015261170e816116d2565b9050919050565b60007fffffffff0000000000000000000000000000000000000000000000000000000082169050919050565b61174a81611715565b82525050565b60006020820190506117656000830184611741565b92915050565b600081519050919050565b600081905092915050565b600061178c8261176b565b6117968185611776565b93506117a68185602086016112e7565b80840191505092915050565b60006117be8284611781565b915081905092915050565b6000819050919050565b6117dc816117c9565b81146117e757600080fd5b50565b6000815190506117f9816117d3565b92915050565b60006020828403121561181557611814611207565b5b6000611823848285016117ea565b91505092915050565b60008115159050919050565b6118418161182c565b82525050565b611850816117c9565b82525050565b600060408201905061186b6000830185611838565b6118786020830184611847565b9392505050565b7f63616c6c6572206973206e6f74207468652076616c696420524e430000000000600082015250565b60006118b5601b836112d6565b91506118c08261187f565b602082019050919050565b600060208201905081810360008301526118e4816118a8565b9050919050565b7f4e487b7100000000000000000000000000000000000000000000000000000000600052601260045260246000fd5b600061192582611297565b915061193083611297565b9250826119405761193f6118eb565b5b828206905092915050565b600060608201905061196060008301866112a1565b61196d60208301856113df565b61197a60408301846112a1565b949350505050565b7f67616d6520657870697265640000000000000000000000000000000000000000600082015250565b60006119b8600c836112d6565b91506119c382611982565b602082019050919050565b600060208201905081810360008301526119e7816119ab565b9050919050565b7f736f6c64206f75742e0000000000000000000000000000000000000000000000600082015250565b6000611a246009836112d6565b9150611a2f826119ee565b602082019050919050565b60006020820190508181036000830152611a5381611a17565b9050919050565b7f7369676e656420696e206265666f72652e000000000000000000000000000000600082015250565b6000611a906011836112d6565b9150611a9b82611a5a565b602082019050919050565b60006020820190508181036000830152611abf81611a83565b9050919050565b7f57726f6e6720636172642066656520656e746572656400000000000000000000600082015250565b6000611afc6016836112d6565b9150611b0782611ac6565b602082019050919050565b60006020820190508181036000830152611b2b81611aef565b9050919050565b6000611b3d82611297565b91507fffffffffffffffffffffffffffffffffffffffffffffffffffffffffffffffff821415611b7057611b6f6114fc565b5b600182019050919050565b6000611b8682611297565b9150611b9183611297565b9250827fffffffffffffffffffffffffffffffffffffffffffffffffffffffffffffffff03821115611bc657611bc56114fc565b5b828201905092915050565b600081519050611be081611386565b92915050565b600060208284031215611bfc57611bfb611207565b5b6000611c0a84828501611bd1565b91505092915050565b6000611c1e82611297565b9150611c2983611297565b9250817fffffffffffffffffffffffffffffffffffffffffffffffffffffffffffffffff0483118215151615611c6257611c616114fc565b5b828202905092915050565b7f6e6f7420656e6f6768206361736820746f207061792075736572730000000000600082015250565b6000611ca3601b836112d6565b9150611cae82611c6d565b602082019050919050565b60006020820190508181036000830152611cd281611c96565b905091905056fea2646970667358221220ce4f04049abef383be23661a26b2bb9372345ffdec558906f6551b82655d34e264736f6c63430008090033",
  "linkReferences": {},
  "deployedLinkReferences": {}
}