{
  "_format": "hh-sol-artifact-1",
  "contractName": "ERC777TestSender",
  "sourceName": "contracts/ERC777/ERC777TestSender.sol",
  "abi": [
    {
      "inputs": [],
      "stateMutability": "nonpayable",
      "type": "constructor"
    },
    {
      "inputs": [
        {
          "internalType": "address",
          "name": "tokenContractAddress",
          "type": "address"
        },
        {
          "internalType": "address",
          "name": "recipient",
          "type": "address"
        },
        {
          "internalType": "uint256",
          "name": "amount",
          "type": "uint256"
        }
      ],
      "name": "send",
      "outputs": [],
      "stateMutability": "nonpayable",
      "type": "function"
    },
    {
      "inputs": [
        {
          "internalType": "address",
          "name": "operator",
          "type": "address"
        },
        {
          "internalType": "address",
          "name": "from",
          "type": "address"
        },
        {
          "internalType": "address",
          "name": "to",
          "type": "address"
        },
        {
          "internalType": "uint256",
          "name": "amount",
          "type": "uint256"
        },
        {
          "internalType": "bytes",
          "name": "userData",
          "type": "bytes"
        },
        {
          "internalType": "bytes",
          "name": "operatorData",
          "type": "bytes"
        }
      ],
      "name": "tokensToSend",
      "outputs": [],
      "stateMutability": "nonpayable",
      "type": "function"
    },
    {
      "inputs": [
        {
          "internalType": "address",
          "name": "tokenContractAddress",
          "type": "address"
        },
        {
          "internalType": "address",
          "name": "recipient",
          "type": "address"
        },
        {
          "internalType": "uint256",
          "name": "amount",
          "type": "uint256"
        }
      ],
      "name": "transfer",
      "outputs": [],
      "stateMutability": "nonpayable",
      "type": "function"
    }
  ],
  "bytecode": "0x608060405234801561001057600080fd5b50731820a4b7618bde71dce8cdc73aab6c95905fad2473ffffffffffffffffffffffffffffffffffffffff166329965a1d307f29ddb589b1fb5fc7cf394961c1adf5f8c6454761adf795e67fe149f658abe895306040518463ffffffff1660e01b815260040161008293929190610113565b600060405180830381600087803b15801561009c57600080fd5b505af11580156100b0573d6000803e3d6000fd5b5050505061014a565b600073ffffffffffffffffffffffffffffffffffffffff82169050919050565b60006100e4826100b9565b9050919050565b6100f4816100d9565b82525050565b6000819050919050565b61010d816100fa565b82525050565b600060608201905061012860008301866100eb565b6101356020830185610104565b61014260408301846100eb565b949350505050565b610562806101596000396000f3fe608060405234801561001057600080fd5b50600436106100415760003560e01c80630779afe61461004657806375ab978214610062578063beabacc81461007e575b600080fd5b610060600480360381019061005b9190610257565b61009a565b005b61007c6004803603810190610077919061030f565b610114565b005b61009860048036038101906100939190610257565b61011e565b005b60008390508073ffffffffffffffffffffffffffffffffffffffff166362ad1b833385856040518463ffffffff1660e01b81526004016100dc93929190610433565b600060405180830381600087803b1580156100f657600080fd5b505af115801561010a573d6000803e3d6000fd5b5050505050505050565b5050505050505050565b60008390508073ffffffffffffffffffffffffffffffffffffffff166323b872dd3385856040518463ffffffff1660e01b815260040161016093929190610490565b602060405180830381600087803b15801561017a57600080fd5b505af115801561018e573d6000803e3d6000fd5b505050506040513d601f19601f820116820180604052508101906101b291906104ff565b5050505050565b600080fd5b600080fd5b600073ffffffffffffffffffffffffffffffffffffffff82169050919050565b60006101ee826101c3565b9050919050565b6101fe816101e3565b811461020957600080fd5b50565b60008135905061021b816101f5565b92915050565b6000819050919050565b61023481610221565b811461023f57600080fd5b50565b6000813590506102518161022b565b92915050565b6000806000606084860312156102705761026f6101b9565b5b600061027e8682870161020c565b935050602061028f8682870161020c565b92505060406102a086828701610242565b9150509250925092565b600080fd5b600080fd5b600080fd5b60008083601f8401126102cf576102ce6102aa565b5b8235905067ffffffffffffffff8111156102ec576102eb6102af565b5b602083019150836001820283011115610308576103076102b4565b5b9250929050565b60008060008060008060008060c0898b03121561032f5761032e6101b9565b5b600061033d8b828c0161020c565b985050602061034e8b828c0161020c565b975050604061035f8b828c0161020c565b96505060606103708b828c01610242565b955050608089013567ffffffffffffffff811115610391576103906101be565b5b61039d8b828c016102b9565b945094505060a089013567ffffffffffffffff8111156103c0576103bf6101be565b5b6103cc8b828c016102b9565b92509250509295985092959890939650565b6103e7816101e3565b82525050565b6103f681610221565b82525050565b600082825260208201905092915050565b50565b600061041d6000836103fc565b91506104288261040d565b600082019050919050565b600060a08201905061044860008301866103de565b61045560208301856103de565b61046260408301846103ed565b818103606083015261047381610410565b9050818103608083015261048681610410565b9050949350505050565b60006060820190506104a560008301866103de565b6104b260208301856103de565b6104bf60408301846103ed565b949350505050565b60008115159050919050565b6104dc816104c7565b81146104e757600080fd5b50565b6000815190506104f9816104d3565b92915050565b600060208284031215610515576105146101b9565b5b6000610523848285016104ea565b9150509291505056fea2646970667358221220fbac91306e814eb781ea46eb5b33caf37503bda6589ada6ddc7ad216cb3ef2b264736f6c63430008090033",
  "linkReferences": {},
  "deployedLinkReferences": {}
}