{
  "_format": "hh-sol-artifact-1",
  "contractName": "RandomNumberConsumer",
  "sourceName": "contracts/RNC/RandomNumberConsumer.sol",
  "abi": [
    {
      "inputs": [],
      "stateMutability": "nonpayable",
      "type": "constructor"
    },
    {
      "anonymous": false,
      "inputs": [
        {
          "indexed": true,
          "internalType": "address",
          "name": "previousOwner",
          "type": "address"
        },
        {
          "indexed": true,
          "internalType": "address",
          "name": "newOwner",
          "type": "address"
        }
      ],
      "name": "OwnershipTransferred",
      "type": "event"
    },
    {
      "anonymous": false,
      "inputs": [
        {
          "indexed": false,
          "internalType": "bytes32",
          "name": "requestId",
          "type": "bytes32"
        }
      ],
      "name": "Request",
      "type": "event"
    },
    {
      "anonymous": false,
      "inputs": [
        {
          "indexed": false,
          "internalType": "bytes",
          "name": "data",
          "type": "bytes"
        }
      ],
      "name": "Response",
      "type": "event"
    },
    {
      "inputs": [
        {
          "internalType": "bytes32",
          "name": "",
          "type": "bytes32"
        }
      ],
      "name": "applicants",
      "outputs": [
        {
          "internalType": "address",
          "name": "contractAddress",
          "type": "address"
        },
        {
          "internalType": "bytes4",
          "name": "callBackSelector",
          "type": "bytes4"
        },
        {
          "internalType": "uint256",
          "name": "randomResult",
          "type": "uint256"
        }
      ],
      "stateMutability": "view",
      "type": "function"
    },
    {
      "inputs": [],
      "name": "generateFee",
      "outputs": [
        {
          "internalType": "uint256",
          "name": "fee",
          "type": "uint256"
        }
      ],
      "stateMutability": "view",
      "type": "function"
    },
    {
      "inputs": [
        {
          "internalType": "bytes4",
          "name": "_callBackSelector",
          "type": "bytes4"
        }
      ],
      "name": "getRandomNumber",
      "outputs": [
        {
          "internalType": "bytes32",
          "name": "requestId",
          "type": "bytes32"
        }
      ],
      "stateMutability": "payable",
      "type": "function"
    },
    {
      "inputs": [],
      "name": "linkSupply",
      "outputs": [
        {
          "internalType": "uint256",
          "name": "",
          "type": "uint256"
        }
      ],
      "stateMutability": "view",
      "type": "function"
    },
    {
      "inputs": [],
      "name": "owner",
      "outputs": [
        {
          "internalType": "address",
          "name": "",
          "type": "address"
        }
      ],
      "stateMutability": "view",
      "type": "function"
    },
    {
      "inputs": [
        {
          "internalType": "bytes32",
          "name": "requestId",
          "type": "bytes32"
        },
        {
          "internalType": "uint256",
          "name": "randomness",
          "type": "uint256"
        }
      ],
      "name": "rawFulfillRandomness",
      "outputs": [],
      "stateMutability": "nonpayable",
      "type": "function"
    },
    {
      "inputs": [],
      "name": "renounceOwnership",
      "outputs": [],
      "stateMutability": "nonpayable",
      "type": "function"
    },
    {
      "inputs": [],
      "name": "totalSupply",
      "outputs": [
        {
          "internalType": "uint256",
          "name": "",
          "type": "uint256"
        }
      ],
      "stateMutability": "view",
      "type": "function"
    },
    {
      "inputs": [
        {
          "internalType": "address",
          "name": "newOwner",
          "type": "address"
        }
      ],
      "name": "transferOwnership",
      "outputs": [],
      "stateMutability": "nonpayable",
      "type": "function"
    },
    {
      "inputs": [],
      "name": "withdrawCash",
      "outputs": [],
      "stateMutability": "nonpayable",
      "type": "function"
    },
    {
      "inputs": [
        {
          "internalType": "uint256",
          "name": "amount",
          "type": "uint256"
        }
      ],
      "name": "withdrawLink",
      "outputs": [],
      "stateMutability": "nonpayable",
      "type": "function"
    }
  ],
  "bytecode": "0x60c060405234801561001057600080fd5b50738c7382f9d8f56b33781fe506e897a4f1e2d1725573326c977e6efc84e512bb9c30f76e30c160ed06fb8173ffffffffffffffffffffffffffffffffffffffff1660a08173ffffffffffffffffffffffffffffffffffffffff16815250508073ffffffffffffffffffffffffffffffffffffffff1660808173ffffffffffffffffffffffffffffffffffffffff168152505050506100c16100b661010b60201b60201c565b61011360201b60201c565b7f6e75b569a01ef56d18cab6a8e71e6600d6ce853834d4a5748b720d06f878b3a460001b600281905550655af3107a4000600381905550662386f26fc100006004819055506101d9565b600033905090565b6000600160009054906101000a900473ffffffffffffffffffffffffffffffffffffffff16905081600160006101000a81548173ffffffffffffffffffffffffffffffffffffffff021916908373ffffffffffffffffffffffffffffffffffffffff1602179055508173ffffffffffffffffffffffffffffffffffffffff168173ffffffffffffffffffffffffffffffffffffffff167f8be0079c531659141344cd1fd0a4f28419497f9722a3daafe3b4186f6b6457e060405160405180910390a35050565b60805160a05161188961021a6000396000818161053e0152610c4f015260008181610389015281816105dc015281816107870152610c1301526118896000f3fe60806040526004361061009c5760003560e01c80638da5cb5b116100645780638da5cb5b1461014e57806394985ddd14610179578063ddc58991146101a2578063f2fde38b146101cd578063f5d34f23146101f6578063fb9cc957146102265761009c565b806318160ddd146100a15780632fe12dfb146100cc578063715018a6146100f75780637a8042bd1461010e578063884fa9a514610137575b600080fd5b3480156100ad57600080fd5b506100b6610265565b6040516100c39190610f51565b60405180910390f35b3480156100d857600080fd5b506100e161026d565b6040516100ee9190610f51565b60405180910390f35b34801561010357600080fd5b5061010c610277565b005b34801561011a57600080fd5b5061013560048036038101906101309190610f9d565b6102ff565b005b34801561014357600080fd5b5061014c610439565b005b34801561015a57600080fd5b50610163610512565b604051610170919061100b565b60405180910390f35b34801561018557600080fd5b506101a0600480360381019061019b919061105c565b61053c565b005b3480156101ae57600080fd5b506101b76105d8565b6040516101c49190610f51565b60405180910390f35b3480156101d957600080fd5b506101f460048036038101906101ef91906110c8565b610688565b005b610210600480360381019061020b919061114d565b610780565b60405161021d9190611189565b60405180910390f35b34801561023257600080fd5b5061024d600480360381019061024891906111a4565b6109dc565b60405161025c939291906111e0565b60405180910390f35b600047905090565b6000600454905090565b61027f610a33565b73ffffffffffffffffffffffffffffffffffffffff1661029d610512565b73ffffffffffffffffffffffffffffffffffffffff16146102f3576040517f08c379a00000000000000000000000000000000000000000000000000000000081526004016102ea90611274565b60405180910390fd5b6102fd6000610a3b565b565b610307610a33565b73ffffffffffffffffffffffffffffffffffffffff16610325610512565b73ffffffffffffffffffffffffffffffffffffffff161461037b576040517f08c379a000000000000000000000000000000000000000000000000000000000815260040161037290611274565b60405180910390fd5b6000610385610512565b90507f000000000000000000000000000000000000000000000000000000000000000073ffffffffffffffffffffffffffffffffffffffff1663a9059cbb82846040518363ffffffff1660e01b81526004016103e2929190611294565b602060405180830381600087803b1580156103fc57600080fd5b505af1158015610410573d6000803e3d6000fd5b505050506040513d601f19601f8201168201806040525081019061043491906112f5565b505050565b610441610a33565b73ffffffffffffffffffffffffffffffffffffffff1661045f610512565b73ffffffffffffffffffffffffffffffffffffffff16146104b5576040517f08c379a00000000000000000000000000000000000000000000000000000000081526004016104ac90611274565b60405180910390fd5b60006104bf610512565b90508073ffffffffffffffffffffffffffffffffffffffff166108fc6104e3610265565b9081150290604051600060405180830381858888f1935050505015801561050e573d6000803e3d6000fd5b5050565b6000600160009054906101000a900473ffffffffffffffffffffffffffffffffffffffff16905090565b7f000000000000000000000000000000000000000000000000000000000000000073ffffffffffffffffffffffffffffffffffffffff163373ffffffffffffffffffffffffffffffffffffffff16146105ca576040517f08c379a00000000000000000000000000000000000000000000000000000000081526004016105c19061136e565b60405180910390fd5b6105d48282610b01565b5050565b60007f000000000000000000000000000000000000000000000000000000000000000073ffffffffffffffffffffffffffffffffffffffff166370a08231306040518263ffffffff1660e01b8152600401610633919061100b565b60206040518083038186803b15801561064b57600080fd5b505afa15801561065f573d6000803e3d6000fd5b505050506040513d601f19601f8201168201806040525081019061068391906113a3565b905090565b610690610a33565b73ffffffffffffffffffffffffffffffffffffffff166106ae610512565b73ffffffffffffffffffffffffffffffffffffffff1614610704576040517f08c379a00000000000000000000000000000000000000000000000000000000081526004016106fb90611274565b60405180910390fd5b600073ffffffffffffffffffffffffffffffffffffffff168173ffffffffffffffffffffffffffffffffffffffff161415610774576040517f08c379a000000000000000000000000000000000000000000000000000000000815260040161076b90611442565b60405180910390fd5b61077d81610a3b565b50565b60006003547f000000000000000000000000000000000000000000000000000000000000000073ffffffffffffffffffffffffffffffffffffffff166370a08231306040518263ffffffff1660e01b81526004016107de919061100b565b60206040518083038186803b1580156107f657600080fd5b505afa15801561080a573d6000803e3d6000fd5b505050506040513d601f19601f8201168201806040525081019061082e91906113a3565b101561086f576040517f08c379a0000000000000000000000000000000000000000000000000000000008152600401610866906114ae565b60405180910390fd5b6004543410156108b4576040517f08c379a00000000000000000000000000000000000000000000000000000000081526004016108ab9061151a565b60405180910390fd5b6108c2600254600354610c0f565b905060405180606001604052803373ffffffffffffffffffffffffffffffffffffffff168152602001837bffffffffffffffffffffffffffffffffffffffffffffffffffffffff1916815260200160008152506005600083815260200190815260200160002060008201518160000160006101000a81548173ffffffffffffffffffffffffffffffffffffffff021916908373ffffffffffffffffffffffffffffffffffffffff16021790555060208201518160000160146101000a81548163ffffffff021916908360e01c0217905550604082015181600101559050507f6f2c84d547103c34c868d8ad161cf5c513d18a7d50d65e15d16be17707f461ba816040516109cf9190611189565b60405180910390a1919050565b60056020528060005260406000206000915090508060000160009054906101000a900473ffffffffffffffffffffffffffffffffffffffff16908060000160149054906101000a900460e01b908060010154905083565b600033905090565b6000600160009054906101000a900473ffffffffffffffffffffffffffffffffffffffff16905081600160006101000a81548173ffffffffffffffffffffffffffffffffffffffff021916908373ffffffffffffffffffffffffffffffffffffffff1602179055508173ffffffffffffffffffffffffffffffffffffffff168173ffffffffffffffffffffffffffffffffffffffff167f8be0079c531659141344cd1fd0a4f28419497f9722a3daafe3b4186f6b6457e060405160405180910390a35050565b8060056000848152602001908152602001600020600101819055506000600560008481526020019081526020016000206040518060600160405290816000820160009054906101000a900473ffffffffffffffffffffffffffffffffffffffff1673ffffffffffffffffffffffffffffffffffffffff1673ffffffffffffffffffffffffffffffffffffffff1681526020016000820160149054906101000a900460e01b7bffffffffffffffffffffffffffffffffffffffffffffffffffffffff19167bffffffffffffffffffffffffffffffffffffffffffffffffffffffff191681526020016001820154815250509050610c0a816000015182602001518360400151610d6e565b505050565b60007f000000000000000000000000000000000000000000000000000000000000000073ffffffffffffffffffffffffffffffffffffffff16634000aea07f000000000000000000000000000000000000000000000000000000000000000084866000604051602001610c8392919061153a565b6040516020818303038152906040526040518463ffffffff1660e01b8152600401610cb0939291906115fc565b602060405180830381600087803b158015610cca57600080fd5b505af1158015610cde573d6000803e3d6000fd5b505050506040513d601f19601f82011682018060405250810190610d0291906112f5565b506000610d248460003060008089815260200190815260200160002054610ec9565b9050600160008086815260200190815260200160002054610d459190611669565b60008086815260200190815260200160002081905550610d658482610f05565b91505092915050565b6000808473ffffffffffffffffffffffffffffffffffffffff168484604051602401610d9a9190610f51565b604051602081830303815290604052907bffffffffffffffffffffffffffffffffffffffffffffffffffffffff19166020820180517bffffffffffffffffffffffffffffffffffffffffffffffffffffffff8381831617835250505050604051610e0491906116fb565b6000604051808303816000865af19150503d8060008114610e41576040519150601f19603f3d011682016040523d82523d6000602084013e610e46565b606091505b509150915081610e8b576040517f08c379a0000000000000000000000000000000000000000000000000000000008152600401610e829061175e565b60405180910390fd5b7f93864668e00bfeb0cafee67ab7145a622ae39e8045304432e9a0bfb97cc04d4681604051610eba919061177e565b60405180910390a15050505050565b600084848484604051602001610ee294939291906117a0565b6040516020818303038152906040528051906020012060001c9050949350505050565b60008282604051602001610f1a929190611827565b60405160208183030381529060405280519060200120905092915050565b6000819050919050565b610f4b81610f38565b82525050565b6000602082019050610f666000830184610f42565b92915050565b600080fd5b610f7a81610f38565b8114610f8557600080fd5b50565b600081359050610f9781610f71565b92915050565b600060208284031215610fb357610fb2610f6c565b5b6000610fc184828501610f88565b91505092915050565b600073ffffffffffffffffffffffffffffffffffffffff82169050919050565b6000610ff582610fca565b9050919050565b61100581610fea565b82525050565b60006020820190506110206000830184610ffc565b92915050565b6000819050919050565b61103981611026565b811461104457600080fd5b50565b60008135905061105681611030565b92915050565b6000806040838503121561107357611072610f6c565b5b600061108185828601611047565b925050602061109285828601610f88565b9150509250929050565b6110a581610fea565b81146110b057600080fd5b50565b6000813590506110c28161109c565b92915050565b6000602082840312156110de576110dd610f6c565b5b60006110ec848285016110b3565b91505092915050565b60007fffffffff0000000000000000000000000000000000000000000000000000000082169050919050565b61112a816110f5565b811461113557600080fd5b50565b60008135905061114781611121565b92915050565b60006020828403121561116357611162610f6c565b5b600061117184828501611138565b91505092915050565b61118381611026565b82525050565b600060208201905061119e600083018461117a565b92915050565b6000602082840312156111ba576111b9610f6c565b5b60006111c884828501611047565b91505092915050565b6111da816110f5565b82525050565b60006060820190506111f56000830186610ffc565b61120260208301856111d1565b61120f6040830184610f42565b949350505050565b600082825260208201905092915050565b7f4f776e61626c653a2063616c6c6572206973206e6f7420746865206f776e6572600082015250565b600061125e602083611217565b915061126982611228565b602082019050919050565b6000602082019050818103600083015261128d81611251565b9050919050565b60006040820190506112a96000830185610ffc565b6112b66020830184610f42565b9392505050565b60008115159050919050565b6112d2816112bd565b81146112dd57600080fd5b50565b6000815190506112ef816112c9565b92915050565b60006020828403121561130b5761130a610f6c565b5b6000611319848285016112e0565b91505092915050565b7f4f6e6c7920565246436f6f7264696e61746f722063616e2066756c66696c6c00600082015250565b6000611358601f83611217565b915061136382611322565b602082019050919050565b600060208201905081810360008301526113878161134b565b9050919050565b60008151905061139d81610f71565b92915050565b6000602082840312156113b9576113b8610f6c565b5b60006113c78482850161138e565b91505092915050565b7f4f776e61626c653a206e6577206f776e657220697320746865207a65726f206160008201527f6464726573730000000000000000000000000000000000000000000000000000602082015250565b600061142c602683611217565b9150611437826113d0565b604082019050919050565b6000602082019050818103600083015261145b8161141f565b9050919050565b7f4e6f7420656e6f756768204c494e4b0000000000000000000000000000000000600082015250565b6000611498600f83611217565b91506114a382611462565b602082019050919050565b600060208201905081810360008301526114c78161148b565b9050919050565b7f4e6f7420656e6f756768204d4154494300000000000000000000000000000000600082015250565b6000611504601083611217565b915061150f826114ce565b602082019050919050565b60006020820190508181036000830152611533816114f7565b9050919050565b600060408201905061154f600083018561117a565b61155c6020830184610f42565b9392505050565b600081519050919050565b600082825260208201905092915050565b60005b8381101561159d578082015181840152602081019050611582565b838111156115ac576000848401525b50505050565b6000601f19601f8301169050919050565b60006115ce82611563565b6115d8818561156e565b93506115e881856020860161157f565b6115f1816115b2565b840191505092915050565b60006060820190506116116000830186610ffc565b61161e6020830185610f42565b818103604083015261163081846115c3565b9050949350505050565b7f4e487b7100000000000000000000000000000000000000000000000000000000600052601160045260246000fd5b600061167482610f38565b915061167f83610f38565b9250827fffffffffffffffffffffffffffffffffffffffffffffffffffffffffffffffff038211156116b4576116b361163a565b5b828201905092915050565b600081905092915050565b60006116d582611563565b6116df81856116bf565b93506116ef81856020860161157f565b80840191505092915050565b600061170782846116ca565b915081905092915050565b7f436f756c64204e6f7420526573706f6e73652052616e646f6d6e657373000000600082015250565b6000611748601d83611217565b915061175382611712565b602082019050919050565b600060208201905081810360008301526117778161173b565b9050919050565b6000602082019050818103600083015261179881846115c3565b905092915050565b60006080820190506117b5600083018761117a565b6117c26020830186610f42565b6117cf6040830185610ffc565b6117dc6060830184610f42565b95945050505050565b6000819050919050565b6118006117fb82611026565b6117e5565b82525050565b6000819050919050565b61182161181c82610f38565b611806565b82525050565b600061183382856117ef565b6020820191506118438284611810565b602082019150819050939250505056fea2646970667358221220ff0713de1c901ab8ea0af603e55e12fd942b2fc6dd0eb03e9304b71330a1bbd964736f6c63430008090033",
  "linkReferences": {},
  "deployedLinkReferences": {}
}