{
  "_format": "hh-sol-artifact-1",
  "contractName": "RandomNumberConsumer",
  "sourceName": "contracts/RNC/RandomNumberConsumer.sol",
  "abi": [
    {
      "inputs": [
        {
          "internalType": "address",
          "name": "_DAOContract",
          "type": "address"
        }
      ],
      "stateMutability": "nonpayable",
      "type": "constructor"
    },
    {
      "anonymous": false,
      "inputs": [
        {
          "indexed": true,
          "internalType": "address",
          "name": "previousOwner",
          "type": "address"
        },
        {
          "indexed": true,
          "internalType": "address",
          "name": "newOwner",
          "type": "address"
        }
      ],
      "name": "OwnershipTransferred",
      "type": "event"
    },
    {
      "anonymous": false,
      "inputs": [
        {
          "indexed": false,
          "internalType": "bytes32",
          "name": "requestId",
          "type": "bytes32"
        }
      ],
      "name": "Request",
      "type": "event"
    },
    {
      "anonymous": false,
      "inputs": [
        {
          "indexed": false,
          "internalType": "bytes",
          "name": "data",
          "type": "bytes"
        }
      ],
      "name": "Response",
      "type": "event"
    },
    {
      "inputs": [],
      "name": "DAOContract",
      "outputs": [
        {
          "internalType": "address",
          "name": "",
          "type": "address"
        }
      ],
      "stateMutability": "view",
      "type": "function"
    },
    {
      "inputs": [],
      "name": "applicantFee",
      "outputs": [
        {
          "internalType": "uint256",
          "name": "fee",
          "type": "uint256"
        }
      ],
      "stateMutability": "view",
      "type": "function"
    },
    {
      "inputs": [
        {
          "internalType": "bytes32",
          "name": "",
          "type": "bytes32"
        }
      ],
      "name": "applicants",
      "outputs": [
        {
          "internalType": "address",
          "name": "contractAddress",
          "type": "address"
        },
        {
          "internalType": "bytes4",
          "name": "callBackSelector",
          "type": "bytes4"
        },
        {
          "internalType": "uint256",
          "name": "randomResult",
          "type": "uint256"
        }
      ],
      "stateMutability": "view",
      "type": "function"
    },
    {
      "inputs": [
        {
          "internalType": "bytes4",
          "name": "_callBackSelector",
          "type": "bytes4"
        }
      ],
      "name": "getRandomNumber",
      "outputs": [
        {
          "internalType": "bytes32",
          "name": "requestId",
          "type": "bytes32"
        }
      ],
      "stateMutability": "payable",
      "type": "function"
    },
    {
      "inputs": [],
      "name": "linkSupply",
      "outputs": [
        {
          "internalType": "uint256",
          "name": "",
          "type": "uint256"
        }
      ],
      "stateMutability": "view",
      "type": "function"
    },
    {
      "inputs": [],
      "name": "owner",
      "outputs": [
        {
          "internalType": "address",
          "name": "",
          "type": "address"
        }
      ],
      "stateMutability": "view",
      "type": "function"
    },
    {
      "inputs": [
        {
          "internalType": "bytes32",
          "name": "requestId",
          "type": "bytes32"
        },
        {
          "internalType": "uint256",
          "name": "randomness",
          "type": "uint256"
        }
      ],
      "name": "rawFulfillRandomness",
      "outputs": [],
      "stateMutability": "nonpayable",
      "type": "function"
    },
    {
      "inputs": [],
      "name": "renounceOwnership",
      "outputs": [],
      "stateMutability": "nonpayable",
      "type": "function"
    },
    {
      "inputs": [
        {
          "internalType": "address",
          "name": "swapper",
          "type": "address"
        },
        {
          "internalType": "address",
          "name": "tokenIn",
          "type": "address"
        },
        {
          "internalType": "address",
          "name": "tokenOut",
          "type": "address"
        },
        {
          "internalType": "uint256",
          "name": "amountIn",
          "type": "uint256"
        }
      ],
      "name": "swap",
      "outputs": [
        {
          "internalType": "uint256",
          "name": "amountOut",
          "type": "uint256"
        }
      ],
      "stateMutability": "nonpayable",
      "type": "function"
    },
    {
      "inputs": [],
      "name": "totalSupply",
      "outputs": [
        {
          "internalType": "uint256",
          "name": "",
          "type": "uint256"
        }
      ],
      "stateMutability": "view",
      "type": "function"
    },
    {
      "inputs": [
        {
          "internalType": "address",
          "name": "newOwner",
          "type": "address"
        }
      ],
      "name": "transferOwnership",
      "outputs": [],
      "stateMutability": "nonpayable",
      "type": "function"
    },
    {
      "inputs": [],
      "name": "withdrawCash",
      "outputs": [],
      "stateMutability": "nonpayable",
      "type": "function"
    },
    {
      "inputs": [
        {
          "internalType": "uint256",
          "name": "amount",
          "type": "uint256"
        }
      ],
      "name": "withdrawLink",
      "outputs": [],
      "stateMutability": "nonpayable",
      "type": "function"
    }
  ],
  "bytecode": "0x60c06040523480156200001157600080fd5b5060405162002022380380620020228339818101604052810190620000379190620002f7565b738c7382f9d8f56b33781fe506e897a4f1e2d1725573326c977e6efc84e512bb9c30f76e30c160ed06fb8173ffffffffffffffffffffffffffffffffffffffff1660a08173ffffffffffffffffffffffffffffffffffffffff16815250508073ffffffffffffffffffffffffffffffffffffffff1660808173ffffffffffffffffffffffffffffffffffffffff16815250505050620000eb620000df620001bf60201b60201c565b620001c760201b60201c565b80600460006101000a81548173ffffffffffffffffffffffffffffffffffffffff021916908373ffffffffffffffffffffffffffffffffffffffff1602179055507f6e75b569a01ef56d18cab6a8e71e6600d6ce853834d4a5748b720d06f878b3a460001b600281905550655af3107a40006003819055507312162c3e810393dec01362abf156d7ecf6159528600560006101000a81548173ffffffffffffffffffffffffffffffffffffffff021916908373ffffffffffffffffffffffffffffffffffffffff1602179055505062000329565b600033905090565b6000600160009054906101000a900473ffffffffffffffffffffffffffffffffffffffff16905081600160006101000a81548173ffffffffffffffffffffffffffffffffffffffff021916908373ffffffffffffffffffffffffffffffffffffffff1602179055508173ffffffffffffffffffffffffffffffffffffffff168173ffffffffffffffffffffffffffffffffffffffff167f8be0079c531659141344cd1fd0a4f28419497f9722a3daafe3b4186f6b6457e060405160405180910390a35050565b600080fd5b600073ffffffffffffffffffffffffffffffffffffffff82169050919050565b6000620002bf8262000292565b9050919050565b620002d181620002b2565b8114620002dd57600080fd5b50565b600081519050620002f181620002c6565b92915050565b60006020828403121562000310576200030f6200028d565b5b60006200032084828501620002e0565b91505092915050565b60805160a051611cb76200036b600039600081816106760152610ee30152600081816104c10152818161086b01528181610a160152610ea70152611cb76000f3fe6080604052600436106100c25760003560e01c806394985ddd1161007f578063ddc5899111610059578063ddc5899114610230578063f2fde38b1461025b578063f5d34f2314610284578063fb9cc957146102b4576100c2565b806394985ddd1461019f578063a9678a18146101c8578063b377f8ae14610205576100c2565b806318160ddd146100c757806352fa8856146100f2578063715018a61461011d5780637a8042bd14610134578063884fa9a51461015d5780638da5cb5b14610174575b600080fd5b3480156100d357600080fd5b506100dc6102f3565b6040516100e991906111e5565b60405180910390f35b3480156100fe57600080fd5b506101076102fb565b60405161011491906111e5565b60405180910390f35b34801561012957600080fd5b506101326103af565b005b34801561014057600080fd5b5061015b60048036038101906101569190611231565b610437565b005b34801561016957600080fd5b50610172610571565b005b34801561018057600080fd5b5061018961064a565b604051610196919061129f565b60405180910390f35b3480156101ab57600080fd5b506101c660048036038101906101c191906112f0565b610674565b005b3480156101d457600080fd5b506101ef60048036038101906101ea919061135c565b610710565b6040516101fc91906111e5565b60405180910390f35b34801561021157600080fd5b5061021a610841565b604051610227919061129f565b60405180910390f35b34801561023c57600080fd5b50610245610867565b60405161025291906111e5565b60405180910390f35b34801561026757600080fd5b50610282600480360381019061027d91906113c3565b610917565b005b61029e60048036038101906102999190611448565b610a0f565b6040516102ab9190611484565b60405180910390f35b3480156102c057600080fd5b506102db60048036038101906102d6919061149f565b610c70565b6040516102ea939291906114db565b60405180910390f35b600047905090565b60006103e8600560009054906101000a900473ffffffffffffffffffffffffffffffffffffffff1673ffffffffffffffffffffffffffffffffffffffff166350d25bcd6040518163ffffffff1660e01b815260040160206040518083038186803b15801561036857600080fd5b505afa15801561037c573d6000803e3d6000fd5b505050506040513d601f19601f820116820180604052508101906103a09190611548565b6103aa91906115d3565b905090565b6103b7610cc7565b73ffffffffffffffffffffffffffffffffffffffff166103d561064a565b73ffffffffffffffffffffffffffffffffffffffff161461042b576040517f08c379a00000000000000000000000000000000000000000000000000000000081526004016104229061169a565b60405180910390fd5b6104356000610ccf565b565b61043f610cc7565b73ffffffffffffffffffffffffffffffffffffffff1661045d61064a565b73ffffffffffffffffffffffffffffffffffffffff16146104b3576040517f08c379a00000000000000000000000000000000000000000000000000000000081526004016104aa9061169a565b60405180910390fd5b60006104bd61064a565b90507f000000000000000000000000000000000000000000000000000000000000000073ffffffffffffffffffffffffffffffffffffffff1663a9059cbb82846040518363ffffffff1660e01b815260040161051a9291906116ba565b602060405180830381600087803b15801561053457600080fd5b505af1158015610548573d6000803e3d6000fd5b505050506040513d601f19601f8201168201806040525081019061056c919061171b565b505050565b610579610cc7565b73ffffffffffffffffffffffffffffffffffffffff1661059761064a565b73ffffffffffffffffffffffffffffffffffffffff16146105ed576040517f08c379a00000000000000000000000000000000000000000000000000000000081526004016105e49061169a565b60405180910390fd5b60006105f761064a565b90508073ffffffffffffffffffffffffffffffffffffffff166108fc61061b6102f3565b9081150290604051600060405180830381858888f19350505050158015610646573d6000803e3d6000fd5b5050565b6000600160009054906101000a900473ffffffffffffffffffffffffffffffffffffffff16905090565b7f000000000000000000000000000000000000000000000000000000000000000073ffffffffffffffffffffffffffffffffffffffff163373ffffffffffffffffffffffffffffffffffffffff1614610702576040517f08c379a00000000000000000000000000000000000000000000000000000000081526004016106f990611794565b60405180910390fd5b61070c8282610d95565b5050565b60008373ffffffffffffffffffffffffffffffffffffffff1663095ea7b386846040518363ffffffff1660e01b815260040161074d9291906116ba565b602060405180830381600087803b15801561076757600080fd5b505af115801561077b573d6000803e3d6000fd5b505050506040513d601f19601f8201168201806040525081019061079f919061171b565b6107a857600080fd5b8473ffffffffffffffffffffffffffffffffffffffff1663ceb920128585856040518463ffffffff1660e01b81526004016107e5939291906117b4565b602060405180830381600087803b1580156107ff57600080fd5b505af1158015610813573d6000803e3d6000fd5b505050506040513d601f19601f820116820180604052508101906108379190611800565b9050949350505050565b600460009054906101000a900473ffffffffffffffffffffffffffffffffffffffff1681565b60007f000000000000000000000000000000000000000000000000000000000000000073ffffffffffffffffffffffffffffffffffffffff166370a08231306040518263ffffffff1660e01b81526004016108c2919061129f565b60206040518083038186803b1580156108da57600080fd5b505afa1580156108ee573d6000803e3d6000fd5b505050506040513d601f19601f820116820180604052508101906109129190611800565b905090565b61091f610cc7565b73ffffffffffffffffffffffffffffffffffffffff1661093d61064a565b73ffffffffffffffffffffffffffffffffffffffff1614610993576040517f08c379a000000000000000000000000000000000000000000000000000000000815260040161098a9061169a565b60405180910390fd5b600073ffffffffffffffffffffffffffffffffffffffff168173ffffffffffffffffffffffffffffffffffffffff161415610a03576040517f08c379a00000000000000000000000000000000000000000000000000000000081526004016109fa9061189f565b60405180910390fd5b610a0c81610ccf565b50565b60006003547f000000000000000000000000000000000000000000000000000000000000000073ffffffffffffffffffffffffffffffffffffffff166370a08231306040518263ffffffff1660e01b8152600401610a6d919061129f565b60206040518083038186803b158015610a8557600080fd5b505afa158015610a99573d6000803e3d6000fd5b505050506040513d601f19601f82011682018060405250810190610abd9190611800565b1015610afe576040517f08c379a0000000000000000000000000000000000000000000000000000000008152600401610af59061190b565b60405180910390fd5b610b066102fb565b341015610b48576040517f08c379a0000000000000000000000000000000000000000000000000000000008152600401610b3f90611977565b60405180910390fd5b610b56600254600354610ea3565b905060405180606001604052803373ffffffffffffffffffffffffffffffffffffffff168152602001837bffffffffffffffffffffffffffffffffffffffffffffffffffffffff1916815260200160008152506006600083815260200190815260200160002060008201518160000160006101000a81548173ffffffffffffffffffffffffffffffffffffffff021916908373ffffffffffffffffffffffffffffffffffffffff16021790555060208201518160000160146101000a81548163ffffffff021916908360e01c0217905550604082015181600101559050507f6f2c84d547103c34c868d8ad161cf5c513d18a7d50d65e15d16be17707f461ba81604051610c639190611484565b60405180910390a1919050565b60066020528060005260406000206000915090508060000160009054906101000a900473ffffffffffffffffffffffffffffffffffffffff16908060000160149054906101000a900460e01b908060010154905083565b600033905090565b6000600160009054906101000a900473ffffffffffffffffffffffffffffffffffffffff16905081600160006101000a81548173ffffffffffffffffffffffffffffffffffffffff021916908373ffffffffffffffffffffffffffffffffffffffff1602179055508173ffffffffffffffffffffffffffffffffffffffff168173ffffffffffffffffffffffffffffffffffffffff167f8be0079c531659141344cd1fd0a4f28419497f9722a3daafe3b4186f6b6457e060405160405180910390a35050565b8060066000848152602001908152602001600020600101819055506000600660008481526020019081526020016000206040518060600160405290816000820160009054906101000a900473ffffffffffffffffffffffffffffffffffffffff1673ffffffffffffffffffffffffffffffffffffffff1673ffffffffffffffffffffffffffffffffffffffff1681526020016000820160149054906101000a900460e01b7bffffffffffffffffffffffffffffffffffffffffffffffffffffffff19167bffffffffffffffffffffffffffffffffffffffffffffffffffffffff191681526020016001820154815250509050610e9e816000015182602001518360400151611002565b505050565b60007f000000000000000000000000000000000000000000000000000000000000000073ffffffffffffffffffffffffffffffffffffffff16634000aea07f000000000000000000000000000000000000000000000000000000000000000084866000604051602001610f17929190611997565b6040516020818303038152906040526040518463ffffffff1660e01b8152600401610f4493929190611a59565b602060405180830381600087803b158015610f5e57600080fd5b505af1158015610f72573d6000803e3d6000fd5b505050506040513d601f19601f82011682018060405250810190610f96919061171b565b506000610fb8846000306000808981526020019081526020016000205461115d565b9050600160008086815260200190815260200160002054610fd99190611a97565b60008086815260200190815260200160002081905550610ff98482611199565b91505092915050565b6000808473ffffffffffffffffffffffffffffffffffffffff16848460405160240161102e91906111e5565b604051602081830303815290604052907bffffffffffffffffffffffffffffffffffffffffffffffffffffffff19166020820180517bffffffffffffffffffffffffffffffffffffffffffffffffffffffff83818316178352505050506040516110989190611b29565b6000604051808303816000865af19150503d80600081146110d5576040519150601f19603f3d011682016040523d82523d6000602084013e6110da565b606091505b50915091508161111f576040517f08c379a000000000000000000000000000000000000000000000000000000000815260040161111690611b8c565b60405180910390fd5b7f93864668e00bfeb0cafee67ab7145a622ae39e8045304432e9a0bfb97cc04d468160405161114e9190611bac565b60405180910390a15050505050565b6000848484846040516020016111769493929190611bce565b6040516020818303038152906040528051906020012060001c9050949350505050565b600082826040516020016111ae929190611c55565b60405160208183030381529060405280519060200120905092915050565b6000819050919050565b6111df816111cc565b82525050565b60006020820190506111fa60008301846111d6565b92915050565b600080fd5b61120e816111cc565b811461121957600080fd5b50565b60008135905061122b81611205565b92915050565b60006020828403121561124757611246611200565b5b60006112558482850161121c565b91505092915050565b600073ffffffffffffffffffffffffffffffffffffffff82169050919050565b60006112898261125e565b9050919050565b6112998161127e565b82525050565b60006020820190506112b46000830184611290565b92915050565b6000819050919050565b6112cd816112ba565b81146112d857600080fd5b50565b6000813590506112ea816112c4565b92915050565b6000806040838503121561130757611306611200565b5b6000611315858286016112db565b92505060206113268582860161121c565b9150509250929050565b6113398161127e565b811461134457600080fd5b50565b60008135905061135681611330565b92915050565b6000806000806080858703121561137657611375611200565b5b600061138487828801611347565b945050602061139587828801611347565b93505060406113a687828801611347565b92505060606113b78782880161121c565b91505092959194509250565b6000602082840312156113d9576113d8611200565b5b60006113e784828501611347565b91505092915050565b60007fffffffff0000000000000000000000000000000000000000000000000000000082169050919050565b611425816113f0565b811461143057600080fd5b50565b6000813590506114428161141c565b92915050565b60006020828403121561145e5761145d611200565b5b600061146c84828501611433565b91505092915050565b61147e816112ba565b82525050565b60006020820190506114996000830184611475565b92915050565b6000602082840312156114b5576114b4611200565b5b60006114c3848285016112db565b91505092915050565b6114d5816113f0565b82525050565b60006060820190506114f06000830186611290565b6114fd60208301856114cc565b61150a60408301846111d6565b949350505050565b6000819050919050565b61152581611512565b811461153057600080fd5b50565b6000815190506115428161151c565b92915050565b60006020828403121561155e5761155d611200565b5b600061156c84828501611533565b91505092915050565b7f4e487b7100000000000000000000000000000000000000000000000000000000600052601260045260246000fd5b7f4e487b7100000000000000000000000000000000000000000000000000000000600052601160045260246000fd5b60006115de82611512565b91506115e983611512565b9250826115f9576115f8611575565b5b600160000383147f800000000000000000000000000000000000000000000000000000000000000083141615611632576116316115a4565b5b828205905092915050565b600082825260208201905092915050565b7f4f776e61626c653a2063616c6c6572206973206e6f7420746865206f776e6572600082015250565b600061168460208361163d565b915061168f8261164e565b602082019050919050565b600060208201905081810360008301526116b381611677565b9050919050565b60006040820190506116cf6000830185611290565b6116dc60208301846111d6565b9392505050565b60008115159050919050565b6116f8816116e3565b811461170357600080fd5b50565b600081519050611715816116ef565b92915050565b60006020828403121561173157611730611200565b5b600061173f84828501611706565b91505092915050565b7f4f6e6c7920565246436f6f7264696e61746f722063616e2066756c66696c6c00600082015250565b600061177e601f8361163d565b915061178982611748565b602082019050919050565b600060208201905081810360008301526117ad81611771565b9050919050565b60006060820190506117c96000830186611290565b6117d66020830185611290565b6117e360408301846111d6565b949350505050565b6000815190506117fa81611205565b92915050565b60006020828403121561181657611815611200565b5b6000611824848285016117eb565b91505092915050565b7f4f776e61626c653a206e6577206f776e657220697320746865207a65726f206160008201527f6464726573730000000000000000000000000000000000000000000000000000602082015250565b600061188960268361163d565b91506118948261182d565b604082019050919050565b600060208201905081810360008301526118b88161187c565b9050919050565b7f4e6f7420656e6f756768204c494e4b0000000000000000000000000000000000600082015250565b60006118f5600f8361163d565b9150611900826118bf565b602082019050919050565b60006020820190508181036000830152611924816118e8565b9050919050565b7f4e6f7420656e6f756768204d4154494300000000000000000000000000000000600082015250565b600061196160108361163d565b915061196c8261192b565b602082019050919050565b6000602082019050818103600083015261199081611954565b9050919050565b60006040820190506119ac6000830185611475565b6119b960208301846111d6565b9392505050565b600081519050919050565b600082825260208201905092915050565b60005b838110156119fa5780820151818401526020810190506119df565b83811115611a09576000848401525b50505050565b6000601f19601f8301169050919050565b6000611a2b826119c0565b611a3581856119cb565b9350611a458185602086016119dc565b611a4e81611a0f565b840191505092915050565b6000606082019050611a6e6000830186611290565b611a7b60208301856111d6565b8181036040830152611a8d8184611a20565b9050949350505050565b6000611aa2826111cc565b9150611aad836111cc565b9250827fffffffffffffffffffffffffffffffffffffffffffffffffffffffffffffffff03821115611ae257611ae16115a4565b5b828201905092915050565b600081905092915050565b6000611b03826119c0565b611b0d8185611aed565b9350611b1d8185602086016119dc565b80840191505092915050565b6000611b358284611af8565b915081905092915050565b7f436f756c64204e6f7420526573706f6e73652052616e646f6d6e657373000000600082015250565b6000611b76601d8361163d565b9150611b8182611b40565b602082019050919050565b60006020820190508181036000830152611ba581611b69565b9050919050565b60006020820190508181036000830152611bc68184611a20565b905092915050565b6000608082019050611be36000830187611475565b611bf060208301866111d6565b611bfd6040830185611290565b611c0a60608301846111d6565b95945050505050565b6000819050919050565b611c2e611c29826112ba565b611c13565b82525050565b6000819050919050565b611c4f611c4a826111cc565b611c34565b82525050565b6000611c618285611c1d565b602082019150611c718284611c3e565b602082019150819050939250505056fea2646970667358221220dce0db90c7794c38c90bab22fa60612efbddbd2b771ab4aeb67d75bd5e0b94cf64736f6c63430008090033",
  "linkReferences": {},
  "deployedLinkReferences": {}
}