{
  "_format": "hh-sol-artifact-1",
  "contractName": "Register",
  "sourceName": "contracts/Register.sol",
  "abi": [
    {
      "inputs": [
        {
          "internalType": "address",
          "name": "_DAOAddress",
          "type": "address"
        },
        {
          "internalType": "uint256",
          "name": "_puerNameFee",
          "type": "uint256"
        }
      ],
      "stateMutability": "nonpayable",
      "type": "constructor"
    },
    {
      "anonymous": false,
      "inputs": [
        {
          "indexed": true,
          "internalType": "address",
          "name": "previousOwner",
          "type": "address"
        },
        {
          "indexed": true,
          "internalType": "address",
          "name": "newOwner",
          "type": "address"
        }
      ],
      "name": "OwnershipTransferred",
      "type": "event"
    },
    {
      "anonymous": false,
      "inputs": [
        {
          "indexed": true,
          "internalType": "address",
          "name": "userAddress",
          "type": "address"
        },
        {
          "indexed": false,
          "internalType": "string",
          "name": "info",
          "type": "string"
        }
      ],
      "name": "SetInfo",
      "type": "event"
    },
    {
      "anonymous": false,
      "inputs": [
        {
          "indexed": true,
          "internalType": "address",
          "name": "userAddress",
          "type": "address"
        },
        {
          "indexed": false,
          "internalType": "string",
          "name": "username",
          "type": "string"
        }
      ],
      "name": "SignIn",
      "type": "event"
    },
    {
      "inputs": [],
      "name": "DAOContract",
      "outputs": [
        {
          "internalType": "address",
          "name": "",
          "type": "address"
        }
      ],
      "stateMutability": "view",
      "type": "function"
    },
    {
      "inputs": [
        {
          "internalType": "address",
          "name": "userAddr",
          "type": "address"
        }
      ],
      "name": "isPure",
      "outputs": [
        {
          "internalType": "bool",
          "name": "",
          "type": "bool"
        }
      ],
      "stateMutability": "view",
      "type": "function"
    },
    {
      "inputs": [
        {
          "internalType": "address",
          "name": "userAddr",
          "type": "address"
        }
      ],
      "name": "isVIP",
      "outputs": [
        {
          "internalType": "bool",
          "name": "",
          "type": "bool"
        }
      ],
      "stateMutability": "view",
      "type": "function"
    },
    {
      "inputs": [
        {
          "internalType": "address",
          "name": "contractAddr",
          "type": "address"
        }
      ],
      "name": "newDAOContract",
      "outputs": [],
      "stateMutability": "nonpayable",
      "type": "function"
    },
    {
      "inputs": [],
      "name": "owner",
      "outputs": [
        {
          "internalType": "address",
          "name": "",
          "type": "address"
        }
      ],
      "stateMutability": "view",
      "type": "function"
    },
    {
      "inputs": [],
      "name": "puerNameFee",
      "outputs": [
        {
          "internalType": "uint256",
          "name": "",
          "type": "uint256"
        }
      ],
      "stateMutability": "view",
      "type": "function"
    },
    {
      "inputs": [
        {
          "internalType": "address",
          "name": "userAddr",
          "type": "address"
        }
      ],
      "name": "registered",
      "outputs": [
        {
          "internalType": "bool",
          "name": "",
          "type": "bool"
        }
      ],
      "stateMutability": "view",
      "type": "function"
    },
    {
      "inputs": [],
      "name": "renounceOwnership",
      "outputs": [],
      "stateMutability": "nonpayable",
      "type": "function"
    },
    {
      "inputs": [
        {
          "internalType": "string",
          "name": "info",
          "type": "string"
        }
      ],
      "name": "setInfo",
      "outputs": [],
      "stateMutability": "nonpayable",
      "type": "function"
    },
    {
      "inputs": [
        {
          "internalType": "uint256",
          "name": "_fee",
          "type": "uint256"
        }
      ],
      "name": "setPureNameFee",
      "outputs": [],
      "stateMutability": "nonpayable",
      "type": "function"
    },
    {
      "inputs": [
        {
          "internalType": "string",
          "name": "username",
          "type": "string"
        },
        {
          "internalType": "address",
          "name": "presenter",
          "type": "address"
        }
      ],
      "name": "signIn",
      "outputs": [],
      "stateMutability": "payable",
      "type": "function"
    },
    {
      "inputs": [
        {
          "internalType": "address",
          "name": "newOwner",
          "type": "address"
        }
      ],
      "name": "transferOwnership",
      "outputs": [],
      "stateMutability": "nonpayable",
      "type": "function"
    },
    {
      "inputs": [
        {
          "internalType": "address",
          "name": "userAddr",
          "type": "address"
        }
      ],
      "name": "upgradeToVIP",
      "outputs": [],
      "stateMutability": "nonpayable",
      "type": "function"
    },
    {
      "inputs": [
        {
          "internalType": "string",
          "name": "username",
          "type": "string"
        }
      ],
      "name": "userAddress",
      "outputs": [
        {
          "internalType": "address",
          "name": "userAddr",
          "type": "address"
        }
      ],
      "stateMutability": "view",
      "type": "function"
    },
    {
      "inputs": [
        {
          "internalType": "address",
          "name": "userAddr",
          "type": "address"
        }
      ],
      "name": "userProfile",
      "outputs": [
        {
          "internalType": "string",
          "name": "username",
          "type": "string"
        },
        {
          "internalType": "string",
          "name": "info",
          "type": "string"
        }
      ],
      "stateMutability": "view",
      "type": "function"
    },
    {
      "inputs": [
        {
          "internalType": "address",
          "name": "receiverAddress",
          "type": "address"
        }
      ],
      "name": "withdraw",
      "outputs": [],
      "stateMutability": "nonpayable",
      "type": "function"
    }
  ],
  "bytecode": "0x60806040523480156200001157600080fd5b506040516200236938038062002369833981810160405281019062000037919062000387565b620000576200004b6200008160201b60201c565b6200008960201b60201c565b62000068826200014d60201b60201c565b62000079816200022060201b60201c565b505062000451565b600033905090565b60008060009054906101000a900473ffffffffffffffffffffffffffffffffffffffff169050816000806101000a81548173ffffffffffffffffffffffffffffffffffffffff021916908373ffffffffffffffffffffffffffffffffffffffff1602179055508173ffffffffffffffffffffffffffffffffffffffff168173ffffffffffffffffffffffffffffffffffffffff167f8be0079c531659141344cd1fd0a4f28419497f9722a3daafe3b4186f6b6457e060405160405180910390a35050565b6200015d6200008160201b60201c565b73ffffffffffffffffffffffffffffffffffffffff1662000183620002b960201b60201c565b73ffffffffffffffffffffffffffffffffffffffff1614620001dc576040517f08c379a0000000000000000000000000000000000000000000000000000000008152600401620001d3906200042f565b60405180910390fd5b80600260006101000a81548173ffffffffffffffffffffffffffffffffffffffff021916908373ffffffffffffffffffffffffffffffffffffffff16021790555050565b620002306200008160201b60201c565b73ffffffffffffffffffffffffffffffffffffffff1662000256620002b960201b60201c565b73ffffffffffffffffffffffffffffffffffffffff1614620002af576040517f08c379a0000000000000000000000000000000000000000000000000000000008152600401620002a6906200042f565b60405180910390fd5b8060018190555050565b60008060009054906101000a900473ffffffffffffffffffffffffffffffffffffffff16905090565b600080fd5b600073ffffffffffffffffffffffffffffffffffffffff82169050919050565b60006200031482620002e7565b9050919050565b620003268162000307565b81146200033257600080fd5b50565b60008151905062000346816200031b565b92915050565b6000819050919050565b62000361816200034c565b81146200036d57600080fd5b50565b600081519050620003818162000356565b92915050565b60008060408385031215620003a157620003a0620002e2565b5b6000620003b18582860162000335565b9250506020620003c48582860162000370565b9150509250929050565b600082825260208201905092915050565b7f4f776e61626c653a2063616c6c6572206973206e6f7420746865206f776e6572600082015250565b600062000417602083620003ce565b91506200042482620003df565b602082019050919050565b600060208201905081810360008301526200044a8162000408565b9050919050565b611f0880620004616000396000f3fe6080604052600436106100f35760003560e01c8063b2dd5c071161008a578063cad51e1811610059578063cad51e1814610329578063e1242cb714610352578063f2fde38b1461036e578063f4201c3c14610397576100f3565b8063b2dd5c071461025b578063b377f8ae14610298578063b7110fb6146102c3578063be321f4214610300576100f3565b80635c9566dc116100c65780635c9566dc146101b3578063715018a6146101f05780638da5cb5b14610207578063937f6e7714610232576100f3565b80631c8e8962146100f8578063392c83851461013657806351cff8d914610161578063563606061461018a575b600080fd5b34801561010457600080fd5b5061011f600480360381019061011a919061156d565b6103d4565b60405161012d929190611633565b60405180910390f35b34801561014257600080fd5b5061014b6105c4565b6040516101589190611683565b60405180910390f35b34801561016d57600080fd5b506101886004803603810190610183919061156d565b6105ca565b005b34801561019657600080fd5b506101b160048036038101906101ac919061156d565b610696565b005b3480156101bf57600080fd5b506101da60048036038101906101d591906117d3565b610756565b6040516101e7919061182b565b60405180910390f35b3480156101fc57600080fd5b5061020561084b565b005b34801561021357600080fd5b5061021c6108d3565b604051610229919061182b565b60405180910390f35b34801561023e57600080fd5b50610259600480360381019061025491906117d3565b6108fc565b005b34801561026757600080fd5b50610282600480360381019061027d919061156d565b6109f9565b60405161028f9190611861565b60405180910390f35b3480156102a457600080fd5b506102ad610a54565b6040516102ba919061182b565b60405180910390f35b3480156102cf57600080fd5b506102ea60048036038101906102e5919061156d565b610a7a565b6040516102f79190611861565b60405180910390f35b34801561030c57600080fd5b50610327600480360381019061032291906118a8565b610b9e565b005b34801561033557600080fd5b50610350600480360381019061034b919061156d565b610c24565b005b61036c600480360381019061036791906118d5565b610d46565b005b34801561037a57600080fd5b506103956004803603810190610390919061156d565b61122a565b005b3480156103a357600080fd5b506103be60048036038101906103b9919061156d565b611322565b6040516103cb9190611861565b60405180910390f35b6060806103e0836109f9565b61041f576040517f08c379a00000000000000000000000000000000000000000000000000000000081526004016104169061197d565b60405180910390fd5b600360008473ffffffffffffffffffffffffffffffffffffffff1673ffffffffffffffffffffffffffffffffffffffff168152602001908152602001600020600001600360008573ffffffffffffffffffffffffffffffffffffffff1673ffffffffffffffffffffffffffffffffffffffff1681526020019081526020016000206001018180546104af906119cc565b80601f01602080910402602001604051908101604052809291908181526020018280546104db906119cc565b80156105285780601f106104fd57610100808354040283529160200191610528565b820191906000526020600020905b81548152906001019060200180831161050b57829003601f168201915b5050505050915080805461053b906119cc565b80601f0160208091040260200160405190810160405280929190818152602001828054610567906119cc565b80156105b45780601f10610589576101008083540402835291602001916105b4565b820191906000526020600020905b81548152906001019060200180831161059757829003601f168201915b5050505050905091509150915091565b60015481565b6105d261138c565b73ffffffffffffffffffffffffffffffffffffffff166105f06108d3565b73ffffffffffffffffffffffffffffffffffffffff1614610646576040517f08c379a000000000000000000000000000000000000000000000000000000000815260040161063d90611a4a565b60405180910390fd5b60008190508073ffffffffffffffffffffffffffffffffffffffff166108fc479081150290604051600060405180830381858888f19350505050158015610691573d6000803e3d6000fd5b505050565b61069e61138c565b73ffffffffffffffffffffffffffffffffffffffff166106bc6108d3565b73ffffffffffffffffffffffffffffffffffffffff1614610712576040517f08c379a000000000000000000000000000000000000000000000000000000000815260040161070990611a4a565b60405180910390fd5b80600260006101000a81548173ffffffffffffffffffffffffffffffffffffffff021916908373ffffffffffffffffffffffffffffffffffffffff16021790555050565b60008073ffffffffffffffffffffffffffffffffffffffff1660048360405161077f9190611aa6565b908152602001604051809103902060009054906101000a900473ffffffffffffffffffffffffffffffffffffffff1673ffffffffffffffffffffffffffffffffffffffff161415610805576040517f08c379a00000000000000000000000000000000000000000000000000000000081526004016107fc9061197d565b60405180910390fd5b6004826040516108159190611aa6565b908152602001604051809103902060009054906101000a900473ffffffffffffffffffffffffffffffffffffffff169050919050565b61085361138c565b73ffffffffffffffffffffffffffffffffffffffff166108716108d3565b73ffffffffffffffffffffffffffffffffffffffff16146108c7576040517f08c379a00000000000000000000000000000000000000000000000000000000081526004016108be90611a4a565b60405180910390fd5b6108d16000611394565b565b60008060009054906101000a900473ffffffffffffffffffffffffffffffffffffffff16905090565b600061090661138c565b9050610911816109f9565b610950576040517f08c379a000000000000000000000000000000000000000000000000000000000815260040161094790611b09565b60405180910390fd5b81600360008373ffffffffffffffffffffffffffffffffffffffff1673ffffffffffffffffffffffffffffffffffffffff16815260200190815260200160002060010190805190602001906109a6929190611458565b508073ffffffffffffffffffffffffffffffffffffffff167fed2dc10fbb70c5dca9665145aee8b5f838c00bd7fe21abfe08513209a53bfd04836040516109ed9190611b29565b60405180910390a25050565b600080600360008473ffffffffffffffffffffffffffffffffffffffff1673ffffffffffffffffffffffffffffffffffffffff1681526020019081526020016000206000018054610a49906119cc565b905014159050919050565b600260009054906101000a900473ffffffffffffffffffffffffffffffffffffffff1681565b6000610a85826109f9565b8015610b9757507f5f000000000000000000000000000000000000000000000000000000000000007effffffffffffffffffffffffffffffffffffffffffffffffffffffffffffff1916600360008473ffffffffffffffffffffffffffffffffffffffff1673ffffffffffffffffffffffffffffffffffffffff16815260200190815260200160002060000160008154610b1e906119cc565b8110610b2d57610b2c611b4b565b5b815460011615610b4c5790600052602060002090602091828204019190065b9054901a7f0100000000000000000000000000000000000000000000000000000000000000027effffffffffffffffffffffffffffffffffffffffffffffffffffffffffffff191614155b9050919050565b610ba661138c565b73ffffffffffffffffffffffffffffffffffffffff16610bc46108d3565b73ffffffffffffffffffffffffffffffffffffffff1614610c1a576040517f08c379a0000000000000000000000000000000000000000000000000000000008152600401610c1190611a4a565b60405180910390fd5b8060018190555050565b610c2c61138c565b73ffffffffffffffffffffffffffffffffffffffff16610c4a6108d3565b73ffffffffffffffffffffffffffffffffffffffff1614610ca0576040517f08c379a0000000000000000000000000000000000000000000000000000000008152600401610c9790611a4a565b60405180910390fd5b610ca9816109f9565b610ce8576040517f08c379a0000000000000000000000000000000000000000000000000000000008152600401610cdf9061197d565b60405180910390fd5b6001600360008373ffffffffffffffffffffffffffffffffffffffff1673ffffffffffffffffffffffffffffffffffffffff16815260200190815260200160002060020160006101000a81548160ff02191690831515021790555050565b6000610d5061138c565b9050610d5b816109f9565b15610d9b576040517f08c379a0000000000000000000000000000000000000000000000000000000008152600401610d9290611bec565b60405180910390fd5b6000835111610ddf576040517f08c379a0000000000000000000000000000000000000000000000000000000008152600401610dd690611c58565b60405180910390fd5b600073ffffffffffffffffffffffffffffffffffffffff16600484604051610e079190611aa6565b908152602001604051809103902060009054906101000a900473ffffffffffffffffffffffffffffffffffffffff1673ffffffffffffffffffffffffffffffffffffffff1614610e8c576040517f08c379a0000000000000000000000000000000000000000000000000000000008152600401610e8390611cea565b60405180910390fd5b600073ffffffffffffffffffffffffffffffffffffffff168273ffffffffffffffffffffffffffffffffffffffff1614158015610ef557508073ffffffffffffffffffffffffffffffffffffffff168273ffffffffffffffffffffffffffffffffffffffff1614155b610f34576040517f08c379a0000000000000000000000000000000000000000000000000000000008152600401610f2b90611d56565b60405180910390fd5b7f5f000000000000000000000000000000000000000000000000000000000000007effffffffffffffffffffffffffffffffffffffffffffffffffffffffffffff191683600081518110610f8b57610f8a611b4b565b5b602001015160f81c60f81b7effffffffffffffffffffffffffffffffffffffffffffffffffffffffffffff19161461100357600154341015611002576040517f08c379a0000000000000000000000000000000000000000000000000000000008152600401610ff990611dc2565b60405180910390fd5b5b82600360008373ffffffffffffffffffffffffffffffffffffffff1673ffffffffffffffffffffffffffffffffffffffff1681526020019081526020016000206000019080519060200190611059929190611458565b508060048460405161106b9190611aa6565b908152602001604051809103902060006101000a81548173ffffffffffffffffffffffffffffffffffffffff021916908373ffffffffffffffffffffffffffffffffffffffff1602179055508073ffffffffffffffffffffffffffffffffffffffff167f0a2abf815300d275c4387b4e1f4e74e0cd938c5301ff1223061fdc158e12f04c846040516110fd9190611b29565b60405180910390a2600080600260009054906101000a900473ffffffffffffffffffffffffffffffffffffffff1673ffffffffffffffffffffffffffffffffffffffff1684604051602401611152919061182b565b6040516020818303038152906040527ff9afbb67000000000000000000000000000000000000000000000000000000007bffffffffffffffffffffffffffffffffffffffffffffffffffffffff19166020820180517bffffffffffffffffffffffffffffffffffffffffffffffffffffffff83818316178352505050506040516111dc9190611e29565b6000604051808303816000865af19150503d8060008114611219576040519150601f19603f3d011682016040523d82523d6000602084013e61121e565b606091505b50915091505050505050565b61123261138c565b73ffffffffffffffffffffffffffffffffffffffff166112506108d3565b73ffffffffffffffffffffffffffffffffffffffff16146112a6576040517f08c379a000000000000000000000000000000000000000000000000000000000815260040161129d90611a4a565b60405180910390fd5b600073ffffffffffffffffffffffffffffffffffffffff168173ffffffffffffffffffffffffffffffffffffffff161415611316576040517f08c379a000000000000000000000000000000000000000000000000000000000815260040161130d90611eb2565b60405180910390fd5b61131f81611394565b50565b600061132d826109f9565b80156113855750600360008373ffffffffffffffffffffffffffffffffffffffff1673ffffffffffffffffffffffffffffffffffffffff16815260200190815260200160002060020160009054906101000a900460ff165b9050919050565b600033905090565b60008060009054906101000a900473ffffffffffffffffffffffffffffffffffffffff169050816000806101000a81548173ffffffffffffffffffffffffffffffffffffffff021916908373ffffffffffffffffffffffffffffffffffffffff1602179055508173ffffffffffffffffffffffffffffffffffffffff168173ffffffffffffffffffffffffffffffffffffffff167f8be0079c531659141344cd1fd0a4f28419497f9722a3daafe3b4186f6b6457e060405160405180910390a35050565b828054611464906119cc565b90600052602060002090601f01602090048101928261148657600085556114cd565b82601f1061149f57805160ff19168380011785556114cd565b828001600101855582156114cd579182015b828111156114cc5782518255916020019190600101906114b1565b5b5090506114da91906114de565b5090565b5b808211156114f75760008160009055506001016114df565b5090565b6000604051905090565b600080fd5b600080fd5b600073ffffffffffffffffffffffffffffffffffffffff82169050919050565b600061153a8261150f565b9050919050565b61154a8161152f565b811461155557600080fd5b50565b60008135905061156781611541565b92915050565b60006020828403121561158357611582611505565b5b600061159184828501611558565b91505092915050565b600081519050919050565b600082825260208201905092915050565b60005b838110156115d45780820151818401526020810190506115b9565b838111156115e3576000848401525b50505050565b6000601f19601f8301169050919050565b60006116058261159a565b61160f81856115a5565b935061161f8185602086016115b6565b611628816115e9565b840191505092915050565b6000604082019050818103600083015261164d81856115fa565b9050818103602083015261166181846115fa565b90509392505050565b6000819050919050565b61167d8161166a565b82525050565b60006020820190506116986000830184611674565b92915050565b600080fd5b600080fd5b7f4e487b7100000000000000000000000000000000000000000000000000000000600052604160045260246000fd5b6116e0826115e9565b810181811067ffffffffffffffff821117156116ff576116fe6116a8565b5b80604052505050565b60006117126114fb565b905061171e82826116d7565b919050565b600067ffffffffffffffff82111561173e5761173d6116a8565b5b611747826115e9565b9050602081019050919050565b82818337600083830152505050565b600061177661177184611723565b611708565b905082815260208101848484011115611792576117916116a3565b5b61179d848285611754565b509392505050565b600082601f8301126117ba576117b961169e565b5b81356117ca848260208601611763565b91505092915050565b6000602082840312156117e9576117e8611505565b5b600082013567ffffffffffffffff8111156118075761180661150a565b5b611813848285016117a5565b91505092915050565b6118258161152f565b82525050565b6000602082019050611840600083018461181c565b92915050565b60008115159050919050565b61185b81611846565b82525050565b60006020820190506118766000830184611852565b92915050565b6118858161166a565b811461189057600080fd5b50565b6000813590506118a28161187c565b92915050565b6000602082840312156118be576118bd611505565b5b60006118cc84828501611893565b91505092915050565b600080604083850312156118ec576118eb611505565b5b600083013567ffffffffffffffff81111561190a5761190961150a565b5b611916858286016117a5565b925050602061192785828601611558565b9150509250929050565b7f6e6f207573657220627920746869732061646472657373000000000000000000600082015250565b60006119676017836115a5565b915061197282611931565b602082019050919050565b600060208201905081810360008301526119968161195a565b9050919050565b7f4e487b7100000000000000000000000000000000000000000000000000000000600052602260045260246000fd5b600060028204905060018216806119e457607f821691505b602082108114156119f8576119f761199d565b5b50919050565b7f4f776e61626c653a2063616c6c6572206973206e6f7420746865206f776e6572600082015250565b6000611a346020836115a5565b9150611a3f826119fe565b602082019050919050565b60006020820190508181036000830152611a6381611a27565b9050919050565b600081905092915050565b6000611a808261159a565b611a8a8185611a6a565b9350611a9a8185602086016115b6565b80840191505092915050565b6000611ab28284611a75565b915081905092915050565b7f796f75206861766520746f207369676e20696e20666972737400000000000000600082015250565b6000611af36019836115a5565b9150611afe82611abd565b602082019050919050565b60006020820190508181036000830152611b2281611ae6565b9050919050565b60006020820190508181036000830152611b4381846115fa565b905092915050565b7f4e487b7100000000000000000000000000000000000000000000000000000000600052603260045260246000fd5b7f74686973206164647265737320686173207369676e6564206120757365726e6160008201527f6d65206265666f72650000000000000000000000000000000000000000000000602082015250565b6000611bd66029836115a5565b9150611be182611b7a565b604082019050919050565b60006020820190508181036000830152611c0581611bc9565b9050919050565b7f656d70747920757365726e616d6520696e707574000000000000000000000000600082015250565b6000611c426014836115a5565b9150611c4d82611c0c565b602082019050919050565b60006020820190508181036000830152611c7181611c35565b9050919050565b7f7468697320757365726e616d6520686173206265656e2075736564206265666f60008201527f7265000000000000000000000000000000000000000000000000000000000000602082015250565b6000611cd46022836115a5565b9150611cdf82611c78565b604082019050919050565b60006020820190508181036000830152611d0381611cc7565b9050919050565b7f77726f6e672070726573656e746572206164647265737320656e746572656400600082015250565b6000611d40601f836115a5565b9150611d4b82611d0a565b602082019050919050565b60006020820190508181036000830152611d6f81611d33565b9050919050565b7f7468697320757365726e616d652069732050617961626c650000000000000000600082015250565b6000611dac6018836115a5565b9150611db782611d76565b602082019050919050565b60006020820190508181036000830152611ddb81611d9f565b9050919050565b600081519050919050565b600081905092915050565b6000611e0382611de2565b611e0d8185611ded565b9350611e1d8185602086016115b6565b80840191505092915050565b6000611e358284611df8565b915081905092915050565b7f4f776e61626c653a206e6577206f776e657220697320746865207a65726f206160008201527f6464726573730000000000000000000000000000000000000000000000000000602082015250565b6000611e9c6026836115a5565b9150611ea782611e40565b604082019050919050565b60006020820190508181036000830152611ecb81611e8f565b905091905056fea264697066735822122020e2fa47935b4d01422a594a1054e4fdc6f54055340c401c88cb577db916d58f64736f6c63430008090033",
  "linkReferences": {},
  "deployedLinkReferences": {}
}