{
  "_format": "hh-sol-artifact-1",
  "contractName": "Register",
  "sourceName": "contracts/Register.sol",
  "abi": [
    {
      "inputs": [
        {
          "internalType": "address",
          "name": "_DAOAddress",
          "type": "address"
        },
        {
          "internalType": "uint256",
          "name": "_puerNameFee",
          "type": "uint256"
        }
      ],
      "stateMutability": "nonpayable",
      "type": "constructor"
    },
    {
      "anonymous": false,
      "inputs": [
        {
          "indexed": true,
          "internalType": "address",
          "name": "previousOwner",
          "type": "address"
        },
        {
          "indexed": true,
          "internalType": "address",
          "name": "newOwner",
          "type": "address"
        }
      ],
      "name": "OwnershipTransferred",
      "type": "event"
    },
    {
      "anonymous": false,
      "inputs": [
        {
          "indexed": true,
          "internalType": "address",
          "name": "userAddress",
          "type": "address"
        },
        {
          "indexed": false,
          "internalType": "string",
          "name": "info",
          "type": "string"
        }
      ],
      "name": "SetInfo",
      "type": "event"
    },
    {
      "anonymous": false,
      "inputs": [
        {
          "indexed": true,
          "internalType": "address",
          "name": "userAddress",
          "type": "address"
        },
        {
          "indexed": false,
          "internalType": "string",
          "name": "username",
          "type": "string"
        }
      ],
      "name": "SignIn",
      "type": "event"
    },
    {
      "inputs": [],
      "name": "DAOContract",
      "outputs": [
        {
          "internalType": "address",
          "name": "",
          "type": "address"
        }
      ],
      "stateMutability": "view",
      "type": "function"
    },
    {
      "inputs": [
        {
          "internalType": "address",
          "name": "",
          "type": "address"
        }
      ],
      "name": "addrToUser",
      "outputs": [
        {
          "internalType": "string",
          "name": "username",
          "type": "string"
        },
        {
          "internalType": "string",
          "name": "info",
          "type": "string"
        },
        {
          "internalType": "bool",
          "name": "isVIP",
          "type": "bool"
        }
      ],
      "stateMutability": "view",
      "type": "function"
    },
    {
      "inputs": [
        {
          "internalType": "address",
          "name": "userAddr",
          "type": "address"
        }
      ],
      "name": "addressToProfile",
      "outputs": [
        {
          "internalType": "string",
          "name": "username",
          "type": "string"
        },
        {
          "internalType": "string",
          "name": "info",
          "type": "string"
        },
        {
          "internalType": "bool",
          "name": "VIPstatus",
          "type": "bool"
        }
      ],
      "stateMutability": "view",
      "type": "function"
    },
    {
      "inputs": [
        {
          "internalType": "address",
          "name": "userAddr",
          "type": "address"
        }
      ],
      "name": "addressToUsername",
      "outputs": [
        {
          "internalType": "string",
          "name": "username",
          "type": "string"
        }
      ],
      "stateMutability": "view",
      "type": "function"
    },
    {
      "inputs": [
        {
          "internalType": "address",
          "name": "userAddr",
          "type": "address"
        }
      ],
      "name": "isPure",
      "outputs": [
        {
          "internalType": "bool",
          "name": "",
          "type": "bool"
        }
      ],
      "stateMutability": "view",
      "type": "function"
    },
    {
      "inputs": [
        {
          "internalType": "address",
          "name": "userAddr",
          "type": "address"
        }
      ],
      "name": "isVIP",
      "outputs": [
        {
          "internalType": "bool",
          "name": "",
          "type": "bool"
        }
      ],
      "stateMutability": "view",
      "type": "function"
    },
    {
      "inputs": [
        {
          "internalType": "address",
          "name": "contractAddr",
          "type": "address"
        }
      ],
      "name": "newDAOContract",
      "outputs": [],
      "stateMutability": "nonpayable",
      "type": "function"
    },
    {
      "inputs": [],
      "name": "owner",
      "outputs": [
        {
          "internalType": "address",
          "name": "",
          "type": "address"
        }
      ],
      "stateMutability": "view",
      "type": "function"
    },
    {
      "inputs": [],
      "name": "puerNameFee",
      "outputs": [
        {
          "internalType": "uint256",
          "name": "",
          "type": "uint256"
        }
      ],
      "stateMutability": "view",
      "type": "function"
    },
    {
      "inputs": [
        {
          "internalType": "string",
          "name": "username",
          "type": "string"
        }
      ],
      "name": "registered",
      "outputs": [
        {
          "internalType": "bool",
          "name": "",
          "type": "bool"
        }
      ],
      "stateMutability": "view",
      "type": "function"
    },
    {
      "inputs": [
        {
          "internalType": "address",
          "name": "userAddr",
          "type": "address"
        }
      ],
      "name": "registered",
      "outputs": [
        {
          "internalType": "bool",
          "name": "",
          "type": "bool"
        }
      ],
      "stateMutability": "view",
      "type": "function"
    },
    {
      "inputs": [],
      "name": "renounceOwnership",
      "outputs": [],
      "stateMutability": "nonpayable",
      "type": "function"
    },
    {
      "inputs": [
        {
          "internalType": "string",
          "name": "info",
          "type": "string"
        }
      ],
      "name": "setInfo",
      "outputs": [],
      "stateMutability": "nonpayable",
      "type": "function"
    },
    {
      "inputs": [
        {
          "internalType": "uint256",
          "name": "_fee",
          "type": "uint256"
        }
      ],
      "name": "setPureNameFee",
      "outputs": [],
      "stateMutability": "nonpayable",
      "type": "function"
    },
    {
      "inputs": [
        {
          "internalType": "string",
          "name": "username",
          "type": "string"
        },
        {
          "internalType": "address",
          "name": "presenter",
          "type": "address"
        }
      ],
      "name": "signIn",
      "outputs": [],
      "stateMutability": "payable",
      "type": "function"
    },
    {
      "inputs": [
        {
          "internalType": "address",
          "name": "newOwner",
          "type": "address"
        }
      ],
      "name": "transferOwnership",
      "outputs": [],
      "stateMutability": "nonpayable",
      "type": "function"
    },
    {
      "inputs": [
        {
          "internalType": "address",
          "name": "userAddr",
          "type": "address"
        }
      ],
      "name": "upgradeToVIP",
      "outputs": [],
      "stateMutability": "nonpayable",
      "type": "function"
    },
    {
      "inputs": [
        {
          "internalType": "string",
          "name": "",
          "type": "string"
        }
      ],
      "name": "userToAddr",
      "outputs": [
        {
          "internalType": "address",
          "name": "",
          "type": "address"
        }
      ],
      "stateMutability": "view",
      "type": "function"
    },
    {
      "inputs": [
        {
          "internalType": "string",
          "name": "username",
          "type": "string"
        }
      ],
      "name": "usernameToAddress",
      "outputs": [
        {
          "internalType": "address",
          "name": "userAddr",
          "type": "address"
        }
      ],
      "stateMutability": "view",
      "type": "function"
    },
    {
      "inputs": [
        {
          "internalType": "string",
          "name": "username",
          "type": "string"
        }
      ],
      "name": "usernameToProfile",
      "outputs": [
        {
          "internalType": "address",
          "name": "userAddr",
          "type": "address"
        },
        {
          "internalType": "string",
          "name": "info",
          "type": "string"
        },
        {
          "internalType": "bool",
          "name": "VIPstatus",
          "type": "bool"
        }
      ],
      "stateMutability": "view",
      "type": "function"
    },
    {
      "inputs": [
        {
          "internalType": "address",
          "name": "receiverAddress",
          "type": "address"
        }
      ],
      "name": "withdraw",
      "outputs": [],
      "stateMutability": "nonpayable",
      "type": "function"
    }
  ],
  "bytecode": "0x60806040523480156200001157600080fd5b5060405162002a5d38038062002a5d833981810160405281019062000037919062000387565b620000576200004b6200008160201b60201c565b6200008960201b60201c565b62000068826200014d60201b60201c565b62000079816200022060201b60201c565b505062000451565b600033905090565b60008060009054906101000a900473ffffffffffffffffffffffffffffffffffffffff169050816000806101000a81548173ffffffffffffffffffffffffffffffffffffffff021916908373ffffffffffffffffffffffffffffffffffffffff1602179055508173ffffffffffffffffffffffffffffffffffffffff168173ffffffffffffffffffffffffffffffffffffffff167f8be0079c531659141344cd1fd0a4f28419497f9722a3daafe3b4186f6b6457e060405160405180910390a35050565b6200015d6200008160201b60201c565b73ffffffffffffffffffffffffffffffffffffffff1662000183620002b960201b60201c565b73ffffffffffffffffffffffffffffffffffffffff1614620001dc576040517f08c379a0000000000000000000000000000000000000000000000000000000008152600401620001d3906200042f565b60405180910390fd5b80600260006101000a81548173ffffffffffffffffffffffffffffffffffffffff021916908373ffffffffffffffffffffffffffffffffffffffff16021790555050565b620002306200008160201b60201c565b73ffffffffffffffffffffffffffffffffffffffff1662000256620002b960201b60201c565b73ffffffffffffffffffffffffffffffffffffffff1614620002af576040517f08c379a0000000000000000000000000000000000000000000000000000000008152600401620002a6906200042f565b60405180910390fd5b8060018190555050565b60008060009054906101000a900473ffffffffffffffffffffffffffffffffffffffff16905090565b600080fd5b600073ffffffffffffffffffffffffffffffffffffffff82169050919050565b60006200031482620002e7565b9050919050565b620003268162000307565b81146200033257600080fd5b50565b60008151905062000346816200031b565b92915050565b6000819050919050565b62000361816200034c565b81146200036d57600080fd5b50565b600081519050620003818162000356565b92915050565b60008060408385031215620003a157620003a0620002e2565b5b6000620003b18582860162000335565b9250506020620003c48582860162000370565b9150509250929050565b600082825260208201905092915050565b7f4f776e61626c653a2063616c6c6572206973206e6f7420746865206f776e6572600082015250565b600062000417602083620003ce565b91506200042482620003df565b602082019050919050565b600060208201905081810360008301526200044a8162000408565b9050919050565b6125fc80620004616000396000f3fe60806040526004361061012a5760003560e01c8063b377f8ae116100ab578063e07a0baa1161006f578063e07a0baa14610408578063e1242cb714610445578063e5f3880114610461578063f2fde38b1461049e578063f4201c3c146104c7578063f825f143146105045761012a565b8063b377f8ae1461030f578063b7110fb61461033a578063be321f4214610377578063cad51e18146103a0578063cfcddeb0146103c95761012a565b80635d2d5c37116100f25780635d2d5c371461022a578063715018a6146102675780638da5cb5b1461027e578063937f6e77146102a9578063b2dd5c07146102d25761012a565b80630e7b29bf1461012f5780630eb5cd1a1461016e578063392c8385146101ad57806351cff8d9146101d85780635636060614610201575b600080fd5b34801561013b57600080fd5b5061015660048036038101906101519190611ba9565b610541565b60405161016593929190611c8a565b60405180910390f35b34801561017a57600080fd5b5061019560048036038101906101909190611e04565b610787565b6040516101a493929190611e5c565b60405180910390f35b3480156101b957600080fd5b506101c2610942565b6040516101cf9190611eb3565b60405180910390f35b3480156101e457600080fd5b506101ff60048036038101906101fa9190611ba9565b610948565b005b34801561020d57600080fd5b5061022860048036038101906102239190611ba9565b610a14565b005b34801561023657600080fd5b50610251600480360381019061024c9190611e04565b610ad4565b60405161025e9190611ece565b60405180910390f35b34801561027357600080fd5b5061027c610b4b565b005b34801561028a57600080fd5b50610293610bd3565b6040516102a09190611ee9565b60405180910390f35b3480156102b557600080fd5b506102d060048036038101906102cb9190611e04565b610bfc565b005b3480156102de57600080fd5b506102f960048036038101906102f49190611ba9565b610cf9565b6040516103069190611ece565b60405180910390f35b34801561031b57600080fd5b50610324610d54565b6040516103319190611ee9565b60405180910390f35b34801561034657600080fd5b50610361600480360381019061035c9190611ba9565b610d7a565b60405161036e9190611ece565b60405180910390f35b34801561038357600080fd5b5061039e60048036038101906103999190611f30565b610e9e565b005b3480156103ac57600080fd5b506103c760048036038101906103c29190611ba9565b610f24565b005b3480156103d557600080fd5b506103f060048036038101906103eb9190611ba9565b611046565b6040516103ff93929190611c8a565b60405180910390f35b34801561041457600080fd5b5061042f600480360381019061042a9190611ba9565b61118d565b60405161043c9190611f5d565b60405180910390f35b61045f600480360381019061045a9190611f7f565b6112a9565b005b34801561046d57600080fd5b5061048860048036038101906104839190611e04565b61178d565b6040516104959190611ee9565b60405180910390f35b3480156104aa57600080fd5b506104c560048036038101906104c09190611ba9565b6117d6565b005b3480156104d357600080fd5b506104ee60048036038101906104e99190611ba9565b6118ce565b6040516104fb9190611ece565b60405180910390f35b34801561051057600080fd5b5061052b60048036038101906105269190611e04565b611938565b6040516105389190611ee9565b60405180910390f35b606080600061054f84610cf9565b61058e576040517f08c379a000000000000000000000000000000000000000000000000000000000815260040161058590612027565b60405180910390fd5b600360008573ffffffffffffffffffffffffffffffffffffffff1673ffffffffffffffffffffffffffffffffffffffff168152602001908152602001600020600001600360008673ffffffffffffffffffffffffffffffffffffffff1673ffffffffffffffffffffffffffffffffffffffff168152602001908152602001600020600101600360008773ffffffffffffffffffffffffffffffffffffffff1673ffffffffffffffffffffffffffffffffffffffff16815260200190815260200160002060020160009054906101000a900460ff1682805461066e90612076565b80601f016020809104026020016040519081016040528092919081815260200182805461069a90612076565b80156106e75780601f106106bc576101008083540402835291602001916106e7565b820191906000526020600020905b8154815290600101906020018083116106ca57829003601f168201915b505050505092508180546106fa90612076565b80601f016020809104026020016040519081016040528092919081815260200182805461072690612076565b80156107735780601f1061074857610100808354040283529160200191610773565b820191906000526020600020905b81548152906001019060200180831161075657829003601f168201915b505050505091509250925092509193909250565b60006060600061079684610ad4565b6107d5576040517f08c379a00000000000000000000000000000000000000000000000000000000081526004016107cc90612027565b60405180910390fd5b6004846040516107e591906120e4565b908152602001604051809103902060009054906101000a900473ffffffffffffffffffffffffffffffffffffffff16925082600360008573ffffffffffffffffffffffffffffffffffffffff1673ffffffffffffffffffffffffffffffffffffffff168152602001908152602001600020600101600360008673ffffffffffffffffffffffffffffffffffffffff1673ffffffffffffffffffffffffffffffffffffffff16815260200190815260200160002060020160009054906101000a900460ff168180546108b590612076565b80601f01602080910402602001604051908101604052809291908181526020018280546108e190612076565b801561092e5780601f106109035761010080835404028352916020019161092e565b820191906000526020600020905b81548152906001019060200180831161091157829003601f168201915b505050505091509250925092509193909250565b60015481565b6109506119c8565b73ffffffffffffffffffffffffffffffffffffffff1661096e610bd3565b73ffffffffffffffffffffffffffffffffffffffff16146109c4576040517f08c379a00000000000000000000000000000000000000000000000000000000081526004016109bb90612147565b60405180910390fd5b60008190508073ffffffffffffffffffffffffffffffffffffffff166108fc479081150290604051600060405180830381858888f19350505050158015610a0f573d6000803e3d6000fd5b505050565b610a1c6119c8565b73ffffffffffffffffffffffffffffffffffffffff16610a3a610bd3565b73ffffffffffffffffffffffffffffffffffffffff1614610a90576040517f08c379a0000000000000000000000000000000000000000000000000000000008152600401610a8790612147565b60405180910390fd5b80600260006101000a81548173ffffffffffffffffffffffffffffffffffffffff021916908373ffffffffffffffffffffffffffffffffffffffff16021790555050565b60008073ffffffffffffffffffffffffffffffffffffffff16600483604051610afd91906120e4565b908152602001604051809103902060009054906101000a900473ffffffffffffffffffffffffffffffffffffffff1673ffffffffffffffffffffffffffffffffffffffff1614159050919050565b610b536119c8565b73ffffffffffffffffffffffffffffffffffffffff16610b71610bd3565b73ffffffffffffffffffffffffffffffffffffffff1614610bc7576040517f08c379a0000000000000000000000000000000000000000000000000000000008152600401610bbe90612147565b60405180910390fd5b610bd160006119d0565b565b60008060009054906101000a900473ffffffffffffffffffffffffffffffffffffffff16905090565b6000610c066119c8565b9050610c1181610cf9565b610c50576040517f08c379a0000000000000000000000000000000000000000000000000000000008152600401610c47906121b3565b60405180910390fd5b81600360008373ffffffffffffffffffffffffffffffffffffffff1673ffffffffffffffffffffffffffffffffffffffff1681526020019081526020016000206001019080519060200190610ca6929190611a94565b508073ffffffffffffffffffffffffffffffffffffffff167fed2dc10fbb70c5dca9665145aee8b5f838c00bd7fe21abfe08513209a53bfd0483604051610ced9190611f5d565b60405180910390a25050565b600080600360008473ffffffffffffffffffffffffffffffffffffffff1673ffffffffffffffffffffffffffffffffffffffff1681526020019081526020016000206000018054610d4990612076565b905014159050919050565b600260009054906101000a900473ffffffffffffffffffffffffffffffffffffffff1681565b6000610d8582610cf9565b8015610e9757507f5f000000000000000000000000000000000000000000000000000000000000007effffffffffffffffffffffffffffffffffffffffffffffffffffffffffffff1916600360008473ffffffffffffffffffffffffffffffffffffffff1673ffffffffffffffffffffffffffffffffffffffff16815260200190815260200160002060000160008154610e1e90612076565b8110610e2d57610e2c6121d3565b5b815460011615610e4c5790600052602060002090602091828204019190065b9054901a7f0100000000000000000000000000000000000000000000000000000000000000027effffffffffffffffffffffffffffffffffffffffffffffffffffffffffffff191614155b9050919050565b610ea66119c8565b73ffffffffffffffffffffffffffffffffffffffff16610ec4610bd3565b73ffffffffffffffffffffffffffffffffffffffff1614610f1a576040517f08c379a0000000000000000000000000000000000000000000000000000000008152600401610f1190612147565b60405180910390fd5b8060018190555050565b610f2c6119c8565b73ffffffffffffffffffffffffffffffffffffffff16610f4a610bd3565b73ffffffffffffffffffffffffffffffffffffffff1614610fa0576040517f08c379a0000000000000000000000000000000000000000000000000000000008152600401610f9790612147565b60405180910390fd5b610fa981610cf9565b610fe8576040517f08c379a0000000000000000000000000000000000000000000000000000000008152600401610fdf90612027565b60405180910390fd5b6001600360008373ffffffffffffffffffffffffffffffffffffffff1673ffffffffffffffffffffffffffffffffffffffff16815260200190815260200160002060020160006101000a81548160ff02191690831515021790555050565b600360205280600052604060002060009150905080600001805461106990612076565b80601f016020809104026020016040519081016040528092919081815260200182805461109590612076565b80156110e25780601f106110b7576101008083540402835291602001916110e2565b820191906000526020600020905b8154815290600101906020018083116110c557829003601f168201915b5050505050908060010180546110f790612076565b80601f016020809104026020016040519081016040528092919081815260200182805461112390612076565b80156111705780601f1061114557610100808354040283529160200191611170565b820191906000526020600020905b81548152906001019060200180831161115357829003601f168201915b5050505050908060020160009054906101000a900460ff16905083565b606061119882610cf9565b6111d7576040517f08c379a00000000000000000000000000000000000000000000000000000000081526004016111ce90612027565b60405180910390fd5b600360008373ffffffffffffffffffffffffffffffffffffffff1673ffffffffffffffffffffffffffffffffffffffff168152602001908152602001600020600001805461122490612076565b80601f016020809104026020016040519081016040528092919081815260200182805461125090612076565b801561129d5780601f106112725761010080835404028352916020019161129d565b820191906000526020600020905b81548152906001019060200180831161128057829003601f168201915b50505050509050919050565b60006112b36119c8565b90506112be81610cf9565b156112fe576040517f08c379a00000000000000000000000000000000000000000000000000000000081526004016112f590612274565b60405180910390fd5b6000835111611342576040517f08c379a0000000000000000000000000000000000000000000000000000000008152600401611339906122e0565b60405180910390fd5b600073ffffffffffffffffffffffffffffffffffffffff1660048460405161136a91906120e4565b908152602001604051809103902060009054906101000a900473ffffffffffffffffffffffffffffffffffffffff1673ffffffffffffffffffffffffffffffffffffffff16146113ef576040517f08c379a00000000000000000000000000000000000000000000000000000000081526004016113e690612372565b60405180910390fd5b600073ffffffffffffffffffffffffffffffffffffffff168273ffffffffffffffffffffffffffffffffffffffff161415801561145857508073ffffffffffffffffffffffffffffffffffffffff168273ffffffffffffffffffffffffffffffffffffffff1614155b611497576040517f08c379a000000000000000000000000000000000000000000000000000000000815260040161148e906123de565b60405180910390fd5b7f5f000000000000000000000000000000000000000000000000000000000000007effffffffffffffffffffffffffffffffffffffffffffffffffffffffffffff1916836000815181106114ee576114ed6121d3565b5b602001015160f81c60f81b7effffffffffffffffffffffffffffffffffffffffffffffffffffffffffffff19161461156657600154341015611565576040517f08c379a000000000000000000000000000000000000000000000000000000000815260040161155c9061244a565b60405180910390fd5b5b82600360008373ffffffffffffffffffffffffffffffffffffffff1673ffffffffffffffffffffffffffffffffffffffff16815260200190815260200160002060000190805190602001906115bc929190611a94565b50806004846040516115ce91906120e4565b908152602001604051809103902060006101000a81548173ffffffffffffffffffffffffffffffffffffffff021916908373ffffffffffffffffffffffffffffffffffffffff1602179055508073ffffffffffffffffffffffffffffffffffffffff167f0a2abf815300d275c4387b4e1f4e74e0cd938c5301ff1223061fdc158e12f04c846040516116609190611f5d565b60405180910390a2600080600260009054906101000a900473ffffffffffffffffffffffffffffffffffffffff1673ffffffffffffffffffffffffffffffffffffffff16846040516024016116b59190611ee9565b6040516020818303038152906040527ff9afbb67000000000000000000000000000000000000000000000000000000007bffffffffffffffffffffffffffffffffffffffffffffffffffffffff19166020820180517bffffffffffffffffffffffffffffffffffffffffffffffffffffffff838183161783525050505060405161173f91906124b1565b6000604051808303816000865af19150503d806000811461177c576040519150601f19603f3d011682016040523d82523d6000602084013e611781565b606091505b50915091505050505050565b6004818051602081018201805184825260208301602085012081835280955050505050506000915054906101000a900473ffffffffffffffffffffffffffffffffffffffff1681565b6117de6119c8565b73ffffffffffffffffffffffffffffffffffffffff166117fc610bd3565b73ffffffffffffffffffffffffffffffffffffffff1614611852576040517f08c379a000000000000000000000000000000000000000000000000000000000815260040161184990612147565b60405180910390fd5b600073ffffffffffffffffffffffffffffffffffffffff168173ffffffffffffffffffffffffffffffffffffffff1614156118c2576040517f08c379a00000000000000000000000000000000000000000000000000000000081526004016118b99061253a565b60405180910390fd5b6118cb816119d0565b50565b60006118d982610cf9565b80156119315750600360008373ffffffffffffffffffffffffffffffffffffffff1673ffffffffffffffffffffffffffffffffffffffff16815260200190815260200160002060020160009054906101000a900460ff165b9050919050565b600061194382610ad4565b611982576040517f08c379a0000000000000000000000000000000000000000000000000000000008152600401611979906125a6565b60405180910390fd5b60048260405161199291906120e4565b908152602001604051809103902060009054906101000a900473ffffffffffffffffffffffffffffffffffffffff169050919050565b600033905090565b60008060009054906101000a900473ffffffffffffffffffffffffffffffffffffffff169050816000806101000a81548173ffffffffffffffffffffffffffffffffffffffff021916908373ffffffffffffffffffffffffffffffffffffffff1602179055508173ffffffffffffffffffffffffffffffffffffffff168173ffffffffffffffffffffffffffffffffffffffff167f8be0079c531659141344cd1fd0a4f28419497f9722a3daafe3b4186f6b6457e060405160405180910390a35050565b828054611aa090612076565b90600052602060002090601f016020900481019282611ac25760008555611b09565b82601f10611adb57805160ff1916838001178555611b09565b82800160010185558215611b09579182015b82811115611b08578251825591602001919060010190611aed565b5b509050611b169190611b1a565b5090565b5b80821115611b33576000816000905550600101611b1b565b5090565b6000604051905090565b600080fd5b600080fd5b600073ffffffffffffffffffffffffffffffffffffffff82169050919050565b6000611b7682611b4b565b9050919050565b611b8681611b6b565b8114611b9157600080fd5b50565b600081359050611ba381611b7d565b92915050565b600060208284031215611bbf57611bbe611b41565b5b6000611bcd84828501611b94565b91505092915050565b600081519050919050565b600082825260208201905092915050565b60005b83811015611c10578082015181840152602081019050611bf5565b83811115611c1f576000848401525b50505050565b6000601f19601f8301169050919050565b6000611c4182611bd6565b611c4b8185611be1565b9350611c5b818560208601611bf2565b611c6481611c25565b840191505092915050565b60008115159050919050565b611c8481611c6f565b82525050565b60006060820190508181036000830152611ca48186611c36565b90508181036020830152611cb88185611c36565b9050611cc76040830184611c7b565b949350505050565b600080fd5b600080fd5b7f4e487b7100000000000000000000000000000000000000000000000000000000600052604160045260246000fd5b611d1182611c25565b810181811067ffffffffffffffff82111715611d3057611d2f611cd9565b5b80604052505050565b6000611d43611b37565b9050611d4f8282611d08565b919050565b600067ffffffffffffffff821115611d6f57611d6e611cd9565b5b611d7882611c25565b9050602081019050919050565b82818337600083830152505050565b6000611da7611da284611d54565b611d39565b905082815260208101848484011115611dc357611dc2611cd4565b5b611dce848285611d85565b509392505050565b600082601f830112611deb57611dea611ccf565b5b8135611dfb848260208601611d94565b91505092915050565b600060208284031215611e1a57611e19611b41565b5b600082013567ffffffffffffffff811115611e3857611e37611b46565b5b611e4484828501611dd6565b91505092915050565b611e5681611b6b565b82525050565b6000606082019050611e716000830186611e4d565b8181036020830152611e838185611c36565b9050611e926040830184611c7b565b949350505050565b6000819050919050565b611ead81611e9a565b82525050565b6000602082019050611ec86000830184611ea4565b92915050565b6000602082019050611ee36000830184611c7b565b92915050565b6000602082019050611efe6000830184611e4d565b92915050565b611f0d81611e9a565b8114611f1857600080fd5b50565b600081359050611f2a81611f04565b92915050565b600060208284031215611f4657611f45611b41565b5b6000611f5484828501611f1b565b91505092915050565b60006020820190508181036000830152611f778184611c36565b905092915050565b60008060408385031215611f9657611f95611b41565b5b600083013567ffffffffffffffff811115611fb457611fb3611b46565b5b611fc085828601611dd6565b9250506020611fd185828601611b94565b9150509250929050565b7f6e6f207573657220627920746869732061646472657373000000000000000000600082015250565b6000612011601783611be1565b915061201c82611fdb565b602082019050919050565b6000602082019050818103600083015261204081612004565b9050919050565b7f4e487b7100000000000000000000000000000000000000000000000000000000600052602260045260246000fd5b6000600282049050600182168061208e57607f821691505b602082108114156120a2576120a1612047565b5b50919050565b600081905092915050565b60006120be82611bd6565b6120c881856120a8565b93506120d8818560208601611bf2565b80840191505092915050565b60006120f082846120b3565b915081905092915050565b7f4f776e61626c653a2063616c6c6572206973206e6f7420746865206f776e6572600082015250565b6000612131602083611be1565b915061213c826120fb565b602082019050919050565b6000602082019050818103600083015261216081612124565b9050919050565b7f796f75206861766520746f207369676e20696e20666972737400000000000000600082015250565b600061219d601983611be1565b91506121a882612167565b602082019050919050565b600060208201905081810360008301526121cc81612190565b9050919050565b7f4e487b7100000000000000000000000000000000000000000000000000000000600052603260045260246000fd5b7f74686973206164647265737320686173207369676e6564206120757365726e6160008201527f6d65206265666f72650000000000000000000000000000000000000000000000602082015250565b600061225e602983611be1565b915061226982612202565b604082019050919050565b6000602082019050818103600083015261228d81612251565b9050919050565b7f656d70747920757365726e616d6520696e707574000000000000000000000000600082015250565b60006122ca601483611be1565b91506122d582612294565b602082019050919050565b600060208201905081810360008301526122f9816122bd565b9050919050565b7f7468697320757365726e616d6520686173206265656e2075736564206265666f60008201527f7265000000000000000000000000000000000000000000000000000000000000602082015250565b600061235c602283611be1565b915061236782612300565b604082019050919050565b6000602082019050818103600083015261238b8161234f565b9050919050565b7f77726f6e672070726573656e746572206164647265737320656e746572656400600082015250565b60006123c8601f83611be1565b91506123d382612392565b602082019050919050565b600060208201905081810360008301526123f7816123bb565b9050919050565b7f7468697320757365726e616d652069732050617961626c650000000000000000600082015250565b6000612434601883611be1565b915061243f826123fe565b602082019050919050565b6000602082019050818103600083015261246381612427565b9050919050565b600081519050919050565b600081905092915050565b600061248b8261246a565b6124958185612475565b93506124a5818560208601611bf2565b80840191505092915050565b60006124bd8284612480565b915081905092915050565b7f4f776e61626c653a206e6577206f776e657220697320746865207a65726f206160008201527f6464726573730000000000000000000000000000000000000000000000000000602082015250565b6000612524602683611be1565b915061252f826124c8565b604082019050919050565b6000602082019050818103600083015261255381612517565b9050919050565b7f6e6f2075736572206279207468697320757365726e616d650000000000000000600082015250565b6000612590601883611be1565b915061259b8261255a565b602082019050919050565b600060208201905081810360008301526125bf81612583565b905091905056fea26469706673582212203534e1e5c0e0d1dc55155f6a017126e3e6987204ca87f18a87417c324f3a70b264736f6c63430008090033",
  "linkReferences": {},
  "deployedLinkReferences": {}
}