{
  "_format": "hh-sol-artifact-1",
  "contractName": "Register",
  "sourceName": "contracts/Register.sol",
  "abi": [
    {
      "inputs": [
        {
          "internalType": "address",
          "name": "_DAOAddress",
          "type": "address"
        },
        {
          "internalType": "uint256",
          "name": "_puerNameFee",
          "type": "uint256"
        }
      ],
      "stateMutability": "nonpayable",
      "type": "constructor"
    },
    {
      "anonymous": false,
      "inputs": [
        {
          "indexed": true,
          "internalType": "address",
          "name": "previousOwner",
          "type": "address"
        },
        {
          "indexed": true,
          "internalType": "address",
          "name": "newOwner",
          "type": "address"
        }
      ],
      "name": "OwnershipTransferred",
      "type": "event"
    },
    {
      "anonymous": false,
      "inputs": [
        {
          "indexed": true,
          "internalType": "address",
          "name": "userAddress",
          "type": "address"
        },
        {
          "indexed": false,
          "internalType": "string",
          "name": "info",
          "type": "string"
        }
      ],
      "name": "SetInfo",
      "type": "event"
    },
    {
      "anonymous": false,
      "inputs": [
        {
          "indexed": true,
          "internalType": "address",
          "name": "userAddress",
          "type": "address"
        },
        {
          "indexed": false,
          "internalType": "string",
          "name": "username",
          "type": "string"
        }
      ],
      "name": "SignIn",
      "type": "event"
    },
    {
      "inputs": [],
      "name": "DAOContract",
      "outputs": [
        {
          "internalType": "address",
          "name": "",
          "type": "address"
        }
      ],
      "stateMutability": "view",
      "type": "function"
    },
    {
      "inputs": [
        {
          "internalType": "address",
          "name": "",
          "type": "address"
        }
      ],
      "name": "addrToUser",
      "outputs": [
        {
          "internalType": "string",
          "name": "username",
          "type": "string"
        },
        {
          "internalType": "string",
          "name": "info",
          "type": "string"
        },
        {
          "internalType": "bool",
          "name": "isVIP",
          "type": "bool"
        }
      ],
      "stateMutability": "view",
      "type": "function"
    },
    {
      "inputs": [
        {
          "internalType": "address",
          "name": "userAddr",
          "type": "address"
        }
      ],
      "name": "addressToProfile",
      "outputs": [
        {
          "internalType": "string",
          "name": "username",
          "type": "string"
        },
        {
          "internalType": "string",
          "name": "info",
          "type": "string"
        },
        {
          "internalType": "bool",
          "name": "VIPstatus",
          "type": "bool"
        }
      ],
      "stateMutability": "view",
      "type": "function"
    },
    {
      "inputs": [
        {
          "internalType": "address",
          "name": "userAddr",
          "type": "address"
        }
      ],
      "name": "addressToUsername",
      "outputs": [
        {
          "internalType": "string",
          "name": "username",
          "type": "string"
        }
      ],
      "stateMutability": "view",
      "type": "function"
    },
    {
      "inputs": [
        {
          "internalType": "address",
          "name": "userAddr",
          "type": "address"
        }
      ],
      "name": "isPure",
      "outputs": [
        {
          "internalType": "bool",
          "name": "",
          "type": "bool"
        }
      ],
      "stateMutability": "view",
      "type": "function"
    },
    {
      "inputs": [
        {
          "internalType": "address",
          "name": "userAddr",
          "type": "address"
        }
      ],
      "name": "isVIP",
      "outputs": [
        {
          "internalType": "bool",
          "name": "",
          "type": "bool"
        }
      ],
      "stateMutability": "view",
      "type": "function"
    },
    {
      "inputs": [
        {
          "internalType": "address",
          "name": "contractAddr",
          "type": "address"
        }
      ],
      "name": "newDAOContract",
      "outputs": [],
      "stateMutability": "nonpayable",
      "type": "function"
    },
    {
      "inputs": [],
      "name": "owner",
      "outputs": [
        {
          "internalType": "address",
          "name": "",
          "type": "address"
        }
      ],
      "stateMutability": "view",
      "type": "function"
    },
    {
      "inputs": [],
      "name": "puerNameFee",
      "outputs": [
        {
          "internalType": "uint256",
          "name": "",
          "type": "uint256"
        }
      ],
      "stateMutability": "view",
      "type": "function"
    },
    {
      "inputs": [
        {
          "internalType": "string",
          "name": "username",
          "type": "string"
        }
      ],
      "name": "registered",
      "outputs": [
        {
          "internalType": "bool",
          "name": "",
          "type": "bool"
        }
      ],
      "stateMutability": "view",
      "type": "function"
    },
    {
      "inputs": [
        {
          "internalType": "address",
          "name": "userAddr",
          "type": "address"
        }
      ],
      "name": "registered",
      "outputs": [
        {
          "internalType": "bool",
          "name": "",
          "type": "bool"
        }
      ],
      "stateMutability": "view",
      "type": "function"
    },
    {
      "inputs": [],
      "name": "renounceOwnership",
      "outputs": [],
      "stateMutability": "nonpayable",
      "type": "function"
    },
    {
      "inputs": [
        {
          "internalType": "string",
          "name": "info",
          "type": "string"
        }
      ],
      "name": "setInfo",
      "outputs": [],
      "stateMutability": "nonpayable",
      "type": "function"
    },
    {
      "inputs": [
        {
          "internalType": "uint256",
          "name": "_fee",
          "type": "uint256"
        }
      ],
      "name": "setPureNameFee",
      "outputs": [],
      "stateMutability": "nonpayable",
      "type": "function"
    },
    {
      "inputs": [
        {
          "internalType": "string",
          "name": "username",
          "type": "string"
        },
        {
          "internalType": "string",
          "name": "info",
          "type": "string"
        },
        {
          "internalType": "address",
          "name": "presenter",
          "type": "address"
        }
      ],
      "name": "signIn",
      "outputs": [],
      "stateMutability": "payable",
      "type": "function"
    },
    {
      "inputs": [
        {
          "internalType": "address",
          "name": "newOwner",
          "type": "address"
        }
      ],
      "name": "transferOwnership",
      "outputs": [],
      "stateMutability": "nonpayable",
      "type": "function"
    },
    {
      "inputs": [
        {
          "internalType": "address",
          "name": "userAddr",
          "type": "address"
        }
      ],
      "name": "upgradeToVIP",
      "outputs": [],
      "stateMutability": "nonpayable",
      "type": "function"
    },
    {
      "inputs": [
        {
          "internalType": "string",
          "name": "",
          "type": "string"
        }
      ],
      "name": "userToAddr",
      "outputs": [
        {
          "internalType": "address",
          "name": "",
          "type": "address"
        }
      ],
      "stateMutability": "view",
      "type": "function"
    },
    {
      "inputs": [
        {
          "internalType": "string",
          "name": "username",
          "type": "string"
        }
      ],
      "name": "usernameToAddress",
      "outputs": [
        {
          "internalType": "address",
          "name": "userAddr",
          "type": "address"
        }
      ],
      "stateMutability": "view",
      "type": "function"
    },
    {
      "inputs": [
        {
          "internalType": "string",
          "name": "username",
          "type": "string"
        }
      ],
      "name": "usernameToProfile",
      "outputs": [
        {
          "internalType": "address",
          "name": "userAddr",
          "type": "address"
        },
        {
          "internalType": "string",
          "name": "info",
          "type": "string"
        },
        {
          "internalType": "bool",
          "name": "VIPstatus",
          "type": "bool"
        }
      ],
      "stateMutability": "view",
      "type": "function"
    },
    {
      "inputs": [
        {
          "internalType": "address",
          "name": "receiverAddress",
          "type": "address"
        }
      ],
      "name": "withdraw",
      "outputs": [],
      "stateMutability": "nonpayable",
      "type": "function"
    }
  ],
  "bytecode": "0x60806040523480156200001157600080fd5b5060405162002aa138038062002aa1833981810160405281019062000037919062000387565b620000576200004b6200008160201b60201c565b6200008960201b60201c565b62000068826200014d60201b60201c565b62000079816200022060201b60201c565b505062000451565b600033905090565b60008060009054906101000a900473ffffffffffffffffffffffffffffffffffffffff169050816000806101000a81548173ffffffffffffffffffffffffffffffffffffffff021916908373ffffffffffffffffffffffffffffffffffffffff1602179055508173ffffffffffffffffffffffffffffffffffffffff168173ffffffffffffffffffffffffffffffffffffffff167f8be0079c531659141344cd1fd0a4f28419497f9722a3daafe3b4186f6b6457e060405160405180910390a35050565b6200015d6200008160201b60201c565b73ffffffffffffffffffffffffffffffffffffffff1662000183620002b960201b60201c565b73ffffffffffffffffffffffffffffffffffffffff1614620001dc576040517f08c379a0000000000000000000000000000000000000000000000000000000008152600401620001d3906200042f565b60405180910390fd5b80600260006101000a81548173ffffffffffffffffffffffffffffffffffffffff021916908373ffffffffffffffffffffffffffffffffffffffff16021790555050565b620002306200008160201b60201c565b73ffffffffffffffffffffffffffffffffffffffff1662000256620002b960201b60201c565b73ffffffffffffffffffffffffffffffffffffffff1614620002af576040517f08c379a0000000000000000000000000000000000000000000000000000000008152600401620002a6906200042f565b60405180910390fd5b8060018190555050565b60008060009054906101000a900473ffffffffffffffffffffffffffffffffffffffff16905090565b600080fd5b600073ffffffffffffffffffffffffffffffffffffffff82169050919050565b60006200031482620002e7565b9050919050565b620003268162000307565b81146200033257600080fd5b50565b60008151905062000346816200031b565b92915050565b6000819050919050565b62000361816200034c565b81146200036d57600080fd5b50565b600081519050620003818162000356565b92915050565b60008060408385031215620003a157620003a0620002e2565b5b6000620003b18582860162000335565b9250506020620003c48582860162000370565b9150509250929050565b600082825260208201905092915050565b7f4f776e61626c653a2063616c6c6572206973206e6f7420746865206f776e6572600082015250565b600062000417602083620003ce565b91506200042482620003df565b602082019050919050565b600060208201905081810360008301526200044a8162000408565b9050919050565b61264080620004616000396000f3fe60806040526004361061012a5760003560e01c8063b2dd5c07116100ab578063cfcddeb01161006f578063cfcddeb0146103e5578063e07a0baa14610424578063e5f3880114610461578063f2fde38b1461049e578063f4201c3c146104c7578063f825f143146105045761012a565b8063b2dd5c07146102ee578063b377f8ae1461032b578063b7110fb614610356578063be321f4214610393578063cad51e18146103bc5761012a565b80635d2d5c37116100f25780635d2d5c371461022a578063715018a6146102675780637cbb60e71461027e5780638da5cb5b1461029a578063937f6e77146102c55761012a565b80630e7b29bf1461012f5780630eb5cd1a1461016e578063392c8385146101ad57806351cff8d9146101d85780635636060614610201575b600080fd5b34801561013b57600080fd5b5061015660048036038101906101519190611bbe565b610541565b60405161016593929190611c9f565b60405180910390f35b34801561017a57600080fd5b5061019560048036038101906101909190611e19565b610787565b6040516101a493929190611e71565b60405180910390f35b3480156101b957600080fd5b506101c2610942565b6040516101cf9190611ec8565b60405180910390f35b3480156101e457600080fd5b506101ff60048036038101906101fa9190611bbe565b610948565b005b34801561020d57600080fd5b5061022860048036038101906102239190611bbe565b610a14565b005b34801561023657600080fd5b50610251600480360381019061024c9190611e19565b610ad4565b60405161025e9190611ee3565b60405180910390f35b34801561027357600080fd5b5061027c610b4b565b005b61029860048036038101906102939190611efe565b610bd3565b005b3480156102a657600080fd5b506102af6110cc565b6040516102bc9190611f89565b60405180910390f35b3480156102d157600080fd5b506102ec60048036038101906102e79190611e19565b6110f5565b005b3480156102fa57600080fd5b5061031560048036038101906103109190611bbe565b6111f2565b6040516103229190611ee3565b60405180910390f35b34801561033757600080fd5b5061034061124d565b60405161034d9190611f89565b60405180910390f35b34801561036257600080fd5b5061037d60048036038101906103789190611bbe565b611273565b60405161038a9190611ee3565b60405180910390f35b34801561039f57600080fd5b506103ba60048036038101906103b59190611fd0565b611397565b005b3480156103c857600080fd5b506103e360048036038101906103de9190611bbe565b61141d565b005b3480156103f157600080fd5b5061040c60048036038101906104079190611bbe565b61153f565b60405161041b93929190611c9f565b60405180910390f35b34801561043057600080fd5b5061044b60048036038101906104469190611bbe565b611686565b6040516104589190611ffd565b60405180910390f35b34801561046d57600080fd5b5061048860048036038101906104839190611e19565b6117a2565b6040516104959190611f89565b60405180910390f35b3480156104aa57600080fd5b506104c560048036038101906104c09190611bbe565b6117eb565b005b3480156104d357600080fd5b506104ee60048036038101906104e99190611bbe565b6118e3565b6040516104fb9190611ee3565b60405180910390f35b34801561051057600080fd5b5061052b60048036038101906105269190611e19565b61194d565b6040516105389190611f89565b60405180910390f35b606080600061054f846111f2565b61058e576040517f08c379a00000000000000000000000000000000000000000000000000000000081526004016105859061206b565b60405180910390fd5b600360008573ffffffffffffffffffffffffffffffffffffffff1673ffffffffffffffffffffffffffffffffffffffff168152602001908152602001600020600001600360008673ffffffffffffffffffffffffffffffffffffffff1673ffffffffffffffffffffffffffffffffffffffff168152602001908152602001600020600101600360008773ffffffffffffffffffffffffffffffffffffffff1673ffffffffffffffffffffffffffffffffffffffff16815260200190815260200160002060020160009054906101000a900460ff1682805461066e906120ba565b80601f016020809104026020016040519081016040528092919081815260200182805461069a906120ba565b80156106e75780601f106106bc576101008083540402835291602001916106e7565b820191906000526020600020905b8154815290600101906020018083116106ca57829003601f168201915b505050505092508180546106fa906120ba565b80601f0160208091040260200160405190810160405280929190818152602001828054610726906120ba565b80156107735780601f1061074857610100808354040283529160200191610773565b820191906000526020600020905b81548152906001019060200180831161075657829003601f168201915b505050505091509250925092509193909250565b60006060600061079684610ad4565b6107d5576040517f08c379a00000000000000000000000000000000000000000000000000000000081526004016107cc9061206b565b60405180910390fd5b6004846040516107e59190612128565b908152602001604051809103902060009054906101000a900473ffffffffffffffffffffffffffffffffffffffff16925082600360008573ffffffffffffffffffffffffffffffffffffffff1673ffffffffffffffffffffffffffffffffffffffff168152602001908152602001600020600101600360008673ffffffffffffffffffffffffffffffffffffffff1673ffffffffffffffffffffffffffffffffffffffff16815260200190815260200160002060020160009054906101000a900460ff168180546108b5906120ba565b80601f01602080910402602001604051908101604052809291908181526020018280546108e1906120ba565b801561092e5780601f106109035761010080835404028352916020019161092e565b820191906000526020600020905b81548152906001019060200180831161091157829003601f168201915b505050505091509250925092509193909250565b60015481565b6109506119dd565b73ffffffffffffffffffffffffffffffffffffffff1661096e6110cc565b73ffffffffffffffffffffffffffffffffffffffff16146109c4576040517f08c379a00000000000000000000000000000000000000000000000000000000081526004016109bb9061218b565b60405180910390fd5b60008190508073ffffffffffffffffffffffffffffffffffffffff166108fc479081150290604051600060405180830381858888f19350505050158015610a0f573d6000803e3d6000fd5b505050565b610a1c6119dd565b73ffffffffffffffffffffffffffffffffffffffff16610a3a6110cc565b73ffffffffffffffffffffffffffffffffffffffff1614610a90576040517f08c379a0000000000000000000000000000000000000000000000000000000008152600401610a879061218b565b60405180910390fd5b80600260006101000a81548173ffffffffffffffffffffffffffffffffffffffff021916908373ffffffffffffffffffffffffffffffffffffffff16021790555050565b60008073ffffffffffffffffffffffffffffffffffffffff16600483604051610afd9190612128565b908152602001604051809103902060009054906101000a900473ffffffffffffffffffffffffffffffffffffffff1673ffffffffffffffffffffffffffffffffffffffff1614159050919050565b610b536119dd565b73ffffffffffffffffffffffffffffffffffffffff16610b716110cc565b73ffffffffffffffffffffffffffffffffffffffff1614610bc7576040517f08c379a0000000000000000000000000000000000000000000000000000000008152600401610bbe9061218b565b60405180910390fd5b610bd160006119e5565b565b6000610bdd6119dd565b9050610be8816111f2565b15610c28576040517f08c379a0000000000000000000000000000000000000000000000000000000008152600401610c1f9061221d565b60405180910390fd5b6000845111610c6c576040517f08c379a0000000000000000000000000000000000000000000000000000000008152600401610c6390612289565b60405180910390fd5b600073ffffffffffffffffffffffffffffffffffffffff16600485604051610c949190612128565b908152602001604051809103902060009054906101000a900473ffffffffffffffffffffffffffffffffffffffff1673ffffffffffffffffffffffffffffffffffffffff1614610d19576040517f08c379a0000000000000000000000000000000000000000000000000000000008152600401610d109061231b565b60405180910390fd5b600073ffffffffffffffffffffffffffffffffffffffff168273ffffffffffffffffffffffffffffffffffffffff1614158015610d8257508073ffffffffffffffffffffffffffffffffffffffff168273ffffffffffffffffffffffffffffffffffffffff1614155b610dc1576040517f08c379a0000000000000000000000000000000000000000000000000000000008152600401610db890612387565b60405180910390fd5b7f5f000000000000000000000000000000000000000000000000000000000000007effffffffffffffffffffffffffffffffffffffffffffffffffffffffffffff191684600081518110610e1857610e176123a7565b5b602001015160f81c60f81b7effffffffffffffffffffffffffffffffffffffffffffffffffffffffffffff191614610e9057600154341015610e8f576040517f08c379a0000000000000000000000000000000000000000000000000000000008152600401610e8690612422565b60405180910390fd5b5b83600360008373ffffffffffffffffffffffffffffffffffffffff1673ffffffffffffffffffffffffffffffffffffffff1681526020019081526020016000206000019080519060200190610ee6929190611aa9565b5080600485604051610ef89190612128565b908152602001604051809103902060006101000a81548173ffffffffffffffffffffffffffffffffffffffff021916908373ffffffffffffffffffffffffffffffffffffffff1602179055508073ffffffffffffffffffffffffffffffffffffffff167f0a2abf815300d275c4387b4e1f4e74e0cd938c5301ff1223061fdc158e12f04c85604051610f8a9190611ffd565b60405180910390a2600083511115610fa657610fa5836110f5565b5b600080600260009054906101000a900473ffffffffffffffffffffffffffffffffffffffff1673ffffffffffffffffffffffffffffffffffffffff1684604051602401610ff39190611f89565b6040516020818303038152906040527ff9afbb67000000000000000000000000000000000000000000000000000000007bffffffffffffffffffffffffffffffffffffffffffffffffffffffff19166020820180517bffffffffffffffffffffffffffffffffffffffffffffffffffffffff838183161783525050505060405161107d9190612489565b6000604051808303816000865af19150503d80600081146110ba576040519150601f19603f3d011682016040523d82523d6000602084013e6110bf565b606091505b5091509150505050505050565b60008060009054906101000a900473ffffffffffffffffffffffffffffffffffffffff16905090565b60006110ff6119dd565b905061110a816111f2565b611149576040517f08c379a0000000000000000000000000000000000000000000000000000000008152600401611140906124ec565b60405180910390fd5b81600360008373ffffffffffffffffffffffffffffffffffffffff1673ffffffffffffffffffffffffffffffffffffffff168152602001908152602001600020600101908051906020019061119f929190611aa9565b508073ffffffffffffffffffffffffffffffffffffffff167fed2dc10fbb70c5dca9665145aee8b5f838c00bd7fe21abfe08513209a53bfd04836040516111e69190611ffd565b60405180910390a25050565b600080600360008473ffffffffffffffffffffffffffffffffffffffff1673ffffffffffffffffffffffffffffffffffffffff1681526020019081526020016000206000018054611242906120ba565b905014159050919050565b600260009054906101000a900473ffffffffffffffffffffffffffffffffffffffff1681565b600061127e826111f2565b801561139057507f5f000000000000000000000000000000000000000000000000000000000000007effffffffffffffffffffffffffffffffffffffffffffffffffffffffffffff1916600360008473ffffffffffffffffffffffffffffffffffffffff1673ffffffffffffffffffffffffffffffffffffffff16815260200190815260200160002060000160008154611317906120ba565b8110611326576113256123a7565b5b8154600116156113455790600052602060002090602091828204019190065b9054901a7f0100000000000000000000000000000000000000000000000000000000000000027effffffffffffffffffffffffffffffffffffffffffffffffffffffffffffff191614155b9050919050565b61139f6119dd565b73ffffffffffffffffffffffffffffffffffffffff166113bd6110cc565b73ffffffffffffffffffffffffffffffffffffffff1614611413576040517f08c379a000000000000000000000000000000000000000000000000000000000815260040161140a9061218b565b60405180910390fd5b8060018190555050565b6114256119dd565b73ffffffffffffffffffffffffffffffffffffffff166114436110cc565b73ffffffffffffffffffffffffffffffffffffffff1614611499576040517f08c379a00000000000000000000000000000000000000000000000000000000081526004016114909061218b565b60405180910390fd5b6114a2816111f2565b6114e1576040517f08c379a00000000000000000000000000000000000000000000000000000000081526004016114d89061206b565b60405180910390fd5b6001600360008373ffffffffffffffffffffffffffffffffffffffff1673ffffffffffffffffffffffffffffffffffffffff16815260200190815260200160002060020160006101000a81548160ff02191690831515021790555050565b6003602052806000526040600020600091509050806000018054611562906120ba565b80601f016020809104026020016040519081016040528092919081815260200182805461158e906120ba565b80156115db5780601f106115b0576101008083540402835291602001916115db565b820191906000526020600020905b8154815290600101906020018083116115be57829003601f168201915b5050505050908060010180546115f0906120ba565b80601f016020809104026020016040519081016040528092919081815260200182805461161c906120ba565b80156116695780601f1061163e57610100808354040283529160200191611669565b820191906000526020600020905b81548152906001019060200180831161164c57829003601f168201915b5050505050908060020160009054906101000a900460ff16905083565b6060611691826111f2565b6116d0576040517f08c379a00000000000000000000000000000000000000000000000000000000081526004016116c79061206b565b60405180910390fd5b600360008373ffffffffffffffffffffffffffffffffffffffff1673ffffffffffffffffffffffffffffffffffffffff168152602001908152602001600020600001805461171d906120ba565b80601f0160208091040260200160405190810160405280929190818152602001828054611749906120ba565b80156117965780601f1061176b57610100808354040283529160200191611796565b820191906000526020600020905b81548152906001019060200180831161177957829003601f168201915b50505050509050919050565b6004818051602081018201805184825260208301602085012081835280955050505050506000915054906101000a900473ffffffffffffffffffffffffffffffffffffffff1681565b6117f36119dd565b73ffffffffffffffffffffffffffffffffffffffff166118116110cc565b73ffffffffffffffffffffffffffffffffffffffff1614611867576040517f08c379a000000000000000000000000000000000000000000000000000000000815260040161185e9061218b565b60405180910390fd5b600073ffffffffffffffffffffffffffffffffffffffff168173ffffffffffffffffffffffffffffffffffffffff1614156118d7576040517f08c379a00000000000000000000000000000000000000000000000000000000081526004016118ce9061257e565b60405180910390fd5b6118e0816119e5565b50565b60006118ee826111f2565b80156119465750600360008373ffffffffffffffffffffffffffffffffffffffff1673ffffffffffffffffffffffffffffffffffffffff16815260200190815260200160002060020160009054906101000a900460ff165b9050919050565b600061195882610ad4565b611997576040517f08c379a000000000000000000000000000000000000000000000000000000000815260040161198e906125ea565b60405180910390fd5b6004826040516119a79190612128565b908152602001604051809103902060009054906101000a900473ffffffffffffffffffffffffffffffffffffffff169050919050565b600033905090565b60008060009054906101000a900473ffffffffffffffffffffffffffffffffffffffff169050816000806101000a81548173ffffffffffffffffffffffffffffffffffffffff021916908373ffffffffffffffffffffffffffffffffffffffff1602179055508173ffffffffffffffffffffffffffffffffffffffff168173ffffffffffffffffffffffffffffffffffffffff167f8be0079c531659141344cd1fd0a4f28419497f9722a3daafe3b4186f6b6457e060405160405180910390a35050565b828054611ab5906120ba565b90600052602060002090601f016020900481019282611ad75760008555611b1e565b82601f10611af057805160ff1916838001178555611b1e565b82800160010185558215611b1e579182015b82811115611b1d578251825591602001919060010190611b02565b5b509050611b2b9190611b2f565b5090565b5b80821115611b48576000816000905550600101611b30565b5090565b6000604051905090565b600080fd5b600080fd5b600073ffffffffffffffffffffffffffffffffffffffff82169050919050565b6000611b8b82611b60565b9050919050565b611b9b81611b80565b8114611ba657600080fd5b50565b600081359050611bb881611b92565b92915050565b600060208284031215611bd457611bd3611b56565b5b6000611be284828501611ba9565b91505092915050565b600081519050919050565b600082825260208201905092915050565b60005b83811015611c25578082015181840152602081019050611c0a565b83811115611c34576000848401525b50505050565b6000601f19601f8301169050919050565b6000611c5682611beb565b611c608185611bf6565b9350611c70818560208601611c07565b611c7981611c3a565b840191505092915050565b60008115159050919050565b611c9981611c84565b82525050565b60006060820190508181036000830152611cb98186611c4b565b90508181036020830152611ccd8185611c4b565b9050611cdc6040830184611c90565b949350505050565b600080fd5b600080fd5b7f4e487b7100000000000000000000000000000000000000000000000000000000600052604160045260246000fd5b611d2682611c3a565b810181811067ffffffffffffffff82111715611d4557611d44611cee565b5b80604052505050565b6000611d58611b4c565b9050611d648282611d1d565b919050565b600067ffffffffffffffff821115611d8457611d83611cee565b5b611d8d82611c3a565b9050602081019050919050565b82818337600083830152505050565b6000611dbc611db784611d69565b611d4e565b905082815260208101848484011115611dd857611dd7611ce9565b5b611de3848285611d9a565b509392505050565b600082601f830112611e0057611dff611ce4565b5b8135611e10848260208601611da9565b91505092915050565b600060208284031215611e2f57611e2e611b56565b5b600082013567ffffffffffffffff811115611e4d57611e4c611b5b565b5b611e5984828501611deb565b91505092915050565b611e6b81611b80565b82525050565b6000606082019050611e866000830186611e62565b8181036020830152611e988185611c4b565b9050611ea76040830184611c90565b949350505050565b6000819050919050565b611ec281611eaf565b82525050565b6000602082019050611edd6000830184611eb9565b92915050565b6000602082019050611ef86000830184611c90565b92915050565b600080600060608486031215611f1757611f16611b56565b5b600084013567ffffffffffffffff811115611f3557611f34611b5b565b5b611f4186828701611deb565b935050602084013567ffffffffffffffff811115611f6257611f61611b5b565b5b611f6e86828701611deb565b9250506040611f7f86828701611ba9565b9150509250925092565b6000602082019050611f9e6000830184611e62565b92915050565b611fad81611eaf565b8114611fb857600080fd5b50565b600081359050611fca81611fa4565b92915050565b600060208284031215611fe657611fe5611b56565b5b6000611ff484828501611fbb565b91505092915050565b600060208201905081810360008301526120178184611c4b565b905092915050565b7f6e6f207573657220627920746869732061646472657373000000000000000000600082015250565b6000612055601783611bf6565b91506120608261201f565b602082019050919050565b6000602082019050818103600083015261208481612048565b9050919050565b7f4e487b7100000000000000000000000000000000000000000000000000000000600052602260045260246000fd5b600060028204905060018216806120d257607f821691505b602082108114156120e6576120e561208b565b5b50919050565b600081905092915050565b600061210282611beb565b61210c81856120ec565b935061211c818560208601611c07565b80840191505092915050565b600061213482846120f7565b915081905092915050565b7f4f776e61626c653a2063616c6c6572206973206e6f7420746865206f776e6572600082015250565b6000612175602083611bf6565b91506121808261213f565b602082019050919050565b600060208201905081810360008301526121a481612168565b9050919050565b7f74686973206164647265737320686173207369676e6564206120757365726e6160008201527f6d65206265666f72650000000000000000000000000000000000000000000000602082015250565b6000612207602983611bf6565b9150612212826121ab565b604082019050919050565b60006020820190508181036000830152612236816121fa565b9050919050565b7f656d70747920757365726e616d6520696e707574000000000000000000000000600082015250565b6000612273601483611bf6565b915061227e8261223d565b602082019050919050565b600060208201905081810360008301526122a281612266565b9050919050565b7f7468697320757365726e616d6520686173206265656e2075736564206265666f60008201527f7265000000000000000000000000000000000000000000000000000000000000602082015250565b6000612305602283611bf6565b9150612310826122a9565b604082019050919050565b60006020820190508181036000830152612334816122f8565b9050919050565b7f77726f6e672070726573656e746572206164647265737320656e746572656400600082015250565b6000612371601f83611bf6565b915061237c8261233b565b602082019050919050565b600060208201905081810360008301526123a081612364565b9050919050565b7f4e487b7100000000000000000000000000000000000000000000000000000000600052603260045260246000fd5b7f7468697320757365726e616d652069732050617961626c650000000000000000600082015250565b600061240c601883611bf6565b9150612417826123d6565b602082019050919050565b6000602082019050818103600083015261243b816123ff565b9050919050565b600081519050919050565b600081905092915050565b600061246382612442565b61246d818561244d565b935061247d818560208601611c07565b80840191505092915050565b60006124958284612458565b915081905092915050565b7f796f75206861766520746f207369676e20696e20666972737400000000000000600082015250565b60006124d6601983611bf6565b91506124e1826124a0565b602082019050919050565b60006020820190508181036000830152612505816124c9565b9050919050565b7f4f776e61626c653a206e6577206f776e657220697320746865207a65726f206160008201527f6464726573730000000000000000000000000000000000000000000000000000602082015250565b6000612568602683611bf6565b91506125738261250c565b604082019050919050565b600060208201905081810360008301526125978161255b565b9050919050565b7f6e6f2075736572206279207468697320757365726e616d650000000000000000600082015250565b60006125d4601883611bf6565b91506125df8261259e565b602082019050919050565b60006020820190508181036000830152612603816125c7565b905091905056fea264697066735822122031da82a81793a0e6f72f8e50d718ff8599c9d070f52da5ce9dc4f4f7a07b241364736f6c63430008090033",
  "linkReferences": {},
  "deployedLinkReferences": {}
}