{
  "_format": "hh-sol-artifact-1",
  "contractName": "Register",
  "sourceName": "contracts/Register.sol",
  "abi": [
    {
      "inputs": [],
      "stateMutability": "nonpayable",
      "type": "constructor"
    },
    {
      "anonymous": false,
      "inputs": [
        {
          "indexed": true,
          "internalType": "bytes32",
          "name": "role",
          "type": "bytes32"
        },
        {
          "indexed": true,
          "internalType": "bytes32",
          "name": "previousAdminRole",
          "type": "bytes32"
        },
        {
          "indexed": true,
          "internalType": "bytes32",
          "name": "newAdminRole",
          "type": "bytes32"
        }
      ],
      "name": "RoleAdminChanged",
      "type": "event"
    },
    {
      "anonymous": false,
      "inputs": [
        {
          "indexed": true,
          "internalType": "bytes32",
          "name": "role",
          "type": "bytes32"
        },
        {
          "indexed": true,
          "internalType": "address",
          "name": "account",
          "type": "address"
        },
        {
          "indexed": true,
          "internalType": "address",
          "name": "sender",
          "type": "address"
        }
      ],
      "name": "RoleGranted",
      "type": "event"
    },
    {
      "anonymous": false,
      "inputs": [
        {
          "indexed": true,
          "internalType": "bytes32",
          "name": "role",
          "type": "bytes32"
        },
        {
          "indexed": true,
          "internalType": "address",
          "name": "account",
          "type": "address"
        },
        {
          "indexed": true,
          "internalType": "address",
          "name": "sender",
          "type": "address"
        }
      ],
      "name": "RoleRevoked",
      "type": "event"
    },
    {
      "anonymous": false,
      "inputs": [
        {
          "indexed": true,
          "internalType": "address",
          "name": "userAddress",
          "type": "address"
        },
        {
          "indexed": false,
          "internalType": "string",
          "name": "info",
          "type": "string"
        }
      ],
      "name": "SetInfo",
      "type": "event"
    },
    {
      "anonymous": false,
      "inputs": [
        {
          "indexed": true,
          "internalType": "address",
          "name": "userAddress",
          "type": "address"
        },
        {
          "indexed": false,
          "internalType": "string",
          "name": "username",
          "type": "string"
        }
      ],
      "name": "SignIn",
      "type": "event"
    },
    {
      "inputs": [],
      "name": "ADMIN_ROLE",
      "outputs": [
        {
          "internalType": "bytes32",
          "name": "",
          "type": "bytes32"
        }
      ],
      "stateMutability": "view",
      "type": "function"
    },
    {
      "inputs": [],
      "name": "CLONER_ROLE",
      "outputs": [
        {
          "internalType": "bytes32",
          "name": "",
          "type": "bytes32"
        }
      ],
      "stateMutability": "view",
      "type": "function"
    },
    {
      "inputs": [],
      "name": "DEFAULT_ADMIN_ROLE",
      "outputs": [
        {
          "internalType": "bytes32",
          "name": "",
          "type": "bytes32"
        }
      ],
      "stateMutability": "view",
      "type": "function"
    },
    {
      "inputs": [],
      "name": "VIPfee",
      "outputs": [
        {
          "internalType": "uint256",
          "name": "",
          "type": "uint256"
        }
      ],
      "stateMutability": "view",
      "type": "function"
    },
    {
      "inputs": [
        {
          "internalType": "address",
          "name": "",
          "type": "address"
        }
      ],
      "name": "addrToUser",
      "outputs": [
        {
          "internalType": "string",
          "name": "username",
          "type": "string"
        },
        {
          "internalType": "string",
          "name": "info",
          "type": "string"
        },
        {
          "internalType": "bool",
          "name": "isVIP",
          "type": "bool"
        }
      ],
      "stateMutability": "view",
      "type": "function"
    },
    {
      "inputs": [
        {
          "internalType": "bytes32",
          "name": "role",
          "type": "bytes32"
        }
      ],
      "name": "getRoleAdmin",
      "outputs": [
        {
          "internalType": "bytes32",
          "name": "",
          "type": "bytes32"
        }
      ],
      "stateMutability": "view",
      "type": "function"
    },
    {
      "inputs": [
        {
          "internalType": "bytes32",
          "name": "role",
          "type": "bytes32"
        },
        {
          "internalType": "uint256",
          "name": "index",
          "type": "uint256"
        }
      ],
      "name": "getRoleMember",
      "outputs": [
        {
          "internalType": "address",
          "name": "",
          "type": "address"
        }
      ],
      "stateMutability": "view",
      "type": "function"
    },
    {
      "inputs": [
        {
          "internalType": "bytes32",
          "name": "role",
          "type": "bytes32"
        }
      ],
      "name": "getRoleMemberCount",
      "outputs": [
        {
          "internalType": "uint256",
          "name": "",
          "type": "uint256"
        }
      ],
      "stateMutability": "view",
      "type": "function"
    },
    {
      "inputs": [
        {
          "internalType": "bytes32",
          "name": "role",
          "type": "bytes32"
        },
        {
          "internalType": "address",
          "name": "account",
          "type": "address"
        }
      ],
      "name": "grantRole",
      "outputs": [],
      "stateMutability": "nonpayable",
      "type": "function"
    },
    {
      "inputs": [
        {
          "internalType": "bytes32",
          "name": "role",
          "type": "bytes32"
        },
        {
          "internalType": "address",
          "name": "account",
          "type": "address"
        }
      ],
      "name": "hasRole",
      "outputs": [
        {
          "internalType": "bool",
          "name": "",
          "type": "bool"
        }
      ],
      "stateMutability": "view",
      "type": "function"
    },
    {
      "inputs": [
        {
          "internalType": "bytes32",
          "name": "role",
          "type": "bytes32"
        },
        {
          "internalType": "address",
          "name": "account",
          "type": "address"
        }
      ],
      "name": "renounceRole",
      "outputs": [],
      "stateMutability": "nonpayable",
      "type": "function"
    },
    {
      "inputs": [
        {
          "internalType": "bytes32",
          "name": "role",
          "type": "bytes32"
        },
        {
          "internalType": "address",
          "name": "account",
          "type": "address"
        }
      ],
      "name": "revokeRole",
      "outputs": [],
      "stateMutability": "nonpayable",
      "type": "function"
    },
    {
      "inputs": [
        {
          "internalType": "string",
          "name": "info",
          "type": "string"
        }
      ],
      "name": "setInfo",
      "outputs": [],
      "stateMutability": "nonpayable",
      "type": "function"
    },
    {
      "inputs": [
        {
          "internalType": "uint256",
          "name": "_fee",
          "type": "uint256"
        }
      ],
      "name": "setVIPfee",
      "outputs": [],
      "stateMutability": "nonpayable",
      "type": "function"
    },
    {
      "inputs": [
        {
          "internalType": "address",
          "name": "_presenter",
          "type": "address"
        },
        {
          "internalType": "string",
          "name": "_username",
          "type": "string"
        },
        {
          "internalType": "string",
          "name": "_info",
          "type": "string"
        }
      ],
      "name": "signIn",
      "outputs": [],
      "stateMutability": "nonpayable",
      "type": "function"
    },
    {
      "inputs": [
        {
          "internalType": "address",
          "name": "presenter",
          "type": "address"
        },
        {
          "internalType": "string",
          "name": "username",
          "type": "string"
        },
        {
          "internalType": "string",
          "name": "info",
          "type": "string"
        }
      ],
      "name": "signInVIP",
      "outputs": [],
      "stateMutability": "payable",
      "type": "function"
    },
    {
      "inputs": [
        {
          "internalType": "bytes4",
          "name": "interfaceId",
          "type": "bytes4"
        }
      ],
      "name": "supportsInterface",
      "outputs": [
        {
          "internalType": "bool",
          "name": "",
          "type": "bool"
        }
      ],
      "stateMutability": "view",
      "type": "function"
    },
    {
      "inputs": [
        {
          "internalType": "address",
          "name": "userAddr",
          "type": "address"
        }
      ],
      "name": "userInfo",
      "outputs": [
        {
          "internalType": "string",
          "name": "username",
          "type": "string"
        },
        {
          "internalType": "string",
          "name": "info",
          "type": "string"
        },
        {
          "internalType": "bool",
          "name": "isVIP",
          "type": "bool"
        }
      ],
      "stateMutability": "view",
      "type": "function"
    },
    {
      "inputs": [
        {
          "internalType": "string",
          "name": "",
          "type": "string"
        }
      ],
      "name": "userToAddr",
      "outputs": [
        {
          "internalType": "address",
          "name": "",
          "type": "address"
        }
      ],
      "stateMutability": "view",
      "type": "function"
    },
    {
      "inputs": [],
      "name": "withdraw",
      "outputs": [],
      "stateMutability": "nonpayable",
      "type": "function"
    }
  ],
  "bytecode": "0x60806040523480156200001157600080fd5b50620000366000801b6200002a620000be60201b60201c565b620000c660201b60201c565b620000777fa49807205ce4d355092ef5a8a18f56e8913cf4a201fbe287825b095693c217756200006b620000be60201b60201c565b620000c660201b60201c565b620000b87f6857e419e8b269dc8dab45354d35c4655bcf3ccaac9a506b459c9b706445a8ae620000ac620000be60201b60201c565b620000c660201b60201c565b62000354565b600033905090565b620000dd82826200010e60201b6200102b1760201c565b6200010981600160008581526020019081526020016000206200012460201b620010391790919060201c565b505050565b6200012082826200015c60201b60201c565b5050565b600062000154836000018373ffffffffffffffffffffffffffffffffffffffff1660001b6200024d60201b60201c565b905092915050565b6200016e8282620002c760201b60201c565b6200024957600160008084815260200190815260200160002060000160008373ffffffffffffffffffffffffffffffffffffffff1673ffffffffffffffffffffffffffffffffffffffff16815260200190815260200160002060006101000a81548160ff021916908315150217905550620001ee620000be60201b60201c565b73ffffffffffffffffffffffffffffffffffffffff168173ffffffffffffffffffffffffffffffffffffffff16837f2f8788117e7eff1d82e926ec794901d17c78024a50270940304540a733656f0d60405160405180910390a45b5050565b60006200026183836200033160201b60201c565b620002bc578260000182908060018154018082558091505060019003906000526020600020016000909190919091505582600001805490508360010160008481526020019081526020016000208190555060019050620002c1565b600090505b92915050565b600080600084815260200190815260200160002060000160008373ffffffffffffffffffffffffffffffffffffffff1673ffffffffffffffffffffffffffffffffffffffff16815260200190815260200160002060009054906101000a900460ff16905092915050565b600080836001016000848152602001908152602001600020541415905092915050565b612a1080620003646000396000f3fe60806040526004361061011f5760003560e01c806391d14854116100a0578063d1204ea911610064578063d1204ea91461040f578063d547741f1461042b578063e5f3880114610454578063eef0d8d714610491578063f769d313146104ba5761011f565b806391d1485414610302578063937f6e771461033f578063a217fddf14610368578063ca15c87314610393578063cfcddeb0146103d05761011f565b806336568abe116100e757806336568abe146102315780633ccfd60b1461025a5780635e4e21871461027157806375b238fc1461029a5780639010d07c146102c55761011f565b806301ffc9a7146101245780631959a0021461016157806320721624146101a0578063248a9ca3146101cb5780632f2ff15d14610208575b600080fd5b34801561013057600080fd5b5061014b60048036038101906101469190611c54565b6104e5565b6040516101589190611c9c565b60405180910390f35b34801561016d57600080fd5b5061018860048036038101906101839190611d15565b61055f565b60405161019793929190611ddb565b60405180910390f35b3480156101ac57600080fd5b506101b561075d565b6040516101c29190611e39565b60405180910390f35b3480156101d757600080fd5b506101f260048036038101906101ed9190611e8a565b610763565b6040516101ff9190611ec6565b60405180910390f35b34801561021457600080fd5b5061022f600480360381019061022a9190611ee1565b610782565b005b34801561023d57600080fd5b5061025860048036038101906102539190611ee1565b6107b6565b005b34801561026657600080fd5b5061026f6107ea565b005b34801561027d57600080fd5b5061029860048036038101906102939190611f4d565b610893565b005b3480156102a657600080fd5b506102af61090d565b6040516102bc9190611ec6565b60405180910390f35b3480156102d157600080fd5b506102ec60048036038101906102e79190611f7a565b610931565b6040516102f99190611fc9565b60405180910390f35b34801561030e57600080fd5b5061032960048036038101906103249190611ee1565b610960565b6040516103369190611c9c565b60405180910390f35b34801561034b57600080fd5b5061036660048036038101906103619190612119565b6109ca565b005b34801561037457600080fd5b5061037d610b5e565b60405161038a9190611ec6565b60405180910390f35b34801561039f57600080fd5b506103ba60048036038101906103b59190611e8a565b610b65565b6040516103c79190611e39565b60405180910390f35b3480156103dc57600080fd5b506103f760048036038101906103f29190611d15565b610b89565b60405161040693929190611ddb565b60405180910390f35b61042960048036038101906104249190612162565b610cd0565b005b34801561043757600080fd5b50610452600480360381019061044d9190611ee1565b610db8565b005b34801561046057600080fd5b5061047b60048036038101906104769190612119565b610dec565b6040516104889190611fc9565b60405180910390f35b34801561049d57600080fd5b506104b860048036038101906104b39190612162565b610e35565b005b3480156104c657600080fd5b506104cf611007565b6040516104dc9190611ec6565b60405180910390f35b60007f5a05180f000000000000000000000000000000000000000000000000000000007bffffffffffffffffffffffffffffffffffffffffffffffffffffffff1916827bffffffffffffffffffffffffffffffffffffffffffffffffffffffff19161480610558575061055782611069565b5b9050919050565b6060806000600460008573ffffffffffffffffffffffffffffffffffffffff1673ffffffffffffffffffffffffffffffffffffffff168152602001908152602001600020600001600460008673ffffffffffffffffffffffffffffffffffffffff1673ffffffffffffffffffffffffffffffffffffffff168152602001908152602001600020600101600460008773ffffffffffffffffffffffffffffffffffffffff1673ffffffffffffffffffffffffffffffffffffffff16815260200190815260200160002060020160009054906101000a900460ff168280546106449061221c565b80601f01602080910402602001604051908101604052809291908181526020018280546106709061221c565b80156106bd5780601f10610692576101008083540402835291602001916106bd565b820191906000526020600020905b8154815290600101906020018083116106a057829003601f168201915b505050505092508180546106d09061221c565b80601f01602080910402602001604051908101604052809291908181526020018280546106fc9061221c565b80156107495780601f1061071e57610100808354040283529160200191610749565b820191906000526020600020905b81548152906001019060200180831161072c57829003601f168201915b505050505091509250925092509193909250565b60035481565b6000806000838152602001908152602001600020600101549050919050565b61078c82826110e3565b6107b1816001600085815260200190815260200160002061103990919063ffffffff16565b505050565b6107c0828261110c565b6107e5816001600085815260200190815260200160002061118f90919063ffffffff16565b505050565b6107fe6000801b6107f96111bf565b610960565b61083d576040517f08c379a0000000000000000000000000000000000000000000000000000000008152600401610834906122c0565b60405180910390fd5b60006108476111bf565b90508073ffffffffffffffffffffffffffffffffffffffff166108fc479081150290604051600060405180830381858888f1935050505015801561088f573d6000803e3d6000fd5b5050565b6108c47fa49807205ce4d355092ef5a8a18f56e8913cf4a201fbe287825b095693c217756108bf6111bf565b610960565b610903576040517f08c379a00000000000000000000000000000000000000000000000000000000081526004016108fa906122c0565b60405180910390fd5b8060038190555050565b7fa49807205ce4d355092ef5a8a18f56e8913cf4a201fbe287825b095693c2177581565b600061095882600160008681526020019081526020016000206111c790919063ffffffff16565b905092915050565b600080600084815260200190815260200160002060000160008373ffffffffffffffffffffffffffffffffffffffff1673ffffffffffffffffffffffffffffffffffffffff16815260200190815260200160002060009054906101000a900460ff16905092915050565b6000600460006109d86111bf565b73ffffffffffffffffffffffffffffffffffffffff1673ffffffffffffffffffffffffffffffffffffffff1681526020019081526020016000206000018054610a209061221c565b90501415610a63576040517f08c379a0000000000000000000000000000000000000000000000000000000008152600401610a5a9061232c565b60405180910390fd5b600081511415610aa8576040517f08c379a0000000000000000000000000000000000000000000000000000000008152600401610a9f90612398565b60405180910390fd5b8060046000610ab56111bf565b73ffffffffffffffffffffffffffffffffffffffff1673ffffffffffffffffffffffffffffffffffffffff1681526020019081526020016000206001019080519060200190610b05929190611b45565b50610b0e6111bf565b73ffffffffffffffffffffffffffffffffffffffff167fed2dc10fbb70c5dca9665145aee8b5f838c00bd7fe21abfe08513209a53bfd0482604051610b5391906123b8565b60405180910390a250565b6000801b81565b6000610b82600160008481526020019081526020016000206111e1565b9050919050565b6004602052806000526040600020600091509050806000018054610bac9061221c565b80601f0160208091040260200160405190810160405280929190818152602001828054610bd89061221c565b8015610c255780601f10610bfa57610100808354040283529160200191610c25565b820191906000526020600020905b815481529060010190602001808311610c0857829003601f168201915b505050505090806001018054610c3a9061221c565b80601f0160208091040260200160405190810160405280929190818152602001828054610c669061221c565b8015610cb35780601f10610c8857610100808354040283529160200191610cb3565b820191906000526020600020905b815481529060010190602001808311610c9657829003601f168201915b5050505050908060020160009054906101000a900460ff16905083565b600354341015610d15576040517f08c379a0000000000000000000000000000000000000000000000000000000008152600401610d0c90612426565b60405180910390fd5b610d20838383610e35565b610d517f6857e419e8b269dc8dab45354d35c4655bcf3ccaac9a506b459c9b706445a8ae610d4c6111bf565b6111f6565b600160046000610d5f6111bf565b73ffffffffffffffffffffffffffffffffffffffff1673ffffffffffffffffffffffffffffffffffffffff16815260200190815260200160002060020160006101000a81548160ff021916908315150217905550505050565b610dc2828261122a565b610de7816001600085815260200190815260200160002061118f90919063ffffffff16565b505050565b6005818051602081018201805184825260208301602085012081835280955050505050506000915054906101000a900473ffffffffffffffffffffffffffffffffffffffff1681565b600060046000610e436111bf565b73ffffffffffffffffffffffffffffffffffffffff1673ffffffffffffffffffffffffffffffffffffffff1681526020019081526020016000206000018054610e8b9061221c565b905014610ecd576040517f08c379a0000000000000000000000000000000000000000000000000000000008152600401610ec490612492565b60405180910390fd5b600073ffffffffffffffffffffffffffffffffffffffff168373ffffffffffffffffffffffffffffffffffffffff1614158015610f3d5750610f0d6111bf565b73ffffffffffffffffffffffffffffffffffffffff168373ffffffffffffffffffffffffffffffffffffffff1614155b610f7c576040517f08c379a0000000000000000000000000000000000000000000000000000000008152600401610f73906124fe565b60405180910390fd5b6002610f866111bf565b9080600181540180825580915050600190039060005260206000200160009091909190916101000a81548173ffffffffffffffffffffffffffffffffffffffff021916908373ffffffffffffffffffffffffffffffffffffffff160217905550610fef82611253565b600081511461100257611001816109ca565b5b505050565b7f6857e419e8b269dc8dab45354d35c4655bcf3ccaac9a506b459c9b706445a8ae81565b611035828261145e565b5050565b6000611061836000018373ffffffffffffffffffffffffffffffffffffffff1660001b61153e565b905092915050565b60007f7965db0b000000000000000000000000000000000000000000000000000000007bffffffffffffffffffffffffffffffffffffffffffffffffffffffff1916827bffffffffffffffffffffffffffffffffffffffffffffffffffffffff191614806110dc57506110db826115ae565b5b9050919050565b6110ec82610763565b6110fd816110f86111bf565b611618565b611107838361145e565b505050565b6111146111bf565b73ffffffffffffffffffffffffffffffffffffffff168173ffffffffffffffffffffffffffffffffffffffff1614611181576040517f08c379a000000000000000000000000000000000000000000000000000000000815260040161117890612590565b60405180910390fd5b61118b82826116b5565b5050565b60006111b7836000018373ffffffffffffffffffffffffffffffffffffffff1660001b611796565b905092915050565b600033905090565b60006111d683600001836118aa565b60001c905092915050565b60006111ef826000016118d5565b9050919050565b611200828261102b565b611225816001600085815260200190815260200160002061103990919063ffffffff16565b505050565b61123382610763565b6112448161123f6111bf565b611618565b61124e83836116b5565b505050565b600073ffffffffffffffffffffffffffffffffffffffff1660058260405161127b91906125ec565b908152602001604051809103902060009054906101000a900473ffffffffffffffffffffffffffffffffffffffff1673ffffffffffffffffffffffffffffffffffffffff1614611300576040517f08c379a00000000000000000000000000000000000000000000000000000000081526004016112f790612675565b60405180910390fd5b6000815111611344576040517f08c379a000000000000000000000000000000000000000000000000000000000815260040161133b906126e1565b60405180910390fd5b80600460006113516111bf565b73ffffffffffffffffffffffffffffffffffffffff1673ffffffffffffffffffffffffffffffffffffffff16815260200190815260200160002060000190805190602001906113a1929190611b45565b506113aa6111bf565b6005826040516113ba91906125ec565b908152602001604051809103902060006101000a81548173ffffffffffffffffffffffffffffffffffffffff021916908373ffffffffffffffffffffffffffffffffffffffff16021790555061140e6111bf565b73ffffffffffffffffffffffffffffffffffffffff167f0a2abf815300d275c4387b4e1f4e74e0cd938c5301ff1223061fdc158e12f04c8260405161145391906123b8565b60405180910390a250565b6114688282610960565b61153a57600160008084815260200190815260200160002060000160008373ffffffffffffffffffffffffffffffffffffffff1673ffffffffffffffffffffffffffffffffffffffff16815260200190815260200160002060006101000a81548160ff0219169083151502179055506114df6111bf565b73ffffffffffffffffffffffffffffffffffffffff168173ffffffffffffffffffffffffffffffffffffffff16837f2f8788117e7eff1d82e926ec794901d17c78024a50270940304540a733656f0d60405160405180910390a45b5050565b600061154a83836118e6565b6115a35782600001829080600181540180825580915050600190039060005260206000200160009091909190915055826000018054905083600101600084815260200190815260200160002081905550600190506115a8565b600090505b92915050565b60007f01ffc9a7000000000000000000000000000000000000000000000000000000007bffffffffffffffffffffffffffffffffffffffffffffffffffffffff1916827bffffffffffffffffffffffffffffffffffffffffffffffffffffffff1916149050919050565b6116228282610960565b6116b1576116478173ffffffffffffffffffffffffffffffffffffffff166014611909565b6116558360001c6020611909565b604051602001611666929190612799565b6040516020818303038152906040526040517f08c379a00000000000000000000000000000000000000000000000000000000081526004016116a891906123b8565b60405180910390fd5b5050565b6116bf8282610960565b1561179257600080600084815260200190815260200160002060000160008373ffffffffffffffffffffffffffffffffffffffff1673ffffffffffffffffffffffffffffffffffffffff16815260200190815260200160002060006101000a81548160ff0219169083151502179055506117376111bf565b73ffffffffffffffffffffffffffffffffffffffff168173ffffffffffffffffffffffffffffffffffffffff16837ff6391f5c32d9c69d2a47ea670b442974b53935d1edc7fd64eb21e047a839171b60405160405180910390a45b5050565b6000808360010160008481526020019081526020016000205490506000811461189e5760006001826117c89190612802565b90506000600186600001805490506117e09190612802565b905081811461184f57600086600001828154811061180157611800612836565b5b906000526020600020015490508087600001848154811061182557611824612836565b5b90600052602060002001819055508387600101600083815260200190815260200160002081905550505b8560000180548061186357611862612865565b5b6001900381819060005260206000200160009055905585600101600086815260200190815260200160002060009055600193505050506118a4565b60009150505b92915050565b60008260000182815481106118c2576118c1612836565b5b9060005260206000200154905092915050565b600081600001805490509050919050565b600080836001016000848152602001908152602001600020541415905092915050565b60606000600283600261191c9190612894565b61192691906128ee565b67ffffffffffffffff81111561193f5761193e611fee565b5b6040519080825280601f01601f1916602001820160405280156119715781602001600182028036833780820191505090505b5090507f3000000000000000000000000000000000000000000000000000000000000000816000815181106119a9576119a8612836565b5b60200101907effffffffffffffffffffffffffffffffffffffffffffffffffffffffffffff1916908160001a9053507f780000000000000000000000000000000000000000000000000000000000000081600181518110611a0d57611a0c612836565b5b60200101907effffffffffffffffffffffffffffffffffffffffffffffffffffffffffffff1916908160001a90535060006001846002611a4d9190612894565b611a5791906128ee565b90505b6001811115611af7577f3031323334353637383961626364656600000000000000000000000000000000600f861660108110611a9957611a98612836565b5b1a60f81b828281518110611ab057611aaf612836565b5b60200101907effffffffffffffffffffffffffffffffffffffffffffffffffffffffffffff1916908160001a905350600485901c945080611af090612944565b9050611a5a565b5060008414611b3b576040517f08c379a0000000000000000000000000000000000000000000000000000000008152600401611b32906129ba565b60405180910390fd5b8091505092915050565b828054611b519061221c565b90600052602060002090601f016020900481019282611b735760008555611bba565b82601f10611b8c57805160ff1916838001178555611bba565b82800160010185558215611bba579182015b82811115611bb9578251825591602001919060010190611b9e565b5b509050611bc79190611bcb565b5090565b5b80821115611be4576000816000905550600101611bcc565b5090565b6000604051905090565b600080fd5b600080fd5b60007fffffffff0000000000000000000000000000000000000000000000000000000082169050919050565b611c3181611bfc565b8114611c3c57600080fd5b50565b600081359050611c4e81611c28565b92915050565b600060208284031215611c6a57611c69611bf2565b5b6000611c7884828501611c3f565b91505092915050565b60008115159050919050565b611c9681611c81565b82525050565b6000602082019050611cb16000830184611c8d565b92915050565b600073ffffffffffffffffffffffffffffffffffffffff82169050919050565b6000611ce282611cb7565b9050919050565b611cf281611cd7565b8114611cfd57600080fd5b50565b600081359050611d0f81611ce9565b92915050565b600060208284031215611d2b57611d2a611bf2565b5b6000611d3984828501611d00565b91505092915050565b600081519050919050565b600082825260208201905092915050565b60005b83811015611d7c578082015181840152602081019050611d61565b83811115611d8b576000848401525b50505050565b6000601f19601f8301169050919050565b6000611dad82611d42565b611db78185611d4d565b9350611dc7818560208601611d5e565b611dd081611d91565b840191505092915050565b60006060820190508181036000830152611df58186611da2565b90508181036020830152611e098185611da2565b9050611e186040830184611c8d565b949350505050565b6000819050919050565b611e3381611e20565b82525050565b6000602082019050611e4e6000830184611e2a565b92915050565b6000819050919050565b611e6781611e54565b8114611e7257600080fd5b50565b600081359050611e8481611e5e565b92915050565b600060208284031215611ea057611e9f611bf2565b5b6000611eae84828501611e75565b91505092915050565b611ec081611e54565b82525050565b6000602082019050611edb6000830184611eb7565b92915050565b60008060408385031215611ef857611ef7611bf2565b5b6000611f0685828601611e75565b9250506020611f1785828601611d00565b9150509250929050565b611f2a81611e20565b8114611f3557600080fd5b50565b600081359050611f4781611f21565b92915050565b600060208284031215611f6357611f62611bf2565b5b6000611f7184828501611f38565b91505092915050565b60008060408385031215611f9157611f90611bf2565b5b6000611f9f85828601611e75565b9250506020611fb085828601611f38565b9150509250929050565b611fc381611cd7565b82525050565b6000602082019050611fde6000830184611fba565b92915050565b600080fd5b600080fd5b7f4e487b7100000000000000000000000000000000000000000000000000000000600052604160045260246000fd5b61202682611d91565b810181811067ffffffffffffffff8211171561204557612044611fee565b5b80604052505050565b6000612058611be8565b9050612064828261201d565b919050565b600067ffffffffffffffff82111561208457612083611fee565b5b61208d82611d91565b9050602081019050919050565b82818337600083830152505050565b60006120bc6120b784612069565b61204e565b9050828152602081018484840111156120d8576120d7611fe9565b5b6120e384828561209a565b509392505050565b600082601f830112612100576120ff611fe4565b5b81356121108482602086016120a9565b91505092915050565b60006020828403121561212f5761212e611bf2565b5b600082013567ffffffffffffffff81111561214d5761214c611bf7565b5b612159848285016120eb565b91505092915050565b60008060006060848603121561217b5761217a611bf2565b5b600061218986828701611d00565b935050602084013567ffffffffffffffff8111156121aa576121a9611bf7565b5b6121b6868287016120eb565b925050604084013567ffffffffffffffff8111156121d7576121d6611bf7565b5b6121e3868287016120eb565b9150509250925092565b7f4e487b7100000000000000000000000000000000000000000000000000000000600052602260045260246000fd5b6000600282049050600182168061223457607f821691505b60208210811415612248576122476121ed565b5b50919050565b7f6d75737420686176652041646d696e20726f6c6520746f2063616c6c2074686960008201527f732066756e6374696f6e00000000000000000000000000000000000000000000602082015250565b60006122aa602a83611d4d565b91506122b58261224e565b604082019050919050565b600060208201905081810360008301526122d98161229d565b9050919050565b7f796f75206861766520746f207369676e20696e20666972737400000000000000600082015250565b6000612316601983611d4d565b9150612321826122e0565b602082019050919050565b6000602082019050818103600083015261234581612309565b9050919050565b7f656d70747920696e666f00000000000000000000000000000000000000000000600082015250565b6000612382600a83611d4d565b915061238d8261234c565b602082019050919050565b600060208201905081810360008301526123b181612375565b9050919050565b600060208201905081810360008301526123d28184611da2565b905092915050565b7f746869732066756e6374696f6e2069732050617961626c650000000000000000600082015250565b6000612410601883611d4d565b915061241b826123da565b602082019050919050565b6000602082019050818103600083015261243f81612403565b9050919050565b7f7573657220686173207369676e656420696e206265666f726500000000000000600082015250565b600061247c601983611d4d565b915061248782612446565b602082019050919050565b600060208201905081810360008301526124ab8161246f565b9050919050565b7f77726f6e672070726573656e746572206164647265737320656e746572656400600082015250565b60006124e8601f83611d4d565b91506124f3826124b2565b602082019050919050565b60006020820190508181036000830152612517816124db565b9050919050565b7f416363657373436f6e74726f6c3a2063616e206f6e6c792072656e6f756e636560008201527f20726f6c657320666f722073656c660000000000000000000000000000000000602082015250565b600061257a602f83611d4d565b91506125858261251e565b604082019050919050565b600060208201905081810360008301526125a98161256d565b9050919050565b600081905092915050565b60006125c682611d42565b6125d081856125b0565b93506125e0818560208601611d5e565b80840191505092915050565b60006125f882846125bb565b915081905092915050565b7f7468697320757365726e616d6520686173206265656e2075736564206265666f60008201527f7265000000000000000000000000000000000000000000000000000000000000602082015250565b600061265f602283611d4d565b915061266a82612603565b604082019050919050565b6000602082019050818103600083015261268e81612652565b9050919050565b7f736574206120757365726e616d65000000000000000000000000000000000000600082015250565b60006126cb600e83611d4d565b91506126d682612695565b602082019050919050565b600060208201905081810360008301526126fa816126be565b9050919050565b7f416363657373436f6e74726f6c3a206163636f756e7420000000000000000000600082015250565b60006127376017836125b0565b915061274282612701565b601782019050919050565b7f206973206d697373696e6720726f6c6520000000000000000000000000000000600082015250565b60006127836011836125b0565b915061278e8261274d565b601182019050919050565b60006127a48261272a565b91506127b082856125bb565b91506127bb82612776565b91506127c782846125bb565b91508190509392505050565b7f4e487b7100000000000000000000000000000000000000000000000000000000600052601160045260246000fd5b600061280d82611e20565b915061281883611e20565b92508282101561282b5761282a6127d3565b5b828203905092915050565b7f4e487b7100000000000000000000000000000000000000000000000000000000600052603260045260246000fd5b7f4e487b7100000000000000000000000000000000000000000000000000000000600052603160045260246000fd5b600061289f82611e20565b91506128aa83611e20565b9250817fffffffffffffffffffffffffffffffffffffffffffffffffffffffffffffffff04831182151516156128e3576128e26127d3565b5b828202905092915050565b60006128f982611e20565b915061290483611e20565b9250827fffffffffffffffffffffffffffffffffffffffffffffffffffffffffffffffff03821115612939576129386127d3565b5b828201905092915050565b600061294f82611e20565b91506000821415612963576129626127d3565b5b600182039050919050565b7f537472696e67733a20686578206c656e67746820696e73756666696369656e74600082015250565b60006129a4602083611d4d565b91506129af8261296e565b602082019050919050565b600060208201905081810360008301526129d381612997565b905091905056fea2646970667358221220c63a26e3e0cd30471fb08832185839f13f655f4374424978b98a6ea808e867d764736f6c63430008090033",
  "linkReferences": {},
  "deployedLinkReferences": {}
}