{
  "_format": "hh-sol-artifact-1",
  "contractName": "ERC20UUPS",
  "sourceName": "contracts/ERC20/ERC20UUPS.sol",
  "abi": [
    {
      "inputs": [],
      "stateMutability": "nonpayable",
      "type": "constructor"
    },
    {
      "anonymous": false,
      "inputs": [
        {
          "indexed": false,
          "internalType": "address",
          "name": "previousAdmin",
          "type": "address"
        },
        {
          "indexed": false,
          "internalType": "address",
          "name": "newAdmin",
          "type": "address"
        }
      ],
      "name": "AdminChanged",
      "type": "event"
    },
    {
      "anonymous": false,
      "inputs": [
        {
          "indexed": true,
          "internalType": "address",
          "name": "owner",
          "type": "address"
        },
        {
          "indexed": true,
          "internalType": "address",
          "name": "spender",
          "type": "address"
        },
        {
          "indexed": false,
          "internalType": "uint256",
          "name": "value",
          "type": "uint256"
        }
      ],
      "name": "Approval",
      "type": "event"
    },
    {
      "anonymous": false,
      "inputs": [
        {
          "indexed": true,
          "internalType": "address",
          "name": "beacon",
          "type": "address"
        }
      ],
      "name": "BeaconUpgraded",
      "type": "event"
    },
    {
      "anonymous": false,
      "inputs": [
        {
          "indexed": true,
          "internalType": "address",
          "name": "previousOwner",
          "type": "address"
        },
        {
          "indexed": true,
          "internalType": "address",
          "name": "newOwner",
          "type": "address"
        }
      ],
      "name": "OwnershipTransferred",
      "type": "event"
    },
    {
      "anonymous": false,
      "inputs": [
        {
          "indexed": true,
          "internalType": "address",
          "name": "from",
          "type": "address"
        },
        {
          "indexed": true,
          "internalType": "address",
          "name": "to",
          "type": "address"
        },
        {
          "indexed": false,
          "internalType": "uint256",
          "name": "value",
          "type": "uint256"
        }
      ],
      "name": "Transfer",
      "type": "event"
    },
    {
      "anonymous": false,
      "inputs": [
        {
          "indexed": true,
          "internalType": "address",
          "name": "implementation",
          "type": "address"
        }
      ],
      "name": "Upgraded",
      "type": "event"
    },
    {
      "inputs": [
        {
          "internalType": "address",
          "name": "owner",
          "type": "address"
        },
        {
          "internalType": "address",
          "name": "spender",
          "type": "address"
        }
      ],
      "name": "allowance",
      "outputs": [
        {
          "internalType": "uint256",
          "name": "",
          "type": "uint256"
        }
      ],
      "stateMutability": "view",
      "type": "function"
    },
    {
      "inputs": [
        {
          "internalType": "address",
          "name": "spender",
          "type": "address"
        },
        {
          "internalType": "uint256",
          "name": "amount",
          "type": "uint256"
        }
      ],
      "name": "approve",
      "outputs": [
        {
          "internalType": "bool",
          "name": "",
          "type": "bool"
        }
      ],
      "stateMutability": "nonpayable",
      "type": "function"
    },
    {
      "inputs": [
        {
          "internalType": "address",
          "name": "account",
          "type": "address"
        }
      ],
      "name": "balanceOf",
      "outputs": [
        {
          "internalType": "uint256",
          "name": "",
          "type": "uint256"
        }
      ],
      "stateMutability": "view",
      "type": "function"
    },
    {
      "inputs": [],
      "name": "decimals",
      "outputs": [
        {
          "internalType": "uint8",
          "name": "",
          "type": "uint8"
        }
      ],
      "stateMutability": "view",
      "type": "function"
    },
    {
      "inputs": [
        {
          "internalType": "address",
          "name": "spender",
          "type": "address"
        },
        {
          "internalType": "uint256",
          "name": "subtractedValue",
          "type": "uint256"
        }
      ],
      "name": "decreaseAllowance",
      "outputs": [
        {
          "internalType": "bool",
          "name": "",
          "type": "bool"
        }
      ],
      "stateMutability": "nonpayable",
      "type": "function"
    },
    {
      "inputs": [
        {
          "internalType": "address",
          "name": "spender",
          "type": "address"
        },
        {
          "internalType": "uint256",
          "name": "addedValue",
          "type": "uint256"
        }
      ],
      "name": "increaseAllowance",
      "outputs": [
        {
          "internalType": "bool",
          "name": "",
          "type": "bool"
        }
      ],
      "stateMutability": "nonpayable",
      "type": "function"
    },
    {
      "inputs": [],
      "name": "initialize",
      "outputs": [],
      "stateMutability": "nonpayable",
      "type": "function"
    },
    {
      "inputs": [
        {
          "internalType": "address",
          "name": "to",
          "type": "address"
        },
        {
          "internalType": "uint256",
          "name": "amount",
          "type": "uint256"
        }
      ],
      "name": "mint",
      "outputs": [],
      "stateMutability": "nonpayable",
      "type": "function"
    },
    {
      "inputs": [],
      "name": "name",
      "outputs": [
        {
          "internalType": "string",
          "name": "",
          "type": "string"
        }
      ],
      "stateMutability": "view",
      "type": "function"
    },
    {
      "inputs": [],
      "name": "owner",
      "outputs": [
        {
          "internalType": "address",
          "name": "",
          "type": "address"
        }
      ],
      "stateMutability": "view",
      "type": "function"
    },
    {
      "inputs": [],
      "name": "renounceOwnership",
      "outputs": [],
      "stateMutability": "nonpayable",
      "type": "function"
    },
    {
      "inputs": [],
      "name": "symbol",
      "outputs": [
        {
          "internalType": "string",
          "name": "",
          "type": "string"
        }
      ],
      "stateMutability": "view",
      "type": "function"
    },
    {
      "inputs": [],
      "name": "totalSupply",
      "outputs": [
        {
          "internalType": "uint256",
          "name": "",
          "type": "uint256"
        }
      ],
      "stateMutability": "view",
      "type": "function"
    },
    {
      "inputs": [
        {
          "internalType": "address",
          "name": "recipient",
          "type": "address"
        },
        {
          "internalType": "uint256",
          "name": "amount",
          "type": "uint256"
        }
      ],
      "name": "transfer",
      "outputs": [
        {
          "internalType": "bool",
          "name": "",
          "type": "bool"
        }
      ],
      "stateMutability": "nonpayable",
      "type": "function"
    },
    {
      "inputs": [
        {
          "internalType": "address",
          "name": "sender",
          "type": "address"
        },
        {
          "internalType": "address",
          "name": "recipient",
          "type": "address"
        },
        {
          "internalType": "uint256",
          "name": "amount",
          "type": "uint256"
        }
      ],
      "name": "transferFrom",
      "outputs": [
        {
          "internalType": "bool",
          "name": "",
          "type": "bool"
        }
      ],
      "stateMutability": "nonpayable",
      "type": "function"
    },
    {
      "inputs": [
        {
          "internalType": "address",
          "name": "newOwner",
          "type": "address"
        }
      ],
      "name": "transferOwnership",
      "outputs": [],
      "stateMutability": "nonpayable",
      "type": "function"
    },
    {
      "inputs": [
        {
          "internalType": "address",
          "name": "newImplementation",
          "type": "address"
        }
      ],
      "name": "upgradeTo",
      "outputs": [],
      "stateMutability": "nonpayable",
      "type": "function"
    },
    {
      "inputs": [
        {
          "internalType": "address",
          "name": "newImplementation",
          "type": "address"
        },
        {
          "internalType": "bytes",
          "name": "data",
          "type": "bytes"
        }
      ],
      "name": "upgradeToAndCall",
      "outputs": [],
      "stateMutability": "payable",
      "type": "function"
    }
  ],
  "bytecode": "0x60a06040523073ffffffffffffffffffffffffffffffffffffffff1660809073ffffffffffffffffffffffffffffffffffffffff168152503480156200004457600080fd5b50600060019054906101000a900460ff166200006f5760008054906101000a900460ff161562000080565b6200007f6200013c60201b60201c565b5b620000c2576040517f08c379a0000000000000000000000000000000000000000000000000000000008152600401620000b990620001f4565b60405180910390fd5b60008060019054906101000a900460ff16159050801562000113576001600060016101000a81548160ff02191690831515021790555060016000806101000a81548160ff0219169083151502179055505b8015620001355760008060016101000a81548160ff0219169083151502179055505b5062000216565b600062000154306200015a60201b62000f891760201c565b15905090565b600080823b905060008111915050919050565b600082825260208201905092915050565b7f496e697469616c697a61626c653a20636f6e747261637420697320616c72656160008201527f647920696e697469616c697a6564000000000000000000000000000000000000602082015250565b6000620001dc602e836200016d565b9150620001e9826200017e565b604082019050919050565b600060208201905081810360008301526200020f81620001cd565b9050919050565b608051612e9e6200024760003960008181610612015281816106a1015281816108d101526109600152612e9e6000f3fe6080604052600436106101095760003560e01c806370a082311161009557806395d89b411161006457806395d89b411461034a578063a457c2d714610375578063a9059cbb146103b2578063dd62ed3e146103ef578063f2fde38b1461042c57610109565b806370a08231146102b4578063715018a6146102f15780638129fc1c146103085780638da5cb5b1461031f57610109565b8063313ce567116100dc578063313ce567146101de5780633659cfe614610209578063395093511461023257806340c10f191461026f5780634f1ef2861461029857610109565b806306fdde031461010e578063095ea7b31461013957806318160ddd1461017657806323b872dd146101a1575b600080fd5b34801561011a57600080fd5b50610123610455565b6040516101309190611f7b565b60405180910390f35b34801561014557600080fd5b50610160600480360381019061015b9190612045565b6104e7565b60405161016d91906120a0565b60405180910390f35b34801561018257600080fd5b5061018b610505565b60405161019891906120ca565b60405180910390f35b3480156101ad57600080fd5b506101c860048036038101906101c391906120e5565b61050f565b6040516101d591906120a0565b60405180910390f35b3480156101ea57600080fd5b506101f3610607565b6040516102009190612154565b60405180910390f35b34801561021557600080fd5b50610230600480360381019061022b919061216f565b610610565b005b34801561023e57600080fd5b5061025960048036038101906102549190612045565b610799565b60405161026691906120a0565b60405180910390f35b34801561027b57600080fd5b5061029660048036038101906102919190612045565b610845565b005b6102b260048036038101906102ad91906122d1565b6108cf565b005b3480156102c057600080fd5b506102db60048036038101906102d6919061216f565b610a0c565b6040516102e891906120ca565b60405180910390f35b3480156102fd57600080fd5b50610306610a55565b005b34801561031457600080fd5b5061031d610add565b005b34801561032b57600080fd5b50610334610c45565b604051610341919061233c565b60405180910390f35b34801561035657600080fd5b5061035f610c6f565b60405161036c9190611f7b565b60405180910390f35b34801561038157600080fd5b5061039c60048036038101906103979190612045565b610d01565b6040516103a991906120a0565b60405180910390f35b3480156103be57600080fd5b506103d960048036038101906103d49190612045565b610dec565b6040516103e691906120a0565b60405180910390f35b3480156103fb57600080fd5b5061041660048036038101906104119190612357565b610e0a565b60405161042391906120ca565b60405180910390f35b34801561043857600080fd5b50610453600480360381019061044e919061216f565b610e91565b005b606060368054610464906123c6565b80601f0160208091040260200160405190810160405280929190818152602001828054610490906123c6565b80156104dd5780601f106104b2576101008083540402835291602001916104dd565b820191906000526020600020905b8154815290600101906020018083116104c057829003601f168201915b5050505050905090565b60006104fb6104f4610f9c565b8484610fa4565b6001905092915050565b6000603554905090565b600061051c84848461116f565b6000603460008673ffffffffffffffffffffffffffffffffffffffff1673ffffffffffffffffffffffffffffffffffffffff1681526020019081526020016000206000610567610f9c565b73ffffffffffffffffffffffffffffffffffffffff1673ffffffffffffffffffffffffffffffffffffffff168152602001908152602001600020549050828110156105e7576040517f08c379a00000000000000000000000000000000000000000000000000000000081526004016105de9061246a565b60405180910390fd5b6105fb856105f3610f9c565b858403610fa4565b60019150509392505050565b60006012905090565b7f000000000000000000000000000000000000000000000000000000000000000073ffffffffffffffffffffffffffffffffffffffff163073ffffffffffffffffffffffffffffffffffffffff16141561069f576040517f08c379a0000000000000000000000000000000000000000000000000000000008152600401610696906124fc565b60405180910390fd5b7f000000000000000000000000000000000000000000000000000000000000000073ffffffffffffffffffffffffffffffffffffffff166106de6113f3565b73ffffffffffffffffffffffffffffffffffffffff1614610734576040517f08c379a000000000000000000000000000000000000000000000000000000000815260040161072b9061258e565b60405180910390fd5b61073d8161144a565b61079681600067ffffffffffffffff81111561075c5761075b6121a6565b5b6040519080825280601f01601f19166020018201604052801561078e5781602001600182028036833780820191505090505b5060006114c9565b50565b600061083b6107a6610f9c565b8484603460006107b4610f9c565b73ffffffffffffffffffffffffffffffffffffffff1673ffffffffffffffffffffffffffffffffffffffff16815260200190815260200160002060008873ffffffffffffffffffffffffffffffffffffffff1673ffffffffffffffffffffffffffffffffffffffff1681526020019081526020016000205461083691906125dd565b610fa4565b6001905092915050565b61084d610f9c565b73ffffffffffffffffffffffffffffffffffffffff1661086b610c45565b73ffffffffffffffffffffffffffffffffffffffff16146108c1576040517f08c379a00000000000000000000000000000000000000000000000000000000081526004016108b89061267f565b60405180910390fd5b6108cb828261169a565b5050565b7f000000000000000000000000000000000000000000000000000000000000000073ffffffffffffffffffffffffffffffffffffffff163073ffffffffffffffffffffffffffffffffffffffff16141561095e576040517f08c379a0000000000000000000000000000000000000000000000000000000008152600401610955906124fc565b60405180910390fd5b7f000000000000000000000000000000000000000000000000000000000000000073ffffffffffffffffffffffffffffffffffffffff1661099d6113f3565b73ffffffffffffffffffffffffffffffffffffffff16146109f3576040517f08c379a00000000000000000000000000000000000000000000000000000000081526004016109ea9061258e565b60405180910390fd5b6109fc8261144a565b610a08828260016114c9565b5050565b6000603360008373ffffffffffffffffffffffffffffffffffffffff1673ffffffffffffffffffffffffffffffffffffffff168152602001908152602001600020549050919050565b610a5d610f9c565b73ffffffffffffffffffffffffffffffffffffffff16610a7b610c45565b73ffffffffffffffffffffffffffffffffffffffff1614610ad1576040517f08c379a0000000000000000000000000000000000000000000000000000000008152600401610ac89061267f565b60405180910390fd5b610adb60006117fb565b565b600060019054906101000a900460ff16610b055760008054906101000a900460ff1615610b0e565b610b0d6118c1565b5b610b4d576040517f08c379a0000000000000000000000000000000000000000000000000000000008152600401610b4490612711565b60405180910390fd5b60008060019054906101000a900460ff161590508015610b9d576001600060016101000a81548160ff02191690831515021790555060016000806101000a81548160ff0219169083151502179055505b610c116040518060400160405280600781526020017f4d79546f6b656e000000000000000000000000000000000000000000000000008152506040518060400160405280600381526020017f4d544b00000000000000000000000000000000000000000000000000000000008152506118d2565b610c19611937565b610c21611998565b8015610c425760008060016101000a81548160ff0219169083151502179055505b50565b6000606560009054906101000a900473ffffffffffffffffffffffffffffffffffffffff16905090565b606060378054610c7e906123c6565b80601f0160208091040260200160405190810160405280929190818152602001828054610caa906123c6565b8015610cf75780601f10610ccc57610100808354040283529160200191610cf7565b820191906000526020600020905b815481529060010190602001808311610cda57829003601f168201915b5050505050905090565b60008060346000610d10610f9c565b73ffffffffffffffffffffffffffffffffffffffff1673ffffffffffffffffffffffffffffffffffffffff16815260200190815260200160002060008573ffffffffffffffffffffffffffffffffffffffff1673ffffffffffffffffffffffffffffffffffffffff16815260200190815260200160002054905082811015610dcd576040517f08c379a0000000000000000000000000000000000000000000000000000000008152600401610dc4906127a3565b60405180910390fd5b610de1610dd8610f9c565b85858403610fa4565b600191505092915050565b6000610e00610df9610f9c565b848461116f565b6001905092915050565b6000603460008473ffffffffffffffffffffffffffffffffffffffff1673ffffffffffffffffffffffffffffffffffffffff16815260200190815260200160002060008373ffffffffffffffffffffffffffffffffffffffff1673ffffffffffffffffffffffffffffffffffffffff16815260200190815260200160002054905092915050565b610e99610f9c565b73ffffffffffffffffffffffffffffffffffffffff16610eb7610c45565b73ffffffffffffffffffffffffffffffffffffffff1614610f0d576040517f08c379a0000000000000000000000000000000000000000000000000000000008152600401610f049061267f565b60405180910390fd5b600073ffffffffffffffffffffffffffffffffffffffff168173ffffffffffffffffffffffffffffffffffffffff161415610f7d576040517f08c379a0000000000000000000000000000000000000000000000000000000008152600401610f7490612835565b60405180910390fd5b610f86816117fb565b50565b600080823b905060008111915050919050565b600033905090565b600073ffffffffffffffffffffffffffffffffffffffff168373ffffffffffffffffffffffffffffffffffffffff161415611014576040517f08c379a000000000000000000000000000000000000000000000000000000000815260040161100b906128c7565b60405180910390fd5b600073ffffffffffffffffffffffffffffffffffffffff168273ffffffffffffffffffffffffffffffffffffffff161415611084576040517f08c379a000000000000000000000000000000000000000000000000000000000815260040161107b90612959565b60405180910390fd5b80603460008573ffffffffffffffffffffffffffffffffffffffff1673ffffffffffffffffffffffffffffffffffffffff16815260200190815260200160002060008473ffffffffffffffffffffffffffffffffffffffff1673ffffffffffffffffffffffffffffffffffffffff168152602001908152602001600020819055508173ffffffffffffffffffffffffffffffffffffffff168373ffffffffffffffffffffffffffffffffffffffff167f8c5be1e5ebec7d5bd14f71427d1e84f3dd0314c0f7b2291e5b200ac8c7c3b9258360405161116291906120ca565b60405180910390a3505050565b600073ffffffffffffffffffffffffffffffffffffffff168373ffffffffffffffffffffffffffffffffffffffff1614156111df576040517f08c379a00000000000000000000000000000000000000000000000000000000081526004016111d6906129eb565b60405180910390fd5b600073ffffffffffffffffffffffffffffffffffffffff168273ffffffffffffffffffffffffffffffffffffffff16141561124f576040517f08c379a000000000000000000000000000000000000000000000000000000000815260040161124690612a7d565b60405180910390fd5b61125a8383836119f9565b6000603360008573ffffffffffffffffffffffffffffffffffffffff1673ffffffffffffffffffffffffffffffffffffffff168152602001908152602001600020549050818110156112e1576040517f08c379a00000000000000000000000000000000000000000000000000000000081526004016112d890612b0f565b60405180910390fd5b818103603360008673ffffffffffffffffffffffffffffffffffffffff1673ffffffffffffffffffffffffffffffffffffffff1681526020019081526020016000208190555081603360008573ffffffffffffffffffffffffffffffffffffffff1673ffffffffffffffffffffffffffffffffffffffff168152602001908152602001600020600082825461137691906125dd565b925050819055508273ffffffffffffffffffffffffffffffffffffffff168473ffffffffffffffffffffffffffffffffffffffff167fddf252ad1be2c89b69c2b068fc378daa952ba7f163c4a11628f55a4df523b3ef846040516113da91906120ca565b60405180910390a36113ed8484846119fe565b50505050565b60006114217f360894a13ba1a3210667c828492db98dca3e2076cc3735a920a3ca505d382bbc60001b611a03565b60000160009054906101000a900473ffffffffffffffffffffffffffffffffffffffff16905090565b611452610f9c565b73ffffffffffffffffffffffffffffffffffffffff16611470610c45565b73ffffffffffffffffffffffffffffffffffffffff16146114c6576040517f08c379a00000000000000000000000000000000000000000000000000000000081526004016114bd9061267f565b60405180910390fd5b50565b60006114d36113f3565b90506114de84611a0d565b6000835111806114eb5750815b156114fc576114fa8484611ac6565b505b600061152a7f4910fdfa16fed3260ed0e7147f7cc6da11a60208b5b9406d12a635614ffd914360001b611baa565b90508060000160009054906101000a900460ff166116935760018160000160006101000a81548160ff0219169083151502179055506115f68583604051602401611574919061233c565b6040516020818303038152906040527f3659cfe6000000000000000000000000000000000000000000000000000000007bffffffffffffffffffffffffffffffffffffffffffffffffffffffff19166020820180517bffffffffffffffffffffffffffffffffffffffffffffffffffffffff8381831617835250505050611ac6565b5060008160000160006101000a81548160ff02191690831515021790555061161c6113f3565b73ffffffffffffffffffffffffffffffffffffffff168273ffffffffffffffffffffffffffffffffffffffff1614611689576040517f08c379a000000000000000000000000000000000000000000000000000000000815260040161168090612ba1565b60405180910390fd5b61169285611bb4565b5b5050505050565b600073ffffffffffffffffffffffffffffffffffffffff168273ffffffffffffffffffffffffffffffffffffffff16141561170a576040517f08c379a000000000000000000000000000000000000000000000000000000000815260040161170190612c0d565b60405180910390fd5b611716600083836119f9565b806035600082825461172891906125dd565b9250508190555080603360008473ffffffffffffffffffffffffffffffffffffffff1673ffffffffffffffffffffffffffffffffffffffff168152602001908152602001600020600082825461177e91906125dd565b925050819055508173ffffffffffffffffffffffffffffffffffffffff16600073ffffffffffffffffffffffffffffffffffffffff167fddf252ad1be2c89b69c2b068fc378daa952ba7f163c4a11628f55a4df523b3ef836040516117e391906120ca565b60405180910390a36117f7600083836119fe565b5050565b6000606560009054906101000a900473ffffffffffffffffffffffffffffffffffffffff16905081606560006101000a81548173ffffffffffffffffffffffffffffffffffffffff021916908373ffffffffffffffffffffffffffffffffffffffff1602179055508173ffffffffffffffffffffffffffffffffffffffff168173ffffffffffffffffffffffffffffffffffffffff167f8be0079c531659141344cd1fd0a4f28419497f9722a3daafe3b4186f6b6457e060405160405180910390a35050565b60006118cc30610f89565b15905090565b600060019054906101000a900460ff16611921576040517f08c379a000000000000000000000000000000000000000000000000000000000815260040161191890612c9f565b60405180910390fd5b611929611c03565b6119338282611c54565b5050565b600060019054906101000a900460ff16611986576040517f08c379a000000000000000000000000000000000000000000000000000000000815260040161197d90612c9f565b60405180910390fd5b61198e611c03565b611996611cd5565b565b600060019054906101000a900460ff166119e7576040517f08c379a00000000000000000000000000000000000000000000000000000000081526004016119de90612c9f565b60405180910390fd5b6119ef611d36565b6119f7611d87565b565b505050565b505050565b6000819050919050565b611a1681610f89565b611a55576040517f08c379a0000000000000000000000000000000000000000000000000000000008152600401611a4c90612d31565b60405180910390fd5b80611a827f360894a13ba1a3210667c828492db98dca3e2076cc3735a920a3ca505d382bbc60001b611a03565b60000160006101000a81548173ffffffffffffffffffffffffffffffffffffffff021916908373ffffffffffffffffffffffffffffffffffffffff16021790555050565b6060611ad183610f89565b611b10576040517f08c379a0000000000000000000000000000000000000000000000000000000008152600401611b0790612dc3565b60405180910390fd5b6000808473ffffffffffffffffffffffffffffffffffffffff1684604051611b389190612e2a565b600060405180830381855af49150503d8060008114611b73576040519150601f19603f3d011682016040523d82523d6000602084013e611b78565b606091505b5091509150611ba08282604051806060016040528060278152602001612e4260279139611dd8565b9250505092915050565b6000819050919050565b611bbd81611a0d565b8073ffffffffffffffffffffffffffffffffffffffff167fbc7cd75a20ee27fd9adebab32041f755214dbc6bffa90cc0225b39da2e5c2d3b60405160405180910390a250565b600060019054906101000a900460ff16611c52576040517f08c379a0000000000000000000000000000000000000000000000000000000008152600401611c4990612c9f565b60405180910390fd5b565b600060019054906101000a900460ff16611ca3576040517f08c379a0000000000000000000000000000000000000000000000000000000008152600401611c9a90612c9f565b60405180910390fd5b8160369080519060200190611cb9929190611e3f565b508060379080519060200190611cd0929190611e3f565b505050565b600060019054906101000a900460ff16611d24576040517f08c379a0000000000000000000000000000000000000000000000000000000008152600401611d1b90612c9f565b60405180910390fd5b611d34611d2f610f9c565b6117fb565b565b600060019054906101000a900460ff16611d85576040517f08c379a0000000000000000000000000000000000000000000000000000000008152600401611d7c90612c9f565b60405180910390fd5b565b600060019054906101000a900460ff16611dd6576040517f08c379a0000000000000000000000000000000000000000000000000000000008152600401611dcd90612c9f565b60405180910390fd5b565b60608315611de857829050611e38565b600083511115611dfb5782518084602001fd5b816040517f08c379a0000000000000000000000000000000000000000000000000000000008152600401611e2f9190611f7b565b60405180910390fd5b9392505050565b828054611e4b906123c6565b90600052602060002090601f016020900481019282611e6d5760008555611eb4565b82601f10611e8657805160ff1916838001178555611eb4565b82800160010185558215611eb4579182015b82811115611eb3578251825591602001919060010190611e98565b5b509050611ec19190611ec5565b5090565b5b80821115611ede576000816000905550600101611ec6565b5090565b600081519050919050565b600082825260208201905092915050565b60005b83811015611f1c578082015181840152602081019050611f01565b83811115611f2b576000848401525b50505050565b6000601f19601f8301169050919050565b6000611f4d82611ee2565b611f578185611eed565b9350611f67818560208601611efe565b611f7081611f31565b840191505092915050565b60006020820190508181036000830152611f958184611f42565b905092915050565b6000604051905090565b600080fd5b600080fd5b600073ffffffffffffffffffffffffffffffffffffffff82169050919050565b6000611fdc82611fb1565b9050919050565b611fec81611fd1565b8114611ff757600080fd5b50565b60008135905061200981611fe3565b92915050565b6000819050919050565b6120228161200f565b811461202d57600080fd5b50565b60008135905061203f81612019565b92915050565b6000806040838503121561205c5761205b611fa7565b5b600061206a85828601611ffa565b925050602061207b85828601612030565b9150509250929050565b60008115159050919050565b61209a81612085565b82525050565b60006020820190506120b56000830184612091565b92915050565b6120c48161200f565b82525050565b60006020820190506120df60008301846120bb565b92915050565b6000806000606084860312156120fe576120fd611fa7565b5b600061210c86828701611ffa565b935050602061211d86828701611ffa565b925050604061212e86828701612030565b9150509250925092565b600060ff82169050919050565b61214e81612138565b82525050565b60006020820190506121696000830184612145565b92915050565b60006020828403121561218557612184611fa7565b5b600061219384828501611ffa565b91505092915050565b600080fd5b600080fd5b7f4e487b7100000000000000000000000000000000000000000000000000000000600052604160045260246000fd5b6121de82611f31565b810181811067ffffffffffffffff821117156121fd576121fc6121a6565b5b80604052505050565b6000612210611f9d565b905061221c82826121d5565b919050565b600067ffffffffffffffff82111561223c5761223b6121a6565b5b61224582611f31565b9050602081019050919050565b82818337600083830152505050565b600061227461226f84612221565b612206565b9050828152602081018484840111156122905761228f6121a1565b5b61229b848285612252565b509392505050565b600082601f8301126122b8576122b761219c565b5b81356122c8848260208601612261565b91505092915050565b600080604083850312156122e8576122e7611fa7565b5b60006122f685828601611ffa565b925050602083013567ffffffffffffffff81111561231757612316611fac565b5b612323858286016122a3565b9150509250929050565b61233681611fd1565b82525050565b6000602082019050612351600083018461232d565b92915050565b6000806040838503121561236e5761236d611fa7565b5b600061237c85828601611ffa565b925050602061238d85828601611ffa565b9150509250929050565b7f4e487b7100000000000000000000000000000000000000000000000000000000600052602260045260246000fd5b600060028204905060018216806123de57607f821691505b602082108114156123f2576123f1612397565b5b50919050565b7f45524332303a207472616e7366657220616d6f756e742065786365656473206160008201527f6c6c6f77616e6365000000000000000000000000000000000000000000000000602082015250565b6000612454602883611eed565b915061245f826123f8565b604082019050919050565b6000602082019050818103600083015261248381612447565b9050919050565b7f46756e6374696f6e206d7573742062652063616c6c6564207468726f7567682060008201527f64656c656761746563616c6c0000000000000000000000000000000000000000602082015250565b60006124e6602c83611eed565b91506124f18261248a565b604082019050919050565b60006020820190508181036000830152612515816124d9565b9050919050565b7f46756e6374696f6e206d7573742062652063616c6c6564207468726f7567682060008201527f6163746976652070726f78790000000000000000000000000000000000000000602082015250565b6000612578602c83611eed565b91506125838261251c565b604082019050919050565b600060208201905081810360008301526125a78161256b565b9050919050565b7f4e487b7100000000000000000000000000000000000000000000000000000000600052601160045260246000fd5b60006125e88261200f565b91506125f38361200f565b9250827fffffffffffffffffffffffffffffffffffffffffffffffffffffffffffffffff03821115612628576126276125ae565b5b828201905092915050565b7f4f776e61626c653a2063616c6c6572206973206e6f7420746865206f776e6572600082015250565b6000612669602083611eed565b915061267482612633565b602082019050919050565b600060208201905081810360008301526126988161265c565b9050919050565b7f496e697469616c697a61626c653a20636f6e747261637420697320616c72656160008201527f647920696e697469616c697a6564000000000000000000000000000000000000602082015250565b60006126fb602e83611eed565b91506127068261269f565b604082019050919050565b6000602082019050818103600083015261272a816126ee565b9050919050565b7f45524332303a2064656372656173656420616c6c6f77616e63652062656c6f7760008201527f207a65726f000000000000000000000000000000000000000000000000000000602082015250565b600061278d602583611eed565b915061279882612731565b604082019050919050565b600060208201905081810360008301526127bc81612780565b9050919050565b7f4f776e61626c653a206e6577206f776e657220697320746865207a65726f206160008201527f6464726573730000000000000000000000000000000000000000000000000000602082015250565b600061281f602683611eed565b915061282a826127c3565b604082019050919050565b6000602082019050818103600083015261284e81612812565b9050919050565b7f45524332303a20617070726f76652066726f6d20746865207a65726f2061646460008201527f7265737300000000000000000000000000000000000000000000000000000000602082015250565b60006128b1602483611eed565b91506128bc82612855565b604082019050919050565b600060208201905081810360008301526128e0816128a4565b9050919050565b7f45524332303a20617070726f766520746f20746865207a65726f20616464726560008201527f7373000000000000000000000000000000000000000000000000000000000000602082015250565b6000612943602283611eed565b915061294e826128e7565b604082019050919050565b6000602082019050818103600083015261297281612936565b9050919050565b7f45524332303a207472616e736665722066726f6d20746865207a65726f20616460008201527f6472657373000000000000000000000000000000000000000000000000000000602082015250565b60006129d5602583611eed565b91506129e082612979565b604082019050919050565b60006020820190508181036000830152612a04816129c8565b9050919050565b7f45524332303a207472616e7366657220746f20746865207a65726f206164647260008201527f6573730000000000000000000000000000000000000000000000000000000000602082015250565b6000612a67602383611eed565b9150612a7282612a0b565b604082019050919050565b60006020820190508181036000830152612a9681612a5a565b9050919050565b7f45524332303a207472616e7366657220616d6f756e742065786365656473206260008201527f616c616e63650000000000000000000000000000000000000000000000000000602082015250565b6000612af9602683611eed565b9150612b0482612a9d565b604082019050919050565b60006020820190508181036000830152612b2881612aec565b9050919050565b7f45524331393637557067726164653a207570677261646520627265616b73206660008201527f7572746865722075706772616465730000000000000000000000000000000000602082015250565b6000612b8b602f83611eed565b9150612b9682612b2f565b604082019050919050565b60006020820190508181036000830152612bba81612b7e565b9050919050565b7f45524332303a206d696e7420746f20746865207a65726f206164647265737300600082015250565b6000612bf7601f83611eed565b9150612c0282612bc1565b602082019050919050565b60006020820190508181036000830152612c2681612bea565b9050919050565b7f496e697469616c697a61626c653a20636f6e7472616374206973206e6f74206960008201527f6e697469616c697a696e67000000000000000000000000000000000000000000602082015250565b6000612c89602b83611eed565b9150612c9482612c2d565b604082019050919050565b60006020820190508181036000830152612cb881612c7c565b9050919050565b7f455243313936373a206e657720696d706c656d656e746174696f6e206973206e60008201527f6f74206120636f6e747261637400000000000000000000000000000000000000602082015250565b6000612d1b602d83611eed565b9150612d2682612cbf565b604082019050919050565b60006020820190508181036000830152612d4a81612d0e565b9050919050565b7f416464726573733a2064656c65676174652063616c6c20746f206e6f6e2d636f60008201527f6e74726163740000000000000000000000000000000000000000000000000000602082015250565b6000612dad602683611eed565b9150612db882612d51565b604082019050919050565b60006020820190508181036000830152612ddc81612da0565b9050919050565b600081519050919050565b600081905092915050565b6000612e0482612de3565b612e0e8185612dee565b9350612e1e818560208601611efe565b80840191505092915050565b6000612e368284612df9565b91508190509291505056fe416464726573733a206c6f772d6c6576656c2064656c65676174652063616c6c206661696c6564a264697066735822122055fa68d5b35de8695fa981c4aa793451e75f1e5cfc8753fb6a3a02f3f6b80d4464736f6c63430008090033",
  "linkReferences": {},
  "deployedLinkReferences": {}
}