{
  "_format": "hh-sol-artifact-1",
  "contractName": "CrossChainNFT",
  "sourceName": "contracts/ERC721/ERC721CrossChain/CrossChainNFT.sol",
  "abi": [
    {
      "inputs": [],
      "stateMutability": "nonpayable",
      "type": "constructor"
    },
    {
      "anonymous": false,
      "inputs": [
        {
          "indexed": true,
          "internalType": "address",
          "name": "owner",
          "type": "address"
        },
        {
          "indexed": true,
          "internalType": "address",
          "name": "approved",
          "type": "address"
        },
        {
          "indexed": true,
          "internalType": "uint256",
          "name": "tokenId",
          "type": "uint256"
        }
      ],
      "name": "Approval",
      "type": "event"
    },
    {
      "anonymous": false,
      "inputs": [
        {
          "indexed": true,
          "internalType": "address",
          "name": "owner",
          "type": "address"
        },
        {
          "indexed": true,
          "internalType": "address",
          "name": "operator",
          "type": "address"
        },
        {
          "indexed": false,
          "internalType": "bool",
          "name": "approved",
          "type": "bool"
        }
      ],
      "name": "ApprovalForAll",
      "type": "event"
    },
    {
      "anonymous": false,
      "inputs": [
        {
          "indexed": true,
          "internalType": "address",
          "name": "previousOwner",
          "type": "address"
        },
        {
          "indexed": true,
          "internalType": "address",
          "name": "newOwner",
          "type": "address"
        }
      ],
      "name": "OwnershipTransferred",
      "type": "event"
    },
    {
      "anonymous": false,
      "inputs": [
        {
          "indexed": false,
          "internalType": "uint256",
          "name": "chainId",
          "type": "uint256"
        },
        {
          "indexed": false,
          "internalType": "address",
          "name": "contAddr",
          "type": "address"
        },
        {
          "indexed": false,
          "internalType": "uint256",
          "name": "tokenId",
          "type": "uint256"
        },
        {
          "indexed": false,
          "internalType": "address",
          "name": "to",
          "type": "address"
        }
      ],
      "name": "RelayerCallRedeem",
      "type": "event"
    },
    {
      "anonymous": false,
      "inputs": [
        {
          "indexed": false,
          "internalType": "uint256",
          "name": "targetChainId",
          "type": "uint256"
        },
        {
          "indexed": false,
          "internalType": "address",
          "name": "to",
          "type": "address"
        },
        {
          "indexed": false,
          "internalType": "uint256",
          "name": "chainId",
          "type": "uint256"
        },
        {
          "indexed": false,
          "internalType": "address",
          "name": "contAddr",
          "type": "address"
        },
        {
          "indexed": false,
          "internalType": "uint256",
          "name": "tokenId",
          "type": "uint256"
        },
        {
          "indexed": false,
          "internalType": "string",
          "name": "uri",
          "type": "string"
        }
      ],
      "name": "RelayerCallSafeMintWrappedToken",
      "type": "event"
    },
    {
      "anonymous": false,
      "inputs": [
        {
          "indexed": false,
          "internalType": "uint256",
          "name": "wTokenId",
          "type": "uint256"
        }
      ],
      "name": "TokenWrapped",
      "type": "event"
    },
    {
      "anonymous": false,
      "inputs": [
        {
          "indexed": true,
          "internalType": "address",
          "name": "from",
          "type": "address"
        },
        {
          "indexed": true,
          "internalType": "address",
          "name": "to",
          "type": "address"
        },
        {
          "indexed": true,
          "internalType": "uint256",
          "name": "tokenId",
          "type": "uint256"
        }
      ],
      "name": "Transfer",
      "type": "event"
    },
    {
      "anonymous": false,
      "inputs": [
        {
          "indexed": false,
          "internalType": "uint256",
          "name": "wTokenId",
          "type": "uint256"
        }
      ],
      "name": "WTokenBurned",
      "type": "event"
    },
    {
      "inputs": [
        {
          "internalType": "address",
          "name": "to",
          "type": "address"
        },
        {
          "internalType": "uint256",
          "name": "tokenId",
          "type": "uint256"
        }
      ],
      "name": "approve",
      "outputs": [],
      "stateMutability": "nonpayable",
      "type": "function"
    },
    {
      "inputs": [
        {
          "internalType": "address",
          "name": "owner",
          "type": "address"
        }
      ],
      "name": "balanceOf",
      "outputs": [
        {
          "internalType": "uint256",
          "name": "",
          "type": "uint256"
        }
      ],
      "stateMutability": "view",
      "type": "function"
    },
    {
      "inputs": [
        {
          "internalType": "uint256",
          "name": "tokenId",
          "type": "uint256"
        }
      ],
      "name": "burn",
      "outputs": [],
      "stateMutability": "nonpayable",
      "type": "function"
    },
    {
      "inputs": [
        {
          "internalType": "uint256",
          "name": "wTokenId",
          "type": "uint256"
        }
      ],
      "name": "burnWrappedToken",
      "outputs": [],
      "stateMutability": "nonpayable",
      "type": "function"
    },
    {
      "inputs": [
        {
          "internalType": "uint256",
          "name": "tokenId",
          "type": "uint256"
        }
      ],
      "name": "getApproved",
      "outputs": [
        {
          "internalType": "address",
          "name": "",
          "type": "address"
        }
      ],
      "stateMutability": "view",
      "type": "function"
    },
    {
      "inputs": [
        {
          "internalType": "uint256",
          "name": "targetChainId",
          "type": "uint256"
        }
      ],
      "name": "getFee",
      "outputs": [
        {
          "internalType": "uint256",
          "name": "fee",
          "type": "uint256"
        }
      ],
      "stateMutability": "view",
      "type": "function"
    },
    {
      "inputs": [
        {
          "internalType": "address",
          "name": "owner",
          "type": "address"
        },
        {
          "internalType": "address",
          "name": "operator",
          "type": "address"
        }
      ],
      "name": "isApprovedForAll",
      "outputs": [
        {
          "internalType": "bool",
          "name": "",
          "type": "bool"
        }
      ],
      "stateMutability": "view",
      "type": "function"
    },
    {
      "inputs": [],
      "name": "name",
      "outputs": [
        {
          "internalType": "string",
          "name": "",
          "type": "string"
        }
      ],
      "stateMutability": "view",
      "type": "function"
    },
    {
      "inputs": [
        {
          "internalType": "address",
          "name": "",
          "type": "address"
        },
        {
          "internalType": "address",
          "name": "",
          "type": "address"
        },
        {
          "internalType": "uint256",
          "name": "",
          "type": "uint256"
        },
        {
          "internalType": "bytes",
          "name": "",
          "type": "bytes"
        }
      ],
      "name": "onERC721Received",
      "outputs": [
        {
          "internalType": "bytes4",
          "name": "",
          "type": "bytes4"
        }
      ],
      "stateMutability": "nonpayable",
      "type": "function"
    },
    {
      "inputs": [],
      "name": "owner",
      "outputs": [
        {
          "internalType": "address",
          "name": "",
          "type": "address"
        }
      ],
      "stateMutability": "view",
      "type": "function"
    },
    {
      "inputs": [
        {
          "internalType": "uint256",
          "name": "tokenId",
          "type": "uint256"
        }
      ],
      "name": "ownerOf",
      "outputs": [
        {
          "internalType": "address",
          "name": "",
          "type": "address"
        }
      ],
      "stateMutability": "view",
      "type": "function"
    },
    {
      "inputs": [
        {
          "internalType": "address",
          "name": "contAddr",
          "type": "address"
        },
        {
          "internalType": "uint256",
          "name": "tokenId",
          "type": "uint256"
        },
        {
          "internalType": "address",
          "name": "to",
          "type": "address"
        }
      ],
      "name": "redeem",
      "outputs": [],
      "stateMutability": "nonpayable",
      "type": "function"
    },
    {
      "inputs": [],
      "name": "relayer",
      "outputs": [
        {
          "internalType": "address",
          "name": "",
          "type": "address"
        }
      ],
      "stateMutability": "view",
      "type": "function"
    },
    {
      "inputs": [],
      "name": "renounceOwnership",
      "outputs": [],
      "stateMutability": "nonpayable",
      "type": "function"
    },
    {
      "inputs": [
        {
          "internalType": "address",
          "name": "to",
          "type": "address"
        },
        {
          "internalType": "uint256",
          "name": "chainId",
          "type": "uint256"
        },
        {
          "internalType": "address",
          "name": "contAddr",
          "type": "address"
        },
        {
          "internalType": "uint256",
          "name": "tokenId",
          "type": "uint256"
        },
        {
          "internalType": "string",
          "name": "uri",
          "type": "string"
        }
      ],
      "name": "safeMintWrappedToken",
      "outputs": [
        {
          "internalType": "uint256",
          "name": "wTokenId",
          "type": "uint256"
        }
      ],
      "stateMutability": "nonpayable",
      "type": "function"
    },
    {
      "inputs": [
        {
          "internalType": "address",
          "name": "from",
          "type": "address"
        },
        {
          "internalType": "address",
          "name": "to",
          "type": "address"
        },
        {
          "internalType": "uint256",
          "name": "tokenId",
          "type": "uint256"
        }
      ],
      "name": "safeTransferFrom",
      "outputs": [],
      "stateMutability": "nonpayable",
      "type": "function"
    },
    {
      "inputs": [
        {
          "internalType": "address",
          "name": "from",
          "type": "address"
        },
        {
          "internalType": "address",
          "name": "to",
          "type": "address"
        },
        {
          "internalType": "uint256",
          "name": "tokenId",
          "type": "uint256"
        },
        {
          "internalType": "bytes",
          "name": "_data",
          "type": "bytes"
        }
      ],
      "name": "safeTransferFrom",
      "outputs": [],
      "stateMutability": "nonpayable",
      "type": "function"
    },
    {
      "inputs": [
        {
          "internalType": "address",
          "name": "operator",
          "type": "address"
        },
        {
          "internalType": "bool",
          "name": "approved",
          "type": "bool"
        }
      ],
      "name": "setApprovalForAll",
      "outputs": [],
      "stateMutability": "nonpayable",
      "type": "function"
    },
    {
      "inputs": [
        {
          "internalType": "uint256",
          "name": "targetChainId",
          "type": "uint256"
        },
        {
          "internalType": "uint256",
          "name": "fee",
          "type": "uint256"
        }
      ],
      "name": "setFee",
      "outputs": [],
      "stateMutability": "nonpayable",
      "type": "function"
    },
    {
      "inputs": [
        {
          "internalType": "uint256[]",
          "name": "targetChainIds",
          "type": "uint256[]"
        },
        {
          "internalType": "uint256[]",
          "name": "fees",
          "type": "uint256[]"
        }
      ],
      "name": "setFees",
      "outputs": [],
      "stateMutability": "nonpayable",
      "type": "function"
    },
    {
      "inputs": [
        {
          "internalType": "address",
          "name": "newRelayer",
          "type": "address"
        }
      ],
      "name": "setRelayer",
      "outputs": [],
      "stateMutability": "nonpayable",
      "type": "function"
    },
    {
      "inputs": [
        {
          "internalType": "bytes4",
          "name": "interfaceId",
          "type": "bytes4"
        }
      ],
      "name": "supportsInterface",
      "outputs": [
        {
          "internalType": "bool",
          "name": "",
          "type": "bool"
        }
      ],
      "stateMutability": "view",
      "type": "function"
    },
    {
      "inputs": [],
      "name": "symbol",
      "outputs": [
        {
          "internalType": "string",
          "name": "",
          "type": "string"
        }
      ],
      "stateMutability": "view",
      "type": "function"
    },
    {
      "inputs": [
        {
          "internalType": "uint256",
          "name": "tokenId",
          "type": "uint256"
        }
      ],
      "name": "tokenURI",
      "outputs": [
        {
          "internalType": "string",
          "name": "",
          "type": "string"
        }
      ],
      "stateMutability": "view",
      "type": "function"
    },
    {
      "inputs": [],
      "name": "totalSupply",
      "outputs": [
        {
          "internalType": "uint256",
          "name": "",
          "type": "uint256"
        }
      ],
      "stateMutability": "view",
      "type": "function"
    },
    {
      "inputs": [
        {
          "internalType": "address",
          "name": "contAddr",
          "type": "address"
        },
        {
          "internalType": "uint256",
          "name": "tokenId",
          "type": "uint256"
        },
        {
          "internalType": "address",
          "name": "from",
          "type": "address"
        },
        {
          "internalType": "address",
          "name": "to",
          "type": "address"
        },
        {
          "internalType": "uint256",
          "name": "targetChainId",
          "type": "uint256"
        }
      ],
      "name": "transferCrossChainRequest",
      "outputs": [],
      "stateMutability": "payable",
      "type": "function"
    },
    {
      "inputs": [
        {
          "internalType": "address",
          "name": "from",
          "type": "address"
        },
        {
          "internalType": "address",
          "name": "to",
          "type": "address"
        },
        {
          "internalType": "uint256",
          "name": "tokenId",
          "type": "uint256"
        }
      ],
      "name": "transferFrom",
      "outputs": [],
      "stateMutability": "nonpayable",
      "type": "function"
    },
    {
      "inputs": [
        {
          "internalType": "address",
          "name": "newOwner",
          "type": "address"
        }
      ],
      "name": "transferOwnership",
      "outputs": [],
      "stateMutability": "nonpayable",
      "type": "function"
    },
    {
      "inputs": [
        {
          "internalType": "uint256",
          "name": "wTokenId",
          "type": "uint256"
        },
        {
          "internalType": "address",
          "name": "to",
          "type": "address"
        }
      ],
      "name": "wReturnCrossChainRequest",
      "outputs": [],
      "stateMutability": "payable",
      "type": "function"
    },
    {
      "inputs": [
        {
          "internalType": "address payable",
          "name": "to",
          "type": "address"
        }
      ],
      "name": "withdrawCash",
      "outputs": [],
      "stateMutability": "nonpayable",
      "type": "function"
    }
  ],
  "bytecode": "0x60806040523480156200001157600080fd5b5073e189bfcc0d6f5f63401b104c1051699c7aa1ae4a6040518060400160405280600d81526020017f43726f7373436861696e4e4654000000000000000000000000000000000000008152506040518060400160405280600381526020017f43436800000000000000000000000000000000000000000000000000000000008152508160009080519060200190620000ab929190620002ca565b508060019080519060200190620000c4929190620002ca565b505050620000e7620000db620000ff60201b60201c565b6200010760201b60201c565b620000f881620001cd60201b60201c565b5062000462565b600033905090565b6000600760009054906101000a900473ffffffffffffffffffffffffffffffffffffffff16905081600760006101000a81548173ffffffffffffffffffffffffffffffffffffffff021916908373ffffffffffffffffffffffffffffffffffffffff1602179055508173ffffffffffffffffffffffffffffffffffffffff168173ffffffffffffffffffffffffffffffffffffffff167f8be0079c531659141344cd1fd0a4f28419497f9722a3daafe3b4186f6b6457e060405160405180910390a35050565b620001dd620000ff60201b60201c565b73ffffffffffffffffffffffffffffffffffffffff1662000203620002a060201b60201c565b73ffffffffffffffffffffffffffffffffffffffff16146200025c576040517f08c379a00000000000000000000000000000000000000000000000000000000081526004016200025390620003db565b60405180910390fd5b80600960006101000a81548173ffffffffffffffffffffffffffffffffffffffff021916908373ffffffffffffffffffffffffffffffffffffffff16021790555050565b6000600760009054906101000a900473ffffffffffffffffffffffffffffffffffffffff16905090565b828054620002d8906200042c565b90600052602060002090601f016020900481019282620002fc576000855562000348565b82601f106200031757805160ff191683800117855562000348565b8280016001018555821562000348579182015b82811115620003475782518255916020019190600101906200032a565b5b5090506200035791906200035b565b5090565b5b80821115620003765760008160009055506001016200035c565b5090565b600082825260208201905092915050565b7f4f776e61626c653a2063616c6c6572206973206e6f7420746865206f776e6572600082015250565b6000620003c36020836200037a565b9150620003d0826200038b565b602082019050919050565b60006020820190508181036000830152620003f681620003b4565b9050919050565b7f4e487b7100000000000000000000000000000000000000000000000000000000600052602260045260246000fd5b600060028204905060018216806200044557607f821691505b602082108114156200045c576200045b620003fd565b5b50919050565b6141ea80620004726000396000f3fe6080604052600436106101cd5760003560e01c806370a08231116100f7578063a22cb46511610095578063c87b56dd11610064578063c87b56dd14610652578063e985e9c51461068f578063f2fde38b146106cc578063fcee45f4146106f5576101cd565b8063a22cb465146105bb578063ae7197df146105e4578063b88d4fde1461060d578063c237ba6b14610636576101cd565b80637a3b45bb116100d15780637a3b45bb146105115780638406c0791461053a5780638da5cb5b1461056557806395d89b4114610590576101cd565b806370a082311461048057806370e4acd8146104bd578063715018a6146104fa576101cd565b8063375fede51161016f57806352f7c9881161013e57806352f7c988146103c85780635c833bfd146103f15780636352211e1461041a5780636548e9bc14610457576101cd565b8063375fede51461033157806338b5c5af1461035a57806342842e0e1461037657806342966c681461039f576101cd565b8063095ea7b3116101ab578063095ea7b314610277578063150b7a02146102a057806318160ddd146102dd57806323b872dd14610308576101cd565b806301ffc9a7146101d257806306fdde031461020f578063081812fc1461023a575b600080fd5b3480156101de57600080fd5b506101f960048036038101906101f4919061296c565b610732565b60405161020691906129b4565b60405180910390f35b34801561021b57600080fd5b50610224610814565b6040516102319190612a68565b60405180910390f35b34801561024657600080fd5b50610261600480360381019061025c9190612ac0565b6108a6565b60405161026e9190612b2e565b60405180910390f35b34801561028357600080fd5b5061029e60048036038101906102999190612b75565b61092b565b005b3480156102ac57600080fd5b506102c760048036038101906102c29190612cea565b610a43565b6040516102d49190612d7c565b60405180910390f35b3480156102e957600080fd5b506102f2610a57565b6040516102ff9190612da6565b60405180910390f35b34801561031457600080fd5b5061032f600480360381019061032a9190612dc1565b610a5f565b005b34801561033d57600080fd5b5061035860048036038101906103539190612edc565b610abf565b005b610374600480360381019061036f9190612f54565b610be0565b005b34801561038257600080fd5b5061039d60048036038101906103989190612dc1565b610db6565b005b3480156103ab57600080fd5b506103c660048036038101906103c19190612ac0565b610dd6565b005b3480156103d457600080fd5b506103ef60048036038101906103ea9190612f94565b610e32565b005b3480156103fd57600080fd5b5061041860048036038101906104139190612fd4565b610eca565b005b34801561042657600080fd5b50610441600480360381019061043c9190612ac0565b610fd4565b60405161044e9190612b2e565b60405180910390f35b34801561046357600080fd5b5061047e60048036038101906104799190613027565b611086565b005b34801561048c57600080fd5b506104a760048036038101906104a29190613027565b611146565b6040516104b49190612da6565b60405180910390f35b3480156104c957600080fd5b506104e460048036038101906104df91906130f5565b6111fe565b6040516104f19190612da6565b60405180910390f35b34801561050657600080fd5b5061050f6112c6565b005b34801561051d57600080fd5b5061053860048036038101906105339190612ac0565b61134e565b005b34801561054657600080fd5b5061054f6113b3565b60405161055c9190612b2e565b60405180910390f35b34801561057157600080fd5b5061057a6113d9565b6040516105879190612b2e565b60405180910390f35b34801561059c57600080fd5b506105a5611403565b6040516105b29190612a68565b60405180910390f35b3480156105c757600080fd5b506105e260048036038101906105dd91906131b8565b611495565b005b3480156105f057600080fd5b5061060b60048036038101906106069190613236565b611616565b005b34801561061957600080fd5b50610634600480360381019061062f9190612cea565b6116e3565b005b610650600480360381019061064b9190613263565b611745565b005b34801561065e57600080fd5b5061067960048036038101906106749190612ac0565b611840565b6040516106869190612a68565b60405180910390f35b34801561069b57600080fd5b506106b660048036038101906106b191906132de565b611852565b6040516106c391906129b4565b60405180910390f35b3480156106d857600080fd5b506106f360048036038101906106ee9190613027565b6118e6565b005b34801561070157600080fd5b5061071c60048036038101906107179190612ac0565b6119de565b6040516107299190612da6565b60405180910390f35b60007f80ac58cd000000000000000000000000000000000000000000000000000000007bffffffffffffffffffffffffffffffffffffffffffffffffffffffff1916827bffffffffffffffffffffffffffffffffffffffffffffffffffffffff191614806107fd57507f5b5e139f000000000000000000000000000000000000000000000000000000007bffffffffffffffffffffffffffffffffffffffffffffffffffffffff1916827bffffffffffffffffffffffffffffffffffffffffffffffffffffffff1916145b8061080d575061080c826119fb565b5b9050919050565b6060600080546108239061334d565b80601f016020809104026020016040519081016040528092919081815260200182805461084f9061334d565b801561089c5780601f106108715761010080835404028352916020019161089c565b820191906000526020600020905b81548152906001019060200180831161087f57829003601f168201915b5050505050905090565b60006108b182611a65565b6108f0576040517f08c379a00000000000000000000000000000000000000000000000000000000081526004016108e7906133f1565b60405180910390fd5b6004600083815260200190815260200160002060009054906101000a900473ffffffffffffffffffffffffffffffffffffffff169050919050565b600061093682610fd4565b90508073ffffffffffffffffffffffffffffffffffffffff168373ffffffffffffffffffffffffffffffffffffffff1614156109a7576040517f08c379a000000000000000000000000000000000000000000000000000000000815260040161099e90613483565b60405180910390fd5b8073ffffffffffffffffffffffffffffffffffffffff166109c6611ad1565b73ffffffffffffffffffffffffffffffffffffffff1614806109f557506109f4816109ef611ad1565b611852565b5b610a34576040517f08c379a0000000000000000000000000000000000000000000000000000000008152600401610a2b90613515565b60405180910390fd5b610a3e8383611ad9565b505050565b600063150b7a0260e01b9050949350505050565b600047905090565b610a70610a6a611ad1565b82611b92565b610aaf576040517f08c379a0000000000000000000000000000000000000000000000000000000008152600401610aa6906135a7565b60405180910390fd5b610aba838383611c70565b505050565b610ac7611ad1565b73ffffffffffffffffffffffffffffffffffffffff16610ae56113d9565b73ffffffffffffffffffffffffffffffffffffffff1614610b3b576040517f08c379a0000000000000000000000000000000000000000000000000000000008152600401610b3290613613565b60405180910390fd5b8051825114610b7f576040517f08c379a0000000000000000000000000000000000000000000000000000000008152600401610b76906136a5565b60405180910390fd5b60005b82518111610bdb57610bc8838281518110610ba057610b9f6136c5565b5b6020026020010151838381518110610bbb57610bba6136c5565b5b6020026020010151610e32565b8080610bd390613723565b915050610b82565b505050565b600060066000848152602001908152602001600020604051806080016040529081600082015481526020016001820160009054906101000a900473ffffffffffffffffffffffffffffffffffffffff1673ffffffffffffffffffffffffffffffffffffffff1673ffffffffffffffffffffffffffffffffffffffff16815260200160028201548152602001600382018054610c7a9061334d565b80601f0160208091040260200160405190810160405280929190818152602001828054610ca69061334d565b8015610cf35780601f10610cc857610100808354040283529160200191610cf3565b820191906000526020600020905b815481529060010190602001808311610cd657829003601f168201915b5050505050815250509050610d0b81600001516119de565b341015610d4d576040517f08c379a0000000000000000000000000000000000000000000000000000000008152600401610d44906137b8565b60405180910390fd5b600081600001519050600082602001519050600083604001519050610d718661134e565b7f68d40ad5dae5d6d29b5f9a3faf65a9e21ea0772c8a6861641ef31fad20d185fb83838388604051610da694939291906137d8565b60405180910390a1505050505050565b610dd1838383604051806020016040528060008152506116e3565b505050565b610de7610de1611ad1565b82611b92565b610e26576040517f08c379a0000000000000000000000000000000000000000000000000000000008152600401610e1d9061388f565b60405180910390fd5b610e2f81611ecc565b50565b610e3a611ad1565b73ffffffffffffffffffffffffffffffffffffffff16610e586113d9565b73ffffffffffffffffffffffffffffffffffffffff1614610eae576040517f08c379a0000000000000000000000000000000000000000000000000000000008152600401610ea590613613565b60405180910390fd5b80600a6000848152602001908152602001600020819055505050565b600960009054906101000a900473ffffffffffffffffffffffffffffffffffffffff1673ffffffffffffffffffffffffffffffffffffffff163373ffffffffffffffffffffffffffffffffffffffff1614610f5a576040517f08c379a0000000000000000000000000000000000000000000000000000000008152600401610f51906138fb565b60405180910390fd5b60008390508073ffffffffffffffffffffffffffffffffffffffff166342842e0e3084866040518463ffffffff1660e01b8152600401610f9c9392919061391b565b600060405180830381600087803b158015610fb657600080fd5b505af1158015610fca573d6000803e3d6000fd5b5050505050505050565b6000806002600084815260200190815260200160002060009054906101000a900473ffffffffffffffffffffffffffffffffffffffff169050600073ffffffffffffffffffffffffffffffffffffffff168173ffffffffffffffffffffffffffffffffffffffff16141561107d576040517f08c379a0000000000000000000000000000000000000000000000000000000008152600401611074906139c4565b60405180910390fd5b80915050919050565b61108e611ad1565b73ffffffffffffffffffffffffffffffffffffffff166110ac6113d9565b73ffffffffffffffffffffffffffffffffffffffff1614611102576040517f08c379a00000000000000000000000000000000000000000000000000000000081526004016110f990613613565b60405180910390fd5b80600960006101000a81548173ffffffffffffffffffffffffffffffffffffffff021916908373ffffffffffffffffffffffffffffffffffffffff16021790555050565b60008073ffffffffffffffffffffffffffffffffffffffff168273ffffffffffffffffffffffffffffffffffffffff1614156111b7576040517f08c379a00000000000000000000000000000000000000000000000000000000081526004016111ae90613a56565b60405180910390fd5b600360008373ffffffffffffffffffffffffffffffffffffffff1673ffffffffffffffffffffffffffffffffffffffff168152602001908152602001600020549050919050565b6000600960009054906101000a900473ffffffffffffffffffffffffffffffffffffffff1673ffffffffffffffffffffffffffffffffffffffff163373ffffffffffffffffffffffffffffffffffffffff1614611290576040517f08c379a0000000000000000000000000000000000000000000000000000000008152600401611287906138fb565b60405180910390fd5b61129a6008611fdd565b90506112a66008611feb565b6112b08682612001565b6112bd818686868661201f565b95945050505050565b6112ce611ad1565b73ffffffffffffffffffffffffffffffffffffffff166112ec6113d9565b73ffffffffffffffffffffffffffffffffffffffff1614611342576040517f08c379a000000000000000000000000000000000000000000000000000000000815260040161133990613613565b60405180910390fd5b61134c6000612122565b565b61135f611359611ad1565b82611b92565b61139e576040517f08c379a00000000000000000000000000000000000000000000000000000000081526004016113959061388f565b60405180910390fd5b6113a781611ecc565b6113b0816121e8565b50565b600960009054906101000a900473ffffffffffffffffffffffffffffffffffffffff1681565b6000600760009054906101000a900473ffffffffffffffffffffffffffffffffffffffff16905090565b6060600180546114129061334d565b80601f016020809104026020016040519081016040528092919081815260200182805461143e9061334d565b801561148b5780601f106114605761010080835404028352916020019161148b565b820191906000526020600020905b81548152906001019060200180831161146e57829003601f168201915b5050505050905090565b61149d611ad1565b73ffffffffffffffffffffffffffffffffffffffff168273ffffffffffffffffffffffffffffffffffffffff16141561150b576040517f08c379a000000000000000000000000000000000000000000000000000000000815260040161150290613ac2565b60405180910390fd5b8060056000611518611ad1565b73ffffffffffffffffffffffffffffffffffffffff1673ffffffffffffffffffffffffffffffffffffffff16815260200190815260200160002060008473ffffffffffffffffffffffffffffffffffffffff1673ffffffffffffffffffffffffffffffffffffffff16815260200190815260200160002060006101000a81548160ff0219169083151502179055508173ffffffffffffffffffffffffffffffffffffffff166115c5611ad1565b73ffffffffffffffffffffffffffffffffffffffff167f17307eab39ab6107e8899845ad3d59bd9653f200f220920489ca2b5937696c318360405161160a91906129b4565b60405180910390a35050565b61161e611ad1565b73ffffffffffffffffffffffffffffffffffffffff1661163c6113d9565b73ffffffffffffffffffffffffffffffffffffffff1614611692576040517f08c379a000000000000000000000000000000000000000000000000000000000815260040161168990613613565b60405180910390fd5b8073ffffffffffffffffffffffffffffffffffffffff166108fc6116b4610a57565b9081150290604051600060405180830381858888f193505050501580156116df573d6000803e3d6000fd5b5050565b6116f46116ee611ad1565b83611b92565b611733576040517f08c379a000000000000000000000000000000000000000000000000000000000815260040161172a906135a7565b60405180910390fd5b61173f8484848461227f565b50505050565b61174e816119de565b34101561175a57600080fd5b6117658585856122db565b60004690507f9301e409432a51a191443f644ae41630782021a09e1ce98fc0e5fb72078a25ea82848389898b73ffffffffffffffffffffffffffffffffffffffff1663c87b56dd8c6040518263ffffffff1660e01b81526004016117c99190612da6565b60006040518083038186803b1580156117e157600080fd5b505afa1580156117f5573d6000803e3d6000fd5b505050506040513d6000823e3d601f19601f8201168201806040525081019061181e9190613b52565b60405161183096959493929190613b9b565b60405180910390a1505050505050565b606061184b82612355565b9050919050565b6000600560008473ffffffffffffffffffffffffffffffffffffffff1673ffffffffffffffffffffffffffffffffffffffff16815260200190815260200160002060008373ffffffffffffffffffffffffffffffffffffffff1673ffffffffffffffffffffffffffffffffffffffff16815260200190815260200160002060009054906101000a900460ff16905092915050565b6118ee611ad1565b73ffffffffffffffffffffffffffffffffffffffff1661190c6113d9565b73ffffffffffffffffffffffffffffffffffffffff1614611962576040517f08c379a000000000000000000000000000000000000000000000000000000000815260040161195990613613565b60405180910390fd5b600073ffffffffffffffffffffffffffffffffffffffff168173ffffffffffffffffffffffffffffffffffffffff1614156119d2576040517f08c379a00000000000000000000000000000000000000000000000000000000081526004016119c990613c75565b60405180910390fd5b6119db81612122565b50565b6000600a6000838152602001908152602001600020549050919050565b60007f01ffc9a7000000000000000000000000000000000000000000000000000000007bffffffffffffffffffffffffffffffffffffffffffffffffffffffff1916827bffffffffffffffffffffffffffffffffffffffffffffffffffffffff1916149050919050565b60008073ffffffffffffffffffffffffffffffffffffffff166002600084815260200190815260200160002060009054906101000a900473ffffffffffffffffffffffffffffffffffffffff1673ffffffffffffffffffffffffffffffffffffffff1614159050919050565b600033905090565b816004600083815260200190815260200160002060006101000a81548173ffffffffffffffffffffffffffffffffffffffff021916908373ffffffffffffffffffffffffffffffffffffffff160217905550808273ffffffffffffffffffffffffffffffffffffffff16611b4c83610fd4565b73ffffffffffffffffffffffffffffffffffffffff167f8c5be1e5ebec7d5bd14f71427d1e84f3dd0314c0f7b2291e5b200ac8c7c3b92560405160405180910390a45050565b6000611b9d82611a65565b611bdc576040517f08c379a0000000000000000000000000000000000000000000000000000000008152600401611bd390613d07565b60405180910390fd5b6000611be783610fd4565b90508073ffffffffffffffffffffffffffffffffffffffff168473ffffffffffffffffffffffffffffffffffffffff161480611c5657508373ffffffffffffffffffffffffffffffffffffffff16611c3e846108a6565b73ffffffffffffffffffffffffffffffffffffffff16145b80611c675750611c668185611852565b5b91505092915050565b8273ffffffffffffffffffffffffffffffffffffffff16611c9082610fd4565b73ffffffffffffffffffffffffffffffffffffffff1614611ce6576040517f08c379a0000000000000000000000000000000000000000000000000000000008152600401611cdd90613d99565b60405180910390fd5b600073ffffffffffffffffffffffffffffffffffffffff168273ffffffffffffffffffffffffffffffffffffffff161415611d56576040517f08c379a0000000000000000000000000000000000000000000000000000000008152600401611d4d90613e2b565b60405180910390fd5b611d61838383612445565b611d6c600082611ad9565b6001600360008573ffffffffffffffffffffffffffffffffffffffff1673ffffffffffffffffffffffffffffffffffffffff1681526020019081526020016000206000828254611dbc9190613e4b565b925050819055506001600360008473ffffffffffffffffffffffffffffffffffffffff1673ffffffffffffffffffffffffffffffffffffffff1681526020019081526020016000206000828254611e139190613e7f565b92505081905550816002600083815260200190815260200160002060006101000a81548173ffffffffffffffffffffffffffffffffffffffff021916908373ffffffffffffffffffffffffffffffffffffffff160217905550808273ffffffffffffffffffffffffffffffffffffffff168473ffffffffffffffffffffffffffffffffffffffff167fddf252ad1be2c89b69c2b068fc378daa952ba7f163c4a11628f55a4df523b3ef60405160405180910390a4505050565b6000611ed782610fd4565b9050611ee581600084612445565b611ef0600083611ad9565b6001600360008373ffffffffffffffffffffffffffffffffffffffff1673ffffffffffffffffffffffffffffffffffffffff1681526020019081526020016000206000828254611f409190613e4b565b925050819055506002600083815260200190815260200160002060006101000a81549073ffffffffffffffffffffffffffffffffffffffff021916905581600073ffffffffffffffffffffffffffffffffffffffff168273ffffffffffffffffffffffffffffffffffffffff167fddf252ad1be2c89b69c2b068fc378daa952ba7f163c4a11628f55a4df523b3ef60405160405180910390a45050565b600081600001549050919050565b6001816000016000828254019250508190555050565b61201b82826040518060200160405280600081525061244a565b5050565b60405180608001604052808581526020018473ffffffffffffffffffffffffffffffffffffffff16815260200183815260200182815250600660008781526020019081526020016000206000820151816000015560208201518160010160006101000a81548173ffffffffffffffffffffffffffffffffffffffff021916908373ffffffffffffffffffffffffffffffffffffffff1602179055506040820151816002015560608201518160030190805190602001906120e092919061281d565b509050507fbbd8046f2003b15c5e4858368dad2435a58ae1e6b8e64b8edab81490292e3395856040516121139190612da6565b60405180910390a15050505050565b6000600760009054906101000a900473ffffffffffffffffffffffffffffffffffffffff16905081600760006101000a81548173ffffffffffffffffffffffffffffffffffffffff021916908373ffffffffffffffffffffffffffffffffffffffff1602179055508173ffffffffffffffffffffffffffffffffffffffff168173ffffffffffffffffffffffffffffffffffffffff167f8be0079c531659141344cd1fd0a4f28419497f9722a3daafe3b4186f6b6457e060405160405180910390a35050565b600660008281526020019081526020016000206000808201600090556001820160006101000a81549073ffffffffffffffffffffffffffffffffffffffff0219169055600282016000905560038201600061224391906128a3565b50507fbae674de5b60cebab59cbdf60624b8a5ba69b8baf7f2c92aeaf1a2cc183ddddf816040516122749190612da6565b60405180910390a150565b61228a848484611c70565b612296848484846124a5565b6122d5576040517f08c379a00000000000000000000000000000000000000000000000000000000081526004016122cc90613f47565b60405180910390fd5b50505050565b60008390508073ffffffffffffffffffffffffffffffffffffffff166342842e0e8330866040518463ffffffff1660e01b815260040161231d9392919061391b565b600060405180830381600087803b15801561233757600080fd5b505af115801561234b573d6000803e3d6000fd5b5050505050505050565b606061236082611a65565b61239f576040517f08c379a000000000000000000000000000000000000000000000000000000000815260040161239690613fd9565b60405180910390fd5b6006600083815260200190815260200160002060030180546123c09061334d565b80601f01602080910402602001604051908101604052809291908181526020018280546123ec9061334d565b80156124395780601f1061240e57610100808354040283529160200191612439565b820191906000526020600020905b81548152906001019060200180831161241c57829003601f168201915b50505050509050919050565b505050565b612454838361263c565b61246160008484846124a5565b6124a0576040517f08c379a000000000000000000000000000000000000000000000000000000000815260040161249790613f47565b60405180910390fd5b505050565b60006124c68473ffffffffffffffffffffffffffffffffffffffff1661280a565b1561262f578373ffffffffffffffffffffffffffffffffffffffff1663150b7a026124ef611ad1565b8786866040518563ffffffff1660e01b8152600401612511949392919061404e565b602060405180830381600087803b15801561252b57600080fd5b505af192505050801561255c57506040513d601f19601f8201168201806040525081019061255991906140af565b60015b6125df573d806000811461258c576040519150601f19603f3d011682016040523d82523d6000602084013e612591565b606091505b506000815114156125d7576040517f08c379a00000000000000000000000000000000000000000000000000000000081526004016125ce90613f47565b60405180910390fd5b805181602001fd5b63150b7a0260e01b7bffffffffffffffffffffffffffffffffffffffffffffffffffffffff1916817bffffffffffffffffffffffffffffffffffffffffffffffffffffffff191614915050612634565b600190505b949350505050565b600073ffffffffffffffffffffffffffffffffffffffff168273ffffffffffffffffffffffffffffffffffffffff1614156126ac576040517f08c379a00000000000000000000000000000000000000000000000000000000081526004016126a390614128565b60405180910390fd5b6126b581611a65565b156126f5576040517f08c379a00000000000000000000000000000000000000000000000000000000081526004016126ec90614194565b60405180910390fd5b61270160008383612445565b6001600360008473ffffffffffffffffffffffffffffffffffffffff1673ffffffffffffffffffffffffffffffffffffffff16815260200190815260200160002060008282546127519190613e7f565b92505081905550816002600083815260200190815260200160002060006101000a81548173ffffffffffffffffffffffffffffffffffffffff021916908373ffffffffffffffffffffffffffffffffffffffff160217905550808273ffffffffffffffffffffffffffffffffffffffff16600073ffffffffffffffffffffffffffffffffffffffff167fddf252ad1be2c89b69c2b068fc378daa952ba7f163c4a11628f55a4df523b3ef60405160405180910390a45050565b600080823b905060008111915050919050565b8280546128299061334d565b90600052602060002090601f01602090048101928261284b5760008555612892565b82601f1061286457805160ff1916838001178555612892565b82800160010185558215612892579182015b82811115612891578251825591602001919060010190612876565b5b50905061289f91906128e3565b5090565b5080546128af9061334d565b6000825580601f106128c157506128e0565b601f0160209004906000526020600020908101906128df91906128e3565b5b50565b5b808211156128fc5760008160009055506001016128e4565b5090565b6000604051905090565b600080fd5b600080fd5b60007fffffffff0000000000000000000000000000000000000000000000000000000082169050919050565b61294981612914565b811461295457600080fd5b50565b60008135905061296681612940565b92915050565b6000602082840312156129825761298161290a565b5b600061299084828501612957565b91505092915050565b60008115159050919050565b6129ae81612999565b82525050565b60006020820190506129c960008301846129a5565b92915050565b600081519050919050565b600082825260208201905092915050565b60005b83811015612a095780820151818401526020810190506129ee565b83811115612a18576000848401525b50505050565b6000601f19601f8301169050919050565b6000612a3a826129cf565b612a4481856129da565b9350612a548185602086016129eb565b612a5d81612a1e565b840191505092915050565b60006020820190508181036000830152612a828184612a2f565b905092915050565b6000819050919050565b612a9d81612a8a565b8114612aa857600080fd5b50565b600081359050612aba81612a94565b92915050565b600060208284031215612ad657612ad561290a565b5b6000612ae484828501612aab565b91505092915050565b600073ffffffffffffffffffffffffffffffffffffffff82169050919050565b6000612b1882612aed565b9050919050565b612b2881612b0d565b82525050565b6000602082019050612b436000830184612b1f565b92915050565b612b5281612b0d565b8114612b5d57600080fd5b50565b600081359050612b6f81612b49565b92915050565b60008060408385031215612b8c57612b8b61290a565b5b6000612b9a85828601612b60565b9250506020612bab85828601612aab565b9150509250929050565b600080fd5b600080fd5b7f4e487b7100000000000000000000000000000000000000000000000000000000600052604160045260246000fd5b612bf782612a1e565b810181811067ffffffffffffffff82111715612c1657612c15612bbf565b5b80604052505050565b6000612c29612900565b9050612c358282612bee565b919050565b600067ffffffffffffffff821115612c5557612c54612bbf565b5b612c5e82612a1e565b9050602081019050919050565b82818337600083830152505050565b6000612c8d612c8884612c3a565b612c1f565b905082815260208101848484011115612ca957612ca8612bba565b5b612cb4848285612c6b565b509392505050565b600082601f830112612cd157612cd0612bb5565b5b8135612ce1848260208601612c7a565b91505092915050565b60008060008060808587031215612d0457612d0361290a565b5b6000612d1287828801612b60565b9450506020612d2387828801612b60565b9350506040612d3487828801612aab565b925050606085013567ffffffffffffffff811115612d5557612d5461290f565b5b612d6187828801612cbc565b91505092959194509250565b612d7681612914565b82525050565b6000602082019050612d916000830184612d6d565b92915050565b612da081612a8a565b82525050565b6000602082019050612dbb6000830184612d97565b92915050565b600080600060608486031215612dda57612dd961290a565b5b6000612de886828701612b60565b9350506020612df986828701612b60565b9250506040612e0a86828701612aab565b9150509250925092565b600067ffffffffffffffff821115612e2f57612e2e612bbf565b5b602082029050602081019050919050565b600080fd5b6000612e58612e5384612e14565b612c1f565b90508083825260208201905060208402830185811115612e7b57612e7a612e40565b5b835b81811015612ea45780612e908882612aab565b845260208401935050602081019050612e7d565b5050509392505050565b600082601f830112612ec357612ec2612bb5565b5b8135612ed3848260208601612e45565b91505092915050565b60008060408385031215612ef357612ef261290a565b5b600083013567ffffffffffffffff811115612f1157612f1061290f565b5b612f1d85828601612eae565b925050602083013567ffffffffffffffff811115612f3e57612f3d61290f565b5b612f4a85828601612eae565b9150509250929050565b60008060408385031215612f6b57612f6a61290a565b5b6000612f7985828601612aab565b9250506020612f8a85828601612b60565b9150509250929050565b60008060408385031215612fab57612faa61290a565b5b6000612fb985828601612aab565b9250506020612fca85828601612aab565b9150509250929050565b600080600060608486031215612fed57612fec61290a565b5b6000612ffb86828701612b60565b935050602061300c86828701612aab565b925050604061301d86828701612b60565b9150509250925092565b60006020828403121561303d5761303c61290a565b5b600061304b84828501612b60565b91505092915050565b600067ffffffffffffffff82111561306f5761306e612bbf565b5b61307882612a1e565b9050602081019050919050565b600061309861309384613054565b612c1f565b9050828152602081018484840111156130b4576130b3612bba565b5b6130bf848285612c6b565b509392505050565b600082601f8301126130dc576130db612bb5565b5b81356130ec848260208601613085565b91505092915050565b600080600080600060a086880312156131115761311061290a565b5b600061311f88828901612b60565b955050602061313088828901612aab565b945050604061314188828901612b60565b935050606061315288828901612aab565b925050608086013567ffffffffffffffff8111156131735761317261290f565b5b61317f888289016130c7565b9150509295509295909350565b61319581612999565b81146131a057600080fd5b50565b6000813590506131b28161318c565b92915050565b600080604083850312156131cf576131ce61290a565b5b60006131dd85828601612b60565b92505060206131ee858286016131a3565b9150509250929050565b600061320382612aed565b9050919050565b613213816131f8565b811461321e57600080fd5b50565b6000813590506132308161320a565b92915050565b60006020828403121561324c5761324b61290a565b5b600061325a84828501613221565b91505092915050565b600080600080600060a0868803121561327f5761327e61290a565b5b600061328d88828901612b60565b955050602061329e88828901612aab565b94505060406132af88828901612b60565b93505060606132c088828901612b60565b92505060806132d188828901612aab565b9150509295509295909350565b600080604083850312156132f5576132f461290a565b5b600061330385828601612b60565b925050602061331485828601612b60565b9150509250929050565b7f4e487b7100000000000000000000000000000000000000000000000000000000600052602260045260246000fd5b6000600282049050600182168061336557607f821691505b602082108114156133795761337861331e565b5b50919050565b7f4552433732313a20617070726f76656420717565727920666f72206e6f6e657860008201527f697374656e7420746f6b656e0000000000000000000000000000000000000000602082015250565b60006133db602c836129da565b91506133e68261337f565b604082019050919050565b6000602082019050818103600083015261340a816133ce565b9050919050565b7f4552433732313a20617070726f76616c20746f2063757272656e74206f776e6560008201527f7200000000000000000000000000000000000000000000000000000000000000602082015250565b600061346d6021836129da565b915061347882613411565b604082019050919050565b6000602082019050818103600083015261349c81613460565b9050919050565b7f4552433732313a20617070726f76652063616c6c6572206973206e6f74206f7760008201527f6e6572206e6f7220617070726f76656420666f7220616c6c0000000000000000602082015250565b60006134ff6038836129da565b915061350a826134a3565b604082019050919050565b6000602082019050818103600083015261352e816134f2565b9050919050565b7f4552433732313a207472616e736665722063616c6c6572206973206e6f74206f60008201527f776e6572206e6f7220617070726f766564000000000000000000000000000000602082015250565b60006135916031836129da565b915061359c82613535565b604082019050919050565b600060208201905081810360008301526135c081613584565b9050919050565b7f4f776e61626c653a2063616c6c6572206973206e6f7420746865206f776e6572600082015250565b60006135fd6020836129da565b9150613608826135c7565b602082019050919050565b6000602082019050818103600083015261362c816135f0565b9050919050565b7f61727261797320617265206e6f7420696e207468652073616d65206c656e676860008201527f7400000000000000000000000000000000000000000000000000000000000000602082015250565b600061368f6021836129da565b915061369a82613633565b604082019050919050565b600060208201905081810360008301526136be81613682565b9050919050565b7f4e487b7100000000000000000000000000000000000000000000000000000000600052603260045260246000fd5b7f4e487b7100000000000000000000000000000000000000000000000000000000600052601160045260246000fd5b600061372e82612a8a565b91507fffffffffffffffffffffffffffffffffffffffffffffffffffffffffffffffff821415613761576137606136f4565b5b600182019050919050565b7f696e73756666696369656e742066656500000000000000000000000000000000600082015250565b60006137a26010836129da565b91506137ad8261376c565b602082019050919050565b600060208201905081810360008301526137d181613795565b9050919050565b60006080820190506137ed6000830187612d97565b6137fa6020830186612b1f565b6138076040830185612d97565b6138146060830184612b1f565b95945050505050565b7f4552433732314275726e61626c653a2063616c6c6572206973206e6f74206f7760008201527f6e6572206e6f7220617070726f76656400000000000000000000000000000000602082015250565b60006138796030836129da565b91506138848261381d565b604082019050919050565b600060208201905081810360008301526138a88161386c565b9050919050565b7f726573747269637465642066756e6374696f6e20746f2072656c617965720000600082015250565b60006138e5601e836129da565b91506138f0826138af565b602082019050919050565b60006020820190508181036000830152613914816138d8565b9050919050565b60006060820190506139306000830186612b1f565b61393d6020830185612b1f565b61394a6040830184612d97565b949350505050565b7f4552433732313a206f776e657220717565727920666f72206e6f6e657869737460008201527f656e7420746f6b656e0000000000000000000000000000000000000000000000602082015250565b60006139ae6029836129da565b91506139b982613952565b604082019050919050565b600060208201905081810360008301526139dd816139a1565b9050919050565b7f4552433732313a2062616c616e636520717565727920666f7220746865207a6560008201527f726f206164647265737300000000000000000000000000000000000000000000602082015250565b6000613a40602a836129da565b9150613a4b826139e4565b604082019050919050565b60006020820190508181036000830152613a6f81613a33565b9050919050565b7f4552433732313a20617070726f766520746f2063616c6c657200000000000000600082015250565b6000613aac6019836129da565b9150613ab782613a76565b602082019050919050565b60006020820190508181036000830152613adb81613a9f565b9050919050565b6000613af5613af084613054565b612c1f565b905082815260208101848484011115613b1157613b10612bba565b5b613b1c8482856129eb565b509392505050565b600082601f830112613b3957613b38612bb5565b5b8151613b49848260208601613ae2565b91505092915050565b600060208284031215613b6857613b6761290a565b5b600082015167ffffffffffffffff811115613b8657613b8561290f565b5b613b9284828501613b24565b91505092915050565b600060c082019050613bb06000830189612d97565b613bbd6020830188612b1f565b613bca6040830187612d97565b613bd76060830186612b1f565b613be46080830185612d97565b81810360a0830152613bf68184612a2f565b9050979650505050505050565b7f4f776e61626c653a206e6577206f776e657220697320746865207a65726f206160008201527f6464726573730000000000000000000000000000000000000000000000000000602082015250565b6000613c5f6026836129da565b9150613c6a82613c03565b604082019050919050565b60006020820190508181036000830152613c8e81613c52565b9050919050565b7f4552433732313a206f70657261746f7220717565727920666f72206e6f6e657860008201527f697374656e7420746f6b656e0000000000000000000000000000000000000000602082015250565b6000613cf1602c836129da565b9150613cfc82613c95565b604082019050919050565b60006020820190508181036000830152613d2081613ce4565b9050919050565b7f4552433732313a207472616e73666572206f6620746f6b656e2074686174206960008201527f73206e6f74206f776e0000000000000000000000000000000000000000000000602082015250565b6000613d836029836129da565b9150613d8e82613d27565b604082019050919050565b60006020820190508181036000830152613db281613d76565b9050919050565b7f4552433732313a207472616e7366657220746f20746865207a65726f2061646460008201527f7265737300000000000000000000000000000000000000000000000000000000602082015250565b6000613e156024836129da565b9150613e2082613db9565b604082019050919050565b60006020820190508181036000830152613e4481613e08565b9050919050565b6000613e5682612a8a565b9150613e6183612a8a565b925082821015613e7457613e736136f4565b5b828203905092915050565b6000613e8a82612a8a565b9150613e9583612a8a565b9250827fffffffffffffffffffffffffffffffffffffffffffffffffffffffffffffffff03821115613eca57613ec96136f4565b5b828201905092915050565b7f4552433732313a207472616e7366657220746f206e6f6e20455243373231526560008201527f63656976657220696d706c656d656e7465720000000000000000000000000000602082015250565b6000613f316032836129da565b9150613f3c82613ed5565b604082019050919050565b60006020820190508181036000830152613f6081613f24565b9050919050565b7f4552433732314d657461646174613a2055524920717565727920666f72206e6f60008201527f6e6578697374656e7420746f6b656e0000000000000000000000000000000000602082015250565b6000613fc3602f836129da565b9150613fce82613f67565b604082019050919050565b60006020820190508181036000830152613ff281613fb6565b9050919050565b600081519050919050565b600082825260208201905092915050565b600061402082613ff9565b61402a8185614004565b935061403a8185602086016129eb565b61404381612a1e565b840191505092915050565b60006080820190506140636000830187612b1f565b6140706020830186612b1f565b61407d6040830185612d97565b818103606083015261408f8184614015565b905095945050505050565b6000815190506140a981612940565b92915050565b6000602082840312156140c5576140c461290a565b5b60006140d38482850161409a565b91505092915050565b7f4552433732313a206d696e7420746f20746865207a65726f2061646472657373600082015250565b60006141126020836129da565b915061411d826140dc565b602082019050919050565b6000602082019050818103600083015261414181614105565b9050919050565b7f4552433732313a20746f6b656e20616c7265616479206d696e74656400000000600082015250565b600061417e601c836129da565b915061418982614148565b602082019050919050565b600060208201905081810360008301526141ad81614171565b905091905056fea2646970667358221220f1b1a5fb9e1ecff3eeae77b8c76060a677cc6bf1a691e7104cc80d1b9c4cc22d64736f6c63430008090033",
  "linkReferences": {},
  "deployedLinkReferences": {}
}