{
  "_format": "hh-sol-artifact-1",
  "contractName": "Factory",
  "sourceName": "contracts/ChanceRoom/Factory.sol",
  "abi": [
    {
      "inputs": [
        {
          "internalType": "address",
          "name": "_registerContract",
          "type": "address"
        },
        {
          "internalType": "address",
          "name": "_randomNumberConsumer",
          "type": "address"
        },
        {
          "internalType": "address",
          "name": "_NFTContractAddress",
          "type": "address"
        },
        {
          "internalType": "address",
          "name": "_chanceRoomLibrary",
          "type": "address"
        }
      ],
      "stateMutability": "nonpayable",
      "type": "constructor"
    },
    {
      "anonymous": false,
      "inputs": [
        {
          "indexed": false,
          "internalType": "address",
          "name": "newLibrary",
          "type": "address"
        },
        {
          "indexed": false,
          "internalType": "uint256",
          "name": "updateTime",
          "type": "uint256"
        }
      ],
      "name": "ChanceRoomLibraryUpdated",
      "type": "event"
    },
    {
      "anonymous": false,
      "inputs": [
        {
          "indexed": false,
          "internalType": "address",
          "name": "newNFTContract",
          "type": "address"
        },
        {
          "indexed": false,
          "internalType": "uint256",
          "name": "updateTime",
          "type": "uint256"
        }
      ],
      "name": "NFTContractUpdated",
      "type": "event"
    },
    {
      "anonymous": false,
      "inputs": [
        {
          "indexed": false,
          "internalType": "address",
          "name": "chanceRoom",
          "type": "address"
        },
        {
          "indexed": false,
          "internalType": "address",
          "name": "owner",
          "type": "address"
        },
        {
          "indexed": false,
          "internalType": "uint256",
          "name": "gateFee",
          "type": "uint256"
        },
        {
          "indexed": false,
          "internalType": "uint256",
          "name": "percentCommission",
          "type": "uint256"
        },
        {
          "indexed": false,
          "internalType": "uint256",
          "name": "userLimit",
          "type": "uint256"
        },
        {
          "indexed": false,
          "internalType": "uint256",
          "name": "deadline",
          "type": "uint256"
        }
      ],
      "name": "NewChanceRoom",
      "type": "event"
    },
    {
      "anonymous": false,
      "inputs": [
        {
          "indexed": true,
          "internalType": "address",
          "name": "previousOwner",
          "type": "address"
        },
        {
          "indexed": true,
          "internalType": "address",
          "name": "newOwner",
          "type": "address"
        }
      ],
      "name": "OwnershipTransferred",
      "type": "event"
    },
    {
      "anonymous": false,
      "inputs": [
        {
          "indexed": false,
          "internalType": "address",
          "name": "newConsumer",
          "type": "address"
        },
        {
          "indexed": false,
          "internalType": "uint256",
          "name": "updateTime",
          "type": "uint256"
        }
      ],
      "name": "RandomNumberConsumerUpdated",
      "type": "event"
    },
    {
      "inputs": [],
      "name": "NFTContract",
      "outputs": [
        {
          "internalType": "address",
          "name": "",
          "type": "address"
        }
      ],
      "stateMutability": "view",
      "type": "function"
    },
    {
      "inputs": [],
      "name": "chanceRoomLibrary",
      "outputs": [
        {
          "internalType": "address",
          "name": "",
          "type": "address"
        }
      ],
      "stateMutability": "view",
      "type": "function"
    },
    {
      "inputs": [
        {
          "internalType": "uint256",
          "name": "",
          "type": "uint256"
        }
      ],
      "name": "chanceRooms",
      "outputs": [
        {
          "internalType": "address",
          "name": "",
          "type": "address"
        }
      ],
      "stateMutability": "view",
      "type": "function"
    },
    {
      "inputs": [
        {
          "internalType": "int256",
          "name": "_length",
          "type": "int256"
        },
        {
          "internalType": "int256",
          "name": "_offset",
          "type": "int256"
        }
      ],
      "name": "chanceRoomsCloned",
      "outputs": [
        {
          "internalType": "address[]",
          "name": "",
          "type": "address[]"
        }
      ],
      "stateMutability": "view",
      "type": "function"
    },
    {
      "inputs": [
        {
          "internalType": "address",
          "name": "",
          "type": "address"
        },
        {
          "internalType": "uint256",
          "name": "",
          "type": "uint256"
        }
      ],
      "name": "creatorToRooms",
      "outputs": [
        {
          "internalType": "address",
          "name": "",
          "type": "address"
        }
      ],
      "stateMutability": "view",
      "type": "function"
    },
    {
      "inputs": [
        {
          "internalType": "string",
          "name": "info",
          "type": "string"
        },
        {
          "internalType": "string",
          "name": "baseURI",
          "type": "string"
        },
        {
          "internalType": "uint256",
          "name": "gateFee",
          "type": "uint256"
        },
        {
          "internalType": "uint256",
          "name": "percentCommission",
          "type": "uint256"
        },
        {
          "internalType": "uint256",
          "name": "userLimit",
          "type": "uint256"
        },
        {
          "internalType": "uint256",
          "name": "timeLimit",
          "type": "uint256"
        }
      ],
      "name": "newChanceRoom",
      "outputs": [],
      "stateMutability": "nonpayable",
      "type": "function"
    },
    {
      "inputs": [
        {
          "internalType": "address",
          "name": "_chanceRoomLibrary",
          "type": "address"
        }
      ],
      "name": "newChanceRoomLibrary",
      "outputs": [],
      "stateMutability": "nonpayable",
      "type": "function"
    },
    {
      "inputs": [
        {
          "internalType": "address",
          "name": "_NFTContractAddress",
          "type": "address"
        }
      ],
      "name": "newNFTContract",
      "outputs": [],
      "stateMutability": "nonpayable",
      "type": "function"
    },
    {
      "inputs": [
        {
          "internalType": "address",
          "name": "_randomNumberConsumer",
          "type": "address"
        }
      ],
      "name": "newRandomNumberConsumer",
      "outputs": [],
      "stateMutability": "nonpayable",
      "type": "function"
    },
    {
      "inputs": [],
      "name": "numberOfClonedChanceRooms",
      "outputs": [
        {
          "internalType": "uint256",
          "name": "",
          "type": "uint256"
        }
      ],
      "stateMutability": "view",
      "type": "function"
    },
    {
      "inputs": [],
      "name": "owner",
      "outputs": [
        {
          "internalType": "address",
          "name": "",
          "type": "address"
        }
      ],
      "stateMutability": "view",
      "type": "function"
    },
    {
      "inputs": [],
      "name": "randomNumberConsumer",
      "outputs": [
        {
          "internalType": "address",
          "name": "",
          "type": "address"
        }
      ],
      "stateMutability": "view",
      "type": "function"
    },
    {
      "inputs": [],
      "name": "registerContract",
      "outputs": [
        {
          "internalType": "address",
          "name": "",
          "type": "address"
        }
      ],
      "stateMutability": "view",
      "type": "function"
    },
    {
      "inputs": [],
      "name": "renounceOwnership",
      "outputs": [],
      "stateMutability": "nonpayable",
      "type": "function"
    },
    {
      "inputs": [
        {
          "internalType": "address",
          "name": "newOwner",
          "type": "address"
        }
      ],
      "name": "transferOwnership",
      "outputs": [],
      "stateMutability": "nonpayable",
      "type": "function"
    }
  ],
  "bytecode": "0x60806040523480156200001157600080fd5b50604051620021bb380380620021bb833981810160405281019062000037919062000627565b620000576200004b6200013860201b60201c565b6200014060201b60201c565b83600160006101000a81548173ffffffffffffffffffffffffffffffffffffffff021916908373ffffffffffffffffffffffffffffffffffffffff160217905550600160009054906101000a900473ffffffffffffffffffffffffffffffffffffffff16600560006101000a81548173ffffffffffffffffffffffffffffffffffffffff021916908373ffffffffffffffffffffffffffffffffffffffff1602179055506200010c836200020460201b60201c565b6200011d826200033460201b60201c565b6200012e816200046460201b60201c565b5050505062000775565b600033905090565b60008060009054906101000a900473ffffffffffffffffffffffffffffffffffffffff169050816000806101000a81548173ffffffffffffffffffffffffffffffffffffffff021916908373ffffffffffffffffffffffffffffffffffffffff1602179055508173ffffffffffffffffffffffffffffffffffffffff168173ffffffffffffffffffffffffffffffffffffffff167f8be0079c531659141344cd1fd0a4f28419497f9722a3daafe3b4186f6b6457e060405160405180910390a35050565b620002146200013860201b60201c565b73ffffffffffffffffffffffffffffffffffffffff166200023a6200059460201b60201c565b73ffffffffffffffffffffffffffffffffffffffff161462000293576040517f08c379a00000000000000000000000000000000000000000000000000000000081526004016200028a90620006fa565b60405180910390fd5b80600360006101000a81548173ffffffffffffffffffffffffffffffffffffffff021916908373ffffffffffffffffffffffffffffffffffffffff1602179055507fbba88e6e23bdc1165d7f9143b9264605235ada17a9a335d41b42b688f0d1ec2d600360009054906101000a900473ffffffffffffffffffffffffffffffffffffffff16426040516200032992919062000748565b60405180910390a150565b620003446200013860201b60201c565b73ffffffffffffffffffffffffffffffffffffffff166200036a6200059460201b60201c565b73ffffffffffffffffffffffffffffffffffffffff1614620003c3576040517f08c379a0000000000000000000000000000000000000000000000000000000008152600401620003ba90620006fa565b60405180910390fd5b80600460006101000a81548173ffffffffffffffffffffffffffffffffffffffff021916908373ffffffffffffffffffffffffffffffffffffffff1602179055507fc73979e992d22e193f7b5e662cd8c78074e65778072e4a967c02dfe18fca58af600460009054906101000a900473ffffffffffffffffffffffffffffffffffffffff16426040516200045992919062000748565b60405180910390a150565b620004746200013860201b60201c565b73ffffffffffffffffffffffffffffffffffffffff166200049a6200059460201b60201c565b73ffffffffffffffffffffffffffffffffffffffff1614620004f3576040517f08c379a0000000000000000000000000000000000000000000000000000000008152600401620004ea90620006fa565b60405180910390fd5b80600260006101000a81548173ffffffffffffffffffffffffffffffffffffffff021916908373ffffffffffffffffffffffffffffffffffffffff1602179055507f7e487d8b19c664bc86759c7a2d4b39dd066c32e710c107f87ce7045896d19f0d600260009054906101000a900473ffffffffffffffffffffffffffffffffffffffff16426040516200058992919062000748565b60405180910390a150565b60008060009054906101000a900473ffffffffffffffffffffffffffffffffffffffff16905090565b600080fd5b600073ffffffffffffffffffffffffffffffffffffffff82169050919050565b6000620005ef82620005c2565b9050919050565b6200060181620005e2565b81146200060d57600080fd5b50565b6000815190506200062181620005f6565b92915050565b60008060008060808587031215620006445762000643620005bd565b5b6000620006548782880162000610565b9450506020620006678782880162000610565b93505060406200067a8782880162000610565b92505060606200068d8782880162000610565b91505092959194509250565b600082825260208201905092915050565b7f4f776e61626c653a2063616c6c6572206973206e6f7420746865206f776e6572600082015250565b6000620006e260208362000699565b9150620006ef82620006aa565b602082019050919050565b600060208201905081810360008301526200071581620006d3565b9050919050565b6200072781620005e2565b82525050565b6000819050919050565b62000742816200072d565b82525050565b60006040820190506200075f60008301856200071c565b6200076e602083018462000737565b9392505050565b611a3680620007856000396000f3fe608060405234801561001057600080fd5b50600436106100f55760003560e01c806396531cea11610097578063dab95a4911610066578063dab95a4914610250578063f2fde38b1461026c578063f4603bc814610288578063f4af382a146102a4576100f5565b806396531cea146101ca578063b6ca8db9146101e6578063c46aeda914610204578063da7d175014610220576100f5565b806346df22da116100d357806346df22da14610166578063715018a6146101845780637feffff31461018e5780638da5cb5b146101ac576100f5565b806320d15dbb146100fa57806331c2273b1461012a578063410ad8d114610148575b600080fd5b610114600480360381019061010f9190610fe3565b6102d4565b6040516101219190611032565b60405180910390f35b610132610322565b60405161013f9190611032565b60405180910390f35b610150610348565b60405161015d919061105c565b60405180910390f35b61016e610355565b60405161017b9190611032565b60405180910390f35b61018c61037b565b005b610196610403565b6040516101a39190611032565b60405180910390f35b6101b4610429565b6040516101c19190611032565b60405180910390f35b6101e460048036038101906101df91906111bd565b610452565b005b6101ee6107ab565b6040516101fb9190611032565b60405180910390f35b61021e60048036038101906102199190611282565b6107d1565b005b61023a600480360381019061023591906112e5565b6108ec565b60405161024791906113e3565b60405180910390f35b61026a60048036038101906102659190611282565b610a2d565b005b61028660048036038101906102819190611282565b610b48565b005b6102a2600480360381019061029d9190611282565b610c40565b005b6102be60048036038101906102b99190611405565b610d5b565b6040516102cb9190611032565b60405180910390f35b600760205281600052604060002081815481106102f057600080fd5b906000526020600020016000915091509054906101000a900473ffffffffffffffffffffffffffffffffffffffff1681565b600460009054906101000a900473ffffffffffffffffffffffffffffffffffffffff1681565b6000600680549050905090565b600360009054906101000a900473ffffffffffffffffffffffffffffffffffffffff1681565b610383610d9a565b73ffffffffffffffffffffffffffffffffffffffff166103a1610429565b73ffffffffffffffffffffffffffffffffffffffff16146103f7576040517f08c379a00000000000000000000000000000000000000000000000000000000081526004016103ee9061148f565b60405180910390fd5b6104016000610da2565b565b600160009054906101000a900473ffffffffffffffffffffffffffffffffffffffff1681565b60008060009054906101000a900473ffffffffffffffffffffffffffffffffffffffff16905090565b600061045c610d9a565b9050600560009054906101000a900473ffffffffffffffffffffffffffffffffffffffff1673ffffffffffffffffffffffffffffffffffffffff1663b2dd5c07826040518263ffffffff1660e01b81526004016104b99190611032565b60206040518083038186803b1580156104d157600080fd5b505afa1580156104e5573d6000803e3d6000fd5b505050506040513d601f19601f8201168201806040525081019061050991906114e7565b610548576040517f08c379a000000000000000000000000000000000000000000000000000000000815260040161053f90611586565b60405180910390fd5b600061058b600260009054906101000a900473ffffffffffffffffffffffffffffffffffffffff1673ffffffffffffffffffffffffffffffffffffffff16610e66565b905060008190508073ffffffffffffffffffffffffffffffffffffffff166303d3c2188a8a8a8a8a8a8a600360009054906101000a900473ffffffffffffffffffffffffffffffffffffffff16600460009054906101000a900473ffffffffffffffffffffffffffffffffffffffff166040518a63ffffffff1660e01b815260040161061f9998979695949392919061161d565b600060405180830381600087803b15801561063957600080fd5b505af115801561064d573d6000803e3d6000fd5b50505050600760008473ffffffffffffffffffffffffffffffffffffffff1673ffffffffffffffffffffffffffffffffffffffff168152602001908152602001600020829080600181540180825580915050600190039060005260206000200160009091909190916101000a81548173ffffffffffffffffffffffffffffffffffffffff021916908373ffffffffffffffffffffffffffffffffffffffff1602179055506006829080600181540180825580915050600190039060005260206000200160009091909190916101000a81548173ffffffffffffffffffffffffffffffffffffffff021916908373ffffffffffffffffffffffffffffffffffffffff1602179055507fd1acb0e35d2d7d1bc4af7f87bd7d532ec506209dab4cf0a35cb6fc7cfab998c58284898989428a61078691906116e7565b6040516107989695949392919061173d565b60405180910390a1505050505050505050565b600260009054906101000a900473ffffffffffffffffffffffffffffffffffffffff1681565b6107d9610d9a565b73ffffffffffffffffffffffffffffffffffffffff166107f7610429565b73ffffffffffffffffffffffffffffffffffffffff161461084d576040517f08c379a00000000000000000000000000000000000000000000000000000000081526004016108449061148f565b60405180910390fd5b80600260006101000a81548173ffffffffffffffffffffffffffffffffffffffff021916908373ffffffffffffffffffffffffffffffffffffffff1602179055507f7e487d8b19c664bc86759c7a2d4b39dd066c32e710c107f87ce7045896d19f0d600260009054906101000a900473ffffffffffffffffffffffffffffffffffffffff16426040516108e192919061179e565b60405180910390a150565b6060600680549050838361090091906117c7565b111561090f5761090e61185b565b5b60008367ffffffffffffffff81111561092b5761092a611092565b5b6040519080825280602002602001820160405280156109595781602001602082028036833780820191505090505b5090506000808490505b858561096f91906117c7565b811015610a21576006818154811061098a5761098961188a565b5b9060005260206000200160009054906101000a900473ffffffffffffffffffffffffffffffffffffffff168383806109c1906118b9565b9450815181106109d4576109d361188a565b5b602002602001019073ffffffffffffffffffffffffffffffffffffffff16908173ffffffffffffffffffffffffffffffffffffffff16815250508080610a19906118b9565b915050610963565b50819250505092915050565b610a35610d9a565b73ffffffffffffffffffffffffffffffffffffffff16610a53610429565b73ffffffffffffffffffffffffffffffffffffffff1614610aa9576040517f08c379a0000000000000000000000000000000000000000000000000000000008152600401610aa09061148f565b60405180910390fd5b80600460006101000a81548173ffffffffffffffffffffffffffffffffffffffff021916908373ffffffffffffffffffffffffffffffffffffffff1602179055507fc73979e992d22e193f7b5e662cd8c78074e65778072e4a967c02dfe18fca58af600460009054906101000a900473ffffffffffffffffffffffffffffffffffffffff1642604051610b3d92919061179e565b60405180910390a150565b610b50610d9a565b73ffffffffffffffffffffffffffffffffffffffff16610b6e610429565b73ffffffffffffffffffffffffffffffffffffffff1614610bc4576040517f08c379a0000000000000000000000000000000000000000000000000000000008152600401610bbb9061148f565b60405180910390fd5b600073ffffffffffffffffffffffffffffffffffffffff168173ffffffffffffffffffffffffffffffffffffffff161415610c34576040517f08c379a0000000000000000000000000000000000000000000000000000000008152600401610c2b90611974565b60405180910390fd5b610c3d81610da2565b50565b610c48610d9a565b73ffffffffffffffffffffffffffffffffffffffff16610c66610429565b73ffffffffffffffffffffffffffffffffffffffff1614610cbc576040517f08c379a0000000000000000000000000000000000000000000000000000000008152600401610cb39061148f565b60405180910390fd5b80600360006101000a81548173ffffffffffffffffffffffffffffffffffffffff021916908373ffffffffffffffffffffffffffffffffffffffff1602179055507fbba88e6e23bdc1165d7f9143b9264605235ada17a9a335d41b42b688f0d1ec2d600360009054906101000a900473ffffffffffffffffffffffffffffffffffffffff1642604051610d5092919061179e565b60405180910390a150565b60068181548110610d6b57600080fd5b906000526020600020016000915054906101000a900473ffffffffffffffffffffffffffffffffffffffff1681565b600033905090565b60008060009054906101000a900473ffffffffffffffffffffffffffffffffffffffff169050816000806101000a81548173ffffffffffffffffffffffffffffffffffffffff021916908373ffffffffffffffffffffffffffffffffffffffff1602179055508173ffffffffffffffffffffffffffffffffffffffff168173ffffffffffffffffffffffffffffffffffffffff167f8be0079c531659141344cd1fd0a4f28419497f9722a3daafe3b4186f6b6457e060405160405180910390a35050565b60006040517f3d602d80600a3d3981f3363d3d373d3d3d363d7300000000000000000000000081528260601b60148201527f5af43d82803e903d91602b57fd5bf3000000000000000000000000000000000060288201526037816000f0915050600073ffffffffffffffffffffffffffffffffffffffff168173ffffffffffffffffffffffffffffffffffffffff161415610f36576040517f08c379a0000000000000000000000000000000000000000000000000000000008152600401610f2d906119e0565b60405180910390fd5b919050565b6000604051905090565b600080fd5b600080fd5b600073ffffffffffffffffffffffffffffffffffffffff82169050919050565b6000610f7a82610f4f565b9050919050565b610f8a81610f6f565b8114610f9557600080fd5b50565b600081359050610fa781610f81565b92915050565b6000819050919050565b610fc081610fad565b8114610fcb57600080fd5b50565b600081359050610fdd81610fb7565b92915050565b60008060408385031215610ffa57610ff9610f45565b5b600061100885828601610f98565b925050602061101985828601610fce565b9150509250929050565b61102c81610f6f565b82525050565b60006020820190506110476000830184611023565b92915050565b61105681610fad565b82525050565b6000602082019050611071600083018461104d565b92915050565b600080fd5b600080fd5b6000601f19601f8301169050919050565b7f4e487b7100000000000000000000000000000000000000000000000000000000600052604160045260246000fd5b6110ca82611081565b810181811067ffffffffffffffff821117156110e9576110e8611092565b5b80604052505050565b60006110fc610f3b565b905061110882826110c1565b919050565b600067ffffffffffffffff82111561112857611127611092565b5b61113182611081565b9050602081019050919050565b82818337600083830152505050565b600061116061115b8461110d565b6110f2565b90508281526020810184848401111561117c5761117b61107c565b5b61118784828561113e565b509392505050565b600082601f8301126111a4576111a3611077565b5b81356111b484826020860161114d565b91505092915050565b60008060008060008060c087890312156111da576111d9610f45565b5b600087013567ffffffffffffffff8111156111f8576111f7610f4a565b5b61120489828a0161118f565b965050602087013567ffffffffffffffff81111561122557611224610f4a565b5b61123189828a0161118f565b955050604061124289828a01610fce565b945050606061125389828a01610fce565b935050608061126489828a01610fce565b92505060a061127589828a01610fce565b9150509295509295509295565b60006020828403121561129857611297610f45565b5b60006112a684828501610f98565b91505092915050565b6000819050919050565b6112c2816112af565b81146112cd57600080fd5b50565b6000813590506112df816112b9565b92915050565b600080604083850312156112fc576112fb610f45565b5b600061130a858286016112d0565b925050602061131b858286016112d0565b9150509250929050565b600081519050919050565b600082825260208201905092915050565b6000819050602082019050919050565b61135a81610f6f565b82525050565b600061136c8383611351565b60208301905092915050565b6000602082019050919050565b600061139082611325565b61139a8185611330565b93506113a583611341565b8060005b838110156113d65781516113bd8882611360565b97506113c883611378565b9250506001810190506113a9565b5085935050505092915050565b600060208201905081810360008301526113fd8184611385565b905092915050565b60006020828403121561141b5761141a610f45565b5b600061142984828501610fce565b91505092915050565b600082825260208201905092915050565b7f4f776e61626c653a2063616c6c6572206973206e6f7420746865206f776e6572600082015250565b6000611479602083611432565b915061148482611443565b602082019050919050565b600060208201905081810360008301526114a88161146c565b9050919050565b60008115159050919050565b6114c4816114af565b81146114cf57600080fd5b50565b6000815190506114e1816114bb565b92915050565b6000602082840312156114fd576114fc610f45565b5b600061150b848285016114d2565b91505092915050565b7f4f6e6c79205649502075736572732063616e20636c6f6e652074686520636f6e60008201527f74726163742e0000000000000000000000000000000000000000000000000000602082015250565b6000611570602683611432565b915061157b82611514565b604082019050919050565b6000602082019050818103600083015261159f81611563565b9050919050565b600081519050919050565b60005b838110156115cf5780820151818401526020810190506115b4565b838111156115de576000848401525b50505050565b60006115ef826115a6565b6115f98185611432565b93506116098185602086016115b1565b61161281611081565b840191505092915050565b6000610120820190508181036000830152611638818c6115e4565b9050818103602083015261164c818b6115e4565b905061165b604083018a61104d565b611668606083018961104d565b611675608083018861104d565b61168260a083018761104d565b61168f60c0830186611023565b61169c60e0830185611023565b6116aa610100830184611023565b9a9950505050505050505050565b7f4e487b7100000000000000000000000000000000000000000000000000000000600052601160045260246000fd5b60006116f282610fad565b91506116fd83610fad565b9250827fffffffffffffffffffffffffffffffffffffffffffffffffffffffffffffffff03821115611732576117316116b8565b5b828201905092915050565b600060c0820190506117526000830189611023565b61175f6020830188611023565b61176c604083018761104d565b611779606083018661104d565b611786608083018561104d565b61179360a083018461104d565b979650505050505050565b60006040820190506117b36000830185611023565b6117c0602083018461104d565b9392505050565b60006117d2826112af565b91506117dd836112af565b9250817f7fffffffffffffffffffffffffffffffffffffffffffffffffffffffffffffff03831360008312151615611818576118176116b8565b5b817f80000000000000000000000000000000000000000000000000000000000000000383126000831216156118505761184f6116b8565b5b828201905092915050565b7f4e487b7100000000000000000000000000000000000000000000000000000000600052600160045260246000fd5b7f4e487b7100000000000000000000000000000000000000000000000000000000600052603260045260246000fd5b60006118c482610fad565b91507fffffffffffffffffffffffffffffffffffffffffffffffffffffffffffffffff8214156118f7576118f66116b8565b5b600182019050919050565b7f4f776e61626c653a206e6577206f776e657220697320746865207a65726f206160008201527f6464726573730000000000000000000000000000000000000000000000000000602082015250565b600061195e602683611432565b915061196982611902565b604082019050919050565b6000602082019050818103600083015261198d81611951565b9050919050565b7f455243313136373a20637265617465206661696c656400000000000000000000600082015250565b60006119ca601683611432565b91506119d582611994565b602082019050919050565b600060208201905081810360008301526119f9816119bd565b905091905056fea264697066735822122052fc047cb367fd7e2b2ee7e3e333d1aa6ce4b492949728b1fa1311cfc110f03364736f6c63430008090033",
  "linkReferences": {},
  "deployedLinkReferences": {}
}