{
  "_format": "hh-sol-artifact-1",
  "contractName": "Factory",
  "sourceName": "contracts/ChanceRoom/Factory.sol",
  "abi": [
    {
      "inputs": [
        {
          "internalType": "address",
          "name": "_registerContract",
          "type": "address"
        },
        {
          "internalType": "address",
          "name": "_randomNumberConsumer",
          "type": "address"
        },
        {
          "internalType": "address",
          "name": "_NFTContractAddress",
          "type": "address"
        },
        {
          "internalType": "address",
          "name": "_chanceRoomLibrary",
          "type": "address"
        },
        {
          "internalType": "address",
          "name": "_LOTTAddress",
          "type": "address"
        },
        {
          "internalType": "uint256",
          "name": "_cloneFee",
          "type": "uint256"
        }
      ],
      "stateMutability": "nonpayable",
      "type": "constructor"
    },
    {
      "anonymous": false,
      "inputs": [
        {
          "indexed": false,
          "internalType": "address",
          "name": "newLibrary",
          "type": "address"
        },
        {
          "indexed": false,
          "internalType": "uint256",
          "name": "updateTime",
          "type": "uint256"
        }
      ],
      "name": "ChanceRoomLibraryUpdated",
      "type": "event"
    },
    {
      "anonymous": false,
      "inputs": [
        {
          "indexed": false,
          "internalType": "address",
          "name": "newNFTContract",
          "type": "address"
        },
        {
          "indexed": false,
          "internalType": "uint256",
          "name": "updateTime",
          "type": "uint256"
        }
      ],
      "name": "NFTContractUpdated",
      "type": "event"
    },
    {
      "anonymous": false,
      "inputs": [
        {
          "indexed": false,
          "internalType": "address",
          "name": "chanceRoom",
          "type": "address"
        },
        {
          "indexed": false,
          "internalType": "address",
          "name": "owner",
          "type": "address"
        },
        {
          "indexed": false,
          "internalType": "uint256",
          "name": "gateFee",
          "type": "uint256"
        },
        {
          "indexed": false,
          "internalType": "uint256",
          "name": "percentCommission",
          "type": "uint256"
        },
        {
          "indexed": false,
          "internalType": "uint256",
          "name": "userLimit",
          "type": "uint256"
        },
        {
          "indexed": false,
          "internalType": "uint256",
          "name": "deadline",
          "type": "uint256"
        }
      ],
      "name": "NewChanceRoom",
      "type": "event"
    },
    {
      "anonymous": false,
      "inputs": [
        {
          "indexed": true,
          "internalType": "address",
          "name": "previousOwner",
          "type": "address"
        },
        {
          "indexed": true,
          "internalType": "address",
          "name": "newOwner",
          "type": "address"
        }
      ],
      "name": "OwnershipTransferred",
      "type": "event"
    },
    {
      "anonymous": false,
      "inputs": [
        {
          "indexed": false,
          "internalType": "address",
          "name": "newConsumer",
          "type": "address"
        },
        {
          "indexed": false,
          "internalType": "uint256",
          "name": "updateTime",
          "type": "uint256"
        }
      ],
      "name": "RandomNumberConsumerUpdated",
      "type": "event"
    },
    {
      "inputs": [],
      "name": "NFTContract",
      "outputs": [
        {
          "internalType": "address",
          "name": "",
          "type": "address"
        }
      ],
      "stateMutability": "view",
      "type": "function"
    },
    {
      "inputs": [],
      "name": "chanceRoomLibrary",
      "outputs": [
        {
          "internalType": "address",
          "name": "",
          "type": "address"
        }
      ],
      "stateMutability": "view",
      "type": "function"
    },
    {
      "inputs": [
        {
          "internalType": "uint256",
          "name": "",
          "type": "uint256"
        }
      ],
      "name": "chanceRooms",
      "outputs": [
        {
          "internalType": "address",
          "name": "",
          "type": "address"
        }
      ],
      "stateMutability": "view",
      "type": "function"
    },
    {
      "inputs": [
        {
          "internalType": "int256",
          "name": "_length",
          "type": "int256"
        },
        {
          "internalType": "int256",
          "name": "_offset",
          "type": "int256"
        }
      ],
      "name": "chanceRoomsCloned",
      "outputs": [
        {
          "internalType": "address[]",
          "name": "",
          "type": "address[]"
        }
      ],
      "stateMutability": "view",
      "type": "function"
    },
    {
      "inputs": [
        {
          "internalType": "address",
          "name": "",
          "type": "address"
        },
        {
          "internalType": "uint256",
          "name": "",
          "type": "uint256"
        }
      ],
      "name": "creatorToRooms",
      "outputs": [
        {
          "internalType": "address",
          "name": "",
          "type": "address"
        }
      ],
      "stateMutability": "view",
      "type": "function"
    },
    {
      "inputs": [
        {
          "internalType": "string",
          "name": "info",
          "type": "string"
        },
        {
          "internalType": "string",
          "name": "baseURI",
          "type": "string"
        },
        {
          "internalType": "uint256",
          "name": "gateFee",
          "type": "uint256"
        },
        {
          "internalType": "uint256",
          "name": "percentCommission",
          "type": "uint256"
        },
        {
          "internalType": "uint256",
          "name": "userLimit",
          "type": "uint256"
        },
        {
          "internalType": "uint256",
          "name": "timeLimit",
          "type": "uint256"
        }
      ],
      "name": "newChanceRoom",
      "outputs": [],
      "stateMutability": "nonpayable",
      "type": "function"
    },
    {
      "inputs": [
        {
          "internalType": "address",
          "name": "_chanceRoomLibrary",
          "type": "address"
        }
      ],
      "name": "newChanceRoomLibrary",
      "outputs": [],
      "stateMutability": "nonpayable",
      "type": "function"
    },
    {
      "inputs": [
        {
          "internalType": "address",
          "name": "LOTTAddr",
          "type": "address"
        }
      ],
      "name": "newLOTT",
      "outputs": [],
      "stateMutability": "nonpayable",
      "type": "function"
    },
    {
      "inputs": [
        {
          "internalType": "address",
          "name": "_NFTContractAddress",
          "type": "address"
        }
      ],
      "name": "newNFTContract",
      "outputs": [],
      "stateMutability": "nonpayable",
      "type": "function"
    },
    {
      "inputs": [
        {
          "internalType": "address",
          "name": "_randomNumberConsumer",
          "type": "address"
        }
      ],
      "name": "newRandomNumberConsumer",
      "outputs": [],
      "stateMutability": "nonpayable",
      "type": "function"
    },
    {
      "inputs": [],
      "name": "numberOfClonedChanceRooms",
      "outputs": [
        {
          "internalType": "uint256",
          "name": "",
          "type": "uint256"
        }
      ],
      "stateMutability": "view",
      "type": "function"
    },
    {
      "inputs": [],
      "name": "owner",
      "outputs": [
        {
          "internalType": "address",
          "name": "",
          "type": "address"
        }
      ],
      "stateMutability": "view",
      "type": "function"
    },
    {
      "inputs": [],
      "name": "randomNumberConsumer",
      "outputs": [
        {
          "internalType": "address",
          "name": "",
          "type": "address"
        }
      ],
      "stateMutability": "view",
      "type": "function"
    },
    {
      "inputs": [],
      "name": "registerContract",
      "outputs": [
        {
          "internalType": "address",
          "name": "",
          "type": "address"
        }
      ],
      "stateMutability": "view",
      "type": "function"
    },
    {
      "inputs": [],
      "name": "renounceOwnership",
      "outputs": [],
      "stateMutability": "nonpayable",
      "type": "function"
    },
    {
      "inputs": [
        {
          "internalType": "uint256",
          "name": "_cloneFee",
          "type": "uint256"
        }
      ],
      "name": "setCloneFee",
      "outputs": [],
      "stateMutability": "nonpayable",
      "type": "function"
    },
    {
      "inputs": [
        {
          "internalType": "address",
          "name": "newOwner",
          "type": "address"
        }
      ],
      "name": "transferOwnership",
      "outputs": [],
      "stateMutability": "nonpayable",
      "type": "function"
    }
  ],
  "bytecode": "0x60806040523480156200001157600080fd5b50604051620025cb380380620025cb8339818101604052810190620000379190620007f2565b620000576200004b6200015c60201b60201c565b6200016460201b60201c565b85600160006101000a81548173ffffffffffffffffffffffffffffffffffffffff021916908373ffffffffffffffffffffffffffffffffffffffff160217905550600160009054906101000a900473ffffffffffffffffffffffffffffffffffffffff16600660006101000a81548173ffffffffffffffffffffffffffffffffffffffff021916908373ffffffffffffffffffffffffffffffffffffffff1602179055506200010c856200022860201b60201c565b6200011d846200035860201b60201c565b6200012e836200048860201b60201c565b6200013f82620005b860201b60201c565b62000150816200068b60201b60201c565b50505050505062000960565b600033905090565b60008060009054906101000a900473ffffffffffffffffffffffffffffffffffffffff169050816000806101000a81548173ffffffffffffffffffffffffffffffffffffffff021916908373ffffffffffffffffffffffffffffffffffffffff1602179055508173ffffffffffffffffffffffffffffffffffffffff168173ffffffffffffffffffffffffffffffffffffffff167f8be0079c531659141344cd1fd0a4f28419497f9722a3daafe3b4186f6b6457e060405160405180910390a35050565b620002386200015c60201b60201c565b73ffffffffffffffffffffffffffffffffffffffff166200025e6200072460201b60201c565b73ffffffffffffffffffffffffffffffffffffffff1614620002b7576040517f08c379a0000000000000000000000000000000000000000000000000000000008152600401620002ae90620008ef565b60405180910390fd5b80600360006101000a81548173ffffffffffffffffffffffffffffffffffffffff021916908373ffffffffffffffffffffffffffffffffffffffff1602179055507fbba88e6e23bdc1165d7f9143b9264605235ada17a9a335d41b42b688f0d1ec2d600360009054906101000a900473ffffffffffffffffffffffffffffffffffffffff16426040516200034d92919062000933565b60405180910390a150565b620003686200015c60201b60201c565b73ffffffffffffffffffffffffffffffffffffffff166200038e6200072460201b60201c565b73ffffffffffffffffffffffffffffffffffffffff1614620003e7576040517f08c379a0000000000000000000000000000000000000000000000000000000008152600401620003de90620008ef565b60405180910390fd5b80600460006101000a81548173ffffffffffffffffffffffffffffffffffffffff021916908373ffffffffffffffffffffffffffffffffffffffff1602179055507fc73979e992d22e193f7b5e662cd8c78074e65778072e4a967c02dfe18fca58af600460009054906101000a900473ffffffffffffffffffffffffffffffffffffffff16426040516200047d92919062000933565b60405180910390a150565b620004986200015c60201b60201c565b73ffffffffffffffffffffffffffffffffffffffff16620004be6200072460201b60201c565b73ffffffffffffffffffffffffffffffffffffffff161462000517576040517f08c379a00000000000000000000000000000000000000000000000000000000081526004016200050e90620008ef565b60405180910390fd5b80600260006101000a81548173ffffffffffffffffffffffffffffffffffffffff021916908373ffffffffffffffffffffffffffffffffffffffff1602179055507f7e487d8b19c664bc86759c7a2d4b39dd066c32e710c107f87ce7045896d19f0d600260009054906101000a900473ffffffffffffffffffffffffffffffffffffffff1642604051620005ad92919062000933565b60405180910390a150565b620005c86200015c60201b60201c565b73ffffffffffffffffffffffffffffffffffffffff16620005ee6200072460201b60201c565b73ffffffffffffffffffffffffffffffffffffffff161462000647576040517f08c379a00000000000000000000000000000000000000000000000000000000081526004016200063e90620008ef565b60405180910390fd5b80600560006101000a81548173ffffffffffffffffffffffffffffffffffffffff021916908373ffffffffffffffffffffffffffffffffffffffff16021790555050565b6200069b6200015c60201b60201c565b73ffffffffffffffffffffffffffffffffffffffff16620006c16200072460201b60201c565b73ffffffffffffffffffffffffffffffffffffffff16146200071a576040517f08c379a00000000000000000000000000000000000000000000000000000000081526004016200071190620008ef565b60405180910390fd5b8060078190555050565b60008060009054906101000a900473ffffffffffffffffffffffffffffffffffffffff16905090565b600080fd5b600073ffffffffffffffffffffffffffffffffffffffff82169050919050565b60006200077f8262000752565b9050919050565b620007918162000772565b81146200079d57600080fd5b50565b600081519050620007b18162000786565b92915050565b6000819050919050565b620007cc81620007b7565b8114620007d857600080fd5b50565b600081519050620007ec81620007c1565b92915050565b60008060008060008060c087890312156200081257620008116200074d565b5b60006200082289828a01620007a0565b96505060206200083589828a01620007a0565b95505060406200084889828a01620007a0565b94505060606200085b89828a01620007a0565b93505060806200086e89828a01620007a0565b92505060a06200088189828a01620007db565b9150509295509295509295565b600082825260208201905092915050565b7f4f776e61626c653a2063616c6c6572206973206e6f7420746865206f776e6572600082015250565b6000620008d76020836200088e565b9150620008e4826200089f565b602082019050919050565b600060208201905081810360008301526200090a81620008c8565b9050919050565b6200091c8162000772565b82525050565b6200092d81620007b7565b82525050565b60006040820190506200094a600083018562000911565b62000959602083018462000922565b9392505050565b611c5b80620009706000396000f3fe608060405234801561001057600080fd5b506004361061010b5760003560e01c80638da5cb5b116100a2578063da7d175011610071578063da7d17501461026e578063dab95a491461029e578063f2fde38b146102ba578063f4603bc8146102d6578063f4af382a146102f25761010b565b80638da5cb5b146101fa57806396531cea14610218578063b6ca8db914610234578063c46aeda9146102525761010b565b806346df22da116100de57806346df22da146101985780635bb4b704146101b6578063715018a6146101d25780637feffff3146101dc5761010b565b806320d15dbb1461011057806331c2273b14610140578063410ad8d11461015e57806344addd5f1461017c575b600080fd5b61012a60048036038101906101259190611208565b610322565b6040516101379190611257565b60405180910390f35b610148610370565b6040516101559190611257565b60405180910390f35b610166610396565b6040516101739190611281565b60405180910390f35b6101966004803603810190610191919061129c565b6103a3565b005b6101a0610463565b6040516101ad9190611257565b60405180910390f35b6101d060048036038101906101cb91906112c9565b610489565b005b6101da61050f565b005b6101e4610597565b6040516101f19190611257565b60405180910390f35b6102026105bd565b60405161020f9190611257565b60405180910390f35b610232600480360381019061022d919061143c565b6105e6565b005b61023c6109d0565b6040516102499190611257565b60405180910390f35b61026c6004803603810190610267919061129c565b6109f6565b005b61028860048036038101906102839190611537565b610b11565b6040516102959190611635565b60405180910390f35b6102b860048036038101906102b3919061129c565b610c52565b005b6102d460048036038101906102cf919061129c565b610d6d565b005b6102f060048036038101906102eb919061129c565b610e65565b005b61030c600480360381019061030791906112c9565b610f80565b6040516103199190611257565b60405180910390f35b6009602052816000526040600020818154811061033e57600080fd5b906000526020600020016000915091509054906101000a900473ffffffffffffffffffffffffffffffffffffffff1681565b600460009054906101000a900473ffffffffffffffffffffffffffffffffffffffff1681565b6000600880549050905090565b6103ab610fbf565b73ffffffffffffffffffffffffffffffffffffffff166103c96105bd565b73ffffffffffffffffffffffffffffffffffffffff161461041f576040517f08c379a0000000000000000000000000000000000000000000000000000000008152600401610416906116b4565b60405180910390fd5b80600560006101000a81548173ffffffffffffffffffffffffffffffffffffffff021916908373ffffffffffffffffffffffffffffffffffffffff16021790555050565b600360009054906101000a900473ffffffffffffffffffffffffffffffffffffffff1681565b610491610fbf565b73ffffffffffffffffffffffffffffffffffffffff166104af6105bd565b73ffffffffffffffffffffffffffffffffffffffff1614610505576040517f08c379a00000000000000000000000000000000000000000000000000000000081526004016104fc906116b4565b60405180910390fd5b8060078190555050565b610517610fbf565b73ffffffffffffffffffffffffffffffffffffffff166105356105bd565b73ffffffffffffffffffffffffffffffffffffffff161461058b576040517f08c379a0000000000000000000000000000000000000000000000000000000008152600401610582906116b4565b60405180910390fd5b6105956000610fc7565b565b600160009054906101000a900473ffffffffffffffffffffffffffffffffffffffff1681565b60008060009054906101000a900473ffffffffffffffffffffffffffffffffffffffff16905090565b60006105f0610fbf565b9050600660009054906101000a900473ffffffffffffffffffffffffffffffffffffffff1673ffffffffffffffffffffffffffffffffffffffff1663b2dd5c07826040518263ffffffff1660e01b815260040161064d9190611257565b60206040518083038186803b15801561066557600080fd5b505afa158015610679573d6000803e3d6000fd5b505050506040513d601f19601f8201168201806040525081019061069d919061170c565b6106dc576040517f08c379a00000000000000000000000000000000000000000000000000000000081526004016106d3906117ab565b60405180910390fd5b600560009054906101000a900473ffffffffffffffffffffffffffffffffffffffff1673ffffffffffffffffffffffffffffffffffffffff166379cc6790826007546040518363ffffffff1660e01b815260040161073b9291906117cb565b600060405180830381600087803b15801561075557600080fd5b505af1158015610769573d6000803e3d6000fd5b5050505060006107b0600260009054906101000a900473ffffffffffffffffffffffffffffffffffffffff1673ffffffffffffffffffffffffffffffffffffffff1661108b565b905060008190508073ffffffffffffffffffffffffffffffffffffffff166303d3c2188a8a8a8a8a8a8a600360009054906101000a900473ffffffffffffffffffffffffffffffffffffffff16600460009054906101000a900473ffffffffffffffffffffffffffffffffffffffff166040518a63ffffffff1660e01b81526004016108449998979695949392919061186b565b600060405180830381600087803b15801561085e57600080fd5b505af1158015610872573d6000803e3d6000fd5b50505050600960008473ffffffffffffffffffffffffffffffffffffffff1673ffffffffffffffffffffffffffffffffffffffff168152602001908152602001600020829080600181540180825580915050600190039060005260206000200160009091909190916101000a81548173ffffffffffffffffffffffffffffffffffffffff021916908373ffffffffffffffffffffffffffffffffffffffff1602179055506008829080600181540180825580915050600190039060005260206000200160009091909190916101000a81548173ffffffffffffffffffffffffffffffffffffffff021916908373ffffffffffffffffffffffffffffffffffffffff1602179055507fd1acb0e35d2d7d1bc4af7f87bd7d532ec506209dab4cf0a35cb6fc7cfab998c58284898989428a6109ab9190611935565b6040516109bd9695949392919061198b565b60405180910390a1505050505050505050565b600260009054906101000a900473ffffffffffffffffffffffffffffffffffffffff1681565b6109fe610fbf565b73ffffffffffffffffffffffffffffffffffffffff16610a1c6105bd565b73ffffffffffffffffffffffffffffffffffffffff1614610a72576040517f08c379a0000000000000000000000000000000000000000000000000000000008152600401610a69906116b4565b60405180910390fd5b80600260006101000a81548173ffffffffffffffffffffffffffffffffffffffff021916908373ffffffffffffffffffffffffffffffffffffffff1602179055507f7e487d8b19c664bc86759c7a2d4b39dd066c32e710c107f87ce7045896d19f0d600260009054906101000a900473ffffffffffffffffffffffffffffffffffffffff1642604051610b069291906117cb565b60405180910390a150565b60606008805490508383610b2591906119ec565b1115610b3457610b33611a80565b5b60008367ffffffffffffffff811115610b5057610b4f611311565b5b604051908082528060200260200182016040528015610b7e5781602001602082028036833780820191505090505b5090506000808490505b8585610b9491906119ec565b811015610c465760088181548110610baf57610bae611aaf565b5b9060005260206000200160009054906101000a900473ffffffffffffffffffffffffffffffffffffffff16838380610be690611ade565b945081518110610bf957610bf8611aaf565b5b602002602001019073ffffffffffffffffffffffffffffffffffffffff16908173ffffffffffffffffffffffffffffffffffffffff16815250508080610c3e90611ade565b915050610b88565b50819250505092915050565b610c5a610fbf565b73ffffffffffffffffffffffffffffffffffffffff16610c786105bd565b73ffffffffffffffffffffffffffffffffffffffff1614610cce576040517f08c379a0000000000000000000000000000000000000000000000000000000008152600401610cc5906116b4565b60405180910390fd5b80600460006101000a81548173ffffffffffffffffffffffffffffffffffffffff021916908373ffffffffffffffffffffffffffffffffffffffff1602179055507fc73979e992d22e193f7b5e662cd8c78074e65778072e4a967c02dfe18fca58af600460009054906101000a900473ffffffffffffffffffffffffffffffffffffffff1642604051610d629291906117cb565b60405180910390a150565b610d75610fbf565b73ffffffffffffffffffffffffffffffffffffffff16610d936105bd565b73ffffffffffffffffffffffffffffffffffffffff1614610de9576040517f08c379a0000000000000000000000000000000000000000000000000000000008152600401610de0906116b4565b60405180910390fd5b600073ffffffffffffffffffffffffffffffffffffffff168173ffffffffffffffffffffffffffffffffffffffff161415610e59576040517f08c379a0000000000000000000000000000000000000000000000000000000008152600401610e5090611b99565b60405180910390fd5b610e6281610fc7565b50565b610e6d610fbf565b73ffffffffffffffffffffffffffffffffffffffff16610e8b6105bd565b73ffffffffffffffffffffffffffffffffffffffff1614610ee1576040517f08c379a0000000000000000000000000000000000000000000000000000000008152600401610ed8906116b4565b60405180910390fd5b80600360006101000a81548173ffffffffffffffffffffffffffffffffffffffff021916908373ffffffffffffffffffffffffffffffffffffffff1602179055507fbba88e6e23bdc1165d7f9143b9264605235ada17a9a335d41b42b688f0d1ec2d600360009054906101000a900473ffffffffffffffffffffffffffffffffffffffff1642604051610f759291906117cb565b60405180910390a150565b60088181548110610f9057600080fd5b906000526020600020016000915054906101000a900473ffffffffffffffffffffffffffffffffffffffff1681565b600033905090565b60008060009054906101000a900473ffffffffffffffffffffffffffffffffffffffff169050816000806101000a81548173ffffffffffffffffffffffffffffffffffffffff021916908373ffffffffffffffffffffffffffffffffffffffff1602179055508173ffffffffffffffffffffffffffffffffffffffff168173ffffffffffffffffffffffffffffffffffffffff167f8be0079c531659141344cd1fd0a4f28419497f9722a3daafe3b4186f6b6457e060405160405180910390a35050565b60006040517f3d602d80600a3d3981f3363d3d373d3d3d363d7300000000000000000000000081528260601b60148201527f5af43d82803e903d91602b57fd5bf3000000000000000000000000000000000060288201526037816000f0915050600073ffffffffffffffffffffffffffffffffffffffff168173ffffffffffffffffffffffffffffffffffffffff16141561115b576040517f08c379a000000000000000000000000000000000000000000000000000000000815260040161115290611c05565b60405180910390fd5b919050565b6000604051905090565b600080fd5b600080fd5b600073ffffffffffffffffffffffffffffffffffffffff82169050919050565b600061119f82611174565b9050919050565b6111af81611194565b81146111ba57600080fd5b50565b6000813590506111cc816111a6565b92915050565b6000819050919050565b6111e5816111d2565b81146111f057600080fd5b50565b600081359050611202816111dc565b92915050565b6000806040838503121561121f5761121e61116a565b5b600061122d858286016111bd565b925050602061123e858286016111f3565b9150509250929050565b61125181611194565b82525050565b600060208201905061126c6000830184611248565b92915050565b61127b816111d2565b82525050565b60006020820190506112966000830184611272565b92915050565b6000602082840312156112b2576112b161116a565b5b60006112c0848285016111bd565b91505092915050565b6000602082840312156112df576112de61116a565b5b60006112ed848285016111f3565b91505092915050565b600080fd5b600080fd5b6000601f19601f8301169050919050565b7f4e487b7100000000000000000000000000000000000000000000000000000000600052604160045260246000fd5b61134982611300565b810181811067ffffffffffffffff8211171561136857611367611311565b5b80604052505050565b600061137b611160565b90506113878282611340565b919050565b600067ffffffffffffffff8211156113a7576113a6611311565b5b6113b082611300565b9050602081019050919050565b82818337600083830152505050565b60006113df6113da8461138c565b611371565b9050828152602081018484840111156113fb576113fa6112fb565b5b6114068482856113bd565b509392505050565b600082601f830112611423576114226112f6565b5b81356114338482602086016113cc565b91505092915050565b60008060008060008060c087890312156114595761145861116a565b5b600087013567ffffffffffffffff8111156114775761147661116f565b5b61148389828a0161140e565b965050602087013567ffffffffffffffff8111156114a4576114a361116f565b5b6114b089828a0161140e565b95505060406114c189828a016111f3565b94505060606114d289828a016111f3565b93505060806114e389828a016111f3565b92505060a06114f489828a016111f3565b9150509295509295509295565b6000819050919050565b61151481611501565b811461151f57600080fd5b50565b6000813590506115318161150b565b92915050565b6000806040838503121561154e5761154d61116a565b5b600061155c85828601611522565b925050602061156d85828601611522565b9150509250929050565b600081519050919050565b600082825260208201905092915050565b6000819050602082019050919050565b6115ac81611194565b82525050565b60006115be83836115a3565b60208301905092915050565b6000602082019050919050565b60006115e282611577565b6115ec8185611582565b93506115f783611593565b8060005b8381101561162857815161160f88826115b2565b975061161a836115ca565b9250506001810190506115fb565b5085935050505092915050565b6000602082019050818103600083015261164f81846115d7565b905092915050565b600082825260208201905092915050565b7f4f776e61626c653a2063616c6c6572206973206e6f7420746865206f776e6572600082015250565b600061169e602083611657565b91506116a982611668565b602082019050919050565b600060208201905081810360008301526116cd81611691565b9050919050565b60008115159050919050565b6116e9816116d4565b81146116f457600080fd5b50565b600081519050611706816116e0565b92915050565b6000602082840312156117225761172161116a565b5b6000611730848285016116f7565b91505092915050565b7f4f6e6c79205649502075736572732063616e20636c6f6e652074686520636f6e60008201527f74726163742e0000000000000000000000000000000000000000000000000000602082015250565b6000611795602683611657565b91506117a082611739565b604082019050919050565b600060208201905081810360008301526117c481611788565b9050919050565b60006040820190506117e06000830185611248565b6117ed6020830184611272565b9392505050565b600081519050919050565b60005b8381101561181d578082015181840152602081019050611802565b8381111561182c576000848401525b50505050565b600061183d826117f4565b6118478185611657565b93506118578185602086016117ff565b61186081611300565b840191505092915050565b6000610120820190508181036000830152611886818c611832565b9050818103602083015261189a818b611832565b90506118a9604083018a611272565b6118b66060830189611272565b6118c36080830188611272565b6118d060a0830187611272565b6118dd60c0830186611248565b6118ea60e0830185611248565b6118f8610100830184611248565b9a9950505050505050505050565b7f4e487b7100000000000000000000000000000000000000000000000000000000600052601160045260246000fd5b6000611940826111d2565b915061194b836111d2565b9250827fffffffffffffffffffffffffffffffffffffffffffffffffffffffffffffffff038211156119805761197f611906565b5b828201905092915050565b600060c0820190506119a06000830189611248565b6119ad6020830188611248565b6119ba6040830187611272565b6119c76060830186611272565b6119d46080830185611272565b6119e160a0830184611272565b979650505050505050565b60006119f782611501565b9150611a0283611501565b9250817f7fffffffffffffffffffffffffffffffffffffffffffffffffffffffffffffff03831360008312151615611a3d57611a3c611906565b5b817f8000000000000000000000000000000000000000000000000000000000000000038312600083121615611a7557611a74611906565b5b828201905092915050565b7f4e487b7100000000000000000000000000000000000000000000000000000000600052600160045260246000fd5b7f4e487b7100000000000000000000000000000000000000000000000000000000600052603260045260246000fd5b6000611ae9826111d2565b91507fffffffffffffffffffffffffffffffffffffffffffffffffffffffffffffffff821415611b1c57611b1b611906565b5b600182019050919050565b7f4f776e61626c653a206e6577206f776e657220697320746865207a65726f206160008201527f6464726573730000000000000000000000000000000000000000000000000000602082015250565b6000611b83602683611657565b9150611b8e82611b27565b604082019050919050565b60006020820190508181036000830152611bb281611b76565b9050919050565b7f455243313136373a20637265617465206661696c656400000000000000000000600082015250565b6000611bef601683611657565b9150611bfa82611bb9565b602082019050919050565b60006020820190508181036000830152611c1e81611be2565b905091905056fea264697066735822122060400085ec17f66bf927ce2eea156385242d273a5d1563b6e56b984e6ae3395664736f6c63430008090033",
  "linkReferences": {},
  "deployedLinkReferences": {}
}