{
  "_format": "hh-sol-artifact-1",
  "contractName": "LOTTPublicNFT",
  "sourceName": "contracts/ERC721/LOTTPublicNFT.sol",
  "abi": [
    {
      "inputs": [],
      "stateMutability": "nonpayable",
      "type": "constructor"
    },
    {
      "anonymous": false,
      "inputs": [
        {
          "indexed": true,
          "internalType": "address",
          "name": "owner",
          "type": "address"
        },
        {
          "indexed": true,
          "internalType": "address",
          "name": "approved",
          "type": "address"
        },
        {
          "indexed": true,
          "internalType": "uint256",
          "name": "tokenId",
          "type": "uint256"
        }
      ],
      "name": "Approval",
      "type": "event"
    },
    {
      "anonymous": false,
      "inputs": [
        {
          "indexed": true,
          "internalType": "address",
          "name": "owner",
          "type": "address"
        },
        {
          "indexed": true,
          "internalType": "address",
          "name": "operator",
          "type": "address"
        },
        {
          "indexed": false,
          "internalType": "bool",
          "name": "approved",
          "type": "bool"
        }
      ],
      "name": "ApprovalForAll",
      "type": "event"
    },
    {
      "anonymous": false,
      "inputs": [
        {
          "indexed": true,
          "internalType": "address",
          "name": "previousOwner",
          "type": "address"
        },
        {
          "indexed": true,
          "internalType": "address",
          "name": "newOwner",
          "type": "address"
        }
      ],
      "name": "OwnershipTransferred",
      "type": "event"
    },
    {
      "anonymous": false,
      "inputs": [
        {
          "indexed": false,
          "internalType": "address",
          "name": "account",
          "type": "address"
        }
      ],
      "name": "Paused",
      "type": "event"
    },
    {
      "anonymous": false,
      "inputs": [
        {
          "indexed": true,
          "internalType": "address",
          "name": "from",
          "type": "address"
        },
        {
          "indexed": true,
          "internalType": "address",
          "name": "to",
          "type": "address"
        },
        {
          "indexed": true,
          "internalType": "uint256",
          "name": "tokenId",
          "type": "uint256"
        }
      ],
      "name": "Transfer",
      "type": "event"
    },
    {
      "anonymous": false,
      "inputs": [
        {
          "indexed": false,
          "internalType": "address",
          "name": "account",
          "type": "address"
        }
      ],
      "name": "Unpaused",
      "type": "event"
    },
    {
      "inputs": [
        {
          "internalType": "address",
          "name": "to",
          "type": "address"
        },
        {
          "internalType": "uint256",
          "name": "tokenId",
          "type": "uint256"
        }
      ],
      "name": "approve",
      "outputs": [],
      "stateMutability": "nonpayable",
      "type": "function"
    },
    {
      "inputs": [
        {
          "internalType": "address",
          "name": "owner",
          "type": "address"
        }
      ],
      "name": "balanceOf",
      "outputs": [
        {
          "internalType": "uint256",
          "name": "",
          "type": "uint256"
        }
      ],
      "stateMutability": "view",
      "type": "function"
    },
    {
      "inputs": [
        {
          "internalType": "uint256",
          "name": "tokenId",
          "type": "uint256"
        }
      ],
      "name": "getApproved",
      "outputs": [
        {
          "internalType": "address",
          "name": "",
          "type": "address"
        }
      ],
      "stateMutability": "view",
      "type": "function"
    },
    {
      "inputs": [
        {
          "internalType": "address",
          "name": "owner",
          "type": "address"
        },
        {
          "internalType": "address",
          "name": "operator",
          "type": "address"
        }
      ],
      "name": "isApprovedForAll",
      "outputs": [
        {
          "internalType": "bool",
          "name": "",
          "type": "bool"
        }
      ],
      "stateMutability": "view",
      "type": "function"
    },
    {
      "inputs": [],
      "name": "name",
      "outputs": [
        {
          "internalType": "string",
          "name": "",
          "type": "string"
        }
      ],
      "stateMutability": "view",
      "type": "function"
    },
    {
      "inputs": [],
      "name": "owner",
      "outputs": [
        {
          "internalType": "address",
          "name": "",
          "type": "address"
        }
      ],
      "stateMutability": "view",
      "type": "function"
    },
    {
      "inputs": [
        {
          "internalType": "uint256",
          "name": "tokenId",
          "type": "uint256"
        }
      ],
      "name": "ownerOf",
      "outputs": [
        {
          "internalType": "address",
          "name": "",
          "type": "address"
        }
      ],
      "stateMutability": "view",
      "type": "function"
    },
    {
      "inputs": [],
      "name": "pause",
      "outputs": [],
      "stateMutability": "nonpayable",
      "type": "function"
    },
    {
      "inputs": [],
      "name": "paused",
      "outputs": [
        {
          "internalType": "bool",
          "name": "",
          "type": "bool"
        }
      ],
      "stateMutability": "view",
      "type": "function"
    },
    {
      "inputs": [
        {
          "internalType": "uint256",
          "name": "tokenId",
          "type": "uint256"
        }
      ],
      "name": "privateFileHash",
      "outputs": [
        {
          "internalType": "string",
          "name": "_privateFileHash",
          "type": "string"
        }
      ],
      "stateMutability": "nonpayable",
      "type": "function"
    },
    {
      "inputs": [
        {
          "internalType": "uint256",
          "name": "tokenId",
          "type": "uint256"
        }
      ],
      "name": "privateInfo",
      "outputs": [
        {
          "internalType": "string",
          "name": "_privateInfo",
          "type": "string"
        }
      ],
      "stateMutability": "nonpayable",
      "type": "function"
    },
    {
      "inputs": [
        {
          "internalType": "uint256",
          "name": "tokenId",
          "type": "uint256"
        }
      ],
      "name": "publicFileHash",
      "outputs": [
        {
          "internalType": "string",
          "name": "_publicFileHash",
          "type": "string"
        }
      ],
      "stateMutability": "view",
      "type": "function"
    },
    {
      "inputs": [
        {
          "internalType": "uint256",
          "name": "tokenId",
          "type": "uint256"
        }
      ],
      "name": "publicInfo",
      "outputs": [
        {
          "internalType": "string",
          "name": "_publicInfo",
          "type": "string"
        }
      ],
      "stateMutability": "view",
      "type": "function"
    },
    {
      "inputs": [],
      "name": "renounceOwnership",
      "outputs": [],
      "stateMutability": "nonpayable",
      "type": "function"
    },
    {
      "inputs": [
        {
          "internalType": "address",
          "name": "to",
          "type": "address"
        },
        {
          "internalType": "string",
          "name": "uri",
          "type": "string"
        },
        {
          "internalType": "string",
          "name": "publicInfo",
          "type": "string"
        },
        {
          "internalType": "string",
          "name": "privateInfo",
          "type": "string"
        },
        {
          "internalType": "string",
          "name": "publicFileHash",
          "type": "string"
        },
        {
          "internalType": "string",
          "name": "privateFileHash",
          "type": "string"
        }
      ],
      "name": "safeMint",
      "outputs": [],
      "stateMutability": "nonpayable",
      "type": "function"
    },
    {
      "inputs": [
        {
          "internalType": "address",
          "name": "from",
          "type": "address"
        },
        {
          "internalType": "address",
          "name": "to",
          "type": "address"
        },
        {
          "internalType": "uint256",
          "name": "tokenId",
          "type": "uint256"
        }
      ],
      "name": "safeTransferFrom",
      "outputs": [],
      "stateMutability": "nonpayable",
      "type": "function"
    },
    {
      "inputs": [
        {
          "internalType": "address",
          "name": "from",
          "type": "address"
        },
        {
          "internalType": "address",
          "name": "to",
          "type": "address"
        },
        {
          "internalType": "uint256",
          "name": "tokenId",
          "type": "uint256"
        },
        {
          "internalType": "bytes",
          "name": "_data",
          "type": "bytes"
        }
      ],
      "name": "safeTransferFrom",
      "outputs": [],
      "stateMutability": "nonpayable",
      "type": "function"
    },
    {
      "inputs": [
        {
          "internalType": "address",
          "name": "operator",
          "type": "address"
        },
        {
          "internalType": "bool",
          "name": "approved",
          "type": "bool"
        }
      ],
      "name": "setApprovalForAll",
      "outputs": [],
      "stateMutability": "nonpayable",
      "type": "function"
    },
    {
      "inputs": [
        {
          "internalType": "bytes4",
          "name": "interfaceId",
          "type": "bytes4"
        }
      ],
      "name": "supportsInterface",
      "outputs": [
        {
          "internalType": "bool",
          "name": "",
          "type": "bool"
        }
      ],
      "stateMutability": "view",
      "type": "function"
    },
    {
      "inputs": [],
      "name": "symbol",
      "outputs": [
        {
          "internalType": "string",
          "name": "",
          "type": "string"
        }
      ],
      "stateMutability": "view",
      "type": "function"
    },
    {
      "inputs": [
        {
          "internalType": "uint256",
          "name": "tokenId",
          "type": "uint256"
        }
      ],
      "name": "tokenURI",
      "outputs": [
        {
          "internalType": "string",
          "name": "",
          "type": "string"
        }
      ],
      "stateMutability": "view",
      "type": "function"
    },
    {
      "inputs": [
        {
          "internalType": "address",
          "name": "from",
          "type": "address"
        },
        {
          "internalType": "address",
          "name": "to",
          "type": "address"
        },
        {
          "internalType": "uint256",
          "name": "tokenId",
          "type": "uint256"
        }
      ],
      "name": "transferFrom",
      "outputs": [],
      "stateMutability": "nonpayable",
      "type": "function"
    },
    {
      "inputs": [
        {
          "internalType": "address",
          "name": "newOwner",
          "type": "address"
        }
      ],
      "name": "transferOwnership",
      "outputs": [],
      "stateMutability": "nonpayable",
      "type": "function"
    },
    {
      "inputs": [],
      "name": "unpause",
      "outputs": [],
      "stateMutability": "nonpayable",
      "type": "function"
    }
  ],
  "bytecode": "0x60806040523480156200001157600080fd5b506040518060400160405280600d81526020017f4c4f54545075626c69634e4654000000000000000000000000000000000000008152506040518060400160405280600681526020017f4c4f545055420000000000000000000000000000000000000000000000000000815250816000908051906020019062000096929190620001c1565b508060019080519060200190620000af929190620001c1565b5050506000600760006101000a81548160ff021916908315150217905550620000ed620000e1620000f360201b60201c565b620000fb60201b60201c565b620002d6565b600033905090565b6000600760019054906101000a900473ffffffffffffffffffffffffffffffffffffffff16905081600760016101000a81548173ffffffffffffffffffffffffffffffffffffffff021916908373ffffffffffffffffffffffffffffffffffffffff1602179055508173ffffffffffffffffffffffffffffffffffffffff168173ffffffffffffffffffffffffffffffffffffffff167f8be0079c531659141344cd1fd0a4f28419497f9722a3daafe3b4186f6b6457e060405160405180910390a35050565b828054620001cf90620002a0565b90600052602060002090601f016020900481019282620001f357600085556200023f565b82601f106200020e57805160ff19168380011785556200023f565b828001600101855582156200023f579182015b828111156200023e57825182559160200191906001019062000221565b5b5090506200024e919062000252565b5090565b5b808211156200026d57600081600090555060010162000253565b5090565b7f4e487b7100000000000000000000000000000000000000000000000000000000600052602260045260246000fd5b60006002820490506001821680620002b957607f821691505b60208210811415620002d057620002cf62000271565b5b50919050565b613af380620002e66000396000f3fe608060405234801561001057600080fd5b50600436106101575760003560e01c80636352211e116100c3578063a22cb4651161007c578063a22cb465146103c6578063a9f8cd12146103e2578063b88d4fde146103fe578063c87b56dd1461041a578063e985e9c51461044a578063f2fde38b1461047a57610157565b80636352211e1461031657806370a0823114610346578063715018a6146103765780638456cb59146103805780638da5cb5b1461038a57806395d89b41146103a857610157565b80632bdf4a35116101155780632bdf4a35146102425780633cf57310146102725780633f4ba83a146102a257806342842e0e146102ac578063579ff80f146102c85780635c975abb146102f857610157565b8062485bc81461015c57806301ffc9a71461018c57806306fdde03146101bc578063081812fc146101da578063095ea7b31461020a57806323b872dd14610226575b600080fd5b610176600480360381019061017191906124a2565b610496565b6040516101839190612568565b60405180910390f35b6101a660048036038101906101a191906125e2565b61058b565b6040516101b3919061262a565b60405180910390f35b6101c461066d565b6040516101d19190612568565b60405180910390f35b6101f460048036038101906101ef91906124a2565b6106ff565b6040516102019190612686565b60405180910390f35b610224600480360381019061021f91906126cd565b610784565b005b610240600480360381019061023b919061270d565b61089c565b005b61025c600480360381019061025791906124a2565b6108fc565b6040516102699190612568565b60405180910390f35b61028c600480360381019061028791906124a2565b6109e9565b6040516102999190612568565b60405180910390f35b6102aa610ad6565b005b6102c660048036038101906102c1919061270d565b610b5c565b005b6102e260048036038101906102dd91906124a2565b610b7c565b6040516102ef9190612568565b60405180910390f35b610300610c71565b60405161030d919061262a565b60405180910390f35b610330600480360381019061032b91906124a2565b610c88565b60405161033d9190612686565b60405180910390f35b610360600480360381019061035b9190612760565b610d3a565b60405161036d919061279c565b60405180910390f35b61037e610df2565b005b610388610e7a565b005b610392610f00565b60405161039f9190612686565b60405180910390f35b6103b0610f2a565b6040516103bd9190612568565b60405180910390f35b6103e060048036038101906103db91906127e3565b610fbc565b005b6103fc60048036038101906103f79190612958565b61113d565b005b61041860048036038101906104139190612b12565b61117f565b005b610434600480360381019061042f91906124a2565b6111e1565b6040516104419190612568565b60405180910390f35b610464600480360381019061045f9190612b95565b6111f3565b604051610471919061262a565b60405180910390f35b610494600480360381019061048f9190612760565b611287565b005b60606104a96104a361137f565b83611387565b6104e8576040517f08c379a00000000000000000000000000000000000000000000000000000000081526004016104df90612c47565b60405180910390fd5b60096000838152602001908152602001600020805461050690612c96565b80601f016020809104026020016040519081016040528092919081815260200182805461053290612c96565b801561057f5780601f106105545761010080835404028352916020019161057f565b820191906000526020600020905b81548152906001019060200180831161056257829003601f168201915b50505050509050919050565b60007f80ac58cd000000000000000000000000000000000000000000000000000000007bffffffffffffffffffffffffffffffffffffffffffffffffffffffff1916827bffffffffffffffffffffffffffffffffffffffffffffffffffffffff1916148061065657507f5b5e139f000000000000000000000000000000000000000000000000000000007bffffffffffffffffffffffffffffffffffffffffffffffffffffffff1916827bffffffffffffffffffffffffffffffffffffffffffffffffffffffff1916145b80610666575061066582611465565b5b9050919050565b60606000805461067c90612c96565b80601f01602080910402602001604051908101604052809291908181526020018280546106a890612c96565b80156106f55780601f106106ca576101008083540402835291602001916106f5565b820191906000526020600020905b8154815290600101906020018083116106d857829003601f168201915b5050505050905090565b600061070a826114cf565b610749576040517f08c379a000000000000000000000000000000000000000000000000000000000815260040161074090612d3a565b60405180910390fd5b6004600083815260200190815260200160002060009054906101000a900473ffffffffffffffffffffffffffffffffffffffff169050919050565b600061078f82610c88565b90508073ffffffffffffffffffffffffffffffffffffffff168373ffffffffffffffffffffffffffffffffffffffff161415610800576040517f08c379a00000000000000000000000000000000000000000000000000000000081526004016107f790612dcc565b60405180910390fd5b8073ffffffffffffffffffffffffffffffffffffffff1661081f61137f565b73ffffffffffffffffffffffffffffffffffffffff16148061084e575061084d8161084861137f565b6111f3565b5b61088d576040517f08c379a000000000000000000000000000000000000000000000000000000000815260040161088490612e5e565b60405180910390fd5b610897838361153b565b505050565b6108ad6108a761137f565b82611387565b6108ec576040517f08c379a00000000000000000000000000000000000000000000000000000000081526004016108e390612ef0565b60405180910390fd5b6108f78383836115f4565b505050565b6060610907826114cf565b610946576040517f08c379a000000000000000000000000000000000000000000000000000000000815260040161093d90612f5c565b60405180910390fd5b600a6000838152602001908152602001600020805461096490612c96565b80601f016020809104026020016040519081016040528092919081815260200182805461099090612c96565b80156109dd5780601f106109b2576101008083540402835291602001916109dd565b820191906000526020600020905b8154815290600101906020018083116109c057829003601f168201915b50505050509050919050565b60606109f4826114cf565b610a33576040517f08c379a0000000000000000000000000000000000000000000000000000000008152600401610a2a90612f5c565b60405180910390fd5b600860008381526020019081526020016000208054610a5190612c96565b80601f0160208091040260200160405190810160405280929190818152602001828054610a7d90612c96565b8015610aca5780601f10610a9f57610100808354040283529160200191610aca565b820191906000526020600020905b815481529060010190602001808311610aad57829003601f168201915b50505050509050919050565b610ade61137f565b73ffffffffffffffffffffffffffffffffffffffff16610afc610f00565b73ffffffffffffffffffffffffffffffffffffffff1614610b52576040517f08c379a0000000000000000000000000000000000000000000000000000000008152600401610b4990612fc8565b60405180910390fd5b610b5a611850565b565b610b778383836040518060200160405280600081525061117f565b505050565b6060610b8f610b8961137f565b83611387565b610bce576040517f08c379a0000000000000000000000000000000000000000000000000000000008152600401610bc590612c47565b60405180910390fd5b600b60008381526020019081526020016000208054610bec90612c96565b80601f0160208091040260200160405190810160405280929190818152602001828054610c1890612c96565b8015610c655780601f10610c3a57610100808354040283529160200191610c65565b820191906000526020600020905b815481529060010190602001808311610c4857829003601f168201915b50505050509050919050565b6000600760009054906101000a900460ff16905090565b6000806002600084815260200190815260200160002060009054906101000a900473ffffffffffffffffffffffffffffffffffffffff169050600073ffffffffffffffffffffffffffffffffffffffff168173ffffffffffffffffffffffffffffffffffffffff161415610d31576040517f08c379a0000000000000000000000000000000000000000000000000000000008152600401610d289061305a565b60405180910390fd5b80915050919050565b60008073ffffffffffffffffffffffffffffffffffffffff168273ffffffffffffffffffffffffffffffffffffffff161415610dab576040517f08c379a0000000000000000000000000000000000000000000000000000000008152600401610da2906130ec565b60405180910390fd5b600360008373ffffffffffffffffffffffffffffffffffffffff1673ffffffffffffffffffffffffffffffffffffffff168152602001908152602001600020549050919050565b610dfa61137f565b73ffffffffffffffffffffffffffffffffffffffff16610e18610f00565b73ffffffffffffffffffffffffffffffffffffffff1614610e6e576040517f08c379a0000000000000000000000000000000000000000000000000000000008152600401610e6590612fc8565b60405180910390fd5b610e7860006118f2565b565b610e8261137f565b73ffffffffffffffffffffffffffffffffffffffff16610ea0610f00565b73ffffffffffffffffffffffffffffffffffffffff1614610ef6576040517f08c379a0000000000000000000000000000000000000000000000000000000008152600401610eed90612fc8565b60405180910390fd5b610efe6119b8565b565b6000600760019054906101000a900473ffffffffffffffffffffffffffffffffffffffff16905090565b606060018054610f3990612c96565b80601f0160208091040260200160405190810160405280929190818152602001828054610f6590612c96565b8015610fb25780601f10610f8757610100808354040283529160200191610fb2565b820191906000526020600020905b815481529060010190602001808311610f9557829003601f168201915b5050505050905090565b610fc461137f565b73ffffffffffffffffffffffffffffffffffffffff168273ffffffffffffffffffffffffffffffffffffffff161415611032576040517f08c379a000000000000000000000000000000000000000000000000000000000815260040161102990613158565b60405180910390fd5b806005600061103f61137f565b73ffffffffffffffffffffffffffffffffffffffff1673ffffffffffffffffffffffffffffffffffffffff16815260200190815260200160002060008473ffffffffffffffffffffffffffffffffffffffff1673ffffffffffffffffffffffffffffffffffffffff16815260200190815260200160002060006101000a81548160ff0219169083151502179055508173ffffffffffffffffffffffffffffffffffffffff166110ec61137f565b73ffffffffffffffffffffffffffffffffffffffff167f17307eab39ab6107e8899845ad3d59bd9653f200f220920489ca2b5937696c3183604051611131919061262a565b60405180910390a35050565b6000611149600c611a5b565b9050611155600c611a69565b61115f8782611a7f565b6111698187611a9d565b6111768186868686611b11565b50505050505050565b61119061118a61137f565b83611387565b6111cf576040517f08c379a00000000000000000000000000000000000000000000000000000000081526004016111c690612ef0565b60405180910390fd5b6111db84848484611bb8565b50505050565b60606111ec82611c14565b9050919050565b6000600560008473ffffffffffffffffffffffffffffffffffffffff1673ffffffffffffffffffffffffffffffffffffffff16815260200190815260200160002060008373ffffffffffffffffffffffffffffffffffffffff1673ffffffffffffffffffffffffffffffffffffffff16815260200190815260200160002060009054906101000a900460ff16905092915050565b61128f61137f565b73ffffffffffffffffffffffffffffffffffffffff166112ad610f00565b73ffffffffffffffffffffffffffffffffffffffff1614611303576040517f08c379a00000000000000000000000000000000000000000000000000000000081526004016112fa90612fc8565b60405180910390fd5b600073ffffffffffffffffffffffffffffffffffffffff168173ffffffffffffffffffffffffffffffffffffffff161415611373576040517f08c379a000000000000000000000000000000000000000000000000000000000815260040161136a906131ea565b60405180910390fd5b61137c816118f2565b50565b600033905090565b6000611392826114cf565b6113d1576040517f08c379a00000000000000000000000000000000000000000000000000000000081526004016113c89061327c565b60405180910390fd5b60006113dc83610c88565b90508073ffffffffffffffffffffffffffffffffffffffff168473ffffffffffffffffffffffffffffffffffffffff16148061144b57508373ffffffffffffffffffffffffffffffffffffffff16611433846106ff565b73ffffffffffffffffffffffffffffffffffffffff16145b8061145c575061145b81856111f3565b5b91505092915050565b60007f01ffc9a7000000000000000000000000000000000000000000000000000000007bffffffffffffffffffffffffffffffffffffffffffffffffffffffff1916827bffffffffffffffffffffffffffffffffffffffffffffffffffffffff1916149050919050565b60008073ffffffffffffffffffffffffffffffffffffffff166002600084815260200190815260200160002060009054906101000a900473ffffffffffffffffffffffffffffffffffffffff1673ffffffffffffffffffffffffffffffffffffffff1614159050919050565b816004600083815260200190815260200160002060006101000a81548173ffffffffffffffffffffffffffffffffffffffff021916908373ffffffffffffffffffffffffffffffffffffffff160217905550808273ffffffffffffffffffffffffffffffffffffffff166115ae83610c88565b73ffffffffffffffffffffffffffffffffffffffff167f8c5be1e5ebec7d5bd14f71427d1e84f3dd0314c0f7b2291e5b200ac8c7c3b92560405160405180910390a45050565b8273ffffffffffffffffffffffffffffffffffffffff1661161482610c88565b73ffffffffffffffffffffffffffffffffffffffff161461166a576040517f08c379a00000000000000000000000000000000000000000000000000000000081526004016116619061330e565b60405180910390fd5b600073ffffffffffffffffffffffffffffffffffffffff168273ffffffffffffffffffffffffffffffffffffffff1614156116da576040517f08c379a00000000000000000000000000000000000000000000000000000000081526004016116d1906133a0565b60405180910390fd5b6116e5838383611d66565b6116f060008261153b565b6001600360008573ffffffffffffffffffffffffffffffffffffffff1673ffffffffffffffffffffffffffffffffffffffff168152602001908152602001600020600082825461174091906133ef565b925050819055506001600360008473ffffffffffffffffffffffffffffffffffffffff1673ffffffffffffffffffffffffffffffffffffffff16815260200190815260200160002060008282546117979190613423565b92505081905550816002600083815260200190815260200160002060006101000a81548173ffffffffffffffffffffffffffffffffffffffff021916908373ffffffffffffffffffffffffffffffffffffffff160217905550808273ffffffffffffffffffffffffffffffffffffffff168473ffffffffffffffffffffffffffffffffffffffff167fddf252ad1be2c89b69c2b068fc378daa952ba7f163c4a11628f55a4df523b3ef60405160405180910390a4505050565b611858610c71565b611897576040517f08c379a000000000000000000000000000000000000000000000000000000000815260040161188e906134c5565b60405180910390fd5b6000600760006101000a81548160ff0219169083151502179055507f5db9ee0a495bf2e6ff9c91a7834c1ba4fdd244a5e8aa4e537bd38aeae4b073aa6118db61137f565b6040516118e89190612686565b60405180910390a1565b6000600760019054906101000a900473ffffffffffffffffffffffffffffffffffffffff16905081600760016101000a81548173ffffffffffffffffffffffffffffffffffffffff021916908373ffffffffffffffffffffffffffffffffffffffff1602179055508173ffffffffffffffffffffffffffffffffffffffff168173ffffffffffffffffffffffffffffffffffffffff167f8be0079c531659141344cd1fd0a4f28419497f9722a3daafe3b4186f6b6457e060405160405180910390a35050565b6119c0610c71565b15611a00576040517f08c379a00000000000000000000000000000000000000000000000000000000081526004016119f790613531565b60405180910390fd5b6001600760006101000a81548160ff0219169083151502179055507f62e78cea01bee320cd4e420270b5ea74000d11b0c9f74754ebdbfc544b05a258611a4461137f565b604051611a519190612686565b60405180910390a1565b600081600001549050919050565b6001816000016000828254019250508190555050565b611a99828260405180602001604052806000815250611dbe565b5050565b611aa6826114cf565b611ae5576040517f08c379a0000000000000000000000000000000000000000000000000000000008152600401611adc906135c3565b60405180910390fd5b80600660008481526020019081526020016000209080519060200190611b0c9291906123b5565b505050565b83600860008781526020019081526020016000209080519060200190611b389291906123b5565b5082600960008781526020019081526020016000209080519060200190611b609291906123b5565b5081600a60008781526020019081526020016000209080519060200190611b889291906123b5565b5080600b60008781526020019081526020016000209080519060200190611bb09291906123b5565b505050505050565b611bc38484846115f4565b611bcf84848484611e19565b611c0e576040517f08c379a0000000000000000000000000000000000000000000000000000000008152600401611c0590613655565b60405180910390fd5b50505050565b6060611c1f826114cf565b611c5e576040517f08c379a0000000000000000000000000000000000000000000000000000000008152600401611c55906136e7565b60405180910390fd5b6000600660008481526020019081526020016000208054611c7e90612c96565b80601f0160208091040260200160405190810160405280929190818152602001828054611caa90612c96565b8015611cf75780601f10611ccc57610100808354040283529160200191611cf7565b820191906000526020600020905b815481529060010190602001808311611cda57829003601f168201915b505050505090506000611d08611fb0565b9050600081511415611d1e578192505050611d61565b600082511115611d53578082604051602001611d3b929190613743565b60405160208183030381529060405292505050611d61565b611d5c84611fc7565b925050505b919050565b611d6e610c71565b15611dae576040517f08c379a0000000000000000000000000000000000000000000000000000000008152600401611da590613531565b60405180910390fd5b611db983838361206e565b505050565b611dc88383612073565b611dd56000848484611e19565b611e14576040517f08c379a0000000000000000000000000000000000000000000000000000000008152600401611e0b90613655565b60405180910390fd5b505050565b6000611e3a8473ffffffffffffffffffffffffffffffffffffffff16612241565b15611fa3578373ffffffffffffffffffffffffffffffffffffffff1663150b7a02611e6361137f565b8786866040518563ffffffff1660e01b8152600401611e8594939291906137bc565b602060405180830381600087803b158015611e9f57600080fd5b505af1925050508015611ed057506040513d601f19601f82011682018060405250810190611ecd919061381d565b60015b611f53573d8060008114611f00576040519150601f19603f3d011682016040523d82523d6000602084013e611f05565b606091505b50600081511415611f4b576040517f08c379a0000000000000000000000000000000000000000000000000000000008152600401611f4290613655565b60405180910390fd5b805181602001fd5b63150b7a0260e01b7bffffffffffffffffffffffffffffffffffffffffffffffffffffffff1916817bffffffffffffffffffffffffffffffffffffffffffffffffffffffff191614915050611fa8565b600190505b949350505050565b606060405180602001604052806000815250905090565b6060611fd2826114cf565b612011576040517f08c379a0000000000000000000000000000000000000000000000000000000008152600401612008906138bc565b60405180910390fd5b600061201b611fb0565b9050600081511161203b5760405180602001604052806000815250612066565b8061204584612254565b604051602001612056929190613743565b6040516020818303038152906040525b915050919050565b505050565b600073ffffffffffffffffffffffffffffffffffffffff168273ffffffffffffffffffffffffffffffffffffffff1614156120e3576040517f08c379a00000000000000000000000000000000000000000000000000000000081526004016120da90613928565b60405180910390fd5b6120ec816114cf565b1561212c576040517f08c379a000000000000000000000000000000000000000000000000000000000815260040161212390613994565b60405180910390fd5b61213860008383611d66565b6001600360008473ffffffffffffffffffffffffffffffffffffffff1673ffffffffffffffffffffffffffffffffffffffff16815260200190815260200160002060008282546121889190613423565b92505081905550816002600083815260200190815260200160002060006101000a81548173ffffffffffffffffffffffffffffffffffffffff021916908373ffffffffffffffffffffffffffffffffffffffff160217905550808273ffffffffffffffffffffffffffffffffffffffff16600073ffffffffffffffffffffffffffffffffffffffff167fddf252ad1be2c89b69c2b068fc378daa952ba7f163c4a11628f55a4df523b3ef60405160405180910390a45050565b600080823b905060008111915050919050565b6060600082141561229c576040518060400160405280600181526020017f300000000000000000000000000000000000000000000000000000000000000081525090506123b0565b600082905060005b600082146122ce5780806122b7906139b4565b915050600a826122c79190613a2c565b91506122a4565b60008167ffffffffffffffff8111156122ea576122e961282d565b5b6040519080825280601f01601f19166020018201604052801561231c5781602001600182028036833780820191505090505b5090505b600085146123a95760018261233591906133ef565b9150600a856123449190613a5d565b60306123509190613423565b60f81b81838151811061236657612365613a8e565b5b60200101907effffffffffffffffffffffffffffffffffffffffffffffffffffffffffffff1916908160001a905350600a856123a29190613a2c565b9450612320565b8093505050505b919050565b8280546123c190612c96565b90600052602060002090601f0160209004810192826123e3576000855561242a565b82601f106123fc57805160ff191683800117855561242a565b8280016001018555821561242a579182015b8281111561242957825182559160200191906001019061240e565b5b509050612437919061243b565b5090565b5b8082111561245457600081600090555060010161243c565b5090565b6000604051905090565b600080fd5b600080fd5b6000819050919050565b61247f8161246c565b811461248a57600080fd5b50565b60008135905061249c81612476565b92915050565b6000602082840312156124b8576124b7612462565b5b60006124c68482850161248d565b91505092915050565b600081519050919050565b600082825260208201905092915050565b60005b838110156125095780820151818401526020810190506124ee565b83811115612518576000848401525b50505050565b6000601f19601f8301169050919050565b600061253a826124cf565b61254481856124da565b93506125548185602086016124eb565b61255d8161251e565b840191505092915050565b60006020820190508181036000830152612582818461252f565b905092915050565b60007fffffffff0000000000000000000000000000000000000000000000000000000082169050919050565b6125bf8161258a565b81146125ca57600080fd5b50565b6000813590506125dc816125b6565b92915050565b6000602082840312156125f8576125f7612462565b5b6000612606848285016125cd565b91505092915050565b60008115159050919050565b6126248161260f565b82525050565b600060208201905061263f600083018461261b565b92915050565b600073ffffffffffffffffffffffffffffffffffffffff82169050919050565b600061267082612645565b9050919050565b61268081612665565b82525050565b600060208201905061269b6000830184612677565b92915050565b6126aa81612665565b81146126b557600080fd5b50565b6000813590506126c7816126a1565b92915050565b600080604083850312156126e4576126e3612462565b5b60006126f2858286016126b8565b92505060206127038582860161248d565b9150509250929050565b60008060006060848603121561272657612725612462565b5b6000612734868287016126b8565b9350506020612745868287016126b8565b92505060406127568682870161248d565b9150509250925092565b60006020828403121561277657612775612462565b5b6000612784848285016126b8565b91505092915050565b6127968161246c565b82525050565b60006020820190506127b1600083018461278d565b92915050565b6127c08161260f565b81146127cb57600080fd5b50565b6000813590506127dd816127b7565b92915050565b600080604083850312156127fa576127f9612462565b5b6000612808858286016126b8565b9250506020612819858286016127ce565b9150509250929050565b600080fd5b600080fd5b7f4e487b7100000000000000000000000000000000000000000000000000000000600052604160045260246000fd5b6128658261251e565b810181811067ffffffffffffffff821117156128845761288361282d565b5b80604052505050565b6000612897612458565b90506128a3828261285c565b919050565b600067ffffffffffffffff8211156128c3576128c261282d565b5b6128cc8261251e565b9050602081019050919050565b82818337600083830152505050565b60006128fb6128f6846128a8565b61288d565b90508281526020810184848401111561291757612916612828565b5b6129228482856128d9565b509392505050565b600082601f83011261293f5761293e612823565b5b813561294f8482602086016128e8565b91505092915050565b60008060008060008060c0878903121561297557612974612462565b5b600061298389828a016126b8565b965050602087013567ffffffffffffffff8111156129a4576129a3612467565b5b6129b089828a0161292a565b955050604087013567ffffffffffffffff8111156129d1576129d0612467565b5b6129dd89828a0161292a565b945050606087013567ffffffffffffffff8111156129fe576129fd612467565b5b612a0a89828a0161292a565b935050608087013567ffffffffffffffff811115612a2b57612a2a612467565b5b612a3789828a0161292a565b92505060a087013567ffffffffffffffff811115612a5857612a57612467565b5b612a6489828a0161292a565b9150509295509295509295565b600067ffffffffffffffff821115612a8c57612a8b61282d565b5b612a958261251e565b9050602081019050919050565b6000612ab5612ab084612a71565b61288d565b905082815260208101848484011115612ad157612ad0612828565b5b612adc8482856128d9565b509392505050565b600082601f830112612af957612af8612823565b5b8135612b09848260208601612aa2565b91505092915050565b60008060008060808587031215612b2c57612b2b612462565b5b6000612b3a878288016126b8565b9450506020612b4b878288016126b8565b9350506040612b5c8782880161248d565b925050606085013567ffffffffffffffff811115612b7d57612b7c612467565b5b612b8987828801612ae4565b91505092959194509250565b60008060408385031215612bac57612bab612462565b5b6000612bba858286016126b8565b9250506020612bcb858286016126b8565b9150509250929050565b7f4552433732313a20796f7520617265206e6f74206f776e6572206e6f7220617060008201527f70726f7665640000000000000000000000000000000000000000000000000000602082015250565b6000612c316026836124da565b9150612c3c82612bd5565b604082019050919050565b60006020820190508181036000830152612c6081612c24565b9050919050565b7f4e487b7100000000000000000000000000000000000000000000000000000000600052602260045260246000fd5b60006002820490506001821680612cae57607f821691505b60208210811415612cc257612cc1612c67565b5b50919050565b7f4552433732313a20617070726f76656420717565727920666f72206e6f6e657860008201527f697374656e7420746f6b656e0000000000000000000000000000000000000000602082015250565b6000612d24602c836124da565b9150612d2f82612cc8565b604082019050919050565b60006020820190508181036000830152612d5381612d17565b9050919050565b7f4552433732313a20617070726f76616c20746f2063757272656e74206f776e6560008201527f7200000000000000000000000000000000000000000000000000000000000000602082015250565b6000612db66021836124da565b9150612dc182612d5a565b604082019050919050565b60006020820190508181036000830152612de581612da9565b9050919050565b7f4552433732313a20617070726f76652063616c6c6572206973206e6f74206f7760008201527f6e6572206e6f7220617070726f76656420666f7220616c6c0000000000000000602082015250565b6000612e486038836124da565b9150612e5382612dec565b604082019050919050565b60006020820190508181036000830152612e7781612e3b565b9050919050565b7f4552433732313a207472616e736665722063616c6c6572206973206e6f74206f60008201527f776e6572206e6f7220617070726f766564000000000000000000000000000000602082015250565b6000612eda6031836124da565b9150612ee582612e7e565b604082019050919050565b60006020820190508181036000830152612f0981612ecd565b9050919050565b7f546f6b656e4d657461446174613a206e6f6e6578697374656e7420746f6b656e600082015250565b6000612f466020836124da565b9150612f5182612f10565b602082019050919050565b60006020820190508181036000830152612f7581612f39565b9050919050565b7f4f776e61626c653a2063616c6c6572206973206e6f7420746865206f776e6572600082015250565b6000612fb26020836124da565b9150612fbd82612f7c565b602082019050919050565b60006020820190508181036000830152612fe181612fa5565b9050919050565b7f4552433732313a206f776e657220717565727920666f72206e6f6e657869737460008201527f656e7420746f6b656e0000000000000000000000000000000000000000000000602082015250565b60006130446029836124da565b915061304f82612fe8565b604082019050919050565b6000602082019050818103600083015261307381613037565b9050919050565b7f4552433732313a2062616c616e636520717565727920666f7220746865207a6560008201527f726f206164647265737300000000000000000000000000000000000000000000602082015250565b60006130d6602a836124da565b91506130e18261307a565b604082019050919050565b60006020820190508181036000830152613105816130c9565b9050919050565b7f4552433732313a20617070726f766520746f2063616c6c657200000000000000600082015250565b60006131426019836124da565b915061314d8261310c565b602082019050919050565b6000602082019050818103600083015261317181613135565b9050919050565b7f4f776e61626c653a206e6577206f776e657220697320746865207a65726f206160008201527f6464726573730000000000000000000000000000000000000000000000000000602082015250565b60006131d46026836124da565b91506131df82613178565b604082019050919050565b60006020820190508181036000830152613203816131c7565b9050919050565b7f4552433732313a206f70657261746f7220717565727920666f72206e6f6e657860008201527f697374656e7420746f6b656e0000000000000000000000000000000000000000602082015250565b6000613266602c836124da565b91506132718261320a565b604082019050919050565b6000602082019050818103600083015261329581613259565b9050919050565b7f4552433732313a207472616e73666572206f6620746f6b656e2074686174206960008201527f73206e6f74206f776e0000000000000000000000000000000000000000000000602082015250565b60006132f86029836124da565b91506133038261329c565b604082019050919050565b60006020820190508181036000830152613327816132eb565b9050919050565b7f4552433732313a207472616e7366657220746f20746865207a65726f2061646460008201527f7265737300000000000000000000000000000000000000000000000000000000602082015250565b600061338a6024836124da565b91506133958261332e565b604082019050919050565b600060208201905081810360008301526133b98161337d565b9050919050565b7f4e487b7100000000000000000000000000000000000000000000000000000000600052601160045260246000fd5b60006133fa8261246c565b91506134058361246c565b925082821015613418576134176133c0565b5b828203905092915050565b600061342e8261246c565b91506134398361246c565b9250827fffffffffffffffffffffffffffffffffffffffffffffffffffffffffffffffff0382111561346e5761346d6133c0565b5b828201905092915050565b7f5061757361626c653a206e6f7420706175736564000000000000000000000000600082015250565b60006134af6014836124da565b91506134ba82613479565b602082019050919050565b600060208201905081810360008301526134de816134a2565b9050919050565b7f5061757361626c653a2070617573656400000000000000000000000000000000600082015250565b600061351b6010836124da565b9150613526826134e5565b602082019050919050565b6000602082019050818103600083015261354a8161350e565b9050919050565b7f45524337323155524953746f726167653a2055524920736574206f66206e6f6e60008201527f6578697374656e7420746f6b656e000000000000000000000000000000000000602082015250565b60006135ad602e836124da565b91506135b882613551565b604082019050919050565b600060208201905081810360008301526135dc816135a0565b9050919050565b7f4552433732313a207472616e7366657220746f206e6f6e20455243373231526560008201527f63656976657220696d706c656d656e7465720000000000000000000000000000602082015250565b600061363f6032836124da565b915061364a826135e3565b604082019050919050565b6000602082019050818103600083015261366e81613632565b9050919050565b7f45524337323155524953746f726167653a2055524920717565727920666f722060008201527f6e6f6e6578697374656e7420746f6b656e000000000000000000000000000000602082015250565b60006136d16031836124da565b91506136dc82613675565b604082019050919050565b60006020820190508181036000830152613700816136c4565b9050919050565b600081905092915050565b600061371d826124cf565b6137278185613707565b93506137378185602086016124eb565b80840191505092915050565b600061374f8285613712565b915061375b8284613712565b91508190509392505050565b600081519050919050565b600082825260208201905092915050565b600061378e82613767565b6137988185613772565b93506137a88185602086016124eb565b6137b18161251e565b840191505092915050565b60006080820190506137d16000830187612677565b6137de6020830186612677565b6137eb604083018561278d565b81810360608301526137fd8184613783565b905095945050505050565b600081519050613817816125b6565b92915050565b60006020828403121561383357613832612462565b5b600061384184828501613808565b91505092915050565b7f4552433732314d657461646174613a2055524920717565727920666f72206e6f60008201527f6e6578697374656e7420746f6b656e0000000000000000000000000000000000602082015250565b60006138a6602f836124da565b91506138b18261384a565b604082019050919050565b600060208201905081810360008301526138d581613899565b9050919050565b7f4552433732313a206d696e7420746f20746865207a65726f2061646472657373600082015250565b60006139126020836124da565b915061391d826138dc565b602082019050919050565b6000602082019050818103600083015261394181613905565b9050919050565b7f4552433732313a20746f6b656e20616c7265616479206d696e74656400000000600082015250565b600061397e601c836124da565b915061398982613948565b602082019050919050565b600060208201905081810360008301526139ad81613971565b9050919050565b60006139bf8261246c565b91507fffffffffffffffffffffffffffffffffffffffffffffffffffffffffffffffff8214156139f2576139f16133c0565b5b600182019050919050565b7f4e487b7100000000000000000000000000000000000000000000000000000000600052601260045260246000fd5b6000613a378261246c565b9150613a428361246c565b925082613a5257613a516139fd565b5b828204905092915050565b6000613a688261246c565b9150613a738361246c565b925082613a8357613a826139fd565b5b828206905092915050565b7f4e487b7100000000000000000000000000000000000000000000000000000000600052603260045260246000fdfea26469706673582212208c6184e68e1726ca2714427be457dc82d7c89674325d0625501d96481936cfaf64736f6c63430008090033",
  "linkReferences": {},
  "deployedLinkReferences": {}
}