{
  "_format": "hh-sol-artifact-1",
  "contractName": "ChanceRoom",
  "sourceName": "contracts/ChanceRoom/ChanceRoom.sol",
  "abi": [
    {
      "anonymous": false,
      "inputs": [
        {
          "indexed": true,
          "internalType": "address",
          "name": "user",
          "type": "address"
        }
      ],
      "name": "BuySeat",
      "type": "event"
    },
    {
      "anonymous": false,
      "inputs": [
        {
          "indexed": false,
          "internalType": "bytes32",
          "name": "requestId",
          "type": "bytes32"
        }
      ],
      "name": "RollDice",
      "type": "event"
    },
    {
      "anonymous": false,
      "inputs": [
        {
          "indexed": false,
          "internalType": "string",
          "name": "newStatus",
          "type": "string"
        }
      ],
      "name": "StatusChanged",
      "type": "event"
    },
    {
      "anonymous": false,
      "inputs": [
        {
          "indexed": false,
          "internalType": "uint256",
          "name": "seat",
          "type": "uint256"
        },
        {
          "indexed": false,
          "internalType": "address",
          "name": "user",
          "type": "address"
        },
        {
          "indexed": false,
          "internalType": "uint256",
          "name": "amount",
          "type": "uint256"
        }
      ],
      "name": "Win",
      "type": "event"
    },
    {
      "inputs": [],
      "name": "NFTAddress",
      "outputs": [
        {
          "internalType": "address",
          "name": "",
          "type": "address"
        }
      ],
      "stateMutability": "view",
      "type": "function"
    },
    {
      "inputs": [],
      "name": "RNCAddress",
      "outputs": [
        {
          "internalType": "address",
          "name": "",
          "type": "address"
        }
      ],
      "stateMutability": "view",
      "type": "function"
    },
    {
      "inputs": [],
      "name": "RNCwithhold",
      "outputs": [
        {
          "internalType": "uint256",
          "name": "",
          "type": "uint256"
        }
      ],
      "stateMutability": "view",
      "type": "function"
    },
    {
      "inputs": [],
      "name": "baseURI",
      "outputs": [
        {
          "internalType": "string",
          "name": "",
          "type": "string"
        }
      ],
      "stateMutability": "view",
      "type": "function"
    },
    {
      "inputs": [],
      "name": "buySeat",
      "outputs": [],
      "stateMutability": "payable",
      "type": "function"
    },
    {
      "inputs": [],
      "name": "cancel",
      "outputs": [],
      "stateMutability": "nonpayable",
      "type": "function"
    },
    {
      "inputs": [],
      "name": "charge",
      "outputs": [],
      "stateMutability": "payable",
      "type": "function"
    },
    {
      "inputs": [],
      "name": "commission",
      "outputs": [
        {
          "internalType": "uint256",
          "name": "",
          "type": "uint256"
        }
      ],
      "stateMutability": "view",
      "type": "function"
    },
    {
      "inputs": [],
      "name": "deadLine",
      "outputs": [
        {
          "internalType": "uint256",
          "name": "",
          "type": "uint256"
        }
      ],
      "stateMutability": "view",
      "type": "function"
    },
    {
      "inputs": [],
      "name": "info",
      "outputs": [
        {
          "internalType": "string",
          "name": "",
          "type": "string"
        }
      ],
      "stateMutability": "view",
      "type": "function"
    },
    {
      "inputs": [
        {
          "internalType": "string",
          "name": "_info",
          "type": "string"
        },
        {
          "internalType": "string",
          "name": "_baseURI",
          "type": "string"
        },
        {
          "internalType": "uint256",
          "name": "_seatPrice",
          "type": "uint256"
        },
        {
          "internalType": "uint256",
          "name": "_percentCommission",
          "type": "uint256"
        },
        {
          "internalType": "uint256",
          "name": "_seatsLimit",
          "type": "uint256"
        },
        {
          "internalType": "uint256",
          "name": "_timeLimit",
          "type": "uint256"
        },
        {
          "internalType": "address",
          "name": "_owner",
          "type": "address"
        },
        {
          "internalType": "address",
          "name": "_RNCAddress",
          "type": "address"
        },
        {
          "internalType": "address",
          "name": "_NFTAddress",
          "type": "address"
        }
      ],
      "name": "initialize",
      "outputs": [],
      "stateMutability": "nonpayable",
      "type": "function"
    },
    {
      "inputs": [],
      "name": "owner",
      "outputs": [
        {
          "internalType": "address",
          "name": "",
          "type": "address"
        }
      ],
      "stateMutability": "view",
      "type": "function"
    },
    {
      "inputs": [],
      "name": "prize",
      "outputs": [
        {
          "internalType": "uint256",
          "name": "",
          "type": "uint256"
        }
      ],
      "stateMutability": "view",
      "type": "function"
    },
    {
      "inputs": [],
      "name": "rollDice",
      "outputs": [],
      "stateMutability": "nonpayable",
      "type": "function"
    },
    {
      "inputs": [],
      "name": "seatPrice",
      "outputs": [
        {
          "internalType": "uint256",
          "name": "",
          "type": "uint256"
        }
      ],
      "stateMutability": "view",
      "type": "function"
    },
    {
      "inputs": [
        {
          "internalType": "uint256",
          "name": "",
          "type": "uint256"
        }
      ],
      "name": "seatToAddr",
      "outputs": [
        {
          "internalType": "address",
          "name": "",
          "type": "address"
        }
      ],
      "stateMutability": "view",
      "type": "function"
    },
    {
      "inputs": [],
      "name": "seatsLimit",
      "outputs": [
        {
          "internalType": "uint256",
          "name": "",
          "type": "uint256"
        }
      ],
      "stateMutability": "view",
      "type": "function"
    },
    {
      "inputs": [],
      "name": "seatsTaken",
      "outputs": [
        {
          "internalType": "uint256",
          "name": "",
          "type": "uint256"
        }
      ],
      "stateMutability": "view",
      "type": "function"
    },
    {
      "inputs": [],
      "name": "secondsLeftToRollDice",
      "outputs": [
        {
          "internalType": "uint256",
          "name": "_secondsLeft",
          "type": "uint256"
        }
      ],
      "stateMutability": "view",
      "type": "function"
    },
    {
      "inputs": [
        {
          "internalType": "uint256",
          "name": "randomness",
          "type": "uint256"
        }
      ],
      "name": "select",
      "outputs": [],
      "stateMutability": "nonpayable",
      "type": "function"
    },
    {
      "inputs": [],
      "name": "status",
      "outputs": [
        {
          "internalType": "string",
          "name": "",
          "type": "string"
        }
      ],
      "stateMutability": "view",
      "type": "function"
    },
    {
      "inputs": [
        {
          "internalType": "address",
          "name": "_RNCAddress",
          "type": "address"
        }
      ],
      "name": "upgradeRNC",
      "outputs": [],
      "stateMutability": "nonpayable",
      "type": "function"
    },
    {
      "inputs": [],
      "name": "usersNumberToRollDice",
      "outputs": [
        {
          "internalType": "uint256",
          "name": "_usersNeeded",
          "type": "uint256"
        }
      ],
      "stateMutability": "view",
      "type": "function"
    },
    {
      "inputs": [],
      "name": "winner",
      "outputs": [
        {
          "internalType": "address",
          "name": "",
          "type": "address"
        }
      ],
      "stateMutability": "view",
      "type": "function"
    },
    {
      "inputs": [],
      "name": "withdrawCommission",
      "outputs": [],
      "stateMutability": "nonpayable",
      "type": "function"
    },
    {
      "inputs": [],
      "name": "withdrawableSupply",
      "outputs": [
        {
          "internalType": "uint256",
          "name": "",
          "type": "uint256"
        }
      ],
      "stateMutability": "view",
      "type": "function"
    }
  ],
  "bytecode": "0x608060405234801561001057600080fd5b50612946806100206000396000f3fe60806040526004361061017f5760003560e01c80636c0360eb116100d1578063bef3a0831161008a578063e148919111610064578063e1489191146104d8578063e3ac5d2614610503578063ea8a1af01461052e578063f036a67f146105455761017f565b8063bef3a08314610457578063def33fd414610482578063dfbf53ae146104ad5761017f565b80636c0360eb1461036b57806382afd50414610396578063837e7cc6146103c1578063839a19d9146103d85780638da5cb5b14610401578063a6c94a5d1461042c5761017f565b80632c82ae431161013e5780633e25e837116101185780633e25e837146103155780634cd77ded1461032c57806355161913146103365780636b81562d146103405761017f565b80632c82ae4314610294578063310c87cc146102bf578063370158ea146102ea5761017f565b806294d81b14610184578062c78481146101ad57806303d3c218146101ea5780630faa51d8146102135780630fd57f3e1461023e578063200d2ed214610269575b600080fd5b34801561019057600080fd5b506101ab60048036038101906101a69190611be3565b610570565b005b3480156101b957600080fd5b506101d460048036038101906101cf9190611c46565b6106a7565b6040516101e19190611c82565b60405180910390f35b3480156101f657600080fd5b50610211600480360381019061020c9190611de3565b6106da565b005b34801561021f57600080fd5b506102286109fd565b6040516102359190611ef4565b60405180910390f35b34801561024a57600080fd5b50610253610a2c565b6040516102609190611ef4565b60405180910390f35b34801561027557600080fd5b5061027e610a32565b60405161028b9190611f97565b60405180910390f35b3480156102a057600080fd5b506102a9610ac0565b6040516102b69190611ef4565b60405180910390f35b3480156102cb57600080fd5b506102d4610aed565b6040516102e19190611c82565b60405180910390f35b3480156102f657600080fd5b506102ff610b13565b60405161030c9190611f97565b60405180910390f35b34801561032157600080fd5b5061032a610ba1565b005b610334610ca9565b005b61033e610ea5565b005b34801561034c57600080fd5b50610355610ea7565b6040516103629190611ef4565b60405180910390f35b34801561037757600080fd5b50610380610ead565b60405161038d9190611f97565b60405180910390f35b3480156103a257600080fd5b506103ab610f3b565b6040516103b89190611c82565b60405180910390f35b3480156103cd57600080fd5b506103d6610f61565b005b3480156103e457600080fd5b506103ff60048036038101906103fa9190611c46565b6113ae565b005b34801561040d57600080fd5b50610416611662565b6040516104239190611c82565b60405180910390f35b34801561043857600080fd5b50610441611688565b60405161044e9190611ef4565b60405180910390f35b34801561046357600080fd5b5061046c61168e565b6040516104799190611ef4565b60405180910390f35b34801561048e57600080fd5b50610497611694565b6040516104a49190611ef4565b60405180910390f35b3480156104b957600080fd5b506104c26116bb565b6040516104cf9190611c82565b60405180910390f35b3480156104e457600080fd5b506104ed6116e1565b6040516104fa9190611ef4565b60405180910390f35b34801561050f57600080fd5b506105186116e7565b6040516105259190611ef4565b60405180910390f35b34801561053a57600080fd5b506105436116ed565b005b34801561055157600080fd5b5061055a611900565b6040516105679190611ef4565b60405180910390f35b600860009054906101000a900473ffffffffffffffffffffffffffffffffffffffff1673ffffffffffffffffffffffffffffffffffffffff163373ffffffffffffffffffffffffffffffffffffffff1614610600576040517f08c379a00000000000000000000000000000000000000000000000000000000081526004016105f79061202b565b60405180910390fd5b80600960006101000a81548173ffffffffffffffffffffffffffffffffffffffff021916908373ffffffffffffffffffffffffffffffffffffffff160217905550600960009054906101000a900473ffffffffffffffffffffffffffffffffffffffff16600060026101000a81548173ffffffffffffffffffffffffffffffffffffffff021916908373ffffffffffffffffffffffffffffffffffffffff16021790555050565b60106020528060005260406000206000915054906101000a900473ffffffffffffffffffffffffffffffffffffffff1681565b600060019054906101000a900460ff1680610700575060008054906101000a900460ff16155b61073f576040517f08c379a0000000000000000000000000000000000000000000000000000000008152600401610736906120bd565b60405180910390fd5b60008060019054906101000a900460ff16159050801561078f576001600060016101000a81548160ff02191690831515021790555060016000806101000a81548160ff0219169083151502179055505b89600290805190602001906107a5929190611ace565b5088600390805190602001906107bc929190611ace565b50876004819055506064876004546107d4919061210c565b6107de9190612195565b60058190555085600681905550600085111561080757844261080091906121c6565b6007819055505b83600860006101000a81548173ffffffffffffffffffffffffffffffffffffffff021916908373ffffffffffffffffffffffffffffffffffffffff16021790555082600960006101000a81548173ffffffffffffffffffffffffffffffffffffffff021916908373ffffffffffffffffffffffffffffffffffffffff16021790555082600060026101000a81548173ffffffffffffffffffffffffffffffffffffffff021916908373ffffffffffffffffffffffffffffffffffffffff16021790555081600a60006101000a81548173ffffffffffffffffffffffffffffffffffffffff021916908373ffffffffffffffffffffffffffffffffffffffff16021790555081600160006101000a81548173ffffffffffffffffffffffffffffffffffffffff021916908373ffffffffffffffffffffffffffffffffffffffff1602179055506040518060400160405280600481526020017f6f70656e00000000000000000000000000000000000000000000000000000000815250600b9080519060200190610997929190611ace565b507fea6f92f49f3f6b3faa4cb02c9366b537e5c42ee43006fb8f18fb7a3ecb6c6a92600b6040516109c89190612312565b60405180910390a180156109f15760008060016101000a81548160ff0219169083151502179055505b50505050505050505050565b600080429050806007541115610a235780600754610a1b9190612334565b915050610a29565b60009150505b90565b60045481565b600b8054610a3f9061224b565b80601f0160208091040260200160405190810160405280929190818152602001828054610a6b9061224b565b8015610ab85780601f10610a8d57610100808354040283529160200191610ab8565b820191906000526020600020905b815481529060010190602001808311610a9b57829003601f168201915b505050505081565b6000600d546006541115610ae557600d54600654610ade9190612334565b9050610aea565b600090505b90565b600a60009054906101000a900473ffffffffffffffffffffffffffffffffffffffff1681565b60028054610b209061224b565b80601f0160208091040260200160405190810160405280929190818152602001828054610b4c9061224b565b8015610b995780601f10610b6e57610100808354040283529160200191610b99565b820191906000526020600020905b815481529060010190602001808311610b7c57829003601f168201915b505050505081565b600860009054906101000a900473ffffffffffffffffffffffffffffffffffffffff1673ffffffffffffffffffffffffffffffffffffffff163373ffffffffffffffffffffffffffffffffffffffff1614610c31576040517f08c379a0000000000000000000000000000000000000000000000000000000008152600401610c289061202b565b60405180910390fd5b6000600860009054906101000a900473ffffffffffffffffffffffffffffffffffffffff1690508073ffffffffffffffffffffffffffffffffffffffff166108fc610c7a611694565b9081150290604051600060405180830381858888f19350505050158015610ca5573d6000803e3d6000fd5b5050565b60006006541480610cbd5750600654600d54105b610cfc576040517f08c379a0000000000000000000000000000000000000000000000000000000008152600401610cf3906123b4565b60405180910390fd5b600033905060003490506004548114610d4a576040517f08c379a0000000000000000000000000000000000000000000000000000000008152600401610d4190612420565b60405180910390fd5b8160106000600d54815260200190815260200160002060006101000a81548173ffffffffffffffffffffffffffffffffffffffff021916908373ffffffffffffffffffffffffffffffffffffffff1602179055508173ffffffffffffffffffffffffffffffffffffffff167f22b14d815e1456ee8e3186433fdfdaa984af441a362020080f799688c7ff2c1760405160405180910390a2600d6000815480929190610df490612440565b91905055506000610e0482611906565b9050610e0f81611a1c565b600654600d541415610ea0576040518060400160405280601381526020017f7573657220716f7572756d207265616368656400000000000000000000000000815250600b9080519060200190610e66929190611ace565b507fea6f92f49f3f6b3faa4cb02c9366b537e5c42ee43006fb8f18fb7a3ecb6c6a92600b604051610e979190612312565b60405180910390a15b505050565b565b600d5481565b60038054610eba9061224b565b80601f0160208091040260200160405190810160405280929190818152602001828054610ee69061224b565b8015610f335780601f10610f0857610100808354040283529160200191610f33565b820191906000526020600020905b815481529060010190602001808311610f1657829003601f168201915b505050505081565b600960009054906101000a900473ffffffffffffffffffffffffffffffffffffffff1681565b600060029054906101000a900473ffffffffffffffffffffffffffffffffffffffff1673ffffffffffffffffffffffffffffffffffffffff166352fa88566040518163ffffffff1660e01b815260040160206040518083038186803b158015610fc957600080fd5b505afa158015610fdd573d6000803e3d6000fd5b505050506040513d601f19601f82011682018060405250810190611001919061249e565b600c5414611044576040517f08c379a000000000000000000000000000000000000000000000000000000000815260040161103b90612517565b60405180910390fd5b600060065411801561105857506000600754115b156110b557600654600d54148061107157506007544210155b6110b0576040517f08c379a00000000000000000000000000000000000000000000000000000000081526004016110a7906125a9565b60405180910390fd5b6111f3565b6000600654111561110b57600654600d5414611106576040517f08c379a00000000000000000000000000000000000000000000000000000000081526004016110fd9061263b565b60405180910390fd5b6111f2565b600060075411156111605760075442101561115b576040517f08c379a0000000000000000000000000000000000000000000000000000000008152600401611152906126cd565b60405180910390fd5b6111f1565b600860009054906101000a900473ffffffffffffffffffffffffffffffffffffffff1673ffffffffffffffffffffffffffffffffffffffff163373ffffffffffffffffffffffffffffffffffffffff16146111f0576040517f08c379a00000000000000000000000000000000000000000000000000000000081526004016111e79061202b565b60405180910390fd5b5b5b5b60006040518060400160405280600f81526020017f73656c6563742875696e7432353629000000000000000000000000000000000081525080519060200120905060008060029054906101000a900473ffffffffffffffffffffffffffffffffffffffff1673ffffffffffffffffffffffffffffffffffffffff1663f5d34f23600c54846040518363ffffffff1660e01b81526004016112939190612728565b6020604051808303818588803b1580156112ac57600080fd5b505af11580156112c0573d6000803e3d6000fd5b50505050506040513d601f19601f820116820180604052508101906112e59190612779565b90506000600c819055507f72179fcf9070583e88aa5e724a71e6affe79c12733c644cc78fe215dde9fa0028160405161131e91906127b5565b60405180910390a16040518060400160405280600f81526020017f77616974696e6720666f7220524e430000000000000000000000000000000000815250600b9080519060200190611371929190611ace565b507fea6f92f49f3f6b3faa4cb02c9366b537e5c42ee43006fb8f18fb7a3ecb6c6a92600b6040516113a29190612312565b60405180910390a15050565b600960009054906101000a900473ffffffffffffffffffffffffffffffffffffffff1673ffffffffffffffffffffffffffffffffffffffff163373ffffffffffffffffffffffffffffffffffffffff161461143e576040517f08c379a00000000000000000000000000000000000000000000000000000000081526004016114359061281c565b60405180910390fd5b6000600d548261144e919061283c565b90506010600082815260200190815260200160002060009054906101000a900473ffffffffffffffffffffffffffffffffffffffff16600f60006101000a81548173ffffffffffffffffffffffffffffffffffffffff021916908373ffffffffffffffffffffffffffffffffffffffff1602179055507f94dd8caf4803213035e054c595c14a4902fc45ff2d35957b439326822e43481981600f60009054906101000a900473ffffffffffffffffffffffffffffffffffffffff16600e5460405161151b9392919061286d565b60405180910390a161152b611a53565b600160009054906101000a900473ffffffffffffffffffffffffffffffffffffffff1673ffffffffffffffffffffffffffffffffffffffff166340d097c3600f60009054906101000a900473ffffffffffffffffffffffffffffffffffffffff166040518263ffffffff1660e01b81526004016115a89190611c82565b600060405180830381600087803b1580156115c257600080fd5b505af11580156115d6573d6000803e3d6000fd5b505050506040518060400160405280600681526020017f636c6f7365640000000000000000000000000000000000000000000000000000815250600b9080519060200190611625929190611ace565b507fea6f92f49f3f6b3faa4cb02c9366b537e5c42ee43006fb8f18fb7a3ecb6c6a92600b6040516116569190612312565b60405180910390a15050565b600860009054906101000a900473ffffffffffffffffffffffffffffffffffffffff1681565b60065481565b60075481565b600080600e54600c546116a791906121c6565b905080476116b59190612334565b91505090565b600f60009054906101000a900473ffffffffffffffffffffffffffffffffffffffff1681565b60055481565b600e5481565b600860009054906101000a900473ffffffffffffffffffffffffffffffffffffffff1673ffffffffffffffffffffffffffffffffffffffff163373ffffffffffffffffffffffffffffffffffffffff161461177d576040517f08c379a00000000000000000000000000000000000000000000000000000000081526004016117749061202b565b60405180910390fd5b600454600d5461178d919061210c565b4710156117cf576040517f08c379a00000000000000000000000000000000000000000000000000000000081526004016117c6906128f0565b60405180910390fd5b60005b600d548110156118715760006010600083815260200190815260200160002060009054906101000a900473ffffffffffffffffffffffffffffffffffffffff1690508073ffffffffffffffffffffffffffffffffffffffff166108fc6004549081150290604051600060405180830381858888f1935050505015801561185c573d6000803e3d6000fd5b5050808061186990612440565b9150506117d2565b506000600e819055506040518060400160405280600881526020017f63616e63656c6564000000000000000000000000000000000000000000000000815250600b90805190602001906118c5929190611ace565b507fea6f92f49f3f6b3faa4cb02c9366b537e5c42ee43006fb8f18fb7a3ecb6c6a92600b6040516118f69190612312565b60405180910390a1565b600c5481565b600080600c54600060029054906101000a900473ffffffffffffffffffffffffffffffffffffffff1673ffffffffffffffffffffffffffffffffffffffff166352fa88566040518163ffffffff1660e01b815260040160206040518083038186803b15801561197457600080fd5b505afa158015611988573d6000803e3d6000fd5b505050506040513d601f19601f820116820180604052508101906119ac919061249e565b6119b69190612334565b90506000811115611a13578281106119ea5782600c60008282546119da91906121c6565b9250508190555060009250611a12565b80600c60008282546119fc91906121c6565b925050819055508083611a0f9190612334565b92505b5b82915050919050565b600554811115611a505760055481611a349190612334565b905080600e6000828254611a4891906121c6565b925050819055505b50565b6000600f60009054906101000a900473ffffffffffffffffffffffffffffffffffffffff1690508073ffffffffffffffffffffffffffffffffffffffff166108fc600e549081150290604051600060405180830381858888f19350505050158015611ac2573d6000803e3d6000fd5b506000600e8190555050565b828054611ada9061224b565b90600052602060002090601f016020900481019282611afc5760008555611b43565b82601f10611b1557805160ff1916838001178555611b43565b82800160010185558215611b43579182015b82811115611b42578251825591602001919060010190611b27565b5b509050611b509190611b54565b5090565b5b80821115611b6d576000816000905550600101611b55565b5090565b6000604051905090565b600080fd5b600080fd5b600073ffffffffffffffffffffffffffffffffffffffff82169050919050565b6000611bb082611b85565b9050919050565b611bc081611ba5565b8114611bcb57600080fd5b50565b600081359050611bdd81611bb7565b92915050565b600060208284031215611bf957611bf8611b7b565b5b6000611c0784828501611bce565b91505092915050565b6000819050919050565b611c2381611c10565b8114611c2e57600080fd5b50565b600081359050611c4081611c1a565b92915050565b600060208284031215611c5c57611c5b611b7b565b5b6000611c6a84828501611c31565b91505092915050565b611c7c81611ba5565b82525050565b6000602082019050611c976000830184611c73565b92915050565b600080fd5b600080fd5b6000601f19601f8301169050919050565b7f4e487b7100000000000000000000000000000000000000000000000000000000600052604160045260246000fd5b611cf082611ca7565b810181811067ffffffffffffffff82111715611d0f57611d0e611cb8565b5b80604052505050565b6000611d22611b71565b9050611d2e8282611ce7565b919050565b600067ffffffffffffffff821115611d4e57611d4d611cb8565b5b611d5782611ca7565b9050602081019050919050565b82818337600083830152505050565b6000611d86611d8184611d33565b611d18565b905082815260208101848484011115611da257611da1611ca2565b5b611dad848285611d64565b509392505050565b600082601f830112611dca57611dc9611c9d565b5b8135611dda848260208601611d73565b91505092915050565b60008060008060008060008060006101208a8c031215611e0657611e05611b7b565b5b60008a013567ffffffffffffffff811115611e2457611e23611b80565b5b611e308c828d01611db5565b99505060208a013567ffffffffffffffff811115611e5157611e50611b80565b5b611e5d8c828d01611db5565b9850506040611e6e8c828d01611c31565b9750506060611e7f8c828d01611c31565b9650506080611e908c828d01611c31565b95505060a0611ea18c828d01611c31565b94505060c0611eb28c828d01611bce565b93505060e0611ec38c828d01611bce565b925050610100611ed58c828d01611bce565b9150509295985092959850929598565b611eee81611c10565b82525050565b6000602082019050611f096000830184611ee5565b92915050565b600081519050919050565b600082825260208201905092915050565b60005b83811015611f49578082015181840152602081019050611f2e565b83811115611f58576000848401525b50505050565b6000611f6982611f0f565b611f738185611f1a565b9350611f83818560208601611f2b565b611f8c81611ca7565b840191505092915050565b60006020820190508181036000830152611fb18184611f5e565b905092915050565b7f6f6e6c79206f776e65722063616e2063616c6c20746869732066756e6374696f60008201527f6e00000000000000000000000000000000000000000000000000000000000000602082015250565b6000612015602183611f1a565b915061202082611fb9565b604082019050919050565b6000602082019050818103600083015261204481612008565b9050919050565b7f496e697469616c697a61626c653a20636f6e747261637420697320616c72656160008201527f647920696e697469616c697a6564000000000000000000000000000000000000602082015250565b60006120a7602e83611f1a565b91506120b28261204b565b604082019050919050565b600060208201905081810360008301526120d68161209a565b9050919050565b7f4e487b7100000000000000000000000000000000000000000000000000000000600052601160045260246000fd5b600061211782611c10565b915061212283611c10565b9250817fffffffffffffffffffffffffffffffffffffffffffffffffffffffffffffffff048311821515161561215b5761215a6120dd565b5b828202905092915050565b7f4e487b7100000000000000000000000000000000000000000000000000000000600052601260045260246000fd5b60006121a082611c10565b91506121ab83611c10565b9250826121bb576121ba612166565b5b828204905092915050565b60006121d182611c10565b91506121dc83611c10565b9250827fffffffffffffffffffffffffffffffffffffffffffffffffffffffffffffffff03821115612211576122106120dd565b5b828201905092915050565b7f4e487b7100000000000000000000000000000000000000000000000000000000600052602260045260246000fd5b6000600282049050600182168061226357607f821691505b602082108114156122775761227661221c565b5b50919050565b60008190508160005260206000209050919050565b6000815461229f8161224b565b6122a98186611f1a565b945060018216600081146122c457600181146122d657612309565b60ff1983168652602086019350612309565b6122df8561227d565b60005b83811015612301578154818901526001820191506020810190506122e2565b808801955050505b50505092915050565b6000602082019050818103600083015261232c8184612292565b905092915050565b600061233f82611c10565b915061234a83611c10565b92508282101561235d5761235c6120dd565b5b828203905092915050565b7f736f6c64206f75742e0000000000000000000000000000000000000000000000600082015250565b600061239e600983611f1a565b91506123a982612368565b602082019050919050565b600060208201905081810360008301526123cd81612391565b9050919050565b7f57726f6e6720636172642066656520656e746572656400000000000000000000600082015250565b600061240a601683611f1a565b9150612415826123d4565b602082019050919050565b60006020820190508181036000830152612439816123fd565b9050919050565b600061244b82611c10565b91507fffffffffffffffffffffffffffffffffffffffffffffffffffffffffffffffff82141561247e5761247d6120dd565b5b600182019050919050565b60008151905061249881611c1a565b92915050565b6000602082840312156124b4576124b3611b7b565b5b60006124c284828501612489565b91505092915050565b7f6e6f7420656e6f75676820524e432077697468686f6c64000000000000000000600082015250565b6000612501601783611f1a565b915061250c826124cb565b602082019050919050565b60006020820190508181036000830152612530816124f4565b9050919050565b7f72656163682074696d65206c696d6974206f722075736572206c696d6974207460008201527f6f20616374697661746520646963650000000000000000000000000000000000602082015250565b6000612593602f83611f1a565b915061259e82612537565b604082019050919050565b600060208201905081810360008301526125c281612586565b9050919050565b7f72656163682075736572206c696d697420746f2061637469766174652064696360008201527f6500000000000000000000000000000000000000000000000000000000000000602082015250565b6000612625602183611f1a565b9150612630826125c9565b604082019050919050565b6000602082019050818103600083015261265481612618565b9050919050565b7f796f75206861766520746f207761697420756e74696c6c20646561646c696e6560008201527f2070617373000000000000000000000000000000000000000000000000000000602082015250565b60006126b7602583611f1a565b91506126c28261265b565b604082019050919050565b600060208201905081810360008301526126e6816126aa565b9050919050565b60007fffffffff0000000000000000000000000000000000000000000000000000000082169050919050565b612722816126ed565b82525050565b600060208201905061273d6000830184612719565b92915050565b6000819050919050565b61275681612743565b811461276157600080fd5b50565b6000815190506127738161274d565b92915050565b60006020828403121561278f5761278e611b7b565b5b600061279d84828501612764565b91505092915050565b6127af81612743565b82525050565b60006020820190506127ca60008301846127a6565b92915050565b7f63616c6c6572206973206e6f74207468652076616c696420524e430000000000600082015250565b6000612806601b83611f1a565b9150612811826127d0565b602082019050919050565b60006020820190508181036000830152612835816127f9565b9050919050565b600061284782611c10565b915061285283611c10565b92508261286257612861612166565b5b828206905092915050565b60006060820190506128826000830186611ee5565b61288f6020830185611c73565b61289c6040830184611ee5565b949350505050565b7f6e6f7420656e6f756768206361736820746f2070617920757365727300000000600082015250565b60006128da601c83611f1a565b91506128e5826128a4565b602082019050919050565b60006020820190508181036000830152612909816128cd565b905091905056fea2646970667358221220b33f59f052c329c25b8bbc45b66dd06edec233fb5c267526852f3eb57e29384764736f6c63430008090033",
  "linkReferences": {},
  "deployedLinkReferences": {}
}