{
  "_format": "hh-sol-artifact-1",
  "contractName": "NFTTransparent",
  "sourceName": "contracts/ERC721/NFTTransparent.sol",
  "abi": [
    {
      "anonymous": false,
      "inputs": [
        {
          "indexed": true,
          "internalType": "address",
          "name": "owner",
          "type": "address"
        },
        {
          "indexed": true,
          "internalType": "address",
          "name": "approved",
          "type": "address"
        },
        {
          "indexed": true,
          "internalType": "uint256",
          "name": "tokenId",
          "type": "uint256"
        }
      ],
      "name": "Approval",
      "type": "event"
    },
    {
      "anonymous": false,
      "inputs": [
        {
          "indexed": true,
          "internalType": "address",
          "name": "owner",
          "type": "address"
        },
        {
          "indexed": true,
          "internalType": "address",
          "name": "operator",
          "type": "address"
        },
        {
          "indexed": false,
          "internalType": "bool",
          "name": "approved",
          "type": "bool"
        }
      ],
      "name": "ApprovalForAll",
      "type": "event"
    },
    {
      "anonymous": false,
      "inputs": [
        {
          "indexed": true,
          "internalType": "address",
          "name": "previousOwner",
          "type": "address"
        },
        {
          "indexed": true,
          "internalType": "address",
          "name": "newOwner",
          "type": "address"
        }
      ],
      "name": "OwnershipTransferred",
      "type": "event"
    },
    {
      "anonymous": false,
      "inputs": [
        {
          "indexed": true,
          "internalType": "address",
          "name": "from",
          "type": "address"
        },
        {
          "indexed": true,
          "internalType": "address",
          "name": "to",
          "type": "address"
        },
        {
          "indexed": true,
          "internalType": "uint256",
          "name": "tokenId",
          "type": "uint256"
        }
      ],
      "name": "Transfer",
      "type": "event"
    },
    {
      "inputs": [
        {
          "internalType": "address",
          "name": "to",
          "type": "address"
        },
        {
          "internalType": "uint256",
          "name": "tokenId",
          "type": "uint256"
        }
      ],
      "name": "approve",
      "outputs": [],
      "stateMutability": "nonpayable",
      "type": "function"
    },
    {
      "inputs": [
        {
          "internalType": "address",
          "name": "owner",
          "type": "address"
        }
      ],
      "name": "balanceOf",
      "outputs": [
        {
          "internalType": "uint256",
          "name": "",
          "type": "uint256"
        }
      ],
      "stateMutability": "view",
      "type": "function"
    },
    {
      "inputs": [
        {
          "internalType": "uint256",
          "name": "tokenId",
          "type": "uint256"
        }
      ],
      "name": "getApproved",
      "outputs": [
        {
          "internalType": "address",
          "name": "",
          "type": "address"
        }
      ],
      "stateMutability": "view",
      "type": "function"
    },
    {
      "inputs": [],
      "name": "initialize",
      "outputs": [],
      "stateMutability": "nonpayable",
      "type": "function"
    },
    {
      "inputs": [
        {
          "internalType": "address",
          "name": "owner",
          "type": "address"
        },
        {
          "internalType": "address",
          "name": "operator",
          "type": "address"
        }
      ],
      "name": "isApprovedForAll",
      "outputs": [
        {
          "internalType": "bool",
          "name": "",
          "type": "bool"
        }
      ],
      "stateMutability": "view",
      "type": "function"
    },
    {
      "inputs": [],
      "name": "name",
      "outputs": [
        {
          "internalType": "string",
          "name": "",
          "type": "string"
        }
      ],
      "stateMutability": "view",
      "type": "function"
    },
    {
      "inputs": [],
      "name": "owner",
      "outputs": [
        {
          "internalType": "address",
          "name": "",
          "type": "address"
        }
      ],
      "stateMutability": "view",
      "type": "function"
    },
    {
      "inputs": [
        {
          "internalType": "uint256",
          "name": "tokenId",
          "type": "uint256"
        }
      ],
      "name": "ownerOf",
      "outputs": [
        {
          "internalType": "address",
          "name": "",
          "type": "address"
        }
      ],
      "stateMutability": "view",
      "type": "function"
    },
    {
      "inputs": [],
      "name": "renounceOwnership",
      "outputs": [],
      "stateMutability": "nonpayable",
      "type": "function"
    },
    {
      "inputs": [
        {
          "internalType": "address",
          "name": "to",
          "type": "address"
        },
        {
          "internalType": "uint256",
          "name": "tokenId",
          "type": "uint256"
        }
      ],
      "name": "safeMint",
      "outputs": [],
      "stateMutability": "nonpayable",
      "type": "function"
    },
    {
      "inputs": [
        {
          "internalType": "address",
          "name": "from",
          "type": "address"
        },
        {
          "internalType": "address",
          "name": "to",
          "type": "address"
        },
        {
          "internalType": "uint256",
          "name": "tokenId",
          "type": "uint256"
        }
      ],
      "name": "safeTransferFrom",
      "outputs": [],
      "stateMutability": "nonpayable",
      "type": "function"
    },
    {
      "inputs": [
        {
          "internalType": "address",
          "name": "from",
          "type": "address"
        },
        {
          "internalType": "address",
          "name": "to",
          "type": "address"
        },
        {
          "internalType": "uint256",
          "name": "tokenId",
          "type": "uint256"
        },
        {
          "internalType": "bytes",
          "name": "_data",
          "type": "bytes"
        }
      ],
      "name": "safeTransferFrom",
      "outputs": [],
      "stateMutability": "nonpayable",
      "type": "function"
    },
    {
      "inputs": [
        {
          "internalType": "address",
          "name": "operator",
          "type": "address"
        },
        {
          "internalType": "bool",
          "name": "approved",
          "type": "bool"
        }
      ],
      "name": "setApprovalForAll",
      "outputs": [],
      "stateMutability": "nonpayable",
      "type": "function"
    },
    {
      "inputs": [
        {
          "internalType": "bytes4",
          "name": "interfaceId",
          "type": "bytes4"
        }
      ],
      "name": "supportsInterface",
      "outputs": [
        {
          "internalType": "bool",
          "name": "",
          "type": "bool"
        }
      ],
      "stateMutability": "view",
      "type": "function"
    },
    {
      "inputs": [],
      "name": "symbol",
      "outputs": [
        {
          "internalType": "string",
          "name": "",
          "type": "string"
        }
      ],
      "stateMutability": "view",
      "type": "function"
    },
    {
      "inputs": [
        {
          "internalType": "uint256",
          "name": "tokenId",
          "type": "uint256"
        }
      ],
      "name": "tokenURI",
      "outputs": [
        {
          "internalType": "string",
          "name": "",
          "type": "string"
        }
      ],
      "stateMutability": "view",
      "type": "function"
    },
    {
      "inputs": [
        {
          "internalType": "address",
          "name": "from",
          "type": "address"
        },
        {
          "internalType": "address",
          "name": "to",
          "type": "address"
        },
        {
          "internalType": "uint256",
          "name": "tokenId",
          "type": "uint256"
        }
      ],
      "name": "transferFrom",
      "outputs": [],
      "stateMutability": "nonpayable",
      "type": "function"
    },
    {
      "inputs": [
        {
          "internalType": "address",
          "name": "newOwner",
          "type": "address"
        }
      ],
      "name": "transferOwnership",
      "outputs": [],
      "stateMutability": "nonpayable",
      "type": "function"
    },
    {
      "inputs": [
        {
          "internalType": "uint256",
          "name": "_x",
          "type": "uint256"
        }
      ],
      "name": "upgradetest",
      "outputs": [],
      "stateMutability": "nonpayable",
      "type": "function"
    },
    {
      "inputs": [],
      "name": "x",
      "outputs": [
        {
          "internalType": "uint256",
          "name": "",
          "type": "uint256"
        }
      ],
      "stateMutability": "view",
      "type": "function"
    }
  ],
  "bytecode": "0x608060405234801561001057600080fd5b50613188806100206000396000f3fe608060405234801561001057600080fd5b506004361061012c5760003560e01c80638129fc1c116100ad578063b88d4fde11610071578063b88d4fde14610309578063c87b56dd14610325578063e985e9c514610355578063f2fde38b14610385578063f8a28f74146103a15761012c565b80638129fc1c1461028b5780638da5cb5b1461029557806395d89b41146102b3578063a1448194146102d1578063a22cb465146102ed5761012c565b806323b872dd116100f457806323b872dd146101e957806342842e0e146102055780636352211e1461022157806370a0823114610251578063715018a6146102815761012c565b806301ffc9a71461013157806306fdde0314610161578063081812fc1461017f578063095ea7b3146101af5780630c55699c146101cb575b600080fd5b61014b60048036038101906101469190611ee9565b6103bd565b6040516101589190611f31565b60405180910390f35b61016961049f565b6040516101769190611fe5565b60405180910390f35b6101996004803603810190610194919061203d565b610531565b6040516101a691906120ab565b60405180910390f35b6101c960048036038101906101c491906120f2565b6105b6565b005b6101d36106ce565b6040516101e09190612141565b60405180910390f35b61020360048036038101906101fe919061215c565b6106d4565b005b61021f600480360381019061021a919061215c565b610734565b005b61023b6004803603810190610236919061203d565b610754565b60405161024891906120ab565b60405180910390f35b61026b600480360381019061026691906121af565b610806565b6040516102789190612141565b60405180910390f35b6102896108be565b005b610293610946565b005b61029d610aae565b6040516102aa91906120ab565b60405180910390f35b6102bb610ad8565b6040516102c89190611fe5565b60405180910390f35b6102eb60048036038101906102e691906120f2565b610b6a565b005b61030760048036038101906103029190612208565b610bf4565b005b610323600480360381019061031e919061237d565b610c0a565b005b61033f600480360381019061033a919061203d565b610c6c565b60405161034c9190611fe5565b60405180910390f35b61036f600480360381019061036a9190612400565b610d13565b60405161037c9190611f31565b60405180910390f35b61039f600480360381019061039a91906121af565b610da7565b005b6103bb60048036038101906103b6919061203d565b610e9f565b005b60007f80ac58cd000000000000000000000000000000000000000000000000000000007bffffffffffffffffffffffffffffffffffffffffffffffffffffffff1916827bffffffffffffffffffffffffffffffffffffffffffffffffffffffff1916148061048857507f5b5e139f000000000000000000000000000000000000000000000000000000007bffffffffffffffffffffffffffffffffffffffffffffffffffffffff1916827bffffffffffffffffffffffffffffffffffffffffffffffffffffffff1916145b80610498575061049782610ea9565b5b9050919050565b6060606580546104ae9061246f565b80601f01602080910402602001604051908101604052809291908181526020018280546104da9061246f565b80156105275780601f106104fc57610100808354040283529160200191610527565b820191906000526020600020905b81548152906001019060200180831161050a57829003601f168201915b5050505050905090565b600061053c82610f13565b61057b576040517f08c379a000000000000000000000000000000000000000000000000000000000815260040161057290612513565b60405180910390fd5b6069600083815260200190815260200160002060009054906101000a900473ffffffffffffffffffffffffffffffffffffffff169050919050565b60006105c182610754565b90508073ffffffffffffffffffffffffffffffffffffffff168373ffffffffffffffffffffffffffffffffffffffff161415610632576040517f08c379a0000000000000000000000000000000000000000000000000000000008152600401610629906125a5565b60405180910390fd5b8073ffffffffffffffffffffffffffffffffffffffff16610651610f7f565b73ffffffffffffffffffffffffffffffffffffffff161480610680575061067f8161067a610f7f565b610d13565b5b6106bf576040517f08c379a00000000000000000000000000000000000000000000000000000000081526004016106b690612637565b60405180910390fd5b6106c98383610f87565b505050565b60c95481565b6106e56106df610f7f565b82611040565b610724576040517f08c379a000000000000000000000000000000000000000000000000000000000815260040161071b906126c9565b60405180910390fd5b61072f83838361111e565b505050565b61074f83838360405180602001604052806000815250610c0a565b505050565b6000806067600084815260200190815260200160002060009054906101000a900473ffffffffffffffffffffffffffffffffffffffff169050600073ffffffffffffffffffffffffffffffffffffffff168173ffffffffffffffffffffffffffffffffffffffff1614156107fd576040517f08c379a00000000000000000000000000000000000000000000000000000000081526004016107f49061275b565b60405180910390fd5b80915050919050565b60008073ffffffffffffffffffffffffffffffffffffffff168273ffffffffffffffffffffffffffffffffffffffff161415610877576040517f08c379a000000000000000000000000000000000000000000000000000000000815260040161086e906127ed565b60405180910390fd5b606860008373ffffffffffffffffffffffffffffffffffffffff1673ffffffffffffffffffffffffffffffffffffffff168152602001908152602001600020549050919050565b6108c6610f7f565b73ffffffffffffffffffffffffffffffffffffffff166108e4610aae565b73ffffffffffffffffffffffffffffffffffffffff161461093a576040517f08c379a000000000000000000000000000000000000000000000000000000000815260040161093190612859565b60405180910390fd5b610944600061137a565b565b600060019054906101000a900460ff1661096e5760008054906101000a900460ff1615610977565b610976611440565b5b6109b6576040517f08c379a00000000000000000000000000000000000000000000000000000000081526004016109ad906128eb565b60405180910390fd5b60008060019054906101000a900460ff161590508015610a06576001600060016101000a81548160ff02191690831515021790555060016000806101000a81548160ff0219169083151502179055505b610a7a6040518060400160405280600781526020017f4d79546f6b656e000000000000000000000000000000000000000000000000008152506040518060400160405280600381526020017f4d544b0000000000000000000000000000000000000000000000000000000000815250611451565b610a826114be565b600760c9819055508015610aab5760008060016101000a81548160ff0219169083151502179055505b50565b6000609760009054906101000a900473ffffffffffffffffffffffffffffffffffffffff16905090565b606060668054610ae79061246f565b80601f0160208091040260200160405190810160405280929190818152602001828054610b139061246f565b8015610b605780601f10610b3557610100808354040283529160200191610b60565b820191906000526020600020905b815481529060010190602001808311610b4357829003601f168201915b5050505050905090565b610b72610f7f565b73ffffffffffffffffffffffffffffffffffffffff16610b90610aae565b73ffffffffffffffffffffffffffffffffffffffff1614610be6576040517f08c379a0000000000000000000000000000000000000000000000000000000008152600401610bdd90612859565b60405180910390fd5b610bf0828261151f565b5050565b610c06610bff610f7f565b838361153d565b5050565b610c1b610c15610f7f565b83611040565b610c5a576040517f08c379a0000000000000000000000000000000000000000000000000000000008152600401610c51906126c9565b60405180910390fd5b610c66848484846116aa565b50505050565b6060610c7782610f13565b610cb6576040517f08c379a0000000000000000000000000000000000000000000000000000000008152600401610cad9061297d565b60405180910390fd5b6000610cc0611706565b90506000815111610ce05760405180602001604052806000815250610d0b565b80610cea8461171d565b604051602001610cfb9291906129d9565b6040516020818303038152906040525b915050919050565b6000606a60008473ffffffffffffffffffffffffffffffffffffffff1673ffffffffffffffffffffffffffffffffffffffff16815260200190815260200160002060008373ffffffffffffffffffffffffffffffffffffffff1673ffffffffffffffffffffffffffffffffffffffff16815260200190815260200160002060009054906101000a900460ff16905092915050565b610daf610f7f565b73ffffffffffffffffffffffffffffffffffffffff16610dcd610aae565b73ffffffffffffffffffffffffffffffffffffffff1614610e23576040517f08c379a0000000000000000000000000000000000000000000000000000000008152600401610e1a90612859565b60405180910390fd5b600073ffffffffffffffffffffffffffffffffffffffff168173ffffffffffffffffffffffffffffffffffffffff161415610e93576040517f08c379a0000000000000000000000000000000000000000000000000000000008152600401610e8a90612a6f565b60405180910390fd5b610e9c8161137a565b50565b8060c98190555050565b60007f01ffc9a7000000000000000000000000000000000000000000000000000000007bffffffffffffffffffffffffffffffffffffffffffffffffffffffff1916827bffffffffffffffffffffffffffffffffffffffffffffffffffffffff1916149050919050565b60008073ffffffffffffffffffffffffffffffffffffffff166067600084815260200190815260200160002060009054906101000a900473ffffffffffffffffffffffffffffffffffffffff1673ffffffffffffffffffffffffffffffffffffffff1614159050919050565b600033905090565b816069600083815260200190815260200160002060006101000a81548173ffffffffffffffffffffffffffffffffffffffff021916908373ffffffffffffffffffffffffffffffffffffffff160217905550808273ffffffffffffffffffffffffffffffffffffffff16610ffa83610754565b73ffffffffffffffffffffffffffffffffffffffff167f8c5be1e5ebec7d5bd14f71427d1e84f3dd0314c0f7b2291e5b200ac8c7c3b92560405160405180910390a45050565b600061104b82610f13565b61108a576040517f08c379a000000000000000000000000000000000000000000000000000000000815260040161108190612b01565b60405180910390fd5b600061109583610754565b90508073ffffffffffffffffffffffffffffffffffffffff168473ffffffffffffffffffffffffffffffffffffffff16148061110457508373ffffffffffffffffffffffffffffffffffffffff166110ec84610531565b73ffffffffffffffffffffffffffffffffffffffff16145b8061111557506111148185610d13565b5b91505092915050565b8273ffffffffffffffffffffffffffffffffffffffff1661113e82610754565b73ffffffffffffffffffffffffffffffffffffffff1614611194576040517f08c379a000000000000000000000000000000000000000000000000000000000815260040161118b90612b93565b60405180910390fd5b600073ffffffffffffffffffffffffffffffffffffffff168273ffffffffffffffffffffffffffffffffffffffff161415611204576040517f08c379a00000000000000000000000000000000000000000000000000000000081526004016111fb90612c25565b60405180910390fd5b61120f83838361187e565b61121a600082610f87565b6001606860008573ffffffffffffffffffffffffffffffffffffffff1673ffffffffffffffffffffffffffffffffffffffff168152602001908152602001600020600082825461126a9190612c74565b925050819055506001606860008473ffffffffffffffffffffffffffffffffffffffff1673ffffffffffffffffffffffffffffffffffffffff16815260200190815260200160002060008282546112c19190612ca8565b92505081905550816067600083815260200190815260200160002060006101000a81548173ffffffffffffffffffffffffffffffffffffffff021916908373ffffffffffffffffffffffffffffffffffffffff160217905550808273ffffffffffffffffffffffffffffffffffffffff168473ffffffffffffffffffffffffffffffffffffffff167fddf252ad1be2c89b69c2b068fc378daa952ba7f163c4a11628f55a4df523b3ef60405160405180910390a4505050565b6000609760009054906101000a900473ffffffffffffffffffffffffffffffffffffffff16905081609760006101000a81548173ffffffffffffffffffffffffffffffffffffffff021916908373ffffffffffffffffffffffffffffffffffffffff1602179055508173ffffffffffffffffffffffffffffffffffffffff168173ffffffffffffffffffffffffffffffffffffffff167f8be0079c531659141344cd1fd0a4f28419497f9722a3daafe3b4186f6b6457e060405160405180910390a35050565b600061144b30611883565b15905090565b600060019054906101000a900460ff166114a0576040517f08c379a000000000000000000000000000000000000000000000000000000000815260040161149790612d70565b60405180910390fd5b6114a8611896565b6114b06118e7565b6114ba8282611938565b5050565b600060019054906101000a900460ff1661150d576040517f08c379a000000000000000000000000000000000000000000000000000000000815260040161150490612d70565b60405180910390fd5b611515611896565b61151d6119b9565b565b611539828260405180602001604052806000815250611a1a565b5050565b8173ffffffffffffffffffffffffffffffffffffffff168373ffffffffffffffffffffffffffffffffffffffff1614156115ac576040517f08c379a00000000000000000000000000000000000000000000000000000000081526004016115a390612ddc565b60405180910390fd5b80606a60008573ffffffffffffffffffffffffffffffffffffffff1673ffffffffffffffffffffffffffffffffffffffff16815260200190815260200160002060008473ffffffffffffffffffffffffffffffffffffffff1673ffffffffffffffffffffffffffffffffffffffff16815260200190815260200160002060006101000a81548160ff0219169083151502179055508173ffffffffffffffffffffffffffffffffffffffff168373ffffffffffffffffffffffffffffffffffffffff167f17307eab39ab6107e8899845ad3d59bd9653f200f220920489ca2b5937696c318360405161169d9190611f31565b60405180910390a3505050565b6116b584848461111e565b6116c184848484611a75565b611700576040517f08c379a00000000000000000000000000000000000000000000000000000000081526004016116f790612e6e565b60405180910390fd5b50505050565b606060405180602001604052806000815250905090565b60606000821415611765576040518060400160405280600181526020017f30000000000000000000000000000000000000000000000000000000000000008152509050611879565b600082905060005b6000821461179757808061178090612e8e565b915050600a826117909190612f06565b915061176d565b60008167ffffffffffffffff8111156117b3576117b2612252565b5b6040519080825280601f01601f1916602001820160405280156117e55781602001600182028036833780820191505090505b5090505b60008514611872576001826117fe9190612c74565b9150600a8561180d9190612f37565b60306118199190612ca8565b60f81b81838151811061182f5761182e612f68565b5b60200101907effffffffffffffffffffffffffffffffffffffffffffffffffffffffffffff1916908160001a905350600a8561186b9190612f06565b94506117e9565b8093505050505b919050565b505050565b600080823b905060008111915050919050565b600060019054906101000a900460ff166118e5576040517f08c379a00000000000000000000000000000000000000000000000000000000081526004016118dc90612d70565b60405180910390fd5b565b600060019054906101000a900460ff16611936576040517f08c379a000000000000000000000000000000000000000000000000000000000815260040161192d90612d70565b60405180910390fd5b565b600060019054906101000a900460ff16611987576040517f08c379a000000000000000000000000000000000000000000000000000000000815260040161197e90612d70565b60405180910390fd5b816065908051906020019061199d929190611dda565b5080606690805190602001906119b4929190611dda565b505050565b600060019054906101000a900460ff16611a08576040517f08c379a00000000000000000000000000000000000000000000000000000000081526004016119ff90612d70565b60405180910390fd5b611a18611a13610f7f565b61137a565b565b611a248383611c0c565b611a316000848484611a75565b611a70576040517f08c379a0000000000000000000000000000000000000000000000000000000008152600401611a6790612e6e565b60405180910390fd5b505050565b6000611a968473ffffffffffffffffffffffffffffffffffffffff16611883565b15611bff578373ffffffffffffffffffffffffffffffffffffffff1663150b7a02611abf610f7f565b8786866040518563ffffffff1660e01b8152600401611ae19493929190612fec565b602060405180830381600087803b158015611afb57600080fd5b505af1925050508015611b2c57506040513d601f19601f82011682018060405250810190611b29919061304d565b60015b611baf573d8060008114611b5c576040519150601f19603f3d011682016040523d82523d6000602084013e611b61565b606091505b50600081511415611ba7576040517f08c379a0000000000000000000000000000000000000000000000000000000008152600401611b9e90612e6e565b60405180910390fd5b805181602001fd5b63150b7a0260e01b7bffffffffffffffffffffffffffffffffffffffffffffffffffffffff1916817bffffffffffffffffffffffffffffffffffffffffffffffffffffffff191614915050611c04565b600190505b949350505050565b600073ffffffffffffffffffffffffffffffffffffffff168273ffffffffffffffffffffffffffffffffffffffff161415611c7c576040517f08c379a0000000000000000000000000000000000000000000000000000000008152600401611c73906130c6565b60405180910390fd5b611c8581610f13565b15611cc5576040517f08c379a0000000000000000000000000000000000000000000000000000000008152600401611cbc90613132565b60405180910390fd5b611cd16000838361187e565b6001606860008473ffffffffffffffffffffffffffffffffffffffff1673ffffffffffffffffffffffffffffffffffffffff1681526020019081526020016000206000828254611d219190612ca8565b92505081905550816067600083815260200190815260200160002060006101000a81548173ffffffffffffffffffffffffffffffffffffffff021916908373ffffffffffffffffffffffffffffffffffffffff160217905550808273ffffffffffffffffffffffffffffffffffffffff16600073ffffffffffffffffffffffffffffffffffffffff167fddf252ad1be2c89b69c2b068fc378daa952ba7f163c4a11628f55a4df523b3ef60405160405180910390a45050565b828054611de69061246f565b90600052602060002090601f016020900481019282611e085760008555611e4f565b82601f10611e2157805160ff1916838001178555611e4f565b82800160010185558215611e4f579182015b82811115611e4e578251825591602001919060010190611e33565b5b509050611e5c9190611e60565b5090565b5b80821115611e79576000816000905550600101611e61565b5090565b6000604051905090565b600080fd5b600080fd5b60007fffffffff0000000000000000000000000000000000000000000000000000000082169050919050565b611ec681611e91565b8114611ed157600080fd5b50565b600081359050611ee381611ebd565b92915050565b600060208284031215611eff57611efe611e87565b5b6000611f0d84828501611ed4565b91505092915050565b60008115159050919050565b611f2b81611f16565b82525050565b6000602082019050611f466000830184611f22565b92915050565b600081519050919050565b600082825260208201905092915050565b60005b83811015611f86578082015181840152602081019050611f6b565b83811115611f95576000848401525b50505050565b6000601f19601f8301169050919050565b6000611fb782611f4c565b611fc18185611f57565b9350611fd1818560208601611f68565b611fda81611f9b565b840191505092915050565b60006020820190508181036000830152611fff8184611fac565b905092915050565b6000819050919050565b61201a81612007565b811461202557600080fd5b50565b60008135905061203781612011565b92915050565b60006020828403121561205357612052611e87565b5b600061206184828501612028565b91505092915050565b600073ffffffffffffffffffffffffffffffffffffffff82169050919050565b60006120958261206a565b9050919050565b6120a58161208a565b82525050565b60006020820190506120c0600083018461209c565b92915050565b6120cf8161208a565b81146120da57600080fd5b50565b6000813590506120ec816120c6565b92915050565b6000806040838503121561210957612108611e87565b5b6000612117858286016120dd565b925050602061212885828601612028565b9150509250929050565b61213b81612007565b82525050565b60006020820190506121566000830184612132565b92915050565b60008060006060848603121561217557612174611e87565b5b6000612183868287016120dd565b9350506020612194868287016120dd565b92505060406121a586828701612028565b9150509250925092565b6000602082840312156121c5576121c4611e87565b5b60006121d3848285016120dd565b91505092915050565b6121e581611f16565b81146121f057600080fd5b50565b600081359050612202816121dc565b92915050565b6000806040838503121561221f5761221e611e87565b5b600061222d858286016120dd565b925050602061223e858286016121f3565b9150509250929050565b600080fd5b600080fd5b7f4e487b7100000000000000000000000000000000000000000000000000000000600052604160045260246000fd5b61228a82611f9b565b810181811067ffffffffffffffff821117156122a9576122a8612252565b5b80604052505050565b60006122bc611e7d565b90506122c88282612281565b919050565b600067ffffffffffffffff8211156122e8576122e7612252565b5b6122f182611f9b565b9050602081019050919050565b82818337600083830152505050565b600061232061231b846122cd565b6122b2565b90508281526020810184848401111561233c5761233b61224d565b5b6123478482856122fe565b509392505050565b600082601f83011261236457612363612248565b5b813561237484826020860161230d565b91505092915050565b6000806000806080858703121561239757612396611e87565b5b60006123a5878288016120dd565b94505060206123b6878288016120dd565b93505060406123c787828801612028565b925050606085013567ffffffffffffffff8111156123e8576123e7611e8c565b5b6123f48782880161234f565b91505092959194509250565b6000806040838503121561241757612416611e87565b5b6000612425858286016120dd565b9250506020612436858286016120dd565b9150509250929050565b7f4e487b7100000000000000000000000000000000000000000000000000000000600052602260045260246000fd5b6000600282049050600182168061248757607f821691505b6020821081141561249b5761249a612440565b5b50919050565b7f4552433732313a20617070726f76656420717565727920666f72206e6f6e657860008201527f697374656e7420746f6b656e0000000000000000000000000000000000000000602082015250565b60006124fd602c83611f57565b9150612508826124a1565b604082019050919050565b6000602082019050818103600083015261252c816124f0565b9050919050565b7f4552433732313a20617070726f76616c20746f2063757272656e74206f776e6560008201527f7200000000000000000000000000000000000000000000000000000000000000602082015250565b600061258f602183611f57565b915061259a82612533565b604082019050919050565b600060208201905081810360008301526125be81612582565b9050919050565b7f4552433732313a20617070726f76652063616c6c6572206973206e6f74206f7760008201527f6e6572206e6f7220617070726f76656420666f7220616c6c0000000000000000602082015250565b6000612621603883611f57565b915061262c826125c5565b604082019050919050565b6000602082019050818103600083015261265081612614565b9050919050565b7f4552433732313a207472616e736665722063616c6c6572206973206e6f74206f60008201527f776e6572206e6f7220617070726f766564000000000000000000000000000000602082015250565b60006126b3603183611f57565b91506126be82612657565b604082019050919050565b600060208201905081810360008301526126e2816126a6565b9050919050565b7f4552433732313a206f776e657220717565727920666f72206e6f6e657869737460008201527f656e7420746f6b656e0000000000000000000000000000000000000000000000602082015250565b6000612745602983611f57565b9150612750826126e9565b604082019050919050565b6000602082019050818103600083015261277481612738565b9050919050565b7f4552433732313a2062616c616e636520717565727920666f7220746865207a6560008201527f726f206164647265737300000000000000000000000000000000000000000000602082015250565b60006127d7602a83611f57565b91506127e28261277b565b604082019050919050565b60006020820190508181036000830152612806816127ca565b9050919050565b7f4f776e61626c653a2063616c6c6572206973206e6f7420746865206f776e6572600082015250565b6000612843602083611f57565b915061284e8261280d565b602082019050919050565b6000602082019050818103600083015261287281612836565b9050919050565b7f496e697469616c697a61626c653a20636f6e747261637420697320616c72656160008201527f647920696e697469616c697a6564000000000000000000000000000000000000602082015250565b60006128d5602e83611f57565b91506128e082612879565b604082019050919050565b60006020820190508181036000830152612904816128c8565b9050919050565b7f4552433732314d657461646174613a2055524920717565727920666f72206e6f60008201527f6e6578697374656e7420746f6b656e0000000000000000000000000000000000602082015250565b6000612967602f83611f57565b91506129728261290b565b604082019050919050565b600060208201905081810360008301526129968161295a565b9050919050565b600081905092915050565b60006129b382611f4c565b6129bd818561299d565b93506129cd818560208601611f68565b80840191505092915050565b60006129e582856129a8565b91506129f182846129a8565b91508190509392505050565b7f4f776e61626c653a206e6577206f776e657220697320746865207a65726f206160008201527f6464726573730000000000000000000000000000000000000000000000000000602082015250565b6000612a59602683611f57565b9150612a64826129fd565b604082019050919050565b60006020820190508181036000830152612a8881612a4c565b9050919050565b7f4552433732313a206f70657261746f7220717565727920666f72206e6f6e657860008201527f697374656e7420746f6b656e0000000000000000000000000000000000000000602082015250565b6000612aeb602c83611f57565b9150612af682612a8f565b604082019050919050565b60006020820190508181036000830152612b1a81612ade565b9050919050565b7f4552433732313a207472616e73666572206f6620746f6b656e2074686174206960008201527f73206e6f74206f776e0000000000000000000000000000000000000000000000602082015250565b6000612b7d602983611f57565b9150612b8882612b21565b604082019050919050565b60006020820190508181036000830152612bac81612b70565b9050919050565b7f4552433732313a207472616e7366657220746f20746865207a65726f2061646460008201527f7265737300000000000000000000000000000000000000000000000000000000602082015250565b6000612c0f602483611f57565b9150612c1a82612bb3565b604082019050919050565b60006020820190508181036000830152612c3e81612c02565b9050919050565b7f4e487b7100000000000000000000000000000000000000000000000000000000600052601160045260246000fd5b6000612c7f82612007565b9150612c8a83612007565b925082821015612c9d57612c9c612c45565b5b828203905092915050565b6000612cb382612007565b9150612cbe83612007565b9250827fffffffffffffffffffffffffffffffffffffffffffffffffffffffffffffffff03821115612cf357612cf2612c45565b5b828201905092915050565b7f496e697469616c697a61626c653a20636f6e7472616374206973206e6f74206960008201527f6e697469616c697a696e67000000000000000000000000000000000000000000602082015250565b6000612d5a602b83611f57565b9150612d6582612cfe565b604082019050919050565b60006020820190508181036000830152612d8981612d4d565b9050919050565b7f4552433732313a20617070726f766520746f2063616c6c657200000000000000600082015250565b6000612dc6601983611f57565b9150612dd182612d90565b602082019050919050565b60006020820190508181036000830152612df581612db9565b9050919050565b7f4552433732313a207472616e7366657220746f206e6f6e20455243373231526560008201527f63656976657220696d706c656d656e7465720000000000000000000000000000602082015250565b6000612e58603283611f57565b9150612e6382612dfc565b604082019050919050565b60006020820190508181036000830152612e8781612e4b565b9050919050565b6000612e9982612007565b91507fffffffffffffffffffffffffffffffffffffffffffffffffffffffffffffffff821415612ecc57612ecb612c45565b5b600182019050919050565b7f4e487b7100000000000000000000000000000000000000000000000000000000600052601260045260246000fd5b6000612f1182612007565b9150612f1c83612007565b925082612f2c57612f2b612ed7565b5b828204905092915050565b6000612f4282612007565b9150612f4d83612007565b925082612f5d57612f5c612ed7565b5b828206905092915050565b7f4e487b7100000000000000000000000000000000000000000000000000000000600052603260045260246000fd5b600081519050919050565b600082825260208201905092915050565b6000612fbe82612f97565b612fc88185612fa2565b9350612fd8818560208601611f68565b612fe181611f9b565b840191505092915050565b6000608082019050613001600083018761209c565b61300e602083018661209c565b61301b6040830185612132565b818103606083015261302d8184612fb3565b905095945050505050565b60008151905061304781611ebd565b92915050565b60006020828403121561306357613062611e87565b5b600061307184828501613038565b91505092915050565b7f4552433732313a206d696e7420746f20746865207a65726f2061646472657373600082015250565b60006130b0602083611f57565b91506130bb8261307a565b602082019050919050565b600060208201905081810360008301526130df816130a3565b9050919050565b7f4552433732313a20746f6b656e20616c7265616479206d696e74656400000000600082015250565b600061311c601c83611f57565b9150613127826130e6565b602082019050919050565b6000602082019050818103600083015261314b8161310f565b905091905056fea2646970667358221220ffc7c6e035451817e44801d5dc5f2c345fdd040692b099a1f60ac7c389ffbd4b64736f6c63430008090033",
  "linkReferences": {},
  "deployedLinkReferences": {}
}