{
  "_format": "hh-sol-artifact-1",
  "contractName": "DAO",
  "sourceName": "contracts/DAO/DAO.sol",
  "abi": [
    {
      "inputs": [
        {
          "internalType": "address",
          "name": "userAddr",
          "type": "address"
        }
      ],
      "name": "registerSign",
      "outputs": [
        {
          "internalType": "string",
          "name": "",
          "type": "string"
        }
      ],
      "stateMutability": "nonpayable",
      "type": "function"
    }
  ],
  "bytecode": "0x608060405234801561001057600080fd5b506101e8806100206000396000f3fe608060405234801561001057600080fd5b506004361061002b5760003560e01c8063f9afbb6714610030575b600080fd5b61004a600480360381019061004591906100ca565b610060565b6040516100579190610190565b60405180910390f35b6060919050565b600080fd5b600073ffffffffffffffffffffffffffffffffffffffff82169050919050565b60006100978261006c565b9050919050565b6100a78161008c565b81146100b257600080fd5b50565b6000813590506100c48161009e565b92915050565b6000602082840312156100e0576100df610067565b5b60006100ee848285016100b5565b91505092915050565b600081519050919050565b600082825260208201905092915050565b60005b83811015610131578082015181840152602081019050610116565b83811115610140576000848401525b50505050565b6000601f19601f8301169050919050565b6000610162826100f7565b61016c8185610102565b935061017c818560208601610113565b61018581610146565b840191505092915050565b600060208201905081810360008301526101aa8184610157565b90509291505056fea26469706673582212200257a4a4330e31d966097d79afecaa35ba89fa3b78dbcd0021a8e52405bea1de64736f6c63430008090033",
  "linkReferences": {},
  "deployedLinkReferences": {}
}