{
  "_format": "hh-sol-artifact-1",
  "contractName": "DAO",
  "sourceName": "contracts/DAO/DAO.sol",
  "abi": [
    {
      "anonymous": false,
      "inputs": [
        {
          "indexed": false,
          "internalType": "address",
          "name": "contractAddr",
          "type": "address"
        },
        {
          "indexed": false,
          "internalType": "bytes",
          "name": "inputData",
          "type": "bytes"
        },
        {
          "indexed": false,
          "internalType": "bytes",
          "name": "callBackData",
          "type": "bytes"
        }
      ],
      "name": "Call",
      "type": "event"
    },
    {
      "anonymous": false,
      "inputs": [
        {
          "indexed": false,
          "internalType": "bytes32",
          "name": "tag",
          "type": "bytes32"
        },
        {
          "indexed": false,
          "internalType": "address",
          "name": "data",
          "type": "address"
        }
      ],
      "name": "SetAddress",
      "type": "event"
    },
    {
      "anonymous": false,
      "inputs": [
        {
          "indexed": false,
          "internalType": "bytes32",
          "name": "tag",
          "type": "bytes32"
        },
        {
          "indexed": false,
          "internalType": "bool",
          "name": "data",
          "type": "bool"
        }
      ],
      "name": "SetBool",
      "type": "event"
    },
    {
      "anonymous": false,
      "inputs": [
        {
          "indexed": false,
          "internalType": "bytes32",
          "name": "tag",
          "type": "bytes32"
        },
        {
          "indexed": false,
          "internalType": "bytes",
          "name": "data",
          "type": "bytes"
        }
      ],
      "name": "SetBytes",
      "type": "event"
    },
    {
      "anonymous": false,
      "inputs": [
        {
          "indexed": false,
          "internalType": "bytes32",
          "name": "tag",
          "type": "bytes32"
        },
        {
          "indexed": false,
          "internalType": "int256",
          "name": "data",
          "type": "int256"
        }
      ],
      "name": "SetInt",
      "type": "event"
    },
    {
      "anonymous": false,
      "inputs": [
        {
          "indexed": false,
          "internalType": "bytes32",
          "name": "tag",
          "type": "bytes32"
        },
        {
          "indexed": false,
          "internalType": "string",
          "name": "data",
          "type": "string"
        }
      ],
      "name": "SetString",
      "type": "event"
    },
    {
      "anonymous": false,
      "inputs": [
        {
          "indexed": false,
          "internalType": "bytes32",
          "name": "tag",
          "type": "bytes32"
        },
        {
          "indexed": false,
          "internalType": "uint256",
          "name": "data",
          "type": "uint256"
        }
      ],
      "name": "SetUint",
      "type": "event"
    },
    {
      "inputs": [
        {
          "internalType": "address",
          "name": "contractAddr",
          "type": "address"
        },
        {
          "internalType": "bytes",
          "name": "inputData",
          "type": "bytes"
        }
      ],
      "name": "call",
      "outputs": [
        {
          "internalType": "bytes",
          "name": "callBackData",
          "type": "bytes"
        }
      ],
      "stateMutability": "nonpayable",
      "type": "function"
    },
    {
      "inputs": [
        {
          "internalType": "bytes32",
          "name": "tag",
          "type": "bytes32"
        }
      ],
      "name": "getAddress",
      "outputs": [
        {
          "internalType": "address",
          "name": "data",
          "type": "address"
        }
      ],
      "stateMutability": "view",
      "type": "function"
    },
    {
      "inputs": [
        {
          "internalType": "bytes32",
          "name": "tag",
          "type": "bytes32"
        }
      ],
      "name": "getBool",
      "outputs": [
        {
          "internalType": "bool",
          "name": "data",
          "type": "bool"
        }
      ],
      "stateMutability": "view",
      "type": "function"
    },
    {
      "inputs": [
        {
          "internalType": "bytes32",
          "name": "tag",
          "type": "bytes32"
        }
      ],
      "name": "getBytes",
      "outputs": [
        {
          "internalType": "bytes",
          "name": "data",
          "type": "bytes"
        }
      ],
      "stateMutability": "view",
      "type": "function"
    },
    {
      "inputs": [
        {
          "internalType": "bytes32",
          "name": "tag",
          "type": "bytes32"
        }
      ],
      "name": "getInt",
      "outputs": [
        {
          "internalType": "int256",
          "name": "data",
          "type": "int256"
        }
      ],
      "stateMutability": "view",
      "type": "function"
    },
    {
      "inputs": [
        {
          "internalType": "bytes32",
          "name": "tag",
          "type": "bytes32"
        }
      ],
      "name": "getString",
      "outputs": [
        {
          "internalType": "string",
          "name": "data",
          "type": "string"
        }
      ],
      "stateMutability": "view",
      "type": "function"
    },
    {
      "inputs": [
        {
          "internalType": "bytes32",
          "name": "tag",
          "type": "bytes32"
        }
      ],
      "name": "getUint",
      "outputs": [
        {
          "internalType": "uint256",
          "name": "data",
          "type": "uint256"
        }
      ],
      "stateMutability": "view",
      "type": "function"
    },
    {
      "inputs": [
        {
          "internalType": "bytes32",
          "name": "tag",
          "type": "bytes32"
        },
        {
          "internalType": "address",
          "name": "data",
          "type": "address"
        }
      ],
      "name": "setAddress",
      "outputs": [],
      "stateMutability": "nonpayable",
      "type": "function"
    },
    {
      "inputs": [
        {
          "internalType": "bytes32",
          "name": "tag",
          "type": "bytes32"
        },
        {
          "internalType": "bool",
          "name": "data",
          "type": "bool"
        }
      ],
      "name": "setBool",
      "outputs": [],
      "stateMutability": "nonpayable",
      "type": "function"
    },
    {
      "inputs": [
        {
          "internalType": "bytes32",
          "name": "tag",
          "type": "bytes32"
        },
        {
          "internalType": "bytes",
          "name": "data",
          "type": "bytes"
        }
      ],
      "name": "setBytes",
      "outputs": [],
      "stateMutability": "nonpayable",
      "type": "function"
    },
    {
      "inputs": [
        {
          "internalType": "bytes32",
          "name": "tag",
          "type": "bytes32"
        },
        {
          "internalType": "int256",
          "name": "data",
          "type": "int256"
        }
      ],
      "name": "setInt",
      "outputs": [],
      "stateMutability": "nonpayable",
      "type": "function"
    },
    {
      "inputs": [
        {
          "internalType": "bytes32",
          "name": "tag",
          "type": "bytes32"
        },
        {
          "internalType": "string",
          "name": "data",
          "type": "string"
        }
      ],
      "name": "setString",
      "outputs": [],
      "stateMutability": "nonpayable",
      "type": "function"
    },
    {
      "inputs": [
        {
          "internalType": "bytes32",
          "name": "tag",
          "type": "bytes32"
        },
        {
          "internalType": "uint256",
          "name": "data",
          "type": "uint256"
        }
      ],
      "name": "setUint",
      "outputs": [],
      "stateMutability": "nonpayable",
      "type": "function"
    }
  ],
  "bytecode": "0x60a060405273245caa689fa16ab50df4e8ab48555715877f79ff73ffffffffffffffffffffffffffffffffffffffff1660809073ffffffffffffffffffffffffffffffffffffffff1681525034801561005757600080fd5b50608051611d5961009d600039600081816102d30152818161056a01528181610734015281816108ee01528181610b8601528181610e1401526110250152611d596000f3fe608060405234801561001057600080fd5b50600436106100cf5760003560e01c8063986e791a1161008c578063c031a18011610066578063c031a18014610234578063ca446dd914610264578063dc97d96214610280578063e2a4853a146102b0576100cf565b8063986e791a146101b8578063abfdcced146101e8578063bd02d0f514610204576100cf565b80631b8b921d146100d457806321f8a721146101045780632e28d084146101345780633e49bed0146101505780636e8995501461016c5780637ae1cfca14610188575b600080fd5b6100ee60048036038101906100e991906114bb565b6102cc565b6040516100fb919061159f565b60405180910390f35b61011e600480360381019061011991906115f7565b610528565b60405161012b9190611633565b60405180910390f35b61014e6004803603810190610149919061164e565b610565565b005b61016a600480360381019061016591906116e0565b61072f565b005b610186600480360381019061018191906117c1565b6108e9565b005b6101a2600480360381019061019d91906115f7565b610ab3565b6040516101af9190611838565b60405180910390f35b6101d260048036038101906101cd91906115f7565b610adc565b6040516101df91906118a8565b60405180910390f35b61020260048036038101906101fd91906118f6565b610b81565b005b61021e600480360381019061021991906115f7565b610d4d565b60405161022b919061194f565b60405180910390f35b61024e600480360381019061024991906115f7565b610d6a565b60405161025b919061159f565b60405180910390f35b61027e6004803603810190610279919061196a565b610e0f565b005b61029a600480360381019061029591906115f7565b611003565b6040516102a791906119b9565b60405180910390f35b6102ca60048036038101906102c59190611a00565b611020565b005b60606000807f000000000000000000000000000000000000000000000000000000000000000073ffffffffffffffffffffffffffffffffffffffff166040516024016040516020818303038152906040527f12d43a51000000000000000000000000000000000000000000000000000000007bffffffffffffffffffffffffffffffffffffffffffffffffffffffff19166020820180517bffffffffffffffffffffffffffffffffffffffffffffffffffffffff83818316178352505050506040516103989190611a7c565b600060405180830381855afa9150503d80600081146103d3576040519150601f19603f3d011682016040523d82523d6000602084013e6103d8565b606091505b50915091508180156104285750808060200190518101906103f99190611ad1565b73ffffffffffffffffffffffffffffffffffffffff163373ffffffffffffffffffffffffffffffffffffffff16145b61043157600080fd5b6000808673ffffffffffffffffffffffffffffffffffffffff16866040516104599190611a7c565b6000604051808303816000865af19150503d8060008114610496576040519150601f19603f3d011682016040523d82523d6000602084013e61049b565b606091505b5091509150816104e0576040517f08c379a00000000000000000000000000000000000000000000000000000000081526004016104d790611b4a565b60405180910390fd5b7f2b5af078ce280d812dc2241658dc5435c93408020e5418eef55a2b536de51c0f87878360405161051393929190611b6a565b60405180910390a18094505050505092915050565b60006003600083815260200190815260200160002060009054906101000a900473ffffffffffffffffffffffffffffffffffffffff169050919050565b6000807f000000000000000000000000000000000000000000000000000000000000000073ffffffffffffffffffffffffffffffffffffffff166040516024016040516020818303038152906040527f12d43a51000000000000000000000000000000000000000000000000000000007bffffffffffffffffffffffffffffffffffffffffffffffffffffffff19166020820180517bffffffffffffffffffffffffffffffffffffffffffffffffffffffff838183161783525050505060405161062f9190611a7c565b600060405180830381855afa9150503d806000811461066a576040519150601f19603f3d011682016040523d82523d6000602084013e61066f565b606091505b50915091508180156106bf5750808060200190518101906106909190611ad1565b73ffffffffffffffffffffffffffffffffffffffff163373ffffffffffffffffffffffffffffffffffffffff16145b6106c857600080fd5b826005600086815260200190815260200160002090805190602001906106ef9291906111da565b507f54cc8da5421639db2b73f1274ab4d83daf1dece25d4563b1f2b6559036f796e88484604051610721929190611bbe565b60405180910390a150505050565b6000807f000000000000000000000000000000000000000000000000000000000000000073ffffffffffffffffffffffffffffffffffffffff166040516024016040516020818303038152906040527f12d43a51000000000000000000000000000000000000000000000000000000007bffffffffffffffffffffffffffffffffffffffffffffffffffffffff19166020820180517bffffffffffffffffffffffffffffffffffffffffffffffffffffffff83818316178352505050506040516107f99190611a7c565b600060405180830381855afa9150503d8060008114610834576040519150601f19603f3d011682016040523d82523d6000602084013e610839565b606091505b509150915081801561088957508080602001905181019061085a9190611ad1565b73ffffffffffffffffffffffffffffffffffffffff163373ffffffffffffffffffffffffffffffffffffffff16145b61089257600080fd5b8260026000868152602001908152602001600020819055507f48abdb84ef047cbb3f1f197c0e760737007cc8138a0fb18d6cbf23e90aec263c84846040516108db929190611bee565b60405180910390a150505050565b6000807f000000000000000000000000000000000000000000000000000000000000000073ffffffffffffffffffffffffffffffffffffffff166040516024016040516020818303038152906040527f12d43a51000000000000000000000000000000000000000000000000000000007bffffffffffffffffffffffffffffffffffffffffffffffffffffffff19166020820180517bffffffffffffffffffffffffffffffffffffffffffffffffffffffff83818316178352505050506040516109b39190611a7c565b600060405180830381855afa9150503d80600081146109ee576040519150601f19603f3d011682016040523d82523d6000602084013e6109f3565b606091505b5091509150818015610a43575080806020019051810190610a149190611ad1565b73ffffffffffffffffffffffffffffffffffffffff163373ffffffffffffffffffffffffffffffffffffffff16145b610a4c57600080fd5b82600460008681526020019081526020016000209080519060200190610a73929190611260565b507f60a811eca25d7271d31214fefe3ad82281ee98bbd8cd60870e8fb6289c4bd71b8484604051610aa5929190611c17565b60405180910390a150505050565b600080600083815260200190815260200160002060009054906101000a900460ff169050919050565b6060600460008381526020019081526020016000208054610afc90611c76565b80601f0160208091040260200160405190810160405280929190818152602001828054610b2890611c76565b8015610b755780601f10610b4a57610100808354040283529160200191610b75565b820191906000526020600020905b815481529060010190602001808311610b5857829003601f168201915b50505050509050919050565b6000807f000000000000000000000000000000000000000000000000000000000000000073ffffffffffffffffffffffffffffffffffffffff166040516024016040516020818303038152906040527f12d43a51000000000000000000000000000000000000000000000000000000007bffffffffffffffffffffffffffffffffffffffffffffffffffffffff19166020820180517bffffffffffffffffffffffffffffffffffffffffffffffffffffffff8381831617835250505050604051610c4b9190611a7c565b600060405180830381855afa9150503d8060008114610c86576040519150601f19603f3d011682016040523d82523d6000602084013e610c8b565b606091505b5091509150818015610cdb575080806020019051810190610cac9190611ad1565b73ffffffffffffffffffffffffffffffffffffffff163373ffffffffffffffffffffffffffffffffffffffff16145b610ce457600080fd5b8260008086815260200190815260200160002060006101000a81548160ff0219169083151502179055507f3b0490d2388b98265ff19374e42841f02752a50e4c90f27734b8025df1b8da818484604051610d3f929190611ca8565b60405180910390a150505050565b600060016000838152602001908152602001600020549050919050565b6060600560008381526020019081526020016000208054610d8a90611c76565b80601f0160208091040260200160405190810160405280929190818152602001828054610db690611c76565b8015610e035780601f10610dd857610100808354040283529160200191610e03565b820191906000526020600020905b815481529060010190602001808311610de657829003601f168201915b50505050509050919050565b6000807f000000000000000000000000000000000000000000000000000000000000000073ffffffffffffffffffffffffffffffffffffffff166040516024016040516020818303038152906040527f12d43a51000000000000000000000000000000000000000000000000000000007bffffffffffffffffffffffffffffffffffffffffffffffffffffffff19166020820180517bffffffffffffffffffffffffffffffffffffffffffffffffffffffff8381831617835250505050604051610ed99190611a7c565b600060405180830381855afa9150503d8060008114610f14576040519150601f19603f3d011682016040523d82523d6000602084013e610f19565b606091505b5091509150818015610f69575080806020019051810190610f3a9190611ad1565b73ffffffffffffffffffffffffffffffffffffffff163373ffffffffffffffffffffffffffffffffffffffff16145b610f7257600080fd5b826003600086815260200190815260200160002060006101000a81548173ffffffffffffffffffffffffffffffffffffffff021916908373ffffffffffffffffffffffffffffffffffffffff1602179055507f77879ade5d0fc220756fdd6255178c5a1ad8e5ee2ae2970e8b2610242d38d8da8484604051610ff5929190611cd1565b60405180910390a150505050565b600060026000838152602001908152602001600020549050919050565b6000807f000000000000000000000000000000000000000000000000000000000000000073ffffffffffffffffffffffffffffffffffffffff166040516024016040516020818303038152906040527f12d43a51000000000000000000000000000000000000000000000000000000007bffffffffffffffffffffffffffffffffffffffffffffffffffffffff19166020820180517bffffffffffffffffffffffffffffffffffffffffffffffffffffffff83818316178352505050506040516110ea9190611a7c565b600060405180830381855afa9150503d8060008114611125576040519150601f19603f3d011682016040523d82523d6000602084013e61112a565b606091505b509150915081801561117a57508080602001905181019061114b9190611ad1565b73ffffffffffffffffffffffffffffffffffffffff163373ffffffffffffffffffffffffffffffffffffffff16145b61118357600080fd5b8260016000868152602001908152602001600020819055507f3aa955f7e4f799f5e41900177cf35c185dd3fadf36fafb7a5519aa91ce5fefa584846040516111cc929190611cfa565b60405180910390a150505050565b8280546111e690611c76565b90600052602060002090601f016020900481019282611208576000855561124f565b82601f1061122157805160ff191683800117855561124f565b8280016001018555821561124f579182015b8281111561124e578251825591602001919060010190611233565b5b50905061125c91906112e6565b5090565b82805461126c90611c76565b90600052602060002090601f01602090048101928261128e57600085556112d5565b82601f106112a757805160ff19168380011785556112d5565b828001600101855582156112d5579182015b828111156112d45782518255916020019190600101906112b9565b5b5090506112e291906112e6565b5090565b5b808211156112ff5760008160009055506001016112e7565b5090565b6000604051905090565b600080fd5b600080fd5b600073ffffffffffffffffffffffffffffffffffffffff82169050919050565b600061134282611317565b9050919050565b61135281611337565b811461135d57600080fd5b50565b60008135905061136f81611349565b92915050565b600080fd5b600080fd5b6000601f19601f8301169050919050565b7f4e487b7100000000000000000000000000000000000000000000000000000000600052604160045260246000fd5b6113c88261137f565b810181811067ffffffffffffffff821117156113e7576113e6611390565b5b80604052505050565b60006113fa611303565b905061140682826113bf565b919050565b600067ffffffffffffffff82111561142657611425611390565b5b61142f8261137f565b9050602081019050919050565b82818337600083830152505050565b600061145e6114598461140b565b6113f0565b90508281526020810184848401111561147a5761147961137a565b5b61148584828561143c565b509392505050565b600082601f8301126114a2576114a1611375565b5b81356114b284826020860161144b565b91505092915050565b600080604083850312156114d2576114d161130d565b5b60006114e085828601611360565b925050602083013567ffffffffffffffff81111561150157611500611312565b5b61150d8582860161148d565b9150509250929050565b600081519050919050565b600082825260208201905092915050565b60005b83811015611551578082015181840152602081019050611536565b83811115611560576000848401525b50505050565b600061157182611517565b61157b8185611522565b935061158b818560208601611533565b6115948161137f565b840191505092915050565b600060208201905081810360008301526115b98184611566565b905092915050565b6000819050919050565b6115d4816115c1565b81146115df57600080fd5b50565b6000813590506115f1816115cb565b92915050565b60006020828403121561160d5761160c61130d565b5b600061161b848285016115e2565b91505092915050565b61162d81611337565b82525050565b60006020820190506116486000830184611624565b92915050565b600080604083850312156116655761166461130d565b5b6000611673858286016115e2565b925050602083013567ffffffffffffffff81111561169457611693611312565b5b6116a08582860161148d565b9150509250929050565b6000819050919050565b6116bd816116aa565b81146116c857600080fd5b50565b6000813590506116da816116b4565b92915050565b600080604083850312156116f7576116f661130d565b5b6000611705858286016115e2565b9250506020611716858286016116cb565b9150509250929050565b600067ffffffffffffffff82111561173b5761173a611390565b5b6117448261137f565b9050602081019050919050565b600061176461175f84611720565b6113f0565b9050828152602081018484840111156117805761177f61137a565b5b61178b84828561143c565b509392505050565b600082601f8301126117a8576117a7611375565b5b81356117b8848260208601611751565b91505092915050565b600080604083850312156117d8576117d761130d565b5b60006117e6858286016115e2565b925050602083013567ffffffffffffffff81111561180757611806611312565b5b61181385828601611793565b9150509250929050565b60008115159050919050565b6118328161181d565b82525050565b600060208201905061184d6000830184611829565b92915050565b600081519050919050565b600082825260208201905092915050565b600061187a82611853565b611884818561185e565b9350611894818560208601611533565b61189d8161137f565b840191505092915050565b600060208201905081810360008301526118c2818461186f565b905092915050565b6118d38161181d565b81146118de57600080fd5b50565b6000813590506118f0816118ca565b92915050565b6000806040838503121561190d5761190c61130d565b5b600061191b858286016115e2565b925050602061192c858286016118e1565b9150509250929050565b6000819050919050565b61194981611936565b82525050565b60006020820190506119646000830184611940565b92915050565b600080604083850312156119815761198061130d565b5b600061198f858286016115e2565b92505060206119a085828601611360565b9150509250929050565b6119b3816116aa565b82525050565b60006020820190506119ce60008301846119aa565b92915050565b6119dd81611936565b81146119e857600080fd5b50565b6000813590506119fa816119d4565b92915050565b60008060408385031215611a1757611a1661130d565b5b6000611a25858286016115e2565b9250506020611a36858286016119eb565b9150509250929050565b600081905092915050565b6000611a5682611517565b611a608185611a40565b9350611a70818560208601611533565b80840191505092915050565b6000611a888284611a4b565b915081905092915050565b6000611a9e82611317565b9050919050565b611aae81611a93565b8114611ab957600080fd5b50565b600081519050611acb81611aa5565b92915050565b600060208284031215611ae757611ae661130d565b5b6000611af584828501611abc565b91505092915050565b7f63616c6c206661696c65642e0000000000000000000000000000000000000000600082015250565b6000611b34600c8361185e565b9150611b3f82611afe565b602082019050919050565b60006020820190508181036000830152611b6381611b27565b9050919050565b6000606082019050611b7f6000830186611624565b8181036020830152611b918185611566565b90508181036040830152611ba58184611566565b9050949350505050565b611bb8816115c1565b82525050565b6000604082019050611bd36000830185611baf565b8181036020830152611be58184611566565b90509392505050565b6000604082019050611c036000830185611baf565b611c1060208301846119aa565b9392505050565b6000604082019050611c2c6000830185611baf565b8181036020830152611c3e818461186f565b90509392505050565b7f4e487b7100000000000000000000000000000000000000000000000000000000600052602260045260246000fd5b60006002820490506001821680611c8e57607f821691505b60208210811415611ca257611ca1611c47565b5b50919050565b6000604082019050611cbd6000830185611baf565b611cca6020830184611829565b9392505050565b6000604082019050611ce66000830185611baf565b611cf36020830184611624565b9392505050565b6000604082019050611d0f6000830185611baf565b611d1c6020830184611940565b939250505056fea264697066735822122028e9e85da3a90515fd405593c7e690cfd4826852b2a711019b3de8df6c22e5a564736f6c63430008090033",
  "linkReferences": {},
  "deployedLinkReferences": {}
}